{
  "contractName": "Dmarket",
  "abi": [
    {
      "inputs": [],
      "stateMutability": "nonpayable",
      "type": "constructor"
    },
    {
      "anonymous": false,
      "inputs": [
        {
          "indexed": true,
          "internalType": "address",
          "name": "_owner",
          "type": "address"
        },
        {
          "indexed": true,
          "internalType": "address",
          "name": "_spender",
          "type": "address"
        },
        {
          "indexed": false,
          "internalType": "uint256",
          "name": "_value",
          "type": "uint256"
        }
      ],
      "name": "Approval",
      "type": "event"
    },
    {
      "anonymous": false,
      "inputs": [
        {
          "indexed": true,
          "internalType": "address",
          "name": "_addr",
          "type": "address"
        },
        {
          "indexed": false,
          "internalType": "uint256",
          "name": "_userId",
          "type": "uint256"
        }
      ],
      "name": "ApprovedStoreOwner",
      "type": "event"
    },
    {
      "anonymous": false,
      "inputs": [
        {
          "indexed": true,
          "internalType": "address",
          "name": "from",
          "type": "address"
        },
        {
          "indexed": false,
          "internalType": "uint256",
          "name": "value",
          "type": "uint256"
        }
      ],
      "name": "Burn",
      "type": "event"
    },
    {
      "anonymous": false,
      "inputs": [
        {
          "indexed": true,
          "internalType": "address",
          "name": "_msgsender",
          "type": "address"
        },
        {
          "indexed": false,
          "internalType": "uint256",
          "name": "_storeNumber",
          "type": "uint256"
        }
      ],
      "name": "DeletedStore",
      "type": "event"
    },
    {
      "anonymous": false,
      "inputs": [
        {
          "indexed": false,
          "internalType": "address",
          "name": "target",
          "type": "address"
        },
        {
          "indexed": false,
          "internalType": "bool",
          "name": "frozen",
          "type": "bool"
        }
      ],
      "name": "FrozenFunds",
      "type": "event"
    },
    {
      "anonymous": false,
      "inputs": [
        {
          "indexed": true,
          "internalType": "address",
          "name": "_addr",
          "type": "address"
        }
      ],
      "name": "NewAdmin",
      "type": "event"
    },
    {
      "anonymous": false,
      "inputs": [
        {
          "indexed": true,
          "internalType": "address",
          "name": "_addr",
          "type": "address"
        },
        {
          "indexed": false,
          "internalType": "string",
          "name": "_itemName",
          "type": "string"
        },
        {
          "indexed": false,
          "internalType": "bytes",
          "name": "_itemRef",
          "type": "bytes"
        }
      ],
      "name": "NewItem",
      "type": "event"
    },
    {
      "anonymous": false,
      "inputs": [
        {
          "indexed": true,
          "internalType": "address",
          "name": "_msgsender",
          "type": "address"
        },
        {
          "indexed": false,
          "internalType": "string",
          "name": "_storeName",
          "type": "string"
        },
        {
          "indexed": false,
          "internalType": "uint256",
          "name": "_storeNum",
          "type": "uint256"
        }
      ],
      "name": "NewStoreFront",
      "type": "event"
    },
    {
      "anonymous": false,
      "inputs": [
        {
          "indexed": false,
          "internalType": "bytes",
          "name": "_referenceId",
          "type": "bytes"
        },
        {
          "indexed": false,
          "internalType": "uint256",
          "name": "_newSetPrice",
          "type": "uint256"
        }
      ],
      "name": "PriceChange",
      "type": "event"
    },
    {
      "anonymous": false,
      "inputs": [
        {
          "indexed": false,
          "internalType": "address",
          "name": "",
          "type": "address"
        },
        {
          "indexed": false,
          "internalType": "uint256",
          "name": "",
          "type": "uint256"
        }
      ],
      "name": "ReceivedEther",
      "type": "event"
    },
    {
      "anonymous": false,
      "inputs": [
        {
          "indexed": true,
          "internalType": "address",
          "name": "_msgsender",
          "type": "address"
        },
        {
          "indexed": false,
          "internalType": "string",
          "name": "_itemName",
          "type": "string"
        },
        {
          "indexed": false,
          "internalType": "uint256",
          "name": "_id",
          "type": "uint256"
        }
      ],
      "name": "RemovedItem",
      "type": "event"
    },
    {
      "anonymous": false,
      "inputs": [
        {
          "indexed": true,
          "internalType": "address",
          "name": "from",
          "type": "address"
        },
        {
          "indexed": true,
          "internalType": "address",
          "name": "to",
          "type": "address"
        },
        {
          "indexed": false,
          "internalType": "uint256",
          "name": "value",
          "type": "uint256"
        }
      ],
      "name": "Transfer",
      "type": "event"
    },
    {
      "anonymous": false,
      "inputs": [
        {
          "indexed": true,
          "internalType": "address",
          "name": "_storeOwnerAddress",
          "type": "address"
        },
        {
          "indexed": false,
          "internalType": "uint256",
          "name": "_storeNumber",
          "type": "uint256"
        }
      ],
      "name": "UnregisteredStore",
      "type": "event"
    },
    {
      "anonymous": false,
      "inputs": [
        {
          "indexed": true,
          "internalType": "address",
          "name": "_from",
          "type": "address"
        },
        {
          "indexed": true,
          "internalType": "address",
          "name": "_to",
          "type": "address"
        },
        {
          "indexed": false,
          "internalType": "uint256",
          "name": "_amount",
          "type": "uint256"
        }
      ],
      "name": "Withdrawal",
      "type": "event"
    },
    {
      "inputs": [
        {
          "internalType": "address",
          "name": "",
          "type": "address"
        }
      ],
      "name": "adminApprovalToAdd",
      "outputs": [
        {
          "internalType": "bool",
          "name": "",
          "type": "bool"
        }
      ],
      "stateMutability": "view",
      "type": "function",
      "constant": true
    },
    {
      "inputs": [],
      "name": "adminCount",
      "outputs": [
        {
          "internalType": "uint256",
          "name": "",
          "type": "uint256"
        }
      ],
      "stateMutability": "view",
      "type": "function",
      "constant": true
    },
    {
      "inputs": [
        {
          "internalType": "uint256",
          "name": "",
          "type": "uint256"
        }
      ],
      "name": "admins",
      "outputs": [
        {
          "internalType": "address",
          "name": "",
          "type": "address"
        }
      ],
      "stateMutability": "view",
      "type": "function",
      "constant": true
    },
    {
      "inputs": [
        {
          "internalType": "address",
          "name": "",
          "type": "address"
        },
        {
          "internalType": "address",
          "name": "",
          "type": "address"
        }
      ],
      "name": "allowance",
      "outputs": [
        {
          "internalType": "uint256",
          "name": "",
          "type": "uint256"
        }
      ],
      "stateMutability": "view",
      "type": "function",
      "constant": true
    },
    {
      "inputs": [
        {
          "internalType": "address",
          "name": "_spender",
          "type": "address"
        },
        {
          "internalType": "uint256",
          "name": "_value",
          "type": "uint256"
        }
      ],
      "name": "approve",
      "outputs": [
        {
          "internalType": "bool",
          "name": "success",
          "type": "bool"
        }
      ],
      "stateMutability": "nonpayable",
      "type": "function"
    },
    {
      "inputs": [
        {
          "internalType": "address",
          "name": "_spender",
          "type": "address"
        },
        {
          "internalType": "uint256",
          "name": "_value",
          "type": "uint256"
        },
        {
          "internalType": "bytes",
          "name": "_extraData",
          "type": "bytes"
        }
      ],
      "name": "approveAndCall",
      "outputs": [
        {
          "internalType": "bool",
          "name": "success",
          "type": "bool"
        }
      ],
      "stateMutability": "nonpayable",
      "type": "function"
    },
    {
      "inputs": [
        {
          "internalType": "uint256",
          "name": "",
          "type": "uint256"
        }
      ],
      "name": "availableItems",
      "outputs": [
        {
          "internalType": "bool",
          "name": "",
          "type": "bool"
        }
      ],
      "stateMutability": "view",
      "type": "function",
      "constant": true
    },
    {
      "inputs": [
        {
          "internalType": "address",
          "name": "",
          "type": "address"
        }
      ],
      "name": "balanceOf",
      "outputs": [
        {
          "internalType": "uint256",
          "name": "",
          "type": "uint256"
        }
      ],
      "stateMutability": "view",
      "type": "function",
      "constant": true
    },
    {
      "inputs": [
        {
          "internalType": "uint256",
          "name": "_value",
          "type": "uint256"
        }
      ],
      "name": "burn",
      "outputs": [
        {
          "internalType": "bool",
          "name": "success",
          "type": "bool"
        }
      ],
      "stateMutability": "nonpayable",
      "type": "function"
    },
    {
      "inputs": [
        {
          "internalType": "address",
          "name": "_from",
          "type": "address"
        },
        {
          "internalType": "uint256",
          "name": "_value",
          "type": "uint256"
        }
      ],
      "name": "burnFrom",
      "outputs": [
        {
          "internalType": "bool",
          "name": "success",
          "type": "bool"
        }
      ],
      "stateMutability": "nonpayable",
      "type": "function"
    },
    {
      "inputs": [],
      "name": "decimals",
      "outputs": [
        {
          "internalType": "uint8",
          "name": "",
          "type": "uint8"
        }
      ],
      "stateMutability": "view",
      "type": "function",
      "constant": true
    },
    {
      "inputs": [],
      "name": "etherBalance",
      "outputs": [
        {
          "internalType": "uint256",
          "name": "",
          "type": "uint256"
        }
      ],
      "stateMutability": "view",
      "type": "function",
      "constant": true
    },
    {
      "inputs": [
        {
          "internalType": "address",
          "name": "target",
          "type": "address"
        },
        {
          "internalType": "bool",
          "name": "freeze",
          "type": "bool"
        }
      ],
      "name": "freezeAccount",
      "outputs": [],
      "stateMutability": "nonpayable",
      "type": "function"
    },
    {
      "inputs": [
        {
          "internalType": "address",
          "name": "",
          "type": "address"
        }
      ],
      "name": "frozenAccounts",
      "outputs": [
        {
          "internalType": "bool",
          "name": "",
          "type": "bool"
        }
      ],
      "stateMutability": "view",
      "type": "function",
      "constant": true
    },
    {
      "inputs": [
        {
          "internalType": "address",
          "name": "",
          "type": "address"
        },
        {
          "internalType": "uint256",
          "name": "",
          "type": "uint256"
        }
      ],
      "name": "isAdmin",
      "outputs": [
        {
          "internalType": "bool",
          "name": "",
          "type": "bool"
        }
      ],
      "stateMutability": "view",
      "type": "function",
      "constant": true
    },
    {
      "inputs": [
        {
          "internalType": "address",
          "name": "",
          "type": "address"
        },
        {
          "internalType": "uint256",
          "name": "",
          "type": "uint256"
        }
      ],
      "name": "isStoreOwnerApproved",
      "outputs": [
        {
          "internalType": "bool",
          "name": "",
          "type": "bool"
        }
      ],
      "stateMutability": "view",
      "type": "function",
      "constant": true
    },
    {
      "inputs": [
        {
          "internalType": "uint256",
          "name": "",
          "type": "uint256"
        }
      ],
      "name": "itemBalance",
      "outputs": [
        {
          "internalType": "uint256",
          "name": "",
          "type": "uint256"
        }
      ],
      "stateMutability": "view",
      "type": "function",
      "constant": true
    },
    {
      "inputs": [],
      "name": "itemcount",
      "outputs": [
        {
          "internalType": "uint256",
          "name": "",
          "type": "uint256"
        }
      ],
      "stateMutability": "view",
      "type": "function",
      "constant": true
    },
    {
      "inputs": [
        {
          "internalType": "uint256",
          "name": "",
          "type": "uint256"
        }
      ],
      "name": "itemsList",
      "outputs": [
        {
          "internalType": "bytes",
          "name": "",
          "type": "bytes"
        }
      ],
      "stateMutability": "view",
      "type": "function",
      "constant": true
    },
    {
      "inputs": [],
      "name": "minimumDonation",
      "outputs": [
        {
          "internalType": "uint256",
          "name": "",
          "type": "uint256"
        }
      ],
      "stateMutability": "view",
      "type": "function",
      "constant": true
    },
    {
      "inputs": [
        {
          "internalType": "address",
          "name": "target",
          "type": "address"
        },
        {
          "internalType": "uint256",
          "name": "mintedAmount",
          "type": "uint256"
        }
      ],
      "name": "mintToken",
      "outputs": [],
      "stateMutability": "nonpayable",
      "type": "function"
    },
    {
      "inputs": [],
      "name": "name",
      "outputs": [
        {
          "internalType": "string",
          "name": "",
          "type": "string"
        }
      ],
      "stateMutability": "view",
      "type": "function",
      "constant": true
    },
    {
      "inputs": [],
      "name": "owner",
      "outputs": [
        {
          "internalType": "address",
          "name": "",
          "type": "address"
        }
      ],
      "stateMutability": "view",
      "type": "function",
      "constant": true
    },
    {
      "inputs": [
        {
          "internalType": "address",
          "name": "",
          "type": "address"
        },
        {
          "internalType": "uint256",
          "name": "",
          "type": "uint256"
        }
      ],
      "name": "ownerShip",
      "outputs": [
        {
          "internalType": "bool",
          "name": "",
          "type": "bool"
        }
      ],
      "stateMutability": "view",
      "type": "function",
      "constant": true
    },
    {
      "inputs": [
        {
          "internalType": "address",
          "name": "",
          "type": "address"
        }
      ],
      "name": "shoppers",
      "outputs": [
        {
          "internalType": "uint256",
          "name": "",
          "type": "uint256"
        }
      ],
      "stateMutability": "view",
      "type": "function",
      "constant": true
    },
    {
      "inputs": [],
      "name": "shoppersCount",
      "outputs": [
        {
          "internalType": "uint256",
          "name": "",
          "type": "uint256"
        }
      ],
      "stateMutability": "view",
      "type": "function",
      "constant": true
    },
    {
      "inputs": [],
      "name": "storeCount",
      "outputs": [
        {
          "internalType": "uint256",
          "name": "",
          "type": "uint256"
        }
      ],
      "stateMutability": "view",
      "type": "function",
      "constant": true
    },
    {
      "inputs": [
        {
          "internalType": "string",
          "name": "",
          "type": "string"
        },
        {
          "internalType": "uint256",
          "name": "",
          "type": "uint256"
        }
      ],
      "name": "storeExist",
      "outputs": [
        {
          "internalType": "bool",
          "name": "",
          "type": "bool"
        }
      ],
      "stateMutability": "view",
      "type": "function",
      "constant": true
    },
    {
      "inputs": [
        {
          "internalType": "string",
          "name": "",
          "type": "string"
        },
        {
          "internalType": "uint256",
          "name": "",
          "type": "uint256"
        }
      ],
      "name": "storeOwners",
      "outputs": [
        {
          "internalType": "address",
          "name": "",
          "type": "address"
        }
      ],
      "stateMutability": "view",
      "type": "function",
      "constant": true
    },
    {
      "inputs": [],
      "name": "storeOwnersCount",
      "outputs": [
        {
          "internalType": "uint256",
          "name": "",
          "type": "uint256"
        }
      ],
      "stateMutability": "view",
      "type": "function",
      "constant": true
    },
    {
      "inputs": [
        {
          "internalType": "address",
          "name": "",
          "type": "address"
        },
        {
          "internalType": "uint256",
          "name": "",
          "type": "uint256"
        }
      ],
      "name": "storefrontRef",
      "outputs": [
        {
          "internalType": "bytes",
          "name": "",
          "type": "bytes"
        }
      ],
      "stateMutability": "view",
      "type": "function",
      "constant": true
    },
    {
      "inputs": [
        {
          "internalType": "address",
          "name": "",
          "type": "address"
        },
        {
          "internalType": "string",
          "name": "",
          "type": "string"
        },
        {
          "internalType": "string",
          "name": "",
          "type": "string"
        },
        {
          "internalType": "uint256",
          "name": "",
          "type": "uint256"
        }
      ],
      "name": "storefrontRefItemMap",
      "outputs": [
        {
          "internalType": "bytes",
          "name": "",
          "type": "bytes"
        }
      ],
      "stateMutability": "view",
      "type": "function",
      "constant": true
    },
    {
      "inputs": [],
      "name": "symbol",
      "outputs": [
        {
          "internalType": "string",
          "name": "",
          "type": "string"
        }
      ],
      "stateMutability": "view",
      "type": "function",
      "constant": true
    },
    {
      "inputs": [],
      "name": "totalSupply",
      "outputs": [
        {
          "internalType": "uint256",
          "name": "",
          "type": "uint256"
        }
      ],
      "stateMutability": "view",
      "type": "function",
      "constant": true
    },
    {
      "inputs": [
        {
          "internalType": "address",
          "name": "_to",
          "type": "address"
        },
        {
          "internalType": "uint256",
          "name": "_value",
          "type": "uint256"
        }
      ],
      "name": "transfer",
      "outputs": [
        {
          "internalType": "bool",
          "name": "success",
          "type": "bool"
        }
      ],
      "stateMutability": "nonpayable",
      "type": "function"
    },
    {
      "inputs": [
        {
          "internalType": "address",
          "name": "_from",
          "type": "address"
        },
        {
          "internalType": "address",
          "name": "_to",
          "type": "address"
        },
        {
          "internalType": "uint256",
          "name": "_value",
          "type": "uint256"
        }
      ],
      "name": "transferFrom",
      "outputs": [
        {
          "internalType": "bool",
          "name": "success",
          "type": "bool"
        }
      ],
      "stateMutability": "nonpayable",
      "type": "function"
    },
    {
      "stateMutability": "payable",
      "type": "receive",
      "payable": true
    },
    {
      "inputs": [
        {
          "internalType": "address",
          "name": "_newOwner",
          "type": "address"
        }
      ],
      "name": "transferOwnership",
      "outputs": [],
      "stateMutability": "nonpayable",
      "type": "function"
    },
    {
      "inputs": [
        {
          "internalType": "address",
          "name": "_addr",
          "type": "address"
        }
      ],
      "name": "addAdmin",
      "outputs": [
        {
          "internalType": "bool",
          "name": "",
          "type": "bool"
        }
      ],
      "stateMutability": "nonpayable",
      "type": "function"
    },
    {
      "inputs": [
        {
          "internalType": "address",
          "name": "_addr",
          "type": "address"
        },
        {
          "internalType": "uint256",
          "name": "_id",
          "type": "uint256"
        }
      ],
      "name": "approve_StoreOwner",
      "outputs": [
        {
          "internalType": "bool",
          "name": "",
          "type": "bool"
        }
      ],
      "stateMutability": "nonpayable",
      "type": "function"
    },
    {
      "inputs": [
        {
          "internalType": "address",
          "name": "_addr",
          "type": "address"
        },
        {
          "internalType": "bool",
          "name": "_approval",
          "type": "bool"
        },
        {
          "internalType": "uint256",
          "name": "_id",
          "type": "uint256"
        }
      ],
      "name": "changeAdminApproval",
      "outputs": [
        {
          "internalType": "bool",
          "name": "",
          "type": "bool"
        }
      ],
      "stateMutability": "nonpayable",
      "type": "function"
    },
    {
      "inputs": [
        {
          "internalType": "address",
          "name": "_addr",
          "type": "address"
        },
        {
          "internalType": "bool",
          "name": "_approval",
          "type": "bool"
        },
        {
          "internalType": "uint256",
          "name": "_adminId",
          "type": "uint256"
        },
        {
          "internalType": "uint256",
          "name": "_storeOwnerId",
          "type": "uint256"
        }
      ],
      "name": "changeStoreOwnerApproval",
      "outputs": [
        {
          "internalType": "bool",
          "name": "",
          "type": "bool"
        }
      ],
      "stateMutability": "nonpayable",
      "type": "function"
    },
    {
      "inputs": [
        {
          "internalType": "string",
          "name": "_storeName",
          "type": "string"
        },
        {
          "internalType": "uint256",
          "name": "_userId",
          "type": "uint256"
        }
      ],
      "name": "addStorefront",
      "outputs": [
        {
          "internalType": "string",
          "name": "",
          "type": "string"
        },
        {
          "internalType": "uint256",
          "name": "",
          "type": "uint256"
        }
      ],
      "stateMutability": "nonpayable",
      "type": "function"
    },
    {
      "inputs": [
        {
          "internalType": "string",
          "name": "_name",
          "type": "string"
        },
        {
          "internalType": "uint256",
          "name": "_id",
          "type": "uint256"
        }
      ],
      "name": "getStoreOwner",
      "outputs": [
        {
          "internalType": "address",
          "name": "",
          "type": "address"
        }
      ],
      "stateMutability": "view",
      "type": "function",
      "constant": true
    },
    {
      "inputs": [
        {
          "internalType": "string",
          "name": "_itemName",
          "type": "string"
        },
        {
          "internalType": "string",
          "name": "_description",
          "type": "string"
        },
        {
          "internalType": "uint256",
          "name": "_price",
          "type": "uint256"
        },
        {
          "internalType": "string",
          "name": "_storeName",
          "type": "string"
        },
        {
          "internalType": "uint256",
          "name": "_qnty",
          "type": "uint256"
        },
        {
          "internalType": "uint256",
          "name": "_userId",
          "type": "uint256"
        }
      ],
      "name": "addItemToStore",
      "outputs": [
        {
          "internalType": "bool",
          "name": "",
          "type": "bool"
        }
      ],
      "stateMutability": "nonpayable",
      "type": "function"
    },
    {
      "inputs": [
        {
          "internalType": "string",
          "name": "_storeName",
          "type": "string"
        },
        {
          "internalType": "uint256",
          "name": "_userId",
          "type": "uint256"
        },
        {
          "internalType": "string",
          "name": "_itemName",
          "type": "string"
        },
        {
          "internalType": "uint256",
          "name": "_itemNumber",
          "type": "uint256"
        }
      ],
      "name": "removeAnItem",
      "outputs": [
        {
          "internalType": "bool",
          "name": "",
          "type": "bool"
        }
      ],
      "stateMutability": "nonpayable",
      "type": "function"
    },
    {
      "inputs": [
        {
          "internalType": "string",
          "name": "_storeName",
          "type": "string"
        },
        {
          "internalType": "uint256",
          "name": "_userId",
          "type": "uint256"
        },
        {
          "internalType": "uint256",
          "name": "_storeNumber",
          "type": "uint256"
        }
      ],
      "name": "removeAStore",
      "outputs": [
        {
          "internalType": "bool",
          "name": "",
          "type": "bool"
        }
      ],
      "stateMutability": "nonpayable",
      "type": "function"
    },
    {
      "inputs": [
        {
          "internalType": "string",
          "name": "_name",
          "type": "string"
        },
        {
          "internalType": "uint256",
          "name": "_qnty",
          "type": "uint256"
        },
        {
          "internalType": "uint256",
          "name": "_itemNumber",
          "type": "uint256"
        }
      ],
      "name": "buyItem",
      "outputs": [
        {
          "internalType": "bool",
          "name": "",
          "type": "bool"
        }
      ],
      "stateMutability": "payable",
      "type": "function",
      "payable": true
    },
    {
      "inputs": [
        {
          "internalType": "address payable",
          "name": "_addr",
          "type": "address"
        },
        {
          "internalType": "uint256",
          "name": "_amount",
          "type": "uint256"
        },
        {
          "internalType": "uint256",
          "name": "_userId",
          "type": "uint256"
        }
      ],
      "name": "withdrawBalanceStoreOwner",
      "outputs": [
        {
          "internalType": "bool",
          "name": "success",
          "type": "bool"
        }
      ],
      "stateMutability": "payable",
      "type": "function",
      "payable": true
    },
    {
      "inputs": [
        {
          "internalType": "address",
          "name": "_addr",
          "type": "address"
        },
        {
          "internalType": "uint8",
          "name": "_id",
          "type": "uint8"
        }
      ],
      "name": "disableAdmin",
      "outputs": [
        {
          "internalType": "bool",
          "name": "",
          "type": "bool"
        }
      ],
      "stateMutability": "nonpayable",
      "type": "function"
    },
    {
      "inputs": [
        {
          "internalType": "uint256",
          "name": "_amount",
          "type": "uint256"
        }
      ],
      "name": "withdraw",
      "outputs": [],
      "stateMutability": "payable",
      "type": "function",
      "payable": true
    },
    {
      "inputs": [],
      "name": "sendEther",
      "outputs": [
        {
          "internalType": "bool",
          "name": "",
          "type": "bool"
        }
      ],
      "stateMutability": "payable",
      "type": "function",
      "payable": true
    },
    {
      "inputs": [],
      "name": "getBalance",
      "outputs": [
        {
          "internalType": "uint256",
          "name": "",
          "type": "uint256"
        }
      ],
      "stateMutability": "view",
      "type": "function",
      "constant": true
    }
  ],
  "bytecode": "0x60806040526012600360006101000a81548160ff021916908360ff16021790555060006008556000600960006101000a81548160ff021916908360ff1602179055506000600a556000600b556000600c556000600d5567016345785d8a00006010553480156200006e57600080fd5b506207a1206040518060400160405280600a81526020017f676d617274746f6b656e000000000000000000000000000000000000000000008152506040518060400160405280600381526020017f474d540000000000000000000000000000000000000000000000000000000000815250600360009054906101000a900460ff1660ff16600a0a8302600481905550600454600560003373ffffffffffffffffffffffffffffffffffffffff1673ffffffffffffffffffffffffffffffffffffffff1681526020019081526020016000208190555081600190805190602001906200015b929190620001be565b50806002908051906020019062000174929190620001be565b50505050336000806101000a81548173ffffffffffffffffffffffffffffffffffffffff021916908373ffffffffffffffffffffffffffffffffffffffff1602179055506200026d565b828054600181600116156101000203166002900490600052602060002090601f016020900481019282601f106200020157805160ff191683800117855562000232565b8280016001018555821562000232579182015b828111156200023157825182559160200191906001019062000214565b5b50905062000241919062000245565b5090565b6200026a91905b80821115620002665760008160009055506001016200024c565b5090565b90565b616b82806200027d6000396000f3fe6080604052600436106103035760003560e01c806379cc679011610190578063b9ed31d1116100dc578063e62092be11610095578063f33125e21161006f578063f33125e214611ddf578063f3af35a114611e0a578063f7b1d6a614611e93578063fba855d014611f7d57610375565b8063e62092be14611cbe578063e724529c14611d31578063f2fde38b14611d8e57610375565b8063b9ed31d1146118c4578063bf2844b114611937578063c2bd9d95146119a7578063cae9ca5114611a5b578063dae54aea14611b65578063dd62ed3e14611c3957610375565b8063927603f711610149578063a1b141d411610123578063a1b141d4146117d0578063a9059cbb146117fb578063ad66e52a1461186e578063b75fd88f1461189957610375565b8063927603f71461169f57806395d89b411461171557806396d8f4f3146117a557610375565b806379cc6790146113eb5780637f4607141461145e5780638441a6e9146114d1578063860838a5146115765780638da5cb5b146115df5780638efca0dd1461163657610375565b8063347074e31161024f57806360ed6b341161020857806371cb1ece116101e257806371cb1ece14610f5a57806373fcb5fc14610fd9578063750414911461116457806379c650681461139057610375565b806360ed6b3414610d7a5780637048027514610e8c57806370a0823114610ef557610375565b8063347074e3146108615780633b0f0161146108b45780634232dc02146109a857806342654a65146109d357806342966c6814610b2557806351b7a63114610b7857610375565b806319f17c79116102bc5780632b7832b3116102965780632b7832b3146107885780632d983619146107b35780632e1a7d4d14610802578063313ce5671461083057610375565b806319f17c791461057057806323b872dd1461068257806324aa42571461071557610375565b806306fdde031461037a578063095ea7b31461040a5780630e29df221461047d57806312065fe01461049f57806314bfd6d0146104ca57806318160ddd1461054557610375565b36610375577fa419615bc8fda4c87663805ee2a3597a6d71c1d476911d9892f340d965bc7bf13334604051808373ffffffffffffffffffffffffffffffffffffffff1673ffffffffffffffffffffffffffffffffffffffff1681526020018281526020019250505060405180910390a1005b600080fd5b34801561038657600080fd5b5061038f611fe2565b6040518080602001828103825283818151815260200191508051906020019080838360005b838110156103cf5780820151818401526020810190506103b4565b50505050905090810190601f1680156103fc5780820380516001836020036101000a031916815260200191505b509250505060405180910390f35b34801561041657600080fd5b506104636004803603604081101561042d57600080fd5b81019080803573ffffffffffffffffffffffffffffffffffffffff16906020019092919080359060200190929190505050612080565b604051808215151515815260200191505060405180910390f35b610485612172565b604051808215151515815260200191505060405180910390f35b3480156104ab57600080fd5b506104b4612270565b6040518082815260200191505060405180910390f35b3480156104d657600080fd5b50610503600480360360208110156104ed57600080fd5b8101908080359060200190929190505050612278565b604051808273ffffffffffffffffffffffffffffffffffffffff1673ffffffffffffffffffffffffffffffffffffffff16815260200191505060405180910390f35b34801561055157600080fd5b5061055a6122b4565b6040518082815260200191505060405180910390f35b34801561057c57600080fd5b506106406004803603604081101561059357600080fd5b81019080803590602001906401000000008111156105b057600080fd5b8201836020820111156105c257600080fd5b803590602001918460018302840111640100000000831117156105e457600080fd5b91908080601f016020809104026020016040519081016040528093929190818152602001838380828437600081840152601f19601f820116905080830192505050505050509192919290803590602001909291905050506122ba565b604051808273ffffffffffffffffffffffffffffffffffffffff1673ffffffffffffffffffffffffffffffffffffffff16815260200191505060405180910390f35b34801561068e57600080fd5b506106fb600480360360608110156106a557600080fd5b81019080803573ffffffffffffffffffffffffffffffffffffffff169060200190929190803573ffffffffffffffffffffffffffffffffffffffff16906020019092919080359060200190929190505050612312565b604051808215151515815260200191505060405180910390f35b34801561072157600080fd5b5061076e6004803603604081101561073857600080fd5b81019080803573ffffffffffffffffffffffffffffffffffffffff169060200190929190803590602001909291905050506124eb565b604051808215151515815260200191505060405180910390f35b34801561079457600080fd5b5061079d61251a565b6040518082815260200191505060405180910390f35b3480156107bf57600080fd5b506107ec600480360360208110156107d657600080fd5b8101908080359060200190929190505050612520565b6040518082815260200191505060405180910390f35b61082e6004803603602081101561081857600080fd5b8101908080359060200190929190505050612538565b005b34801561083c57600080fd5b50610845612651565b604051808260ff1660ff16815260200191505060405180910390f35b34801561086d57600080fd5b5061089a6004803603602081101561088457600080fd5b8101908080359060200190929190505050612664565b604051808215151515815260200191505060405180910390f35b3480156108c057600080fd5b5061098e600480360360608110156108d757600080fd5b81019080803590602001906401000000008111156108f457600080fd5b82018360208201111561090657600080fd5b8035906020019184600183028401116401000000008311171561092857600080fd5b91908080601f016020809104026020016040519081016040528093929190818152602001838380828437600081840152601f19601f8201169050808301925050505050505091929192908035906020019092919080359060200190929190505050612684565b604051808215151515815260200191505060405180910390f35b3480156109b457600080fd5b506109bd612a1d565b6040518082815260200191505060405180910390f35b3480156109df57600080fd5b50610aa3600480360360408110156109f657600080fd5b8101908080359060200190640100000000811115610a1357600080fd5b820183602082011115610a2557600080fd5b80359060200191846001830284011164010000000083111715610a4757600080fd5b91908080601f016020809104026020016040519081016040528093929190818152602001838380828437600081840152601f19601f82011690508083019250505050505050919291929080359060200190929190505050612a23565b6040518080602001838152602001828103825284818151815260200191508051906020019080838360005b83811015610ae9578082015181840152602081019050610ace565b50505050905090810190601f168015610b165780820380516001836020036101000a031916815260200191505b50935050505060405180910390f35b348015610b3157600080fd5b50610b5e60048036036020811015610b4857600080fd5b8101908080359060200190929190505050612f76565b604051808215151515815260200191505060405180910390f35b348015610b8457600080fd5b50610cff60048036036080811015610b9b57600080fd5b81019080803573ffffffffffffffffffffffffffffffffffffffff16906020019092919080359060200190640100000000811115610bd857600080fd5b820183602082011115610bea57600080fd5b80359060200191846001830284011164010000000083111715610c0c57600080fd5b91908080601f016020809104026020016040519081016040528093929190818152602001838380828437600081840152601f19601f82011690508083019250505050505050919291929080359060200190640100000000811115610c6f57600080fd5b820183602082011115610c8157600080fd5b80359060200191846001830284011164010000000083111715610ca357600080fd5b91908080601f016020809104026020016040519081016040528093929190818152602001838380828437600081840152601f19601f82011690508083019250505050505050919291929080359060200190929190505050613078565b6040518080602001828103825283818151815260200191508051906020019080838360005b83811015610d3f578082015181840152602081019050610d24565b50505050905090810190601f168015610d6c5780820380516001836020036101000a031916815260200191505b509250505060405180910390f35b348015610d8657600080fd5b50610e4a60048036036040811015610d9d57600080fd5b8101908080359060200190640100000000811115610dba57600080fd5b820183602082011115610dcc57600080fd5b80359060200191846001830284011164010000000083111715610dee57600080fd5b91908080601f016020809104026020016040519081016040528093929190818152602001838380828437600081840152601f19601f8201169050808301925050505050505091929192908035906020019092919050505061317b565b604051808273ffffffffffffffffffffffffffffffffffffffff1673ffffffffffffffffffffffffffffffffffffffff16815260200191505060405180910390f35b348015610e9857600080fd5b50610edb60048036036020811015610eaf57600080fd5b81019080803573ffffffffffffffffffffffffffffffffffffffff169060200190929190505050613321565b604051808215151515815260200191505060405180910390f35b348015610f0157600080fd5b50610f4460048036036020811015610f1857600080fd5b81019080803573ffffffffffffffffffffffffffffffffffffffff16906020019092919050505061377b565b6040518082815260200191505060405180910390f35b348015610f6657600080fd5b50610fbf60048036036060811015610f7d57600080fd5b81019080803573ffffffffffffffffffffffffffffffffffffffff16906020019092919080351515906020019092919080359060200190929190505050613793565b604051808215151515815260200191505060405180910390f35b348015610fe557600080fd5b5061114a60048036036080811015610ffc57600080fd5b810190808035906020019064010000000081111561101957600080fd5b82018360208201111561102b57600080fd5b8035906020019184600183028401116401000000008311171561104d57600080fd5b91908080601f016020809104026020016040519081016040528093929190818152602001838380828437600081840152601f19601f82011690508083019250505050505050919291929080359060200190929190803590602001906401000000008111156110ba57600080fd5b8201836020820111156110cc57600080fd5b803590602001918460018302840111640100000000831117156110ee57600080fd5b91908080601f016020809104026020016040519081016040528093929190818152602001838380828437600081840152601f19601f82011690508083019250505050505050919291929080359060200190929190505050613b97565b604051808215151515815260200191505060405180910390f35b34801561117057600080fd5b50611376600480360360c081101561118757600080fd5b81019080803590602001906401000000008111156111a457600080fd5b8201836020820111156111b657600080fd5b803590602001918460018302840111640100000000831117156111d857600080fd5b91908080601f016020809104026020016040519081016040528093929190818152602001838380828437600081840152601f19601f8201169050808301925050505050505091929192908035906020019064010000000081111561123b57600080fd5b82018360208201111561124d57600080fd5b8035906020019184600183028401116401000000008311171561126f57600080fd5b91908080601f016020809104026020016040519081016040528093929190818152602001838380828437600081840152601f19601f82011690508083019250505050505050919291929080359060200190929190803590602001906401000000008111156112dc57600080fd5b8201836020820111156112ee57600080fd5b8035906020019184600183028401116401000000008311171561131057600080fd5b91908080601f016020809104026020016040519081016040528093929190818152602001838380828437600081840152601f19601f8201169050808301925050505050505091929192908035906020019092919080359060200190929190505050613f55565b604051808215151515815260200191505060405180910390f35b34801561139c57600080fd5b506113e9600480360360408110156113b357600080fd5b81019080803573ffffffffffffffffffffffffffffffffffffffff16906020019092919080359060200190929190505050614541565b005b3480156113f757600080fd5b506114446004803603604081101561140e57600080fd5b81019080803573ffffffffffffffffffffffffffffffffffffffff1690602001909291908035906020019092919050505061472f565b604051808215151515815260200191505060405180910390f35b34801561146a57600080fd5b506114b76004803603604081101561148157600080fd5b81019080803573ffffffffffffffffffffffffffffffffffffffff16906020019092919080359060200190929190505050614945565b604051808215151515815260200191505060405180910390f35b61155c600480360360608110156114e757600080fd5b810190808035906020019064010000000081111561150457600080fd5b82018360208201111561151657600080fd5b8035906020019184600183028401116401000000008311171561153857600080fd5b90919293919293908035906020019092919080359060200190929190505050614d3d565b604051808215151515815260200191505060405180910390f35b34801561158257600080fd5b506115c56004803603602081101561159957600080fd5b81019080803573ffffffffffffffffffffffffffffffffffffffff1690602001909291905050506155dd565b604051808215151515815260200191505060405180910390f35b3480156115eb57600080fd5b506115f46155fd565b604051808273ffffffffffffffffffffffffffffffffffffffff1673ffffffffffffffffffffffffffffffffffffffff16815260200191505060405180910390f35b34801561164257600080fd5b506116856004803603602081101561165957600080fd5b81019080803573ffffffffffffffffffffffffffffffffffffffff169060200190929190505050615622565b604051808215151515815260200191505060405180910390f35b3480156116ab57600080fd5b506116fb600480360360408110156116c257600080fd5b81019080803573ffffffffffffffffffffffffffffffffffffffff169060200190929190803560ff169060200190929190505050615642565b604051808215151515815260200191505060405180910390f35b34801561172157600080fd5b5061172a6158c6565b6040518080602001828103825283818151815260200191508051906020019080838360005b8381101561176a57808201518184015260208101905061174f565b50505050905090810190601f1680156117975780820380516001836020036101000a031916815260200191505b509250505060405180910390f35b3480156117b157600080fd5b506117ba615964565b6040518082815260200191505060405180910390f35b3480156117dc57600080fd5b506117e561596a565b6040518082815260200191505060405180910390f35b34801561180757600080fd5b506118546004803603604081101561181e57600080fd5b81019080803573ffffffffffffffffffffffffffffffffffffffff16906020019092919080359060200190929190505050615970565b604051808215151515815260200191505060405180910390f35b34801561187a57600080fd5b506118836159de565b6040518082815260200191505060405180910390f35b3480156118a557600080fd5b506118ae6159e4565b6040518082815260200191505060405180910390f35b3480156118d057600080fd5b5061191d600480360360408110156118e757600080fd5b81019080803573ffffffffffffffffffffffffffffffffffffffff169060200190929190803590602001909291905050506159ea565b604051808215151515815260200191505060405180910390f35b61198d6004803603606081101561194d57600080fd5b81019080803573ffffffffffffffffffffffffffffffffffffffff1690602001909291908035906020019092919080359060200190929190505050615a19565b604051808215151515815260200191505060405180910390f35b3480156119b357600080fd5b506119e0600480360360208110156119ca57600080fd5b8101908080359060200190929190505050615cb2565b6040518080602001828103825283818151815260200191508051906020019080838360005b83811015611a20578082015181840152602081019050611a05565b50505050905090810190601f168015611a4d5780820380516001836020036101000a031916815260200191505b509250505060405180910390f35b348015611a6757600080fd5b50611b4b60048036036060811015611a7e57600080fd5b81019080803573ffffffffffffffffffffffffffffffffffffffff1690602001909291908035906020019092919080359060200190640100000000811115611ac557600080fd5b820183602082011115611ad757600080fd5b80359060200191846001830284011164010000000083111715611af957600080fd5b91908080601f016020809104026020016040519081016040528093929190818152602001838380828437600081840152601f19601f820116905080830192505050505050509192919290505050615d62565b604051808215151515815260200191505060405180910390f35b348015611b7157600080fd5b50611bbe60048036036040811015611b8857600080fd5b81019080803573ffffffffffffffffffffffffffffffffffffffff16906020019092919080359060200190929190505050615eca565b6040518080602001828103825283818151815260200191508051906020019080838360005b83811015611bfe578082015181840152602081019050611be3565b50505050905090810190601f168015611c2b5780820380516001836020036101000a031916815260200191505b509250505060405180910390f35b348015611c4557600080fd5b50611ca860048036036040811015611c5c57600080fd5b81019080803573ffffffffffffffffffffffffffffffffffffffff169060200190929190803573ffffffffffffffffffffffffffffffffffffffff169060200190929190505050615f87565b6040518082815260200191505060405180910390f35b348015611cca57600080fd5b50611d1760048036036040811015611ce157600080fd5b81019080803573ffffffffffffffffffffffffffffffffffffffff16906020019092919080359060200190929190505050615fac565b604051808215151515815260200191505060405180910390f35b348015611d3d57600080fd5b50611d8c60048036036040811015611d5457600080fd5b81019080803573ffffffffffffffffffffffffffffffffffffffff169060200190929190803515159060200190929190505050615fdb565b005b348015611d9a57600080fd5b50611ddd60048036036020811015611db157600080fd5b81019080803573ffffffffffffffffffffffffffffffffffffffff169060200190929190505050616167565b005b348015611deb57600080fd5b50611df461626c565b6040518082815260200191505060405180910390f35b348015611e1657600080fd5b50611e7960048036036080811015611e2d57600080fd5b81019080803573ffffffffffffffffffffffffffffffffffffffff1690602001909291908035151590602001909291908035906020019092919080359060200190929190505050616272565b604051808215151515815260200191505060405180910390f35b348015611e9f57600080fd5b50611f6360048036036040811015611eb657600080fd5b8101908080359060200190640100000000811115611ed357600080fd5b820183602082011115611ee557600080fd5b80359060200191846001830284011164010000000083111715611f0757600080fd5b91908080601f016020809104026020016040519081016040528093929190818152602001838380828437600081840152601f19601f82011690508083019250505050505050919291929080359060200190929190505050616662565b604051808215151515815260200191505060405180910390f35b348015611f8957600080fd5b50611fcc60048036036020811015611fa057600080fd5b81019080803573ffffffffffffffffffffffffffffffffffffffff1690602001909291905050506166a7565b6040518082815260200191505060405180910390f35b60018054600181600116156101000203166002900480601f0160208091040260200160405190810160405280929190818152602001828054600181600116156101000203166002900480156120785780601f1061204d57610100808354040283529160200191612078565b820191906000526020600020905b81548152906001019060200180831161205b57829003601f168201915b505050505081565b600081600660003373ffffffffffffffffffffffffffffffffffffffff1673ffffffffffffffffffffffffffffffffffffffff16815260200190815260200160002060008573ffffffffffffffffffffffffffffffffffffffff1673ffffffffffffffffffffffffffffffffffffffff168152602001908152602001600020819055508273ffffffffffffffffffffffffffffffffffffffff163373ffffffffffffffffffffffffffffffffffffffff167f8c5be1e5ebec7d5bd14f71427d1e84f3dd0314c0f7b2291e5b200ac8c7c3b925846040518082815260200191505060405180910390a36001905092915050565b60006010543410156121cf576040517f08c379a0000000000000000000000000000000000000000000000000000000008152600401808060200182810382526030815260200180616b1d6030913960400191505060405180910390fd5b34600560003373ffffffffffffffffffffffffffffffffffffffff1673ffffffffffffffffffffffffffffffffffffffff1681526020019081526020016000206000828254039250508190555034600560003073ffffffffffffffffffffffffffffffffffffffff1673ffffffffffffffffffffffffffffffffffffffff168152602001908152602001600020600082825401925050819055506001905090565b600047905090565b6011818154811061228557fe5b906000526020600020016000915054906101000a900473ffffffffffffffffffffffffffffffffffffffff1681565b60045481565b601a828051602081018201805184825260208301602085012081835280955050505050506020528060005260406000206000915091509054906101000a900473ffffffffffffffffffffffffffffffffffffffff1681565b6000600660008573ffffffffffffffffffffffffffffffffffffffff1673ffffffffffffffffffffffffffffffffffffffff16815260200190815260200160002060003373ffffffffffffffffffffffffffffffffffffffff1673ffffffffffffffffffffffffffffffffffffffff1681526020019081526020016000205482111561239d57600080fd5b600760008573ffffffffffffffffffffffffffffffffffffffff1673ffffffffffffffffffffffffffffffffffffffff16815260200190815260200160002060009054906101000a900460ff16156123f457600080fd5b600760008473ffffffffffffffffffffffffffffffffffffffff1673ffffffffffffffffffffffffffffffffffffffff16815260200190815260200160002060009054906101000a900460ff161561244b57600080fd5b81600660008673ffffffffffffffffffffffffffffffffffffffff1673ffffffffffffffffffffffffffffffffffffffff16815260200190815260200160002060003373ffffffffffffffffffffffffffffffffffffffff1673ffffffffffffffffffffffffffffffffffffffff168152602001908152602001600020600082825403925050819055506124e08484846166bf565b600190509392505050565b60196020528160005260406000206020528060005260406000206000915091509054906101000a900460ff1681565b600a5481565b601c6020528060005260406000206000915090505481565b6000809054906101000a900473ffffffffffffffffffffffffffffffffffffffff1673ffffffffffffffffffffffffffffffffffffffff163373ffffffffffffffffffffffffffffffffffffffff16146125fa576040517f08c379a000000000000000000000000000000000000000000000000000000000815260040180806020018281038252601c8152602001807f52657175657374206661696c65643b204e6f7420616e206f776e65720000000081525060200191505060405180910390fd5b4781111561260757600080fd5b3373ffffffffffffffffffffffffffffffffffffffff166108fc829081150290604051600060405180830381858888f1935050505015801561264d573d6000803e3d6000fd5b5050565b600360009054906101000a900460ff1681565b601b6020528060005260406000206000915054906101000a900460ff1681565b60008260011515601360003373ffffffffffffffffffffffffffffffffffffffff1673ffffffffffffffffffffffffffffffffffffffff16815260200190815260200160002060009054906101000a900460ff161515148015612748575060011515601260003373ffffffffffffffffffffffffffffffffffffffff1673ffffffffffffffffffffffffffffffffffffffff168152602001908152602001600020600083815260200190815260200160002060009054906101000a900460ff161515145b806127b4575060011515601460003373ffffffffffffffffffffffffffffffffffffffff1673ffffffffffffffffffffffffffffffffffffffff168152602001908152602001600020600083815260200190815260200160002060009054906101000a900460ff161515145b612826576040517f08c379a00000000000000000000000000000000000000000000000000000000081526004018080602001828103825260168152602001807f4e6f7420417574686f72697a656420616464726573730000000000000000000081525060200191505060405180910390fd5b601560003373ffffffffffffffffffffffffffffffffffffffff1673ffffffffffffffffffffffffffffffffffffffff1681526020019081526020016000206000848152602001908152602001600020600061288291906169e4565b601a856040518082805190602001908083835b602083106128b85780518252602082019150602081019050602083039250612895565b6001836020036101000a0380198251168184511680821785525050505050509050019150509081526020016040518091039020600084815260200190815260200160002060006101000a81549073ffffffffffffffffffffffffffffffffffffffff021916905560006017866040518082805190602001908083835b602083106129575780518252602082019150602081019050602083039250612934565b6001836020036101000a0380198251168184511680821785525050505050509050019150509081526020016040518091039020600085815260200190815260200160002060006101000a81548160ff0219169083151502179055506001600c600082825403925050819055503373ffffffffffffffffffffffffffffffffffffffff167ff0d9d157410ce0dd627a64caaef943950c3e149d9ac393179729ec71c342026d846040518082815260200191505060405180910390a260019150509392505050565b600d5481565b606060008260011515601460003373ffffffffffffffffffffffffffffffffffffffff1673ffffffffffffffffffffffffffffffffffffffff168152602001908152602001600020600083815260200190815260200160002060009054906101000a900460ff16151514612aff576040517f08c379a00000000000000000000000000000000000000000000000000000000081526004018080602001828103825260168152602001807f41646472657373206e6f7420617574686f72697a65640000000000000000000081525060200191505060405180910390fd5b60006001600c6000828254019250508190559050600042905060006001905060603389858585604051602001808673ffffffffffffffffffffffffffffffffffffffff1673ffffffffffffffffffffffffffffffffffffffff1681526020018060200185815260200184815260200183151515158152602001828103825286818151815260200191508051906020019080838360005b83811015612bb0578082015181840152602081019050612b95565b50505050905090810190601f168015612bdd5780820380516001836020036101000a031916815260200191505b50965050505050505060405160208183030381529060405290506000151560178a6040518082805190602001908083835b60208310612c315780518252602082019150602081019050602083039250612c0e565b6001836020036101000a0380198251168184511680821785525050505050509050019150509081526020016040518091039020600086815260200190815260200160002060009054906101000a900460ff16151514612cf8576040517f08c379a00000000000000000000000000000000000000000000000000000000081526004018080602001828103825260138152602001807f53746f726520616c72656164792065786973740000000000000000000000000081525060200191505060405180910390fd5b80601560003373ffffffffffffffffffffffffffffffffffffffff1673ffffffffffffffffffffffffffffffffffffffff16815260200190815260200160002060008681526020019081526020016000209080519060200190612d5c929190616a2c565b50600160178a6040518082805190602001908083835b60208310612d955780518252602082019150602081019050602083039250612d72565b6001836020036101000a0380198251168184511680821785525050505050509050019150509081526020016040518091039020600086815260200190815260200160002060006101000a81548160ff02191690831515021790555033601a8a6040518082805190602001908083835b60208310612e275780518252602082019150602081019050602083039250612e04565b6001836020036101000a0380198251168184511680821785525050505050509050019150509081526020016040518091039020600086815260200190815260200160002060006101000a81548173ffffffffffffffffffffffffffffffffffffffff021916908373ffffffffffffffffffffffffffffffffffffffff1602179055503373ffffffffffffffffffffffffffffffffffffffff167fbdd7e2a0dd74ed76fd574d8cb822d88a7dcb0beab257b24d8fd274ed8919ec8c8a866040518080602001838152602001828103825284818151815260200191508051906020019080838360005b83811015612f29578082015181840152602081019050612f0e565b50505050905090810190601f168015612f565780820380516001836020036101000a031916815260200191505b50935050505060405180910390a288849650965050505050509250929050565b600081600560003373ffffffffffffffffffffffffffffffffffffffff1673ffffffffffffffffffffffffffffffffffffffff168152602001908152602001600020541015612fc457600080fd5b81600560003373ffffffffffffffffffffffffffffffffffffffff1673ffffffffffffffffffffffffffffffffffffffff16815260200190815260200160002060008282540392505081905550816004600082825403925050819055503373ffffffffffffffffffffffffffffffffffffffff167fcc16f5dbb4873280815c1ee09dbd06736cffcc184412cf7a71a0fdb75d397ca5836040518082815260200191505060405180910390a260019050919050565b601660205283600052604060002083805160208101820180518482526020830160208501208183528095505050505050828051602081018201805184825260208301602085012081835280955050505050506020528060005260406000206000935093505050508054600181600116156101000203166002900480601f0160208091040260200160405190810160405280929190818152602001828054600181600116156101000203166002900480156131735780601f1061314857610100808354040283529160200191613173565b820191906000526020600020905b81548152906001019060200180831161315657829003601f168201915b505050505081565b6000600115156017846040518082805190602001908083835b602083106131b75780518252602082019150602081019050602083039250613194565b6001836020036101000a0380198251168184511680821785525050505050509050019150509081526020016040518091039020600084815260200190815260200160002060009054906101000a900460ff1615151461327e576040517f08c379a00000000000000000000000000000000000000000000000000000000081526004018080602001828103825260148152602001807f53746f726520646f6573206e6f7420657869737400000000000000000000000081525060200191505060405180910390fd5b601a836040518082805190602001908083835b602083106132b45780518252602082019150602081019050602083039250613291565b6001836020036101000a0380198251168184511680821785525050505050509050019150509081526020016040518091039020600083815260200190815260200160002060009054906101000a900473ffffffffffffffffffffffffffffffffffffffff16905092915050565b60008060009054906101000a900473ffffffffffffffffffffffffffffffffffffffff1673ffffffffffffffffffffffffffffffffffffffff163373ffffffffffffffffffffffffffffffffffffffff16146133e5576040517f08c379a000000000000000000000000000000000000000000000000000000000815260040180806020018281038252601c8152602001807f52657175657374206661696c65643b204e6f7420616e206f776e65720000000081525060200191505060405180910390fd5b60036011805490501115613461576040517f08c379a00000000000000000000000000000000000000000000000000000000081526004018080602001828103825260198152602001807f4d61782061646d696e2072656163686564202d2d3e205b335d0000000000000081525060200191505060405180910390fd5b600073ffffffffffffffffffffffffffffffffffffffff168273ffffffffffffffffffffffffffffffffffffffff161415613504576040517f08c379a000000000000000000000000000000000000000000000000000000000815260040180806020018281038252600f8152602001807f496e76616c69642061646472657373000000000000000000000000000000000081525060200191505060405180910390fd5b60006001600a5401905060008090505b60118054905081101561359c5760001515601260008673ffffffffffffffffffffffffffffffffffffffff1673ffffffffffffffffffffffffffffffffffffffff168152602001908152602001600020600083815260200190815260200160002060009054906101000a900460ff1615151461358f57600080fd5b8080600101915050613514565b506001601260008573ffffffffffffffffffffffffffffffffffffffff1673ffffffffffffffffffffffffffffffffffffffff168152602001908152602001600020600083815260200190815260200160002060006101000a81548160ff0219169083151502179055506000601360008573ffffffffffffffffffffffffffffffffffffffff1673ffffffffffffffffffffffffffffffffffffffff16815260200190815260200160002060006101000a81548160ff0219169083151502179055506011839080600181540180825580915050600190039060005260206000200160009091909190916101000a81548173ffffffffffffffffffffffffffffffffffffffff021916908373ffffffffffffffffffffffffffffffffffffffff1602179055506001600a600082825401925050819055508273ffffffffffffffffffffffffffffffffffffffff167f71614071b88dee5e0b2ae578a9dd7b2ebbe9ae832ba419dc0242cd065a290b6c60405160405180910390a2601260008473ffffffffffffffffffffffffffffffffffffffff1673ffffffffffffffffffffffffffffffffffffffff168152602001908152602001600020600082815260200190815260200160002060009054906101000a900460ff16915050919050565b60056020528060005260406000206000915090505481565b60008060009054906101000a900473ffffffffffffffffffffffffffffffffffffffff1673ffffffffffffffffffffffffffffffffffffffff163373ffffffffffffffffffffffffffffffffffffffff1614613857576040517f08c379a000000000000000000000000000000000000000000000000000000000815260040180806020018281038252601c8152602001807f52657175657374206661696c65643b204e6f7420616e206f776e65720000000081525060200191505060405180910390fd5b60011515601260008673ffffffffffffffffffffffffffffffffffffffff1673ffffffffffffffffffffffffffffffffffffffff168152602001908152602001600020600084815260200190815260200160002060009054906101000a900460ff1615151461392e576040517f08c379a00000000000000000000000000000000000000000000000000000000081526004018080602001828103825260118152602001807f4e6f7420616c726561647920616464656400000000000000000000000000000081525060200191505060405180910390fd5b600115158315151415613a5e5760001515601360008673ffffffffffffffffffffffffffffffffffffffff1673ffffffffffffffffffffffffffffffffffffffff16815260200190815260200160002060009054906101000a900460ff16151514613a01576040517f08c379a00000000000000000000000000000000000000000000000000000000081526004018080602001828103825260108152602001807f416c726561647920617070726f7665640000000000000000000000000000000081525060200191505060405180910390fd5b82601360008673ffffffffffffffffffffffffffffffffffffffff1673ffffffffffffffffffffffffffffffffffffffff16815260200190815260200160002060006101000a81548160ff02191690831515021790559050613b90565b600015158315151415613b8f5760011515601360008673ffffffffffffffffffffffffffffffffffffffff1673ffffffffffffffffffffffffffffffffffffffff16815260200190815260200160002060009054906101000a900460ff16151514613b31576040517f08c379a00000000000000000000000000000000000000000000000000000000081526004018080602001828103825260108152602001807f4e6f742079657420617070726f7665640000000000000000000000000000000081525060200191505060405180910390fd5b6000601360008673ffffffffffffffffffffffffffffffffffffffff1673ffffffffffffffffffffffffffffffffffffffff16815260200190815260200160002060006101000a81548160ff02191690831515021790559050613b90565b5b9392505050565b60008360011515601460003373ffffffffffffffffffffffffffffffffffffffff1673ffffffffffffffffffffffffffffffffffffffff168152602001908152602001600020600083815260200190815260200160002060009054906101000a900460ff16151514613c71576040517f08c379a00000000000000000000000000000000000000000000000000000000081526004018080602001828103825260168152602001807f41646472657373206e6f7420617574686f72697a65640000000000000000000081525060200191505060405180910390fd5b838360011515601b600083815260200190815260200160002060009054906101000a900460ff16151514613d0d576040517f08c379a00000000000000000000000000000000000000000000000000000000081526004018080602001828103825260138152602001807f4974656d20646f6573206e6f742065786973740000000000000000000000000081525060200191505060405180910390fd5b601660003373ffffffffffffffffffffffffffffffffffffffff1673ffffffffffffffffffffffffffffffffffffffff168152602001908152602001600020886040518082805190602001908083835b60208310613d805780518252602082019150602081019050602083039250613d5d565b6001836020036101000a0380198251168184511680821785525050505050509050019150509081526020016040518091039020866040518082805190602001908083835b60208310613de75780518252602082019150602081019050602083039250613dc4565b6001836020036101000a038019825116818451168082178552505050505050905001915050908152602001604051809103902060008681526020019081526020016000206000613e3791906169e4565b601c6000868152602001908152602001600020600090556000601b600087815260200190815260200160002060006101000a81548160ff0219169083151502179055506001600d600082825403925050819055503373ffffffffffffffffffffffffffffffffffffffff167fa180aa81864bcb17fad00b76731c7d27c305afb22020cf673270600c6025d0b887876040518080602001838152602001828103825284818151815260200191508051906020019080838360005b83811015613f0b578082015181840152602081019050613ef0565b50505050905090810190601f168015613f385780820380516001836020036101000a031916815260200191505b50935050505060405180910390a260019350505050949350505050565b60008160011515601460003373ffffffffffffffffffffffffffffffffffffffff1673ffffffffffffffffffffffffffffffffffffffff168152602001908152602001600020600083815260200190815260200160002060009054906101000a900460ff1615151461402f576040517f08c379a00000000000000000000000000000000000000000000000000000000081526004018080602001828103825260168152602001807f41646472657373206e6f7420617574686f72697a65640000000000000000000081525060200191505060405180910390fd5b600086116140a5576040517f08c379a00000000000000000000000000000000000000000000000000000000081526004018080602001828103825260148152602001807f50726963652063616e6e6f74206265207a65726f00000000000000000000000081525060200191505060405180910390fd5b60006001600d54019050600033905060608a8988858d866040516020018080602001878152602001868152602001858152602001806020018473ffffffffffffffffffffffffffffffffffffffff1673ffffffffffffffffffffffffffffffffffffffff168152602001838103835289818151815260200191508051906020019080838360005b8381101561414757808201518184015260208101905061412c565b50505050905090810190601f1680156141745780820380516001836020036101000a031916815260200191505b50838103825285818151815260200191508051906020019080838360005b838110156141ad578082015181840152602081019050614192565b50505050905090810190601f1680156141da5780820380516001836020036101000a031916815260200191505b5098505050505050505050604051602081830303815290604052905080601660003373ffffffffffffffffffffffffffffffffffffffff1673ffffffffffffffffffffffffffffffffffffffff168152602001908152602001600020896040518082805190602001908083835b6020831061426a5780518252602082019150602081019050602083039250614247565b6001836020036101000a03801982511681845116808217855250505050505090500191505090815260200160405180910390208c6040518082805190602001908083835b602083106142d157805182526020820191506020810190506020830392506142ae565b6001836020036101000a038019825116818451168082178552505050505050905001915050908152602001604051809103902060008581526020019081526020016000209080519060200190614328929190616a2c565b506001601960003373ffffffffffffffffffffffffffffffffffffffff1673ffffffffffffffffffffffffffffffffffffffff168152602001908152602001600020600085815260200190815260200160002060006101000a81548160ff0219169083151502179055506001601b600085815260200190815260200160002060006101000a81548160ff021916908315150217905550806018600085815260200190815260200160002090805190602001906143e5929190616a2c565b5086601c6000858152602001908152602001600020819055506001600d600082825401925050819055503373ffffffffffffffffffffffffffffffffffffffff167f772cc3a8e77f72eb5acf7b3a43da99bf21604939d49108bdd445da7c9c137a218c83604051808060200180602001838103835285818151815260200191508051906020019080838360005b8381101561448d578082015181840152602081019050614472565b50505050905090810190601f1680156144ba5780820380516001836020036101000a031916815260200191505b50838103825284818151815260200191508051906020019080838360005b838110156144f35780820151818401526020810190506144d8565b50505050905090810190601f1680156145205780820380516001836020036101000a031916815260200191505b5094505050505060405180910390a260019450505050509695505050505050565b6000809054906101000a900473ffffffffffffffffffffffffffffffffffffffff1673ffffffffffffffffffffffffffffffffffffffff163373ffffffffffffffffffffffffffffffffffffffff1614614603576040517f08c379a000000000000000000000000000000000000000000000000000000000815260040180806020018281038252601c8152602001807f52657175657374206661696c65643b204e6f7420616e206f776e65720000000081525060200191505060405180910390fd5b80600560008473ffffffffffffffffffffffffffffffffffffffff1673ffffffffffffffffffffffffffffffffffffffff16815260200190815260200160002060008282540192505081905550806004600082825401925050819055503073ffffffffffffffffffffffffffffffffffffffff16600073ffffffffffffffffffffffffffffffffffffffff167fddf252ad1be2c89b69c2b068fc378daa952ba7f163c4a11628f55a4df523b3ef836040518082815260200191505060405180910390a38173ffffffffffffffffffffffffffffffffffffffff163073ffffffffffffffffffffffffffffffffffffffff167fddf252ad1be2c89b69c2b068fc378daa952ba7f163c4a11628f55a4df523b3ef836040518082815260200191505060405180910390a35050565b600081600560008573ffffffffffffffffffffffffffffffffffffffff1673ffffffffffffffffffffffffffffffffffffffff16815260200190815260200160002054101561477d57600080fd5b600660008473ffffffffffffffffffffffffffffffffffffffff1673ffffffffffffffffffffffffffffffffffffffff16815260200190815260200160002060003373ffffffffffffffffffffffffffffffffffffffff1673ffffffffffffffffffffffffffffffffffffffff1681526020019081526020016000205482111561480657600080fd5b81600560008573ffffffffffffffffffffffffffffffffffffffff1673ffffffffffffffffffffffffffffffffffffffff1681526020019081526020016000206000828254039250508190555081600660008573ffffffffffffffffffffffffffffffffffffffff1673ffffffffffffffffffffffffffffffffffffffff16815260200190815260200160002060003373ffffffffffffffffffffffffffffffffffffffff1673ffffffffffffffffffffffffffffffffffffffff16815260200190815260200160002060008282540392505081905550816004600082825403925050819055508273ffffffffffffffffffffffffffffffffffffffff167fcc16f5dbb4873280815c1ee09dbd06736cffcc184412cf7a71a0fdb75d397ca5836040518082815260200191505060405180910390a26001905092915050565b60008160011515601260003373ffffffffffffffffffffffffffffffffffffffff1673ffffffffffffffffffffffffffffffffffffffff168152602001908152602001600020600083815260200190815260200160002060009054906101000a900460ff16151514614a1f576040517f08c379a00000000000000000000000000000000000000000000000000000000081526004018080602001828103825260168152602001807f4e6f7420417574686f72697a656420616464726573730000000000000000000081525060200191505060405180910390fd5b60011515601360003373ffffffffffffffffffffffffffffffffffffffff1673ffffffffffffffffffffffffffffffffffffffff16815260200190815260200160002060009054906101000a900460ff16151514614ae5576040517f08c379a000000000000000000000000000000000000000000000000000000000815260040180806020018281038252600e8152602001807f4e6f7420417574686f72697a656400000000000000000000000000000000000081525060200191505060405180910390fd5b600073ffffffffffffffffffffffffffffffffffffffff168473ffffffffffffffffffffffffffffffffffffffff161415614b88576040517f08c379a000000000000000000000000000000000000000000000000000000000815260040180806020018281038252600f8152602001807f496e76616c69642061646472657373000000000000000000000000000000000081525060200191505060405180910390fd5b60006001600b5401905060001515601460008773ffffffffffffffffffffffffffffffffffffffff1673ffffffffffffffffffffffffffffffffffffffff168152602001908152602001600020600083815260200190815260200160002060009054906101000a900460ff16151514614c69576040517f08c379a00000000000000000000000000000000000000000000000000000000081526004018080602001828103825260108152602001807f416c726561647920617070726f7665640000000000000000000000000000000081525060200191505060405180910390fd5b6001601460008773ffffffffffffffffffffffffffffffffffffffff1673ffffffffffffffffffffffffffffffffffffffff168152602001908152602001600020600083815260200190815260200160002060006101000a81548160ff0219169083151502179055506001600b600082825401925050819055508473ffffffffffffffffffffffffffffffffffffffff167f7a8a0bce5482e96787ebd6c2b39c8a3ba934bd7418f05e073fb7102f7a71af5a826040518082815260200191505060405180910390a260019250505092915050565b600084848080601f016020809104026020016040519081016040528093929190818152602001838380828437600081840152601f19601f820116905080830192505050505050508260011515601b600083815260200190815260200160002060009054906101000a900460ff16151514614e1f576040517f08c379a00000000000000000000000000000000000000000000000000000000081526004018080602001828103825260138152602001807f4974656d20646f6573206e6f742065786973740000000000000000000000000081525060200191505060405180910390fd5b6060601860008681526020019081526020016000208054600181600116156101000203166002900480601f016020809104026020016040519081016040528092919081815260200182805460018160011615610100020316600290048015614ec85780601f10614e9d57610100808354040283529160200191614ec8565b820191906000526020600020905b815481529060010190602001808311614eab57829003601f168201915b505050505090506000349050606060008060008060008780602001905160c0811015614ef357600080fd5b8101908080516040519392919084640100000000821115614f1357600080fd5b83820191506020820185811115614f2957600080fd5b8251866001820283011164010000000082111715614f4657600080fd5b8083526020830192505050908051906020019080838360005b83811015614f7a578082015181840152602081019050614f5f565b50505050905090810190601f168015614fa75780820380516001836020036101000a031916815260200191505b50604052602001805190602001909291908051906020019092919080519060200190929190805190602001909291908051906020019092919050505095509550955095509550955060008d11615065576040517f08c379a00000000000000000000000000000000000000000000000000000000081526004018080602001828103825260108152602001807f496e76616c6964207175616e746974790000000000000000000000000000000081525060200191505060405180910390fd5b6000878e029050878e828161507657fe5b04146150ea576040517f08c379a00000000000000000000000000000000000000000000000000000000081526004018080602001828103825260108152602001807f4f766572666c6f772073706f747465640000000000000000000000000000000081525060200191505060405180910390fd5b80600560003373ffffffffffffffffffffffffffffffffffffffff1673ffffffffffffffffffffffffffffffffffffffff16815260200190815260200160002054101561519f576040517f08c379a00000000000000000000000000000000000000000000000000000000081526004018080602001828103825260158152602001807f496e7375666669636569656e742062616c616e6365000000000000000000000081525060200191505060405180910390fd5b848e11156151f8576040517f08c379a0000000000000000000000000000000000000000000000000000000008152600401808060200182810382526025815260200180616af86025913960400191505060405180910390fd5b80881015615251576040517f08c379a0000000000000000000000000000000000000000000000000000000008152600401808060200182810382526026815260200180616ad26026913960400191505060405180910390fd5b80600560003373ffffffffffffffffffffffffffffffffffffffff1673ffffffffffffffffffffffffffffffffffffffff1681526020019081526020016000206000828254039250508190555080600560008473ffffffffffffffffffffffffffffffffffffffff1673ffffffffffffffffffffffffffffffffffffffff168152602001908152602001600020600082825401925050819055506000601960008473ffffffffffffffffffffffffffffffffffffffff1673ffffffffffffffffffffffffffffffffffffffff16815260200190815260200160002060008f815260200190815260200160002060006101000a81548160ff0219169083151502179055506001601960003373ffffffffffffffffffffffffffffffffffffffff1673ffffffffffffffffffffffffffffffffffffffff16815260200190815260200160002060008f815260200190815260200160002060006101000a81548160ff0219169083151502179055508d850394506000851415615450576000601b60008f815260200190815260200160002060006101000a81548160ff021916908315150217905550601860008e8152602001908152602001600020600061541691906169e4565b601c60008e8152602001908152602001600020600090556001600d6000828254039250508190555060019b505050505050505050506155d3565b600085111561557257818787878787604051602001808773ffffffffffffffffffffffffffffffffffffffff1673ffffffffffffffffffffffffffffffffffffffff16815260200180602001868152602001858152602001848152602001838152602001828103825287818151815260200191508051906020019080838360005b838110156154ec5780820151818401526020810190506154d1565b50505050905090810190601f1680156155195780820380516001836020036101000a031916815260200191505b50975050505050505050604051602081830303815290604052601860008f81526020019081526020016000209080519060200190615558929190616a2c565b5084601c6000868152602001908152602001600020819055505b6001600e600082825401925050819055601d60003373ffffffffffffffffffffffffffffffffffffffff1673ffffffffffffffffffffffffffffffffffffffff1681526020019081526020016000208190555060019b505050505050505050505b5050949350505050565b60076020528060005260406000206000915054906101000a900460ff1681565b6000809054906101000a900473ffffffffffffffffffffffffffffffffffffffff1681565b60136020528060005260406000206000915054906101000a900460ff1681565b60008060009054906101000a900473ffffffffffffffffffffffffffffffffffffffff1673ffffffffffffffffffffffffffffffffffffffff163373ffffffffffffffffffffffffffffffffffffffff1614615706576040517f08c379a000000000000000000000000000000000000000000000000000000000815260040180806020018281038252601c8152602001807f52657175657374206661696c65643b204e6f7420616e206f776e65720000000081525060200191505060405180910390fd5b60011515601260008573ffffffffffffffffffffffffffffffffffffffff1673ffffffffffffffffffffffffffffffffffffffff16815260200190815260200160002060008460ff16815260200190815260200160002060009054906101000a900460ff161515146157e0576040517f08c379a00000000000000000000000000000000000000000000000000000000081526004018080602001828103825260148152602001807f4e6f7420616e2061646d696e20616c726561647900000000000000000000000081525060200191505060405180910390fd5b6000601260008573ffffffffffffffffffffffffffffffffffffffff1673ffffffffffffffffffffffffffffffffffffffff16815260200190815260200160002060008460ff16815260200190815260200160002060006101000a81548160ff0219169083151502179055506001600a60008282540392505081905550601260008473ffffffffffffffffffffffffffffffffffffffff1673ffffffffffffffffffffffffffffffffffffffff16815260200190815260200160002060008360ff16815260200190815260200160002060009054906101000a900460ff16905092915050565b60028054600181600116156101000203166002900480601f01602080910402602001604051908101604052809291908181526020018280546001816001161561010002031660029004801561595c5780601f106159315761010080835404028352916020019161595c565b820191906000526020600020905b81548152906001019060200180831161593f57829003601f168201915b505050505081565b60105481565b600c5481565b6000600760008473ffffffffffffffffffffffffffffffffffffffff1673ffffffffffffffffffffffffffffffffffffffff16815260200190815260200160002060009054906101000a900460ff16156159c957600080fd5b6159d43384846166bf565b6001905092915050565b600f5481565b600b5481565b60146020528160005260406000206020528060005260406000206000915091509054906101000a900460ff1681565b60008160011515601460003373ffffffffffffffffffffffffffffffffffffffff1673ffffffffffffffffffffffffffffffffffffffff168152602001908152602001600020600083815260200190815260200160002060009054906101000a900460ff16151514615af3576040517f08c379a00000000000000000000000000000000000000000000000000000000081526004018080602001828103825260168152602001807f41646472657373206e6f7420617574686f72697a65640000000000000000000081525060200191505060405180910390fd5b83600560003373ffffffffffffffffffffffffffffffffffffffff1673ffffffffffffffffffffffffffffffffffffffff168152602001908152602001600020541015615ba8576040517f08c379a00000000000000000000000000000000000000000000000000000000081526004018080602001828103825260158152602001807f496e7375666669636569656e742062616c616e6365000000000000000000000081525060200191505060405180910390fd5b83600560003373ffffffffffffffffffffffffffffffffffffffff1673ffffffffffffffffffffffffffffffffffffffff1681526020019081526020016000206000828254039250508190555083600560008773ffffffffffffffffffffffffffffffffffffffff1673ffffffffffffffffffffffffffffffffffffffff168152602001908152602001600020600082825401925050819055508473ffffffffffffffffffffffffffffffffffffffff163373ffffffffffffffffffffffffffffffffffffffff167f2717ead6b9200dd235aad468c9809ea400fe33ac69b5bfaa6d3e90fc922b6398866040518082815260200191505060405180910390a3819150509392505050565b60186020528060005260406000206000915090508054600181600116156101000203166002900480601f016020809104026020016040519081016040528092919081815260200182805460018160011615610100020316600290048015615d5a5780601f10615d2f57610100808354040283529160200191615d5a565b820191906000526020600020905b815481529060010190602001808311615d3d57829003601f168201915b505050505081565b600080849050615d728585612080565b15615ec1578073ffffffffffffffffffffffffffffffffffffffff16638f4ffcb1338630876040518563ffffffff1660e01b8152600401808573ffffffffffffffffffffffffffffffffffffffff1673ffffffffffffffffffffffffffffffffffffffff1681526020018481526020018373ffffffffffffffffffffffffffffffffffffffff1673ffffffffffffffffffffffffffffffffffffffff16815260200180602001828103825283818151815260200191508051906020019080838360005b83811015615e50578082015181840152602081019050615e35565b50505050905090810190601f168015615e7d5780820380516001836020036101000a031916815260200191505b5095505050505050600060405180830381600087803b158015615e9f57600080fd5b505af1158015615eb3573d6000803e3d6000fd5b505050506001915050615ec3565b505b9392505050565b6015602052816000526040600020602052806000526040600020600091509150508054600181600116156101000203166002900480601f016020809104026020016040519081016040528092919081815260200182805460018160011615610100020316600290048015615f7f5780601f10615f5457610100808354040283529160200191615f7f565b820191906000526020600020905b815481529060010190602001808311615f6257829003601f168201915b505050505081565b6006602052816000526040600020602052806000526040600020600091509150505481565b60126020528160005260406000206020528060005260406000206000915091509054906101000a900460ff1681565b6000809054906101000a900473ffffffffffffffffffffffffffffffffffffffff1673ffffffffffffffffffffffffffffffffffffffff163373ffffffffffffffffffffffffffffffffffffffff161461609d576040517f08c379a000000000000000000000000000000000000000000000000000000000815260040180806020018281038252601c8152602001807f52657175657374206661696c65643b204e6f7420616e206f776e65720000000081525060200191505060405180910390fd5b80600760008473ffffffffffffffffffffffffffffffffffffffff1673ffffffffffffffffffffffffffffffffffffffff16815260200190815260200160002060006101000a81548160ff0219169083151502179055507f48335238b4855f35377ed80f164e8c6f3c366e54ac00b96a6402d4a9814a03a58282604051808373ffffffffffffffffffffffffffffffffffffffff1673ffffffffffffffffffffffffffffffffffffffff168152602001821515151581526020019250505060405180910390a15050565b6000809054906101000a900473ffffffffffffffffffffffffffffffffffffffff1673ffffffffffffffffffffffffffffffffffffffff163373ffffffffffffffffffffffffffffffffffffffff1614616229576040517f08c379a000000000000000000000000000000000000000000000000000000000815260040180806020018281038252601c8152602001807f52657175657374206661696c65643b204e6f7420616e206f776e65720000000081525060200191505060405180910390fd5b806000806101000a81548173ffffffffffffffffffffffffffffffffffffffff021916908373ffffffffffffffffffffffffffffffffffffffff16021790555050565b600e5481565b60008260011515601260003373ffffffffffffffffffffffffffffffffffffffff1673ffffffffffffffffffffffffffffffffffffffff168152602001908152602001600020600083815260200190815260200160002060009054906101000a900460ff1615151461634c576040517f08c379a00000000000000000000000000000000000000000000000000000000081526004018080602001828103825260168152602001807f4e6f7420417574686f72697a656420616464726573730000000000000000000081525060200191505060405180910390fd5b60011515601360003373ffffffffffffffffffffffffffffffffffffffff1673ffffffffffffffffffffffffffffffffffffffff16815260200190815260200160002060009054906101000a900460ff16151514616412576040517f08c379a000000000000000000000000000000000000000000000000000000000815260040180806020018281038252600e8152602001807f4e6f7420417574686f72697a656400000000000000000000000000000000000081525060200191505060405180910390fd5b60011515601460008873ffffffffffffffffffffffffffffffffffffffff1673ffffffffffffffffffffffffffffffffffffffff168152602001908152602001600020600085815260200190815260200160002060009054906101000a900460ff161515146164e9576040517f08c379a00000000000000000000000000000000000000000000000000000000081526004018080602001828103825260118152602001807f4e6f7420616c726561647920616464656400000000000000000000000000000081525060200191505060405180910390fd5b6001151585151514801561655e575060011515601460008873ffffffffffffffffffffffffffffffffffffffff1673ffffffffffffffffffffffffffffffffffffffff168152602001908152602001600020600085815260200190815260200160002060009054906101000a900460ff161515145b1561656c5760009150616659565b60011515601460008873ffffffffffffffffffffffffffffffffffffffff1673ffffffffffffffffffffffffffffffffffffffff168152602001908152602001600020600085815260200190815260200160002060009054906101000a900460ff1615151480156165e1575060001515851515145b15616658576000601460008873ffffffffffffffffffffffffffffffffffffffff1673ffffffffffffffffffffffffffffffffffffffff168152602001908152602001600020600085815260200190815260200160002060006101000a81548160ff02191690831515021790555060019150616659565b5b50949350505050565b6017828051602081018201805184825260208301602085012081835280955050505050506020528060005260406000206000915091509054906101000a900460ff1681565b601d6020528060005260406000206000915090505481565b600073ffffffffffffffffffffffffffffffffffffffff168273ffffffffffffffffffffffffffffffffffffffff1614156166f957600080fd5b80600560008573ffffffffffffffffffffffffffffffffffffffff1673ffffffffffffffffffffffffffffffffffffffff16815260200190815260200160002054101561674557600080fd5b600560008373ffffffffffffffffffffffffffffffffffffffff1673ffffffffffffffffffffffffffffffffffffffff1681526020019081526020016000205481600560008573ffffffffffffffffffffffffffffffffffffffff1673ffffffffffffffffffffffffffffffffffffffff1681526020019081526020016000205401116167d157600080fd5b6000600560008473ffffffffffffffffffffffffffffffffffffffff1673ffffffffffffffffffffffffffffffffffffffff16815260200190815260200160002054600560008673ffffffffffffffffffffffffffffffffffffffff1673ffffffffffffffffffffffffffffffffffffffff1681526020019081526020016000205401905081600560008673ffffffffffffffffffffffffffffffffffffffff1673ffffffffffffffffffffffffffffffffffffffff1681526020019081526020016000206000828254039250508190555081600560008573ffffffffffffffffffffffffffffffffffffffff1673ffffffffffffffffffffffffffffffffffffffff168152602001908152602001600020600082825401925050819055508273ffffffffffffffffffffffffffffffffffffffff168473ffffffffffffffffffffffffffffffffffffffff167fddf252ad1be2c89b69c2b068fc378daa952ba7f163c4a11628f55a4df523b3ef846040518082815260200191505060405180910390a380600560008573ffffffffffffffffffffffffffffffffffffffff1673ffffffffffffffffffffffffffffffffffffffff16815260200190815260200160002054600560008773ffffffffffffffffffffffffffffffffffffffff1673ffffffffffffffffffffffffffffffffffffffff1681526020019081526020016000205401146169de57fe5b50505050565b50805460018160011615610100020316600290046000825580601f10616a0a5750616a29565b601f016020900490600052602060002090810190616a289190616aac565b5b50565b828054600181600116156101000203166002900490600052602060002090601f016020900481019282601f10616a6d57805160ff1916838001178555616a9b565b82800160010185558215616a9b579182015b82811115616a9a578251825591602001919060010190616a7f565b5b509050616aa89190616aac565b5090565b616ace91905b80821115616aca576000816000905550600101616ab2565b5090565b9056fe416d6f756e742063616e6e6f74206265206c657373207468616e20746f74616c20707269636543616e6e6f74206578636565642073656c6c657227732070726573657420616d6f756e742e5468616e6b7320666f7220646f6e6174696e672062757420302e3120657468657220697320746865206d696e696d756da2646970667358221220d91a22b33c499279f349ccf7b6f7c2d8fa3e77af9b1a9bb24de95a340e7acc7f64736f6c63430006010033",
  "source": "// SPDX-License-Identifier: MIT\npragma solidity ^0.6.0;\n\ninterface tokenRecipient { \n    function receiveApproval(address _from, uint256 _value, address _token, bytes calldata _extraData) external;\n}\n\ncontract TokenERC20 {\n    // Public variables of the token\n    address public owner;\n    string public name;\n    string public symbol;\n    uint8 public decimals = 18;\n    uint256 public totalSupply;\n    \n    // An array with all balances \n    mapping (address => uint256) public balanceOf;\n    mapping (address => mapping (address => uint256)) public allowance;\n    mapping (address => bool) public frozenAccounts;\n    \n    \n    // This generates a public event on the blockchain that will notify clients\n    event Transfer(address indexed from, address indexed to, uint256 value);\n    // Alerts client when an account is frozen\n    event FrozenFunds(address target, bool frozen);\n    // Publishes event on the blockchain that will notify clients\n    event Approval(address indexed _owner, address indexed _spender, uint256 _value);\n    // Notifies clients about the amount burnt\n    event Burn(address indexed from, uint256 value);\n\n    //Only sender with owner Authorization is permiitted\n    modifier onlyOwner() {\n        require(msg.sender == owner, \"Request failed; Not an owner\");\n        _;\n    }\n\n    /**\n     * Constrctor function\n     *\n     * Initializes contract with initial supply tokens to the creator of the contract\n     */\n    constructor(\n        uint256 initialSupply,\n        string memory tokenName,\n        string memory tokenSymbol\n    ) public {\n        totalSupply = initialSupply * 10 ** uint256(decimals);  // Update total supply with the decimal amount\n        balanceOf[msg.sender] = totalSupply;                // Give the creator all initial tokens\n        name = tokenName;                                   // Set the name for display purposes\n        symbol = tokenSymbol;                               // Set the symbol for display purposes\n    }\n    /**\n     * Internal transfer, only can be called by this contract\n     */\n    function _transfer(address _from, address _to, uint _value) internal {\n        // Prevent transfer to 0x0 address. Use burn() instead\n        require(_to != address(0));\n        // Check if the sender has enough\n        require(balanceOf[_from] >= _value);\n        // Check for overflows\n        require(balanceOf[_to] + _value > balanceOf[_to]);\n        // Save this for an assertion in the future\n        uint previousBalances = balanceOf[_from] + balanceOf[_to];\n        // Subtract from the sender\n        balanceOf[_from] -= _value;\n        // Add the same to the recipient\n        balanceOf[_to] += _value;\n        emit Transfer(_from, _to, _value);\n        // Asserts are used to use static analysis to find bugs in your code. They should never fail\n        assert(balanceOf[_from] + balanceOf[_to] == previousBalances);\n    }\n\n    // @notice Create `mintedAmount` tokens and send it to `target`\n    // @param target Address to receive the tokens\n    // @param mintedAmount the amount of tokens it will receive\n    function mintToken(address target, uint256 mintedAmount) onlyOwner public {\n        balanceOf[target] += mintedAmount;\n        totalSupply += mintedAmount;\n        emit Transfer(address(0), address(this), mintedAmount);\n        emit Transfer(address(this), target, mintedAmount);\n    }\n    \n    // @notice `freeze? Prevent | Allow` `target` from sending & receiving tokens\n    // @param target Address to be frozen\n    // @param freeze either to freeze it or not\n    function freezeAccount(address target, bool freeze) onlyOwner public {\n        frozenAccounts[target] = freeze;\n        emit FrozenFunds(target, freeze);\n    }\n\n    /**\n     * Transfer tokens\n     *\n     * Send `_value` tokens to `_to` from your account\n     *\n     * @param _to The address of the recipient\n     * @param _value the amount to send\n     */\n    function transfer(address _to, uint256 _value) public returns (bool success) {\n        require(!frozenAccounts[_to]);\n        _transfer(msg.sender, _to, _value);\n        return true;\n    }\n    /**\n     * Transfer tokens from other address\n     *\n     * Send `_value` tokens to `_to` in behalf of `_from`\n     *\n     * @param _from The address of the sender\n     * @param _to The address of the recipient\n     * @param _value the amount to send\n     */\n    function transferFrom(address _from, address _to, uint256 _value) public returns (bool success) {\n        require(_value <= allowance[_from][msg.sender]); // Check allowance amount\n        require(!frozenAccounts[_from]);        // Check if sender is frozen\n        require(!frozenAccounts[_to]);          // Check if recipient is frozen\n        allowance[_from][msg.sender] -= _value;\n        _transfer(_from, _to, _value);\n        return true;\n    }\n\n    /**\n     * Set allowance for other address\n     *\n     * Allows `_spender`: to spend no more than `_value` tokens in your behalf\n     *\n     * @param _spender: The address authorized to spend\n     * @param _value: the max amount they can spend\n     */\n    function approve(address _spender, uint256 _value) public returns (bool success) {\n        allowance[msg.sender][_spender] = _value;\n        emit Approval(msg.sender, _spender, _value);\n        return true;\n    }\n    /**\n     * Set allowance for other address and notify\n     *\n     * Allows `_spender` to spend no more than `_value` tokens on your behalf, and then ping the contract about it\n     *\n     * @param _spender: The address authorized to spend\n     * @param _value: the max amount they can spend\n     * @param _extraData :some extra information to send to the approved contract\n     */\n    function approveAndCall(address _spender, uint256 _value, bytes memory _extraData)\n        public\n        returns (bool success) {\n        tokenRecipient spender = tokenRecipient(_spender);\n        if (approve(_spender, _value)) {\n            spender.receiveApproval(msg.sender, _value, address(this), _extraData);\n            return true;\n        }\n    }\n    /**\n     * Destroy tokens\n     *\n     * Remove `_value` tokens from the system irreversibly\n     *\n     * @param _value the amount of money to burn\n     */\n    function burn(uint256 _value) public returns (bool success) {\n        require(balanceOf[msg.sender] >= _value);   // Check if the sender has enough\n        balanceOf[msg.sender] -= _value;            // Subtract from the sender\n        totalSupply -= _value;                      // Updates totalSupply\n        emit Burn(msg.sender, _value);\n        return true;\n    }\n    /**\n     * Destroy tokens from other account\n     *\n     * Remove `_value` tokens from the system irreversibly on behalf of `_from`.\n     *\n     * @param _from the address of the sender\n     * @param _value the amount of money to burn\n     */\n    function burnFrom(address _from, uint256 _value) public returns (bool success) {\n        require(balanceOf[_from] >= _value);                // Check if the targeted balance is enough\n        require(_value <= allowance[_from][msg.sender]);    // Check allowance\n        balanceOf[_from] -= _value;                         // Subtract from the targeted balance\n        allowance[_from][msg.sender] -= _value;             // Subtract from the sender's allowance\n        totalSupply -= _value;                              // Update totalSupply\n        emit Burn(_from, _value);\n        return true;\n    }\n    \n}\n\n// Online MarketPlace running on the blockchain\ncontract Dmarket is TokenERC20{\n    \n    uint totalItem = 0; //Total items added in contract lifetime\n    uint8 defaultId_storeOwner = 0; //preset id storeOwners\n    uint public adminCount = 0; //Numbers of Admins\n    uint256 public storeOwnersCount = 0; //All StoreOwners\n    uint256 public storeCount = 0; //Total number of stores\n    uint256 public itemcount = 0; //Total number of items\n    uint256 public shoppersCount; //All users\n    uint public etherBalance; //Balances other than custom token\n    uint public minimumDonation = 0.1 ether;\n\n    // Emits event when a storeOwner is approved\n    event ApprovedStoreOwner(address indexed _addr, uint256 _userId);\n    // Notifies the client when a new admin is added\n    event NewAdmin(address indexed _addr);\n    // Emits notification when a new store is added\n    event NewStoreFront(address indexed _msgsender, string _storeName, uint _storeNum);\n    // Emits event when a st\n    event UnregisteredStore(address indexed _storeOwnerAddress, uint256 _storeNumber);\n    event DeletedStore(address indexed _msgsender, uint256 _storeNumber);\n    event NewItem(address indexed _addr, string _itemName, bytes _itemRef);\n    event PriceChange(bytes _referenceId, uint256 _newSetPrice);\n    event Withdrawal(address indexed _from, address indexed _to, uint _amount);\n    event RemovedItem(address indexed _msgsender, string _itemName, uint _id);\n    event ReceivedEther(address, uint);\n    \n     // This generates a public event on the blockchain that will notify clients\n    event Transfer(address indexed from, address indexed to, uint256 value);\n    \n    // Public event on the blockchain that will notify clients\n    event Approval(address indexed _owner, address indexed _spender, uint256 _value);\n    // Notifies clients about the amount burnt\n    event Burn(address indexed from, uint256 value);\n    \n       // List of admins --> fixed\n    address[] public admins;\n\n    mapping(address => mapping(uint => bool)) public  isAdmin; //Admins approval\n    mapping(address => bool) public adminApprovalToAdd; //Admin approval to add storeOwner\n    mapping(address => mapping(uint => bool)) public isStoreOwnerApproved; // Approvals for storeOwner\n    mapping(address => mapping(uint256 => bytes)) public storefrontRef; //List of storefront refrences/IDs\n    // References to store with Items\n    mapping(address => mapping(string => mapping(string => mapping(uint => bytes)))) public storefrontRefItemMap;\n    // Check existence of a storefront using StoreName and storeNumber\n    mapping(string => mapping(uint => bool)) public storeExist; //Check for storefront existence\n    mapping(uint => bytes) public itemsList; //List of items\n    // Onwership of an item. Get by passing an address with item's number\n    mapping(address => mapping(uint => bool)) public ownerShip; //Ownership of items\n    mapping(string => mapping(uint => address)) public storeOwners;//List of stores with owners\n    mapping(uint => bool) public availableItems; //List of items available for sale\n    mapping(uint => uint) public itemBalance; //Item balance count\n    mapping(address => uint256) public shoppers; //All recognised Users for bounty purpose\n    \n    // Initialized at deployment time.\n    /**\n     * Constrctor function\n     *\n     * Initializes contract with initial supply tokens to the creator of the contract\n     */\n    constructor() TokenERC20(500000, \"gmarttoken\", \"GMT\") public {\n        owner = msg.sender;\n    }\n\n    //Only sender with admin role is permiitted\n    modifier onlyAdmin(uint _id) {\n        require(isAdmin[msg.sender][_id] == true, \"Not Authorized address\");\n        require(adminApprovalToAdd[msg.sender] == true, \"Not Authorized\");\n        _;\n    }\n    //Only approved store owner is allowed\n    modifier approvedStoreOwner(uint256 _id) {\n        require(isStoreOwnerApproved[msg.sender][_id] == true, \"Address not authorized\");\n        _;\n    }\n    modifier onlyAdminOrStoreOwner(uint _id) {\n        require(\n            (\n                adminApprovalToAdd[msg.sender] == true && isAdmin[msg.sender][_id] == true) || isStoreOwnerApproved[msg.sender][_id] == true,\n            \"Not Authorized address\"\n            ); _;\n    }\n\n    //Check if an item exist in a particular storefront\n    modifier checkItemExist(string memory _item, uint _itemNumber) {\n        require(availableItems[_itemNumber] == true, \"Item does not exist\");\n        _;\n    }\n    \n    // Changes ownership of this contract\n    function transferOwnership(address _newOwner) public onlyOwner {\n        owner = _newOwner;\n    }\n    \n    /**\n     * @dev adds an adminList\n     * function is called only by the authorized owner address\n     */\n    function addAdmin(address _addr) public onlyOwner returns(bool){\n        require(admins.length <= 3, \"Max admin reached --> [3]\");\n        require(_addr != address(0), \"Invalid address\");\n        uint id = adminCount + 1;\n        for (uint k = 0 ; k < admins.length; k++) {\n            require(isAdmin[_addr][k] == false);\n        }\n        isAdmin[_addr][id] = true;\n        adminApprovalToAdd[_addr] = false;\n        admins.push(_addr);\n        adminCount += 1;\n        emit NewAdmin(_addr);\n        return isAdmin[_addr][id];\n    }\n\n    // \n    // function checkIsAdmin(address _addr, uint _id) public view returns(bool) {\n    //     return (isAdmin[_addr][_id]);\n    // }\n\n    // function checkIfAdmincanAdd(address _addr) public view returns(bool) {\n    //     return(adminApprovalToAdd[_addr]);\n    // }\n\n    // function checkStoreOwnerApproved(address _addr, uint256 _id) public view returns(bool) {\n    //     return isStoreOwnerApproved[_addr][_id];\n    // }\n    \n    function approve_StoreOwner(address _addr, uint _id) public onlyAdmin(_id) returns(bool) {\n        require(_addr != address(0), \"Invalid address\");\n        uint256 id = storeOwnersCount + 1;\n        require(isStoreOwnerApproved[_addr][id] == false, \"Already approved\");\n        isStoreOwnerApproved[_addr][id] = true;\n        storeOwnersCount += 1;\n        emit ApprovedStoreOwner(_addr, id);\n        return true;\n    }\n    \n    // Update an admin approval to add storeowner\n    function changeAdminApproval(address _addr, bool _approval, uint _id) public onlyOwner returns(bool) {\n        require(isAdmin[_addr][_id] == true, \"Not already added\");\n        if(_approval == true){\n            require(adminApprovalToAdd[_addr] == false, \"Already approved\");\n            return adminApprovalToAdd[_addr] = _approval;\n        } else if(_approval == false){\n            require(adminApprovalToAdd[_addr] == true, \"Not yet approved\");\n            return adminApprovalToAdd[_addr] = false;\n        }\n    }\n    \n    // Update storeowner approval to add store and items\n    function changeStoreOwnerApproval(\n        address _addr,\n        bool _approval,\n        uint _adminId,\n        uint256 _storeOwnerId\n        ) public onlyAdmin(_adminId) returns(bool){\n        require(isStoreOwnerApproved[_addr][_storeOwnerId] == true, \"Not already added\");\n        if(_approval == true && isStoreOwnerApproved[_addr][_storeOwnerId] == true){\n            return false;\n        }else if(isStoreOwnerApproved[_addr][_storeOwnerId] == true && _approval == false){\n            isStoreOwnerApproved[_addr][_storeOwnerId] = false;\n            return true;\n        }\n        \n    }\n\n    /**\n    * StoreOwners Registers a new storefront. \n    * currently a participant self-adding strorefront\n    * param: _storeName: Name of the store.\n    */\n    function addStorefront(\n         string memory _storeName,\n         uint256 _userId\n         ) public approvedStoreOwner(_userId) returns(string memory, uint) {\n         uint256 _storeNumber = storeCount += 1;\n         uint256 dateCreated = now;\n         bool _active = true;\n         bytes memory _storefrontRef = abi.encode(msg.sender, _storeName, _storeNumber, dateCreated, _active);\n         require(storeExist[_storeName][_storeNumber] == false, \"Store already exist\" );\n         storefrontRef[msg.sender][_storeNumber] = _storefrontRef;\n         storeExist[_storeName][_storeNumber] = true;\n         storeOwners[_storeName][_storeNumber] = msg.sender;\n         emit NewStoreFront(msg.sender, _storeName, _storeNumber);\n         return (_storeName, _storeNumber);\n        \n     }\n    // \n    // function ifStoreExist(string memory _name, uint _storeNumber) public view returns(bool) {\n    //     if(storeExist[_name][_storeNumber]){\n    //         return true;\n    //     }else{\n    //         return false;\n    //     }\n    //  }\n     \n    function getStoreOwner(string memory _name, uint _id) public view returns(address) {\n        require(storeExist[_name][_id] == true, \"Store does not exist\" );\n        return(storeOwners[_name][_id]);\n     }\n     \n          /**\n     * StoreOwners Registers a new item to shelve. \n     * param: _itemName: Name of an item.\n     * param: _description: Detail of an item.\n     * param: _price: unit price of an item.\n     * param: _storeref: A unique  Id to the store.\n     * param: _quantity: Unit of ireferencetem to add.\n     */\n     \n    function addItemToStore(\n        string memory _itemName,\n        string memory _description,\n        uint _price,\n        string memory _storeName,\n        uint _qnty,\n        uint256 _userId\n        )public \n        approvedStoreOwner(_userId)\n        returns(bool)\n        {\n            require(_price > 0, \"Price cannot be zero\");\n            uint256 itemNumber = itemcount + 1;\n            address _seller = msg.sender;\n            bytes memory _itemref = abi.encode(\n                _itemName,\n                _price,\n                _qnty,\n                itemNumber,\n                _description,\n                _seller\n                );\n                storefrontRefItemMap[msg.sender][_storeName][_itemName][itemNumber] = _itemref;\n                ownerShip[msg.sender][itemNumber] = true;\n                availableItems[itemNumber] = true;\n                itemsList[itemNumber] = _itemref;\n                itemBalance[itemNumber] = _qnty;\n                itemcount += 1;\n                emit NewItem(msg.sender, _itemName, _itemref);\n                return true;\n            \n        }\n     \n    function removeAnItem(\n        string memory _storeName,\n        uint256 _userId,\n        string memory _itemName,\n        uint _itemNumber\n        )\n        public\n        approvedStoreOwner(_userId)\n        checkItemExist(_itemName, _itemNumber)\n        returns(bool){\n        delete storefrontRefItemMap[msg.sender][_storeName][_itemName][_itemNumber];\n        delete itemBalance[_itemNumber];\n        availableItems[_itemNumber] = false;\n        itemcount -= 1;\n        emit RemovedItem(msg.sender, _itemName, _itemNumber);\n        return true;\n     }\n\n    /**\n     * @dev UnRegisters a store from the Storefront \n     * currently only an admin is able to remove store\n     */\n    function removeAStore(\n        string memory _storeName,\n        uint256 _userId,\n        uint256 _storeNumber\n        ) public onlyAdminOrStoreOwner(_userId) returns(bool) {\n        delete storefrontRef[msg.sender][_storeNumber];\n        delete storeOwners[_storeName][_storeNumber];\n        storeExist[_storeName][_storeNumber] = false;\n        storeCount -= 1;\n        emit DeletedStore(msg.sender, _storeNumber);\n        return true;\n      }\n\n    // Shopper buys an item\n    function buyItem(\n        string calldata _name,\n        uint _qnty,\n        uint _itemNumber\n        )external payable checkItemExist(_name, _itemNumber) returns(bool) \n        {\n            bytes memory _itemToBuy = itemsList[_itemNumber];\n            uint256 _offer = msg.value;\n            (\n                string memory name,\n                uint price,\n                uint quantity,\n                uint itemNumber,\n                bytes32 description,\n                address sellerAddress) = abi.decode(_itemToBuy, (string, uint, uint, uint, bytes32, address));\n                require(_qnty > 0, \"Invalid quantity\");\n                uint amountToPay = _qnty * _offer;\n                require(amountToPay / _qnty == _offer, \"Overflow spotted\");\n                require(balanceOf[msg.sender] >= amountToPay, \"Insufficeient balance\");\n                require(_qnty <= quantity, \"Cannot exceed seller's preset amount.\");\n                require(_offer >= amountToPay, \"Amount cannot be less than total price\");\n                balanceOf[msg.sender] -= amountToPay;\n                balanceOf[sellerAddress] += amountToPay;\n                ownerShip[sellerAddress][_itemNumber] = false;\n                ownerShip[msg.sender][_itemNumber] = true;\n                quantity -= _qnty;\n                if(quantity == 0){\n                    availableItems[_itemNumber] = false;\n                    delete itemsList[_itemNumber];\n                    delete itemBalance[_itemNumber];\n                    itemcount -= 1;\n                    return true;\n                }else if(quantity > 0){\n                    itemsList[_itemNumber] = abi.encode(sellerAddress, name, price, quantity, itemNumber, description);\n                    itemBalance[itemNumber] = quantity;\n                }\n                shoppers[msg.sender] = shoppersCount += 1;\n                return true;\n     }\n     \n    // Approved storeOwners with balances can withdraw from the individual account\n    function withdrawBalanceStoreOwner(address payable _addr, uint _amount, uint256 _userId) external payable approvedStoreOwner(_userId) returns(bool success) {\n         require(balanceOf[msg.sender] >= _amount, \"Insufficeient balance\");\n         balanceOf[msg.sender] -= _amount;\n         balanceOf[_addr] += _amount;\n         emit Withdrawal(msg.sender, _addr, _amount);\n         return success;\n     }\n\n    // Owner can disable an admin \n    function disableAdmin(address _addr, uint8 _id) public onlyOwner returns(bool) {\n        require(isAdmin[_addr][_id] == true, \"Not an admin already\");\n        isAdmin[_addr][_id] = false;\n        adminCount -= 1;\n        return isAdmin[_addr][_id];\n    }\n    \n    //@dev Withdraws ether balance.\n    function withdraw(uint _amount) public onlyOwner payable{\n        require(_amount <= address(this).balance);\n        msg.sender.transfer(_amount);\n    }\n    // Executes a fallback i.e when a non-existent function is called.\n    receive() external payable {\n        emit ReceivedEther(msg.sender, msg.value);\n    }\n\n    // Donate ether\n    function sendEther() public payable returns(bool) {\n        require(msg.value >= minimumDonation, \"Thanks for donating but 0.1 ether is the minimum\");\n        balanceOf[msg.sender] -= msg.value;\n        balanceOf[address(this)] += msg.value;\n        return true;\n    }\n\n    function getBalance() external view returns(uint){\n        return address(this).balance;\n    }\n    \n}    ",
  "sourcePath": "C:/Users/OWNER/Desktop/bootFinalProject/consensys-finalProject/contracts/Dmarket.sol",
  "compiler": {
    "name": "solc",
    "version": "0.6.1+commit.e6f7d5a4.Emscripten.clang"
  },
  "schemaVersion": "3.2.5",
  "updatedAt": "2020-12-23T20:28:42.808Z",
  "networkType": "ethereum",
  "devdoc": {
    "methods": {
      "addAdmin(address)": {
        "details": "adds an adminList function is called only by the authorized owner address"
      },
      "approve(address,uint256)": {
        "params": {
          "_spender": ": The address authorized to spend",
          "_value": ": the max amount they can spend"
        }
      },
      "approveAndCall(address,uint256,bytes)": {
        "params": {
          "_extraData": ":some extra information to send to the approved contract",
          "_spender": ": The address authorized to spend",
          "_value": ": the max amount they can spend"
        }
      },
      "burn(uint256)": {
        "params": {
          "_value": "the amount of money to burn"
        }
      },
      "burnFrom(address,uint256)": {
        "params": {
          "_from": "the address of the sender",
          "_value": "the amount of money to burn"
        }
      },
      "removeAStore(string,uint256,uint256)": {
        "details": "UnRegisters a store from the Storefront  currently only an admin is able to remove store"
      },
      "transfer(address,uint256)": {
        "params": {
          "_to": "The address of the recipient",
          "_value": "the amount to send"
        }
      },
      "transferFrom(address,address,uint256)": {
        "params": {
          "_from": "The address of the sender",
          "_to": "The address of the recipient",
          "_value": "the amount to send"
        }
      }
    }
  },
  "userdoc": {
    "methods": {
      "addItemToStore(string,string,uint256,string,uint256,uint256)": {
        "notice": "StoreOwners Registers a new item to shelve.  param: _itemName: Name of an item. param: _description: Detail of an item. param: _price: unit price of an item. param: _storeref: A unique  Id to the store. param: _quantity: Unit of ireferencetem to add."
      },
      "addStorefront(string,uint256)": {
        "notice": "StoreOwners Registers a new storefront.  currently a participant self-adding strorefront param: _storeName: Name of the store."
      },
      "approve(address,uint256)": {
        "notice": "Set allowance for other address     * Allows `_spender`: to spend no more than `_value` tokens in your behalf"
      },
      "approveAndCall(address,uint256,bytes)": {
        "notice": "Set allowance for other address and notify     * Allows `_spender` to spend no more than `_value` tokens on your behalf, and then ping the contract about it"
      },
      "burn(uint256)": {
        "notice": "Destroy tokens     * Remove `_value` tokens from the system irreversibly"
      },
      "burnFrom(address,uint256)": {
        "notice": "Destroy tokens from other account     * Remove `_value` tokens from the system irreversibly on behalf of `_from`."
      },
      "constructor": "Constrctor function     * Initializes contract with initial supply tokens to the creator of the contract",
      "transfer(address,uint256)": {
        "notice": "Transfer tokens     * Send `_value` tokens to `_to` from your account"
      },
      "transferFrom(address,address,uint256)": {
        "notice": "Transfer tokens from other address     * Send `_value` tokens to `_to` in behalf of `_from`"
      }
    }
  }
}