{
  "contractName": "Dmarket",
  "abi": [
    {
      "inputs": [],
      "stateMutability": "nonpayable",
      "type": "constructor"
    },
    {
      "anonymous": false,
      "inputs": [
        {
          "indexed": true,
          "internalType": "address",
          "name": "_owner",
          "type": "address"
        },
        {
          "indexed": true,
          "internalType": "address",
          "name": "_spender",
          "type": "address"
        },
        {
          "indexed": false,
          "internalType": "uint256",
          "name": "_value",
          "type": "uint256"
        }
      ],
      "name": "Approval",
      "type": "event"
    },
    {
      "anonymous": false,
      "inputs": [
        {
          "indexed": true,
          "internalType": "address",
          "name": "_addr",
          "type": "address"
        },
        {
          "indexed": false,
          "internalType": "uint256",
          "name": "_userId",
          "type": "uint256"
        }
      ],
      "name": "ApprovedStoreOwner",
      "type": "event"
    },
    {
      "anonymous": false,
      "inputs": [
        {
          "indexed": true,
          "internalType": "address",
          "name": "from",
          "type": "address"
        },
        {
          "indexed": false,
          "internalType": "uint256",
          "name": "value",
          "type": "uint256"
        }
      ],
      "name": "Burn",
      "type": "event"
    },
    {
      "anonymous": false,
      "inputs": [
        {
          "indexed": true,
          "internalType": "address",
          "name": "_msgsender",
          "type": "address"
        },
        {
          "indexed": false,
          "internalType": "uint256",
          "name": "_storeNumber",
          "type": "uint256"
        }
      ],
      "name": "DeletedStore",
      "type": "event"
    },
    {
      "anonymous": false,
      "inputs": [
        {
          "indexed": false,
          "internalType": "address",
          "name": "target",
          "type": "address"
        },
        {
          "indexed": false,
          "internalType": "bool",
          "name": "frozen",
          "type": "bool"
        }
      ],
      "name": "FrozenFunds",
      "type": "event"
    },
    {
      "anonymous": false,
      "inputs": [
        {
          "indexed": true,
          "internalType": "address",
          "name": "_addr",
          "type": "address"
        }
      ],
      "name": "NewAdmin",
      "type": "event"
    },
    {
      "anonymous": false,
      "inputs": [
        {
          "indexed": true,
          "internalType": "address",
          "name": "_addr",
          "type": "address"
        },
        {
          "indexed": false,
          "internalType": "string",
          "name": "_itemName",
          "type": "string"
        },
        {
          "indexed": false,
          "internalType": "bytes",
          "name": "_itemRef",
          "type": "bytes"
        }
      ],
      "name": "NewItem",
      "type": "event"
    },
    {
      "anonymous": false,
      "inputs": [
        {
          "indexed": true,
          "internalType": "address",
          "name": "_msgsender",
          "type": "address"
        },
        {
          "indexed": false,
          "internalType": "string",
          "name": "_storeName",
          "type": "string"
        },
        {
          "indexed": false,
          "internalType": "uint256",
          "name": "_storeNum",
          "type": "uint256"
        }
      ],
      "name": "NewStoreFront",
      "type": "event"
    },
    {
      "anonymous": false,
      "inputs": [
        {
          "indexed": false,
          "internalType": "bytes",
          "name": "_referenceId",
          "type": "bytes"
        },
        {
          "indexed": false,
          "internalType": "uint256",
          "name": "_newSetPrice",
          "type": "uint256"
        }
      ],
      "name": "PriceChange",
      "type": "event"
    },
    {
      "anonymous": false,
      "inputs": [
        {
          "indexed": false,
          "internalType": "address",
          "name": "",
          "type": "address"
        },
        {
          "indexed": false,
          "internalType": "uint256",
          "name": "",
          "type": "uint256"
        }
      ],
      "name": "ReceivedEther",
      "type": "event"
    },
    {
      "anonymous": false,
      "inputs": [
        {
          "indexed": true,
          "internalType": "address",
          "name": "_msgsender",
          "type": "address"
        },
        {
          "indexed": false,
          "internalType": "string",
          "name": "_itemName",
          "type": "string"
        },
        {
          "indexed": false,
          "internalType": "uint256",
          "name": "_id",
          "type": "uint256"
        }
      ],
      "name": "RemovedItem",
      "type": "event"
    },
    {
      "anonymous": false,
      "inputs": [
        {
          "indexed": true,
          "internalType": "address",
          "name": "from",
          "type": "address"
        },
        {
          "indexed": true,
          "internalType": "address",
          "name": "to",
          "type": "address"
        },
        {
          "indexed": false,
          "internalType": "uint256",
          "name": "value",
          "type": "uint256"
        }
      ],
      "name": "Transfer",
      "type": "event"
    },
    {
      "anonymous": false,
      "inputs": [
        {
          "indexed": true,
          "internalType": "address",
          "name": "_storeOwnerAddress",
          "type": "address"
        },
        {
          "indexed": false,
          "internalType": "uint256",
          "name": "_storeNumber",
          "type": "uint256"
        }
      ],
      "name": "UnregisteredStore",
      "type": "event"
    },
    {
      "anonymous": false,
      "inputs": [
        {
          "indexed": true,
          "internalType": "address",
          "name": "_from",
          "type": "address"
        },
        {
          "indexed": true,
          "internalType": "address",
          "name": "_to",
          "type": "address"
        },
        {
          "indexed": false,
          "internalType": "uint256",
          "name": "_amount",
          "type": "uint256"
        }
      ],
      "name": "Withdrawal",
      "type": "event"
    },
    {
      "inputs": [
        {
          "internalType": "address",
          "name": "",
          "type": "address"
        }
      ],
      "name": "adminApprovalToAdd",
      "outputs": [
        {
          "internalType": "bool",
          "name": "",
          "type": "bool"
        }
      ],
      "stateMutability": "view",
      "type": "function",
      "constant": true
    },
    {
      "inputs": [],
      "name": "adminCount",
      "outputs": [
        {
          "internalType": "uint256",
          "name": "",
          "type": "uint256"
        }
      ],
      "stateMutability": "view",
      "type": "function",
      "constant": true
    },
    {
      "inputs": [
        {
          "internalType": "uint256",
          "name": "",
          "type": "uint256"
        }
      ],
      "name": "admins",
      "outputs": [
        {
          "internalType": "address",
          "name": "",
          "type": "address"
        }
      ],
      "stateMutability": "view",
      "type": "function",
      "constant": true
    },
    {
      "inputs": [
        {
          "internalType": "address",
          "name": "",
          "type": "address"
        },
        {
          "internalType": "address",
          "name": "",
          "type": "address"
        }
      ],
      "name": "allowance",
      "outputs": [
        {
          "internalType": "uint256",
          "name": "",
          "type": "uint256"
        }
      ],
      "stateMutability": "view",
      "type": "function",
      "constant": true
    },
    {
      "inputs": [
        {
          "internalType": "address",
          "name": "_spender",
          "type": "address"
        },
        {
          "internalType": "uint256",
          "name": "_value",
          "type": "uint256"
        }
      ],
      "name": "approve",
      "outputs": [
        {
          "internalType": "bool",
          "name": "success",
          "type": "bool"
        }
      ],
      "stateMutability": "nonpayable",
      "type": "function"
    },
    {
      "inputs": [
        {
          "internalType": "address",
          "name": "_spender",
          "type": "address"
        },
        {
          "internalType": "uint256",
          "name": "_value",
          "type": "uint256"
        },
        {
          "internalType": "bytes",
          "name": "_extraData",
          "type": "bytes"
        }
      ],
      "name": "approveAndCall",
      "outputs": [
        {
          "internalType": "bool",
          "name": "success",
          "type": "bool"
        }
      ],
      "stateMutability": "nonpayable",
      "type": "function"
    },
    {
      "inputs": [
        {
          "internalType": "uint256",
          "name": "",
          "type": "uint256"
        }
      ],
      "name": "availableItems",
      "outputs": [
        {
          "internalType": "bool",
          "name": "",
          "type": "bool"
        }
      ],
      "stateMutability": "view",
      "type": "function",
      "constant": true
    },
    {
      "inputs": [
        {
          "internalType": "address",
          "name": "",
          "type": "address"
        }
      ],
      "name": "balanceOf",
      "outputs": [
        {
          "internalType": "uint256",
          "name": "",
          "type": "uint256"
        }
      ],
      "stateMutability": "view",
      "type": "function",
      "constant": true
    },
    {
      "inputs": [
        {
          "internalType": "uint256",
          "name": "_value",
          "type": "uint256"
        }
      ],
      "name": "burn",
      "outputs": [
        {
          "internalType": "bool",
          "name": "success",
          "type": "bool"
        }
      ],
      "stateMutability": "nonpayable",
      "type": "function"
    },
    {
      "inputs": [
        {
          "internalType": "address",
          "name": "_from",
          "type": "address"
        },
        {
          "internalType": "uint256",
          "name": "_value",
          "type": "uint256"
        }
      ],
      "name": "burnFrom",
      "outputs": [
        {
          "internalType": "bool",
          "name": "success",
          "type": "bool"
        }
      ],
      "stateMutability": "nonpayable",
      "type": "function"
    },
    {
      "inputs": [],
      "name": "decimals",
      "outputs": [
        {
          "internalType": "uint8",
          "name": "",
          "type": "uint8"
        }
      ],
      "stateMutability": "view",
      "type": "function",
      "constant": true
    },
    {
      "inputs": [],
      "name": "etherBalance",
      "outputs": [
        {
          "internalType": "uint256",
          "name": "",
          "type": "uint256"
        }
      ],
      "stateMutability": "view",
      "type": "function",
      "constant": true
    },
    {
      "inputs": [
        {
          "internalType": "address",
          "name": "target",
          "type": "address"
        },
        {
          "internalType": "bool",
          "name": "freeze",
          "type": "bool"
        }
      ],
      "name": "freezeAccount",
      "outputs": [],
      "stateMutability": "nonpayable",
      "type": "function"
    },
    {
      "inputs": [
        {
          "internalType": "address",
          "name": "",
          "type": "address"
        }
      ],
      "name": "frozenAccounts",
      "outputs": [
        {
          "internalType": "bool",
          "name": "",
          "type": "bool"
        }
      ],
      "stateMutability": "view",
      "type": "function",
      "constant": true
    },
    {
      "inputs": [
        {
          "internalType": "address",
          "name": "",
          "type": "address"
        },
        {
          "internalType": "uint256",
          "name": "",
          "type": "uint256"
        }
      ],
      "name": "isAdmin",
      "outputs": [
        {
          "internalType": "bool",
          "name": "",
          "type": "bool"
        }
      ],
      "stateMutability": "view",
      "type": "function",
      "constant": true
    },
    {
      "inputs": [
        {
          "internalType": "address",
          "name": "",
          "type": "address"
        },
        {
          "internalType": "uint256",
          "name": "",
          "type": "uint256"
        }
      ],
      "name": "isStoreOwnerApproved",
      "outputs": [
        {
          "internalType": "bool",
          "name": "",
          "type": "bool"
        }
      ],
      "stateMutability": "view",
      "type": "function",
      "constant": true
    },
    {
      "inputs": [
        {
          "internalType": "uint256",
          "name": "",
          "type": "uint256"
        }
      ],
      "name": "itemBalance",
      "outputs": [
        {
          "internalType": "uint256",
          "name": "",
          "type": "uint256"
        }
      ],
      "stateMutability": "view",
      "type": "function",
      "constant": true
    },
    {
      "inputs": [],
      "name": "itemcount",
      "outputs": [
        {
          "internalType": "uint256",
          "name": "",
          "type": "uint256"
        }
      ],
      "stateMutability": "view",
      "type": "function",
      "constant": true
    },
    {
      "inputs": [
        {
          "internalType": "uint256",
          "name": "",
          "type": "uint256"
        }
      ],
      "name": "itemsList",
      "outputs": [
        {
          "internalType": "bytes",
          "name": "",
          "type": "bytes"
        }
      ],
      "stateMutability": "view",
      "type": "function",
      "constant": true
    },
    {
      "inputs": [],
      "name": "minimumDonation",
      "outputs": [
        {
          "internalType": "uint256",
          "name": "",
          "type": "uint256"
        }
      ],
      "stateMutability": "view",
      "type": "function",
      "constant": true
    },
    {
      "inputs": [
        {
          "internalType": "address",
          "name": "target",
          "type": "address"
        },
        {
          "internalType": "uint256",
          "name": "mintedAmount",
          "type": "uint256"
        }
      ],
      "name": "mintToken",
      "outputs": [],
      "stateMutability": "nonpayable",
      "type": "function"
    },
    {
      "inputs": [],
      "name": "name",
      "outputs": [
        {
          "internalType": "string",
          "name": "",
          "type": "string"
        }
      ],
      "stateMutability": "view",
      "type": "function",
      "constant": true
    },
    {
      "inputs": [],
      "name": "owner",
      "outputs": [
        {
          "internalType": "address",
          "name": "",
          "type": "address"
        }
      ],
      "stateMutability": "view",
      "type": "function",
      "constant": true
    },
    {
      "inputs": [
        {
          "internalType": "address",
          "name": "",
          "type": "address"
        }
      ],
      "name": "ownerShip",
      "outputs": [
        {
          "internalType": "bool",
          "name": "",
          "type": "bool"
        }
      ],
      "stateMutability": "view",
      "type": "function",
      "constant": true
    },
    {
      "inputs": [
        {
          "internalType": "address",
          "name": "",
          "type": "address"
        }
      ],
      "name": "shoppers",
      "outputs": [
        {
          "internalType": "uint256",
          "name": "",
          "type": "uint256"
        }
      ],
      "stateMutability": "view",
      "type": "function",
      "constant": true
    },
    {
      "inputs": [],
      "name": "shoppersCount",
      "outputs": [
        {
          "internalType": "uint256",
          "name": "",
          "type": "uint256"
        }
      ],
      "stateMutability": "view",
      "type": "function",
      "constant": true
    },
    {
      "inputs": [],
      "name": "storeCount",
      "outputs": [
        {
          "internalType": "uint256",
          "name": "",
          "type": "uint256"
        }
      ],
      "stateMutability": "view",
      "type": "function",
      "constant": true
    },
    {
      "inputs": [
        {
          "internalType": "string",
          "name": "",
          "type": "string"
        },
        {
          "internalType": "uint256",
          "name": "",
          "type": "uint256"
        }
      ],
      "name": "storeExist",
      "outputs": [
        {
          "internalType": "bool",
          "name": "",
          "type": "bool"
        }
      ],
      "stateMutability": "view",
      "type": "function",
      "constant": true
    },
    {
      "inputs": [
        {
          "internalType": "string",
          "name": "",
          "type": "string"
        },
        {
          "internalType": "uint256",
          "name": "",
          "type": "uint256"
        }
      ],
      "name": "storeOwners",
      "outputs": [
        {
          "internalType": "address",
          "name": "",
          "type": "address"
        }
      ],
      "stateMutability": "view",
      "type": "function",
      "constant": true
    },
    {
      "inputs": [],
      "name": "storeOwnersCount",
      "outputs": [
        {
          "internalType": "uint256",
          "name": "",
          "type": "uint256"
        }
      ],
      "stateMutability": "view",
      "type": "function",
      "constant": true
    },
    {
      "inputs": [
        {
          "internalType": "address",
          "name": "",
          "type": "address"
        },
        {
          "internalType": "uint256",
          "name": "",
          "type": "uint256"
        }
      ],
      "name": "storefrontRef",
      "outputs": [
        {
          "internalType": "bytes",
          "name": "",
          "type": "bytes"
        }
      ],
      "stateMutability": "view",
      "type": "function",
      "constant": true
    },
    {
      "inputs": [
        {
          "internalType": "address",
          "name": "",
          "type": "address"
        },
        {
          "internalType": "string",
          "name": "",
          "type": "string"
        },
        {
          "internalType": "string",
          "name": "",
          "type": "string"
        },
        {
          "internalType": "uint256",
          "name": "",
          "type": "uint256"
        }
      ],
      "name": "storefrontRefItemMap",
      "outputs": [
        {
          "internalType": "bytes",
          "name": "",
          "type": "bytes"
        }
      ],
      "stateMutability": "view",
      "type": "function",
      "constant": true
    },
    {
      "inputs": [],
      "name": "symbol",
      "outputs": [
        {
          "internalType": "string",
          "name": "",
          "type": "string"
        }
      ],
      "stateMutability": "view",
      "type": "function",
      "constant": true
    },
    {
      "inputs": [],
      "name": "totalSupply",
      "outputs": [
        {
          "internalType": "uint256",
          "name": "",
          "type": "uint256"
        }
      ],
      "stateMutability": "view",
      "type": "function",
      "constant": true
    },
    {
      "inputs": [
        {
          "internalType": "address",
          "name": "_to",
          "type": "address"
        },
        {
          "internalType": "uint256",
          "name": "_value",
          "type": "uint256"
        }
      ],
      "name": "transfer",
      "outputs": [
        {
          "internalType": "bool",
          "name": "success",
          "type": "bool"
        }
      ],
      "stateMutability": "nonpayable",
      "type": "function"
    },
    {
      "inputs": [
        {
          "internalType": "address",
          "name": "_from",
          "type": "address"
        },
        {
          "internalType": "address",
          "name": "_to",
          "type": "address"
        },
        {
          "internalType": "uint256",
          "name": "_value",
          "type": "uint256"
        }
      ],
      "name": "transferFrom",
      "outputs": [
        {
          "internalType": "bool",
          "name": "success",
          "type": "bool"
        }
      ],
      "stateMutability": "nonpayable",
      "type": "function"
    },
    {
      "stateMutability": "payable",
      "type": "receive",
      "payable": true
    },
    {
      "inputs": [
        {
          "internalType": "address",
          "name": "_newOwner",
          "type": "address"
        }
      ],
      "name": "transferOwnership",
      "outputs": [],
      "stateMutability": "nonpayable",
      "type": "function"
    },
    {
      "inputs": [
        {
          "internalType": "address",
          "name": "_addr",
          "type": "address"
        }
      ],
      "name": "addAdmin",
      "outputs": [
        {
          "internalType": "bool",
          "name": "",
          "type": "bool"
        }
      ],
      "stateMutability": "nonpayable",
      "type": "function"
    },
    {
      "inputs": [
        {
          "internalType": "address",
          "name": "_addr",
          "type": "address"
        },
        {
          "internalType": "uint256",
          "name": "_id",
          "type": "uint256"
        }
      ],
      "name": "checkIsAdmin",
      "outputs": [
        {
          "internalType": "bool",
          "name": "",
          "type": "bool"
        }
      ],
      "stateMutability": "view",
      "type": "function",
      "constant": true
    },
    {
      "inputs": [
        {
          "internalType": "address",
          "name": "_addr",
          "type": "address"
        }
      ],
      "name": "checkIfAdmincanAdd",
      "outputs": [
        {
          "internalType": "bool",
          "name": "",
          "type": "bool"
        }
      ],
      "stateMutability": "view",
      "type": "function",
      "constant": true
    },
    {
      "inputs": [
        {
          "internalType": "address",
          "name": "_addr",
          "type": "address"
        },
        {
          "internalType": "uint256",
          "name": "_id",
          "type": "uint256"
        }
      ],
      "name": "checkStoreOwnerApproved",
      "outputs": [
        {
          "internalType": "bool",
          "name": "",
          "type": "bool"
        }
      ],
      "stateMutability": "view",
      "type": "function",
      "constant": true
    },
    {
      "inputs": [
        {
          "internalType": "address",
          "name": "_addr",
          "type": "address"
        },
        {
          "internalType": "uint256",
          "name": "_id",
          "type": "uint256"
        }
      ],
      "name": "approve_StoreOwner",
      "outputs": [
        {
          "internalType": "bool",
          "name": "",
          "type": "bool"
        }
      ],
      "stateMutability": "nonpayable",
      "type": "function"
    },
    {
      "inputs": [
        {
          "internalType": "address",
          "name": "_addr",
          "type": "address"
        },
        {
          "internalType": "bool",
          "name": "_approval",
          "type": "bool"
        },
        {
          "internalType": "uint256",
          "name": "_id",
          "type": "uint256"
        }
      ],
      "name": "changeAdminApproval",
      "outputs": [
        {
          "internalType": "bool",
          "name": "",
          "type": "bool"
        }
      ],
      "stateMutability": "nonpayable",
      "type": "function"
    },
    {
      "inputs": [
        {
          "internalType": "address",
          "name": "_addr",
          "type": "address"
        },
        {
          "internalType": "bool",
          "name": "_approval",
          "type": "bool"
        },
        {
          "internalType": "uint256",
          "name": "_adminId",
          "type": "uint256"
        },
        {
          "internalType": "uint256",
          "name": "_storeOwnerId",
          "type": "uint256"
        }
      ],
      "name": "changeStoreOwnerApproval",
      "outputs": [
        {
          "internalType": "bool",
          "name": "",
          "type": "bool"
        }
      ],
      "stateMutability": "nonpayable",
      "type": "function"
    },
    {
      "inputs": [
        {
          "internalType": "string",
          "name": "_storeName",
          "type": "string"
        },
        {
          "internalType": "uint256",
          "name": "_userId",
          "type": "uint256"
        }
      ],
      "name": "addStorefront",
      "outputs": [
        {
          "internalType": "string",
          "name": "",
          "type": "string"
        },
        {
          "internalType": "uint256",
          "name": "",
          "type": "uint256"
        }
      ],
      "stateMutability": "nonpayable",
      "type": "function"
    },
    {
      "inputs": [
        {
          "internalType": "string",
          "name": "_name",
          "type": "string"
        },
        {
          "internalType": "uint256",
          "name": "_storeNumber",
          "type": "uint256"
        }
      ],
      "name": "ifStoreExist",
      "outputs": [
        {
          "internalType": "bool",
          "name": "",
          "type": "bool"
        }
      ],
      "stateMutability": "view",
      "type": "function",
      "constant": true
    },
    {
      "inputs": [
        {
          "internalType": "string",
          "name": "_name",
          "type": "string"
        },
        {
          "internalType": "uint256",
          "name": "_id",
          "type": "uint256"
        }
      ],
      "name": "getStoreOwner",
      "outputs": [
        {
          "internalType": "address",
          "name": "",
          "type": "address"
        }
      ],
      "stateMutability": "view",
      "type": "function",
      "constant": true
    },
    {
      "inputs": [
        {
          "internalType": "string",
          "name": "_itemName",
          "type": "string"
        },
        {
          "internalType": "string",
          "name": "_description",
          "type": "string"
        },
        {
          "internalType": "uint256",
          "name": "_price",
          "type": "uint256"
        },
        {
          "internalType": "string",
          "name": "_storeName",
          "type": "string"
        },
        {
          "internalType": "uint256",
          "name": "_qnty",
          "type": "uint256"
        },
        {
          "internalType": "uint256",
          "name": "_userId",
          "type": "uint256"
        }
      ],
      "name": "addItemToStore",
      "outputs": [
        {
          "internalType": "bool",
          "name": "",
          "type": "bool"
        }
      ],
      "stateMutability": "nonpayable",
      "type": "function"
    },
    {
      "inputs": [
        {
          "internalType": "string",
          "name": "_storeName",
          "type": "string"
        },
        {
          "internalType": "uint256",
          "name": "_userId",
          "type": "uint256"
        },
        {
          "internalType": "string",
          "name": "_itemName",
          "type": "string"
        },
        {
          "internalType": "uint256",
          "name": "_itemNumber",
          "type": "uint256"
        }
      ],
      "name": "removeAnItem",
      "outputs": [
        {
          "internalType": "bool",
          "name": "",
          "type": "bool"
        }
      ],
      "stateMutability": "nonpayable",
      "type": "function"
    },
    {
      "inputs": [
        {
          "internalType": "string",
          "name": "_storeName",
          "type": "string"
        },
        {
          "internalType": "uint256",
          "name": "_userId",
          "type": "uint256"
        },
        {
          "internalType": "uint256",
          "name": "_storeNumber",
          "type": "uint256"
        }
      ],
      "name": "removeAStore",
      "outputs": [
        {
          "internalType": "bool",
          "name": "",
          "type": "bool"
        }
      ],
      "stateMutability": "nonpayable",
      "type": "function"
    },
    {
      "inputs": [
        {
          "internalType": "string",
          "name": "_name",
          "type": "string"
        },
        {
          "internalType": "uint256",
          "name": "_qnty",
          "type": "uint256"
        },
        {
          "internalType": "uint256",
          "name": "_itemNumber",
          "type": "uint256"
        }
      ],
      "name": "buyItem",
      "outputs": [
        {
          "internalType": "bool",
          "name": "",
          "type": "bool"
        }
      ],
      "stateMutability": "payable",
      "type": "function",
      "payable": true
    },
    {
      "inputs": [
        {
          "internalType": "address payable",
          "name": "_addr",
          "type": "address"
        },
        {
          "internalType": "uint256",
          "name": "_amount",
          "type": "uint256"
        },
        {
          "internalType": "uint256",
          "name": "_userId",
          "type": "uint256"
        }
      ],
      "name": "withdrawBalanceStoreOwner",
      "outputs": [
        {
          "internalType": "bool",
          "name": "success",
          "type": "bool"
        }
      ],
      "stateMutability": "payable",
      "type": "function",
      "payable": true
    },
    {
      "inputs": [
        {
          "internalType": "address",
          "name": "_addr",
          "type": "address"
        },
        {
          "internalType": "uint8",
          "name": "_id",
          "type": "uint8"
        }
      ],
      "name": "disableAdmin",
      "outputs": [
        {
          "internalType": "bool",
          "name": "",
          "type": "bool"
        }
      ],
      "stateMutability": "nonpayable",
      "type": "function"
    },
    {
      "inputs": [
        {
          "internalType": "uint256",
          "name": "_amount",
          "type": "uint256"
        }
      ],
      "name": "withdraw",
      "outputs": [],
      "stateMutability": "payable",
      "type": "function",
      "payable": true
    },
    {
      "inputs": [],
      "name": "sendEther",
      "outputs": [
        {
          "internalType": "bool",
          "name": "",
          "type": "bool"
        }
      ],
      "stateMutability": "payable",
      "type": "function",
      "payable": true
    },
    {
      "inputs": [],
      "name": "getBalance",
      "outputs": [
        {
          "internalType": "uint256",
          "name": "",
          "type": "uint256"
        }
      ],
      "stateMutability": "view",
      "type": "function",
      "constant": true
    }
  ],
  "bytecode": "0x60806040526012600360006101000a81548160ff021916908360ff16021790555060006008556000600960006101000a81548160ff021916908360ff1602179055506000600a556000600b556000600c556000600d5567016345785d8a00006010553480156200006e57600080fd5b506207a1206040518060400160405280600a81526020017f676d617274746f6b656e000000000000000000000000000000000000000000008152506040518060400160405280600381526020017f474d540000000000000000000000000000000000000000000000000000000000815250600360009054906101000a900460ff1660ff16600a0a8302600481905550600454600560003373ffffffffffffffffffffffffffffffffffffffff1673ffffffffffffffffffffffffffffffffffffffff1681526020019081526020016000208190555081600190805190602001906200015b929190620001be565b50806002908051906020019062000174929190620001be565b50505050336000806101000a81548173ffffffffffffffffffffffffffffffffffffffff021916908373ffffffffffffffffffffffffffffffffffffffff1602179055506200026d565b828054600181600116156101000203166002900490600052602060002090601f016020900481019282601f106200020157805160ff191683800117855562000232565b8280016001018555821562000232579182015b828111156200023157825182559160200191906001019062000214565b5b50905062000241919062000245565b5090565b6200026a91905b80821115620002665760008160009055506001016200024c565b5090565b90565b616fa4806200027d6000396000f3fe60806040526004361061036f5760003560e01c80638441a6e9116101c6578063be249083116100f7578063e62092be11610095578063f33125e21161006f578063f33125e21461207a578063f3af35a1146120a5578063f7b1d6a61461212e578063fba855d014612218576103e1565b8063e62092be14611f59578063e724529c14611fcc578063f2fde38b14612029576103e1565b8063c9a6bbba116100d1578063c9a6bbba14611c83578063cae9ca5114611cf6578063dae54aea14611e00578063dd62ed3e14611ed4576103e1565b8063be24908314611a75578063bf2844b114611b5f578063c2bd9d9514611bcf576103e1565b80639e38ac1511610164578063ad66e52a1161013e578063ad66e52a14611943578063b75fd88f1461196e578063b9ed31d114611999578063bd20c98d14611a0c576103e1565b80639e38ac151461183c578063a1b141d4146118a5578063a9059cbb146118d0576103e1565b80638efca0dd116101a05780638efca0dd146116a2578063927603f71461170b57806395d89b411461178157806396d8f4f314611811576103e1565b80638441a6e91461153d578063860838a5146115e25780638da5cb5b1461164b576103e1565b80633b0f0161116102a057806370a082311161023e578063750414911161021857806375041491146111d057806379c65068146113fc57806379cc6790146114575780637f460714146114ca576103e1565b806370a0823114610f6157806371cb1ece14610fc657806373fcb5fc14611045576103e1565b806342966c681161027a57806342966c6814610b9157806351b7a63114610be457806360ed6b3414610de65780637048027514610ef8576103e1565b80633b0f0161146109205780634232dc0214610a1457806342654a6514610a3f576103e1565b806323b872dd1161030d5780632e1a7d4d116102e75780632e1a7d4d146107fb57806330fda73214610829578063313ce5671461089c578063347074e3146108cd576103e1565b806323b872dd146106ee5780632b7832b3146107815780632d983619146107ac576103e1565b806312065fe01161034957806312065fe01461050b57806314bfd6d01461053657806318160ddd146105b157806319f17c79146105dc576103e1565b806306fdde03146103e6578063095ea7b3146104765780630e29df22146104e9576103e1565b366103e1577fa419615bc8fda4c87663805ee2a3597a6d71c1d476911d9892f340d965bc7bf13334604051808373ffffffffffffffffffffffffffffffffffffffff1673ffffffffffffffffffffffffffffffffffffffff1681526020018281526020019250505060405180910390a1005b600080fd5b3480156103f257600080fd5b506103fb61227d565b6040518080602001828103825283818151815260200191508051906020019080838360005b8381101561043b578082015181840152602081019050610420565b50505050905090810190601f1680156104685780820380516001836020036101000a031916815260200191505b509250505060405180910390f35b34801561048257600080fd5b506104cf6004803603604081101561049957600080fd5b81019080803573ffffffffffffffffffffffffffffffffffffffff1690602001909291908035906020019092919050505061231b565b604051808215151515815260200191505060405180910390f35b6104f161240d565b604051808215151515815260200191505060405180910390f35b34801561051757600080fd5b5061052061250b565b6040518082815260200191505060405180910390f35b34801561054257600080fd5b5061056f6004803603602081101561055957600080fd5b8101908080359060200190929190505050612513565b604051808273ffffffffffffffffffffffffffffffffffffffff1673ffffffffffffffffffffffffffffffffffffffff16815260200191505060405180910390f35b3480156105bd57600080fd5b506105c661254f565b6040518082815260200191505060405180910390f35b3480156105e857600080fd5b506106ac600480360360408110156105ff57600080fd5b810190808035906020019064010000000081111561061c57600080fd5b82018360208201111561062e57600080fd5b8035906020019184600183028401116401000000008311171561065057600080fd5b91908080601f016020809104026020016040519081016040528093929190818152602001838380828437600081840152601f19601f82011690508083019250505050505050919291929080359060200190929190505050612555565b604051808273ffffffffffffffffffffffffffffffffffffffff1673ffffffffffffffffffffffffffffffffffffffff16815260200191505060405180910390f35b3480156106fa57600080fd5b506107676004803603606081101561071157600080fd5b81019080803573ffffffffffffffffffffffffffffffffffffffff169060200190929190803573ffffffffffffffffffffffffffffffffffffffff169060200190929190803590602001909291905050506125ad565b604051808215151515815260200191505060405180910390f35b34801561078d57600080fd5b50610796612786565b6040518082815260200191505060405180910390f35b3480156107b857600080fd5b506107e5600480360360208110156107cf57600080fd5b810190808035906020019092919050505061278c565b6040518082815260200191505060405180910390f35b6108276004803603602081101561081157600080fd5b81019080803590602001909291905050506127a4565b005b34801561083557600080fd5b506108826004803603604081101561084c57600080fd5b81019080803573ffffffffffffffffffffffffffffffffffffffff169060200190929190803590602001909291905050506128bd565b604051808215151515815260200191505060405180910390f35b3480156108a857600080fd5b506108b1612925565b604051808260ff1660ff16815260200191505060405180910390f35b3480156108d957600080fd5b50610906600480360360208110156108f057600080fd5b8101908080359060200190929190505050612938565b604051808215151515815260200191505060405180910390f35b34801561092c57600080fd5b506109fa6004803603606081101561094357600080fd5b810190808035906020019064010000000081111561096057600080fd5b82018360208201111561097257600080fd5b8035906020019184600183028401116401000000008311171561099457600080fd5b91908080601f016020809104026020016040519081016040528093929190818152602001838380828437600081840152601f19601f8201169050808301925050505050505091929192908035906020019092919080359060200190929190505050612958565b604051808215151515815260200191505060405180910390f35b348015610a2057600080fd5b50610a29612cf1565b6040518082815260200191505060405180910390f35b348015610a4b57600080fd5b50610b0f60048036036040811015610a6257600080fd5b8101908080359060200190640100000000811115610a7f57600080fd5b820183602082011115610a9157600080fd5b80359060200191846001830284011164010000000083111715610ab357600080fd5b91908080601f016020809104026020016040519081016040528093929190818152602001838380828437600081840152601f19601f82011690508083019250505050505050919291929080359060200190929190505050612cf7565b6040518080602001838152602001828103825284818151815260200191508051906020019080838360005b83811015610b55578082015181840152602081019050610b3a565b50505050905090810190601f168015610b825780820380516001836020036101000a031916815260200191505b50935050505060405180910390f35b348015610b9d57600080fd5b50610bca60048036036020811015610bb457600080fd5b810190808035906020019092919050505061324a565b604051808215151515815260200191505060405180910390f35b348015610bf057600080fd5b50610d6b60048036036080811015610c0757600080fd5b81019080803573ffffffffffffffffffffffffffffffffffffffff16906020019092919080359060200190640100000000811115610c4457600080fd5b820183602082011115610c5657600080fd5b80359060200191846001830284011164010000000083111715610c7857600080fd5b91908080601f016020809104026020016040519081016040528093929190818152602001838380828437600081840152601f19601f82011690508083019250505050505050919291929080359060200190640100000000811115610cdb57600080fd5b820183602082011115610ced57600080fd5b80359060200191846001830284011164010000000083111715610d0f57600080fd5b91908080601f016020809104026020016040519081016040528093929190818152602001838380828437600081840152601f19601f8201169050808301925050505050505091929192908035906020019092919050505061334c565b6040518080602001828103825283818151815260200191508051906020019080838360005b83811015610dab578082015181840152602081019050610d90565b50505050905090810190601f168015610dd85780820380516001836020036101000a031916815260200191505b509250505060405180910390f35b348015610df257600080fd5b50610eb660048036036040811015610e0957600080fd5b8101908080359060200190640100000000811115610e2657600080fd5b820183602082011115610e3857600080fd5b80359060200191846001830284011164010000000083111715610e5a57600080fd5b91908080601f016020809104026020016040519081016040528093929190818152602001838380828437600081840152601f19601f8201169050808301925050505050505091929192908035906020019092919050505061344f565b604051808273ffffffffffffffffffffffffffffffffffffffff1673ffffffffffffffffffffffffffffffffffffffff16815260200191505060405180910390f35b348015610f0457600080fd5b50610f4760048036036020811015610f1b57600080fd5b81019080803573ffffffffffffffffffffffffffffffffffffffff1690602001909291905050506135f5565b604051808215151515815260200191505060405180910390f35b348015610f6d57600080fd5b50610fb060048036036020811015610f8457600080fd5b81019080803573ffffffffffffffffffffffffffffffffffffffff169060200190929190505050613a4f565b6040518082815260200191505060405180910390f35b348015610fd257600080fd5b5061102b60048036036060811015610fe957600080fd5b81019080803573ffffffffffffffffffffffffffffffffffffffff16906020019092919080351515906020019092919080359060200190929190505050613a67565b604051808215151515815260200191505060405180910390f35b34801561105157600080fd5b506111b66004803603608081101561106857600080fd5b810190808035906020019064010000000081111561108557600080fd5b82018360208201111561109757600080fd5b803590602001918460018302840111640100000000831117156110b957600080fd5b91908080601f016020809104026020016040519081016040528093929190818152602001838380828437600081840152601f19601f820116905080830192505050505050509192919290803590602001909291908035906020019064010000000081111561112657600080fd5b82018360208201111561113857600080fd5b8035906020019184600183028401116401000000008311171561115a57600080fd5b91908080601f016020809104026020016040519081016040528093929190818152602001838380828437600081840152601f19601f82011690508083019250505050505050919291929080359060200190929190505050613e6b565b604051808215151515815260200191505060405180910390f35b3480156111dc57600080fd5b506113e2600480360360c08110156111f357600080fd5b810190808035906020019064010000000081111561121057600080fd5b82018360208201111561122257600080fd5b8035906020019184600183028401116401000000008311171561124457600080fd5b91908080601f016020809104026020016040519081016040528093929190818152602001838380828437600081840152601f19601f820116905080830192505050505050509192919290803590602001906401000000008111156112a757600080fd5b8201836020820111156112b957600080fd5b803590602001918460018302840111640100000000831117156112db57600080fd5b91908080601f016020809104026020016040519081016040528093929190818152602001838380828437600081840152601f19601f820116905080830192505050505050509192919290803590602001909291908035906020019064010000000081111561134857600080fd5b82018360208201111561135a57600080fd5b8035906020019184600183028401116401000000008311171561137c57600080fd5b91908080601f016020809104026020016040519081016040528093929190818152602001838380828437600081840152601f19601f8201169050808301925050505050505091929192908035906020019092919080359060200190929190505050614229565b604051808215151515815260200191505060405180910390f35b34801561140857600080fd5b506114556004803603604081101561141f57600080fd5b81019080803573ffffffffffffffffffffffffffffffffffffffff16906020019092919080359060200190929190505050614804565b005b34801561146357600080fd5b506114b06004803603604081101561147a57600080fd5b81019080803573ffffffffffffffffffffffffffffffffffffffff169060200190929190803590602001909291905050506149f2565b604051808215151515815260200191505060405180910390f35b3480156114d657600080fd5b50611523600480360360408110156114ed57600080fd5b81019080803573ffffffffffffffffffffffffffffffffffffffff16906020019092919080359060200190929190505050614c08565b604051808215151515815260200191505060405180910390f35b6115c86004803603606081101561155357600080fd5b810190808035906020019064010000000081111561157057600080fd5b82018360208201111561158257600080fd5b803590602001918460018302840111640100000000831117156115a457600080fd5b90919293919293908035906020019092919080359060200190929190505050615000565b604051808215151515815260200191505060405180910390f35b3480156115ee57600080fd5b506116316004803603602081101561160557600080fd5b81019080803573ffffffffffffffffffffffffffffffffffffffff16906020019092919050505061587e565b604051808215151515815260200191505060405180910390f35b34801561165757600080fd5b5061166061589e565b604051808273ffffffffffffffffffffffffffffffffffffffff1673ffffffffffffffffffffffffffffffffffffffff16815260200191505060405180910390f35b3480156116ae57600080fd5b506116f1600480360360208110156116c557600080fd5b81019080803573ffffffffffffffffffffffffffffffffffffffff1690602001909291905050506158c3565b604051808215151515815260200191505060405180910390f35b34801561171757600080fd5b506117676004803603604081101561172e57600080fd5b81019080803573ffffffffffffffffffffffffffffffffffffffff169060200190929190803560ff1690602001909291905050506158e3565b604051808215151515815260200191505060405180910390f35b34801561178d57600080fd5b50611796615b67565b6040518080602001828103825283818151815260200191508051906020019080838360005b838110156117d65780820151818401526020810190506117bb565b50505050905090810190601f1680156118035780820380516001836020036101000a031916815260200191505b509250505060405180910390f35b34801561181d57600080fd5b50611826615c05565b6040518082815260200191505060405180910390f35b34801561184857600080fd5b5061188b6004803603602081101561185f57600080fd5b81019080803573ffffffffffffffffffffffffffffffffffffffff169060200190929190505050615c0b565b604051808215151515815260200191505060405180910390f35b3480156118b157600080fd5b506118ba615c2b565b6040518082815260200191505060405180910390f35b3480156118dc57600080fd5b50611929600480360360408110156118f357600080fd5b81019080803573ffffffffffffffffffffffffffffffffffffffff16906020019092919080359060200190929190505050615c31565b604051808215151515815260200191505060405180910390f35b34801561194f57600080fd5b50611958615c9f565b6040518082815260200191505060405180910390f35b34801561197a57600080fd5b50611983615ca5565b6040518082815260200191505060405180910390f35b3480156119a557600080fd5b506119f2600480360360408110156119bc57600080fd5b81019080803573ffffffffffffffffffffffffffffffffffffffff16906020019092919080359060200190929190505050615cab565b604051808215151515815260200191505060405180910390f35b348015611a1857600080fd5b50611a5b60048036036020811015611a2f57600080fd5b81019080803573ffffffffffffffffffffffffffffffffffffffff169060200190929190505050615cda565b604051808215151515815260200191505060405180910390f35b348015611a8157600080fd5b50611b4560048036036040811015611a9857600080fd5b8101908080359060200190640100000000811115611ab557600080fd5b820183602082011115611ac757600080fd5b80359060200191846001830284011164010000000083111715611ae957600080fd5b91908080601f016020809104026020016040519081016040528093929190818152602001838380828437600081840152601f19601f82011690508083019250505050505050919291929080359060200190929190505050615d30565b604051808215151515815260200191505060405180910390f35b611bb560048036036060811015611b7557600080fd5b81019080803573ffffffffffffffffffffffffffffffffffffffff1690602001909291908035906020019092919080359060200190929190505050615dd3565b604051808215151515815260200191505060405180910390f35b348015611bdb57600080fd5b50611c0860048036036020811015611bf257600080fd5b810190808035906020019092919050505061606c565b6040518080602001828103825283818151815260200191508051906020019080838360005b83811015611c48578082015181840152602081019050611c2d565b50505050905090810190601f168015611c755780820380516001836020036101000a031916815260200191505b509250505060405180910390f35b348015611c8f57600080fd5b50611cdc60048036036040811015611ca657600080fd5b81019080803573ffffffffffffffffffffffffffffffffffffffff1690602001909291908035906020019092919050505061611c565b604051808215151515815260200191505060405180910390f35b348015611d0257600080fd5b50611de660048036036060811015611d1957600080fd5b81019080803573ffffffffffffffffffffffffffffffffffffffff1690602001909291908035906020019092919080359060200190640100000000811115611d6057600080fd5b820183602082011115611d7257600080fd5b80359060200191846001830284011164010000000083111715611d9457600080fd5b91908080601f016020809104026020016040519081016040528093929190818152602001838380828437600081840152601f19601f820116905080830192505050505050509192919290505050616184565b604051808215151515815260200191505060405180910390f35b348015611e0c57600080fd5b50611e5960048036036040811015611e2357600080fd5b81019080803573ffffffffffffffffffffffffffffffffffffffff169060200190929190803590602001909291905050506162ec565b6040518080602001828103825283818151815260200191508051906020019080838360005b83811015611e99578082015181840152602081019050611e7e565b50505050905090810190601f168015611ec65780820380516001836020036101000a031916815260200191505b509250505060405180910390f35b348015611ee057600080fd5b50611f4360048036036040811015611ef757600080fd5b81019080803573ffffffffffffffffffffffffffffffffffffffff169060200190929190803573ffffffffffffffffffffffffffffffffffffffff1690602001909291905050506163a9565b6040518082815260200191505060405180910390f35b348015611f6557600080fd5b50611fb260048036036040811015611f7c57600080fd5b81019080803573ffffffffffffffffffffffffffffffffffffffff169060200190929190803590602001909291905050506163ce565b604051808215151515815260200191505060405180910390f35b348015611fd857600080fd5b5061202760048036036040811015611fef57600080fd5b81019080803573ffffffffffffffffffffffffffffffffffffffff1690602001909291908035151590602001909291905050506163fd565b005b34801561203557600080fd5b506120786004803603602081101561204c57600080fd5b81019080803573ffffffffffffffffffffffffffffffffffffffff169060200190929190505050616589565b005b34801561208657600080fd5b5061208f61668e565b6040518082815260200191505060405180910390f35b3480156120b157600080fd5b50612114600480360360808110156120c857600080fd5b81019080803573ffffffffffffffffffffffffffffffffffffffff1690602001909291908035151590602001909291908035906020019092919080359060200190929190505050616694565b604051808215151515815260200191505060405180910390f35b34801561213a57600080fd5b506121fe6004803603604081101561215157600080fd5b810190808035906020019064010000000081111561216e57600080fd5b82018360208201111561218057600080fd5b803590602001918460018302840111640100000000831117156121a257600080fd5b91908080601f016020809104026020016040519081016040528093929190818152602001838380828437600081840152601f19601f82011690508083019250505050505050919291929080359060200190929190505050616a84565b604051808215151515815260200191505060405180910390f35b34801561222457600080fd5b506122676004803603602081101561223b57600080fd5b81019080803573ffffffffffffffffffffffffffffffffffffffff169060200190929190505050616ac9565b6040518082815260200191505060405180910390f35b60018054600181600116156101000203166002900480601f0160208091040260200160405190810160405280929190818152602001828054600181600116156101000203166002900480156123135780601f106122e857610100808354040283529160200191612313565b820191906000526020600020905b8154815290600101906020018083116122f657829003601f168201915b505050505081565b600081600660003373ffffffffffffffffffffffffffffffffffffffff1673ffffffffffffffffffffffffffffffffffffffff16815260200190815260200160002060008573ffffffffffffffffffffffffffffffffffffffff1673ffffffffffffffffffffffffffffffffffffffff168152602001908152602001600020819055508273ffffffffffffffffffffffffffffffffffffffff163373ffffffffffffffffffffffffffffffffffffffff167f8c5be1e5ebec7d5bd14f71427d1e84f3dd0314c0f7b2291e5b200ac8c7c3b925846040518082815260200191505060405180910390a36001905092915050565b600060105434101561246a576040517f08c379a0000000000000000000000000000000000000000000000000000000008152600401808060200182810382526030815260200180616f3f6030913960400191505060405180910390fd5b34600560003373ffffffffffffffffffffffffffffffffffffffff1673ffffffffffffffffffffffffffffffffffffffff1681526020019081526020016000206000828254039250508190555034600560003073ffffffffffffffffffffffffffffffffffffffff1673ffffffffffffffffffffffffffffffffffffffff168152602001908152602001600020600082825401925050819055506001905090565b600047905090565b6011818154811061252057fe5b906000526020600020016000915054906101000a900473ffffffffffffffffffffffffffffffffffffffff1681565b60045481565b601a828051602081018201805184825260208301602085012081835280955050505050506020528060005260406000206000915091509054906101000a900473ffffffffffffffffffffffffffffffffffffffff1681565b6000600660008573ffffffffffffffffffffffffffffffffffffffff1673ffffffffffffffffffffffffffffffffffffffff16815260200190815260200160002060003373ffffffffffffffffffffffffffffffffffffffff1673ffffffffffffffffffffffffffffffffffffffff1681526020019081526020016000205482111561263857600080fd5b600760008573ffffffffffffffffffffffffffffffffffffffff1673ffffffffffffffffffffffffffffffffffffffff16815260200190815260200160002060009054906101000a900460ff161561268f57600080fd5b600760008473ffffffffffffffffffffffffffffffffffffffff1673ffffffffffffffffffffffffffffffffffffffff16815260200190815260200160002060009054906101000a900460ff16156126e657600080fd5b81600660008673ffffffffffffffffffffffffffffffffffffffff1673ffffffffffffffffffffffffffffffffffffffff16815260200190815260200160002060003373ffffffffffffffffffffffffffffffffffffffff1673ffffffffffffffffffffffffffffffffffffffff1681526020019081526020016000206000828254039250508190555061277b848484616ae1565b600190509392505050565b600a5481565b601c6020528060005260406000206000915090505481565b6000809054906101000a900473ffffffffffffffffffffffffffffffffffffffff1673ffffffffffffffffffffffffffffffffffffffff163373ffffffffffffffffffffffffffffffffffffffff1614612866576040517f08c379a000000000000000000000000000000000000000000000000000000000815260040180806020018281038252601c8152602001807f52657175657374206661696c65643b204e6f7420616e206f776e65720000000081525060200191505060405180910390fd5b4781111561287357600080fd5b3373ffffffffffffffffffffffffffffffffffffffff166108fc829081150290604051600060405180830381858888f193505050501580156128b9573d6000803e3d6000fd5b5050565b6000601260008473ffffffffffffffffffffffffffffffffffffffff1673ffffffffffffffffffffffffffffffffffffffff168152602001908152602001600020600083815260200190815260200160002060009054906101000a900460ff16905092915050565b600360009054906101000a900460ff1681565b601b6020528060005260406000206000915054906101000a900460ff1681565b60008260011515601360003373ffffffffffffffffffffffffffffffffffffffff1673ffffffffffffffffffffffffffffffffffffffff16815260200190815260200160002060009054906101000a900460ff161515148015612a1c575060011515601260003373ffffffffffffffffffffffffffffffffffffffff1673ffffffffffffffffffffffffffffffffffffffff168152602001908152602001600020600083815260200190815260200160002060009054906101000a900460ff161515145b80612a88575060011515601460003373ffffffffffffffffffffffffffffffffffffffff1673ffffffffffffffffffffffffffffffffffffffff168152602001908152602001600020600083815260200190815260200160002060009054906101000a900460ff161515145b612afa576040517f08c379a00000000000000000000000000000000000000000000000000000000081526004018080602001828103825260168152602001807f4e6f7420417574686f72697a656420616464726573730000000000000000000081525060200191505060405180910390fd5b601560003373ffffffffffffffffffffffffffffffffffffffff1673ffffffffffffffffffffffffffffffffffffffff16815260200190815260200160002060008481526020019081526020016000206000612b569190616e06565b601a856040518082805190602001908083835b60208310612b8c5780518252602082019150602081019050602083039250612b69565b6001836020036101000a0380198251168184511680821785525050505050509050019150509081526020016040518091039020600084815260200190815260200160002060006101000a81549073ffffffffffffffffffffffffffffffffffffffff021916905560006017866040518082805190602001908083835b60208310612c2b5780518252602082019150602081019050602083039250612c08565b6001836020036101000a0380198251168184511680821785525050505050509050019150509081526020016040518091039020600085815260200190815260200160002060006101000a81548160ff0219169083151502179055506001600c600082825403925050819055503373ffffffffffffffffffffffffffffffffffffffff167ff0d9d157410ce0dd627a64caaef943950c3e149d9ac393179729ec71c342026d846040518082815260200191505060405180910390a260019150509392505050565b600d5481565b606060008260011515601460003373ffffffffffffffffffffffffffffffffffffffff1673ffffffffffffffffffffffffffffffffffffffff168152602001908152602001600020600083815260200190815260200160002060009054906101000a900460ff16151514612dd3576040517f08c379a00000000000000000000000000000000000000000000000000000000081526004018080602001828103825260168152602001807f41646472657373206e6f7420617574686f72697a65640000000000000000000081525060200191505060405180910390fd5b60006001600c6000828254019250508190559050600042905060006001905060603389858585604051602001808673ffffffffffffffffffffffffffffffffffffffff1673ffffffffffffffffffffffffffffffffffffffff1681526020018060200185815260200184815260200183151515158152602001828103825286818151815260200191508051906020019080838360005b83811015612e84578082015181840152602081019050612e69565b50505050905090810190601f168015612eb15780820380516001836020036101000a031916815260200191505b50965050505050505060405160208183030381529060405290506000151560178a6040518082805190602001908083835b60208310612f055780518252602082019150602081019050602083039250612ee2565b6001836020036101000a0380198251168184511680821785525050505050509050019150509081526020016040518091039020600086815260200190815260200160002060009054906101000a900460ff16151514612fcc576040517f08c379a00000000000000000000000000000000000000000000000000000000081526004018080602001828103825260138152602001807f53746f726520616c72656164792065786973740000000000000000000000000081525060200191505060405180910390fd5b80601560003373ffffffffffffffffffffffffffffffffffffffff1673ffffffffffffffffffffffffffffffffffffffff16815260200190815260200160002060008681526020019081526020016000209080519060200190613030929190616e4e565b50600160178a6040518082805190602001908083835b602083106130695780518252602082019150602081019050602083039250613046565b6001836020036101000a0380198251168184511680821785525050505050509050019150509081526020016040518091039020600086815260200190815260200160002060006101000a81548160ff02191690831515021790555033601a8a6040518082805190602001908083835b602083106130fb57805182526020820191506020810190506020830392506130d8565b6001836020036101000a0380198251168184511680821785525050505050509050019150509081526020016040518091039020600086815260200190815260200160002060006101000a81548173ffffffffffffffffffffffffffffffffffffffff021916908373ffffffffffffffffffffffffffffffffffffffff1602179055503373ffffffffffffffffffffffffffffffffffffffff167fbdd7e2a0dd74ed76fd574d8cb822d88a7dcb0beab257b24d8fd274ed8919ec8c8a866040518080602001838152602001828103825284818151815260200191508051906020019080838360005b838110156131fd5780820151818401526020810190506131e2565b50505050905090810190601f16801561322a5780820380516001836020036101000a031916815260200191505b50935050505060405180910390a288849650965050505050509250929050565b600081600560003373ffffffffffffffffffffffffffffffffffffffff1673ffffffffffffffffffffffffffffffffffffffff16815260200190815260200160002054101561329857600080fd5b81600560003373ffffffffffffffffffffffffffffffffffffffff1673ffffffffffffffffffffffffffffffffffffffff16815260200190815260200160002060008282540392505081905550816004600082825403925050819055503373ffffffffffffffffffffffffffffffffffffffff167fcc16f5dbb4873280815c1ee09dbd06736cffcc184412cf7a71a0fdb75d397ca5836040518082815260200191505060405180910390a260019050919050565b601660205283600052604060002083805160208101820180518482526020830160208501208183528095505050505050828051602081018201805184825260208301602085012081835280955050505050506020528060005260406000206000935093505050508054600181600116156101000203166002900480601f0160208091040260200160405190810160405280929190818152602001828054600181600116156101000203166002900480156134475780601f1061341c57610100808354040283529160200191613447565b820191906000526020600020905b81548152906001019060200180831161342a57829003601f168201915b505050505081565b6000600115156017846040518082805190602001908083835b6020831061348b5780518252602082019150602081019050602083039250613468565b6001836020036101000a0380198251168184511680821785525050505050509050019150509081526020016040518091039020600084815260200190815260200160002060009054906101000a900460ff16151514613552576040517f08c379a00000000000000000000000000000000000000000000000000000000081526004018080602001828103825260148152602001807f53746f726520646f6573206e6f7420657869737400000000000000000000000081525060200191505060405180910390fd5b601a836040518082805190602001908083835b602083106135885780518252602082019150602081019050602083039250613565565b6001836020036101000a0380198251168184511680821785525050505050509050019150509081526020016040518091039020600083815260200190815260200160002060009054906101000a900473ffffffffffffffffffffffffffffffffffffffff16905092915050565b60008060009054906101000a900473ffffffffffffffffffffffffffffffffffffffff1673ffffffffffffffffffffffffffffffffffffffff163373ffffffffffffffffffffffffffffffffffffffff16146136b9576040517f08c379a000000000000000000000000000000000000000000000000000000000815260040180806020018281038252601c8152602001807f52657175657374206661696c65643b204e6f7420616e206f776e65720000000081525060200191505060405180910390fd5b60036011805490501115613735576040517f08c379a00000000000000000000000000000000000000000000000000000000081526004018080602001828103825260198152602001807f4d61782061646d696e2072656163686564202d2d3e205b335d0000000000000081525060200191505060405180910390fd5b600073ffffffffffffffffffffffffffffffffffffffff168273ffffffffffffffffffffffffffffffffffffffff1614156137d8576040517f08c379a000000000000000000000000000000000000000000000000000000000815260040180806020018281038252600f8152602001807f496e76616c69642061646472657373000000000000000000000000000000000081525060200191505060405180910390fd5b60006001600a5401905060008090505b6011805490508110156138705760001515601260008673ffffffffffffffffffffffffffffffffffffffff1673ffffffffffffffffffffffffffffffffffffffff168152602001908152602001600020600083815260200190815260200160002060009054906101000a900460ff1615151461386357600080fd5b80806001019150506137e8565b506001601260008573ffffffffffffffffffffffffffffffffffffffff1673ffffffffffffffffffffffffffffffffffffffff168152602001908152602001600020600083815260200190815260200160002060006101000a81548160ff0219169083151502179055506000601360008573ffffffffffffffffffffffffffffffffffffffff1673ffffffffffffffffffffffffffffffffffffffff16815260200190815260200160002060006101000a81548160ff0219169083151502179055506011839080600181540180825580915050600190039060005260206000200160009091909190916101000a81548173ffffffffffffffffffffffffffffffffffffffff021916908373ffffffffffffffffffffffffffffffffffffffff1602179055506001600a600082825401925050819055508273ffffffffffffffffffffffffffffffffffffffff167f71614071b88dee5e0b2ae578a9dd7b2ebbe9ae832ba419dc0242cd065a290b6c60405160405180910390a2601260008473ffffffffffffffffffffffffffffffffffffffff1673ffffffffffffffffffffffffffffffffffffffff168152602001908152602001600020600082815260200190815260200160002060009054906101000a900460ff16915050919050565b60056020528060005260406000206000915090505481565b60008060009054906101000a900473ffffffffffffffffffffffffffffffffffffffff1673ffffffffffffffffffffffffffffffffffffffff163373ffffffffffffffffffffffffffffffffffffffff1614613b2b576040517f08c379a000000000000000000000000000000000000000000000000000000000815260040180806020018281038252601c8152602001807f52657175657374206661696c65643b204e6f7420616e206f776e65720000000081525060200191505060405180910390fd5b60011515601260008673ffffffffffffffffffffffffffffffffffffffff1673ffffffffffffffffffffffffffffffffffffffff168152602001908152602001600020600084815260200190815260200160002060009054906101000a900460ff16151514613c02576040517f08c379a00000000000000000000000000000000000000000000000000000000081526004018080602001828103825260118152602001807f4e6f7420616c726561647920616464656400000000000000000000000000000081525060200191505060405180910390fd5b600115158315151415613d325760001515601360008673ffffffffffffffffffffffffffffffffffffffff1673ffffffffffffffffffffffffffffffffffffffff16815260200190815260200160002060009054906101000a900460ff16151514613cd5576040517f08c379a00000000000000000000000000000000000000000000000000000000081526004018080602001828103825260108152602001807f416c726561647920617070726f7665640000000000000000000000000000000081525060200191505060405180910390fd5b82601360008673ffffffffffffffffffffffffffffffffffffffff1673ffffffffffffffffffffffffffffffffffffffff16815260200190815260200160002060006101000a81548160ff02191690831515021790559050613e64565b600015158315151415613e635760011515601360008673ffffffffffffffffffffffffffffffffffffffff1673ffffffffffffffffffffffffffffffffffffffff16815260200190815260200160002060009054906101000a900460ff16151514613e05576040517f08c379a00000000000000000000000000000000000000000000000000000000081526004018080602001828103825260108152602001807f4e6f742079657420617070726f7665640000000000000000000000000000000081525060200191505060405180910390fd5b6000601360008673ffffffffffffffffffffffffffffffffffffffff1673ffffffffffffffffffffffffffffffffffffffff16815260200190815260200160002060006101000a81548160ff02191690831515021790559050613e64565b5b9392505050565b60008360011515601460003373ffffffffffffffffffffffffffffffffffffffff1673ffffffffffffffffffffffffffffffffffffffff168152602001908152602001600020600083815260200190815260200160002060009054906101000a900460ff16151514613f45576040517f08c379a00000000000000000000000000000000000000000000000000000000081526004018080602001828103825260168152602001807f41646472657373206e6f7420617574686f72697a65640000000000000000000081525060200191505060405180910390fd5b838360011515601b600083815260200190815260200160002060009054906101000a900460ff16151514613fe1576040517f08c379a00000000000000000000000000000000000000000000000000000000081526004018080602001828103825260138152602001807f4974656d20646f6573206e6f742065786973740000000000000000000000000081525060200191505060405180910390fd5b601660003373ffffffffffffffffffffffffffffffffffffffff1673ffffffffffffffffffffffffffffffffffffffff168152602001908152602001600020886040518082805190602001908083835b602083106140545780518252602082019150602081019050602083039250614031565b6001836020036101000a0380198251168184511680821785525050505050509050019150509081526020016040518091039020866040518082805190602001908083835b602083106140bb5780518252602082019150602081019050602083039250614098565b6001836020036101000a03801982511681845116808217855250505050505090500191505090815260200160405180910390206000868152602001908152602001600020600061410b9190616e06565b601c6000868152602001908152602001600020600090556000601b600087815260200190815260200160002060006101000a81548160ff0219169083151502179055506001600d600082825403925050819055503373ffffffffffffffffffffffffffffffffffffffff167fa180aa81864bcb17fad00b76731c7d27c305afb22020cf673270600c6025d0b887876040518080602001838152602001828103825284818151815260200191508051906020019080838360005b838110156141df5780820151818401526020810190506141c4565b50505050905090810190601f16801561420c5780820380516001836020036101000a031916815260200191505b50935050505060405180910390a260019350505050949350505050565b60008160011515601460003373ffffffffffffffffffffffffffffffffffffffff1673ffffffffffffffffffffffffffffffffffffffff168152602001908152602001600020600083815260200190815260200160002060009054906101000a900460ff16151514614303576040517f08c379a00000000000000000000000000000000000000000000000000000000081526004018080602001828103825260168152602001807f41646472657373206e6f7420617574686f72697a65640000000000000000000081525060200191505060405180910390fd5b60008611614379576040517f08c379a00000000000000000000000000000000000000000000000000000000081526004018080602001828103825260148152602001807f50726963652063616e6e6f74206265207a65726f00000000000000000000000081525060200191505060405180910390fd5b60006001600d54019050600033905060608a8988858d866040516020018080602001878152602001868152602001858152602001806020018473ffffffffffffffffffffffffffffffffffffffff1673ffffffffffffffffffffffffffffffffffffffff168152602001838103835289818151815260200191508051906020019080838360005b8381101561441b578082015181840152602081019050614400565b50505050905090810190601f1680156144485780820380516001836020036101000a031916815260200191505b50838103825285818151815260200191508051906020019080838360005b83811015614481578082015181840152602081019050614466565b50505050905090810190601f1680156144ae5780820380516001836020036101000a031916815260200191505b5098505050505050505050604051602081830303815290604052905080601660003373ffffffffffffffffffffffffffffffffffffffff1673ffffffffffffffffffffffffffffffffffffffff168152602001908152602001600020896040518082805190602001908083835b6020831061453e578051825260208201915060208101905060208303925061451b565b6001836020036101000a03801982511681845116808217855250505050505090500191505090815260200160405180910390208c6040518082805190602001908083835b602083106145a55780518252602082019150602081019050602083039250614582565b6001836020036101000a0380198251168184511680821785525050505050509050019150509081526020016040518091039020600085815260200190815260200160002090805190602001906145fc929190616e4e565b506001601960003373ffffffffffffffffffffffffffffffffffffffff1673ffffffffffffffffffffffffffffffffffffffff16815260200190815260200160002060006101000a81548160ff0219169083151502179055506001601b600085815260200190815260200160002060006101000a81548160ff021916908315150217905550806018600085815260200190815260200160002090805190602001906146a8929190616e4e565b5086601c6000858152602001908152602001600020819055506001600d600082825401925050819055503373ffffffffffffffffffffffffffffffffffffffff167f772cc3a8e77f72eb5acf7b3a43da99bf21604939d49108bdd445da7c9c137a218c83604051808060200180602001838103835285818151815260200191508051906020019080838360005b83811015614750578082015181840152602081019050614735565b50505050905090810190601f16801561477d5780820380516001836020036101000a031916815260200191505b50838103825284818151815260200191508051906020019080838360005b838110156147b657808201518184015260208101905061479b565b50505050905090810190601f1680156147e35780820380516001836020036101000a031916815260200191505b5094505050505060405180910390a260019450505050509695505050505050565b6000809054906101000a900473ffffffffffffffffffffffffffffffffffffffff1673ffffffffffffffffffffffffffffffffffffffff163373ffffffffffffffffffffffffffffffffffffffff16146148c6576040517f08c379a000000000000000000000000000000000000000000000000000000000815260040180806020018281038252601c8152602001807f52657175657374206661696c65643b204e6f7420616e206f776e65720000000081525060200191505060405180910390fd5b80600560008473ffffffffffffffffffffffffffffffffffffffff1673ffffffffffffffffffffffffffffffffffffffff16815260200190815260200160002060008282540192505081905550806004600082825401925050819055503073ffffffffffffffffffffffffffffffffffffffff16600073ffffffffffffffffffffffffffffffffffffffff167fddf252ad1be2c89b69c2b068fc378daa952ba7f163c4a11628f55a4df523b3ef836040518082815260200191505060405180910390a38173ffffffffffffffffffffffffffffffffffffffff163073ffffffffffffffffffffffffffffffffffffffff167fddf252ad1be2c89b69c2b068fc378daa952ba7f163c4a11628f55a4df523b3ef836040518082815260200191505060405180910390a35050565b600081600560008573ffffffffffffffffffffffffffffffffffffffff1673ffffffffffffffffffffffffffffffffffffffff168152602001908152602001600020541015614a4057600080fd5b600660008473ffffffffffffffffffffffffffffffffffffffff1673ffffffffffffffffffffffffffffffffffffffff16815260200190815260200160002060003373ffffffffffffffffffffffffffffffffffffffff1673ffffffffffffffffffffffffffffffffffffffff16815260200190815260200160002054821115614ac957600080fd5b81600560008573ffffffffffffffffffffffffffffffffffffffff1673ffffffffffffffffffffffffffffffffffffffff1681526020019081526020016000206000828254039250508190555081600660008573ffffffffffffffffffffffffffffffffffffffff1673ffffffffffffffffffffffffffffffffffffffff16815260200190815260200160002060003373ffffffffffffffffffffffffffffffffffffffff1673ffffffffffffffffffffffffffffffffffffffff16815260200190815260200160002060008282540392505081905550816004600082825403925050819055508273ffffffffffffffffffffffffffffffffffffffff167fcc16f5dbb4873280815c1ee09dbd06736cffcc184412cf7a71a0fdb75d397ca5836040518082815260200191505060405180910390a26001905092915050565b60008160011515601260003373ffffffffffffffffffffffffffffffffffffffff1673ffffffffffffffffffffffffffffffffffffffff168152602001908152602001600020600083815260200190815260200160002060009054906101000a900460ff16151514614ce2576040517f08c379a00000000000000000000000000000000000000000000000000000000081526004018080602001828103825260168152602001807f4e6f7420417574686f72697a656420616464726573730000000000000000000081525060200191505060405180910390fd5b60011515601360003373ffffffffffffffffffffffffffffffffffffffff1673ffffffffffffffffffffffffffffffffffffffff16815260200190815260200160002060009054906101000a900460ff16151514614da8576040517f08c379a000000000000000000000000000000000000000000000000000000000815260040180806020018281038252600e8152602001807f4e6f7420417574686f72697a656400000000000000000000000000000000000081525060200191505060405180910390fd5b600073ffffffffffffffffffffffffffffffffffffffff168473ffffffffffffffffffffffffffffffffffffffff161415614e4b576040517f08c379a000000000000000000000000000000000000000000000000000000000815260040180806020018281038252600f8152602001807f496e76616c69642061646472657373000000000000000000000000000000000081525060200191505060405180910390fd5b60006001600b5401905060001515601460008773ffffffffffffffffffffffffffffffffffffffff1673ffffffffffffffffffffffffffffffffffffffff168152602001908152602001600020600083815260200190815260200160002060009054906101000a900460ff16151514614f2c576040517f08c379a00000000000000000000000000000000000000000000000000000000081526004018080602001828103825260108152602001807f416c726561647920617070726f7665640000000000000000000000000000000081525060200191505060405180910390fd5b6001601460008773ffffffffffffffffffffffffffffffffffffffff1673ffffffffffffffffffffffffffffffffffffffff168152602001908152602001600020600083815260200190815260200160002060006101000a81548160ff0219169083151502179055506001600b600082825401925050819055508473ffffffffffffffffffffffffffffffffffffffff167f7a8a0bce5482e96787ebd6c2b39c8a3ba934bd7418f05e073fb7102f7a71af5a826040518082815260200191505060405180910390a260019250505092915050565b600084848080601f016020809104026020016040519081016040528093929190818152602001838380828437600081840152601f19601f820116905080830192505050505050508260011515601b600083815260200190815260200160002060009054906101000a900460ff161515146150e2576040517f08c379a00000000000000000000000000000000000000000000000000000000081526004018080602001828103825260138152602001807f4974656d20646f6573206e6f742065786973740000000000000000000000000081525060200191505060405180910390fd5b6060601860008681526020019081526020016000208054600181600116156101000203166002900480601f01602080910402602001604051908101604052809291908181526020018280546001816001161561010002031660029004801561518b5780601f106151605761010080835404028352916020019161518b565b820191906000526020600020905b81548152906001019060200180831161516e57829003601f168201915b505050505090506000349050606060008060008060008780602001905160c08110156151b657600080fd5b81019080805160405193929190846401000000008211156151d657600080fd5b838201915060208201858111156151ec57600080fd5b825186600182028301116401000000008211171561520957600080fd5b8083526020830192505050908051906020019080838360005b8381101561523d578082015181840152602081019050615222565b50505050905090810190601f16801561526a5780820380516001836020036101000a031916815260200191505b50604052602001805190602001909291908051906020019092919080519060200190929190805190602001909291908051906020019092919050505095509550955095509550955060008d11615328576040517f08c379a00000000000000000000000000000000000000000000000000000000081526004018080602001828103825260108152602001807f496e76616c6964207175616e746974790000000000000000000000000000000081525060200191505060405180910390fd5b6000878e029050878e828161533957fe5b04146153ad576040517f08c379a00000000000000000000000000000000000000000000000000000000081526004018080602001828103825260108152602001807f4f766572666c6f772073706f747465640000000000000000000000000000000081525060200191505060405180910390fd5b80600560003373ffffffffffffffffffffffffffffffffffffffff1673ffffffffffffffffffffffffffffffffffffffff168152602001908152602001600020541015615462576040517f08c379a00000000000000000000000000000000000000000000000000000000081526004018080602001828103825260158152602001807f496e7375666669636569656e742062616c616e6365000000000000000000000081525060200191505060405180910390fd5b848e11156154bb576040517f08c379a0000000000000000000000000000000000000000000000000000000008152600401808060200182810382526025815260200180616f1a6025913960400191505060405180910390fd5b80881015615514576040517f08c379a0000000000000000000000000000000000000000000000000000000008152600401808060200182810382526026815260200180616ef46026913960400191505060405180910390fd5b80600560003373ffffffffffffffffffffffffffffffffffffffff1673ffffffffffffffffffffffffffffffffffffffff1681526020019081526020016000206000828254039250508190555080600560008473ffffffffffffffffffffffffffffffffffffffff1673ffffffffffffffffffffffffffffffffffffffff168152602001908152602001600020600082825401925050819055506000601960008473ffffffffffffffffffffffffffffffffffffffff1673ffffffffffffffffffffffffffffffffffffffff16815260200190815260200160002060006101000a81548160ff0219169083151502179055506001601960003373ffffffffffffffffffffffffffffffffffffffff1673ffffffffffffffffffffffffffffffffffffffff16815260200190815260200160002060006101000a81548160ff0219169083151502179055508d8503945060008514156156f1576000601b60008f815260200190815260200160002060006101000a81548160ff021916908315150217905550601860008e815260200190815260200160002060006156b79190616e06565b601c60008e8152602001908152602001600020600090556001600d6000828254039250508190555060019b50505050505050505050615874565b600085111561581357818787878787604051602001808773ffffffffffffffffffffffffffffffffffffffff1673ffffffffffffffffffffffffffffffffffffffff16815260200180602001868152602001858152602001848152602001838152602001828103825287818151815260200191508051906020019080838360005b8381101561578d578082015181840152602081019050615772565b50505050905090810190601f1680156157ba5780820380516001836020036101000a031916815260200191505b50975050505050505050604051602081830303815290604052601860008f815260200190815260200160002090805190602001906157f9929190616e4e565b5084601c6000868152602001908152602001600020819055505b6001600e600082825401925050819055601d60003373ffffffffffffffffffffffffffffffffffffffff1673ffffffffffffffffffffffffffffffffffffffff1681526020019081526020016000208190555060019b505050505050505050505b5050949350505050565b60076020528060005260406000206000915054906101000a900460ff1681565b6000809054906101000a900473ffffffffffffffffffffffffffffffffffffffff1681565b60136020528060005260406000206000915054906101000a900460ff1681565b60008060009054906101000a900473ffffffffffffffffffffffffffffffffffffffff1673ffffffffffffffffffffffffffffffffffffffff163373ffffffffffffffffffffffffffffffffffffffff16146159a7576040517f08c379a000000000000000000000000000000000000000000000000000000000815260040180806020018281038252601c8152602001807f52657175657374206661696c65643b204e6f7420616e206f776e65720000000081525060200191505060405180910390fd5b60011515601260008573ffffffffffffffffffffffffffffffffffffffff1673ffffffffffffffffffffffffffffffffffffffff16815260200190815260200160002060008460ff16815260200190815260200160002060009054906101000a900460ff16151514615a81576040517f08c379a00000000000000000000000000000000000000000000000000000000081526004018080602001828103825260148152602001807f4e6f7420616e2061646d696e20616c726561647900000000000000000000000081525060200191505060405180910390fd5b6000601260008573ffffffffffffffffffffffffffffffffffffffff1673ffffffffffffffffffffffffffffffffffffffff16815260200190815260200160002060008460ff16815260200190815260200160002060006101000a81548160ff0219169083151502179055506001600a60008282540392505081905550601260008473ffffffffffffffffffffffffffffffffffffffff1673ffffffffffffffffffffffffffffffffffffffff16815260200190815260200160002060008360ff16815260200190815260200160002060009054906101000a900460ff16905092915050565b60028054600181600116156101000203166002900480601f016020809104026020016040519081016040528092919081815260200182805460018160011615610100020316600290048015615bfd5780601f10615bd257610100808354040283529160200191615bfd565b820191906000526020600020905b815481529060010190602001808311615be057829003601f168201915b505050505081565b60105481565b60196020528060005260406000206000915054906101000a900460ff1681565b600c5481565b6000600760008473ffffffffffffffffffffffffffffffffffffffff1673ffffffffffffffffffffffffffffffffffffffff16815260200190815260200160002060009054906101000a900460ff1615615c8a57600080fd5b615c95338484616ae1565b6001905092915050565b600f5481565b600b5481565b60146020528160005260406000206020528060005260406000206000915091509054906101000a900460ff1681565b6000601360008373ffffffffffffffffffffffffffffffffffffffff1673ffffffffffffffffffffffffffffffffffffffff16815260200190815260200160002060009054906101000a900460ff169050919050565b60006017836040518082805190602001908083835b60208310615d685780518252602082019150602081019050602083039250615d45565b6001836020036101000a0380198251168184511680821785525050505050509050019150509081526020016040518091039020600083815260200190815260200160002060009054906101000a900460ff1615615dc85760019050615dcd565b600090505b92915050565b60008160011515601460003373ffffffffffffffffffffffffffffffffffffffff1673ffffffffffffffffffffffffffffffffffffffff168152602001908152602001600020600083815260200190815260200160002060009054906101000a900460ff16151514615ead576040517f08c379a00000000000000000000000000000000000000000000000000000000081526004018080602001828103825260168152602001807f41646472657373206e6f7420617574686f72697a65640000000000000000000081525060200191505060405180910390fd5b83600560003373ffffffffffffffffffffffffffffffffffffffff1673ffffffffffffffffffffffffffffffffffffffff168152602001908152602001600020541015615f62576040517f08c379a00000000000000000000000000000000000000000000000000000000081526004018080602001828103825260158152602001807f496e7375666669636569656e742062616c616e6365000000000000000000000081525060200191505060405180910390fd5b83600560003373ffffffffffffffffffffffffffffffffffffffff1673ffffffffffffffffffffffffffffffffffffffff1681526020019081526020016000206000828254039250508190555083600560008773ffffffffffffffffffffffffffffffffffffffff1673ffffffffffffffffffffffffffffffffffffffff168152602001908152602001600020600082825401925050819055508473ffffffffffffffffffffffffffffffffffffffff163373ffffffffffffffffffffffffffffffffffffffff167f2717ead6b9200dd235aad468c9809ea400fe33ac69b5bfaa6d3e90fc922b6398866040518082815260200191505060405180910390a3819150509392505050565b60186020528060005260406000206000915090508054600181600116156101000203166002900480601f0160208091040260200160405190810160405280929190818152602001828054600181600116156101000203166002900480156161145780601f106160e957610100808354040283529160200191616114565b820191906000526020600020905b8154815290600101906020018083116160f757829003601f168201915b505050505081565b6000601460008473ffffffffffffffffffffffffffffffffffffffff1673ffffffffffffffffffffffffffffffffffffffff168152602001908152602001600020600083815260200190815260200160002060009054906101000a900460ff16905092915050565b600080849050616194858561231b565b156162e3578073ffffffffffffffffffffffffffffffffffffffff16638f4ffcb1338630876040518563ffffffff1660e01b8152600401808573ffffffffffffffffffffffffffffffffffffffff1673ffffffffffffffffffffffffffffffffffffffff1681526020018481526020018373ffffffffffffffffffffffffffffffffffffffff1673ffffffffffffffffffffffffffffffffffffffff16815260200180602001828103825283818151815260200191508051906020019080838360005b83811015616272578082015181840152602081019050616257565b50505050905090810190601f16801561629f5780820380516001836020036101000a031916815260200191505b5095505050505050600060405180830381600087803b1580156162c157600080fd5b505af11580156162d5573d6000803e3d6000fd5b5050505060019150506162e5565b505b9392505050565b6015602052816000526040600020602052806000526040600020600091509150508054600181600116156101000203166002900480601f0160208091040260200160405190810160405280929190818152602001828054600181600116156101000203166002900480156163a15780601f10616376576101008083540402835291602001916163a1565b820191906000526020600020905b81548152906001019060200180831161638457829003601f168201915b505050505081565b6006602052816000526040600020602052806000526040600020600091509150505481565b60126020528160005260406000206020528060005260406000206000915091509054906101000a900460ff1681565b6000809054906101000a900473ffffffffffffffffffffffffffffffffffffffff1673ffffffffffffffffffffffffffffffffffffffff163373ffffffffffffffffffffffffffffffffffffffff16146164bf576040517f08c379a000000000000000000000000000000000000000000000000000000000815260040180806020018281038252601c8152602001807f52657175657374206661696c65643b204e6f7420616e206f776e65720000000081525060200191505060405180910390fd5b80600760008473ffffffffffffffffffffffffffffffffffffffff1673ffffffffffffffffffffffffffffffffffffffff16815260200190815260200160002060006101000a81548160ff0219169083151502179055507f48335238b4855f35377ed80f164e8c6f3c366e54ac00b96a6402d4a9814a03a58282604051808373ffffffffffffffffffffffffffffffffffffffff1673ffffffffffffffffffffffffffffffffffffffff168152602001821515151581526020019250505060405180910390a15050565b6000809054906101000a900473ffffffffffffffffffffffffffffffffffffffff1673ffffffffffffffffffffffffffffffffffffffff163373ffffffffffffffffffffffffffffffffffffffff161461664b576040517f08c379a000000000000000000000000000000000000000000000000000000000815260040180806020018281038252601c8152602001807f52657175657374206661696c65643b204e6f7420616e206f776e65720000000081525060200191505060405180910390fd5b806000806101000a81548173ffffffffffffffffffffffffffffffffffffffff021916908373ffffffffffffffffffffffffffffffffffffffff16021790555050565b600e5481565b60008260011515601260003373ffffffffffffffffffffffffffffffffffffffff1673ffffffffffffffffffffffffffffffffffffffff168152602001908152602001600020600083815260200190815260200160002060009054906101000a900460ff1615151461676e576040517f08c379a00000000000000000000000000000000000000000000000000000000081526004018080602001828103825260168152602001807f4e6f7420417574686f72697a656420616464726573730000000000000000000081525060200191505060405180910390fd5b60011515601360003373ffffffffffffffffffffffffffffffffffffffff1673ffffffffffffffffffffffffffffffffffffffff16815260200190815260200160002060009054906101000a900460ff16151514616834576040517f08c379a000000000000000000000000000000000000000000000000000000000815260040180806020018281038252600e8152602001807f4e6f7420417574686f72697a656400000000000000000000000000000000000081525060200191505060405180910390fd5b60011515601460008873ffffffffffffffffffffffffffffffffffffffff1673ffffffffffffffffffffffffffffffffffffffff168152602001908152602001600020600085815260200190815260200160002060009054906101000a900460ff1615151461690b576040517f08c379a00000000000000000000000000000000000000000000000000000000081526004018080602001828103825260118152602001807f4e6f7420616c726561647920616464656400000000000000000000000000000081525060200191505060405180910390fd5b60011515851515148015616980575060011515601460008873ffffffffffffffffffffffffffffffffffffffff1673ffffffffffffffffffffffffffffffffffffffff168152602001908152602001600020600085815260200190815260200160002060009054906101000a900460ff161515145b1561698e5760009150616a7b565b60011515601460008873ffffffffffffffffffffffffffffffffffffffff1673ffffffffffffffffffffffffffffffffffffffff168152602001908152602001600020600085815260200190815260200160002060009054906101000a900460ff161515148015616a03575060001515851515145b15616a7a576000601460008873ffffffffffffffffffffffffffffffffffffffff1673ffffffffffffffffffffffffffffffffffffffff168152602001908152602001600020600085815260200190815260200160002060006101000a81548160ff02191690831515021790555060019150616a7b565b5b50949350505050565b6017828051602081018201805184825260208301602085012081835280955050505050506020528060005260406000206000915091509054906101000a900460ff1681565b601d6020528060005260406000206000915090505481565b600073ffffffffffffffffffffffffffffffffffffffff168273ffffffffffffffffffffffffffffffffffffffff161415616b1b57600080fd5b80600560008573ffffffffffffffffffffffffffffffffffffffff1673ffffffffffffffffffffffffffffffffffffffff168152602001908152602001600020541015616b6757600080fd5b600560008373ffffffffffffffffffffffffffffffffffffffff1673ffffffffffffffffffffffffffffffffffffffff1681526020019081526020016000205481600560008573ffffffffffffffffffffffffffffffffffffffff1673ffffffffffffffffffffffffffffffffffffffff168152602001908152602001600020540111616bf357600080fd5b6000600560008473ffffffffffffffffffffffffffffffffffffffff1673ffffffffffffffffffffffffffffffffffffffff16815260200190815260200160002054600560008673ffffffffffffffffffffffffffffffffffffffff1673ffffffffffffffffffffffffffffffffffffffff1681526020019081526020016000205401905081600560008673ffffffffffffffffffffffffffffffffffffffff1673ffffffffffffffffffffffffffffffffffffffff1681526020019081526020016000206000828254039250508190555081600560008573ffffffffffffffffffffffffffffffffffffffff1673ffffffffffffffffffffffffffffffffffffffff168152602001908152602001600020600082825401925050819055508273ffffffffffffffffffffffffffffffffffffffff168473ffffffffffffffffffffffffffffffffffffffff167fddf252ad1be2c89b69c2b068fc378daa952ba7f163c4a11628f55a4df523b3ef846040518082815260200191505060405180910390a380600560008573ffffffffffffffffffffffffffffffffffffffff1673ffffffffffffffffffffffffffffffffffffffff16815260200190815260200160002054600560008773ffffffffffffffffffffffffffffffffffffffff1673ffffffffffffffffffffffffffffffffffffffff168152602001908152602001600020540114616e0057fe5b50505050565b50805460018160011615610100020316600290046000825580601f10616e2c5750616e4b565b601f016020900490600052602060002090810190616e4a9190616ece565b5b50565b828054600181600116156101000203166002900490600052602060002090601f016020900481019282601f10616e8f57805160ff1916838001178555616ebd565b82800160010185558215616ebd579182015b82811115616ebc578251825591602001919060010190616ea1565b5b509050616eca9190616ece565b5090565b616ef091905b80821115616eec576000816000905550600101616ed4565b5090565b9056fe416d6f756e742063616e6e6f74206265206c657373207468616e20746f74616c20707269636543616e6e6f74206578636565642073656c6c657227732070726573657420616d6f756e742e5468616e6b7320666f7220646f6e6174696e672062757420302e3120657468657220697320746865206d696e696d756da2646970667358221220e2d69c8e46b1eea6c939b1ae591bc44509c0d802486dea1c663619aac63ab66464736f6c63430006010033",
  "source": "// SPDX-License-Identifier: MIT\npragma solidity ^0.6.0;\n\ninterface tokenRecipient { \n    function receiveApproval(address _from, uint256 _value, address _token, bytes calldata _extraData) external;\n}\n\ncontract TokenERC20 {\n    // Public variables of the token\n    address public owner;\n    string public name;\n    string public symbol;\n    uint8 public decimals = 18;\n    uint256 public totalSupply;\n    \n    // An array with all balances \n    mapping (address => uint256) public balanceOf;\n    mapping (address => mapping (address => uint256)) public allowance;\n    mapping (address => bool) public frozenAccounts;\n    \n    \n    // This generates a public event on the blockchain that will notify clients\n    event Transfer(address indexed from, address indexed to, uint256 value);\n    // Alerts client when an account is frozen\n    event FrozenFunds(address target, bool frozen);\n    // Publishes event on the blockchain that will notify clients\n    event Approval(address indexed _owner, address indexed _spender, uint256 _value);\n    // Notifies clients about the amount burnt\n    event Burn(address indexed from, uint256 value);\n\n    //Only sender with owner Authorization is permiitted\n    modifier onlyOwner() {\n        require(msg.sender == owner, \"Request failed; Not an owner\");\n        _;\n    }\n\n    /**\n     * Constrctor function\n     *\n     * Initializes contract with initial supply tokens to the creator of the contract\n     */\n    constructor(\n        uint256 initialSupply,\n        string memory tokenName,\n        string memory tokenSymbol\n    ) public {\n        totalSupply = initialSupply * 10 ** uint256(decimals);  // Update total supply with the decimal amount\n        balanceOf[msg.sender] = totalSupply;                // Give the creator all initial tokens\n        name = tokenName;                                   // Set the name for display purposes\n        symbol = tokenSymbol;                               // Set the symbol for display purposes\n    }\n    /**\n     * Internal transfer, only can be called by this contract\n     */\n    function _transfer(address _from, address _to, uint _value) internal {\n        // Prevent transfer to 0x0 address. Use burn() instead\n        require(_to != address(0));\n        // Check if the sender has enough\n        require(balanceOf[_from] >= _value);\n        // Check for overflows\n        require(balanceOf[_to] + _value > balanceOf[_to]);\n        // Save this for an assertion in the future\n        uint previousBalances = balanceOf[_from] + balanceOf[_to];\n        // Subtract from the sender\n        balanceOf[_from] -= _value;\n        // Add the same to the recipient\n        balanceOf[_to] += _value;\n        emit Transfer(_from, _to, _value);\n        // Asserts are used to use static analysis to find bugs in your code. They should never fail\n        assert(balanceOf[_from] + balanceOf[_to] == previousBalances);\n    }\n\n    // @notice Create `mintedAmount` tokens and send it to `target`\n    // @param target Address to receive the tokens\n    // @param mintedAmount the amount of tokens it will receive\n    function mintToken(address target, uint256 mintedAmount) onlyOwner public {\n        balanceOf[target] += mintedAmount;\n        totalSupply += mintedAmount;\n        emit Transfer(address(0), address(this), mintedAmount);\n        emit Transfer(address(this), target, mintedAmount);\n    }\n    \n    // @notice `freeze? Prevent | Allow` `target` from sending & receiving tokens\n    // @param target Address to be frozen\n    // @param freeze either to freeze it or not\n    function freezeAccount(address target, bool freeze) onlyOwner public {\n        frozenAccounts[target] = freeze;\n        emit FrozenFunds(target, freeze);\n    }\n\n    /**\n     * Transfer tokens\n     *\n     * Send `_value` tokens to `_to` from your account\n     *\n     * @param _to The address of the recipient\n     * @param _value the amount to send\n     */\n    function transfer(address _to, uint256 _value) public returns (bool success) {\n        require(!frozenAccounts[_to]);\n        _transfer(msg.sender, _to, _value);\n        return true;\n    }\n    /**\n     * Transfer tokens from other address\n     *\n     * Send `_value` tokens to `_to` in behalf of `_from`\n     *\n     * @param _from The address of the sender\n     * @param _to The address of the recipient\n     * @param _value the amount to send\n     */\n    function transferFrom(address _from, address _to, uint256 _value) public returns (bool success) {\n        require(_value <= allowance[_from][msg.sender]); // Check allowance amount\n        require(!frozenAccounts[_from]);        // Check if sender is frozen\n        require(!frozenAccounts[_to]);          // Check if recipient is frozen\n        allowance[_from][msg.sender] -= _value;\n        _transfer(_from, _to, _value);\n        return true;\n    }\n\n    /**\n     * Set allowance for other address\n     *\n     * Allows `_spender`: to spend no more than `_value` tokens in your behalf\n     *\n     * @param _spender: The address authorized to spend\n     * @param _value: the max amount they can spend\n     */\n    function approve(address _spender, uint256 _value) public returns (bool success) {\n        allowance[msg.sender][_spender] = _value;\n        emit Approval(msg.sender, _spender, _value);\n        return true;\n    }\n    /**\n     * Set allowance for other address and notify\n     *\n     * Allows `_spender` to spend no more than `_value` tokens on your behalf, and then ping the contract about it\n     *\n     * @param _spender: The address authorized to spend\n     * @param _value: the max amount they can spend\n     * @param _extraData :some extra information to send to the approved contract\n     */\n    function approveAndCall(address _spender, uint256 _value, bytes memory _extraData)\n        public\n        returns (bool success) {\n        tokenRecipient spender = tokenRecipient(_spender);\n        if (approve(_spender, _value)) {\n            spender.receiveApproval(msg.sender, _value, address(this), _extraData);\n            return true;\n        }\n    }\n    /**\n     * Destroy tokens\n     *\n     * Remove `_value` tokens from the system irreversibly\n     *\n     * @param _value the amount of money to burn\n     */\n    function burn(uint256 _value) public returns (bool success) {\n        require(balanceOf[msg.sender] >= _value);   // Check if the sender has enough\n        balanceOf[msg.sender] -= _value;            // Subtract from the sender\n        totalSupply -= _value;                      // Updates totalSupply\n        emit Burn(msg.sender, _value);\n        return true;\n    }\n    /**\n     * Destroy tokens from other account\n     *\n     * Remove `_value` tokens from the system irreversibly on behalf of `_from`.\n     *\n     * @param _from the address of the sender\n     * @param _value the amount of money to burn\n     */\n    function burnFrom(address _from, uint256 _value) public returns (bool success) {\n        require(balanceOf[_from] >= _value);                // Check if the targeted balance is enough\n        require(_value <= allowance[_from][msg.sender]);    // Check allowance\n        balanceOf[_from] -= _value;                         // Subtract from the targeted balance\n        allowance[_from][msg.sender] -= _value;             // Subtract from the sender's allowance\n        totalSupply -= _value;                              // Update totalSupply\n        emit Burn(_from, _value);\n        return true;\n    }\n    \n}\n\n// Online MarketPlace running on the blockchain\ncontract Dmarket is TokenERC20{\n    \n    uint totalItem = 0; //Total items added in contract lifetime\n    uint8 defaultId_storeOwner = 0; //preset id storeOwners\n    uint public adminCount = 0; //Numbers of Admins\n    uint256 public storeOwnersCount = 0; //All StoreOwners\n    uint256 public storeCount = 0; //Total number of stores\n    uint256 public itemcount = 0; //Total number of items\n    uint256 public shoppersCount; //All users\n    uint public etherBalance; //Balances other than custom token\n    uint public minimumDonation = 0.1 ether;\n\n    // Emits event when a storeOwner is approved\n    event ApprovedStoreOwner(address indexed _addr, uint256 _userId);\n    // Notifies the client when a new admin is added\n    event NewAdmin(address indexed _addr);\n    // Emits notification when a new store is added\n    event NewStoreFront(address indexed _msgsender, string _storeName, uint _storeNum);\n    // Emits event when a st\n    event UnregisteredStore(address indexed _storeOwnerAddress, uint256 _storeNumber);\n    event DeletedStore(address indexed _msgsender, uint256 _storeNumber);\n    event NewItem(address indexed _addr, string _itemName, bytes _itemRef);\n    event PriceChange(bytes _referenceId, uint256 _newSetPrice);\n    event Withdrawal(address indexed _from, address indexed _to, uint _amount);\n    event RemovedItem(address indexed _msgsender, string _itemName, uint _id);\n    event ReceivedEther(address, uint);\n    \n     // This generates a public event on the blockchain that will notify clients\n    event Transfer(address indexed from, address indexed to, uint256 value);\n    \n    // Public event on the blockchain that will notify clients\n    event Approval(address indexed _owner, address indexed _spender, uint256 _value);\n    // Notifies clients about the amount burnt\n    event Burn(address indexed from, uint256 value);\n    \n       // List of admins --> fixed\n    address[] public admins;\n\n    mapping(address => mapping(uint => bool)) public  isAdmin; //Admins approval\n    mapping(address => bool) public adminApprovalToAdd; //Admin approval to add storeOwner\n    mapping(address => mapping(uint => bool)) public isStoreOwnerApproved; // Approvals for storeOwner\n    mapping(address => mapping(uint256 => bytes)) public storefrontRef; //List of storefront refrences/IDs\n    // References to store with Items\n    mapping(address => mapping(string => mapping(string => mapping(uint => bytes)))) public storefrontRefItemMap;\n    mapping(string => mapping(uint => bool)) public storeExist; //Check for storefront existence\n    mapping(uint => bytes) public itemsList; //List of items\n    mapping(address => bool) public ownerShip; //Ownership of items\n    mapping(string => mapping(uint => address)) public storeOwners;//List of stores with owners\n    mapping(uint => bool) public availableItems; //List of items available for sale\n    mapping(uint => uint) public itemBalance; //Item balance count\n    mapping(address => uint256) public shoppers; //All recognised Users for bounty purpose\n    \n    // Initialized at deployment time.\n    /**\n     * Constrctor function\n     *\n     * Initializes contract with initial supply tokens to the creator of the contract\n     */\n    constructor() TokenERC20(500000, \"gmarttoken\", \"GMT\") public {\n        owner = msg.sender;\n    }\n\n    //Only sender with admin role is permiitted\n    modifier onlyAdmin(uint _id) {\n        require(isAdmin[msg.sender][_id] == true, \"Not Authorized address\");\n        require(adminApprovalToAdd[msg.sender] == true, \"Not Authorized\");\n        _;\n    }\n    //Only approved store owner is allowed\n    modifier approvedStoreOwner(uint256 _id) {\n        require(isStoreOwnerApproved[msg.sender][_id] == true, \"Address not authorized\");\n        _;\n    }\n    modifier onlyAdminOrStoreOwner(uint _id) {\n        require(\n            (\n                adminApprovalToAdd[msg.sender] == true && isAdmin[msg.sender][_id] == true) || isStoreOwnerApproved[msg.sender][_id] == true,\n            \"Not Authorized address\"\n            ); _;\n    }\n\n    //Check if an item exist in a particular storefront\n    modifier checkItemExist(string memory _item, uint _itemNumber) {\n        require(availableItems[_itemNumber] == true, \"Item does not exist\");\n        _;\n    }\n    \n    // Changes ownership of this contract\n    function transferOwnership(address _newOwner) public onlyOwner {\n        owner = _newOwner;\n    }\n    \n    /**\n     * @dev adds an adminList\n     * function is called only by the authorized owner address\n     */\n    function addAdmin(address _addr) public onlyOwner returns(bool){\n        require(admins.length <= 3, \"Max admin reached --> [3]\");\n        require(_addr != address(0), \"Invalid address\");\n        uint id = adminCount + 1;\n        for (uint k = 0 ; k < admins.length; k++) {\n            require(isAdmin[_addr][k] == false);\n        }\n        isAdmin[_addr][id] = true;\n        adminApprovalToAdd[_addr] = false;\n        admins.push(_addr);\n        adminCount += 1;\n        emit NewAdmin(_addr);\n        return isAdmin[_addr][id];\n    }\n\n    // \n    function checkIsAdmin(address _addr, uint _id) public view returns(bool) {\n        return (isAdmin[_addr][_id]);\n    }\n\n    function checkIfAdmincanAdd(address _addr) public view returns(bool) {\n        return(adminApprovalToAdd[_addr]);\n    }\n\n    function checkStoreOwnerApproved(address _addr, uint256 _id) public view returns(bool) {\n        return isStoreOwnerApproved[_addr][_id];\n    }\n    \n    function approve_StoreOwner(address _addr, uint _id) public onlyAdmin(_id) returns(bool) {\n        require(_addr != address(0), \"Invalid address\");\n        uint256 id = storeOwnersCount + 1;\n        require(isStoreOwnerApproved[_addr][id] == false, \"Already approved\");\n        isStoreOwnerApproved[_addr][id] = true;\n        storeOwnersCount += 1;\n        emit ApprovedStoreOwner(_addr, id);\n        return true;\n    }\n    \n    function changeAdminApproval(address _addr, bool _approval, uint _id) public onlyOwner returns(bool) {\n        require(isAdmin[_addr][_id] == true, \"Not already added\");\n        if(_approval == true){\n            require(adminApprovalToAdd[_addr] == false, \"Already approved\");\n            return adminApprovalToAdd[_addr] = _approval;\n        } else if(_approval == false){\n            require(adminApprovalToAdd[_addr] == true, \"Not yet approved\");\n            return adminApprovalToAdd[_addr] = false;\n        }\n    }\n    \n    function changeStoreOwnerApproval(\n        address _addr,\n        bool _approval,\n        uint _adminId,\n        uint256 _storeOwnerId\n        ) public onlyAdmin(_adminId) returns(bool){\n        require(isStoreOwnerApproved[_addr][_storeOwnerId] == true, \"Not already added\");\n        if(_approval == true && isStoreOwnerApproved[_addr][_storeOwnerId] == true){\n            return false;\n        }else if(isStoreOwnerApproved[_addr][_storeOwnerId] == true && _approval == false){\n            isStoreOwnerApproved[_addr][_storeOwnerId] = false;\n            return true;\n        }\n        \n    }\n\n    /**\n    * StoreOwners Registers a new storefront. \n    * currently a participant self-adding strorefront\n    * param: _storeName: Name of the store.\n    */\n    function addStorefront(\n         string memory _storeName,\n         uint256 _userId\n         ) public approvedStoreOwner(_userId) returns(string memory, uint) {\n         uint256 _storeNumber = storeCount += 1;\n         uint256 dateCreated = now;\n         bool _active = true;\n         bytes memory _storefrontRef = abi.encode(msg.sender, _storeName, _storeNumber, dateCreated, _active);\n         require(storeExist[_storeName][_storeNumber] == false, \"Store already exist\" );\n         storefrontRef[msg.sender][_storeNumber] = _storefrontRef;\n         storeExist[_storeName][_storeNumber] = true;\n         storeOwners[_storeName][_storeNumber] = msg.sender;\n         emit NewStoreFront(msg.sender, _storeName, _storeNumber);\n         return (_storeName, _storeNumber);\n        \n     }\n\n    function ifStoreExist(string memory _name, uint _storeNumber) public view returns(bool) {\n        if(storeExist[_name][_storeNumber]){\n            return true;\n        }else{\n            return false;\n        }\n     }\n     \n    function getStoreOwner(string memory _name, uint _id) public view returns(address) {\n        require(storeExist[_name][_id] == true, \"Store does not exist\" );\n        return(storeOwners[_name][_id]);\n     }\n     \n          /**\n     * StoreOwners Registers a new item to shelve. \n     * param: _itemName: Name of an item.\n     * param: _description: Detail of an item.\n     * param: _price: unit price of an item.\n     * param: _storeref: A unique  Id to the store.\n     * param: _quantity: Unit of ireferencetem to add.\n     */\n     \n    function addItemToStore(\n        string memory _itemName,\n        string memory _description,\n        uint _price,\n        string memory _storeName,\n        uint _qnty,\n        uint256 _userId\n        )public \n        approvedStoreOwner(_userId)\n        returns(bool)\n        {\n            require(_price > 0, \"Price cannot be zero\");\n            uint256 itemNumber = itemcount + 1;\n            address _seller = msg.sender;\n            bytes memory _itemref = abi.encode(\n                _itemName,\n                _price,\n                _qnty,\n                itemNumber,\n                _description,\n                _seller\n                );\n                storefrontRefItemMap[msg.sender][_storeName][_itemName][itemNumber] = _itemref;\n                ownerShip[msg.sender] = true;\n                availableItems[itemNumber] = true;\n                itemsList[itemNumber] = _itemref;\n                itemBalance[itemNumber] = _qnty;\n                itemcount += 1;\n                emit NewItem(msg.sender, _itemName, _itemref);\n                return true;\n            \n        }\n     \n    function removeAnItem(\n        string memory _storeName,\n        uint256 _userId,\n        string memory _itemName,\n        uint _itemNumber\n        )\n        public\n        approvedStoreOwner(_userId)\n        checkItemExist(_itemName, _itemNumber)\n        returns(bool){\n        delete storefrontRefItemMap[msg.sender][_storeName][_itemName][_itemNumber];\n        delete itemBalance[_itemNumber];\n        availableItems[_itemNumber] = false;\n        itemcount -= 1;\n        emit RemovedItem(msg.sender, _itemName, _itemNumber);\n        return true;\n     }\n\n    /**\n     * @dev UnRegisters a store from the Storefront \n     * currently only an admin is able to remove store\n     */\n    function removeAStore(\n        string memory _storeName,\n        uint256 _userId,\n        uint256 _storeNumber\n        ) public onlyAdminOrStoreOwner(_userId) returns(bool) {\n        delete storefrontRef[msg.sender][_storeNumber];\n        delete storeOwners[_storeName][_storeNumber];\n        storeExist[_storeName][_storeNumber] = false;\n        storeCount -= 1;\n        emit DeletedStore(msg.sender, _storeNumber);\n        return true;\n      }\n\n    // Shopper buys an item\n    function buyItem(\n        string calldata _name,\n        uint _qnty,\n        uint _itemNumber\n        )external payable checkItemExist(_name, _itemNumber) returns(bool) \n        {\n            bytes memory _itemToBuy = itemsList[_itemNumber];\n            uint256 _offer = msg.value;\n            (\n                string memory name,\n                uint price,\n                uint quantity,\n                uint itemNumber,\n                bytes32 description,\n                address sellerAddress) = abi.decode(_itemToBuy, (string, uint, uint, uint, bytes32, address));\n                require(_qnty > 0, \"Invalid quantity\");\n                uint amountToPay = _qnty * _offer;\n                require(amountToPay / _qnty == _offer, \"Overflow spotted\");\n                require(balanceOf[msg.sender] >= amountToPay, \"Insufficeient balance\");\n                require(_qnty <= quantity, \"Cannot exceed seller's preset amount.\");\n                require(_offer >= amountToPay, \"Amount cannot be less than total price\");\n                balanceOf[msg.sender] -= amountToPay;\n                balanceOf[sellerAddress] += amountToPay;\n                ownerShip[sellerAddress] = false;\n                ownerShip[msg.sender] = true;\n                quantity -= _qnty;\n                if(quantity == 0){\n                    availableItems[_itemNumber] = false;\n                    delete itemsList[_itemNumber];\n                    delete itemBalance[_itemNumber];\n                    itemcount -= 1;\n                    return true;\n                }else if(quantity > 0){\n                    itemsList[_itemNumber] = abi.encode(sellerAddress, name, price, quantity, itemNumber, description);\n                    itemBalance[itemNumber] = quantity;\n                }\n                shoppers[msg.sender] = shoppersCount += 1;\n                return true;\n     }\n     \n    // Approved storeOwners with balances can withdraw from the individual account\n    function withdrawBalanceStoreOwner(address payable _addr, uint _amount, uint256 _userId) external payable approvedStoreOwner(_userId) returns(bool success) {\n         require(balanceOf[msg.sender] >= _amount, \"Insufficeient balance\");\n         balanceOf[msg.sender] -= _amount;\n         balanceOf[_addr] += _amount;\n         emit Withdrawal(msg.sender, _addr, _amount);\n         return success;\n     }\n\n    // Owner can disable an admin \n    function disableAdmin(address _addr, uint8 _id) public onlyOwner returns(bool) {\n        require(isAdmin[_addr][_id] == true, \"Not an admin already\");\n        isAdmin[_addr][_id] = false;\n        adminCount -= 1;\n        return isAdmin[_addr][_id];\n    }\n    \n    //@dev Withdraws ether balance.\n    function withdraw(uint _amount) public onlyOwner payable{\n        require(_amount <= address(this).balance);\n        msg.sender.transfer(_amount);\n    }\n    // Executes a fallback i.e when a non-existent function is called.\n    receive() external payable {\n        emit ReceivedEther(msg.sender, msg.value);\n    }\n\n    // Donate ether\n    function sendEther() public payable returns(bool) {\n        require(msg.value >= minimumDonation, \"Thanks for donating but 0.1 ether is the minimum\");\n        balanceOf[msg.sender] -= msg.value;\n        balanceOf[address(this)] += msg.value;\n        return true;\n    }\n\n    function getBalance() external view returns(uint){\n        return address(this).balance;\n    }\n    \n}    ",
  "sourcePath": "C:/Users/OWNER/Desktop/bootFinalProject/consensys-finalProject/contracts/Dmarket.sol",
  "compiler": {
    "name": "solc",
    "version": "0.6.1+commit.e6f7d5a4.Emscripten.clang"
  },
  "schemaVersion": "3.2.5",
  "updatedAt": "2020-12-23T19:38:42.199Z",
  "networkType": "ethereum",
  "devdoc": {
    "methods": {
      "addAdmin(address)": {
        "details": "adds an adminList function is called only by the authorized owner address"
      },
      "approve(address,uint256)": {
        "params": {
          "_spender": ": The address authorized to spend",
          "_value": ": the max amount they can spend"
        }
      },
      "approveAndCall(address,uint256,bytes)": {
        "params": {
          "_extraData": ":some extra information to send to the approved contract",
          "_spender": ": The address authorized to spend",
          "_value": ": the max amount they can spend"
        }
      },
      "burn(uint256)": {
        "params": {
          "_value": "the amount of money to burn"
        }
      },
      "burnFrom(address,uint256)": {
        "params": {
          "_from": "the address of the sender",
          "_value": "the amount of money to burn"
        }
      },
      "removeAStore(string,uint256,uint256)": {
        "details": "UnRegisters a store from the Storefront  currently only an admin is able to remove store"
      },
      "transfer(address,uint256)": {
        "params": {
          "_to": "The address of the recipient",
          "_value": "the amount to send"
        }
      },
      "transferFrom(address,address,uint256)": {
        "params": {
          "_from": "The address of the sender",
          "_to": "The address of the recipient",
          "_value": "the amount to send"
        }
      }
    }
  },
  "userdoc": {
    "methods": {
      "addItemToStore(string,string,uint256,string,uint256,uint256)": {
        "notice": "StoreOwners Registers a new item to shelve.  param: _itemName: Name of an item. param: _description: Detail of an item. param: _price: unit price of an item. param: _storeref: A unique  Id to the store. param: _quantity: Unit of ireferencetem to add."
      },
      "addStorefront(string,uint256)": {
        "notice": "StoreOwners Registers a new storefront.  currently a participant self-adding strorefront param: _storeName: Name of the store."
      },
      "approve(address,uint256)": {
        "notice": "Set allowance for other address     * Allows `_spender`: to spend no more than `_value` tokens in your behalf"
      },
      "approveAndCall(address,uint256,bytes)": {
        "notice": "Set allowance for other address and notify     * Allows `_spender` to spend no more than `_value` tokens on your behalf, and then ping the contract about it"
      },
      "burn(uint256)": {
        "notice": "Destroy tokens     * Remove `_value` tokens from the system irreversibly"
      },
      "burnFrom(address,uint256)": {
        "notice": "Destroy tokens from other account     * Remove `_value` tokens from the system irreversibly on behalf of `_from`."
      },
      "constructor": "Constrctor function     * Initializes contract with initial supply tokens to the creator of the contract",
      "transfer(address,uint256)": {
        "notice": "Transfer tokens     * Send `_value` tokens to `_to` from your account"
      },
      "transferFrom(address,address,uint256)": {
        "notice": "Transfer tokens from other address     * Send `_value` tokens to `_to` in behalf of `_from`"
      }
    }
  }
}