{
  "contractName": "GMart",
  "abi": [
    {
      "inputs": [],
      "stateMutability": "nonpayable",
      "type": "constructor"
    },
    {
      "anonymous": false,
      "inputs": [
        {
          "indexed": true,
          "internalType": "address",
          "name": "_owner",
          "type": "address"
        },
        {
          "indexed": true,
          "internalType": "address",
          "name": "_spender",
          "type": "address"
        },
        {
          "indexed": false,
          "internalType": "uint256",
          "name": "_value",
          "type": "uint256"
        }
      ],
      "name": "Approval",
      "type": "event"
    },
    {
      "anonymous": false,
      "inputs": [
        {
          "indexed": true,
          "internalType": "address",
          "name": "_addr",
          "type": "address"
        },
        {
          "indexed": false,
          "internalType": "uint256",
          "name": "_userId",
          "type": "uint256"
        }
      ],
      "name": "ApprovedStoreOwner",
      "type": "event"
    },
    {
      "anonymous": false,
      "inputs": [
        {
          "indexed": true,
          "internalType": "address",
          "name": "from",
          "type": "address"
        },
        {
          "indexed": false,
          "internalType": "uint256",
          "name": "value",
          "type": "uint256"
        }
      ],
      "name": "Burn",
      "type": "event"
    },
    {
      "anonymous": false,
      "inputs": [
        {
          "indexed": true,
          "internalType": "address",
          "name": "_msgsender",
          "type": "address"
        },
        {
          "indexed": false,
          "internalType": "uint256",
          "name": "_storeNumber",
          "type": "uint256"
        }
      ],
      "name": "DeletedStore",
      "type": "event"
    },
    {
      "anonymous": false,
      "inputs": [
        {
          "indexed": false,
          "internalType": "address",
          "name": "target",
          "type": "address"
        },
        {
          "indexed": false,
          "internalType": "bool",
          "name": "frozen",
          "type": "bool"
        }
      ],
      "name": "FrozenFunds",
      "type": "event"
    },
    {
      "anonymous": false,
      "inputs": [
        {
          "indexed": true,
          "internalType": "address",
          "name": "_addr",
          "type": "address"
        }
      ],
      "name": "NewAdmin",
      "type": "event"
    },
    {
      "anonymous": false,
      "inputs": [
        {
          "indexed": true,
          "internalType": "address",
          "name": "_addr",
          "type": "address"
        },
        {
          "indexed": false,
          "internalType": "string",
          "name": "_itemName",
          "type": "string"
        },
        {
          "indexed": false,
          "internalType": "bytes",
          "name": "_itemRef",
          "type": "bytes"
        }
      ],
      "name": "NewItem",
      "type": "event"
    },
    {
      "anonymous": false,
      "inputs": [
        {
          "indexed": true,
          "internalType": "address",
          "name": "_msgsender",
          "type": "address"
        },
        {
          "indexed": false,
          "internalType": "bytes",
          "name": "_storeRef",
          "type": "bytes"
        }
      ],
      "name": "NewStoreFront",
      "type": "event"
    },
    {
      "anonymous": false,
      "inputs": [
        {
          "indexed": false,
          "internalType": "bytes",
          "name": "_referenceId",
          "type": "bytes"
        },
        {
          "indexed": false,
          "internalType": "uint256",
          "name": "_newSetPrice",
          "type": "uint256"
        }
      ],
      "name": "PriceChange",
      "type": "event"
    },
    {
      "anonymous": false,
      "inputs": [
        {
          "indexed": false,
          "internalType": "address",
          "name": "",
          "type": "address"
        },
        {
          "indexed": false,
          "internalType": "uint256",
          "name": "",
          "type": "uint256"
        }
      ],
      "name": "ReceivedEther",
      "type": "event"
    },
    {
      "anonymous": false,
      "inputs": [
        {
          "indexed": true,
          "internalType": "address",
          "name": "_msgsender",
          "type": "address"
        },
        {
          "indexed": false,
          "internalType": "bytes",
          "name": "_refId",
          "type": "bytes"
        }
      ],
      "name": "RemovedItem",
      "type": "event"
    },
    {
      "anonymous": false,
      "inputs": [
        {
          "indexed": true,
          "internalType": "address",
          "name": "from",
          "type": "address"
        },
        {
          "indexed": true,
          "internalType": "address",
          "name": "to",
          "type": "address"
        },
        {
          "indexed": false,
          "internalType": "uint256",
          "name": "value",
          "type": "uint256"
        }
      ],
      "name": "Transfer",
      "type": "event"
    },
    {
      "anonymous": false,
      "inputs": [
        {
          "indexed": true,
          "internalType": "address",
          "name": "_storeOwnerAddress",
          "type": "address"
        },
        {
          "indexed": false,
          "internalType": "uint256",
          "name": "_storeNumber",
          "type": "uint256"
        }
      ],
      "name": "UnregisteredStore",
      "type": "event"
    },
    {
      "anonymous": false,
      "inputs": [
        {
          "indexed": true,
          "internalType": "address",
          "name": "_from",
          "type": "address"
        },
        {
          "indexed": true,
          "internalType": "address",
          "name": "_to",
          "type": "address"
        },
        {
          "indexed": false,
          "internalType": "uint256",
          "name": "_amount",
          "type": "uint256"
        }
      ],
      "name": "Withdrawal",
      "type": "event"
    },
    {
      "inputs": [
        {
          "internalType": "address",
          "name": "",
          "type": "address"
        }
      ],
      "name": "adminApprovalToAdd",
      "outputs": [
        {
          "internalType": "bool",
          "name": "",
          "type": "bool"
        }
      ],
      "stateMutability": "view",
      "type": "function",
      "constant": true
    },
    {
      "inputs": [],
      "name": "adminCount",
      "outputs": [
        {
          "internalType": "uint256",
          "name": "",
          "type": "uint256"
        }
      ],
      "stateMutability": "view",
      "type": "function",
      "constant": true
    },
    {
      "inputs": [
        {
          "internalType": "address",
          "name": "",
          "type": "address"
        },
        {
          "internalType": "address",
          "name": "",
          "type": "address"
        }
      ],
      "name": "allowance",
      "outputs": [
        {
          "internalType": "uint256",
          "name": "",
          "type": "uint256"
        }
      ],
      "stateMutability": "view",
      "type": "function",
      "constant": true
    },
    {
      "inputs": [
        {
          "internalType": "address",
          "name": "_spender",
          "type": "address"
        },
        {
          "internalType": "uint256",
          "name": "_value",
          "type": "uint256"
        }
      ],
      "name": "approve",
      "outputs": [
        {
          "internalType": "bool",
          "name": "success",
          "type": "bool"
        }
      ],
      "stateMutability": "nonpayable",
      "type": "function"
    },
    {
      "inputs": [
        {
          "internalType": "address",
          "name": "_spender",
          "type": "address"
        },
        {
          "internalType": "uint256",
          "name": "_value",
          "type": "uint256"
        },
        {
          "internalType": "bytes",
          "name": "_extraData",
          "type": "bytes"
        }
      ],
      "name": "approveAndCall",
      "outputs": [
        {
          "internalType": "bool",
          "name": "success",
          "type": "bool"
        }
      ],
      "stateMutability": "nonpayable",
      "type": "function"
    },
    {
      "inputs": [
        {
          "internalType": "bytes",
          "name": "",
          "type": "bytes"
        }
      ],
      "name": "availableItems",
      "outputs": [
        {
          "internalType": "bool",
          "name": "",
          "type": "bool"
        }
      ],
      "stateMutability": "view",
      "type": "function",
      "constant": true
    },
    {
      "inputs": [
        {
          "internalType": "address",
          "name": "",
          "type": "address"
        }
      ],
      "name": "balanceOf",
      "outputs": [
        {
          "internalType": "uint256",
          "name": "",
          "type": "uint256"
        }
      ],
      "stateMutability": "view",
      "type": "function",
      "constant": true
    },
    {
      "inputs": [
        {
          "internalType": "address",
          "name": "",
          "type": "address"
        }
      ],
      "name": "balanceof",
      "outputs": [
        {
          "internalType": "uint256",
          "name": "",
          "type": "uint256"
        }
      ],
      "stateMutability": "view",
      "type": "function",
      "constant": true
    },
    {
      "inputs": [
        {
          "internalType": "uint256",
          "name": "_value",
          "type": "uint256"
        }
      ],
      "name": "burn",
      "outputs": [
        {
          "internalType": "bool",
          "name": "success",
          "type": "bool"
        }
      ],
      "stateMutability": "nonpayable",
      "type": "function"
    },
    {
      "inputs": [
        {
          "internalType": "address",
          "name": "_from",
          "type": "address"
        },
        {
          "internalType": "uint256",
          "name": "_value",
          "type": "uint256"
        }
      ],
      "name": "burnFrom",
      "outputs": [
        {
          "internalType": "bool",
          "name": "success",
          "type": "bool"
        }
      ],
      "stateMutability": "nonpayable",
      "type": "function"
    },
    {
      "inputs": [],
      "name": "decimals",
      "outputs": [
        {
          "internalType": "uint8",
          "name": "",
          "type": "uint8"
        }
      ],
      "stateMutability": "view",
      "type": "function",
      "constant": true
    },
    {
      "inputs": [
        {
          "internalType": "address",
          "name": "",
          "type": "address"
        }
      ],
      "name": "frozenAccounts",
      "outputs": [
        {
          "internalType": "bool",
          "name": "",
          "type": "bool"
        }
      ],
      "stateMutability": "view",
      "type": "function",
      "constant": true
    },
    {
      "inputs": [
        {
          "internalType": "address",
          "name": "",
          "type": "address"
        },
        {
          "internalType": "uint256",
          "name": "",
          "type": "uint256"
        }
      ],
      "name": "isAdmin",
      "outputs": [
        {
          "internalType": "bool",
          "name": "",
          "type": "bool"
        }
      ],
      "stateMutability": "view",
      "type": "function",
      "constant": true
    },
    {
      "inputs": [
        {
          "internalType": "address",
          "name": "",
          "type": "address"
        },
        {
          "internalType": "uint256",
          "name": "",
          "type": "uint256"
        }
      ],
      "name": "isStoreOwnerApproved",
      "outputs": [
        {
          "internalType": "bool",
          "name": "",
          "type": "bool"
        }
      ],
      "stateMutability": "view",
      "type": "function",
      "constant": true
    },
    {
      "inputs": [],
      "name": "itemcount",
      "outputs": [
        {
          "internalType": "uint256",
          "name": "",
          "type": "uint256"
        }
      ],
      "stateMutability": "view",
      "type": "function",
      "constant": true
    },
    {
      "inputs": [
        {
          "internalType": "uint256",
          "name": "",
          "type": "uint256"
        }
      ],
      "name": "itemsList",
      "outputs": [
        {
          "internalType": "bytes",
          "name": "",
          "type": "bytes"
        }
      ],
      "stateMutability": "view",
      "type": "function",
      "constant": true
    },
    {
      "inputs": [],
      "name": "name",
      "outputs": [
        {
          "internalType": "string",
          "name": "",
          "type": "string"
        }
      ],
      "stateMutability": "view",
      "type": "function",
      "constant": true
    },
    {
      "inputs": [],
      "name": "owner",
      "outputs": [
        {
          "internalType": "address",
          "name": "",
          "type": "address"
        }
      ],
      "stateMutability": "view",
      "type": "function",
      "constant": true
    },
    {
      "inputs": [
        {
          "internalType": "address",
          "name": "",
          "type": "address"
        }
      ],
      "name": "ownerShip",
      "outputs": [
        {
          "internalType": "bool",
          "name": "",
          "type": "bool"
        }
      ],
      "stateMutability": "view",
      "type": "function",
      "constant": true
    },
    {
      "inputs": [
        {
          "internalType": "address",
          "name": "",
          "type": "address"
        }
      ],
      "name": "shoppers",
      "outputs": [
        {
          "internalType": "uint256",
          "name": "",
          "type": "uint256"
        }
      ],
      "stateMutability": "view",
      "type": "function",
      "constant": true
    },
    {
      "inputs": [],
      "name": "storeCount",
      "outputs": [
        {
          "internalType": "uint256",
          "name": "",
          "type": "uint256"
        }
      ],
      "stateMutability": "view",
      "type": "function",
      "constant": true
    },
    {
      "inputs": [
        {
          "internalType": "bytes",
          "name": "",
          "type": "bytes"
        }
      ],
      "name": "storeExist",
      "outputs": [
        {
          "internalType": "bool",
          "name": "",
          "type": "bool"
        }
      ],
      "stateMutability": "view",
      "type": "function",
      "constant": true
    },
    {
      "inputs": [
        {
          "internalType": "address",
          "name": "",
          "type": "address"
        }
      ],
      "name": "storeOwnerApprovalToAddItem",
      "outputs": [
        {
          "internalType": "bool",
          "name": "",
          "type": "bool"
        }
      ],
      "stateMutability": "view",
      "type": "function",
      "constant": true
    },
    {
      "inputs": [],
      "name": "storeOwnersCount",
      "outputs": [
        {
          "internalType": "uint256",
          "name": "",
          "type": "uint256"
        }
      ],
      "stateMutability": "view",
      "type": "function",
      "constant": true
    },
    {
      "inputs": [
        {
          "internalType": "address",
          "name": "",
          "type": "address"
        },
        {
          "internalType": "uint256",
          "name": "",
          "type": "uint256"
        }
      ],
      "name": "storefrontRef",
      "outputs": [
        {
          "internalType": "bytes",
          "name": "",
          "type": "bytes"
        }
      ],
      "stateMutability": "view",
      "type": "function",
      "constant": true
    },
    {
      "inputs": [
        {
          "internalType": "bytes",
          "name": "",
          "type": "bytes"
        },
        {
          "internalType": "uint256",
          "name": "",
          "type": "uint256"
        }
      ],
      "name": "storefrontRefItemMap",
      "outputs": [
        {
          "internalType": "bytes",
          "name": "",
          "type": "bytes"
        }
      ],
      "stateMutability": "view",
      "type": "function",
      "constant": true
    },
    {
      "inputs": [],
      "name": "symbol",
      "outputs": [
        {
          "internalType": "string",
          "name": "",
          "type": "string"
        }
      ],
      "stateMutability": "view",
      "type": "function",
      "constant": true
    },
    {
      "inputs": [],
      "name": "totalSupply",
      "outputs": [
        {
          "internalType": "uint256",
          "name": "",
          "type": "uint256"
        }
      ],
      "stateMutability": "view",
      "type": "function",
      "constant": true
    },
    {
      "inputs": [
        {
          "internalType": "address",
          "name": "_to",
          "type": "address"
        },
        {
          "internalType": "uint256",
          "name": "_value",
          "type": "uint256"
        }
      ],
      "name": "transfer",
      "outputs": [
        {
          "internalType": "bool",
          "name": "success",
          "type": "bool"
        }
      ],
      "stateMutability": "nonpayable",
      "type": "function"
    },
    {
      "inputs": [
        {
          "internalType": "address",
          "name": "_from",
          "type": "address"
        },
        {
          "internalType": "address",
          "name": "_to",
          "type": "address"
        },
        {
          "internalType": "uint256",
          "name": "_value",
          "type": "uint256"
        }
      ],
      "name": "transferFrom",
      "outputs": [
        {
          "internalType": "bool",
          "name": "success",
          "type": "bool"
        }
      ],
      "stateMutability": "nonpayable",
      "type": "function"
    },
    {
      "stateMutability": "payable",
      "type": "receive",
      "payable": true
    },
    {
      "inputs": [
        {
          "internalType": "address",
          "name": "_newOwner",
          "type": "address"
        }
      ],
      "name": "transferOwnership",
      "outputs": [],
      "stateMutability": "nonpayable",
      "type": "function"
    },
    {
      "inputs": [
        {
          "internalType": "address",
          "name": "target",
          "type": "address"
        },
        {
          "internalType": "uint256",
          "name": "mintedAmount",
          "type": "uint256"
        }
      ],
      "name": "mintToken",
      "outputs": [],
      "stateMutability": "nonpayable",
      "type": "function"
    },
    {
      "inputs": [
        {
          "internalType": "address",
          "name": "target",
          "type": "address"
        },
        {
          "internalType": "bool",
          "name": "freeze",
          "type": "bool"
        }
      ],
      "name": "freezeAccount",
      "outputs": [],
      "stateMutability": "nonpayable",
      "type": "function"
    },
    {
      "inputs": [
        {
          "internalType": "address",
          "name": "_from",
          "type": "address"
        },
        {
          "internalType": "address",
          "name": "_to",
          "type": "address"
        },
        {
          "internalType": "uint256",
          "name": "_value",
          "type": "uint256"
        }
      ],
      "name": "transferTokenFrom",
      "outputs": [
        {
          "internalType": "bool",
          "name": "success",
          "type": "bool"
        }
      ],
      "stateMutability": "nonpayable",
      "type": "function"
    },
    {
      "inputs": [
        {
          "internalType": "address",
          "name": "_spender",
          "type": "address"
        },
        {
          "internalType": "uint256",
          "name": "_value",
          "type": "uint256"
        }
      ],
      "name": "approveSpender",
      "outputs": [],
      "stateMutability": "nonpayable",
      "type": "function"
    },
    {
      "inputs": [
        {
          "internalType": "address",
          "name": "_spender",
          "type": "address"
        },
        {
          "internalType": "uint256",
          "name": "_value",
          "type": "uint256"
        },
        {
          "internalType": "bytes",
          "name": "_extraData",
          "type": "bytes"
        }
      ],
      "name": "approveandCall",
      "outputs": [],
      "stateMutability": "nonpayable",
      "type": "function"
    },
    {
      "inputs": [
        {
          "internalType": "uint256",
          "name": "_value",
          "type": "uint256"
        }
      ],
      "name": "burnToken",
      "outputs": [],
      "stateMutability": "nonpayable",
      "type": "function"
    },
    {
      "inputs": [
        {
          "internalType": "address",
          "name": "_from",
          "type": "address"
        },
        {
          "internalType": "uint256",
          "name": "_value",
          "type": "uint256"
        }
      ],
      "name": "burnTokenFrom",
      "outputs": [],
      "stateMutability": "nonpayable",
      "type": "function"
    },
    {
      "inputs": [
        {
          "internalType": "address",
          "name": "_addr",
          "type": "address"
        }
      ],
      "name": "addAdmin",
      "outputs": [
        {
          "internalType": "bool",
          "name": "",
          "type": "bool"
        }
      ],
      "stateMutability": "nonpayable",
      "type": "function"
    },
    {
      "inputs": [
        {
          "internalType": "address",
          "name": "_addr",
          "type": "address"
        },
        {
          "internalType": "uint256",
          "name": "_id",
          "type": "uint256"
        }
      ],
      "name": "checkIsAdmin",
      "outputs": [
        {
          "internalType": "bool",
          "name": "",
          "type": "bool"
        }
      ],
      "stateMutability": "view",
      "type": "function",
      "constant": true
    },
    {
      "inputs": [
        {
          "internalType": "address",
          "name": "_addr",
          "type": "address"
        }
      ],
      "name": "checkIfAdmincanAdd",
      "outputs": [
        {
          "internalType": "bool",
          "name": "",
          "type": "bool"
        }
      ],
      "stateMutability": "view",
      "type": "function",
      "constant": true
    },
    {
      "inputs": [
        {
          "internalType": "address",
          "name": "_addr",
          "type": "address"
        },
        {
          "internalType": "uint256",
          "name": "_id",
          "type": "uint256"
        }
      ],
      "name": "checkStoreOwnerApproved",
      "outputs": [
        {
          "internalType": "bool",
          "name": "",
          "type": "bool"
        },
        {
          "internalType": "bool",
          "name": "",
          "type": "bool"
        }
      ],
      "stateMutability": "view",
      "type": "function",
      "constant": true
    },
    {
      "inputs": [
        {
          "internalType": "address",
          "name": "_addr",
          "type": "address"
        },
        {
          "internalType": "uint256",
          "name": "_id",
          "type": "uint256"
        }
      ],
      "name": "approve_StoreOwner",
      "outputs": [
        {
          "internalType": "bool",
          "name": "successful",
          "type": "bool"
        }
      ],
      "stateMutability": "nonpayable",
      "type": "function"
    },
    {
      "inputs": [
        {
          "internalType": "address",
          "name": "_addr",
          "type": "address"
        },
        {
          "internalType": "bool",
          "name": "_approval",
          "type": "bool"
        },
        {
          "internalType": "uint256",
          "name": "_id",
          "type": "uint256"
        }
      ],
      "name": "changeAdminApproval",
      "outputs": [
        {
          "internalType": "bool",
          "name": "",
          "type": "bool"
        }
      ],
      "stateMutability": "nonpayable",
      "type": "function"
    },
    {
      "inputs": [
        {
          "internalType": "address",
          "name": "_addr",
          "type": "address"
        },
        {
          "internalType": "bool",
          "name": "_approval",
          "type": "bool"
        },
        {
          "internalType": "uint256",
          "name": "_adminId",
          "type": "uint256"
        },
        {
          "internalType": "uint256",
          "name": "_storeOwnerId",
          "type": "uint256"
        }
      ],
      "name": "changeStoreOwnerApproval",
      "outputs": [
        {
          "internalType": "bool",
          "name": "",
          "type": "bool"
        }
      ],
      "stateMutability": "nonpayable",
      "type": "function"
    },
    {
      "inputs": [
        {
          "internalType": "string",
          "name": "_storeName",
          "type": "string"
        },
        {
          "internalType": "uint256",
          "name": "_userId",
          "type": "uint256"
        }
      ],
      "name": "addStorefront",
      "outputs": [
        {
          "internalType": "bool",
          "name": "",
          "type": "bool"
        }
      ],
      "stateMutability": "nonpayable",
      "type": "function"
    },
    {
      "inputs": [
        {
          "internalType": "bytes",
          "name": "_storeRef",
          "type": "bytes"
        },
        {
          "internalType": "uint256",
          "name": "_userId",
          "type": "uint256"
        }
      ],
      "name": "getStoreDetail",
      "outputs": [
        {
          "internalType": "address",
          "name": "",
          "type": "address"
        },
        {
          "internalType": "string",
          "name": "",
          "type": "string"
        },
        {
          "internalType": "uint256",
          "name": "",
          "type": "uint256"
        },
        {
          "internalType": "uint256",
          "name": "",
          "type": "uint256"
        },
        {
          "internalType": "bool",
          "name": "",
          "type": "bool"
        }
      ],
      "stateMutability": "view",
      "type": "function",
      "constant": true
    },
    {
      "inputs": [
        {
          "internalType": "string",
          "name": "_itemName",
          "type": "string"
        },
        {
          "internalType": "string",
          "name": "_description",
          "type": "string"
        },
        {
          "internalType": "uint256",
          "name": "_price",
          "type": "uint256"
        },
        {
          "internalType": "bytes",
          "name": "_storeRef",
          "type": "bytes"
        },
        {
          "internalType": "uint256",
          "name": "_qnty",
          "type": "uint256"
        },
        {
          "internalType": "uint256",
          "name": "_userId",
          "type": "uint256"
        }
      ],
      "name": "addItemToStore",
      "outputs": [
        {
          "internalType": "bool",
          "name": "",
          "type": "bool"
        }
      ],
      "stateMutability": "nonpayable",
      "type": "function"
    },
    {
      "inputs": [
        {
          "internalType": "bytes",
          "name": "_itemRef",
          "type": "bytes"
        },
        {
          "internalType": "uint256",
          "name": "_userId",
          "type": "uint256"
        },
        {
          "internalType": "bytes",
          "name": "_storeRef",
          "type": "bytes"
        },
        {
          "internalType": "uint256",
          "name": "_itemNumber",
          "type": "uint256"
        }
      ],
      "name": "removeAnItem",
      "outputs": [],
      "stateMutability": "nonpayable",
      "type": "function"
    },
    {
      "inputs": [
        {
          "internalType": "uint256",
          "name": "_userId",
          "type": "uint256"
        },
        {
          "internalType": "uint256",
          "name": "_storeNumber",
          "type": "uint256"
        }
      ],
      "name": "removeAStore",
      "outputs": [],
      "stateMutability": "nonpayable",
      "type": "function"
    },
    {
      "inputs": [
        {
          "internalType": "bytes",
          "name": "ref",
          "type": "bytes"
        },
        {
          "internalType": "uint256",
          "name": "_qnty",
          "type": "uint256"
        },
        {
          "internalType": "uint256",
          "name": "_itemNumber",
          "type": "uint256"
        },
        {
          "internalType": "uint256",
          "name": "_offer",
          "type": "uint256"
        }
      ],
      "name": "buyItem",
      "outputs": [
        {
          "internalType": "bool",
          "name": "",
          "type": "bool"
        }
      ],
      "stateMutability": "payable",
      "type": "function",
      "payable": true
    },
    {
      "inputs": [
        {
          "internalType": "address payable",
          "name": "_addr",
          "type": "address"
        },
        {
          "internalType": "uint256",
          "name": "_amount",
          "type": "uint256"
        },
        {
          "internalType": "uint256",
          "name": "_userId",
          "type": "uint256"
        }
      ],
      "name": "withdrawBalanceStoreOwner",
      "outputs": [
        {
          "internalType": "bool",
          "name": "success",
          "type": "bool"
        }
      ],
      "stateMutability": "payable",
      "type": "function",
      "payable": true
    },
    {
      "inputs": [
        {
          "internalType": "address",
          "name": "_addr",
          "type": "address"
        },
        {
          "internalType": "uint8",
          "name": "_id",
          "type": "uint8"
        }
      ],
      "name": "disableAdmin",
      "outputs": [
        {
          "internalType": "bool",
          "name": "success",
          "type": "bool"
        }
      ],
      "stateMutability": "nonpayable",
      "type": "function"
    },
    {
      "inputs": [
        {
          "internalType": "address",
          "name": "_addr",
          "type": "address"
        },
        {
          "internalType": "uint256",
          "name": "_id",
          "type": "uint256"
        },
        {
          "internalType": "uint256",
          "name": "_userId",
          "type": "uint256"
        },
        {
          "internalType": "uint256",
          "name": "_storeNumber",
          "type": "uint256"
        }
      ],
      "name": "unregisterStore",
      "outputs": [
        {
          "internalType": "bool",
          "name": "",
          "type": "bool"
        }
      ],
      "stateMutability": "nonpayable",
      "type": "function"
    },
    {
      "inputs": [
        {
          "internalType": "uint256",
          "name": "_amount",
          "type": "uint256"
        }
      ],
      "name": "withdraw",
      "outputs": [],
      "stateMutability": "payable",
      "type": "function",
      "payable": true
    }
  ],
  "bytecode": "0x60806040526012600260006101000a81548160ff021916908360ff160217905550600060045560006008556000600960006101000a81548160ff021916908360ff1602179055506000600a556000600b556000600c556000600d553480156200006757600080fd5b506207a1206040518060400160405280600a81526020017f676d617274746f6b656e000000000000000000000000000000000000000000008152506040518060400160405280600381526020017f474d540000000000000000000000000000000000000000000000000000000000815250600260009054906101000a900460ff1660ff16600a0a8302600381905550600354600560003373ffffffffffffffffffffffffffffffffffffffff1673ffffffffffffffffffffffffffffffffffffffff16815260200190815260200160002081905550816000908051906020019062000154929190620001b8565b5080600190805190602001906200016d929190620001b8565b5050505033600760006101000a81548173ffffffffffffffffffffffffffffffffffffffff021916908373ffffffffffffffffffffffffffffffffffffffff16021790555062000267565b828054600181600116156101000203166002900490600052602060002090601f016020900481019282601f10620001fb57805160ff19168380011785556200022c565b828001600101855582156200022c579182015b828111156200022b5782518255916020019190600101906200020e565b5b5090506200023b91906200023f565b5090565b6200026491905b808211156200026057600081600090555060010162000246565b5090565b90565b61626280620002776000396000f3fe6080604052600436106103545760003560e01c80638da5cb5b116101c6578063c9a6bbba116100f7578063e62092be11610095578063f08a38d21161006f578063f08a38d214610e48578063f2fde38b14610e85578063f3af35a114610eae578063fba855d014610eeb57610394565b8063e62092be14610da1578063e724529c14610dde578063e81ebefc14610e0757610394565b8063d441a637116100d1578063d441a63714610cad578063dae54aea14610cea578063db9ab0ce14610d27578063dd62ed3e14610d6457610394565b8063c9a6bbba14610c09578063cae9ca5114610c47578063cc3885d514610c8457610394565b8063a9059cbb11610164578063b9ed31d11161013e578063b9ed31d114610b22578063bd20c98d14610b5f578063bf2844b114610b9c578063c2bd9d9514610bcc57610394565b8063a9059cbb14610a7d578063ad22119514610aba578063b75fd88f14610af757610394565b8063927603f7116101a0578063927603f7146109ad57806395d89b41146109ea5780639e38ac1514610a15578063a1b141d414610a5257610394565b80638da5cb5b1461091c5780638efca0dd146109475780638f41dbc41461098457610394565b806342654a65116102a057806371c2fc9e1161023e57806379cc67901161021857806379cc67901461083c5780637b47ec1a146108795780637f460714146108a2578063860838a5146108df57610394565b806371c2fc9e146107ad57806371cb1ece146107d657806379c650681461081357610394565b80634c7d3c2c1161027a5780634c7d3c2c146106c65780636e7c03dd14610703578063704802751461073357806370a082311461077057610394565b806342654a651461060f57806342966c681461064c57806346a3c09e1461068957610394565b806328b92fbb1161030d57806330fda732116102e757806330fda7321461053f578063313ce5671461057c5780633d64125b146105a75780634232dc02146105e457610394565b806328b92fbb146104cf5780632b7832b3146104f85780632e1a7d4d1461052357610394565b806306fdde0314610399578063080d7c4d146103c4578063095ea7b3146103ed57806311db1a221461042a57806318160ddd1461046757806323b872dd1461049257610394565b36610394577fa419615bc8fda4c87663805ee2a3597a6d71c1d476911d9892f340d965bc7bf1333460405161038a929190615a56565b60405180910390a1005b600080fd5b3480156103a557600080fd5b506103ae610f28565b6040516103bb9190615c91565b60405180910390f35b3480156103d057600080fd5b506103eb60048036036103e69190810190614dd2565b610fc6565b005b3480156103f957600080fd5b50610414600480360361040f9190810190614dd2565b61103a565b6040516104219190615bb6565b60405180910390f35b34801561043657600080fd5b50610451600480360361044c9190810190614fec565b61112c565b60405161045e9190615bb6565b60405180910390f35b34801561047357600080fd5b5061047c611162565b6040516104899190615f2a565b60405180910390f35b34801561049e57600080fd5b506104b960048036036104b49190810190614c95565b611168565b6040516104c69190615bb6565b60405180910390f35b3480156104db57600080fd5b506104f660048036036104f1919081019061502d565b611293565b005b34801561050457600080fd5b5061050d6114cf565b60405161051a9190615f2a565b60405180910390f35b61053d60048036036105389190810190615239565b6114d5565b005b34801561054b57600080fd5b5061056660048036036105619190810190614dd2565b6115af565b6040516105739190615bb6565b60405180910390f35b34801561058857600080fd5b50610591611617565b60405161059e9190615f45565b60405180910390f35b3480156105b357600080fd5b506105ce60048036036105c99190810190614ab1565b61162a565b6040516105db9190615f2a565b60405180910390f35b3480156105f057600080fd5b506105f9611642565b6040516106069190615f2a565b60405180910390f35b34801561061b57600080fd5b50610636600480360361063191908101906151e5565b611648565b6040516106439190615bb6565b60405180910390f35b34801561065857600080fd5b50610673600480360361066e9190810190615239565b611930565b6040516106809190615bb6565b60405180910390f35b34801561069557600080fd5b506106b060048036036106ab9190810190614fec565b611a32565b6040516106bd9190615bb6565b60405180910390f35b3480156106d257600080fd5b506106ed60048036036106e89190810190615114565b611a68565b6040516106fa9190615bb6565b60405180910390f35b61071d60048036036107189190810190614f6c565b611d9b565b60405161072a9190615bb6565b60405180910390f35b34801561073f57600080fd5b5061075a60048036036107559190810190614ab1565b612318565b6040516107679190615bb6565b60405180910390f35b34801561077c57600080fd5b5061079760048036036107929190810190614ab1565b61252a565b6040516107a49190615f2a565b60405180910390f35b3480156107b957600080fd5b506107d460048036036107cf9190810190614dd2565b612542565b005b3480156107e257600080fd5b506107fd60048036036107f89190810190614d20565b612551565b60405161080a9190615bb6565b60405180910390f35b34801561081f57600080fd5b5061083a60048036036108359190810190614dd2565b6126e8565b005b34801561084857600080fd5b50610863600480360361085e9190810190614dd2565b6128a4565b6040516108709190615bb6565b60405180910390f35b34801561088557600080fd5b506108a0600480360361089b9190810190615239565b612aba565b005b3480156108ae57600080fd5b506108c960048036036108c49190810190614dd2565b612ac7565b6040516108d69190615bb6565b60405180910390f35b3480156108eb57600080fd5b5061090660048036036109019190810190614ab1565b612d47565b6040516109139190615bb6565b60405180910390f35b34801561092857600080fd5b50610931612d67565b60405161093e9190615972565b60405180910390f35b34801561095357600080fd5b5061096e60048036036109699190810190614ab1565b612d8d565b60405161097b9190615bb6565b60405180910390f35b34801561099057600080fd5b506109ab60048036036109a69190810190615262565b612dad565b005b3480156109b957600080fd5b506109d460048036036109cf9190810190614ed8565b612f94565b6040516109e19190615bb6565b60405180910390f35b3480156109f657600080fd5b506109ff6131b6565b604051610a0c9190615c91565b60405180910390f35b348015610a2157600080fd5b50610a3c6004803603610a379190810190614ab1565b613254565b604051610a499190615bb6565b60405180910390f35b348015610a5e57600080fd5b50610a67613274565b604051610a749190615f2a565b60405180910390f35b348015610a8957600080fd5b50610aa46004803603610a9f9190810190614dd2565b61327a565b604051610ab19190615bb6565b60405180910390f35b348015610ac657600080fd5b50610ae16004803603610adc9190810190614c95565b613291565b604051610aee9190615bb6565b60405180910390f35b348015610b0357600080fd5b50610b0c613358565b604051610b199190615f2a565b60405180910390f35b348015610b2e57600080fd5b50610b496004803603610b449190810190614dd2565b61335e565b604051610b569190615bb6565b60405180910390f35b348015610b6b57600080fd5b50610b866004803603610b819190810190614ab1565b61338d565b604051610b939190615bb6565b60405180910390f35b610bb66004803603610bb19190810190614c0a565b6133e3565b604051610bc39190615bb6565b60405180910390f35b348015610bd857600080fd5b50610bf36004803603610bee9190810190615239565b6136a9565b604051610c009190615bfa565b60405180910390f35b348015610c1557600080fd5b50610c306004803603610c2b9190810190614dd2565b613759565b604051610c3e929190615bd1565b60405180910390f35b348015610c5357600080fd5b50610c6e6004803603610c699190810190614e0e565b613812565b604051610c7b9190615bb6565b60405180910390f35b348015610c9057600080fd5b50610cab6004803603610ca69190810190614e0e565b6138ab565b005b348015610cb957600080fd5b50610cd46004803603610ccf91908101906150c0565b6138bc565b604051610ce19190615bfa565b60405180910390f35b348015610cf657600080fd5b50610d116004803603610d0c9190810190614dd2565b61398f565b604051610d1e9190615bfa565b60405180910390f35b348015610d3357600080fd5b50610d4e6004803603610d499190810190614ab1565b613a4c565b604051610d5b9190615bb6565b60405180910390f35b348015610d7057600080fd5b50610d8b6004803603610d869190810190614c59565b613a6c565b604051610d989190615f2a565b60405180910390f35b348015610dad57600080fd5b50610dc86004803603610dc39190810190614dd2565b613a91565b604051610dd59190615bb6565b60405180910390f35b348015610dea57600080fd5b50610e056004803603610e009190810190614ce4565b613ac0565b005b348015610e1357600080fd5b50610e2e6004803603610e299190810190614f14565b613be4565b604051610e3f959493929190615af4565b60405180910390f35b348015610e5457600080fd5b50610e6f6004803603610e6a9190810190614e75565b613dc4565b604051610e7c9190615bb6565b60405180910390f35b348015610e9157600080fd5b50610eac6004803603610ea79190810190614ab1565b6140dc565b005b348015610eba57600080fd5b50610ed56004803603610ed09190810190614d6f565b6141b0565b604051610ee29190615bb6565b60405180910390f35b348015610ef757600080fd5b50610f126004803603610f0d9190810190614ab1565b6143f1565b604051610f1f9190615f2a565b60405180910390f35b60008054600181600116156101000203166002900480601f016020809104026020016040519081016040528092919081815260200182805460018160011615610100020316600290048015610fbe5780601f10610f9357610100808354040283529160200191610fbe565b820191906000526020600020905b815481529060010190602001808311610fa157829003601f168201915b505050505081565b610fd0828261103a565b508173ffffffffffffffffffffffffffffffffffffffff163373ffffffffffffffffffffffffffffffffffffffff167f8c5be1e5ebec7d5bd14f71427d1e84f3dd0314c0f7b2291e5b200ac8c7c3b9258360405161102e9190615f2a565b60405180910390a35050565b600081600660003373ffffffffffffffffffffffffffffffffffffffff1673ffffffffffffffffffffffffffffffffffffffff16815260200190815260200160002060008573ffffffffffffffffffffffffffffffffffffffff1673ffffffffffffffffffffffffffffffffffffffff168152602001908152602001600020819055508273ffffffffffffffffffffffffffffffffffffffff163373ffffffffffffffffffffffffffffffffffffffff167f8c5be1e5ebec7d5bd14f71427d1e84f3dd0314c0f7b2291e5b200ac8c7c3b9258460405161111a9190615f2a565b60405180910390a36001905092915050565b6017818051602081018201805184825260208301602085012081835280955050505050506000915054906101000a900460ff1681565b60035481565b6000600660008573ffffffffffffffffffffffffffffffffffffffff1673ffffffffffffffffffffffffffffffffffffffff16815260200190815260200160002060003373ffffffffffffffffffffffffffffffffffffffff1673ffffffffffffffffffffffffffffffffffffffff168152602001908152602001600020548211156111f357600080fd5b81600660008673ffffffffffffffffffffffffffffffffffffffff1673ffffffffffffffffffffffffffffffffffffffff16815260200190815260200160002060003373ffffffffffffffffffffffffffffffffffffffff1673ffffffffffffffffffffffffffffffffffffffff16815260200190815260200160002060008282540392505081905550611288848484614409565b600190509392505050565b8260011515601060003373ffffffffffffffffffffffffffffffffffffffff1673ffffffffffffffffffffffffffffffffffffffff168152602001908152602001600020600083815260200190815260200160002060009054906101000a900460ff16151514611338576040517f08c379a000000000000000000000000000000000000000000000000000000000815260040161132f90615eaa565b60405180910390fd5b60011515601160003373ffffffffffffffffffffffffffffffffffffffff1673ffffffffffffffffffffffffffffffffffffffff16815260200190815260200160002060009054906101000a900460ff161515146113cb576040517f08c379a00000000000000000000000000000000000000000000000000000000081526004016113c290615e8a565b60405180910390fd5b84600115156017826040516113e0919061595b565b908152602001604051809103902060009054906101000a900460ff1615151461143e576040517f08c379a000000000000000000000000000000000000000000000000000000000815260040161143590615eea565b60405180910390fd5b60138460405161144e919061595b565b908152602001604051809103902060008481526020019081526020016000206000611479919061472e565b3373ffffffffffffffffffffffffffffffffffffffff167f558e4ae33dfca7324493271fabf356b0364808ca1cea5ef153f072321860dbfd876040516114bf9190615c1c565b60405180910390a2505050505050565b600b5481565b600760009054906101000a900473ffffffffffffffffffffffffffffffffffffffff1673ffffffffffffffffffffffffffffffffffffffff163373ffffffffffffffffffffffffffffffffffffffff1614611565576040517f08c379a000000000000000000000000000000000000000000000000000000000815260040161155c90615d6a565b60405180910390fd5b3373ffffffffffffffffffffffffffffffffffffffff166108fc829081150290604051600060405180830381858888f193505050501580156115ab573d6000803e3d6000fd5b5050565b6000600e60008473ffffffffffffffffffffffffffffffffffffffff1673ffffffffffffffffffffffffffffffffffffffff168152602001908152602001600020600083815260200190815260200160002060009054906101000a900460ff16905092915050565b600260009054906101000a900460ff1681565b60186020528060005260406000206000915090505481565b60045481565b60008160011515601060003373ffffffffffffffffffffffffffffffffffffffff1673ffffffffffffffffffffffffffffffffffffffff168152602001908152602001600020600083815260200190815260200160002060009054906101000a900460ff161515146116ef576040517f08c379a00000000000000000000000000000000000000000000000000000000081526004016116e690615eaa565b60405180910390fd5b60011515601160003373ffffffffffffffffffffffffffffffffffffffff1673ffffffffffffffffffffffffffffffffffffffff16815260200190815260200160002060009054906101000a900460ff16151514611782576040517f08c379a000000000000000000000000000000000000000000000000000000000815260040161177990615e8a565b60405180910390fd5b60006001600d60008282540192505081905590506000429050600060019050606033888585856040516020016117bc95949392919061598d565b6040516020818303038152906040529050600015156014826040516117e1919061595b565b908152602001604051809103902060009054906101000a900460ff1615151461183f576040517f08c379a000000000000000000000000000000000000000000000000000000000815260040161183690615f0a565b60405180910390fd5b80601260003373ffffffffffffffffffffffffffffffffffffffff1673ffffffffffffffffffffffffffffffffffffffff168152602001908152602001600020600086815260200190815260200160002090805190602001906118a3929190614776565b50600115156014826040516118b8919061595b565b908152602001604051809103902060009054906101000a905050503373ffffffffffffffffffffffffffffffffffffffff167fd8988102e4898200b74bb34a3a544514e31d02d3d939f0db3d0daac99e7e827f826040516119199190615c1c565b60405180910390a260019550505050505092915050565b600081600560003373ffffffffffffffffffffffffffffffffffffffff1673ffffffffffffffffffffffffffffffffffffffff16815260200190815260200160002054101561197e57600080fd5b81600560003373ffffffffffffffffffffffffffffffffffffffff1673ffffffffffffffffffffffffffffffffffffffff16815260200190815260200160002060008282540392505081905550816003600082825403925050819055503373ffffffffffffffffffffffffffffffffffffffff167fcc16f5dbb4873280815c1ee09dbd06736cffcc184412cf7a71a0fdb75d397ca583604051611a219190615f2a565b60405180910390a260019050919050565b6014818051602081018201805184825260208301602085012081835280955050505050506000915054906101000a900460ff1681565b60008160011515601060003373ffffffffffffffffffffffffffffffffffffffff1673ffffffffffffffffffffffffffffffffffffffff168152602001908152602001600020600083815260200190815260200160002060009054906101000a900460ff16151514611b0f576040517f08c379a0000000000000000000000000000000000000000000000000000000008152600401611b0690615eaa565b60405180910390fd5b60011515601160003373ffffffffffffffffffffffffffffffffffffffff1673ffffffffffffffffffffffffffffffffffffffff16815260200190815260200160002060009054906101000a900460ff16151514611ba2576040517f08c379a0000000000000000000000000000000000000000000000000000000008152600401611b9990615e8a565b60405180910390fd5b60008611611be5576040517f08c379a0000000000000000000000000000000000000000000000000000000008152600401611bdc90615e4a565b60405180910390fd5b606088905060008790506000869050600060016004600082825401925050819055905060608b90506060338686868686604051602001611c2a969594939291906159e7565b60405160208183030381529060405290508060138c604051611c4c919061595b565b908152602001604051809103902060008581526020019081526020016000209080519060200190611c7e929190614776565b506001601660003373ffffffffffffffffffffffffffffffffffffffff1673ffffffffffffffffffffffffffffffffffffffff16815260200190815260200160002060006101000a81548160ff0219169083151502179055506001601782604051611ce9919061595b565b908152602001604051809103902060006101000a81548160ff02191690831515021790555080601560008581526020019081526020016000209080519060200190611d35929190614776565b503373ffffffffffffffffffffffffffffffffffffffff167f772cc3a8e77f72eb5acf7b3a43da99bf21604939d49108bdd445da7c9c137a218f83604051611d7e929190615cb3565b60405180910390a260019750505050505050509695505050505050565b600085858080601f016020809104026020016040519081016040528093929190818152602001838380828437600081840152601f19601f8201169050808301925050505050505060011515601782604051611df6919061595b565b908152602001604051809103902060009054906101000a900460ff16151514611e54576040517f08c379a0000000000000000000000000000000000000000000000000000000008152600401611e4b90615eea565b60405180910390fd5b6060601560008681526020019081526020016000208054600181600116156101000203166002900480601f016020809104026020016040519081016040528092919081815260200182805460018160011615610100020316600290048015611efd5780601f10611ed257610100808354040283529160200191611efd565b820191906000526020600020905b815481529060010190602001808311611ee057829003601f168201915b505050505090506000606060008060008086806020019051611f229190810190614b69565b95509550955095509550955060008c11611f71576040517f08c379a0000000000000000000000000000000000000000000000000000000008152600401611f6890615e2a565b60405180910390fd5b60008a8d0290508a8d8281611f8257fe5b0414611fc3576040517f08c379a0000000000000000000000000000000000000000000000000000000008152600401611fba90615eca565b60405180910390fd5b80600560003373ffffffffffffffffffffffffffffffffffffffff1673ffffffffffffffffffffffffffffffffffffffff168152602001908152602001600020541015612045576040517f08c379a000000000000000000000000000000000000000000000000000000000815260040161203c90615dca565b60405180910390fd5b838d1115612088576040517f08c379a000000000000000000000000000000000000000000000000000000000815260040161207f90615e6a565b60405180910390fd5b808b10156120cb576040517f08c379a00000000000000000000000000000000000000000000000000000000081526004016120c290615cea565b60405180910390fd5b80600560003373ffffffffffffffffffffffffffffffffffffffff1673ffffffffffffffffffffffffffffffffffffffff1681526020019081526020016000206000828254039250508190555080600560008973ffffffffffffffffffffffffffffffffffffffff1673ffffffffffffffffffffffffffffffffffffffff168152602001908152602001600020600082825401925050819055506000601660008973ffffffffffffffffffffffffffffffffffffffff1673ffffffffffffffffffffffffffffffffffffffff16815260200190815260200160002060006101000a81548160ff0219169083151502179055506001601660003373ffffffffffffffffffffffffffffffffffffffff1673ffffffffffffffffffffffffffffffffffffffff16815260200190815260200160002060006101000a81548160ff0219169083151502179055508c84039350600084141561225357601560008d81526020019081526020016000206000612242919061472e565b60019950505050505050505061230e565b60008411156122ae5786868686868660405160200161227796959493929190615b4e565b604051602081830303815290604052601560008e815260200190815260200160002090805190602001906122ac929190614776565b505b6001600a600082825401925050819055601960003373ffffffffffffffffffffffffffffffffffffffff1673ffffffffffffffffffffffffffffffffffffffff168152602001908152602001600020819055506001995050505050505050505b5095945050505050565b6000600760009054906101000a900473ffffffffffffffffffffffffffffffffffffffff1673ffffffffffffffffffffffffffffffffffffffff163373ffffffffffffffffffffffffffffffffffffffff16146123aa576040517f08c379a00000000000000000000000000000000000000000000000000000000081526004016123a190615d6a565b60405180910390fd5b6003600b5411156123f0576040517f08c379a00000000000000000000000000000000000000000000000000000000081526004016123e790615d0a565b60405180910390fd5b600073ffffffffffffffffffffffffffffffffffffffff168273ffffffffffffffffffffffffffffffffffffffff161415612460576040517f08c379a000000000000000000000000000000000000000000000000000000000815260040161245790615d4a565b60405180910390fd5b60006001600b60008282540192505081905590506001600e60008573ffffffffffffffffffffffffffffffffffffffff1673ffffffffffffffffffffffffffffffffffffffff168152602001908152602001600020600083815260200190815260200160002060006101000a81548160ff0219169083151502179055508273ffffffffffffffffffffffffffffffffffffffff167f71614071b88dee5e0b2ae578a9dd7b2ebbe9ae832ba419dc0242cd065a290b6c60405160405180910390a26001915050919050565b60056020528060005260406000206000915090505481565b61254c82826128a4565b505050565b6000600760009054906101000a900473ffffffffffffffffffffffffffffffffffffffff1673ffffffffffffffffffffffffffffffffffffffff163373ffffffffffffffffffffffffffffffffffffffff16146125e3576040517f08c379a00000000000000000000000000000000000000000000000000000000081526004016125da90615d6a565b60405180910390fd5b60011515600e60008673ffffffffffffffffffffffffffffffffffffffff1673ffffffffffffffffffffffffffffffffffffffff168152602001908152602001600020600084815260200190815260200160002060009054906101000a900460ff16151514612687576040517f08c379a000000000000000000000000000000000000000000000000000000000815260040161267e90615daa565b60405180910390fd5b82600f60008673ffffffffffffffffffffffffffffffffffffffff1673ffffffffffffffffffffffffffffffffffffffff16815260200190815260200160002060006101000a81548160ff0219169083151502179055508290509392505050565b600760009054906101000a900473ffffffffffffffffffffffffffffffffffffffff1673ffffffffffffffffffffffffffffffffffffffff163373ffffffffffffffffffffffffffffffffffffffff1614612778576040517f08c379a000000000000000000000000000000000000000000000000000000000815260040161276f90615d6a565b60405180910390fd5b80600560008473ffffffffffffffffffffffffffffffffffffffff1673ffffffffffffffffffffffffffffffffffffffff16815260200190815260200160002060008282540192505081905550806003600082825401925050819055503073ffffffffffffffffffffffffffffffffffffffff16600073ffffffffffffffffffffffffffffffffffffffff167fddf252ad1be2c89b69c2b068fc378daa952ba7f163c4a11628f55a4df523b3ef836040516128339190615f2a565b60405180910390a38173ffffffffffffffffffffffffffffffffffffffff163073ffffffffffffffffffffffffffffffffffffffff167fddf252ad1be2c89b69c2b068fc378daa952ba7f163c4a11628f55a4df523b3ef836040516128989190615f2a565b60405180910390a35050565b600081600560008573ffffffffffffffffffffffffffffffffffffffff1673ffffffffffffffffffffffffffffffffffffffff1681526020019081526020016000205410156128f257600080fd5b600660008473ffffffffffffffffffffffffffffffffffffffff1673ffffffffffffffffffffffffffffffffffffffff16815260200190815260200160002060003373ffffffffffffffffffffffffffffffffffffffff1673ffffffffffffffffffffffffffffffffffffffff1681526020019081526020016000205482111561297b57600080fd5b81600560008573ffffffffffffffffffffffffffffffffffffffff1673ffffffffffffffffffffffffffffffffffffffff1681526020019081526020016000206000828254039250508190555081600660008573ffffffffffffffffffffffffffffffffffffffff1673ffffffffffffffffffffffffffffffffffffffff16815260200190815260200160002060003373ffffffffffffffffffffffffffffffffffffffff1673ffffffffffffffffffffffffffffffffffffffff16815260200190815260200160002060008282540392505081905550816003600082825403925050819055508273ffffffffffffffffffffffffffffffffffffffff167fcc16f5dbb4873280815c1ee09dbd06736cffcc184412cf7a71a0fdb75d397ca583604051612aa89190615f2a565b60405180910390a26001905092915050565b612ac381611930565b5050565b60008160011515600e60003373ffffffffffffffffffffffffffffffffffffffff1673ffffffffffffffffffffffffffffffffffffffff168152602001908152602001600020600083815260200190815260200160002060009054906101000a900460ff16151514612b6e576040517f08c379a0000000000000000000000000000000000000000000000000000000008152600401612b6590615d2a565b60405180910390fd5b60011515600f60003373ffffffffffffffffffffffffffffffffffffffff1673ffffffffffffffffffffffffffffffffffffffff16815260200190815260200160002060009054906101000a900460ff16151514612c01576040517f08c379a0000000000000000000000000000000000000000000000000000000008152600401612bf890615e0a565b60405180910390fd5b600073ffffffffffffffffffffffffffffffffffffffff168473ffffffffffffffffffffffffffffffffffffffff161415612c71576040517f08c379a0000000000000000000000000000000000000000000000000000000008152600401612c6890615d4a565b60405180910390fd5b60006001600c60008282540192505081905590506001601060008773ffffffffffffffffffffffffffffffffffffffff1673ffffffffffffffffffffffffffffffffffffffff168152602001908152602001600020600086815260200190815260200160002060006101000a81548160ff0219169083151502179055508473ffffffffffffffffffffffffffffffffffffffff167f7a8a0bce5482e96787ebd6c2b39c8a3ba934bd7418f05e073fb7102f7a71af5a82604051612d349190615f2a565b60405180910390a2829250505092915050565b601a6020528060005260406000206000915054906101000a900460ff1681565b600760009054906101000a900473ffffffffffffffffffffffffffffffffffffffff1681565b600f6020528060005260406000206000915054906101000a900460ff1681565b8160011515601060003373ffffffffffffffffffffffffffffffffffffffff1673ffffffffffffffffffffffffffffffffffffffff168152602001908152602001600020600083815260200190815260200160002060009054906101000a900460ff16151514612e52576040517f08c379a0000000000000000000000000000000000000000000000000000000008152600401612e4990615eaa565b60405180910390fd5b60011515601160003373ffffffffffffffffffffffffffffffffffffffff1673ffffffffffffffffffffffffffffffffffffffff16815260200190815260200160002060009054906101000a900460ff16151514612ee5576040517f08c379a0000000000000000000000000000000000000000000000000000000008152600401612edc90615e8a565b60405180910390fd5b601260003373ffffffffffffffffffffffffffffffffffffffff1673ffffffffffffffffffffffffffffffffffffffff16815260200190815260200160002060008381526020019081526020016000206000612f41919061472e565b3373ffffffffffffffffffffffffffffffffffffffff167ff0d9d157410ce0dd627a64caaef943950c3e149d9ac393179729ec71c342026d83604051612f879190615f2a565b60405180910390a2505050565b6000600760009054906101000a900473ffffffffffffffffffffffffffffffffffffffff1673ffffffffffffffffffffffffffffffffffffffff163373ffffffffffffffffffffffffffffffffffffffff1614613026576040517f08c379a000000000000000000000000000000000000000000000000000000000815260040161301d90615d6a565b60405180910390fd5b60011515600e60008573ffffffffffffffffffffffffffffffffffffffff1673ffffffffffffffffffffffffffffffffffffffff16815260200190815260200160002060008460ff16815260200190815260200160002060009054906101000a900460ff161515146130cd576040517f08c379a00000000000000000000000000000000000000000000000000000000081526004016130c490615dea565b60405180910390fd5b6000600e60008573ffffffffffffffffffffffffffffffffffffffff1673ffffffffffffffffffffffffffffffffffffffff16815260200190815260200160002060008460ff16815260200190815260200160002060006101000a81548160ff02191690831515021790555060001515600e60008573ffffffffffffffffffffffffffffffffffffffff1673ffffffffffffffffffffffffffffffffffffffff16815260200190815260200160002060008460ff16815260200190815260200160002060009054906101000a900460ff16151514156131af57600190506131b0565b5b92915050565b60018054600181600116156101000203166002900480601f01602080910402602001604051908101604052809291908181526020018280546001816001161561010002031660029004801561324c5780601f106132215761010080835404028352916020019161324c565b820191906000526020600020905b81548152906001019060200180831161322f57829003601f168201915b505050505081565b60166020528060005260406000206000915054906101000a900460ff1681565b600d5481565b6000613287338484614409565b6001905092915050565b6000601a60008573ffffffffffffffffffffffffffffffffffffffff1673ffffffffffffffffffffffffffffffffffffffff16815260200190815260200160002060009054906101000a900460ff16156132ea57600080fd5b601a60008473ffffffffffffffffffffffffffffffffffffffff1673ffffffffffffffffffffffffffffffffffffffff16815260200190815260200160002060009054906101000a900460ff161561334157600080fd5b61334c848484611168565b50600190509392505050565b600c5481565b60106020528160005260406000206020528060005260406000206000915091509054906101000a900460ff1681565b6000600f60008373ffffffffffffffffffffffffffffffffffffffff1673ffffffffffffffffffffffffffffffffffffffff16815260200190815260200160002060009054906101000a900460ff169050919050565b60008160011515601060003373ffffffffffffffffffffffffffffffffffffffff1673ffffffffffffffffffffffffffffffffffffffff168152602001908152602001600020600083815260200190815260200160002060009054906101000a900460ff1615151461348a576040517f08c379a000000000000000000000000000000000000000000000000000000000815260040161348190615eaa565b60405180910390fd5b60011515601160003373ffffffffffffffffffffffffffffffffffffffff1673ffffffffffffffffffffffffffffffffffffffff16815260200190815260200160002060009054906101000a900460ff1615151461351d576040517f08c379a000000000000000000000000000000000000000000000000000000000815260040161351490615e8a565b60405180910390fd5b83600560003373ffffffffffffffffffffffffffffffffffffffff1673ffffffffffffffffffffffffffffffffffffffff16815260200190815260200160002054101561359f576040517f08c379a000000000000000000000000000000000000000000000000000000000815260040161359690615dca565b60405180910390fd5b83600560003373ffffffffffffffffffffffffffffffffffffffff1673ffffffffffffffffffffffffffffffffffffffff1681526020019081526020016000206000828254039250508190555083600560008773ffffffffffffffffffffffffffffffffffffffff1673ffffffffffffffffffffffffffffffffffffffff168152602001908152602001600020600082825401925050819055508473ffffffffffffffffffffffffffffffffffffffff163373ffffffffffffffffffffffffffffffffffffffff167f2717ead6b9200dd235aad468c9809ea400fe33ac69b5bfaa6d3e90fc922b6398866040516136969190615f2a565b60405180910390a3819150509392505050565b60156020528060005260406000206000915090508054600181600116156101000203166002900480601f0160208091040260200160405190810160405280929190818152602001828054600181600116156101000203166002900480156137515780601f1061372657610100808354040283529160200191613751565b820191906000526020600020905b81548152906001019060200180831161373457829003601f168201915b505050505081565b600080601060008573ffffffffffffffffffffffffffffffffffffffff1673ffffffffffffffffffffffffffffffffffffffff168152602001908152602001600020600084815260200190815260200160002060009054906101000a900460ff16601160008673ffffffffffffffffffffffffffffffffffffffff1673ffffffffffffffffffffffffffffffffffffffff16815260200190815260200160002060009054906101000a900460ff16915091509250929050565b600080849050613822858561103a565b156138a2578073ffffffffffffffffffffffffffffffffffffffff16638f4ffcb1338630876040518563ffffffff1660e01b81526004016138669493929190615a7f565b600060405180830381600087803b15801561388057600080fd5b505af1158015613894573d6000803e3d6000fd5b5050505060019150506138a4565b505b9392505050565b6138b6838383613812565b50505050565b601382805160208101820180518482526020830160208501208183528095505050505050602052806000526040600020600091509150508054600181600116156101000203166002900480601f0160208091040260200160405190810160405280929190818152602001828054600181600116156101000203166002900480156139875780601f1061395c57610100808354040283529160200191613987565b820191906000526020600020905b81548152906001019060200180831161396a57829003601f168201915b505050505081565b6012602052816000526040600020602052806000526040600020600091509150508054600181600116156101000203166002900480601f016020809104026020016040519081016040528092919081815260200182805460018160011615610100020316600290048015613a445780601f10613a1957610100808354040283529160200191613a44565b820191906000526020600020905b815481529060010190602001808311613a2757829003601f168201915b505050505081565b60116020528060005260406000206000915054906101000a900460ff1681565b6006602052816000526040600020602052806000526040600020600091509150505481565b600e6020528160005260406000206020528060005260406000206000915091509054906101000a900460ff1681565b600760009054906101000a900473ffffffffffffffffffffffffffffffffffffffff1673ffffffffffffffffffffffffffffffffffffffff163373ffffffffffffffffffffffffffffffffffffffff1614613b50576040517f08c379a0000000000000000000000000000000000000000000000000000000008152600401613b4790615d6a565b60405180910390fd5b80601a60008473ffffffffffffffffffffffffffffffffffffffff1673ffffffffffffffffffffffffffffffffffffffff16815260200190815260200160002060006101000a81548160ff0219169083151502179055507f48335238b4855f35377ed80f164e8c6f3c366e54ac00b96a6402d4a9814a03a58282604051613bd8929190615acb565b60405180910390a15050565b6000606060008060008560011515601060003373ffffffffffffffffffffffffffffffffffffffff1673ffffffffffffffffffffffffffffffffffffffff168152602001908152602001600020600083815260200190815260200160002060009054906101000a900460ff16151514613c92576040517f08c379a0000000000000000000000000000000000000000000000000000000008152600401613c8990615eaa565b60405180910390fd5b60011515601160003373ffffffffffffffffffffffffffffffffffffffff1673ffffffffffffffffffffffffffffffffffffffff16815260200190815260200160002060009054906101000a900460ff16151514613d25576040517f08c379a0000000000000000000000000000000000000000000000000000000008152600401613d1c90615e8a565b60405180910390fd5b6001151560148a8a604051613d3b929190615942565b908152602001604051809103902060009054906101000a900460ff16151514613d99576040517f08c379a0000000000000000000000000000000000000000000000000000000008152600401613d9090615d8a565b60405180910390fd5b8888613da89190810190614ada565b8494508393509550955095509550955050939792965093509350565b60008360011515600e60003373ffffffffffffffffffffffffffffffffffffffff1673ffffffffffffffffffffffffffffffffffffffff168152602001908152602001600020600083815260200190815260200160002060009054906101000a900460ff16151514613e6b576040517f08c379a0000000000000000000000000000000000000000000000000000000008152600401613e6290615d2a565b60405180910390fd5b60011515600f60003373ffffffffffffffffffffffffffffffffffffffff1673ffffffffffffffffffffffffffffffffffffffff16815260200190815260200160002060009054906101000a900460ff16151514613efe576040517f08c379a0000000000000000000000000000000000000000000000000000000008152600401613ef590615e0a565b60405180910390fd5b60011515601060008873ffffffffffffffffffffffffffffffffffffffff1673ffffffffffffffffffffffffffffffffffffffff168152602001908152602001600020600086815260200190815260200160002060009054906101000a900460ff16151514613fa2576040517f08c379a0000000000000000000000000000000000000000000000000000000008152600401613f9990615eaa565b60405180910390fd5b6000806000806000604051602001613fbe959493929190615c3e565b604051602081830303815290604052601260008873ffffffffffffffffffffffffffffffffffffffff1673ffffffffffffffffffffffffffffffffffffffff16815260200190815260200160002060008581526020019081526020016000209080519060200190614030929190614776565b5060001515601160008873ffffffffffffffffffffffffffffffffffffffff1673ffffffffffffffffffffffffffffffffffffffff16815260200190815260200160002060009054906101000a905050508573ffffffffffffffffffffffffffffffffffffffff167fff171ea27985d4229a811de7ef2f1ed40c3edf34b09e008db519cdc0feb5d2b0846040516140c79190615f2a565b60405180910390a26001915050949350505050565b600760009054906101000a900473ffffffffffffffffffffffffffffffffffffffff1673ffffffffffffffffffffffffffffffffffffffff163373ffffffffffffffffffffffffffffffffffffffff161461416c576040517f08c379a000000000000000000000000000000000000000000000000000000000815260040161416390615d6a565b60405180910390fd5b80600760006101000a81548173ffffffffffffffffffffffffffffffffffffffff021916908373ffffffffffffffffffffffffffffffffffffffff16021790555050565b60008260011515600e60003373ffffffffffffffffffffffffffffffffffffffff1673ffffffffffffffffffffffffffffffffffffffff168152602001908152602001600020600083815260200190815260200160002060009054906101000a900460ff16151514614257576040517f08c379a000000000000000000000000000000000000000000000000000000000815260040161424e90615d2a565b60405180910390fd5b60011515600f60003373ffffffffffffffffffffffffffffffffffffffff1673ffffffffffffffffffffffffffffffffffffffff16815260200190815260200160002060009054906101000a900460ff161515146142ea576040517f08c379a00000000000000000000000000000000000000000000000000000000081526004016142e190615e0a565b60405180910390fd5b60011515601060008873ffffffffffffffffffffffffffffffffffffffff1673ffffffffffffffffffffffffffffffffffffffff168152602001908152602001600020600085815260200190815260200160002060009054906101000a900460ff1615151461438e576040517f08c379a000000000000000000000000000000000000000000000000000000000815260040161438590615daa565b60405180910390fd5b84601160008873ffffffffffffffffffffffffffffffffffffffff1673ffffffffffffffffffffffffffffffffffffffff16815260200190815260200160002060006101000a81548160ff02191690831515021790555084915050949350505050565b60196020528060005260406000206000915090505481565b600073ffffffffffffffffffffffffffffffffffffffff168273ffffffffffffffffffffffffffffffffffffffff16141561444357600080fd5b80600560008573ffffffffffffffffffffffffffffffffffffffff1673ffffffffffffffffffffffffffffffffffffffff16815260200190815260200160002054101561448f57600080fd5b600560008373ffffffffffffffffffffffffffffffffffffffff1673ffffffffffffffffffffffffffffffffffffffff1681526020019081526020016000205481600560008573ffffffffffffffffffffffffffffffffffffffff1673ffffffffffffffffffffffffffffffffffffffff16815260200190815260200160002054011161451b57600080fd5b6000600560008473ffffffffffffffffffffffffffffffffffffffff1673ffffffffffffffffffffffffffffffffffffffff16815260200190815260200160002054600560008673ffffffffffffffffffffffffffffffffffffffff1673ffffffffffffffffffffffffffffffffffffffff1681526020019081526020016000205401905081600560008673ffffffffffffffffffffffffffffffffffffffff1673ffffffffffffffffffffffffffffffffffffffff1681526020019081526020016000206000828254039250508190555081600560008573ffffffffffffffffffffffffffffffffffffffff1673ffffffffffffffffffffffffffffffffffffffff168152602001908152602001600020600082825401925050819055508273ffffffffffffffffffffffffffffffffffffffff168473ffffffffffffffffffffffffffffffffffffffff167fddf252ad1be2c89b69c2b068fc378daa952ba7f163c4a11628f55a4df523b3ef846040516146979190615f2a565b60405180910390a380600560008573ffffffffffffffffffffffffffffffffffffffff1673ffffffffffffffffffffffffffffffffffffffff16815260200190815260200160002054600560008773ffffffffffffffffffffffffffffffffffffffff1673ffffffffffffffffffffffffffffffffffffffff16815260200190815260200160002054011461472857fe5b50505050565b50805460018160011615610100020316600290046000825580601f106147545750614773565b601f01602090049060005260206000209081019061477291906147f6565b5b50565b828054600181600116156101000203166002900490600052602060002090601f016020900481019282601f106147b757805160ff19168380011785556147e5565b828001600101855582156147e5579182015b828111156147e45782518255916020019190600101906147c9565b5b5090506147f291906147f6565b5090565b61481891905b808211156148145760008160009055506001016147fc565b5090565b90565b60008135905061482a816161a2565b92915050565b60008135905061483f816161b9565b92915050565b600081519050614854816161b9565b92915050565b600081359050614869816161d0565b92915050565b60008151905061487e816161e7565b92915050565b60008083601f84011261489657600080fd5b8235905067ffffffffffffffff8111156148af57600080fd5b6020830191508360018202830111156148c757600080fd5b9250929050565b600082601f8301126148df57600080fd5b81356148f26148ed82615f8d565b615f60565b9150808252602083016020830185838301111561490e57600080fd5b61491983828461614f565b50505092915050565b600082601f83011261493357600080fd5b813561494661494182615fb9565b615f60565b9150808252602083016020830185838301111561496257600080fd5b61496d83828461614f565b50505092915050565b600082601f83011261498757600080fd5b813561499a61499582615fe5565b615f60565b915080825260208301602083018583830111156149b657600080fd5b6149c183828461614f565b50505092915050565b600082601f8301126149db57600080fd5b81516149ee6149e982615fe5565b615f60565b91508082526020830160208301858383011115614a0a57600080fd5b614a1583828461615e565b50505092915050565b600082601f830112614a2f57600080fd5b8135614a42614a3d82616011565b615f60565b91508082526020830160208301858383011115614a5e57600080fd5b614a6983828461614f565b50505092915050565b600081359050614a81816161fe565b92915050565b600081519050614a96816161fe565b92915050565b600081359050614aab81616215565b92915050565b600060208284031215614ac357600080fd5b6000614ad18482850161481b565b91505092915050565b600080600080600060a08688031215614af257600080fd5b6000614b0088828901614830565b955050602086013567ffffffffffffffff811115614b1d57600080fd5b614b2988828901614976565b9450506040614b3a88828901614a72565b9350506060614b4b88828901614a72565b9250506080614b5c8882890161485a565b9150509295509295909350565b60008060008060008060c08789031215614b8257600080fd5b6000614b9089828a01614845565b965050602087015167ffffffffffffffff811115614bad57600080fd5b614bb989828a016149ca565b9550506040614bca89828a01614a87565b9450506060614bdb89828a01614a87565b9350506080614bec89828a01614a87565b92505060a0614bfd89828a0161486f565b9150509295509295509295565b600080600060608486031215614c1f57600080fd5b6000614c2d86828701614830565b9350506020614c3e86828701614a72565b9250506040614c4f86828701614a72565b9150509250925092565b60008060408385031215614c6c57600080fd5b6000614c7a8582860161481b565b9250506020614c8b8582860161481b565b9150509250929050565b600080600060608486031215614caa57600080fd5b6000614cb88682870161481b565b9350506020614cc98682870161481b565b9250506040614cda86828701614a72565b9150509250925092565b60008060408385031215614cf757600080fd5b6000614d058582860161481b565b9250506020614d168582860161485a565b9150509250929050565b600080600060608486031215614d3557600080fd5b6000614d438682870161481b565b9350506020614d548682870161485a565b9250506040614d6586828701614a72565b9150509250925092565b60008060008060808587031215614d8557600080fd5b6000614d938782880161481b565b9450506020614da48782880161485a565b9350506040614db587828801614a72565b9250506060614dc687828801614a72565b91505092959194509250565b60008060408385031215614de557600080fd5b6000614df38582860161481b565b9250506020614e0485828601614a72565b9150509250929050565b600080600060608486031215614e2357600080fd5b6000614e318682870161481b565b9350506020614e4286828701614a72565b925050604084013567ffffffffffffffff811115614e5f57600080fd5b614e6b86828701614922565b9150509250925092565b60008060008060808587031215614e8b57600080fd5b6000614e998782880161481b565b9450506020614eaa87828801614a72565b9350506040614ebb87828801614a72565b9250506060614ecc87828801614a72565b91505092959194509250565b60008060408385031215614eeb57600080fd5b6000614ef98582860161481b565b9250506020614f0a85828601614a9c565b9150509250929050565b600080600060408486031215614f2957600080fd5b600084013567ffffffffffffffff811115614f4357600080fd5b614f4f86828701614884565b93509350506020614f6286828701614a72565b9150509250925092565b600080600080600060808688031215614f8457600080fd5b600086013567ffffffffffffffff811115614f9e57600080fd5b614faa88828901614884565b95509550506020614fbd88828901614a72565b9350506040614fce88828901614a72565b9250506060614fdf88828901614a72565b9150509295509295909350565b600060208284031215614ffe57600080fd5b600082013567ffffffffffffffff81111561501857600080fd5b615024848285016148ce565b91505092915050565b6000806000806080858703121561504357600080fd5b600085013567ffffffffffffffff81111561505d57600080fd5b61506987828801614922565b945050602061507a87828801614a72565b935050604085013567ffffffffffffffff81111561509757600080fd5b6150a387828801614922565b92505060606150b487828801614a72565b91505092959194509250565b600080604083850312156150d357600080fd5b600083013567ffffffffffffffff8111156150ed57600080fd5b6150f9858286016148ce565b925050602061510a85828601614a72565b9150509250929050565b60008060008060008060c0878903121561512d57600080fd5b600087013567ffffffffffffffff81111561514757600080fd5b61515389828a01614a1e565b965050602087013567ffffffffffffffff81111561517057600080fd5b61517c89828a01614a1e565b955050604061518d89828a01614a72565b945050606087013567ffffffffffffffff8111156151aa57600080fd5b6151b689828a01614922565b93505060806151c789828a01614a72565b92505060a06151d889828a01614a72565b9150509295509295509295565b600080604083850312156151f857600080fd5b600083013567ffffffffffffffff81111561521257600080fd5b61521e85828601614a1e565b925050602061522f85828601614a72565b9150509250929050565b60006020828403121561524b57600080fd5b600061525984828501614a72565b91505092915050565b6000806040838503121561527557600080fd5b600061528385828601614a72565b925050602061529485828601614a72565b9150509250929050565b6152a781616107565b82525050565b6152b6816160a8565b82525050565b6152c581616096565b82525050565b6152d4816160ba565b82525050565b6152e3816160c6565b82525050565b60006152f5838561607a565b935061530283858461614f565b82840190509392505050565b600061531982616048565b6153238185616069565b935061533381856020860161615e565b61533c81616191565b840191505092915050565b600061535282616048565b61535c818561607a565b935061536c81856020860161615e565b80840191505092915050565b60006153838261603d565b61538d8185616069565b935061539d81856020860161615e565b6153a681616191565b840191505092915050565b6153ba81616119565b82525050565b60006153cb8261605e565b6153d58185616085565b93506153e581856020860161615e565b6153ee81616191565b840191505092915050565b600061540482616053565b61540e8185616085565b935061541e81856020860161615e565b61542781616191565b840191505092915050565b600061543f602683616085565b91507f416d6f756e742063616e6e6f74206265206c657373207468616e20746f74616c60008301527f20707269636500000000000000000000000000000000000000000000000000006020830152604082019050919050565b60006154a5601983616085565b91507f4d61782061646d696e2072656163686564202d2d3e205b335d000000000000006000830152602082019050919050565b60006154e5601683616085565b91507f4e6f7420417574686f72697a65642061646472657373000000000000000000006000830152602082019050919050565b6000615525600f83616085565b91507f496e76616c6964206164647265737300000000000000000000000000000000006000830152602082019050919050565b6000615565601c83616085565b91507f52657175657374206661696c65643b204e6f7420616e206f776e6572000000006000830152602082019050919050565b60006155a5601483616085565b91507f53746f726520646f6573206e6f742065786973740000000000000000000000006000830152602082019050919050565b60006155e5601183616085565b91507f4e6f7420616c72656164792061646465640000000000000000000000000000006000830152602082019050919050565b6000615625601583616085565b91507f496e7375666669636569656e742062616c616e636500000000000000000000006000830152602082019050919050565b6000615665601483616085565b91507f4e6f7420616e2061646d696e20616c72656164790000000000000000000000006000830152602082019050919050565b60006156a5600e83616085565b91507f4e6f7420417574686f72697a65640000000000000000000000000000000000006000830152602082019050919050565b60006156e5601083616085565b91507f496e76616c6964207175616e74697479000000000000000000000000000000006000830152602082019050919050565b6000615725601483616085565b91507f50726963652063616e6e6f74206265207a65726f0000000000000000000000006000830152602082019050919050565b6000615765602583616085565b91507f43616e6e6f74206578636565642073656c6c657227732070726573657420616d60008301527f6f756e742e0000000000000000000000000000000000000000000000000000006020830152604082019050919050565b60006157cb602183616085565b91507f556e617574686f72697a656420746f20616464204974656d20746f2073746f7260008301527f65000000000000000000000000000000000000000000000000000000000000006020830152604082019050919050565b6000615831601683616085565b91507f41646472657373206e6f7420617574686f72697a6564000000000000000000006000830152602082019050919050565b6000615871601083616085565b91507f4f766572666c6f772073706f74746564000000000000000000000000000000006000830152602082019050919050565b60006158b1601383616085565b91507f4974656d20646f6573206e6f74206578697374000000000000000000000000006000830152602082019050919050565b60006158f1601383616085565b91507f53746f726520616c7265616479206578697374000000000000000000000000006000830152602082019050919050565b61592d816160f0565b82525050565b61593c816160fa565b82525050565b600061594f8284866152e9565b91508190509392505050565b60006159678284615347565b915081905092915050565b600060208201905061598760008301846152bc565b92915050565b600060a0820190506159a260008301886152ad565b81810360208301526159b481876153c0565b90506159c36040830186615924565b6159d06060830185615924565b6159dd60808301846152cb565b9695505050505050565b600060c0820190506159fc60008301896152ad565b8181036020830152615a0e81886153c0565b9050615a1d6040830187615924565b615a2a6060830186615924565b615a376080830185615924565b81810360a0830152615a4981846153c0565b9050979650505050505050565b6000604082019050615a6b600083018561529e565b615a786020830184615924565b9392505050565b6000608082019050615a94600083018761529e565b615aa16020830186615924565b615aae60408301856152bc565b8181036060830152615ac0818461530e565b905095945050505050565b6000604082019050615ae060008301856152bc565b615aed60208301846152cb565b9392505050565b600060a082019050615b0960008301886152bc565b8181036020830152615b1b81876153c0565b9050615b2a6040830186615924565b615b376060830185615924565b615b4460808301846152cb565b9695505050505050565b600060c082019050615b6360008301896152bc565b8181036020830152615b7581886153c0565b9050615b846040830187615924565b615b916060830186615924565b615b9e6080830185615924565b615bab60a08301846152da565b979650505050505050565b6000602082019050615bcb60008301846152cb565b92915050565b6000604082019050615be660008301856152cb565b615bf360208301846152cb565b9392505050565b60006020820190508181036000830152615c148184615378565b905092915050565b60006020820190508181036000830152615c36818461530e565b905092915050565b600060a082019050615c5360008301886153b1565b615c6060208301876153b1565b615c6d60408301866153b1565b615c7a60608301856153b1565b615c8760808301846153b1565b9695505050505050565b60006020820190508181036000830152615cab81846153f9565b905092915050565b60006040820190508181036000830152615ccd81856153c0565b90508181036020830152615ce1818461530e565b90509392505050565b60006020820190508181036000830152615d0381615432565b9050919050565b60006020820190508181036000830152615d2381615498565b9050919050565b60006020820190508181036000830152615d43816154d8565b9050919050565b60006020820190508181036000830152615d6381615518565b9050919050565b60006020820190508181036000830152615d8381615558565b9050919050565b60006020820190508181036000830152615da381615598565b9050919050565b60006020820190508181036000830152615dc3816155d8565b9050919050565b60006020820190508181036000830152615de381615618565b9050919050565b60006020820190508181036000830152615e0381615658565b9050919050565b60006020820190508181036000830152615e2381615698565b9050919050565b60006020820190508181036000830152615e43816156d8565b9050919050565b60006020820190508181036000830152615e6381615718565b9050919050565b60006020820190508181036000830152615e8381615758565b9050919050565b60006020820190508181036000830152615ea3816157be565b9050919050565b60006020820190508181036000830152615ec381615824565b9050919050565b60006020820190508181036000830152615ee381615864565b9050919050565b60006020820190508181036000830152615f03816158a4565b9050919050565b60006020820190508181036000830152615f23816158e4565b9050919050565b6000602082019050615f3f6000830184615924565b92915050565b6000602082019050615f5a6000830184615933565b92915050565b6000604051905081810181811067ffffffffffffffff82111715615f8357600080fd5b8060405250919050565b600067ffffffffffffffff821115615fa457600080fd5b601f19601f8301169050602081019050919050565b600067ffffffffffffffff821115615fd057600080fd5b601f19601f8301169050602081019050919050565b600067ffffffffffffffff821115615ffc57600080fd5b601f19601f8301169050602081019050919050565b600067ffffffffffffffff82111561602857600080fd5b601f19601f8301169050602081019050919050565b600081519050919050565b600081519050919050565b600081519050919050565b600081519050919050565b600082825260208201905092915050565b600081905092915050565b600082825260208201905092915050565b60006160a1826160d0565b9050919050565b60006160b3826160d0565b9050919050565b60008115159050919050565b6000819050919050565b600073ffffffffffffffffffffffffffffffffffffffff82169050919050565b6000819050919050565b600060ff82169050919050565b60006161128261612b565b9050919050565b6000616124826160fa565b9050919050565b60006161368261613d565b9050919050565b6000616148826160d0565b9050919050565b82818337600083830152505050565b60005b8381101561617c578082015181840152602081019050616161565b8381111561618b576000848401525b50505050565b6000601f19601f8301169050919050565b6161ab81616096565b81146161b657600080fd5b50565b6161c2816160a8565b81146161cd57600080fd5b50565b6161d9816160ba565b81146161e457600080fd5b50565b6161f0816160c6565b81146161fb57600080fd5b50565b616207816160f0565b811461621257600080fd5b50565b61621e816160fa565b811461622957600080fd5b5056fea264697066735822122076dafea5ff083dffe00512a6f127ec20d822fe7a26dae36b59913d9347639ea264736f6c63430006010033",
  "source": "// SPDX-License-Identifier: MIT\r\npragma solidity ^0.6.0;\r\npragma experimental ABIEncoderV2;\r\n\r\n\r\ninterface tokenRecipient { \r\n    function receiveApproval(address _from, uint256 _value, address _token, bytes calldata _extraData) external;\r\n    \r\n}\r\n\r\ncontract TokenERC20 {\r\n    // Public variables of the token\r\n    string public name;\r\n    string public symbol;\r\n    uint8 public decimals = 18;\r\n    uint256 public totalSupply;\r\n    uint256 public itemcount = 0;\r\n    \r\n    // An array with all balances \r\n    mapping (address => uint256) public balanceOf;\r\n    mapping (address => mapping (address => uint256)) public allowance;\r\n    \r\n    // This generates a public event on the blockchain that will notify clients\r\n    event Transfer(address indexed from, address indexed to, uint256 value);\r\n    \r\n    // Public event on the blockchain that will notify clients\r\n    event Approval(address indexed _owner, address indexed _spender, uint256 _value);\r\n    // Notifies clients about the amount burnt\r\n    event Burn(address indexed from, uint256 value);\r\n    /**\r\n     * Constrctor function\r\n     *\r\n     * Initializes contract with initial supply tokens to the creator of the contract\r\n     */\r\n    constructor(\r\n        uint256 initialSupply,\r\n        string memory tokenName,\r\n        string memory tokenSymbol\r\n    ) public {\r\n        totalSupply = initialSupply * 10 ** uint256(decimals);  // Update total supply with the decimal amount\r\n        balanceOf[msg.sender] = totalSupply;                // Give the creator all initial tokens\r\n        name = tokenName;                                   // Set the name for display purposes\r\n        symbol = tokenSymbol;                               // Set the symbol for display purposes\r\n    }\r\n    /**\r\n     * Internal transfer, only can be called by this contract\r\n     */\r\n    function _transfer(address _from, address _to, uint _value) internal {\r\n        // Prevent transfer to 0x0 address. Use burn() instead\r\n        require(_to != address(0));\r\n        // Check if the sender has enough\r\n        require(balanceOf[_from] >= _value);\r\n        // Check for overflows\r\n        require(balanceOf[_to] + _value > balanceOf[_to]);\r\n        // Save this for an assertion in the future\r\n        uint previousBalances = balanceOf[_from] + balanceOf[_to];\r\n        // Subtract from the sender\r\n        balanceOf[_from] -= _value;\r\n        // Add the same to the recipient\r\n        balanceOf[_to] += _value;\r\n        emit Transfer(_from, _to, _value);\r\n        // Asserts are used to use static analysis to find bugs in your code. They should never fail\r\n        assert(balanceOf[_from] + balanceOf[_to] == previousBalances);\r\n    }\r\n    /**\r\n     * Transfer tokens\r\n     *\r\n     * Send `_value` tokens to `_to` from your account\r\n     *\r\n     * @param _to The address of the recipient\r\n     * @param _value the amount to send\r\n     */\r\n    function transfer(address _to, uint256 _value) public returns (bool success) {\r\n        _transfer(msg.sender, _to, _value);\r\n        return true;\r\n    }\r\n    /**\r\n     * Transfer tokens from other address\r\n     *\r\n     * Send `_value` tokens to `_to` in behalf of `_from`\r\n     *\r\n     * @param _from The address of the sender\r\n     * @param _to The address of the recipient\r\n     * @param _value the amount to send\r\n     */\r\n    function transferFrom(address _from, address _to, uint256 _value) public returns (bool success) {\r\n        require(_value <= allowance[_from][msg.sender]); // Check allowance amount\r\n        allowance[_from][msg.sender] -= _value;\r\n        _transfer(_from, _to, _value);\r\n        return true;\r\n    }\r\n    /**\r\n     * Set allowance for other address\r\n     *\r\n     * Allows `_spender` to spend no more than `_value` tokens in your behalf\r\n     *\r\n     * @param _spender The address authorized to spend\r\n     * @param _value the max amount they can spend\r\n     */\r\n    function approve(address _spender, uint256 _value) public returns (bool success) {\r\n        allowance[msg.sender][_spender] = _value;\r\n        emit Approval(msg.sender, _spender, _value);\r\n        return true;\r\n    }\r\n    /**\r\n     * Set allowance for other address and notify\r\n     *\r\n     * Allows `_spender` to spend no more than `_value` tokens on your behalf, and then ping the contract about it\r\n     *\r\n     * @param _spender The address authorized to spend\r\n     * @param _value the max amount they can spend\r\n     * @param _extraData some extra information to send to the approved contract\r\n     */\r\n    function approveAndCall(address _spender, uint256 _value, bytes memory _extraData)\r\n        public\r\n        returns (bool success) {\r\n        tokenRecipient spender = tokenRecipient(_spender);\r\n        if (approve(_spender, _value)) {\r\n            spender.receiveApproval(msg.sender, _value, address(this), _extraData);\r\n            return true;\r\n        }\r\n    }\r\n    /**\r\n     * Destroy tokens\r\n     *\r\n     * Remove `_value` tokens from the system irreversibly\r\n     *\r\n     * @param _value the amount of money to burn\r\n     */\r\n    function burn(uint256 _value) public returns (bool success) {\r\n        require(balanceOf[msg.sender] >= _value);   // Check if the sender has enough\r\n        balanceOf[msg.sender] -= _value;            // Subtract from the sender\r\n        totalSupply -= _value;                      // Updates totalSupply\r\n        emit Burn(msg.sender, _value);\r\n        return true;\r\n    }\r\n    /**\r\n     * Destroy tokens from other account\r\n     *\r\n     * Remove `_value` tokens from the system irreversibly on behalf of `_from`.\r\n     *\r\n     * @param _from the address of the sender\r\n     * @param _value the amount of money to burn\r\n     */\r\n    function burnFrom(address _from, uint256 _value) public returns (bool success) {\r\n        require(balanceOf[_from] >= _value);                // Check if the targeted balance is enough\r\n        require(_value <= allowance[_from][msg.sender]);    // Check allowance\r\n        balanceOf[_from] -= _value;                         // Subtract from the targeted balance\r\n        allowance[_from][msg.sender] -= _value;             // Subtract from the sender's allowance\r\n        totalSupply -= _value;                              // Update totalSupply\r\n        emit Burn(_from, _value);\r\n        return true;\r\n    }\r\n}\r\n\r\n\r\n// Online MarketPlace running on the blockchain\r\ncontract GMart is TokenERC20{\r\n    \r\n    address public owner;\r\n    uint totalItem = 0;\r\n    // uint8 defaultId = 10;\r\n    uint8 defaultId_storeOwner = 0;\r\n    uint shoppers_count = 0;\r\n    uint public adminCount = 0;\r\n    uint256 public storeOwnersCount = 0;\r\n    uint256 public storeCount = 0;\r\n\r\n    event ApprovedStoreOwner(address indexed _addr, uint256 _userId);\r\n    event NewAdmin(address indexed _addr);\r\n    event NewStoreFront(address indexed _msgsender, bytes _storeRef);\r\n    event UnregisteredStore(address indexed _storeOwnerAddress, uint256 _storeNumber);\r\n    event DeletedStore(address indexed _msgsender, uint256 _storeNumber);\r\n    event NewItem(address indexed _addr, string _itemName, bytes _itemRef);\r\n    event PriceChange(bytes _referenceId, uint256 _newSetPrice);\r\n    event Withdrawal(address indexed _from, address indexed _to, uint _amount);\r\n    event RemovedItem(address indexed _msgsender, bytes _refId);\r\n    event ReceivedEther(address, uint);\r\n    event FrozenFunds(address target, bool frozen);\r\n     // This generates a public event on the blockchain that will notify clients\r\n    event Transfer(address indexed from, address indexed to, uint256 value);\r\n    \r\n    // Public event on the blockchain that will notify clients\r\n    event Approval(address indexed _owner, address indexed _spender, uint256 _value);\r\n    // Notifies clients about the amount burnt\r\n    event Burn(address indexed from, uint256 value);\r\n    \r\n    // An array with all balances \r\n    mapping(address => mapping(uint => bool)) public  isAdmin;\r\n    mapping(address => bool) public adminApprovalToAdd;\r\n    mapping(address => mapping(uint => bool)) public isStoreOwnerApproved;\r\n    mapping(address => bool) public storeOwnerApprovalToAddItem;//marked\r\n    mapping(address => mapping(uint256 => bytes)) public storefrontRef;\r\n    mapping(bytes => mapping(uint => bytes)) public storefrontRefItemMap;\r\n    mapping(bytes => bool) public storeExist;\r\n    mapping(uint => bytes) public itemsList;\r\n    mapping(address => bool) public ownerShip;\r\n    mapping(bytes => bool) public availableItems;\r\n    mapping(address => uint256) public balanceof;\r\n    mapping(address => uint256) public shoppers;\r\n    mapping (address => bool) public frozenAccounts;\r\n    \r\n    // Initialized at deployment time.\r\n    /**\r\n     * Constrctor function\r\n     *\r\n     * Initializes contract with initial supply tokens to the creator of the contract\r\n     */\r\n    constructor(\r\n        // uint256 initialSupply,\r\n        // string memory tokenName,\r\n        // string memory tokenSymbol\r\n    ) TokenERC20(500000, \"gmarttoken\", \"GMT\") public {\r\n        owner = msg.sender;\r\n    }\r\n\r\n    //Only sender with owner Authorization is permiitted\r\n    modifier onlyOwner() {\r\n        require(msg.sender == owner, \"Request failed; Not an owner\");\r\n        _;\r\n    }\r\n    //Only sender with admin role is permiitted\r\n    modifier onlyAdmin(uint _id) {\r\n        require(isAdmin[msg.sender][_id] == true, \"Not Authorized address\");\r\n        require(adminApprovalToAdd[msg.sender] == true, \"Not Authorized\");\r\n        _;\r\n    }\r\n    //Only approved store owner is allowed\r\n    modifier approvedStoreOwner(uint256 _id) {\r\n        require(isStoreOwnerApproved[msg.sender][_id] == true, \"Address not authorized\");\r\n        require(storeOwnerApprovalToAddItem[msg.sender] == true, \"Unauthorized to add Item to store\");\r\n        _;\r\n    }\r\n    //Check if an item exist in a particular storefront\r\n    modifier checkItemExist(bytes memory _itemRef) {\r\n        require(availableItems[_itemRef] == true, \"Item does not exist\");\r\n        _;\r\n    }\r\n    \r\n    function transferOwnership(address _newOwner) public onlyOwner {\r\n        owner = _newOwner;\r\n    }\r\n    \r\n    // @notice Create `mintedAmount` tokens and send it to `target`\r\n    // @param target Address to receive the tokens\r\n    // @param mintedAmount the amount of tokens it will receive\r\n    function mintToken(address target, uint256 mintedAmount) onlyOwner public {\r\n        balanceOf[target] += mintedAmount;\r\n        totalSupply += mintedAmount;\r\n        emit Transfer(address(0), address(this), mintedAmount);\r\n        emit Transfer(address(this), target, mintedAmount);\r\n    }\r\n    \r\n    // @notice `freeze? Prevent | Allow` `target` from sending & receiving tokens\r\n    // @param target Address to be frozen\r\n    // @param freeze either to freeze it or not\r\n    function freezeAccount(address target, bool freeze) onlyOwner public {\r\n        frozenAccounts[target] = freeze;\r\n        emit FrozenFunds(target, freeze);\r\n    }\r\n\r\n    /*\r\n     * Transfer tokens\r\n     *\r\n     * Send `_value` tokens to `_to` from your account\r\n     * @param _from Address of sender\r\n     * @param _to The address of the recipient\r\n     * @param _value the amount to send\r\n     */\r\n    function transferToken(address _to, uint _value) internal {\r\n        require(!frozenAccounts[_to]);                       // Check if recipient is frozen\r\n        _transfer(msg.sender, _to, _value);\r\n    }\r\n    \r\n    /**\r\n     * Transfer tokens from other address\r\n     *\r\n     * Send `_value` tokens to `_to` in behalf of `_from`\r\n     *\r\n     * @param _from The address of the sender\r\n     * @param _to The address of the recipient\r\n     * @param _value the amount to send\r\n     */\r\n    function transferTokenFrom(address _from, address _to, uint256 _value) public returns (bool success) {\r\n        require(!frozenAccounts[_from]);        // Check if sender is frozen\r\n        require(!frozenAccounts[_to]);          // Check if recipient is frozen\r\n        transferFrom(_from, _to, _value);\r\n        return true;\r\n    }\r\n    \r\n    /**\r\n     * Set allowance for other address\r\n     *\r\n     * Allows `_spender` to spend no more than `_value` tokens in your behalf\r\n     *\r\n     * @param _spender The address authorized to spend\r\n     * @param _value the max amount they can spend\r\n     */\r\n    function approveSpender(address _spender, uint256 _value) public {\r\n        approve(_spender, _value);\r\n        emit Approval(msg.sender, _spender, _value);\r\n    }\r\n    \r\n    /**\r\n     * Set allowance for other address and notify\r\n     *\r\n     * Allows `_spender` to spend no more than `_value` tokens on your behalf, and then ping the contract about it\r\n     *\r\n     * @param _spender The address authorized to spend\r\n     * @param _value the max amount they can spend\r\n     * @param _extraData some extra information to send to the approved contract\r\n     */\r\n    function approveandCall(address _spender, uint256 _value, bytes memory _extraData) public {\r\n        approveAndCall(_spender, _value, _extraData);\r\n    }\r\n    \r\n    /**\r\n     * Destroy tokens\r\n     *\r\n     * Remove `_value` tokens from the system irreversibly\r\n     *\r\n     * @param _value the amount of money to burn\r\n     */\r\n    function burnToken(uint256 _value) public {\r\n        burn(_value);\r\n    }\r\n    \r\n       /**\r\n     * Destroy tokens from other account\r\n     *\r\n     * Remove `_value` tokens from the system irreversibly on behalf of `_from`.\r\n     *\r\n     * @param _from the address of the sender\r\n     * @param _value the amount of money to burn\r\n     */\r\n    function burnTokenFrom(address _from, uint256 _value) public {\r\n        burnFrom(_from, _value);\r\n        \r\n    }\r\n    \r\n    /**\r\n     * @dev adds an adminList\r\n     * function is called only by the authorized owner address\r\n     */\r\n    function addAdmin(address _addr) public onlyOwner returns(bool){\r\n        require(adminCount <= 3, \"Max admin reached --> [3]\");\r\n        require(_addr != address(0), \"Invalid address\");\r\n        uint id = adminCount += 1;\r\n        isAdmin[_addr][id] = true;\r\n        emit NewAdmin(_addr);\r\n        return true;\r\n    }\r\n\r\n    function checkIsAdmin(address _addr, uint _id) public view returns(bool) {\r\n        return (isAdmin[_addr][_id]);\r\n    }\r\n\r\n    function checkIfAdmincanAdd(address _addr) public view returns(bool) {\r\n        return(adminApprovalToAdd[_addr]);\r\n    }\r\n\r\n    function checkStoreOwnerApproved(address _addr, uint256 _id) public view returns(bool, bool) {\r\n        return (isStoreOwnerApproved[_addr][_id], storeOwnerApprovalToAddItem[_addr]);\r\n    }\r\n    \r\n    function approve_StoreOwner(address _addr, uint _id) public onlyAdmin(_id) returns(bool successful) {\r\n        require(_addr != address(0), \"Invalid address\");\r\n        // StoreOwners memory _ownerStruct = storeOwnerMap[_addr];\r\n        uint256 id = storeOwnersCount += 1;\r\n        isStoreOwnerApproved[_addr][_id] = true;\r\n        emit ApprovedStoreOwner(_addr, id);\r\n        return successful;\r\n    }\r\n    \r\n    function changeAdminApproval(address _addr, bool _approval, uint _id) public onlyOwner returns(bool) {\r\n        require(isAdmin[_addr][_id] == true, \"Not already added\");\r\n        adminApprovalToAdd[_addr] = _approval;\r\n        return _approval;\r\n    }\r\n    \r\n    function changeStoreOwnerApproval(\r\n        address _addr,\r\n        bool _approval,\r\n        uint _adminId,\r\n        uint256 _storeOwnerId\r\n        ) public onlyAdmin(_adminId) returns(bool){\r\n        require(isStoreOwnerApproved[_addr][_storeOwnerId] == true, \"Not already added\");\r\n        storeOwnerApprovalToAddItem[_addr] = _approval;\r\n        return _approval;\r\n    }\r\n\r\n    /**\r\n    * StoreOwners Registers a new storefront. \r\n    * currently a participant self-adding strorefront\r\n    * param: _storeName: Name of the store.\r\n    */\r\n    function addStorefront(\r\n         string memory _storeName,\r\n         uint256 _userId\r\n         ) public approvedStoreOwner(_userId) returns(bool) {\r\n         uint256 _storeNumber = storeCount += 1;\r\n         uint256 dateCreated = now;\r\n         bool _active = true;\r\n         bytes memory _storefrontRef = abi.encode(msg.sender, _storeName, _storeNumber, dateCreated, _active);\r\n         require(storeExist[_storefrontRef] == false, \"Store already exist\" );\r\n         storefrontRef[msg.sender][_storeNumber] = _storefrontRef;\r\n         storeExist[_storefrontRef] == true;\r\n         emit NewStoreFront(msg.sender, _storefrontRef);\r\n         return true;\r\n        \r\n     }\r\n     \r\n     function getStoreDetail(\r\n         bytes calldata _storeRef,\r\n         uint256 _userId\r\n         ) external view approvedStoreOwner(_userId) returns(\r\n             address,\r\n             string memory,\r\n             uint,\r\n             uint,\r\n             bool\r\n             ) {\r\n                 require(storeExist[_storeRef] == true, \"Store does not exist\" );\r\n                 return(abi.decode(_storeRef, (address, string, uint, uint, bool)));\r\n     }\r\n     \r\n          /**\r\n     * StoreOwners Registers a new item to shelve. \r\n     * param: _itemName: Name of an item.\r\n     * param: _description: Detail of an item.\r\n     * param: _price: unit price of an item.\r\n     * param: _storeref: A unique  Id to the store.\r\n     * param: _quantity: Unit of ireferencetem to add.\r\n     */\r\n     \r\n    function addItemToStore(\r\n        string memory _itemName,\r\n        string memory _description,\r\n        uint _price,\r\n        bytes memory _storeRef,\r\n        uint _qnty,\r\n        uint256 _userId\r\n        )public \r\n        approvedStoreOwner(_userId)\r\n        returns(bool)\r\n        {\r\n            require(_price > 0, \"Price cannot be zero\");\r\n            // Item memory _newItem;\r\n            string memory name = _itemName;\r\n            uint256 price = _price;\r\n            uint256 quantity = _qnty;\r\n            uint256 itemNumber = itemcount += 1;\r\n            string memory description = _description;\r\n            bytes memory _itemref = abi.encode(\r\n                msg.sender,\r\n                name,\r\n                price,\r\n                quantity,\r\n                itemNumber,\r\n                description\r\n                );\r\n                storefrontRefItemMap[_storeRef][itemNumber] = _itemref;\r\n                ownerShip[msg.sender] = true;\r\n                availableItems[_itemref] = true;\r\n                itemsList[itemNumber] = _itemref;\r\n                emit NewItem(msg.sender, _itemName, _itemref);\r\n                return true;\r\n            \r\n        }\r\n     \r\n     function removeAnItem(bytes memory _itemRef, uint256 _userId, bytes memory _storeRef, uint _itemNumber) public approvedStoreOwner(_userId) checkItemExist(_itemRef) {\r\n        //  require(availableItems[_itemRef] == true, \"Item does not exist\");\r\n         delete storefrontRefItemMap[_storeRef][_itemNumber];\r\n         emit RemovedItem(msg.sender, _itemRef);\r\n     }\r\n      function removeAStore(uint256 _userId, uint256 _storeNumber) public approvedStoreOwner(_userId) {\r\n          delete storefrontRef[msg.sender][_storeNumber];\r\n          emit DeletedStore(msg.sender, _storeNumber);\r\n      }\r\n\r\n    function buyItem(\r\n        bytes calldata ref,\r\n        uint _qnty,\r\n        uint _itemNumber,\r\n        uint _offer\r\n        )external payable checkItemExist(ref) returns(bool) \r\n        {\r\n            bytes memory _itemToBuy = itemsList[_itemNumber];\r\n            (\r\n                address sellerAddress,\r\n                string memory name,\r\n                uint price,\r\n                uint quantity,\r\n                uint itemNumber,\r\n                bytes32 description) = abi.decode(_itemToBuy, (address, string, uint, uint, uint, bytes32));\r\n                require(_qnty > 0, \"Invalid quantity\");\r\n                uint amountToPay = _qnty * _offer;\r\n                require(amountToPay / _qnty == _offer, \"Overflow spotted\");\r\n                require(balanceOf[msg.sender] >= amountToPay, \"Insufficeient balance\");\r\n                require(_qnty <= quantity, \"Cannot exceed seller's preset amount.\");\r\n                require(_offer >= amountToPay, \"Amount cannot be less than total price\");\r\n                balanceOf[msg.sender] -= amountToPay;\r\n                balanceOf[sellerAddress] += amountToPay;\r\n                ownerShip[sellerAddress] = false;\r\n                ownerShip[msg.sender] = true;\r\n                quantity -= _qnty;\r\n                if(quantity == 0){\r\n                    delete itemsList[_itemNumber];\r\n                    return true;\r\n                }else if(quantity > 0){\r\n                    itemsList[_itemNumber] = abi.encode(sellerAddress, name, price, quantity, itemNumber, description);\r\n                }\r\n                shoppers[msg.sender] = shoppers_count += 1;\r\n                return true;\r\n     }\r\n     \r\n    function withdrawBalanceStoreOwner(address payable _addr, uint _amount, uint256 _userId) external payable approvedStoreOwner(_userId) returns(bool success) {\r\n         require(balanceOf[msg.sender] >= _amount, \"Insufficeient balance\");\r\n         balanceOf[msg.sender] -= _amount;\r\n         balanceOf[_addr] += _amount;\r\n         emit Withdrawal(msg.sender, _addr, _amount);\r\n         return success;\r\n     }\r\n    \r\n    function disableAdmin(address _addr, uint8 _id) public onlyOwner returns(bool success) {\r\n        require(isAdmin[_addr][_id] == true, \"Not an admin already\");\r\n        isAdmin[_addr][_id] = false;\r\n        if(isAdmin[_addr][_id] == false) return true;\r\n    }\r\n    \r\n    /**\r\n     * @dev UnRegisters a store from the Storefront \r\n     * currently only an admin is able to remove store\r\n     */\r\n    function unregisterStore(address _addr, uint _id, uint256 _userId, uint256 _storeNumber) public onlyAdmin(_id) returns(bool) {\r\n        require(isStoreOwnerApproved[_addr][_userId] == true, \"Address not authorized\");\r\n        storefrontRef[_addr][_storeNumber] = abi.encode(0, 0, 0, 0, 0);\r\n        storeOwnerApprovalToAddItem[_addr] == false;\r\n        emit UnregisteredStore(_addr, _storeNumber);\r\n        return true;\r\n    }\r\n    \r\n    //@dev Withdraw funds\r\n    function withdraw(uint _amount) onlyOwner public payable{\r\n        msg.sender.transfer(_amount);\r\n    }\r\n    \r\n    receive() external payable {\r\n        emit ReceivedEther(msg.sender, msg.value);\r\n    }\r\n    \r\n}    ",
  "sourcePath": "C:/Users/OWNER/Desktop/bootFinalProject/consensys-finalProject/contracts/GMart.sol",
  "compiler": {
    "name": "solc",
    "version": "0.6.1+commit.e6f7d5a4.Emscripten.clang"
  },
  "schemaVersion": "3.2.5",
  "updatedAt": "2020-12-06T13:45:44.829Z",
  "networkType": "ethereum",
  "devdoc": {
    "methods": {
      "addAdmin(address)": {
        "details": "adds an adminList function is called only by the authorized owner address"
      },
      "approve(address,uint256)": {
        "params": {
          "_spender": "The address authorized to spend",
          "_value": "the max amount they can spend"
        }
      },
      "approveAndCall(address,uint256,bytes)": {
        "params": {
          "_extraData": "some extra information to send to the approved contract",
          "_spender": "The address authorized to spend",
          "_value": "the max amount they can spend"
        }
      },
      "approveSpender(address,uint256)": {
        "params": {
          "_spender": "The address authorized to spend",
          "_value": "the max amount they can spend"
        }
      },
      "approveandCall(address,uint256,bytes)": {
        "params": {
          "_extraData": "some extra information to send to the approved contract",
          "_spender": "The address authorized to spend",
          "_value": "the max amount they can spend"
        }
      },
      "burn(uint256)": {
        "params": {
          "_value": "the amount of money to burn"
        }
      },
      "burnFrom(address,uint256)": {
        "params": {
          "_from": "the address of the sender",
          "_value": "the amount of money to burn"
        }
      },
      "burnToken(uint256)": {
        "params": {
          "_value": "the amount of money to burn"
        }
      },
      "burnTokenFrom(address,uint256)": {
        "params": {
          "_from": "the address of the sender",
          "_value": "the amount of money to burn"
        }
      },
      "transfer(address,uint256)": {
        "params": {
          "_to": "The address of the recipient",
          "_value": "the amount to send"
        }
      },
      "transferFrom(address,address,uint256)": {
        "params": {
          "_from": "The address of the sender",
          "_to": "The address of the recipient",
          "_value": "the amount to send"
        }
      },
      "transferTokenFrom(address,address,uint256)": {
        "params": {
          "_from": "The address of the sender",
          "_to": "The address of the recipient",
          "_value": "the amount to send"
        }
      },
      "unregisterStore(address,uint256,uint256,uint256)": {
        "details": "UnRegisters a store from the Storefront  currently only an admin is able to remove store"
      }
    }
  },
  "userdoc": {
    "methods": {
      "addItemToStore(string,string,uint256,bytes,uint256,uint256)": {
        "notice": "StoreOwners Registers a new item to shelve.  param: _itemName: Name of an item. param: _description: Detail of an item. param: _price: unit price of an item. param: _storeref: A unique  Id to the store. param: _quantity: Unit of ireferencetem to add."
      },
      "addStorefront(string,uint256)": {
        "notice": "StoreOwners Registers a new storefront.  currently a participant self-adding strorefront param: _storeName: Name of the store."
      },
      "approve(address,uint256)": {
        "notice": "Set allowance for other address      * Allows `_spender` to spend no more than `_value` tokens in your behalf "
      },
      "approveAndCall(address,uint256,bytes)": {
        "notice": "Set allowance for other address and notify      * Allows `_spender` to spend no more than `_value` tokens on your behalf, and then ping the contract about it "
      },
      "approveSpender(address,uint256)": {
        "notice": "Set allowance for other address      * Allows `_spender` to spend no more than `_value` tokens in your behalf "
      },
      "approveandCall(address,uint256,bytes)": {
        "notice": "Set allowance for other address and notify      * Allows `_spender` to spend no more than `_value` tokens on your behalf, and then ping the contract about it "
      },
      "burn(uint256)": {
        "notice": "Destroy tokens      * Remove `_value` tokens from the system irreversibly "
      },
      "burnFrom(address,uint256)": {
        "notice": "Destroy tokens from other account      * Remove `_value` tokens from the system irreversibly on behalf of `_from`. "
      },
      "burnToken(uint256)": {
        "notice": "Destroy tokens      * Remove `_value` tokens from the system irreversibly "
      },
      "burnTokenFrom(address,uint256)": {
        "notice": "Destroy tokens from other account      * Remove `_value` tokens from the system irreversibly on behalf of `_from`. "
      },
      "constructor": "Constrctor function      * Initializes contract with initial supply tokens to the creator of the contract",
      "transfer(address,uint256)": {
        "notice": "Transfer tokens      * Send `_value` tokens to `_to` from your account "
      },
      "transferFrom(address,address,uint256)": {
        "notice": "Transfer tokens from other address      * Send `_value` tokens to `_to` in behalf of `_from` "
      },
      "transferTokenFrom(address,address,uint256)": {
        "notice": "Transfer tokens from other address      * Send `_value` tokens to `_to` in behalf of `_from` "
      }
    }
  }
}