{
  "contractName": "GMart",
  "abi": [
    {
      "inputs": [],
      "stateMutability": "nonpayable",
      "type": "constructor"
    },
    {
      "anonymous": false,
      "inputs": [
        {
          "indexed": true,
          "internalType": "address",
          "name": "_owner",
          "type": "address"
        },
        {
          "indexed": true,
          "internalType": "address",
          "name": "_spender",
          "type": "address"
        },
        {
          "indexed": false,
          "internalType": "uint256",
          "name": "_value",
          "type": "uint256"
        }
      ],
      "name": "Approval",
      "type": "event"
    },
    {
      "anonymous": false,
      "inputs": [
        {
          "indexed": true,
          "internalType": "address",
          "name": "_addr",
          "type": "address"
        },
        {
          "indexed": false,
          "internalType": "bytes",
          "name": "_ref",
          "type": "bytes"
        }
      ],
      "name": "ApprovedStoreOwner",
      "type": "event"
    },
    {
      "anonymous": false,
      "inputs": [
        {
          "indexed": true,
          "internalType": "address",
          "name": "from",
          "type": "address"
        },
        {
          "indexed": false,
          "internalType": "uint256",
          "name": "value",
          "type": "uint256"
        }
      ],
      "name": "Burn",
      "type": "event"
    },
    {
      "anonymous": false,
      "inputs": [
        {
          "indexed": false,
          "internalType": "address",
          "name": "target",
          "type": "address"
        },
        {
          "indexed": false,
          "internalType": "bool",
          "name": "frozen",
          "type": "bool"
        }
      ],
      "name": "FrozenFunds",
      "type": "event"
    },
    {
      "anonymous": false,
      "inputs": [
        {
          "indexed": true,
          "internalType": "address",
          "name": "_addr",
          "type": "address"
        },
        {
          "indexed": false,
          "internalType": "bytes",
          "name": "_ref",
          "type": "bytes"
        }
      ],
      "name": "NewAdmin",
      "type": "event"
    },
    {
      "anonymous": false,
      "inputs": [
        {
          "indexed": true,
          "internalType": "address",
          "name": "_addr",
          "type": "address"
        },
        {
          "indexed": false,
          "internalType": "string",
          "name": "_itemName",
          "type": "string"
        },
        {
          "indexed": false,
          "internalType": "bytes",
          "name": "_itemRef",
          "type": "bytes"
        }
      ],
      "name": "NewItem",
      "type": "event"
    },
    {
      "anonymous": false,
      "inputs": [
        {
          "indexed": true,
          "internalType": "address",
          "name": "_newstore",
          "type": "address"
        },
        {
          "indexed": false,
          "internalType": "bytes",
          "name": "_storeId",
          "type": "bytes"
        },
        {
          "indexed": false,
          "internalType": "string",
          "name": "_name",
          "type": "string"
        }
      ],
      "name": "NewStoreFront",
      "type": "event"
    },
    {
      "anonymous": false,
      "inputs": [
        {
          "indexed": false,
          "internalType": "bytes",
          "name": "_referenceId",
          "type": "bytes"
        },
        {
          "indexed": false,
          "internalType": "uint256",
          "name": "_newSetPrice",
          "type": "uint256"
        }
      ],
      "name": "PriceChange",
      "type": "event"
    },
    {
      "anonymous": false,
      "inputs": [
        {
          "indexed": false,
          "internalType": "address",
          "name": "",
          "type": "address"
        },
        {
          "indexed": false,
          "internalType": "uint256",
          "name": "",
          "type": "uint256"
        }
      ],
      "name": "ReceivedEther",
      "type": "event"
    },
    {
      "anonymous": false,
      "inputs": [
        {
          "indexed": true,
          "internalType": "address",
          "name": "_msgsender",
          "type": "address"
        },
        {
          "indexed": false,
          "internalType": "bytes",
          "name": "_refId",
          "type": "bytes"
        }
      ],
      "name": "RemovedItem",
      "type": "event"
    },
    {
      "anonymous": false,
      "inputs": [
        {
          "indexed": true,
          "internalType": "address",
          "name": "from",
          "type": "address"
        },
        {
          "indexed": true,
          "internalType": "address",
          "name": "to",
          "type": "address"
        },
        {
          "indexed": false,
          "internalType": "uint256",
          "name": "value",
          "type": "uint256"
        }
      ],
      "name": "Transfer",
      "type": "event"
    },
    {
      "anonymous": false,
      "inputs": [
        {
          "indexed": true,
          "internalType": "address",
          "name": "_storeOwnerAddress",
          "type": "address"
        }
      ],
      "name": "UnregisteredStore",
      "type": "event"
    },
    {
      "anonymous": false,
      "inputs": [
        {
          "indexed": true,
          "internalType": "address",
          "name": "_from",
          "type": "address"
        },
        {
          "indexed": true,
          "internalType": "address",
          "name": "_to",
          "type": "address"
        },
        {
          "indexed": false,
          "internalType": "uint256",
          "name": "_amount",
          "type": "uint256"
        }
      ],
      "name": "Withdrawal",
      "type": "event"
    },
    {
      "inputs": [
        {
          "internalType": "address",
          "name": "",
          "type": "address"
        }
      ],
      "name": "adminApprovalToAdd",
      "outputs": [
        {
          "internalType": "bool",
          "name": "",
          "type": "bool"
        }
      ],
      "stateMutability": "view",
      "type": "function"
    },
    {
      "inputs": [
        {
          "internalType": "uint256",
          "name": "",
          "type": "uint256"
        }
      ],
      "name": "adminList",
      "outputs": [
        {
          "internalType": "address",
          "name": "addr",
          "type": "address"
        },
        {
          "internalType": "bytes",
          "name": "id",
          "type": "bytes"
        }
      ],
      "stateMutability": "view",
      "type": "function"
    },
    {
      "inputs": [
        {
          "internalType": "address",
          "name": "",
          "type": "address"
        },
        {
          "internalType": "address",
          "name": "",
          "type": "address"
        }
      ],
      "name": "allowance",
      "outputs": [
        {
          "internalType": "uint256",
          "name": "",
          "type": "uint256"
        }
      ],
      "stateMutability": "view",
      "type": "function"
    },
    {
      "inputs": [
        {
          "internalType": "address",
          "name": "_spender",
          "type": "address"
        },
        {
          "internalType": "uint256",
          "name": "_value",
          "type": "uint256"
        }
      ],
      "name": "approve",
      "outputs": [
        {
          "internalType": "bool",
          "name": "success",
          "type": "bool"
        }
      ],
      "stateMutability": "nonpayable",
      "type": "function"
    },
    {
      "inputs": [
        {
          "internalType": "address",
          "name": "_spender",
          "type": "address"
        },
        {
          "internalType": "uint256",
          "name": "_value",
          "type": "uint256"
        },
        {
          "internalType": "bytes",
          "name": "_extraData",
          "type": "bytes"
        }
      ],
      "name": "approveAndCall",
      "outputs": [
        {
          "internalType": "bool",
          "name": "success",
          "type": "bool"
        }
      ],
      "stateMutability": "nonpayable",
      "type": "function"
    },
    {
      "inputs": [
        {
          "internalType": "address",
          "name": "",
          "type": "address"
        }
      ],
      "name": "balanceOf",
      "outputs": [
        {
          "internalType": "uint256",
          "name": "",
          "type": "uint256"
        }
      ],
      "stateMutability": "view",
      "type": "function"
    },
    {
      "inputs": [
        {
          "internalType": "address",
          "name": "",
          "type": "address"
        }
      ],
      "name": "balanceof",
      "outputs": [
        {
          "internalType": "uint256",
          "name": "",
          "type": "uint256"
        }
      ],
      "stateMutability": "view",
      "type": "function"
    },
    {
      "inputs": [
        {
          "internalType": "uint256",
          "name": "_value",
          "type": "uint256"
        }
      ],
      "name": "burn",
      "outputs": [
        {
          "internalType": "bool",
          "name": "success",
          "type": "bool"
        }
      ],
      "stateMutability": "nonpayable",
      "type": "function"
    },
    {
      "inputs": [
        {
          "internalType": "address",
          "name": "_from",
          "type": "address"
        },
        {
          "internalType": "uint256",
          "name": "_value",
          "type": "uint256"
        }
      ],
      "name": "burnFrom",
      "outputs": [
        {
          "internalType": "bool",
          "name": "success",
          "type": "bool"
        }
      ],
      "stateMutability": "nonpayable",
      "type": "function"
    },
    {
      "inputs": [],
      "name": "decimals",
      "outputs": [
        {
          "internalType": "uint8",
          "name": "",
          "type": "uint8"
        }
      ],
      "stateMutability": "view",
      "type": "function"
    },
    {
      "inputs": [
        {
          "internalType": "address",
          "name": "",
          "type": "address"
        }
      ],
      "name": "frozenAccounts",
      "outputs": [
        {
          "internalType": "bool",
          "name": "",
          "type": "bool"
        }
      ],
      "stateMutability": "view",
      "type": "function"
    },
    {
      "inputs": [
        {
          "internalType": "address",
          "name": "",
          "type": "address"
        },
        {
          "internalType": "bytes",
          "name": "",
          "type": "bytes"
        }
      ],
      "name": "ifStorefAvailable",
      "outputs": [
        {
          "internalType": "bool",
          "name": "",
          "type": "bool"
        }
      ],
      "stateMutability": "view",
      "type": "function"
    },
    {
      "inputs": [
        {
          "internalType": "address",
          "name": "",
          "type": "address"
        }
      ],
      "name": "isAdmin",
      "outputs": [
        {
          "internalType": "bool",
          "name": "",
          "type": "bool"
        }
      ],
      "stateMutability": "view",
      "type": "function"
    },
    {
      "inputs": [
        {
          "internalType": "address",
          "name": "",
          "type": "address"
        }
      ],
      "name": "isStoreOwnerApproved",
      "outputs": [
        {
          "internalType": "bool",
          "name": "",
          "type": "bool"
        }
      ],
      "stateMutability": "view",
      "type": "function"
    },
    {
      "inputs": [
        {
          "internalType": "uint256",
          "name": "",
          "type": "uint256"
        }
      ],
      "name": "itemList",
      "outputs": [
        {
          "internalType": "string",
          "name": "name",
          "type": "string"
        },
        {
          "internalType": "uint256",
          "name": "price",
          "type": "uint256"
        },
        {
          "internalType": "uint256",
          "name": "quantity",
          "type": "uint256"
        },
        {
          "internalType": "address payable",
          "name": "sellerAddress",
          "type": "address"
        },
        {
          "internalType": "bytes",
          "name": "itemRef",
          "type": "bytes"
        },
        {
          "internalType": "enum GMart.ItemStatus",
          "name": "status",
          "type": "uint8"
        },
        {
          "internalType": "bytes",
          "name": "description",
          "type": "bytes"
        },
        {
          "internalType": "uint256",
          "name": "itemCountId",
          "type": "uint256"
        }
      ],
      "stateMutability": "view",
      "type": "function"
    },
    {
      "inputs": [
        {
          "internalType": "address",
          "name": "",
          "type": "address"
        },
        {
          "internalType": "bytes",
          "name": "",
          "type": "bytes"
        }
      ],
      "name": "itemMap",
      "outputs": [
        {
          "internalType": "string",
          "name": "name",
          "type": "string"
        },
        {
          "internalType": "uint256",
          "name": "price",
          "type": "uint256"
        },
        {
          "internalType": "uint256",
          "name": "quantity",
          "type": "uint256"
        },
        {
          "internalType": "address payable",
          "name": "sellerAddress",
          "type": "address"
        },
        {
          "internalType": "bytes",
          "name": "itemRef",
          "type": "bytes"
        },
        {
          "internalType": "enum GMart.ItemStatus",
          "name": "status",
          "type": "uint8"
        },
        {
          "internalType": "bytes",
          "name": "description",
          "type": "bytes"
        },
        {
          "internalType": "uint256",
          "name": "itemCountId",
          "type": "uint256"
        }
      ],
      "stateMutability": "view",
      "type": "function"
    },
    {
      "inputs": [],
      "name": "name",
      "outputs": [
        {
          "internalType": "string",
          "name": "",
          "type": "string"
        }
      ],
      "stateMutability": "view",
      "type": "function"
    },
    {
      "inputs": [],
      "name": "owner",
      "outputs": [
        {
          "internalType": "address",
          "name": "",
          "type": "address"
        }
      ],
      "stateMutability": "view",
      "type": "function"
    },
    {
      "inputs": [
        {
          "internalType": "address",
          "name": "",
          "type": "address"
        },
        {
          "internalType": "bytes",
          "name": "",
          "type": "bytes"
        }
      ],
      "name": "ownerShip",
      "outputs": [
        {
          "internalType": "bool",
          "name": "",
          "type": "bool"
        }
      ],
      "stateMutability": "view",
      "type": "function"
    },
    {
      "inputs": [
        {
          "internalType": "address",
          "name": "",
          "type": "address"
        }
      ],
      "name": "shoppers",
      "outputs": [
        {
          "internalType": "uint256",
          "name": "",
          "type": "uint256"
        }
      ],
      "stateMutability": "view",
      "type": "function"
    },
    {
      "inputs": [
        {
          "internalType": "address",
          "name": "",
          "type": "address"
        }
      ],
      "name": "storeOwnerApprovalToAddItem",
      "outputs": [
        {
          "internalType": "bool",
          "name": "",
          "type": "bool"
        }
      ],
      "stateMutability": "view",
      "type": "function"
    },
    {
      "inputs": [
        {
          "internalType": "uint256",
          "name": "",
          "type": "uint256"
        }
      ],
      "name": "storeOwnerslist",
      "outputs": [
        {
          "internalType": "address",
          "name": "addr",
          "type": "address"
        },
        {
          "internalType": "bytes",
          "name": "id",
          "type": "bytes"
        }
      ],
      "stateMutability": "view",
      "type": "function"
    },
    {
      "inputs": [
        {
          "internalType": "address",
          "name": "",
          "type": "address"
        }
      ],
      "name": "storef",
      "outputs": [
        {
          "internalType": "bytes",
          "name": "",
          "type": "bytes"
        }
      ],
      "stateMutability": "view",
      "type": "function"
    },
    {
      "inputs": [],
      "name": "symbol",
      "outputs": [
        {
          "internalType": "string",
          "name": "",
          "type": "string"
        }
      ],
      "stateMutability": "view",
      "type": "function"
    },
    {
      "inputs": [],
      "name": "totalSupply",
      "outputs": [
        {
          "internalType": "uint256",
          "name": "",
          "type": "uint256"
        }
      ],
      "stateMutability": "view",
      "type": "function"
    },
    {
      "inputs": [
        {
          "internalType": "address",
          "name": "_to",
          "type": "address"
        },
        {
          "internalType": "uint256",
          "name": "_value",
          "type": "uint256"
        }
      ],
      "name": "transfer",
      "outputs": [
        {
          "internalType": "bool",
          "name": "success",
          "type": "bool"
        }
      ],
      "stateMutability": "nonpayable",
      "type": "function"
    },
    {
      "inputs": [
        {
          "internalType": "address",
          "name": "_from",
          "type": "address"
        },
        {
          "internalType": "address",
          "name": "_to",
          "type": "address"
        },
        {
          "internalType": "uint256",
          "name": "_value",
          "type": "uint256"
        }
      ],
      "name": "transferFrom",
      "outputs": [
        {
          "internalType": "bool",
          "name": "success",
          "type": "bool"
        }
      ],
      "stateMutability": "nonpayable",
      "type": "function"
    },
    {
      "stateMutability": "payable",
      "type": "receive"
    },
    {
      "inputs": [
        {
          "internalType": "address",
          "name": "_newOwner",
          "type": "address"
        }
      ],
      "name": "transferOwnership",
      "outputs": [],
      "stateMutability": "nonpayable",
      "type": "function"
    },
    {
      "inputs": [
        {
          "internalType": "address",
          "name": "target",
          "type": "address"
        },
        {
          "internalType": "uint256",
          "name": "mintedAmount",
          "type": "uint256"
        }
      ],
      "name": "mintToken",
      "outputs": [],
      "stateMutability": "nonpayable",
      "type": "function"
    },
    {
      "inputs": [
        {
          "internalType": "address",
          "name": "target",
          "type": "address"
        },
        {
          "internalType": "bool",
          "name": "freeze",
          "type": "bool"
        }
      ],
      "name": "freezeAccount",
      "outputs": [],
      "stateMutability": "nonpayable",
      "type": "function"
    },
    {
      "inputs": [
        {
          "internalType": "address",
          "name": "_from",
          "type": "address"
        },
        {
          "internalType": "address",
          "name": "_to",
          "type": "address"
        },
        {
          "internalType": "uint256",
          "name": "_value",
          "type": "uint256"
        }
      ],
      "name": "transferTokenFrom",
      "outputs": [
        {
          "internalType": "bool",
          "name": "success",
          "type": "bool"
        }
      ],
      "stateMutability": "nonpayable",
      "type": "function"
    },
    {
      "inputs": [
        {
          "internalType": "address",
          "name": "_spender",
          "type": "address"
        },
        {
          "internalType": "uint256",
          "name": "_value",
          "type": "uint256"
        }
      ],
      "name": "approveSpender",
      "outputs": [],
      "stateMutability": "nonpayable",
      "type": "function"
    },
    {
      "inputs": [
        {
          "internalType": "address",
          "name": "_spender",
          "type": "address"
        },
        {
          "internalType": "uint256",
          "name": "_value",
          "type": "uint256"
        },
        {
          "internalType": "bytes",
          "name": "_extraData",
          "type": "bytes"
        }
      ],
      "name": "approveandCall",
      "outputs": [],
      "stateMutability": "nonpayable",
      "type": "function"
    },
    {
      "inputs": [
        {
          "internalType": "uint256",
          "name": "_value",
          "type": "uint256"
        }
      ],
      "name": "burnToken",
      "outputs": [],
      "stateMutability": "nonpayable",
      "type": "function"
    },
    {
      "inputs": [
        {
          "internalType": "address",
          "name": "_from",
          "type": "address"
        },
        {
          "internalType": "uint256",
          "name": "_value",
          "type": "uint256"
        }
      ],
      "name": "burnTokenFrom",
      "outputs": [],
      "stateMutability": "nonpayable",
      "type": "function"
    },
    {
      "inputs": [
        {
          "internalType": "address",
          "name": "_addr",
          "type": "address"
        },
        {
          "internalType": "bool",
          "name": "_approval",
          "type": "bool"
        }
      ],
      "name": "addAdmin",
      "outputs": [
        {
          "internalType": "bool",
          "name": "",
          "type": "bool"
        }
      ],
      "stateMutability": "nonpayable",
      "type": "function"
    },
    {
      "inputs": [
        {
          "internalType": "address",
          "name": "_addr",
          "type": "address"
        }
      ],
      "name": "checkIsAdmin",
      "outputs": [
        {
          "internalType": "bool",
          "name": "",
          "type": "bool"
        },
        {
          "internalType": "bool",
          "name": "",
          "type": "bool"
        }
      ],
      "stateMutability": "view",
      "type": "function"
    },
    {
      "inputs": [
        {
          "internalType": "address",
          "name": "_addr",
          "type": "address"
        }
      ],
      "name": "checkStoreOwnerApproved",
      "outputs": [
        {
          "internalType": "bool",
          "name": "",
          "type": "bool"
        },
        {
          "internalType": "bool",
          "name": "",
          "type": "bool"
        }
      ],
      "stateMutability": "view",
      "type": "function"
    },
    {
      "inputs": [
        {
          "internalType": "address payable",
          "name": "_addr",
          "type": "address"
        },
        {
          "internalType": "bool",
          "name": "_approval",
          "type": "bool"
        }
      ],
      "name": "approve_StoreOwner",
      "outputs": [
        {
          "internalType": "bool",
          "name": "successful",
          "type": "bool"
        }
      ],
      "stateMutability": "nonpayable",
      "type": "function"
    },
    {
      "inputs": [
        {
          "internalType": "address",
          "name": "_addr",
          "type": "address"
        },
        {
          "internalType": "bool",
          "name": "_approval",
          "type": "bool"
        }
      ],
      "name": "changeAdminApproval",
      "outputs": [],
      "stateMutability": "nonpayable",
      "type": "function"
    },
    {
      "inputs": [
        {
          "internalType": "address",
          "name": "_addr",
          "type": "address"
        },
        {
          "internalType": "bool",
          "name": "_approval",
          "type": "bool"
        }
      ],
      "name": "changeStoreOwnerApproval",
      "outputs": [],
      "stateMutability": "nonpayable",
      "type": "function"
    },
    {
      "inputs": [
        {
          "internalType": "string",
          "name": "_storeName",
          "type": "string"
        },
        {
          "internalType": "string",
          "name": "_itemName",
          "type": "string"
        },
        {
          "internalType": "string",
          "name": "_description",
          "type": "string"
        },
        {
          "internalType": "uint256",
          "name": "_price",
          "type": "uint256"
        },
        {
          "internalType": "uint256",
          "name": "_quantity",
          "type": "uint256"
        }
      ],
      "name": "addStorefront",
      "outputs": [
        {
          "internalType": "bool",
          "name": "success",
          "type": "bool"
        }
      ],
      "stateMutability": "nonpayable",
      "type": "function"
    },
    {
      "inputs": [
        {
          "internalType": "bytes",
          "name": "_ref",
          "type": "bytes"
        }
      ],
      "name": "getStoreDetail",
      "outputs": [
        {
          "internalType": "string",
          "name": "",
          "type": "string"
        },
        {
          "internalType": "uint256",
          "name": "",
          "type": "uint256"
        },
        {
          "internalType": "address",
          "name": "",
          "type": "address"
        },
        {
          "internalType": "bytes",
          "name": "",
          "type": "bytes"
        },
        {
          "internalType": "bool",
          "name": "",
          "type": "bool"
        },
        {
          "internalType": "uint256",
          "name": "",
          "type": "uint256"
        }
      ],
      "stateMutability": "view",
      "type": "function"
    },
    {
      "inputs": [
        {
          "internalType": "string",
          "name": "_itemName",
          "type": "string"
        },
        {
          "internalType": "string",
          "name": "_description",
          "type": "string"
        },
        {
          "internalType": "uint256",
          "name": "_price",
          "type": "uint256"
        },
        {
          "internalType": "bytes",
          "name": "_storeRef",
          "type": "bytes"
        },
        {
          "internalType": "uint256",
          "name": "_qnty",
          "type": "uint256"
        }
      ],
      "name": "addItemToStore",
      "outputs": [
        {
          "components": [
            {
              "internalType": "string",
              "name": "name",
              "type": "string"
            },
            {
              "internalType": "uint256",
              "name": "price",
              "type": "uint256"
            },
            {
              "internalType": "uint256",
              "name": "quantity",
              "type": "uint256"
            },
            {
              "internalType": "address payable",
              "name": "sellerAddress",
              "type": "address"
            },
            {
              "internalType": "bytes",
              "name": "itemRef",
              "type": "bytes"
            },
            {
              "internalType": "enum GMart.ItemStatus",
              "name": "status",
              "type": "uint8"
            },
            {
              "internalType": "bytes",
              "name": "description",
              "type": "bytes"
            },
            {
              "internalType": "uint256",
              "name": "itemCountId",
              "type": "uint256"
            }
          ],
          "internalType": "struct GMart.Item",
          "name": "_newItem",
          "type": "tuple"
        }
      ],
      "stateMutability": "nonpayable",
      "type": "function"
    },
    {
      "inputs": [
        {
          "internalType": "bytes",
          "name": "_itemRef",
          "type": "bytes"
        }
      ],
      "name": "removeAnItem",
      "outputs": [],
      "stateMutability": "nonpayable",
      "type": "function"
    },
    {
      "inputs": [
        {
          "internalType": "bytes",
          "name": "_ref",
          "type": "bytes"
        }
      ],
      "name": "removeAStore",
      "outputs": [],
      "stateMutability": "nonpayable",
      "type": "function"
    },
    {
      "inputs": [
        {
          "internalType": "uint256",
          "name": "_newPrice",
          "type": "uint256"
        },
        {
          "internalType": "bytes",
          "name": "_itemRef",
          "type": "bytes"
        }
      ],
      "name": "adjustPrice",
      "outputs": [],
      "stateMutability": "nonpayable",
      "type": "function"
    },
    {
      "inputs": [
        {
          "internalType": "bytes",
          "name": "_itemRef",
          "type": "bytes"
        },
        {
          "internalType": "uint256",
          "name": "_qnty",
          "type": "uint256"
        }
      ],
      "name": "buyItem",
      "outputs": [
        {
          "internalType": "bool",
          "name": "success",
          "type": "bool"
        }
      ],
      "stateMutability": "payable",
      "type": "function"
    },
    {
      "inputs": [
        {
          "internalType": "address payable",
          "name": "_addr",
          "type": "address"
        },
        {
          "internalType": "uint256",
          "name": "_amount",
          "type": "uint256"
        }
      ],
      "name": "withdrawBalanceStoreOwner",
      "outputs": [
        {
          "internalType": "bool",
          "name": "success",
          "type": "bool"
        }
      ],
      "stateMutability": "payable",
      "type": "function"
    },
    {
      "inputs": [
        {
          "internalType": "address",
          "name": "_addr",
          "type": "address"
        }
      ],
      "name": "deleteAdmin",
      "outputs": [
        {
          "internalType": "bool",
          "name": "success",
          "type": "bool"
        }
      ],
      "stateMutability": "nonpayable",
      "type": "function"
    },
    {
      "inputs": [
        {
          "internalType": "address",
          "name": "_addr",
          "type": "address"
        },
        {
          "internalType": "bytes",
          "name": "_ref",
          "type": "bytes"
        }
      ],
      "name": "unregisterStore",
      "outputs": [
        {
          "internalType": "bool",
          "name": "success",
          "type": "bool"
        }
      ],
      "stateMutability": "nonpayable",
      "type": "function"
    },
    {
      "inputs": [
        {
          "internalType": "uint256",
          "name": "_amount",
          "type": "uint256"
        }
      ],
      "name": "withdraw",
      "outputs": [],
      "stateMutability": "payable",
      "type": "function"
    }
  ],
  "bytecode": "0x60806040526012600260006101000a81548160ff021916908360ff160217905550735b38da6a701c568545dcfcb03fcb875f56beddc4600760006101000a81548173ffffffffffffffffffffffffffffffffffffffff021916908373ffffffffffffffffffffffffffffffffffffffff1602179055506000600855600a600960006101000a81548160ff021916908360ff1602179055506000600960016101000a81548160ff021916908360ff160217905550600180811115620000bf57fe5b600b60006101000a81548160ff02191690836001811115620000dd57fe5b021790555060006001811115620000f057fe5b600b60016101000a81548160ff021916908360018111156200010e57fe5b02179055503480156200012057600080fd5b506207a1206040518060400160405280600a81526020017f676d617274746f6b656e000000000000000000000000000000000000000000008152506040518060400160405280600381526020017f474d540000000000000000000000000000000000000000000000000000000000815250600260009054906101000a900460ff1660ff16600a0a8302600381905550600354600460003373ffffffffffffffffffffffffffffffffffffffff1673ffffffffffffffffffffffffffffffffffffffff1681526020019081526020016000208190555081600090805190602001906200020d92919062000230565b5080600190805190602001906200022692919062000230565b50505050620002df565b828054600181600116156101000203166002900490600052602060002090601f016020900481019282601f106200027357805160ff1916838001178555620002a4565b82800160010185558215620002a4579182015b82811115620002a357825182559160200191906001019062000286565b5b509050620002b39190620002b7565b5090565b620002dc91905b80821115620002d8576000816000905550600101620002be565b5090565b90565b61802580620002ef6000396000f3fe6080604052600436106103035760003560e01c806371c2fc9e11610190578063ad221195116100dc578063dd62ed3e11610095578063f2fde38b1161006f578063f2fde38b14610d5e578063f33204a914610d87578063f94a52ba14610dc4578063fba855d014610e0157610343565b8063dd62ed3e14610cc8578063e724529c14610d05578063e9113f3414610d2e57610343565b8063ad22119514610b6d578063bacefbb514610baa578063cae9ca5114610be7578063cc3885d514610c24578063d953689d14610c4d578063db9ab0ce14610c8b57610343565b80638efca0dd11610149578063a07804fc11610123578063a07804fc14610a78578063a4230bd514610ab6578063a9059cbb14610af3578063aafa9b8814610b3057610343565b80638efca0dd146109d357806395d89b4114610a105780639aadffe514610a3b57610343565b806371c2fc9e146108b357806379c65068146108dc57806379cc6790146109055780637b47ec1a14610942578063860838a51461096b5780638da5cb5b146109a857610343565b80632f9867351161024f5780634eb43aa511610208578063613a835e116101e2578063613a835e146107f45780636df291011461081d5780636fd2e7931461084657806370a082311461087657610343565b80634eb43aa51461075e57806350152f84146107875780635af7bb7d146107cb57610343565b80632f986735146105fb578063313ce567146106385780633d4d3600146106635780633d64125b146106a757806342966c68146106e45780634c2e025b1461072157610343565b806318160ddd116102bc57806324d7806c1161029657806324d7806c14610528578063256e49d31461056557806327e1f7df146105a25780632e1a7d4d146105df57610343565b806318160ddd1461049757806322c86bc2146104c257806323b872dd146104eb57610343565b806306fdde0314610348578063080d7c4d14610373578063095ea7b31461039c5780630a97c55a146103d95780630fc970a61461041b57806311117fc81461045957610343565b36610343577fa419615bc8fda4c87663805ee2a3597a6d71c1d476911d9892f340d965bc7bf13334604051610339929190617660565b60405180910390a1005b600080fd5b34801561035457600080fd5b5061035d610e3e565b60405161036a91906178d2565b60405180910390f35b34801561037f57600080fd5b5061039a60048036036103959190810190616969565b610edc565b005b3480156103a857600080fd5b506103c360048036036103be9190810190616969565b610f50565b6040516103d091906177e1565b60405180910390f35b3480156103e557600080fd5b5061040060048036036103fb9190810190616a0c565b611042565b6040516104129695949392919061792b565b60405180910390f35b34801561042757600080fd5b50610442600480360361043d9190810190616c1f565b611464565b604051610450929190617788565b60405180910390f35b34801561046557600080fd5b50610480600480360361047b9190810190616c1f565b61154d565b60405161048e929190617788565b60405180910390f35b3480156104a357600080fd5b506104ac611636565b6040516104b99190617d0f565b60405180910390f35b3480156104ce57600080fd5b506104e960048036036104e49190810190616885565b61163c565b005b3480156104f757600080fd5b50610512600480360361050d9190810190616836565b6117ba565b60405161051f91906177e1565b60405180910390f35b34801561053457600080fd5b5061054f600480360361054a9190810190616759565b6118e5565b60405161055c91906177e1565b60405180910390f35b34801561057157600080fd5b5061058c60048036036105879190810190616aa1565b611905565b60405161059991906177e1565b60405180910390f35b3480156105ae57600080fd5b506105c960048036036105c49190810190616759565b611f97565b6040516105d691906177e1565b60405180910390f35b6105f960048036036105f49190810190616c1f565b61211a565b005b34801561060757600080fd5b50610622600480360361061d9190810190616915565b6121f4565b60405161062f91906177e1565b60405180910390f35b34801561064457600080fd5b5061064d612511565b60405161065a9190617d2a565b60405180910390f35b34801561066f57600080fd5b5061068a60048036036106859190810190616c1f565b612524565b60405161069e98979695949392919061799a565b60405180910390f35b3480156106b357600080fd5b506106ce60048036036106c99190810190616759565b61276e565b6040516106db9190617d0f565b60405180910390f35b3480156106f057600080fd5b5061070b60048036036107069190810190616c1f565b612785565b60405161071891906177e1565b60405180910390f35b34801561072d57600080fd5b50610748600480360361074391908101906168c1565b612887565b60405161075591906177e1565b60405180910390f35b34801561076a57600080fd5b5061078560048036036107809190810190616c48565b6128cc565b005b34801561079357600080fd5b506107ae60048036036107a991908101906168c1565b612e35565b6040516107c298979695949392919061799a565b60405180910390f35b3480156107d757600080fd5b506107f260048036036107ed9190810190616a0c565b613095565b005b34801561080057600080fd5b5061081b60048036036108169190810190616885565b613225565b005b34801561082957600080fd5b50610844600480360361083f9190810190616a0c565b613439565b005b610860600480360361085b91908101906167be565b613705565b60405161086d91906177e1565b60405180910390f35b34801561088257600080fd5b5061089d60048036036108989190810190616759565b6139b1565b6040516108aa9190617d0f565b60405180910390f35b3480156108bf57600080fd5b506108da60048036036108d59190810190616969565b6139c9565b005b3480156108e857600080fd5b5061090360048036036108fe9190810190616969565b6139d8565b005b34801561091157600080fd5b5061092c60048036036109279190810190616969565b613b94565b60405161093991906177e1565b60405180910390f35b34801561094e57600080fd5b5061096960048036036109649190810190616c1f565b613daa565b005b34801561097757600080fd5b50610992600480360361098d9190810190616759565b613db7565b60405161099f91906177e1565b60405180910390f35b3480156109b457600080fd5b506109bd613dd7565b6040516109ca9190617615565b60405180910390f35b3480156109df57600080fd5b506109fa60048036036109f59190810190616759565b613dfd565b604051610a0791906177e1565b60405180910390f35b348015610a1c57600080fd5b50610a25613e1d565b604051610a3291906178d2565b60405180910390f35b348015610a4757600080fd5b50610a626004803603610a5d9190810190616b60565b613ebb565b604051610a6f9190617ced565b60405180910390f35b348015610a8457600080fd5b50610a9f6004803603610a9a9190810190616759565b61470f565b604051610aad9291906177fc565b60405180910390f35b348015610ac257600080fd5b50610add6004803603610ad89190810190616885565b6147b5565b604051610aea91906177e1565b60405180910390f35b348015610aff57600080fd5b50610b1a6004803603610b159190810190616969565b614c7e565b604051610b2791906177e1565b60405180910390f35b348015610b3c57600080fd5b50610b576004803603610b5291908101906168c1565b614c95565b604051610b6491906177e1565b60405180910390f35b348015610b7957600080fd5b50610b946004803603610b8f9190810190616836565b614cda565b604051610ba191906177e1565b60405180910390f35b348015610bb657600080fd5b50610bd16004803603610bcc9190810190616782565b614da1565b604051610bde91906177e1565b60405180910390f35b348015610bf357600080fd5b50610c0e6004803603610c0991908101906169a5565b6152b6565b604051610c1b91906177e1565b60405180910390f35b348015610c3057600080fd5b50610c4b6004803603610c4691908101906169a5565b61534f565b005b348015610c5957600080fd5b50610c746004803603610c6f9190810190616759565b615360565b604051610c829291906177fc565b60405180910390f35b348015610c9757600080fd5b50610cb26004803603610cad9190810190616759565b615406565b604051610cbf91906177e1565b60405180910390f35b348015610cd457600080fd5b50610cef6004803603610cea91908101906167fa565b615426565b604051610cfc9190617d0f565b60405180910390f35b348015610d1157600080fd5b50610d2c6004803603610d279190810190616885565b61544b565b005b610d486004803603610d439190810190616a4d565b61556f565b604051610d5591906177e1565b60405180910390f35b348015610d6a57600080fd5b50610d856004803603610d809190810190616759565b615cd8565b005b348015610d9357600080fd5b50610dae6004803603610da99190810190616759565b615dac565b604051610dbb91906177e1565b60405180910390f35b348015610dd057600080fd5b50610deb6004803603610de69190810190616759565b615dcc565b604051610df89190617857565b60405180910390f35b348015610e0d57600080fd5b50610e286004803603610e239190810190616759565b615e7c565b604051610e359190617d0f565b60405180910390f35b60008054600181600116156101000203166002900480601f016020809104026020016040519081016040528092919081815260200182805460018160011615610100020316600290048015610ed45780601f10610ea957610100808354040283529160200191610ed4565b820191906000526020600020905b815481529060010190602001808311610eb757829003601f168201915b505050505081565b610ee68282610f50565b508173ffffffffffffffffffffffffffffffffffffffff163373ffffffffffffffffffffffffffffffffffffffff167f8c5be1e5ebec7d5bd14f71427d1e84f3dd0314c0f7b2291e5b200ac8c7c3b92583604051610f449190617d0f565b60405180910390a35050565b600081600560003373ffffffffffffffffffffffffffffffffffffffff1673ffffffffffffffffffffffffffffffffffffffff16815260200190815260200160002060008573ffffffffffffffffffffffffffffffffffffffff1673ffffffffffffffffffffffffffffffffffffffff168152602001908152602001600020819055508273ffffffffffffffffffffffffffffffffffffffff163373ffffffffffffffffffffffffffffffffffffffff167f8c5be1e5ebec7d5bd14f71427d1e84f3dd0314c0f7b2291e5b200ac8c7c3b925846040516110309190617d0f565b60405180910390a36001905092915050565b6060600080606060008060011515601360003373ffffffffffffffffffffffffffffffffffffffff1673ffffffffffffffffffffffffffffffffffffffff16815260200190815260200160002060009054906101000a900460ff161515146110df576040517f08c379a00000000000000000000000000000000000000000000000000000000081526004016110d690617c4d565b60405180910390fd5b60011515601560003373ffffffffffffffffffffffffffffffffffffffff1673ffffffffffffffffffffffffffffffffffffffff16815260200190815260200160002060009054906101000a900460ff16151514611172576040517f08c379a000000000000000000000000000000000000000000000000000000000815260040161116990617c2d565b60405180910390fd5b60011515601660003373ffffffffffffffffffffffffffffffffffffffff1673ffffffffffffffffffffffffffffffffffffffff168152602001908152602001600020886040516111c391906175fe565b908152602001604051809103902060009054906101000a900460ff16151514611221576040517f08c379a000000000000000000000000000000000000000000000000000000000815260040161121890617b0d565b60405180910390fd5b6112296161b9565b60198860405161123991906175fe565b90815260200160405180910390206040518060e00160405290816000820160009054906101000a900473ffffffffffffffffffffffffffffffffffffffff1673ffffffffffffffffffffffffffffffffffffffff1673ffffffffffffffffffffffffffffffffffffffff168152602001600182018054600181600116156101000203166002900480601f0160208091040260200160405190810160405280929190818152602001828054600181600116156101000203166002900480156113415780601f1061131657610100808354040283529160200191611341565b820191906000526020600020905b81548152906001019060200180831161132457829003601f168201915b50505050508152602001600282018054600181600116156101000203166002900480601f0160208091040260200160405190810160405280929190818152602001828054600181600116156101000203166002900480156113e35780601f106113b8576101008083540402835291602001916113e3565b820191906000526020600020905b8154815290600101906020018083116113c657829003601f168201915b50505050508152602001600382015481526020016004820160009054906101000a900460ff16151515158152602001600582015481526020016006820154815250509050806020015181606001518260000151836040015184608001518560a001518595508393508292509650965096509650965096505091939550919395565b600d818154811061147157fe5b90600052602060002090600202016000915090508060000160009054906101000a900473ffffffffffffffffffffffffffffffffffffffff1690806001018054600181600116156101000203166002900480601f0160208091040260200160405190810160405280929190818152602001828054600181600116156101000203166002900480156115435780601f1061151857610100808354040283529160200191611543565b820191906000526020600020905b81548152906001019060200180831161152657829003601f168201915b5050505050905082565b600c818154811061155a57fe5b90600052602060002090600202016000915090508060000160009054906101000a900473ffffffffffffffffffffffffffffffffffffffff1690806001018054600181600116156101000203166002900480601f01602080910402602001604051908101604052809291908181526020018280546001816001161561010002031660029004801561162c5780601f106116015761010080835404028352916020019161162c565b820191906000526020600020905b81548152906001019060200180831161160f57829003601f168201915b5050505050905082565b60035481565b600760009054906101000a900473ffffffffffffffffffffffffffffffffffffffff1673ffffffffffffffffffffffffffffffffffffffff163373ffffffffffffffffffffffffffffffffffffffff16146116cc576040517f08c379a00000000000000000000000000000000000000000000000000000000081526004016116c390617aed565b60405180910390fd5b60011515601060008473ffffffffffffffffffffffffffffffffffffffff1673ffffffffffffffffffffffffffffffffffffffff16815260200190815260200160002060009054906101000a900460ff1615151461175f576040517f08c379a000000000000000000000000000000000000000000000000000000000815260040161175690617b2d565b60405180910390fd5b80601260008473ffffffffffffffffffffffffffffffffffffffff1673ffffffffffffffffffffffffffffffffffffffff16815260200190815260200160002060006101000a81548160ff0219169083151502179055505050565b6000600560008573ffffffffffffffffffffffffffffffffffffffff1673ffffffffffffffffffffffffffffffffffffffff16815260200190815260200160002060003373ffffffffffffffffffffffffffffffffffffffff1673ffffffffffffffffffffffffffffffffffffffff1681526020019081526020016000205482111561184557600080fd5b81600560008673ffffffffffffffffffffffffffffffffffffffff1673ffffffffffffffffffffffffffffffffffffffff16815260200190815260200160002060003373ffffffffffffffffffffffffffffffffffffffff1673ffffffffffffffffffffffffffffffffffffffff168152602001908152602001600020600082825403925050819055506118da848484615e94565b600190509392505050565b60106020528060005260406000206000915054906101000a900460ff1681565b600060011515601360003373ffffffffffffffffffffffffffffffffffffffff1673ffffffffffffffffffffffffffffffffffffffff16815260200190815260200160002060009054906101000a900460ff1615151461199a576040517f08c379a000000000000000000000000000000000000000000000000000000000815260040161199190617c4d565b60405180910390fd5b60011515601560003373ffffffffffffffffffffffffffffffffffffffff1673ffffffffffffffffffffffffffffffffffffffff16815260200190815260200160002060009054906101000a900460ff16151514611a2d576040517f08c379a0000000000000000000000000000000000000000000000000000000008152600401611a2490617c2d565b60405180910390fd5b611a356161b9565b611a3d61620e565b60603389604051602001611a52929190617630565b604051602081830303815290604052905060001515601660003373ffffffffffffffffffffffffffffffffffffffff1673ffffffffffffffffffffffffffffffffffffffff16815260200190815260200160002082604051611ab491906175fe565b908152602001604051809103902060009054906101000a900460ff16151514611b12576040517f08c379a0000000000000000000000000000000000000000000000000000000008152600401611b0990617cad565b60405180910390fd5b6003601860003373ffffffffffffffffffffffffffffffffffffffff1673ffffffffffffffffffffffffffffffffffffffff16815260200190815260200160002082604051611b6191906175fe565b90815260200160405180910390208054905010611bb3576040517f08c379a0000000000000000000000000000000000000000000000000000000008152600401611baa90617acd565b60405180910390fd5b600f420383606001818152505088836020018190525033836000019073ffffffffffffffffffffffffffffffffffffffff16908173ffffffffffffffffffffffffffffffffffffffff1681525050808360400181905250600183608001901515908115158152505060008360c001511415611c4957611c358888888489613ebb565b915060018360a00181815101915081815250505b601860003373ffffffffffffffffffffffffffffffffffffffff1673ffffffffffffffffffffffffffffffffffffffff16815260200190815260200160002081604051611c9691906175fe565b908152602001604051809103902083908060018154018082558091505060019003906000526020600020906007020160009091909190915060008201518160000160006101000a81548173ffffffffffffffffffffffffffffffffffffffff021916908373ffffffffffffffffffffffffffffffffffffffff1602179055506020820151816001019080519060200190611d31929190616274565b506040820151816002019080519060200190611d4e9291906162f4565b506060820151816003015560808201518160040160006101000a81548160ff02191690831515021790555060a0820151816005015560c0820151816006015550506001601660003373ffffffffffffffffffffffffffffffffffffffff1673ffffffffffffffffffffffffffffffffffffffff16815260200190815260200160002082604051611dde91906175fe565b908152602001604051809103902060006101000a81548160ff02191690831515021790555080601760003373ffffffffffffffffffffffffffffffffffffffff1673ffffffffffffffffffffffffffffffffffffffff1681526020019081526020016000209080519060200190611e56929190616374565b5082601982604051611e6891906175fe565b908152602001604051809103902060008201518160000160006101000a81548173ffffffffffffffffffffffffffffffffffffffff021916908373ffffffffffffffffffffffffffffffffffffffff1602179055506020820151816001019080519060200190611ed9929190616274565b506040820151816002019080519060200190611ef69291906162f4565b506060820151816003015560808201518160040160006101000a81548160ff02191690831515021790555060a0820151816005015560c082015181600601559050503373ffffffffffffffffffffffffffffffffffffffff167fdbdcd2e425f31dd11a419f878e87a4abe84525d72e62332de442619cbfbef737828a604051611f8092919061789b565b60405180910390a283935050505095945050505050565b6000600760009054906101000a900473ffffffffffffffffffffffffffffffffffffffff1673ffffffffffffffffffffffffffffffffffffffff163373ffffffffffffffffffffffffffffffffffffffff1614612029576040517f08c379a000000000000000000000000000000000000000000000000000000000815260040161202090617aed565b60405180910390fd5b60011515601060008473ffffffffffffffffffffffffffffffffffffffff1673ffffffffffffffffffffffffffffffffffffffff16815260200190815260200160002060009054906101000a900460ff161515146120bc576040517f08c379a00000000000000000000000000000000000000000000000000000000081526004016120b390617b8d565b60405180910390fd5b6000601060008473ffffffffffffffffffffffffffffffffffffffff1673ffffffffffffffffffffffffffffffffffffffff16815260200190815260200160002060006101000a81548160ff02191690831515021790559050919050565b600760009054906101000a900473ffffffffffffffffffffffffffffffffffffffff1673ffffffffffffffffffffffffffffffffffffffff163373ffffffffffffffffffffffffffffffffffffffff16146121aa576040517f08c379a00000000000000000000000000000000000000000000000000000000081526004016121a190617aed565b60405180910390fd5b3373ffffffffffffffffffffffffffffffffffffffff166108fc829081150290604051600060405180830381858888f193505050501580156121f0573d6000803e3d6000fd5b5050565b600060011515601060003373ffffffffffffffffffffffffffffffffffffffff1673ffffffffffffffffffffffffffffffffffffffff16815260200190815260200160002060009054906101000a900460ff16151514612289576040517f08c379a000000000000000000000000000000000000000000000000000000000815260040161228090617a8d565b60405180910390fd5b60011515601260003373ffffffffffffffffffffffffffffffffffffffff1673ffffffffffffffffffffffffffffffffffffffff16815260200190815260200160002060009054906101000a900460ff1615151461231c576040517f08c379a000000000000000000000000000000000000000000000000000000000815260040161231390617b6d565b60405180910390fd5b60011515601360008573ffffffffffffffffffffffffffffffffffffffff1673ffffffffffffffffffffffffffffffffffffffff16815260200190815260200160002060009054906101000a900460ff161515146123af576040517f08c379a00000000000000000000000000000000000000000000000000000000081526004016123a690617ccd565b60405180910390fd5b60011515601660008573ffffffffffffffffffffffffffffffffffffffff1673ffffffffffffffffffffffffffffffffffffffff1681526020019081526020016000208360405161240091906175fe565b908152602001604051809103902060009054906101000a900460ff1615151461245e576040517f08c379a000000000000000000000000000000000000000000000000000000000815260040161245590617a4d565b60405180910390fd5b601860008473ffffffffffffffffffffffffffffffffffffffff1673ffffffffffffffffffffffffffffffffffffffff168152602001908152602001600020826040516124ab91906175fe565b908152602001604051809103902060006124c591906163f4565b8273ffffffffffffffffffffffffffffffffffffffff167f3089b6625b46b77707154ce3d4aee9d7753f3988bfc42768528cd45f7817b42f60405160405180910390a280905092915050565b600260009054906101000a900460ff1681565b600f818154811061253157fe5b9060005260206000209060080201600091509050806000018054600181600116156101000203166002900480601f0160208091040260200160405190810160405280929190818152602001828054600181600116156101000203166002900480156125dd5780601f106125b2576101008083540402835291602001916125dd565b820191906000526020600020905b8154815290600101906020018083116125c057829003601f168201915b5050505050908060010154908060020154908060030160009054906101000a900473ffffffffffffffffffffffffffffffffffffffff1690806004018054600181600116156101000203166002900480601f0160208091040260200160405190810160405280929190818152602001828054600181600116156101000203166002900480156126ad5780601f10612682576101008083540402835291602001916126ad565b820191906000526020600020905b81548152906001019060200180831161269057829003601f168201915b5050505050908060050160009054906101000a900460ff1690806006018054600181600116156101000203166002900480601f01602080910402602001604051908101604052809291908181526020018280546001816001161561010002031660029004801561275e5780601f106127335761010080835404028352916020019161275e565b820191906000526020600020905b81548152906001019060200180831161274157829003601f168201915b5050505050908060070154905088565b602080528060005260406000206000915090505481565b600081600460003373ffffffffffffffffffffffffffffffffffffffff1673ffffffffffffffffffffffffffffffffffffffff1681526020019081526020016000205410156127d357600080fd5b81600460003373ffffffffffffffffffffffffffffffffffffffff1673ffffffffffffffffffffffffffffffffffffffff16815260200190815260200160002060008282540392505081905550816003600082825403925050819055503373ffffffffffffffffffffffffffffffffffffffff167fcc16f5dbb4873280815c1ee09dbd06736cffcc184412cf7a71a0fdb75d397ca5836040516128769190617d0f565b60405180910390a260019050919050565b601d602052816000526040600020818051602081018201805184825260208301602085012081835280955050505050506000915091509054906101000a900460ff1681565b60011515601360003373ffffffffffffffffffffffffffffffffffffffff1673ffffffffffffffffffffffffffffffffffffffff16815260200190815260200160002060009054906101000a900460ff1615151461295f576040517f08c379a000000000000000000000000000000000000000000000000000000000815260040161295690617c4d565b60405180910390fd5b60011515601560003373ffffffffffffffffffffffffffffffffffffffff1673ffffffffffffffffffffffffffffffffffffffff16815260200190815260200160002060009054906101000a900460ff161515146129f2576040517f08c379a00000000000000000000000000000000000000000000000000000000081526004016129e990617c2d565b60405180910390fd5b81818080601f016020809104026020016040519081016040528093929190818152602001838380828437600081840152601f19601f8201169050808301925050505050505060011515601f82604051612a4b91906175fe565b908152602001604051809103902060009054906101000a900460ff16151514612aa9576040517f08c379a0000000000000000000000000000000000000000000000000000000008152600401612aa090617c8d565b60405180910390fd5b60008411612aec576040517f08c379a0000000000000000000000000000000000000000000000000000000008152600401612ae390617bed565b60405180910390fd5b612af461620e565b601a60003373ffffffffffffffffffffffffffffffffffffffff1673ffffffffffffffffffffffffffffffffffffffff1681526020019081526020016000208484604051612b439291906175e5565b908152602001604051809103902060405180610100016040529081600082018054600181600116156101000203166002900480601f016020809104026020016040519081016040528092919081815260200182805460018160011615610100020316600290048015612bf65780601f10612bcb57610100808354040283529160200191612bf6565b820191906000526020600020905b815481529060010190602001808311612bd957829003601f168201915b5050505050815260200160018201548152602001600282015481526020016003820160009054906101000a900473ffffffffffffffffffffffffffffffffffffffff1673ffffffffffffffffffffffffffffffffffffffff1673ffffffffffffffffffffffffffffffffffffffff168152602001600482018054600181600116156101000203166002900480601f016020809104026020016040519081016040528092919081815260200182805460018160011615610100020316600290048015612d025780601f10612cd757610100808354040283529160200191612d02565b820191906000526020600020905b815481529060010190602001808311612ce557829003601f168201915b505050505081526020016005820160009054906101000a900460ff166001811115612d2957fe5b6001811115612d3457fe5b8152602001600682018054600181600116156101000203166002900480601f016020809104026020016040519081016040528092919081815260200182805460018160011615610100020316600290048015612dd15780601f10612da657610100808354040283529160200191612dd1565b820191906000526020600020905b815481529060010190602001808311612db457829003601f168201915b5050505050815260200160078201548152505090506000816020015190508590507fa0d44e7fee8a0afacdbd4319568a1b9258299bb07235afe832c670200dc43914858588604051612e2593929190617825565b60405180910390a1505050505050565b601a6020528160005260406000208180516020810182018051848252602083016020850120818352809550505050505060009150915050806000018054600181600116156101000203166002900480601f016020809104026020016040519081016040528092919081815260200182805460018160011615610100020316600290048015612f045780601f10612ed957610100808354040283529160200191612f04565b820191906000526020600020905b815481529060010190602001808311612ee757829003601f168201915b5050505050908060010154908060020154908060030160009054906101000a900473ffffffffffffffffffffffffffffffffffffffff1690806004018054600181600116156101000203166002900480601f016020809104026020016040519081016040528092919081815260200182805460018160011615610100020316600290048015612fd45780601f10612fa957610100808354040283529160200191612fd4565b820191906000526020600020905b815481529060010190602001808311612fb757829003601f168201915b5050505050908060050160009054906101000a900460ff1690806006018054600181600116156101000203166002900480601f0160208091040260200160405190810160405280929190818152602001828054600181600116156101000203166002900480156130855780601f1061305a57610100808354040283529160200191613085565b820191906000526020600020905b81548152906001019060200180831161306857829003601f168201915b5050505050908060070154905088565b60011515601360003373ffffffffffffffffffffffffffffffffffffffff1673ffffffffffffffffffffffffffffffffffffffff16815260200190815260200160002060009054906101000a900460ff16151514613128576040517f08c379a000000000000000000000000000000000000000000000000000000000815260040161311f90617c4d565b60405180910390fd5b60011515601560003373ffffffffffffffffffffffffffffffffffffffff1673ffffffffffffffffffffffffffffffffffffffff16815260200190815260200160002060009054906101000a900460ff161515146131bb576040517f08c379a00000000000000000000000000000000000000000000000000000000081526004016131b290617c2d565b60405180910390fd5b601860003373ffffffffffffffffffffffffffffffffffffffff1673ffffffffffffffffffffffffffffffffffffffff1681526020019081526020016000208160405161320891906175fe565b9081526020016040518091039020600061322291906163f4565b50565b60011515601060003373ffffffffffffffffffffffffffffffffffffffff1673ffffffffffffffffffffffffffffffffffffffff16815260200190815260200160002060009054906101000a900460ff161515146132b8576040517f08c379a00000000000000000000000000000000000000000000000000000000081526004016132af90617a8d565b60405180910390fd5b60011515601260003373ffffffffffffffffffffffffffffffffffffffff1673ffffffffffffffffffffffffffffffffffffffff16815260200190815260200160002060009054906101000a900460ff1615151461334b576040517f08c379a000000000000000000000000000000000000000000000000000000000815260040161334290617b6d565b60405180910390fd5b60011515601360008473ffffffffffffffffffffffffffffffffffffffff1673ffffffffffffffffffffffffffffffffffffffff16815260200190815260200160002060009054906101000a900460ff161515146133de576040517f08c379a00000000000000000000000000000000000000000000000000000000081526004016133d590617b2d565b60405180910390fd5b80601560008473ffffffffffffffffffffffffffffffffffffffff1673ffffffffffffffffffffffffffffffffffffffff16815260200190815260200160002060006101000a81548160ff0219169083151502179055505050565b60011515601360003373ffffffffffffffffffffffffffffffffffffffff1673ffffffffffffffffffffffffffffffffffffffff16815260200190815260200160002060009054906101000a900460ff161515146134cc576040517f08c379a00000000000000000000000000000000000000000000000000000000081526004016134c390617c4d565b60405180910390fd5b60011515601560003373ffffffffffffffffffffffffffffffffffffffff1673ffffffffffffffffffffffffffffffffffffffff16815260200190815260200160002060009054906101000a900460ff1615151461355f576040517f08c379a000000000000000000000000000000000000000000000000000000000815260040161355690617c2d565b60405180910390fd5b8060011515601f8260405161357491906175fe565b908152602001604051809103902060009054906101000a900460ff161515146135d2576040517f08c379a00000000000000000000000000000000000000000000000000000000081526004016135c990617c8d565b60405180910390fd5b601a60003373ffffffffffffffffffffffffffffffffffffffff1673ffffffffffffffffffffffffffffffffffffffff1681526020019081526020016000208260405161361f91906175fe565b90815260200160405180910390206000808201600061363e9190616418565b600182016000905560028201600090556003820160006101000a81549073ffffffffffffffffffffffffffffffffffffffff02191690556004820160006136859190616460565b6005820160006101000a81549060ff02191690556006820160006136a99190616460565b600782016000905550503373ffffffffffffffffffffffffffffffffffffffff167f558e4ae33dfca7324493271fabf356b0364808ca1cea5ef153f072321860dbfd836040516136f99190617879565b60405180910390a25050565b600060011515601360003373ffffffffffffffffffffffffffffffffffffffff1673ffffffffffffffffffffffffffffffffffffffff16815260200190815260200160002060009054906101000a900460ff1615151461379a576040517f08c379a000000000000000000000000000000000000000000000000000000000815260040161379190617c4d565b60405180910390fd5b60011515601560003373ffffffffffffffffffffffffffffffffffffffff1673ffffffffffffffffffffffffffffffffffffffff16815260200190815260200160002060009054906101000a900460ff1615151461382d576040517f08c379a000000000000000000000000000000000000000000000000000000000815260040161382490617c2d565b60405180910390fd5b81600460003373ffffffffffffffffffffffffffffffffffffffff1673ffffffffffffffffffffffffffffffffffffffff1681526020019081526020016000205410156138af576040517f08c379a00000000000000000000000000000000000000000000000000000000081526004016138a690617b4d565b60405180910390fd5b81600460003373ffffffffffffffffffffffffffffffffffffffff1673ffffffffffffffffffffffffffffffffffffffff168152602001908152602001600020600082825403925050819055508273ffffffffffffffffffffffffffffffffffffffff166108fc839081150290604051600060405180830381858888f19350505050158015613942573d6000803e3d6000fd5b508273ffffffffffffffffffffffffffffffffffffffff163373ffffffffffffffffffffffffffffffffffffffff167f2717ead6b9200dd235aad468c9809ea400fe33ac69b5bfaa6d3e90fc922b6398846040516139a09190617d0f565b60405180910390a380905092915050565b60046020528060005260406000206000915090505481565b6139d38282613b94565b505050565b600760009054906101000a900473ffffffffffffffffffffffffffffffffffffffff1673ffffffffffffffffffffffffffffffffffffffff163373ffffffffffffffffffffffffffffffffffffffff1614613a68576040517f08c379a0000000000000000000000000000000000000000000000000000000008152600401613a5f90617aed565b60405180910390fd5b80600460008473ffffffffffffffffffffffffffffffffffffffff1673ffffffffffffffffffffffffffffffffffffffff16815260200190815260200160002060008282540192505081905550806003600082825401925050819055503073ffffffffffffffffffffffffffffffffffffffff16600073ffffffffffffffffffffffffffffffffffffffff167fddf252ad1be2c89b69c2b068fc378daa952ba7f163c4a11628f55a4df523b3ef83604051613b239190617d0f565b60405180910390a38173ffffffffffffffffffffffffffffffffffffffff163073ffffffffffffffffffffffffffffffffffffffff167fddf252ad1be2c89b69c2b068fc378daa952ba7f163c4a11628f55a4df523b3ef83604051613b889190617d0f565b60405180910390a35050565b600081600460008573ffffffffffffffffffffffffffffffffffffffff1673ffffffffffffffffffffffffffffffffffffffff168152602001908152602001600020541015613be257600080fd5b600560008473ffffffffffffffffffffffffffffffffffffffff1673ffffffffffffffffffffffffffffffffffffffff16815260200190815260200160002060003373ffffffffffffffffffffffffffffffffffffffff1673ffffffffffffffffffffffffffffffffffffffff16815260200190815260200160002054821115613c6b57600080fd5b81600460008573ffffffffffffffffffffffffffffffffffffffff1673ffffffffffffffffffffffffffffffffffffffff1681526020019081526020016000206000828254039250508190555081600560008573ffffffffffffffffffffffffffffffffffffffff1673ffffffffffffffffffffffffffffffffffffffff16815260200190815260200160002060003373ffffffffffffffffffffffffffffffffffffffff1673ffffffffffffffffffffffffffffffffffffffff16815260200190815260200160002060008282540392505081905550816003600082825403925050819055508273ffffffffffffffffffffffffffffffffffffffff167fcc16f5dbb4873280815c1ee09dbd06736cffcc184412cf7a71a0fdb75d397ca583604051613d989190617d0f565b60405180910390a26001905092915050565b613db381612785565b5050565b60226020528060005260406000206000915054906101000a900460ff1681565b600760009054906101000a900473ffffffffffffffffffffffffffffffffffffffff1681565b60126020528060005260406000206000915054906101000a900460ff1681565b60018054600181600116156101000203166002900480601f016020809104026020016040519081016040528092919081815260200182805460018160011615610100020316600290048015613eb35780601f10613e8857610100808354040283529160200191613eb3565b820191906000526020600020905b815481529060010190602001808311613e9657829003601f168201915b505050505081565b613ec361620e565b60011515601360003373ffffffffffffffffffffffffffffffffffffffff1673ffffffffffffffffffffffffffffffffffffffff16815260200190815260200160002060009054906101000a900460ff16151514613f56576040517f08c379a0000000000000000000000000000000000000000000000000000000008152600401613f4d90617c4d565b60405180910390fd5b60011515601560003373ffffffffffffffffffffffffffffffffffffffff1673ffffffffffffffffffffffffffffffffffffffff16815260200190815260200160002060009054906101000a900460ff16151514613fe9576040517f08c379a0000000000000000000000000000000000000000000000000000000008152600401613fe090617c2d565b60405180910390fd5b6000841161402c576040517f08c379a000000000000000000000000000000000000000000000000000000000815260040161402390617c6d565b60405180910390fd5b858160000181905250838160200181815250508181604001818152505060018160e00181815101915081815250506060338260e001518887896040516020016140799594939291906176d5565b604051602081830303815290604052905033826060019073ffffffffffffffffffffffffffffffffffffffff16908173ffffffffffffffffffffffffffffffffffffffff168152505080826080018190525081601b60003373ffffffffffffffffffffffffffffffffffffffff1673ffffffffffffffffffffffffffffffffffffffff16815260200190815260200160002060008460e001518152602001908152602001600020600082015181600001908051906020019061413c929190616274565b50602082015181600101556040820151816002015560608201518160030160006101000a81548173ffffffffffffffffffffffffffffffffffffffff021916908373ffffffffffffffffffffffffffffffffffffffff16021790555060808201518160040190805190602001906141b49291906162f4565b5060a08201518160050160006101000a81548160ff021916908360018111156141d957fe5b021790555060c08201518160060190805190602001906141fa9291906162f4565b5060e082015181600701559050506001601d60003373ffffffffffffffffffffffffffffffffffffffff1673ffffffffffffffffffffffffffffffffffffffff1681526020019081526020016000208260405161425791906175fe565b908152602001604051809103902060006101000a81548160ff021916908315150217905550600b60009054906101000a900460ff168260a00190600181111561429c57fe5b908160018111156142a957fe5b81525050600f82908060018154018082558091505060019003906000526020600020906008020160009091909190915060008201518160000190805190602001906142f5929190616274565b50602082015181600101556040820151816002015560608201518160030160006101000a81548173ffffffffffffffffffffffffffffffffffffffff021916908373ffffffffffffffffffffffffffffffffffffffff160217905550608082015181600401908051906020019061436d9291906162f4565b5060a08201518160050160006101000a81548160ff0219169083600181111561439257fe5b021790555060c08201518160060190805190602001906143b39291906162f4565b5060e08201518160070155505081601a60003373ffffffffffffffffffffffffffffffffffffffff1673ffffffffffffffffffffffffffffffffffffffff1681526020019081526020016000208260405161440e91906175fe565b90815260200160405180910390206000820151816000019080519060200190614438929190616274565b50602082015181600101556040820151816002015560608201518160030160006101000a81548173ffffffffffffffffffffffffffffffffffffffff021916908373ffffffffffffffffffffffffffffffffffffffff16021790555060808201518160040190805190602001906144b09291906162f4565b5060a08201518160050160006101000a81548160ff021916908360018111156144d557fe5b021790555060c08201518160060190805190602001906144f69291906162f4565b5060e0820151816007015590505081601c8260405161451591906175fe565b9081526020016040518091039020600082015181600001908051906020019061453f929190616274565b50602082015181600101556040820151816002015560608201518160030160006101000a81548173ffffffffffffffffffffffffffffffffffffffff021916908373ffffffffffffffffffffffffffffffffffffffff16021790555060808201518160040190805190602001906145b79291906162f4565b5060a08201518160050160006101000a81548160ff021916908360018111156145dc57fe5b021790555060c08201518160060190805190602001906145fd9291906162f4565b5060e0820151816007015590505080601e60003373ffffffffffffffffffffffffffffffffffffffff1673ffffffffffffffffffffffffffffffffffffffff1681526020019081526020016000208560405161465991906175fe565b9081526020016040518091039020908051906020019061467a929190616374565b506001601f8260405161468d91906175fe565b908152602001604051809103902060006101000a81548160ff0219169083151502179055503373ffffffffffffffffffffffffffffffffffffffff167f772cc3a8e77f72eb5acf7b3a43da99bf21604939d49108bdd445da7c9c137a2188836040516146fa9291906178f4565b60405180910390a28191505095945050505050565b600080601360008473ffffffffffffffffffffffffffffffffffffffff1673ffffffffffffffffffffffffffffffffffffffff16815260200190815260200160002060009054906101000a900460ff16601560008573ffffffffffffffffffffffffffffffffffffffff1673ffffffffffffffffffffffffffffffffffffffff16815260200190815260200160002060009054906101000a900460ff1691509150915091565b6000600760009054906101000a900473ffffffffffffffffffffffffffffffffffffffff1673ffffffffffffffffffffffffffffffffffffffff163373ffffffffffffffffffffffffffffffffffffffff1614614847576040517f08c379a000000000000000000000000000000000000000000000000000000000815260040161483e90617aed565b60405180910390fd5b6003600c805490501115614890576040517f08c379a000000000000000000000000000000000000000000000000000000000815260040161488790617bad565b60405180910390fd5b600073ffffffffffffffffffffffffffffffffffffffff168373ffffffffffffffffffffffffffffffffffffffff161415614900576040517f08c379a00000000000000000000000000000000000000000000000000000000081526004016148f790617aad565b60405180910390fd5b6149086164a8565b601160008573ffffffffffffffffffffffffffffffffffffffff1673ffffffffffffffffffffffffffffffffffffffff1681526020019081526020016000206040518060400160405290816000820160009054906101000a900473ffffffffffffffffffffffffffffffffffffffff1673ffffffffffffffffffffffffffffffffffffffff1673ffffffffffffffffffffffffffffffffffffffff168152602001600182018054600181600116156101000203166002900480601f016020809104026020016040519081016040528092919081815260200182805460018160011615610100020316600290048015614a415780601f10614a1657610100808354040283529160200191614a41565b820191906000526020600020905b815481529060010190602001808311614a2457829003601f168201915b505050505081525050905060006001600960008282829054906101000a900460ff160192506101000a81548160ff021916908360ff1602179055905084826000019073ffffffffffffffffffffffffffffffffffffffff16908173ffffffffffffffffffffffffffffffffffffffff16815250508481604051602001614ac89291906177b8565b6040516020818303038152906040528260200181905250600c82908060018154018082558091505060019003906000526020600020906002020160009091909190915060008201518160000160006101000a81548173ffffffffffffffffffffffffffffffffffffffff021916908373ffffffffffffffffffffffffffffffffffffffff1602179055506020820151816001019080519060200190614b6e9291906162f4565b50505083601260008773ffffffffffffffffffffffffffffffffffffffff1673ffffffffffffffffffffffffffffffffffffffff16815260200190815260200160002060006101000a81548160ff0219169083151502179055506001601060008773ffffffffffffffffffffffffffffffffffffffff1673ffffffffffffffffffffffffffffffffffffffff16815260200190815260200160002060006101000a81548160ff0219169083151502179055508473ffffffffffffffffffffffffffffffffffffffff167f19f7fd2c1ea6478d08d010308d023c5e758cd5e618c2712e063c28d05f344fee8360200151604051614c6a9190617857565b60405180910390a260019250505092915050565b6000614c8b338484615e94565b6001905092915050565b6016602052816000526040600020818051602081018201805184825260208301602085012081835280955050505050506000915091509054906101000a900460ff1681565b6000602260008573ffffffffffffffffffffffffffffffffffffffff1673ffffffffffffffffffffffffffffffffffffffff16815260200190815260200160002060009054906101000a900460ff1615614d3357600080fd5b602260008473ffffffffffffffffffffffffffffffffffffffff1673ffffffffffffffffffffffffffffffffffffffff16815260200190815260200160002060009054906101000a900460ff1615614d8a57600080fd5b614d958484846117ba565b50600190509392505050565b600060011515601060003373ffffffffffffffffffffffffffffffffffffffff1673ffffffffffffffffffffffffffffffffffffffff16815260200190815260200160002060009054906101000a900460ff16151514614e36576040517f08c379a0000000000000000000000000000000000000000000000000000000008152600401614e2d90617a8d565b60405180910390fd5b60011515601260003373ffffffffffffffffffffffffffffffffffffffff1673ffffffffffffffffffffffffffffffffffffffff16815260200190815260200160002060009054906101000a900460ff16151514614ec9576040517f08c379a0000000000000000000000000000000000000000000000000000000008152600401614ec090617b6d565b60405180910390fd5b600073ffffffffffffffffffffffffffffffffffffffff168373ffffffffffffffffffffffffffffffffffffffff161415614f39576040517f08c379a0000000000000000000000000000000000000000000000000000000008152600401614f3090617aad565b60405180910390fd5b614f416164d8565b601460008573ffffffffffffffffffffffffffffffffffffffff1673ffffffffffffffffffffffffffffffffffffffff1681526020019081526020016000206040518060400160405290816000820160009054906101000a900473ffffffffffffffffffffffffffffffffffffffff1673ffffffffffffffffffffffffffffffffffffffff1673ffffffffffffffffffffffffffffffffffffffff168152602001600182018054600181600116156101000203166002900480601f01602080910402602001604051908101604052809291908181526020018280546001816001161561010002031660029004801561507a5780601f1061504f5761010080835404028352916020019161507a565b820191906000526020600020905b81548152906001019060200180831161505d57829003601f168201915b505050505081525050905060006001600960018282829054906101000a900460ff160192506101000a81548160ff021916908360ff1602179055905084826000019073ffffffffffffffffffffffffffffffffffffffff16908173ffffffffffffffffffffffffffffffffffffffff16815250508481604051602001615101929190617736565b6040516020818303038152906040528260200181905250600d82908060018154018082558091505060019003906000526020600020906002020160009091909190915060008201518160000160006101000a81548173ffffffffffffffffffffffffffffffffffffffff021916908373ffffffffffffffffffffffffffffffffffffffff16021790555060208201518160010190805190602001906151a79291906162f4565b50505083601560008773ffffffffffffffffffffffffffffffffffffffff1673ffffffffffffffffffffffffffffffffffffffff16815260200190815260200160002060006101000a81548160ff0219169083151502179055506001601360008773ffffffffffffffffffffffffffffffffffffffff1673ffffffffffffffffffffffffffffffffffffffff16815260200190815260200160002060006101000a81548160ff0219169083151502179055508473ffffffffffffffffffffffffffffffffffffffff167f080aee23a4b60a0a99506ef4ac0b025d3784de82d87f414749e3e4faa028297083602001516040516152a39190617857565b60405180910390a2829250505092915050565b6000808490506152c68585610f50565b15615346578073ffffffffffffffffffffffffffffffffffffffff16638f4ffcb1338630876040518563ffffffff1660e01b815260040161530a9493929190617689565b600060405180830381600087803b15801561532457600080fd5b505af1158015615338573d6000803e3d6000fd5b505050506001915050615348565b505b9392505050565b61535a8383836152b6565b50505050565b600080601060008473ffffffffffffffffffffffffffffffffffffffff1673ffffffffffffffffffffffffffffffffffffffff16815260200190815260200160002060009054906101000a900460ff16601260008573ffffffffffffffffffffffffffffffffffffffff1673ffffffffffffffffffffffffffffffffffffffff16815260200190815260200160002060009054906101000a900460ff1691509150915091565b60156020528060005260406000206000915054906101000a900460ff1681565b6005602052816000526040600020602052806000526040600020600091509150505481565b600760009054906101000a900473ffffffffffffffffffffffffffffffffffffffff1673ffffffffffffffffffffffffffffffffffffffff163373ffffffffffffffffffffffffffffffffffffffff16146154db576040517f08c379a00000000000000000000000000000000000000000000000000000000081526004016154d290617aed565b60405180910390fd5b80602260008473ffffffffffffffffffffffffffffffffffffffff1673ffffffffffffffffffffffffffffffffffffffff16815260200190815260200160002060006101000a81548160ff0219169083151502179055507f48335238b4855f35377ed80f164e8c6f3c366e54ac00b96a6402d4a9814a03a5828260405161556392919061775f565b60405180910390a15050565b60008260011515601f8260405161558691906175fe565b908152602001604051809103902060009054906101000a900460ff161515146155e4576040517f08c379a00000000000000000000000000000000000000000000000000000000081526004016155db90617c8d565b60405180910390fd5b6155ec61620e565b601c856040516155fc91906175fe565b908152602001604051809103902060405180610100016040529081600082018054600181600116156101000203166002900480601f0160208091040260200160405190810160405280929190818152602001828054600181600116156101000203166002900480156156af5780601f10615684576101008083540402835291602001916156af565b820191906000526020600020905b81548152906001019060200180831161569257829003601f168201915b5050505050815260200160018201548152602001600282015481526020016003820160009054906101000a900473ffffffffffffffffffffffffffffffffffffffff1673ffffffffffffffffffffffffffffffffffffffff1673ffffffffffffffffffffffffffffffffffffffff168152602001600482018054600181600116156101000203166002900480601f0160208091040260200160405190810160405280929190818152602001828054600181600116156101000203166002900480156157bb5780601f10615790576101008083540402835291602001916157bb565b820191906000526020600020905b81548152906001019060200180831161579e57829003601f168201915b505050505081526020016005820160009054906101000a900460ff1660018111156157e257fe5b60018111156157ed57fe5b8152602001600682018054600181600116156101000203166002900480601f01602080910402602001604051908101604052809291908181526020018280546001816001161561010002031660029004801561588a5780601f1061585f5761010080835404028352916020019161588a565b820191906000526020600020905b81548152906001019060200180831161586d57829003601f168201915b505050505081526020016007820154815250509050600081602001519050600082606001519050600086116158f4576040517f08c379a00000000000000000000000000000000000000000000000000000000081526004016158eb90617bcd565b60405180910390fd5b81600460003373ffffffffffffffffffffffffffffffffffffffff1673ffffffffffffffffffffffffffffffffffffffff168152602001908152602001600020541015615976576040517f08c379a000000000000000000000000000000000000000000000000000000000815260040161596d90617b4d565b60405180910390fd5b600b60009054906101000a900460ff16600181111561599157fe5b8360a0015160018111156159a157fe5b146159e1576040517f08c379a00000000000000000000000000000000000000000000000000000000081526004016159d890617a6d565b60405180910390fd5b8260400151861115615a28576040517f08c379a0000000000000000000000000000000000000000000000000000000008152600401615a1f90617c0d565b60405180910390fd5b6000828702905082878281615a3957fe5b0414615a4457600080fd5b80341015615a87576040517f08c379a0000000000000000000000000000000000000000000000000000000008152600401615a7e90617a2d565b60405180910390fd5b34600460003373ffffffffffffffffffffffffffffffffffffffff1673ffffffffffffffffffffffffffffffffffffffff1681526020019081526020016000206000828254039250508190555034600460008473ffffffffffffffffffffffffffffffffffffffff1673ffffffffffffffffffffffffffffffffffffffff168152602001908152602001600020600082825401925050819055506000601d60008473ffffffffffffffffffffffffffffffffffffffff1673ffffffffffffffffffffffffffffffffffffffff16815260200190815260200160002089604051615b7091906175fe565b908152602001604051809103902060006101000a81548160ff0219169083151502179055506001601d60003373ffffffffffffffffffffffffffffffffffffffff1673ffffffffffffffffffffffffffffffffffffffff16815260200190815260200160002089604051615be491906175fe565b908152602001604051809103902060006101000a81548160ff02191690831515021790555060008460400151905087810390506000811415615c6457615c2861620e565b9450600b60019054906101000a900460ff166001811115615c4557fe5b8560a001516001811115615c5557fe5b50508696505050505050615cd1565b6000811115615c7857808560400181815250505b6001600a600082825401925050819055602160003373ffffffffffffffffffffffffffffffffffffffff1673ffffffffffffffffffffffffffffffffffffffff1681526020019081526020016000208190555050505050505b5092915050565b600760009054906101000a900473ffffffffffffffffffffffffffffffffffffffff1673ffffffffffffffffffffffffffffffffffffffff163373ffffffffffffffffffffffffffffffffffffffff1614615d68576040517f08c379a0000000000000000000000000000000000000000000000000000000008152600401615d5f90617aed565b60405180910390fd5b80600760006101000a81548173ffffffffffffffffffffffffffffffffffffffff021916908373ffffffffffffffffffffffffffffffffffffffff16021790555050565b60136020528060005260406000206000915054906101000a900460ff1681565b60176020528060005260406000206000915090508054600181600116156101000203166002900480601f016020809104026020016040519081016040528092919081815260200182805460018160011615610100020316600290048015615e745780601f10615e4957610100808354040283529160200191615e74565b820191906000526020600020905b815481529060010190602001808311615e5757829003601f168201915b505050505081565b60216020528060005260406000206000915090505481565b600073ffffffffffffffffffffffffffffffffffffffff168273ffffffffffffffffffffffffffffffffffffffff161415615ece57600080fd5b80600460008573ffffffffffffffffffffffffffffffffffffffff1673ffffffffffffffffffffffffffffffffffffffff168152602001908152602001600020541015615f1a57600080fd5b600460008373ffffffffffffffffffffffffffffffffffffffff1673ffffffffffffffffffffffffffffffffffffffff1681526020019081526020016000205481600460008573ffffffffffffffffffffffffffffffffffffffff1673ffffffffffffffffffffffffffffffffffffffff168152602001908152602001600020540111615fa657600080fd5b6000600460008473ffffffffffffffffffffffffffffffffffffffff1673ffffffffffffffffffffffffffffffffffffffff16815260200190815260200160002054600460008673ffffffffffffffffffffffffffffffffffffffff1673ffffffffffffffffffffffffffffffffffffffff1681526020019081526020016000205401905081600460008673ffffffffffffffffffffffffffffffffffffffff1673ffffffffffffffffffffffffffffffffffffffff1681526020019081526020016000206000828254039250508190555081600460008573ffffffffffffffffffffffffffffffffffffffff1673ffffffffffffffffffffffffffffffffffffffff168152602001908152602001600020600082825401925050819055508273ffffffffffffffffffffffffffffffffffffffff168473ffffffffffffffffffffffffffffffffffffffff167fddf252ad1be2c89b69c2b068fc378daa952ba7f163c4a11628f55a4df523b3ef846040516161229190617d0f565b60405180910390a380600460008573ffffffffffffffffffffffffffffffffffffffff1673ffffffffffffffffffffffffffffffffffffffff16815260200190815260200160002054600460008773ffffffffffffffffffffffffffffffffffffffff1673ffffffffffffffffffffffffffffffffffffffff1681526020019081526020016000205401146161b357fe5b50505050565b6040518060e00160405280600073ffffffffffffffffffffffffffffffffffffffff16815260200160608152602001606081526020016000815260200160001515815260200160008152602001600081525090565b604051806101000160405280606081526020016000815260200160008152602001600073ffffffffffffffffffffffffffffffffffffffff168152602001606081526020016000600181111561626057fe5b815260200160608152602001600081525090565b828054600181600116156101000203166002900490600052602060002090601f016020900481019282601f106162b557805160ff19168380011785556162e3565b828001600101855582156162e3579182015b828111156162e25782518255916020019190600101906162c7565b5b5090506162f09190616508565b5090565b828054600181600116156101000203166002900490600052602060002090601f016020900481019282601f1061633557805160ff1916838001178555616363565b82800160010185558215616363579182015b82811115616362578251825591602001919060010190616347565b5b5090506163709190616508565b5090565b828054600181600116156101000203166002900490600052602060002090601f016020900481019282601f106163b557805160ff19168380011785556163e3565b828001600101855582156163e3579182015b828111156163e25782518255916020019190600101906163c7565b5b5090506163f09190616508565b5090565b5080546000825560070290600052602060002090810190616415919061652d565b50565b50805460018160011615610100020316600290046000825580601f1061643e575061645d565b601f01602090049060005260206000209081019061645c9190616508565b5b50565b50805460018160011615610100020316600290046000825580601f1061648657506164a5565b601f0160209004906000526020600020908101906164a49190616508565b5b50565b6040518060400160405280600073ffffffffffffffffffffffffffffffffffffffff168152602001606081525090565b6040518060400160405280600073ffffffffffffffffffffffffffffffffffffffff168152602001606081525090565b61652a91905b8082111561652657600081600090555060010161650e565b5090565b90565b6165bc91905b808211156165b857600080820160006101000a81549073ffffffffffffffffffffffffffffffffffffffff02191690556001820160006165739190616418565b6002820160006165839190616460565b60038201600090556004820160006101000a81549060ff02191690556005820160009055600682016000905550600701616533565b5090565b90565b6000813590506165ce81617f93565b92915050565b6000813590506165e381617faa565b92915050565b6000813590506165f881617fc1565b92915050565b60008083601f84011261661057600080fd5b8235905067ffffffffffffffff81111561662957600080fd5b60208301915083600182028301111561664157600080fd5b9250929050565b600082601f83011261665957600080fd5b813561666c61666782617d72565b617d45565b9150808252602083016020830185838301111561668857600080fd5b616693838284617f33565b50505092915050565b600082601f8301126166ad57600080fd5b81356166c06166bb82617d9e565b617d45565b915080825260208301602083018583830111156166dc57600080fd5b6166e7838284617f33565b50505092915050565b600082601f83011261670157600080fd5b813561671461670f82617dca565b617d45565b9150808252602083016020830185838301111561673057600080fd5b61673b838284617f33565b50505092915050565b60008135905061675381617fd8565b92915050565b60006020828403121561676b57600080fd5b6000616779848285016165bf565b91505092915050565b6000806040838503121561679557600080fd5b60006167a3858286016165d4565b92505060206167b4858286016165e9565b9150509250929050565b600080604083850312156167d157600080fd5b60006167df858286016165d4565b92505060206167f085828601616744565b9150509250929050565b6000806040838503121561680d57600080fd5b600061681b858286016165bf565b925050602061682c858286016165bf565b9150509250929050565b60008060006060848603121561684b57600080fd5b6000616859868287016165bf565b935050602061686a868287016165bf565b925050604061687b86828701616744565b9150509250925092565b6000806040838503121561689857600080fd5b60006168a6858286016165bf565b92505060206168b7858286016165e9565b9150509250929050565b600080604083850312156168d457600080fd5b60006168e2858286016165bf565b925050602083013567ffffffffffffffff8111156168ff57600080fd5b61690b85828601616648565b9150509250929050565b6000806040838503121561692857600080fd5b6000616936858286016165bf565b925050602083013567ffffffffffffffff81111561695357600080fd5b61695f8582860161669c565b9150509250929050565b6000806040838503121561697c57600080fd5b600061698a858286016165bf565b925050602061699b85828601616744565b9150509250929050565b6000806000606084860312156169ba57600080fd5b60006169c8868287016165bf565b93505060206169d986828701616744565b925050604084013567ffffffffffffffff8111156169f657600080fd5b616a028682870161669c565b9150509250925092565b600060208284031215616a1e57600080fd5b600082013567ffffffffffffffff811115616a3857600080fd5b616a448482850161669c565b91505092915050565b60008060408385031215616a6057600080fd5b600083013567ffffffffffffffff811115616a7a57600080fd5b616a868582860161669c565b9250506020616a9785828601616744565b9150509250929050565b600080600080600060a08688031215616ab957600080fd5b600086013567ffffffffffffffff811115616ad357600080fd5b616adf888289016166f0565b955050602086013567ffffffffffffffff811115616afc57600080fd5b616b08888289016166f0565b945050604086013567ffffffffffffffff811115616b2557600080fd5b616b31888289016166f0565b9350506060616b4288828901616744565b9250506080616b5388828901616744565b9150509295509295909350565b600080600080600060a08688031215616b7857600080fd5b600086013567ffffffffffffffff811115616b9257600080fd5b616b9e888289016166f0565b955050602086013567ffffffffffffffff811115616bbb57600080fd5b616bc7888289016166f0565b9450506040616bd888828901616744565b935050606086013567ffffffffffffffff811115616bf557600080fd5b616c018882890161669c565b9250506080616c1288828901616744565b9150509295509295909350565b600060208284031215616c3157600080fd5b6000616c3f84828501616744565b91505092915050565b600080600060408486031215616c5d57600080fd5b6000616c6b86828701616744565b935050602084013567ffffffffffffffff811115616c8857600080fd5b616c94868287016165fe565b92509250509250925092565b616ca981617eeb565b82525050565b616cb881617e83565b82525050565b616cc781617e83565b82525050565b616cd681617e71565b82525050565b616ce581617e95565b82525050565b6000616cf78385617e33565b9350616d04838584617f33565b616d0d83617f75565b840190509392505050565b6000616d248385617e44565b9350616d31838584617f33565b82840190509392505050565b6000616d4882617e01565b616d528185617e33565b9350616d62818560208601617f42565b616d6b81617f75565b840191505092915050565b6000616d8182617e01565b616d8b8185617e44565b9350616d9b818560208601617f42565b80840191505092915050565b6000616db282617df6565b616dbc8185617e22565b9350616dcc818560208601617f42565b616dd581617f75565b840191505092915050565b6000616deb82617df6565b616df58185617e33565b9350616e05818560208601617f42565b616e0e81617f75565b840191505092915050565b616e2281617efd565b82525050565b616e3181617efd565b82525050565b6000616e4282617e17565b616e4c8185617e60565b9350616e5c818560208601617f42565b616e6581617f75565b840191505092915050565b6000616e7b82617e0c565b616e858185617e4f565b9350616e95818560208601617f42565b616e9e81617f75565b840191505092915050565b6000616eb482617e0c565b616ebe8185617e60565b9350616ece818560208601617f42565b616ed781617f75565b840191505092915050565b6000616eef602683617e60565b91507f416d6f756e742063616e6e6f74206265206c657373207468616e20746f74616c60008301527f20707269636500000000000000000000000000000000000000000000000000006020830152604082019050919050565b6000616f55601583617e60565b91507f43616e6f6f742066696e6420616e79206d6174636800000000000000000000006000830152602082019050919050565b6000616f95601083617e60565b91507f4974656d20556e617661696c61626c65000000000000000000000000000000006000830152602082019050919050565b6000616fd5601683617e60565b91507f4e6f7420417574686f72697a65642061646472657373000000000000000000006000830152602082019050919050565b6000617015600f83617e60565b91507f496e76616c6964206164647265737300000000000000000000000000000000006000830152602082019050919050565b6000617055602683617e60565b91507f416464726573732063616e206f6e6c79206372656174652074776f2073746f7260008301527f6566726f6e7400000000000000000000000000000000000000000000000000006020830152604082019050919050565b60006170bb601c83617e60565b91507f52657175657374206661696c65643b204e6f7420616e206f776e6572000000006000830152602082019050919050565b60006170fb601483617e60565b91507f53746f726520646f6573206e6f742065786973740000000000000000000000006000830152602082019050919050565b600061713b601183617e60565b91507f4e6f7420616c72656164792061646465640000000000000000000000000000006000830152602082019050919050565b600061717b601583617e60565b91507f496e7375666669636569656e742062616c616e636500000000000000000000006000830152602082019050919050565b60006171bb600e83617e60565b91507f4e6f7420417574686f72697a65640000000000000000000000000000000000006000830152602082019050919050565b60006171fb600c83617e60565b91507f4e6f7420616e2061646d696e00000000000000000000000000000000000000006000830152602082019050919050565b600061723b601683617e60565b91507f4d61782061646d696e206c6973742072656163686564000000000000000000006000830152602082019050919050565b600061727b601083617e60565b91507f496e76616c6964207175616e74697479000000000000000000000000000000006000830152602082019050919050565b60006172bb601483617e60565b91507f50726963652063616e6e6f74206265207a65726f0000000000000000000000006000830152602082019050919050565b60006172fb602583617e60565b91507f43616e6e6f74206578636565642073656c6c657227732070726573657420616d60008301527f6f756e742e0000000000000000000000000000000000000000000000000000006020830152604082019050919050565b6000617361602183617e60565b91507f556e617574686f72697a656420746f20616464204974656d20746f2073746f7260008301527f65000000000000000000000000000000000000000000000000000000000000006020830152604082019050919050565b60006173c7601683617e60565b91507f41646472657373206e6f7420617574686f72697a6564000000000000000000006000830152602082019050919050565b6000617407601583617e60565b91507f50726963652063616e6e6f7420626520656d70747900000000000000000000006000830152602082019050919050565b6000617447601383617e60565b91507f4974656d20646f6573206e6f74206578697374000000000000000000000000006000830152602082019050919050565b6000617487601383617e60565b91507f53746f726520616c7265616479206578697374000000000000000000000000006000830152602082019050919050565b60006174c7601983617e60565b91507f4e6f7420612073746f7265206f776e657220616c7265616479000000000000006000830152602082019050919050565b60006101008301600083015184820360008601526175188282616e70565b915050602083015161752d60208601826175b8565b50604083015161754060408601826175b8565b5060608301516175536060860182616caf565b506080830151848203608086015261756b8282616da7565b91505060a083015161758060a0860182616e19565b5060c083015184820360c08601526175988282616da7565b91505060e08301516175ad60e08601826175b8565b508091505092915050565b6175c181617ed4565b82525050565b6175d081617ed4565b82525050565b6175df81617ede565b82525050565b60006175f2828486616d18565b91508190509392505050565b600061760a8284616d76565b915081905092915050565b600060208201905061762a6000830184616ccd565b92915050565b60006040820190506176456000830185616cbe565b81810360208301526176578184616e37565b90509392505050565b60006040820190506176756000830185616ca0565b61768260208301846175c7565b9392505050565b600060808201905061769e6000830187616ca0565b6176ab60208301866175c7565b6176b86040830185616ccd565b81810360608301526176ca8184616d3d565b905095945050505050565b600060a0820190506176ea6000830188616cbe565b6176f760208301876175c7565b81810360408301526177098186616e37565b905061771860608301856175c7565b818103608083015261772a8184616e37565b90509695505050505050565b600060408201905061774b6000830185616cbe565b61775860208301846175d6565b9392505050565b60006040820190506177746000830185616ccd565b6177816020830184616cdc565b9392505050565b600060408201905061779d6000830185616ccd565b81810360208301526177af8184616de0565b90509392505050565b60006040820190506177cd6000830185616ccd565b6177da60208301846175d6565b9392505050565b60006020820190506177f66000830184616cdc565b92915050565b60006040820190506178116000830185616cdc565b61781e6020830184616cdc565b9392505050565b60006040820190508181036000830152617840818587616ceb565b905061784f60208301846175c7565b949350505050565b600060208201905081810360008301526178718184616de0565b905092915050565b600060208201905081810360008301526178938184616d3d565b905092915050565b600060408201905081810360008301526178b58185616d3d565b905081810360208301526178c98184616e37565b90509392505050565b600060208201905081810360008301526178ec8184616ea9565b905092915050565b6000604082019050818103600083015261790e8185616e37565b905081810360208301526179228184616d3d565b90509392505050565b600060c08201905081810360008301526179458189616e37565b905061795460208301886175c7565b6179616040830187616ccd565b81810360608301526179738186616d3d565b90506179826080830185616cdc565b61798f60a08301846175c7565b979650505050505050565b60006101008201905081810360008301526179b5818b616ea9565b90506179c4602083018a6175c7565b6179d160408301896175c7565b6179de6060830188616cbe565b81810360808301526179f08187616de0565b90506179ff60a0830186616e28565b81810360c0830152617a118185616de0565b9050617a2060e08301846175c7565b9998505050505050505050565b60006020820190508181036000830152617a4681616ee2565b9050919050565b60006020820190508181036000830152617a6681616f48565b9050919050565b60006020820190508181036000830152617a8681616f88565b9050919050565b60006020820190508181036000830152617aa681616fc8565b9050919050565b60006020820190508181036000830152617ac681617008565b9050919050565b60006020820190508181036000830152617ae681617048565b9050919050565b60006020820190508181036000830152617b06816170ae565b9050919050565b60006020820190508181036000830152617b26816170ee565b9050919050565b60006020820190508181036000830152617b468161712e565b9050919050565b60006020820190508181036000830152617b668161716e565b9050919050565b60006020820190508181036000830152617b86816171ae565b9050919050565b60006020820190508181036000830152617ba6816171ee565b9050919050565b60006020820190508181036000830152617bc68161722e565b9050919050565b60006020820190508181036000830152617be68161726e565b9050919050565b60006020820190508181036000830152617c06816172ae565b9050919050565b60006020820190508181036000830152617c26816172ee565b9050919050565b60006020820190508181036000830152617c4681617354565b9050919050565b60006020820190508181036000830152617c66816173ba565b9050919050565b60006020820190508181036000830152617c86816173fa565b9050919050565b60006020820190508181036000830152617ca68161743a565b9050919050565b60006020820190508181036000830152617cc68161747a565b9050919050565b60006020820190508181036000830152617ce6816174ba565b9050919050565b60006020820190508181036000830152617d0781846174fa565b905092915050565b6000602082019050617d2460008301846175c7565b92915050565b6000602082019050617d3f60008301846175d6565b92915050565b6000604051905081810181811067ffffffffffffffff82111715617d6857600080fd5b8060405250919050565b600067ffffffffffffffff821115617d8957600080fd5b601f19601f8301169050602081019050919050565b600067ffffffffffffffff821115617db557600080fd5b601f19601f8301169050602081019050919050565b600067ffffffffffffffff821115617de157600080fd5b601f19601f8301169050602081019050919050565b600081519050919050565b600081519050919050565b600081519050919050565b600081519050919050565b600082825260208201905092915050565b600082825260208201905092915050565b600081905092915050565b600082825260208201905092915050565b600082825260208201905092915050565b6000617e7c82617eb4565b9050919050565b6000617e8e82617eb4565b9050919050565b60008115159050919050565b6000819050617eaf82617f86565b919050565b600073ffffffffffffffffffffffffffffffffffffffff82169050919050565b6000819050919050565b600060ff82169050919050565b6000617ef682617f0f565b9050919050565b6000617f0882617ea1565b9050919050565b6000617f1a82617f21565b9050919050565b6000617f2c82617eb4565b9050919050565b82818337600083830152505050565b60005b83811015617f60578082015181840152602081019050617f45565b83811115617f6f576000848401525b50505050565b6000601f19601f8301169050919050565b60028110617f9057fe5b50565b617f9c81617e71565b8114617fa757600080fd5b50565b617fb381617e83565b8114617fbe57600080fd5b50565b617fca81617e95565b8114617fd557600080fd5b50565b617fe181617ed4565b8114617fec57600080fd5b5056fea26469706673582212204a7828cfc2d55a500ef00b5e588c922183476750396aaef33959a7f508447b7564736f6c63430006010033",
  "source": "// SPDX-License-Identifier: MIT\r\npragma solidity ^0.6.0;\r\npragma experimental ABIEncoderV2;\r\nimport \"./TokenERC20.sol\";\r\n\r\n// Online MarketPlace running on the blockchain\r\ncontract GMart is TokenERC20{\r\n    \r\n    TokenERC20 tokenInstance;\r\n    address public owner = 0x5B38Da6a701c568545dCfcB03FcB875f56beddC4;\r\n    uint totalItem = 0;\r\n    uint8 defaultId = 10;\r\n    uint8 defaultId_storeOwner = 0;\r\n    // uint public totalStorefronts = 0;\r\n    uint shoppers_count;\r\n    \r\n    enum ItemStatus{Unavailable, Available}\r\n    ItemStatus available = ItemStatus(1);\r\n    ItemStatus unavailable = ItemStatus(0);\r\n    \r\n    //Struct of admin specs.\r\n    struct Admins {\r\n        address addr;\r\n        bytes id;\r\n    }\r\n    //Struct of StoreOwners specs\r\n    struct StoreOwners{\r\n        address addr;\r\n        bytes id;\r\n    }\r\n    \r\n    // Store details for adding a store to the storefront.\r\n    struct Storefront {\r\n        address payable storeOwner; // storeowner's public key\r\n        string name;\r\n        bytes storeref;\r\n        uint dateCreated;\r\n        bool active;\r\n        uint storecount;\r\n        uint itemCount;\r\n    }\r\n    //Struct of item specs\r\n    struct Item {\r\n        string name;\r\n        uint price;\r\n        uint quantity;\r\n        address payable sellerAddress;\r\n        bytes itemRef;\r\n        ItemStatus status;\r\n        bytes description;\r\n        uint itemCountId;\r\n    }\r\n    \r\n    Admins[] public adminList;\r\n    StoreOwners[] public storeOwnerslist;\r\n    Storefront[] storesList;\r\n    Item[] public itemList;\r\n\r\n    event ApprovedStoreOwner(address indexed _addr, bytes _ref);\r\n    event NewAdmin(address indexed _addr, bytes _ref);\r\n    event NewStoreFront(address indexed _newstore, bytes _storeId, string _name);\r\n    event UnregisteredStore(address indexed _storeOwnerAddress);\r\n    event NewItem(address indexed _addr, string _itemName, bytes _itemRef);\r\n    event PriceChange(bytes _referenceId, uint256 _newSetPrice);\r\n    event Withdrawal(address indexed _from, address indexed _to, uint _amount);\r\n    event RemovedItem(address indexed _msgsender, bytes _refId);\r\n    event ReceivedEther(address, uint);\r\n    event FrozenFunds(address target, bool frozen);\r\n     // This generates a public event on the blockchain that will notify clients\r\n    event Transfer(address indexed from, address indexed to, uint256 value);\r\n    \r\n    // Public event on the blockchain that will notify clients\r\n    event Approval(address indexed _owner, address indexed _spender, uint256 _value);\r\n    // Notifies clients about the amount burnt\r\n    event Burn(address indexed from, uint256 value);\r\n    \r\n    // An array with all balances \r\n    // mapping (address => uint256) public balanceOf;\r\n    // mapping (address => mapping (address => uint256)) public allowance;\r\n    mapping(address => bool) public  isAdmin;\r\n    mapping(address => Admins) adminMap;\r\n    mapping(address => bool) public adminApprovalToAdd;\r\n    mapping(address => bool) public isStoreOwnerApproved;\r\n    mapping(address => StoreOwners) storeOwnerMap;\r\n    mapping(address => bool) public storeOwnerApprovalToAddItem;//marked\r\n    mapping(address => mapping(bytes => bool)) public ifStorefAvailable;\r\n    mapping(address => bytes) public storef;\r\n    mapping(address => mapping(bytes => Storefront[])) storeMap; //List of storefronts\r\n    mapping(bytes => Storefront) storeHashMap;\r\n    mapping(address => mapping(bytes => Item)) public itemMap;\r\n    mapping(address => mapping(uint => Item)) itemcount;\r\n    mapping(bytes => Item) itemRefMap;\r\n    mapping(address => mapping(bytes => bool)) public ownerShip;\r\n    mapping(address => mapping(bytes => bytes)) itemHashMap;\r\n    mapping(bytes => bool) itemExist;\r\n    mapping(address => uint256) public balanceof;\r\n    mapping(address => uint256) public shoppers;\r\n    mapping (address => bool) public frozenAccounts;    \r\n    // Initialized at deployment time.\r\n    /**\r\n     * Constrctor function\r\n     *\r\n     * Initializes contract with initial supply tokens to the creator of the contract\r\n     */\r\n    constructor(\r\n        // uint256 initialSupply,\r\n        // string memory tokenName,\r\n        // string memory tokenSymbol\r\n    ) TokenERC20(500000, \"gmarttoken\", \"GMT\") public {}\r\n\r\n    //Only sender with owner Authorization is permiitted\r\n    modifier onlyOwner() {\r\n        require(msg.sender == owner, \"Request failed; Not an owner\");\r\n        _;\r\n    }\r\n    //Only sender with admin role is permiitted\r\n    modifier onlyAdmin() {\r\n        require(isAdmin[msg.sender] == true, \"Not Authorized address\");\r\n        require(adminApprovalToAdd[msg.sender] == true, \"Not Authorized\");\r\n        _;\r\n    }\r\n    //Only approved store owner is allowed\r\n    modifier approvedStoreOwner() {\r\n        require(isStoreOwnerApproved[msg.sender] == true, \"Address not authorized\");\r\n        require(storeOwnerApprovalToAddItem[msg.sender] == true, \"Unauthorized to add Item to store\");\r\n        _;\r\n    }\r\n    //Check if an item exist in a particular storefront\r\n    modifier checkItemExist(bytes memory _itemRef) {\r\n        require(itemExist[_itemRef] == true, \"Item does not exist\");\r\n        _;\r\n    }\r\n    \r\n    function transferOwnership(address _newOwner) public onlyOwner {\r\n        owner = _newOwner;\r\n    }\r\n    \r\n    // /* Internal transfer, only can be called by this contract */\r\n    // function _transfer(address _from, address _to, uint _value) internal override {\r\n    //     require (_to != address(0));                               // Prevent transfer to 0x0 address. Use burn() instead\r\n    //     require (balanceOf[_from] >= _value);               // Check if the sender has enough\r\n    //     require (balanceOf[_to] + _value >= balanceOf[_to]); // Check for overflows\r\n    //     require(!frozenAccounts[_from]);                     // Check if sender is frozen\r\n    //     require(!frozenAccounts[_to]);                       // Check if recipient is frozen\r\n    //     balanceOf[_from] -= _value;                         // Subtract from the sender\r\n    //     balanceOf[_to] += _value;                           // Add the same to the recipient\r\n    //     emit Transfer(_from, _to, _value);\r\n    // }\r\n    \r\n    // @notice Create `mintedAmount` tokens and send it to `target`\r\n    // @param target Address to receive the tokens\r\n    // @param mintedAmount the amount of tokens it will receive\r\n    function mintToken(address target, uint256 mintedAmount) onlyOwner public {\r\n        balanceOf[target] += mintedAmount;\r\n        totalSupply += mintedAmount;\r\n        emit Transfer(address(0), address(this), mintedAmount);\r\n        emit Transfer(address(this), target, mintedAmount);\r\n    }\r\n    \r\n    // @notice `freeze? Prevent | Allow` `target` from sending & receiving tokens\r\n    // @param target Address to be frozen\r\n    // @param freeze either to freeze it or not\r\n    function freezeAccount(address target, bool freeze) onlyOwner public {\r\n        frozenAccounts[target] = freeze;\r\n        emit FrozenFunds(target, freeze);\r\n    }\r\n\r\n    /*\r\n     * Transfer tokens\r\n     *\r\n     * Send `_value` tokens to `_to` from your account\r\n     * @param _from Address of sender\r\n     * @param _to The address of the recipient\r\n     * @param _value the amount to send\r\n     */\r\n    function transferToken(address _to, uint _value) internal {\r\n        require(!frozenAccounts[_to]);                       // Check if recipient is frozen\r\n        _transfer(msg.sender, _to, _value);\r\n    }\r\n    \r\n    /**\r\n     * Transfer tokens from other address\r\n     *\r\n     * Send `_value` tokens to `_to` in behalf of `_from`\r\n     *\r\n     * @param _from The address of the sender\r\n     * @param _to The address of the recipient\r\n     * @param _value the amount to send\r\n     */\r\n    function transferTokenFrom(address _from, address _to, uint256 _value) public returns (bool success) {\r\n        require(!frozenAccounts[_from]);        // Check if sender is frozen\r\n        require(!frozenAccounts[_to]);          // Check if recipient is frozen\r\n        transferFrom(_from, _to, _value);\r\n        return true;\r\n    }\r\n    \r\n    /**\r\n     * Set allowance for other address\r\n     *\r\n     * Allows `_spender` to spend no more than `_value` tokens in your behalf\r\n     *\r\n     * @param _spender The address authorized to spend\r\n     * @param _value the max amount they can spend\r\n     */\r\n    function approveSpender(address _spender, uint256 _value) public {\r\n        approve(_spender, _value);\r\n        emit Approval(msg.sender, _spender, _value);\r\n    }\r\n    \r\n    /**\r\n     * Set allowance for other address and notify\r\n     *\r\n     * Allows `_spender` to spend no more than `_value` tokens on your behalf, and then ping the contract about it\r\n     *\r\n     * @param _spender The address authorized to spend\r\n     * @param _value the max amount they can spend\r\n     * @param _extraData some extra information to send to the approved contract\r\n     */\r\n    function approveandCall(address _spender, uint256 _value, bytes memory _extraData) public {\r\n        approveAndCall(_spender, _value, _extraData);\r\n    }\r\n    \r\n    /**\r\n     * Destroy tokens\r\n     *\r\n     * Remove `_value` tokens from the system irreversibly\r\n     *\r\n     * @param _value the amount of money to burn\r\n     */\r\n    function burnToken(uint256 _value) public {\r\n        burn(_value);\r\n    }\r\n    \r\n       /**\r\n     * Destroy tokens from other account\r\n     *\r\n     * Remove `_value` tokens from the system irreversibly on behalf of `_from`.\r\n     *\r\n     * @param _from the address of the sender\r\n     * @param _value the amount of money to burn\r\n     */\r\n    function burnTokenFrom(address _from, uint256 _value) public {\r\n        burnFrom(_from, _value);\r\n        \r\n    }\r\n    \r\n    /**\r\n     * @dev adds an adminList\r\n     * function is called only by the authorized owner address\r\n     */\r\n    function addAdmin(address _addr, bool _approval) public onlyOwner returns(bool){\r\n        require(adminList.length <= 3, \"Max admin list reached\");\r\n        require(_addr != address(0), \"Invalid address\");\r\n        Admins memory _adminStruct = adminMap[_addr];\r\n        uint8 tempAdminId = defaultId += 1;\r\n        _adminStruct.addr = _addr;\r\n        _adminStruct.id = abi.encode(_addr, tempAdminId);\r\n        adminList.push(_adminStruct);\r\n        adminApprovalToAdd[_addr] = _approval;\r\n        isAdmin[_addr] = true;\r\n        emit NewAdmin(_addr, _adminStruct.id);\r\n        return true;\r\n    }\r\n\r\n    function checkIsAdmin(address _addr) public view returns(bool, bool) {\r\n        return (isAdmin[_addr], adminApprovalToAdd[_addr]);\r\n    }\r\n\r\n    function checkStoreOwnerApproved(address _addr) public view returns(bool, bool) {\r\n        return (isStoreOwnerApproved[_addr], storeOwnerApprovalToAddItem[_addr]);\r\n    }\r\n    \r\n    function approve_StoreOwner(address payable _addr, bool _approval) public onlyAdmin returns(bool successful) {\r\n        require(_addr != address(0), \"Invalid address\");\r\n        StoreOwners memory _ownerStruct = storeOwnerMap[_addr];\r\n        uint8 tempId = defaultId_storeOwner += 1;\r\n        _ownerStruct.addr = _addr;\r\n        _ownerStruct.id = abi.encode(_addr, tempId);\r\n        storeOwnerslist.push(_ownerStruct);\r\n        storeOwnerApprovalToAddItem[_addr] = _approval;\r\n        isStoreOwnerApproved[_addr] = true;\r\n        emit ApprovedStoreOwner(_addr, _ownerStruct.id);\r\n        return successful;\r\n    }\r\n    \r\n    function changeAdminApproval(address _addr, bool _approval) public onlyOwner {\r\n        require(isAdmin[_addr] == true, \"Not already added\");\r\n        adminApprovalToAdd[_addr] = _approval;\r\n    }\r\n    \r\n    function changeStoreOwnerApproval(address _addr, bool _approval) public onlyAdmin {\r\n        require(isStoreOwnerApproved[_addr] == true, \"Not already added\");\r\n        storeOwnerApprovalToAddItem[_addr] = _approval;\r\n    }\r\n\r\n    /**\r\n    * StoreOwners Registers a new storefront. \r\n    * currently a participant self-adding strorefront\r\n    * param: _storeName: Name of the store.\r\n    * param: _itemName: Name of an item.\r\n    * param: _description: Detail of an item.\r\n    * param: _price: unit price of an item.\r\n    * param: _storeref: A unique reference Id to the store.\r\n    * param: _quantity: Unit of item to add.\r\n    */\r\n    function addStorefront(\r\n         string memory _storeName,\r\n         string memory _itemName,\r\n         string memory _description,\r\n         uint _price,\r\n         uint _quantity\r\n         ) public approvedStoreOwner returns(bool success) {\r\n         Storefront memory _newStoreFront;\r\n         Item memory _newItem;\r\n         bytes memory _storeRef = abi.encode(msg.sender, _storeName);\r\n         require(ifStorefAvailable[msg.sender][_storeRef] == false, \"Store already exist\" );\r\n         require(storeMap[msg.sender][_storeRef].length < 3, \"Address can only create two storefront\");\r\n         _newStoreFront.dateCreated = block.timestamp - 15;\r\n         _newStoreFront.name = _storeName;\r\n         _newStoreFront.storeOwner = msg.sender;\r\n         _newStoreFront.storeref = _storeRef;\r\n         _newStoreFront.active = true;\r\n         if(_newStoreFront.itemCount == 0){\r\n             _newItem = addItemToStore(_itemName, _description, _price, _storeRef, _quantity);\r\n             _newStoreFront.storecount += 1;\r\n         }\r\n        //  require(_newStoreFront.shelve.length > 0, \"Shelve cannot be empty\");\r\n         storeMap[msg.sender][_storeRef].push(_newStoreFront);\r\n         ifStorefAvailable[msg.sender][_storeRef] = true;\r\n         storef[msg.sender] = _storeRef;\r\n         storeHashMap[_storeRef] = _newStoreFront;\r\n         emit NewStoreFront(msg.sender, _storeRef, _itemName);\r\n         return success;\r\n        \r\n     }\r\n     \r\n     function getStoreDetail(bytes memory _ref) public view approvedStoreOwner returns(string memory, uint, address, bytes memory, bool, uint) {\r\n         require(ifStorefAvailable[msg.sender][_ref] == true, \"Store does not exist\" );\r\n         Storefront memory _storeToGet = storeHashMap[_ref];\r\n         return(\r\n             _storeToGet.name,\r\n             _storeToGet.dateCreated,\r\n             _storeToGet.storeOwner,\r\n             _storeToGet.storeref,\r\n             _storeToGet.active,\r\n             _storeToGet.storecount\r\n            );\r\n        \r\n     }\r\n     \r\n          /**\r\n     * StoreOwners Registers a new item to shelve. \r\n     * param: _itemName: Name of an item.\r\n     * param: _description: Detail of an item.\r\n     * param: _price: unit price of an item.\r\n     * param: _storeref: A unique reference Id to the store.\r\n     * param: _quantity: Unit of item to add.\r\n     */\r\n     \r\n    function addItemToStore(\r\n        string memory _itemName,\r\n        string memory _description,\r\n        uint _price,\r\n        bytes memory _storeRef,\r\n        uint _qnty\r\n        )public \r\n        approvedStoreOwner \r\n        returns(Item memory _newItem)\r\n        {\r\n            require(_price > 0, \"Price cannot be empty\");\r\n            _newItem.name = _itemName;\r\n            _newItem.price = _price;\r\n            _newItem.quantity = _qnty;\r\n            _newItem.itemCountId += 1;\r\n            bytes memory _itemref = abi.encode(msg.sender, _newItem.itemCountId, _itemName, _price, _description);\r\n            _newItem.sellerAddress = msg.sender;\r\n            _newItem.itemRef = _itemref;\r\n            itemcount[msg.sender][_newItem.itemCountId] = _newItem;\r\n            ownerShip[msg.sender][_itemref] = true;\r\n            _newItem.status = available;\r\n            itemList.push(_newItem);\r\n            itemMap[msg.sender][_itemref] = (_newItem);\r\n            itemRefMap[_itemref] = _newItem;\r\n            itemHashMap[msg.sender][_storeRef] = _itemref;\r\n            itemExist[_itemref] = true;\r\n            // uint newItemIndex = EnumerableMap.length(allItem);\r\n            // EnumerableMap.set(allItem, newItemIndex, msg.sender);\r\n            emit NewItem(msg.sender, _itemName, _itemref);\r\n            return _newItem;\r\n     }\r\n     \r\n     function removeAnItem(bytes memory _itemRef) public approvedStoreOwner checkItemExist(_itemRef) {\r\n         delete itemMap[msg.sender][_itemRef];\r\n         emit RemovedItem(msg.sender, _itemRef);\r\n     }\r\n      function removeAStore(bytes memory _ref) public approvedStoreOwner {\r\n          delete storeMap[msg.sender][_ref];\r\n      }\r\n\r\n     function adjustPrice(uint _newPrice, bytes calldata _itemRef) external approvedStoreOwner checkItemExist(_itemRef) {\r\n         require(_newPrice > 0, \"Price cannot be zero\");\r\n         Item memory currentItem = itemMap[msg.sender][_itemRef];\r\n         uint _oldPrice = currentItem.price;\r\n         _oldPrice = _newPrice;\r\n         emit PriceChange(_itemRef, _newPrice);\r\n     }\r\n     \r\n    function buyItem(\r\n        bytes memory _itemRef,\r\n        uint _qnty\r\n        )public payable checkItemExist(_itemRef) returns(bool success) \r\n        {\r\n            Item memory _itemToBuy = itemRefMap[_itemRef];\r\n            uint buyUnitPrice = _itemToBuy.price;\r\n            address _sellerAddress = _itemToBuy.sellerAddress;\r\n            require(_qnty > 0, \"Invalid quantity\");\r\n            require(balanceOf[msg.sender] >= buyUnitPrice, \"Insufficeient balance\");\r\n            require(_itemToBuy.status == available, \"Item Unavailable\");\r\n            require(_qnty <= _itemToBuy.quantity, \"Cannot exceed seller's preset amount.\");\r\n            uint256 amountToPay = _qnty * buyUnitPrice;\r\n            require(amountToPay / _qnty == buyUnitPrice);\r\n            require(msg.value >= amountToPay, \"Amount cannot be less than total price\");\r\n            balanceOf[msg.sender] -= msg.value;\r\n            balanceOf[_sellerAddress] += msg.value;\r\n            ownerShip[_sellerAddress][_itemRef] = false;\r\n            ownerShip[msg.sender][_itemRef] = true;\r\n            uint prevQuanty = _itemToBuy.quantity;\r\n            prevQuanty -= _qnty;\r\n            if(prevQuanty == 0){\r\n                delete _itemToBuy;\r\n                _itemToBuy.status == unavailable;\r\n                return success;\r\n            }else if(prevQuanty > 0){\r\n                _itemToBuy.quantity = prevQuanty;\r\n            }\r\n            shoppers[msg.sender] = shoppers_count += 1;\r\n     }\r\n     \r\n    function withdrawBalanceStoreOwner(address payable _addr, uint _amount) external payable approvedStoreOwner returns(bool success) {\r\n         require(balanceOf[msg.sender] >= _amount, \"Insufficeient balance\");\r\n         balanceOf[msg.sender] -= _amount;\r\n         _addr.transfer(_amount);\r\n         emit Withdrawal(msg.sender, _addr, _amount);\r\n         return success;\r\n     }\r\n    \r\n    function deleteAdmin(address _addr) public onlyOwner returns(bool success) {\r\n        require(isAdmin[_addr] == true, \"Not an admin\");\r\n        return isAdmin[_addr] = false;\r\n    }\r\n    \r\n    /**\r\n     * @dev UnRegisters a store from the Storefront \r\n     * currently only an admin is able to remove store\r\n     */\r\n    function unregisterStore(address _addr, bytes memory _ref) public onlyAdmin returns(bool success) {\r\n        require(isStoreOwnerApproved[_addr] == true, \"Not a store owner already\");\r\n        require(ifStorefAvailable[_addr][_ref] == true, \"Canoot find any match\");\r\n        delete storeMap[_addr][_ref];\r\n        emit UnregisteredStore(_addr);\r\n        return success;\r\n    }\r\n    \r\n    //@dev Withdraw funds\r\n    function withdraw(uint _amount) onlyOwner public payable{\r\n        msg.sender.transfer(_amount);\r\n    }\r\n    \r\n    receive() external payable {\r\n        emit ReceivedEther(msg.sender, msg.value);\r\n    }\r\n    \r\n}    ",
  "sourcePath": "C:/Users/OWNER/Desktop/bootFinalProject/consensys-finalProject/contracts/GMart.sol",
  "compiler": {
    "name": "solc",
    "version": "0.6.1+commit.e6f7d5a4.Emscripten.clang"
  },
  "schemaVersion": "3.2.5",
  "updatedAt": "2020-11-30T07:59:15.333Z",
  "devdoc": {
    "methods": {
      "addAdmin(address,bool)": {
        "details": "adds an adminList function is called only by the authorized owner address"
      },
      "approve(address,uint256)": {
        "params": {
          "_spender": "The address authorized to spend",
          "_value": "the max amount they can spend"
        }
      },
      "approveAndCall(address,uint256,bytes)": {
        "params": {
          "_extraData": "some extra information to send to the approved contract",
          "_spender": "The address authorized to spend",
          "_value": "the max amount they can spend"
        }
      },
      "approveSpender(address,uint256)": {
        "params": {
          "_spender": "The address authorized to spend",
          "_value": "the max amount they can spend"
        }
      },
      "approveandCall(address,uint256,bytes)": {
        "params": {
          "_extraData": "some extra information to send to the approved contract",
          "_spender": "The address authorized to spend",
          "_value": "the max amount they can spend"
        }
      },
      "burn(uint256)": {
        "params": {
          "_value": "the amount of money to burn"
        }
      },
      "burnFrom(address,uint256)": {
        "params": {
          "_from": "the address of the sender",
          "_value": "the amount of money to burn"
        }
      },
      "burnToken(uint256)": {
        "params": {
          "_value": "the amount of money to burn"
        }
      },
      "burnTokenFrom(address,uint256)": {
        "params": {
          "_from": "the address of the sender",
          "_value": "the amount of money to burn"
        }
      },
      "transfer(address,uint256)": {
        "params": {
          "_to": "The address of the recipient",
          "_value": "the amount to send"
        }
      },
      "transferFrom(address,address,uint256)": {
        "params": {
          "_from": "The address of the sender",
          "_to": "The address of the recipient",
          "_value": "the amount to send"
        }
      },
      "transferTokenFrom(address,address,uint256)": {
        "params": {
          "_from": "The address of the sender",
          "_to": "The address of the recipient",
          "_value": "the amount to send"
        }
      },
      "unregisterStore(address,bytes)": {
        "details": "UnRegisters a store from the Storefront  currently only an admin is able to remove store"
      }
    }
  },
  "userdoc": {
    "methods": {
      "addItemToStore(string,string,uint256,bytes,uint256)": {
        "notice": "StoreOwners Registers a new item to shelve.  param: _itemName: Name of an item. param: _description: Detail of an item. param: _price: unit price of an item. param: _storeref: A unique reference Id to the store. param: _quantity: Unit of item to add."
      },
      "addStorefront(string,string,string,uint256,uint256)": {
        "notice": "StoreOwners Registers a new storefront.  currently a participant self-adding strorefront param: _storeName: Name of the store. param: _itemName: Name of an item. param: _description: Detail of an item. param: _price: unit price of an item. param: _storeref: A unique reference Id to the store. param: _quantity: Unit of item to add."
      },
      "approve(address,uint256)": {
        "notice": "Set allowance for other address      * Allows `_spender` to spend no more than `_value` tokens in your behalf "
      },
      "approveAndCall(address,uint256,bytes)": {
        "notice": "Set allowance for other address and notify      * Allows `_spender` to spend no more than `_value` tokens on your behalf, and then ping the contract about it "
      },
      "approveSpender(address,uint256)": {
        "notice": "Set allowance for other address      * Allows `_spender` to spend no more than `_value` tokens in your behalf "
      },
      "approveandCall(address,uint256,bytes)": {
        "notice": "Set allowance for other address and notify      * Allows `_spender` to spend no more than `_value` tokens on your behalf, and then ping the contract about it "
      },
      "burn(uint256)": {
        "notice": "Destroy tokens      * Remove `_value` tokens from the system irreversibly "
      },
      "burnFrom(address,uint256)": {
        "notice": "Destroy tokens from other account      * Remove `_value` tokens from the system irreversibly on behalf of `_from`. "
      },
      "burnToken(uint256)": {
        "notice": "Destroy tokens      * Remove `_value` tokens from the system irreversibly "
      },
      "burnTokenFrom(address,uint256)": {
        "notice": "Destroy tokens from other account      * Remove `_value` tokens from the system irreversibly on behalf of `_from`. "
      },
      "constructor": "Constrctor function      * Initializes contract with initial supply tokens to the creator of the contract",
      "transfer(address,uint256)": {
        "notice": "Transfer tokens      * Send `_value` tokens to `_to` from your account "
      },
      "transferFrom(address,address,uint256)": {
        "notice": "Transfer tokens from other address      * Send `_value` tokens to `_to` in behalf of `_from` "
      },
      "transferTokenFrom(address,address,uint256)": {
        "notice": "Transfer tokens from other address      * Send `_value` tokens to `_to` in behalf of `_from` "
      }
    }
  }
}