{
  "contractName": "GMart",
  "abi": [
    {
      "inputs": [],
      "stateMutability": "nonpayable",
      "type": "constructor"
    },
    {
      "anonymous": false,
      "inputs": [
        {
          "indexed": true,
          "internalType": "address",
          "name": "_addr",
          "type": "address"
        },
        {
          "indexed": false,
          "internalType": "bytes",
          "name": "_ref",
          "type": "bytes"
        }
      ],
      "name": "ApprovedStoreOwner",
      "type": "event"
    },
    {
      "anonymous": false,
      "inputs": [
        {
          "indexed": true,
          "internalType": "address",
          "name": "_addr",
          "type": "address"
        },
        {
          "indexed": false,
          "internalType": "bytes",
          "name": "_ref",
          "type": "bytes"
        }
      ],
      "name": "NewAdmin",
      "type": "event"
    },
    {
      "anonymous": false,
      "inputs": [
        {
          "indexed": true,
          "internalType": "address",
          "name": "_addr",
          "type": "address"
        },
        {
          "indexed": false,
          "internalType": "string",
          "name": "_itemName",
          "type": "string"
        },
        {
          "indexed": false,
          "internalType": "bytes",
          "name": "_itemRef",
          "type": "bytes"
        }
      ],
      "name": "NewItem",
      "type": "event"
    },
    {
      "anonymous": false,
      "inputs": [
        {
          "indexed": true,
          "internalType": "address",
          "name": "_newstore",
          "type": "address"
        },
        {
          "indexed": false,
          "internalType": "bytes",
          "name": "_storeId",
          "type": "bytes"
        },
        {
          "indexed": false,
          "internalType": "string",
          "name": "_name",
          "type": "string"
        }
      ],
      "name": "NewStoreFront",
      "type": "event"
    },
    {
      "anonymous": false,
      "inputs": [
        {
          "indexed": false,
          "internalType": "bytes",
          "name": "_referenceId",
          "type": "bytes"
        },
        {
          "indexed": false,
          "internalType": "uint256",
          "name": "_newSetPrice",
          "type": "uint256"
        }
      ],
      "name": "PriceChange",
      "type": "event"
    },
    {
      "anonymous": false,
      "inputs": [
        {
          "indexed": false,
          "internalType": "address",
          "name": "",
          "type": "address"
        },
        {
          "indexed": false,
          "internalType": "uint256",
          "name": "",
          "type": "uint256"
        }
      ],
      "name": "ReceivedEther",
      "type": "event"
    },
    {
      "anonymous": false,
      "inputs": [
        {
          "indexed": true,
          "internalType": "address",
          "name": "_msgsender",
          "type": "address"
        },
        {
          "indexed": false,
          "internalType": "bytes",
          "name": "_refId",
          "type": "bytes"
        }
      ],
      "name": "RemovedItem",
      "type": "event"
    },
    {
      "anonymous": false,
      "inputs": [
        {
          "indexed": true,
          "internalType": "address",
          "name": "_storeOwnerAddress",
          "type": "address"
        }
      ],
      "name": "UnregisteredStore",
      "type": "event"
    },
    {
      "anonymous": false,
      "inputs": [
        {
          "indexed": true,
          "internalType": "address",
          "name": "_from",
          "type": "address"
        },
        {
          "indexed": true,
          "internalType": "address",
          "name": "_to",
          "type": "address"
        },
        {
          "indexed": false,
          "internalType": "uint256",
          "name": "_amount",
          "type": "uint256"
        }
      ],
      "name": "Withdrawal",
      "type": "event"
    },
    {
      "inputs": [
        {
          "internalType": "address",
          "name": "",
          "type": "address"
        }
      ],
      "name": "adminApprovalToAdd",
      "outputs": [
        {
          "internalType": "bool",
          "name": "",
          "type": "bool"
        }
      ],
      "stateMutability": "view",
      "type": "function",
      "constant": true
    },
    {
      "inputs": [
        {
          "internalType": "uint256",
          "name": "",
          "type": "uint256"
        }
      ],
      "name": "adminList",
      "outputs": [
        {
          "internalType": "address",
          "name": "addr",
          "type": "address"
        },
        {
          "internalType": "bytes",
          "name": "id",
          "type": "bytes"
        }
      ],
      "stateMutability": "view",
      "type": "function",
      "constant": true
    },
    {
      "inputs": [
        {
          "internalType": "address",
          "name": "",
          "type": "address"
        }
      ],
      "name": "balance",
      "outputs": [
        {
          "internalType": "uint256",
          "name": "",
          "type": "uint256"
        }
      ],
      "stateMutability": "view",
      "type": "function",
      "constant": true
    },
    {
      "inputs": [
        {
          "internalType": "address",
          "name": "",
          "type": "address"
        },
        {
          "internalType": "bytes",
          "name": "",
          "type": "bytes"
        }
      ],
      "name": "ifStorefAvailable",
      "outputs": [
        {
          "internalType": "bool",
          "name": "",
          "type": "bool"
        }
      ],
      "stateMutability": "view",
      "type": "function",
      "constant": true
    },
    {
      "inputs": [
        {
          "internalType": "address",
          "name": "",
          "type": "address"
        }
      ],
      "name": "isAdmin",
      "outputs": [
        {
          "internalType": "bool",
          "name": "",
          "type": "bool"
        }
      ],
      "stateMutability": "view",
      "type": "function",
      "constant": true
    },
    {
      "inputs": [
        {
          "internalType": "address",
          "name": "",
          "type": "address"
        }
      ],
      "name": "isStoreOwnerApproved",
      "outputs": [
        {
          "internalType": "bool",
          "name": "",
          "type": "bool"
        }
      ],
      "stateMutability": "view",
      "type": "function",
      "constant": true
    },
    {
      "inputs": [
        {
          "internalType": "uint256",
          "name": "",
          "type": "uint256"
        }
      ],
      "name": "itemList",
      "outputs": [
        {
          "internalType": "string",
          "name": "name",
          "type": "string"
        },
        {
          "internalType": "uint256",
          "name": "price",
          "type": "uint256"
        },
        {
          "internalType": "uint256",
          "name": "quantity",
          "type": "uint256"
        },
        {
          "internalType": "address payable",
          "name": "sellerAddress",
          "type": "address"
        },
        {
          "internalType": "bytes",
          "name": "itemRef",
          "type": "bytes"
        },
        {
          "internalType": "enum GMart.ItemStatus",
          "name": "status",
          "type": "uint8"
        },
        {
          "internalType": "bytes",
          "name": "description",
          "type": "bytes"
        },
        {
          "internalType": "uint256",
          "name": "itemCountId",
          "type": "uint256"
        }
      ],
      "stateMutability": "view",
      "type": "function",
      "constant": true
    },
    {
      "inputs": [
        {
          "internalType": "address",
          "name": "",
          "type": "address"
        },
        {
          "internalType": "bytes",
          "name": "",
          "type": "bytes"
        }
      ],
      "name": "itemMap",
      "outputs": [
        {
          "internalType": "string",
          "name": "name",
          "type": "string"
        },
        {
          "internalType": "uint256",
          "name": "price",
          "type": "uint256"
        },
        {
          "internalType": "uint256",
          "name": "quantity",
          "type": "uint256"
        },
        {
          "internalType": "address payable",
          "name": "sellerAddress",
          "type": "address"
        },
        {
          "internalType": "bytes",
          "name": "itemRef",
          "type": "bytes"
        },
        {
          "internalType": "enum GMart.ItemStatus",
          "name": "status",
          "type": "uint8"
        },
        {
          "internalType": "bytes",
          "name": "description",
          "type": "bytes"
        },
        {
          "internalType": "uint256",
          "name": "itemCountId",
          "type": "uint256"
        }
      ],
      "stateMutability": "view",
      "type": "function",
      "constant": true
    },
    {
      "inputs": [],
      "name": "owner",
      "outputs": [
        {
          "internalType": "address",
          "name": "",
          "type": "address"
        }
      ],
      "stateMutability": "view",
      "type": "function",
      "constant": true
    },
    {
      "inputs": [
        {
          "internalType": "address",
          "name": "",
          "type": "address"
        },
        {
          "internalType": "bytes",
          "name": "",
          "type": "bytes"
        }
      ],
      "name": "ownerShip",
      "outputs": [
        {
          "internalType": "bool",
          "name": "",
          "type": "bool"
        }
      ],
      "stateMutability": "view",
      "type": "function",
      "constant": true
    },
    {
      "inputs": [
        {
          "internalType": "address",
          "name": "",
          "type": "address"
        }
      ],
      "name": "shoppers",
      "outputs": [
        {
          "internalType": "uint256",
          "name": "",
          "type": "uint256"
        }
      ],
      "stateMutability": "view",
      "type": "function",
      "constant": true
    },
    {
      "inputs": [
        {
          "internalType": "address",
          "name": "",
          "type": "address"
        }
      ],
      "name": "storeOwnerApprovalToAddItem",
      "outputs": [
        {
          "internalType": "bool",
          "name": "",
          "type": "bool"
        }
      ],
      "stateMutability": "view",
      "type": "function",
      "constant": true
    },
    {
      "inputs": [
        {
          "internalType": "uint256",
          "name": "",
          "type": "uint256"
        }
      ],
      "name": "storeOwnerslist",
      "outputs": [
        {
          "internalType": "address",
          "name": "addr",
          "type": "address"
        },
        {
          "internalType": "bytes",
          "name": "id",
          "type": "bytes"
        }
      ],
      "stateMutability": "view",
      "type": "function",
      "constant": true
    },
    {
      "inputs": [
        {
          "internalType": "address",
          "name": "",
          "type": "address"
        }
      ],
      "name": "storef",
      "outputs": [
        {
          "internalType": "bytes",
          "name": "",
          "type": "bytes"
        }
      ],
      "stateMutability": "view",
      "type": "function",
      "constant": true
    },
    {
      "stateMutability": "payable",
      "type": "receive",
      "payable": true
    },
    {
      "inputs": [
        {
          "internalType": "address",
          "name": "_addr",
          "type": "address"
        },
        {
          "internalType": "bool",
          "name": "_approval",
          "type": "bool"
        }
      ],
      "name": "addAdmin",
      "outputs": [
        {
          "internalType": "bool",
          "name": "",
          "type": "bool"
        }
      ],
      "stateMutability": "nonpayable",
      "type": "function"
    },
    {
      "inputs": [
        {
          "internalType": "address",
          "name": "_addr",
          "type": "address"
        }
      ],
      "name": "checkIsAdmin",
      "outputs": [
        {
          "internalType": "bool",
          "name": "",
          "type": "bool"
        },
        {
          "internalType": "bool",
          "name": "",
          "type": "bool"
        }
      ],
      "stateMutability": "view",
      "type": "function",
      "constant": true
    },
    {
      "inputs": [
        {
          "internalType": "address",
          "name": "_addr",
          "type": "address"
        }
      ],
      "name": "checkStoreOwnerApproved",
      "outputs": [
        {
          "internalType": "bool",
          "name": "",
          "type": "bool"
        },
        {
          "internalType": "bool",
          "name": "",
          "type": "bool"
        }
      ],
      "stateMutability": "view",
      "type": "function",
      "constant": true
    },
    {
      "inputs": [
        {
          "internalType": "address payable",
          "name": "_addr",
          "type": "address"
        },
        {
          "internalType": "bool",
          "name": "_approval",
          "type": "bool"
        }
      ],
      "name": "approve_StoreOwner",
      "outputs": [
        {
          "internalType": "bool",
          "name": "successful",
          "type": "bool"
        }
      ],
      "stateMutability": "nonpayable",
      "type": "function"
    },
    {
      "inputs": [
        {
          "internalType": "address",
          "name": "_addr",
          "type": "address"
        },
        {
          "internalType": "bool",
          "name": "_approval",
          "type": "bool"
        }
      ],
      "name": "changeAdminApproval",
      "outputs": [],
      "stateMutability": "nonpayable",
      "type": "function"
    },
    {
      "inputs": [
        {
          "internalType": "address",
          "name": "_addr",
          "type": "address"
        },
        {
          "internalType": "bool",
          "name": "_approval",
          "type": "bool"
        }
      ],
      "name": "changeStoreOwnerApproval",
      "outputs": [],
      "stateMutability": "nonpayable",
      "type": "function"
    },
    {
      "inputs": [
        {
          "internalType": "string",
          "name": "_storeName",
          "type": "string"
        },
        {
          "internalType": "string",
          "name": "_itemName",
          "type": "string"
        },
        {
          "internalType": "string",
          "name": "_description",
          "type": "string"
        },
        {
          "internalType": "uint256",
          "name": "_price",
          "type": "uint256"
        },
        {
          "internalType": "uint256",
          "name": "_quantity",
          "type": "uint256"
        }
      ],
      "name": "addStorefront",
      "outputs": [
        {
          "internalType": "bool",
          "name": "success",
          "type": "bool"
        }
      ],
      "stateMutability": "nonpayable",
      "type": "function"
    },
    {
      "inputs": [
        {
          "internalType": "bytes",
          "name": "_ref",
          "type": "bytes"
        }
      ],
      "name": "getStoreDetail",
      "outputs": [
        {
          "internalType": "string",
          "name": "",
          "type": "string"
        },
        {
          "internalType": "uint256",
          "name": "",
          "type": "uint256"
        },
        {
          "internalType": "address",
          "name": "",
          "type": "address"
        },
        {
          "internalType": "bytes",
          "name": "",
          "type": "bytes"
        },
        {
          "internalType": "bool",
          "name": "",
          "type": "bool"
        },
        {
          "internalType": "uint256",
          "name": "",
          "type": "uint256"
        }
      ],
      "stateMutability": "view",
      "type": "function",
      "constant": true
    },
    {
      "inputs": [
        {
          "internalType": "string",
          "name": "_itemName",
          "type": "string"
        },
        {
          "internalType": "string",
          "name": "_description",
          "type": "string"
        },
        {
          "internalType": "uint256",
          "name": "_price",
          "type": "uint256"
        },
        {
          "internalType": "bytes",
          "name": "_storeRef",
          "type": "bytes"
        },
        {
          "internalType": "uint256",
          "name": "_qnty",
          "type": "uint256"
        }
      ],
      "name": "addItemToStore",
      "outputs": [
        {
          "components": [
            {
              "internalType": "string",
              "name": "name",
              "type": "string"
            },
            {
              "internalType": "uint256",
              "name": "price",
              "type": "uint256"
            },
            {
              "internalType": "uint256",
              "name": "quantity",
              "type": "uint256"
            },
            {
              "internalType": "address payable",
              "name": "sellerAddress",
              "type": "address"
            },
            {
              "internalType": "bytes",
              "name": "itemRef",
              "type": "bytes"
            },
            {
              "internalType": "enum GMart.ItemStatus",
              "name": "status",
              "type": "uint8"
            },
            {
              "internalType": "bytes",
              "name": "description",
              "type": "bytes"
            },
            {
              "internalType": "uint256",
              "name": "itemCountId",
              "type": "uint256"
            }
          ],
          "internalType": "struct GMart.Item",
          "name": "_newItem",
          "type": "tuple"
        }
      ],
      "stateMutability": "nonpayable",
      "type": "function"
    },
    {
      "inputs": [
        {
          "internalType": "bytes",
          "name": "_itemRef",
          "type": "bytes"
        }
      ],
      "name": "removeAnItem",
      "outputs": [],
      "stateMutability": "nonpayable",
      "type": "function"
    },
    {
      "inputs": [
        {
          "internalType": "bytes",
          "name": "_ref",
          "type": "bytes"
        }
      ],
      "name": "removeAStore",
      "outputs": [],
      "stateMutability": "nonpayable",
      "type": "function"
    },
    {
      "inputs": [
        {
          "internalType": "uint256",
          "name": "_newPrice",
          "type": "uint256"
        },
        {
          "internalType": "bytes",
          "name": "_itemRef",
          "type": "bytes"
        }
      ],
      "name": "adjustPrice",
      "outputs": [],
      "stateMutability": "nonpayable",
      "type": "function"
    },
    {
      "inputs": [
        {
          "internalType": "bytes",
          "name": "_itemRef",
          "type": "bytes"
        },
        {
          "internalType": "uint256",
          "name": "_qnty",
          "type": "uint256"
        }
      ],
      "name": "buyItem",
      "outputs": [
        {
          "internalType": "bool",
          "name": "success",
          "type": "bool"
        }
      ],
      "stateMutability": "payable",
      "type": "function",
      "payable": true
    },
    {
      "inputs": [
        {
          "internalType": "address payable",
          "name": "_addr",
          "type": "address"
        },
        {
          "internalType": "uint256",
          "name": "_amount",
          "type": "uint256"
        }
      ],
      "name": "withdrawBalanceStoreOwner",
      "outputs": [
        {
          "internalType": "bool",
          "name": "success",
          "type": "bool"
        }
      ],
      "stateMutability": "payable",
      "type": "function",
      "payable": true
    },
    {
      "inputs": [
        {
          "internalType": "address",
          "name": "_addr",
          "type": "address"
        }
      ],
      "name": "deleteAdmin",
      "outputs": [
        {
          "internalType": "bool",
          "name": "success",
          "type": "bool"
        }
      ],
      "stateMutability": "nonpayable",
      "type": "function"
    },
    {
      "inputs": [
        {
          "internalType": "address",
          "name": "_addr",
          "type": "address"
        },
        {
          "internalType": "bytes",
          "name": "_ref",
          "type": "bytes"
        }
      ],
      "name": "unregisterStore",
      "outputs": [
        {
          "internalType": "bool",
          "name": "success",
          "type": "bool"
        }
      ],
      "stateMutability": "nonpayable",
      "type": "function"
    },
    {
      "inputs": [
        {
          "internalType": "uint256",
          "name": "_amount",
          "type": "uint256"
        }
      ],
      "name": "withdraw",
      "outputs": [],
      "stateMutability": "payable",
      "type": "function",
      "payable": true
    }
  ],
  "bytecode": "0x60806040526000600155600a600260006101000a81548160ff021916908360ff1602179055506000600260016101000a81548160ff021916908360ff1602179055506001808111156200004e57fe5b600460006101000a81548160ff021916908360018111156200006c57fe5b0217905550600060018111156200007f57fe5b600460016101000a81548160ff021916908360018111156200009d57fe5b0217905550348015620000af57600080fd5b50336000806101000a81548173ffffffffffffffffffffffffffffffffffffffff021916908373ffffffffffffffffffffffffffffffffffffffff16021790555061685a80620001006000396000f3fe6080604052600436106101dc5760003560e01c80636df2910111610102578063bacefbb511610095578063e9113f3411610064578063e9113f3414610803578063f33204a914610833578063f94a52ba14610870578063fba855d0146108ad5761021c565b8063bacefbb51461070e578063d953689d1461074b578063db9ab0ce14610789578063e3d670d7146107c65761021c565b80639aadffe5116100d15780639aadffe514610619578063a07804fc14610656578063a4230bd514610694578063aafa9b88146106d15761021c565b80636df29101146105585780636fd2e793146105815780638da5cb5b146105b15780638efca0dd146105dc5761021c565b80632e1a7d4d1161017a5780634eb43aa5116101495780634eb43aa51461049957806350152f84146104c25780635af7bb7d14610506578063613a835e1461052f5761021c565b80632e1a7d4d146103bf5780632f986735146103db5780633d4d3600146104185780634c2e025b1461045c5761021c565b806322c86bc2116101b657806322c86bc2146102df57806324d7806c14610308578063256e49d31461034557806327e1f7df146103825761021c565b80630a97c55a146102215780630fc970a61461026357806311117fc8146102a15761021c565b3661021c577fa419615bc8fda4c87663805ee2a3597a6d71c1d476911d9892f340d965bc7bf13334604051610212929190615f67565b60405180910390a1005b600080fd5b34801561022d57600080fd5b5061024860048036036102439190810190615379565b6108ea565b60405161025a9695949392919061619b565b60405180910390f35b34801561026f57600080fd5b5061028a6004803603610285919081019061558c565b610d0c565b60405161029892919061601a565b60405180910390f35b3480156102ad57600080fd5b506102c860048036036102c3919081019061558c565b610df5565b6040516102d692919061601a565b60405180910390f35b3480156102eb57600080fd5b5061030660048036036103019190810190615295565b610ede565b005b34801561031457600080fd5b5061032f600480360361032a91908101906151f4565b61105b565b60405161033c9190616073565b60405180910390f35b34801561035157600080fd5b5061036c6004803603610367919081019061540e565b61107b565b6040516103799190616073565b60405180910390f35b34801561038e57600080fd5b506103a960048036036103a491908101906151f4565b61170d565b6040516103b69190616073565b60405180910390f35b6103d960048036036103d4919081019061558c565b61188f565b005b3480156103e757600080fd5b5061040260048036036103fd9190810190615325565b611968565b60405161040f9190616073565b60405180910390f35b34801561042457600080fd5b5061043f600480360361043a919081019061558c565b611c85565b60405161045398979695949392919061620a565b60405180910390f35b34801561046857600080fd5b50610483600480360361047e91908101906152d1565b611ecf565b6040516104909190616073565b60405180910390f35b3480156104a557600080fd5b506104c060048036036104bb91908101906155b5565b611f14565b005b3480156104ce57600080fd5b506104e960048036036104e491908101906152d1565b61247d565b6040516104fd98979695949392919061620a565b60405180910390f35b34801561051257600080fd5b5061052d60048036036105289190810190615379565b6126dd565b005b34801561053b57600080fd5b5061055660048036036105519190810190615295565b61286d565b005b34801561056457600080fd5b5061057f600480360361057a9190810190615379565b612a81565b005b61059b60048036036105969190810190615259565b612d4d565b6040516105a89190616073565b60405180910390f35b3480156105bd57600080fd5b506105c6612ff9565b6040516105d39190615f1c565b60405180910390f35b3480156105e857600080fd5b5061060360048036036105fe91908101906151f4565b61301e565b6040516106109190616073565b60405180910390f35b34801561062557600080fd5b50610640600480360361063b91908101906154cd565b61303e565b60405161064d919061653d565b60405180910390f35b34801561066257600080fd5b5061067d600480360361067891908101906151f4565b613892565b60405161068b92919061608e565b60405180910390f35b3480156106a057600080fd5b506106bb60048036036106b69190810190615295565b613938565b6040516106c89190616073565b60405180910390f35b3480156106dd57600080fd5b506106f860048036036106f391908101906152d1565b613e00565b6040516107059190616073565b60405180910390f35b34801561071a57600080fd5b506107356004803603610730919081019061521d565b613e45565b6040516107429190616073565b60405180910390f35b34801561075757600080fd5b50610772600480360361076d91908101906151f4565b61435a565b60405161078092919061608e565b60405180910390f35b34801561079557600080fd5b506107b060048036036107ab91908101906151f4565b614400565b6040516107bd9190616073565b60405180910390f35b3480156107d257600080fd5b506107ed60048036036107e891908101906151f4565b614420565b6040516107fa919061655f565b60405180910390f35b61081d600480360361081891908101906153ba565b614438565b60405161082a9190616073565b60405180910390f35b34801561083f57600080fd5b5061085a600480360361085591908101906151f4565b614b6c565b6040516108679190616073565b60405180910390f35b34801561087c57600080fd5b50610897600480360361089291908101906151f4565b614b8c565b6040516108a491906160e9565b60405180910390f35b3480156108b957600080fd5b506108d460048036036108cf91908101906151f4565b614c3c565b6040516108e1919061655f565b60405180910390f35b6060600080606060008060011515600c60003373ffffffffffffffffffffffffffffffffffffffff1673ffffffffffffffffffffffffffffffffffffffff16815260200190815260200160002060009054906101000a900460ff16151514610987576040517f08c379a000000000000000000000000000000000000000000000000000000000815260040161097e9061649d565b60405180910390fd5b60011515600e60003373ffffffffffffffffffffffffffffffffffffffff1673ffffffffffffffffffffffffffffffffffffffff16815260200190815260200160002060009054906101000a900460ff16151514610a1a576040517f08c379a0000000000000000000000000000000000000000000000000000000008152600401610a119061647d565b60405180910390fd5b60011515600f60003373ffffffffffffffffffffffffffffffffffffffff1673ffffffffffffffffffffffffffffffffffffffff16815260200190815260200160002088604051610a6b9190615f05565b908152602001604051809103902060009054906101000a900460ff16151514610ac9576040517f08c379a0000000000000000000000000000000000000000000000000000000008152600401610ac09061635d565b60405180910390fd5b610ad1614c54565b601288604051610ae19190615f05565b90815260200160405180910390206040518060e00160405290816000820160009054906101000a900473ffffffffffffffffffffffffffffffffffffffff1673ffffffffffffffffffffffffffffffffffffffff1673ffffffffffffffffffffffffffffffffffffffff168152602001600182018054600181600116156101000203166002900480601f016020809104026020016040519081016040528092919081815260200182805460018160011615610100020316600290048015610be95780601f10610bbe57610100808354040283529160200191610be9565b820191906000526020600020905b815481529060010190602001808311610bcc57829003601f168201915b50505050508152602001600282018054600181600116156101000203166002900480601f016020809104026020016040519081016040528092919081815260200182805460018160011615610100020316600290048015610c8b5780601f10610c6057610100808354040283529160200191610c8b565b820191906000526020600020905b815481529060010190602001808311610c6e57829003601f168201915b50505050508152602001600382015481526020016004820160009054906101000a900460ff16151515158152602001600582015481526020016006820154815250509050806020015181606001518260000151836040015184608001518560a001518595508393508292509650965096509650965096505091939550919395565b60068181548110610d1957fe5b90600052602060002090600202016000915090508060000160009054906101000a900473ffffffffffffffffffffffffffffffffffffffff1690806001018054600181600116156101000203166002900480601f016020809104026020016040519081016040528092919081815260200182805460018160011615610100020316600290048015610deb5780601f10610dc057610100808354040283529160200191610deb565b820191906000526020600020905b815481529060010190602001808311610dce57829003601f168201915b5050505050905082565b60058181548110610e0257fe5b90600052602060002090600202016000915090508060000160009054906101000a900473ffffffffffffffffffffffffffffffffffffffff1690806001018054600181600116156101000203166002900480601f016020809104026020016040519081016040528092919081815260200182805460018160011615610100020316600290048015610ed45780601f10610ea957610100808354040283529160200191610ed4565b820191906000526020600020905b815481529060010190602001808311610eb757829003601f168201915b5050505050905082565b6000809054906101000a900473ffffffffffffffffffffffffffffffffffffffff1673ffffffffffffffffffffffffffffffffffffffff163373ffffffffffffffffffffffffffffffffffffffff1614610f6d576040517f08c379a0000000000000000000000000000000000000000000000000000000008152600401610f649061633d565b60405180910390fd5b60011515600960008473ffffffffffffffffffffffffffffffffffffffff1673ffffffffffffffffffffffffffffffffffffffff16815260200190815260200160002060009054906101000a900460ff16151514611000576040517f08c379a0000000000000000000000000000000000000000000000000000000008152600401610ff79061637d565b60405180910390fd5b80600b60008473ffffffffffffffffffffffffffffffffffffffff1673ffffffffffffffffffffffffffffffffffffffff16815260200190815260200160002060006101000a81548160ff0219169083151502179055505050565b60096020528060005260406000206000915054906101000a900460ff1681565b600060011515600c60003373ffffffffffffffffffffffffffffffffffffffff1673ffffffffffffffffffffffffffffffffffffffff16815260200190815260200160002060009054906101000a900460ff16151514611110576040517f08c379a00000000000000000000000000000000000000000000000000000000081526004016111079061649d565b60405180910390fd5b60011515600e60003373ffffffffffffffffffffffffffffffffffffffff1673ffffffffffffffffffffffffffffffffffffffff16815260200190815260200160002060009054906101000a900460ff161515146111a3576040517f08c379a000000000000000000000000000000000000000000000000000000000815260040161119a9061647d565b60405180910390fd5b6111ab614c54565b6111b3614ca9565b606033896040516020016111c8929190615f37565b604051602081830303815290604052905060001515600f60003373ffffffffffffffffffffffffffffffffffffffff1673ffffffffffffffffffffffffffffffffffffffff1681526020019081526020016000208260405161122a9190615f05565b908152602001604051809103902060009054906101000a900460ff16151514611288576040517f08c379a000000000000000000000000000000000000000000000000000000000815260040161127f906164fd565b60405180910390fd5b6003601160003373ffffffffffffffffffffffffffffffffffffffff1673ffffffffffffffffffffffffffffffffffffffff168152602001908152602001600020826040516112d79190615f05565b90815260200160405180910390208054905010611329576040517f08c379a00000000000000000000000000000000000000000000000000000000081526004016113209061631d565b60405180910390fd5b600f420383606001818152505088836020018190525033836000019073ffffffffffffffffffffffffffffffffffffffff16908173ffffffffffffffffffffffffffffffffffffffff1681525050808360400181905250600183608001901515908115158152505060008360c0015114156113bf576113ab888888848961303e565b915060018360a00181815101915081815250505b601160003373ffffffffffffffffffffffffffffffffffffffff1673ffffffffffffffffffffffffffffffffffffffff1681526020019081526020016000208160405161140c9190615f05565b908152602001604051809103902083908060018154018082558091505060019003906000526020600020906007020160009091909190915060008201518160000160006101000a81548173ffffffffffffffffffffffffffffffffffffffff021916908373ffffffffffffffffffffffffffffffffffffffff16021790555060208201518160010190805190602001906114a7929190614d0f565b5060408201518160020190805190602001906114c4929190614d8f565b506060820151816003015560808201518160040160006101000a81548160ff02191690831515021790555060a0820151816005015560c0820151816006015550506001600f60003373ffffffffffffffffffffffffffffffffffffffff1673ffffffffffffffffffffffffffffffffffffffff168152602001908152602001600020826040516115549190615f05565b908152602001604051809103902060006101000a81548160ff02191690831515021790555080601060003373ffffffffffffffffffffffffffffffffffffffff1673ffffffffffffffffffffffffffffffffffffffff16815260200190815260200160002090805190602001906115cc929190614e0f565b50826012826040516115de9190615f05565b908152602001604051809103902060008201518160000160006101000a81548173ffffffffffffffffffffffffffffffffffffffff021916908373ffffffffffffffffffffffffffffffffffffffff160217905550602082015181600101908051906020019061164f929190614d0f565b50604082015181600201908051906020019061166c929190614d8f565b506060820151816003015560808201518160040160006101000a81548160ff02191690831515021790555060a0820151816005015560c082015181600601559050503373ffffffffffffffffffffffffffffffffffffffff167fdbdcd2e425f31dd11a419f878e87a4abe84525d72e62332de442619cbfbef737828a6040516116f692919061612d565b60405180910390a283935050505095945050505050565b60008060009054906101000a900473ffffffffffffffffffffffffffffffffffffffff1673ffffffffffffffffffffffffffffffffffffffff163373ffffffffffffffffffffffffffffffffffffffff161461179e576040517f08c379a00000000000000000000000000000000000000000000000000000000081526004016117959061633d565b60405180910390fd5b60011515600960008473ffffffffffffffffffffffffffffffffffffffff1673ffffffffffffffffffffffffffffffffffffffff16815260200190815260200160002060009054906101000a900460ff16151514611831576040517f08c379a0000000000000000000000000000000000000000000000000000000008152600401611828906163dd565b60405180910390fd5b6000600960008473ffffffffffffffffffffffffffffffffffffffff1673ffffffffffffffffffffffffffffffffffffffff16815260200190815260200160002060006101000a81548160ff02191690831515021790559050919050565b6000809054906101000a900473ffffffffffffffffffffffffffffffffffffffff1673ffffffffffffffffffffffffffffffffffffffff163373ffffffffffffffffffffffffffffffffffffffff161461191e576040517f08c379a00000000000000000000000000000000000000000000000000000000081526004016119159061633d565b60405180910390fd5b3373ffffffffffffffffffffffffffffffffffffffff166108fc829081150290604051600060405180830381858888f19350505050158015611964573d6000803e3d6000fd5b5050565b600060011515600960003373ffffffffffffffffffffffffffffffffffffffff1673ffffffffffffffffffffffffffffffffffffffff16815260200190815260200160002060009054906101000a900460ff161515146119fd576040517f08c379a00000000000000000000000000000000000000000000000000000000081526004016119f4906162dd565b60405180910390fd5b60011515600b60003373ffffffffffffffffffffffffffffffffffffffff1673ffffffffffffffffffffffffffffffffffffffff16815260200190815260200160002060009054906101000a900460ff16151514611a90576040517f08c379a0000000000000000000000000000000000000000000000000000000008152600401611a87906163bd565b60405180910390fd5b60011515600c60008573ffffffffffffffffffffffffffffffffffffffff1673ffffffffffffffffffffffffffffffffffffffff16815260200190815260200160002060009054906101000a900460ff16151514611b23576040517f08c379a0000000000000000000000000000000000000000000000000000000008152600401611b1a9061651d565b60405180910390fd5b60011515600f60008573ffffffffffffffffffffffffffffffffffffffff1673ffffffffffffffffffffffffffffffffffffffff16815260200190815260200160002083604051611b749190615f05565b908152602001604051809103902060009054906101000a900460ff16151514611bd2576040517f08c379a0000000000000000000000000000000000000000000000000000000008152600401611bc99061629d565b60405180910390fd5b601160008473ffffffffffffffffffffffffffffffffffffffff1673ffffffffffffffffffffffffffffffffffffffff16815260200190815260200160002082604051611c1f9190615f05565b90815260200160405180910390206000611c399190614e8f565b8273ffffffffffffffffffffffffffffffffffffffff167f3089b6625b46b77707154ce3d4aee9d7753f3988bfc42768528cd45f7817b42f60405160405180910390a280905092915050565b60088181548110611c9257fe5b9060005260206000209060080201600091509050806000018054600181600116156101000203166002900480601f016020809104026020016040519081016040528092919081815260200182805460018160011615610100020316600290048015611d3e5780601f10611d1357610100808354040283529160200191611d3e565b820191906000526020600020905b815481529060010190602001808311611d2157829003601f168201915b5050505050908060010154908060020154908060030160009054906101000a900473ffffffffffffffffffffffffffffffffffffffff1690806004018054600181600116156101000203166002900480601f016020809104026020016040519081016040528092919081815260200182805460018160011615610100020316600290048015611e0e5780601f10611de357610100808354040283529160200191611e0e565b820191906000526020600020905b815481529060010190602001808311611df157829003601f168201915b5050505050908060050160009054906101000a900460ff1690806006018054600181600116156101000203166002900480601f016020809104026020016040519081016040528092919081815260200182805460018160011615610100020316600290048015611ebf5780601f10611e9457610100808354040283529160200191611ebf565b820191906000526020600020905b815481529060010190602001808311611ea257829003601f168201915b5050505050908060070154905088565b6016602052816000526040600020818051602081018201805184825260208301602085012081835280955050505050506000915091509054906101000a900460ff1681565b60011515600c60003373ffffffffffffffffffffffffffffffffffffffff1673ffffffffffffffffffffffffffffffffffffffff16815260200190815260200160002060009054906101000a900460ff16151514611fa7576040517f08c379a0000000000000000000000000000000000000000000000000000000008152600401611f9e9061649d565b60405180910390fd5b60011515600e60003373ffffffffffffffffffffffffffffffffffffffff1673ffffffffffffffffffffffffffffffffffffffff16815260200190815260200160002060009054906101000a900460ff1615151461203a576040517f08c379a00000000000000000000000000000000000000000000000000000000081526004016120319061647d565b60405180910390fd5b81818080601f016020809104026020016040519081016040528093929190818152602001838380828437600081840152601f19601f82011690508083019250505050505050600115156018826040516120939190615f05565b908152602001604051809103902060009054906101000a900460ff161515146120f1576040517f08c379a00000000000000000000000000000000000000000000000000000000081526004016120e8906164dd565b60405180910390fd5b60008411612134576040517f08c379a000000000000000000000000000000000000000000000000000000000815260040161212b9061643d565b60405180910390fd5b61213c614ca9565b601360003373ffffffffffffffffffffffffffffffffffffffff1673ffffffffffffffffffffffffffffffffffffffff168152602001908152602001600020848460405161218b929190615eec565b908152602001604051809103902060405180610100016040529081600082018054600181600116156101000203166002900480601f01602080910402602001604051908101604052809291908181526020018280546001816001161561010002031660029004801561223e5780601f106122135761010080835404028352916020019161223e565b820191906000526020600020905b81548152906001019060200180831161222157829003601f168201915b5050505050815260200160018201548152602001600282015481526020016003820160009054906101000a900473ffffffffffffffffffffffffffffffffffffffff1673ffffffffffffffffffffffffffffffffffffffff1673ffffffffffffffffffffffffffffffffffffffff168152602001600482018054600181600116156101000203166002900480601f01602080910402602001604051908101604052809291908181526020018280546001816001161561010002031660029004801561234a5780601f1061231f5761010080835404028352916020019161234a565b820191906000526020600020905b81548152906001019060200180831161232d57829003601f168201915b505050505081526020016005820160009054906101000a900460ff16600181111561237157fe5b600181111561237c57fe5b8152602001600682018054600181600116156101000203166002900480601f0160208091040260200160405190810160405280929190818152602001828054600181600116156101000203166002900480156124195780601f106123ee57610100808354040283529160200191612419565b820191906000526020600020905b8154815290600101906020018083116123fc57829003601f168201915b5050505050815260200160078201548152505090506000816020015190508590507fa0d44e7fee8a0afacdbd4319568a1b9258299bb07235afe832c670200dc4391485858860405161246d939291906160b7565b60405180910390a1505050505050565b60136020528160005260406000208180516020810182018051848252602083016020850120818352809550505050505060009150915050806000018054600181600116156101000203166002900480601f01602080910402602001604051908101604052809291908181526020018280546001816001161561010002031660029004801561254c5780601f106125215761010080835404028352916020019161254c565b820191906000526020600020905b81548152906001019060200180831161252f57829003601f168201915b5050505050908060010154908060020154908060030160009054906101000a900473ffffffffffffffffffffffffffffffffffffffff1690806004018054600181600116156101000203166002900480601f01602080910402602001604051908101604052809291908181526020018280546001816001161561010002031660029004801561261c5780601f106125f15761010080835404028352916020019161261c565b820191906000526020600020905b8154815290600101906020018083116125ff57829003601f168201915b5050505050908060050160009054906101000a900460ff1690806006018054600181600116156101000203166002900480601f0160208091040260200160405190810160405280929190818152602001828054600181600116156101000203166002900480156126cd5780601f106126a2576101008083540402835291602001916126cd565b820191906000526020600020905b8154815290600101906020018083116126b057829003601f168201915b5050505050908060070154905088565b60011515600c60003373ffffffffffffffffffffffffffffffffffffffff1673ffffffffffffffffffffffffffffffffffffffff16815260200190815260200160002060009054906101000a900460ff16151514612770576040517f08c379a00000000000000000000000000000000000000000000000000000000081526004016127679061649d565b60405180910390fd5b60011515600e60003373ffffffffffffffffffffffffffffffffffffffff1673ffffffffffffffffffffffffffffffffffffffff16815260200190815260200160002060009054906101000a900460ff16151514612803576040517f08c379a00000000000000000000000000000000000000000000000000000000081526004016127fa9061647d565b60405180910390fd5b601160003373ffffffffffffffffffffffffffffffffffffffff1673ffffffffffffffffffffffffffffffffffffffff168152602001908152602001600020816040516128509190615f05565b9081526020016040518091039020600061286a9190614e8f565b50565b60011515600960003373ffffffffffffffffffffffffffffffffffffffff1673ffffffffffffffffffffffffffffffffffffffff16815260200190815260200160002060009054906101000a900460ff16151514612900576040517f08c379a00000000000000000000000000000000000000000000000000000000081526004016128f7906162dd565b60405180910390fd5b60011515600b60003373ffffffffffffffffffffffffffffffffffffffff1673ffffffffffffffffffffffffffffffffffffffff16815260200190815260200160002060009054906101000a900460ff16151514612993576040517f08c379a000000000000000000000000000000000000000000000000000000000815260040161298a906163bd565b60405180910390fd5b60011515600c60008473ffffffffffffffffffffffffffffffffffffffff1673ffffffffffffffffffffffffffffffffffffffff16815260200190815260200160002060009054906101000a900460ff16151514612a26576040517f08c379a0000000000000000000000000000000000000000000000000000000008152600401612a1d9061637d565b60405180910390fd5b80600e60008473ffffffffffffffffffffffffffffffffffffffff1673ffffffffffffffffffffffffffffffffffffffff16815260200190815260200160002060006101000a81548160ff0219169083151502179055505050565b60011515600c60003373ffffffffffffffffffffffffffffffffffffffff1673ffffffffffffffffffffffffffffffffffffffff16815260200190815260200160002060009054906101000a900460ff16151514612b14576040517f08c379a0000000000000000000000000000000000000000000000000000000008152600401612b0b9061649d565b60405180910390fd5b60011515600e60003373ffffffffffffffffffffffffffffffffffffffff1673ffffffffffffffffffffffffffffffffffffffff16815260200190815260200160002060009054906101000a900460ff16151514612ba7576040517f08c379a0000000000000000000000000000000000000000000000000000000008152600401612b9e9061647d565b60405180910390fd5b8060011515601882604051612bbc9190615f05565b908152602001604051809103902060009054906101000a900460ff16151514612c1a576040517f08c379a0000000000000000000000000000000000000000000000000000000008152600401612c11906164dd565b60405180910390fd5b601360003373ffffffffffffffffffffffffffffffffffffffff1673ffffffffffffffffffffffffffffffffffffffff16815260200190815260200160002082604051612c679190615f05565b908152602001604051809103902060008082016000612c869190614eb3565b600182016000905560028201600090556003820160006101000a81549073ffffffffffffffffffffffffffffffffffffffff0219169055600482016000612ccd9190614efb565b6005820160006101000a81549060ff0219169055600682016000612cf19190614efb565b600782016000905550503373ffffffffffffffffffffffffffffffffffffffff167f558e4ae33dfca7324493271fabf356b0364808ca1cea5ef153f072321860dbfd83604051612d41919061610b565b60405180910390a25050565b600060011515600c60003373ffffffffffffffffffffffffffffffffffffffff1673ffffffffffffffffffffffffffffffffffffffff16815260200190815260200160002060009054906101000a900460ff16151514612de2576040517f08c379a0000000000000000000000000000000000000000000000000000000008152600401612dd99061649d565b60405180910390fd5b60011515600e60003373ffffffffffffffffffffffffffffffffffffffff1673ffffffffffffffffffffffffffffffffffffffff16815260200190815260200160002060009054906101000a900460ff16151514612e75576040517f08c379a0000000000000000000000000000000000000000000000000000000008152600401612e6c9061647d565b60405180910390fd5b81601960003373ffffffffffffffffffffffffffffffffffffffff1673ffffffffffffffffffffffffffffffffffffffff168152602001908152602001600020541015612ef7576040517f08c379a0000000000000000000000000000000000000000000000000000000008152600401612eee9061639d565b60405180910390fd5b81601960003373ffffffffffffffffffffffffffffffffffffffff1673ffffffffffffffffffffffffffffffffffffffff168152602001908152602001600020600082825403925050819055508273ffffffffffffffffffffffffffffffffffffffff166108fc839081150290604051600060405180830381858888f19350505050158015612f8a573d6000803e3d6000fd5b508273ffffffffffffffffffffffffffffffffffffffff163373ffffffffffffffffffffffffffffffffffffffff167f2717ead6b9200dd235aad468c9809ea400fe33ac69b5bfaa6d3e90fc922b639884604051612fe8919061655f565b60405180910390a380905092915050565b6000809054906101000a900473ffffffffffffffffffffffffffffffffffffffff1681565b600b6020528060005260406000206000915054906101000a900460ff1681565b613046614ca9565b60011515600c60003373ffffffffffffffffffffffffffffffffffffffff1673ffffffffffffffffffffffffffffffffffffffff16815260200190815260200160002060009054906101000a900460ff161515146130d9576040517f08c379a00000000000000000000000000000000000000000000000000000000081526004016130d09061649d565b60405180910390fd5b60011515600e60003373ffffffffffffffffffffffffffffffffffffffff1673ffffffffffffffffffffffffffffffffffffffff16815260200190815260200160002060009054906101000a900460ff1615151461316c576040517f08c379a00000000000000000000000000000000000000000000000000000000081526004016131639061647d565b60405180910390fd5b600084116131af576040517f08c379a00000000000000000000000000000000000000000000000000000000081526004016131a6906164bd565b60405180910390fd5b858160000181905250838160200181815250508181604001818152505060018160e00181815101915081815250506060338260e001518887896040516020016131fc959493929190615f90565b604051602081830303815290604052905033826060019073ffffffffffffffffffffffffffffffffffffffff16908173ffffffffffffffffffffffffffffffffffffffff168152505080826080018190525081601460003373ffffffffffffffffffffffffffffffffffffffff1673ffffffffffffffffffffffffffffffffffffffff16815260200190815260200160002060008460e00151815260200190815260200160002060008201518160000190805190602001906132bf929190614d0f565b50602082015181600101556040820151816002015560608201518160030160006101000a81548173ffffffffffffffffffffffffffffffffffffffff021916908373ffffffffffffffffffffffffffffffffffffffff1602179055506080820151816004019080519060200190613337929190614d8f565b5060a08201518160050160006101000a81548160ff0219169083600181111561335c57fe5b021790555060c082015181600601908051906020019061337d929190614d8f565b5060e082015181600701559050506001601660003373ffffffffffffffffffffffffffffffffffffffff1673ffffffffffffffffffffffffffffffffffffffff168152602001908152602001600020826040516133da9190615f05565b908152602001604051809103902060006101000a81548160ff021916908315150217905550600460009054906101000a900460ff168260a00190600181111561341f57fe5b9081600181111561342c57fe5b8152505060088290806001815401808255809150506001900390600052602060002090600802016000909190919091506000820151816000019080519060200190613478929190614d0f565b50602082015181600101556040820151816002015560608201518160030160006101000a81548173ffffffffffffffffffffffffffffffffffffffff021916908373ffffffffffffffffffffffffffffffffffffffff16021790555060808201518160040190805190602001906134f0929190614d8f565b5060a08201518160050160006101000a81548160ff0219169083600181111561351557fe5b021790555060c0820151816006019080519060200190613536929190614d8f565b5060e08201518160070155505081601360003373ffffffffffffffffffffffffffffffffffffffff1673ffffffffffffffffffffffffffffffffffffffff168152602001908152602001600020826040516135919190615f05565b908152602001604051809103902060008201518160000190805190602001906135bb929190614d0f565b50602082015181600101556040820151816002015560608201518160030160006101000a81548173ffffffffffffffffffffffffffffffffffffffff021916908373ffffffffffffffffffffffffffffffffffffffff1602179055506080820151816004019080519060200190613633929190614d8f565b5060a08201518160050160006101000a81548160ff0219169083600181111561365857fe5b021790555060c0820151816006019080519060200190613679929190614d8f565b5060e08201518160070155905050816015826040516136989190615f05565b908152602001604051809103902060008201518160000190805190602001906136c2929190614d0f565b50602082015181600101556040820151816002015560608201518160030160006101000a81548173ffffffffffffffffffffffffffffffffffffffff021916908373ffffffffffffffffffffffffffffffffffffffff160217905550608082015181600401908051906020019061373a929190614d8f565b5060a08201518160050160006101000a81548160ff0219169083600181111561375f57fe5b021790555060c0820151816006019080519060200190613780929190614d8f565b5060e0820151816007015590505080601760003373ffffffffffffffffffffffffffffffffffffffff1673ffffffffffffffffffffffffffffffffffffffff168152602001908152602001600020856040516137dc9190615f05565b908152602001604051809103902090805190602001906137fd929190614e0f565b5060016018826040516138109190615f05565b908152602001604051809103902060006101000a81548160ff0219169083151502179055503373ffffffffffffffffffffffffffffffffffffffff167f772cc3a8e77f72eb5acf7b3a43da99bf21604939d49108bdd445da7c9c137a21888360405161387d929190616164565b60405180910390a28191505095945050505050565b600080600c60008473ffffffffffffffffffffffffffffffffffffffff1673ffffffffffffffffffffffffffffffffffffffff16815260200190815260200160002060009054906101000a900460ff16600e60008573ffffffffffffffffffffffffffffffffffffffff1673ffffffffffffffffffffffffffffffffffffffff16815260200190815260200160002060009054906101000a900460ff1691509150915091565b60008060009054906101000a900473ffffffffffffffffffffffffffffffffffffffff1673ffffffffffffffffffffffffffffffffffffffff163373ffffffffffffffffffffffffffffffffffffffff16146139c9576040517f08c379a00000000000000000000000000000000000000000000000000000000081526004016139c09061633d565b60405180910390fd5b60036005805490501115613a12576040517f08c379a0000000000000000000000000000000000000000000000000000000008152600401613a09906163fd565b60405180910390fd5b600073ffffffffffffffffffffffffffffffffffffffff168373ffffffffffffffffffffffffffffffffffffffff161415613a82576040517f08c379a0000000000000000000000000000000000000000000000000000000008152600401613a79906162fd565b60405180910390fd5b613a8a614f43565b600a60008573ffffffffffffffffffffffffffffffffffffffff1673ffffffffffffffffffffffffffffffffffffffff1681526020019081526020016000206040518060400160405290816000820160009054906101000a900473ffffffffffffffffffffffffffffffffffffffff1673ffffffffffffffffffffffffffffffffffffffff1673ffffffffffffffffffffffffffffffffffffffff168152602001600182018054600181600116156101000203166002900480601f016020809104026020016040519081016040528092919081815260200182805460018160011615610100020316600290048015613bc35780601f10613b9857610100808354040283529160200191613bc3565b820191906000526020600020905b815481529060010190602001808311613ba657829003601f168201915b505050505081525050905060006001600260008282829054906101000a900460ff160192506101000a81548160ff021916908360ff1602179055905084826000019073ffffffffffffffffffffffffffffffffffffffff16908173ffffffffffffffffffffffffffffffffffffffff16815250508481604051602001613c4a92919061604a565b6040516020818303038152906040528260200181905250600582908060018154018082558091505060019003906000526020600020906002020160009091909190915060008201518160000160006101000a81548173ffffffffffffffffffffffffffffffffffffffff021916908373ffffffffffffffffffffffffffffffffffffffff1602179055506020820151816001019080519060200190613cf0929190614d8f565b50505083600b60008773ffffffffffffffffffffffffffffffffffffffff1673ffffffffffffffffffffffffffffffffffffffff16815260200190815260200160002060006101000a81548160ff0219169083151502179055506001600960008773ffffffffffffffffffffffffffffffffffffffff1673ffffffffffffffffffffffffffffffffffffffff16815260200190815260200160002060006101000a81548160ff0219169083151502179055508473ffffffffffffffffffffffffffffffffffffffff167f19f7fd2c1ea6478d08d010308d023c5e758cd5e618c2712e063c28d05f344fee8360200151604051613dec91906160e9565b60405180910390a260019250505092915050565b600f602052816000526040600020818051602081018201805184825260208301602085012081835280955050505050506000915091509054906101000a900460ff1681565b600060011515600960003373ffffffffffffffffffffffffffffffffffffffff1673ffffffffffffffffffffffffffffffffffffffff16815260200190815260200160002060009054906101000a900460ff16151514613eda576040517f08c379a0000000000000000000000000000000000000000000000000000000008152600401613ed1906162dd565b60405180910390fd5b60011515600b60003373ffffffffffffffffffffffffffffffffffffffff1673ffffffffffffffffffffffffffffffffffffffff16815260200190815260200160002060009054906101000a900460ff16151514613f6d576040517f08c379a0000000000000000000000000000000000000000000000000000000008152600401613f64906163bd565b60405180910390fd5b600073ffffffffffffffffffffffffffffffffffffffff168373ffffffffffffffffffffffffffffffffffffffff161415613fdd576040517f08c379a0000000000000000000000000000000000000000000000000000000008152600401613fd4906162fd565b60405180910390fd5b613fe5614f73565b600d60008573ffffffffffffffffffffffffffffffffffffffff1673ffffffffffffffffffffffffffffffffffffffff1681526020019081526020016000206040518060400160405290816000820160009054906101000a900473ffffffffffffffffffffffffffffffffffffffff1673ffffffffffffffffffffffffffffffffffffffff1673ffffffffffffffffffffffffffffffffffffffff168152602001600182018054600181600116156101000203166002900480601f01602080910402602001604051908101604052809291908181526020018280546001816001161561010002031660029004801561411e5780601f106140f35761010080835404028352916020019161411e565b820191906000526020600020905b81548152906001019060200180831161410157829003601f168201915b505050505081525050905060006001600260018282829054906101000a900460ff160192506101000a81548160ff021916908360ff1602179055905084826000019073ffffffffffffffffffffffffffffffffffffffff16908173ffffffffffffffffffffffffffffffffffffffff168152505084816040516020016141a5929190615ff1565b6040516020818303038152906040528260200181905250600682908060018154018082558091505060019003906000526020600020906002020160009091909190915060008201518160000160006101000a81548173ffffffffffffffffffffffffffffffffffffffff021916908373ffffffffffffffffffffffffffffffffffffffff160217905550602082015181600101908051906020019061424b929190614d8f565b50505083600e60008773ffffffffffffffffffffffffffffffffffffffff1673ffffffffffffffffffffffffffffffffffffffff16815260200190815260200160002060006101000a81548160ff0219169083151502179055506001600c60008773ffffffffffffffffffffffffffffffffffffffff1673ffffffffffffffffffffffffffffffffffffffff16815260200190815260200160002060006101000a81548160ff0219169083151502179055508473ffffffffffffffffffffffffffffffffffffffff167f080aee23a4b60a0a99506ef4ac0b025d3784de82d87f414749e3e4faa0282970836020015160405161434791906160e9565b60405180910390a2829250505092915050565b600080600960008473ffffffffffffffffffffffffffffffffffffffff1673ffffffffffffffffffffffffffffffffffffffff16815260200190815260200160002060009054906101000a900460ff16600b60008573ffffffffffffffffffffffffffffffffffffffff1673ffffffffffffffffffffffffffffffffffffffff16815260200190815260200160002060009054906101000a900460ff1691509150915091565b600e6020528060005260406000206000915054906101000a900460ff1681565b60196020528060005260406000206000915090505481565b6000826001151560188260405161444f9190615f05565b908152602001604051809103902060009054906101000a900460ff161515146144ad576040517f08c379a00000000000000000000000000000000000000000000000000000000081526004016144a4906164dd565b60405180910390fd5b6144b5614ca9565b6015856040516144c59190615f05565b908152602001604051809103902060405180610100016040529081600082018054600181600116156101000203166002900480601f0160208091040260200160405190810160405280929190818152602001828054600181600116156101000203166002900480156145785780601f1061454d57610100808354040283529160200191614578565b820191906000526020600020905b81548152906001019060200180831161455b57829003601f168201915b5050505050815260200160018201548152602001600282015481526020016003820160009054906101000a900473ffffffffffffffffffffffffffffffffffffffff1673ffffffffffffffffffffffffffffffffffffffff1673ffffffffffffffffffffffffffffffffffffffff168152602001600482018054600181600116156101000203166002900480601f0160208091040260200160405190810160405280929190818152602001828054600181600116156101000203166002900480156146845780601f1061465957610100808354040283529160200191614684565b820191906000526020600020905b81548152906001019060200180831161466757829003601f168201915b505050505081526020016005820160009054906101000a900460ff1660018111156146ab57fe5b60018111156146b657fe5b8152602001600682018054600181600116156101000203166002900480601f0160208091040260200160405190810160405280929190818152602001828054600181600116156101000203166002900480156147535780601f1061472857610100808354040283529160200191614753565b820191906000526020600020905b81548152906001019060200180831161473657829003601f168201915b505050505081526020016007820154815250509050600081602001519050600082606001519050600086116147bd576040517f08c379a00000000000000000000000000000000000000000000000000000000081526004016147b49061641d565b60405180910390fd5b81601960003373ffffffffffffffffffffffffffffffffffffffff1673ffffffffffffffffffffffffffffffffffffffff16815260200190815260200160002054101561483f576040517f08c379a00000000000000000000000000000000000000000000000000000000081526004016148369061639d565b60405180910390fd5b600460009054906101000a900460ff16600181111561485a57fe5b8360a00151600181111561486a57fe5b146148aa576040517f08c379a00000000000000000000000000000000000000000000000000000000081526004016148a1906162bd565b60405180910390fd5b82604001518611156148f1576040517f08c379a00000000000000000000000000000000000000000000000000000000081526004016148e89061645d565b60405180910390fd5b60008614156148ff57600080fd5b600082870290508287828161491057fe5b041461491b57600080fd5b80601960003373ffffffffffffffffffffffffffffffffffffffff1673ffffffffffffffffffffffffffffffffffffffff1681526020019081526020016000206000828254039250508190555080601960008473ffffffffffffffffffffffffffffffffffffffff1673ffffffffffffffffffffffffffffffffffffffff168152602001908152602001600020600082825401925050819055506000601660008473ffffffffffffffffffffffffffffffffffffffff1673ffffffffffffffffffffffffffffffffffffffff16815260200190815260200160002089604051614a049190615f05565b908152602001604051809103902060006101000a81548160ff0219169083151502179055506001601660003373ffffffffffffffffffffffffffffffffffffffff1673ffffffffffffffffffffffffffffffffffffffff16815260200190815260200160002089604051614a789190615f05565b908152602001604051809103902060006101000a81548160ff02191690831515021790555060008460400151905087810390506000811415614af857614abc614ca9565b9450600460019054906101000a900460ff166001811115614ad957fe5b8560a001516001811115614ae957fe5b50508696505050505050614b65565b6000811115614b0c57808560400181815250505b60016003600082825401925050819055601a60003373ffffffffffffffffffffffffffffffffffffffff1673ffffffffffffffffffffffffffffffffffffffff1681526020019081526020016000208190555050505050505b5092915050565b600c6020528060005260406000206000915054906101000a900460ff1681565b60106020528060005260406000206000915090508054600181600116156101000203166002900480601f016020809104026020016040519081016040528092919081815260200182805460018160011615610100020316600290048015614c345780601f10614c0957610100808354040283529160200191614c34565b820191906000526020600020905b815481529060010190602001808311614c1757829003601f168201915b505050505081565b601a6020528060005260406000206000915090505481565b6040518060e00160405280600073ffffffffffffffffffffffffffffffffffffffff16815260200160608152602001606081526020016000815260200160001515815260200160008152602001600081525090565b604051806101000160405280606081526020016000815260200160008152602001600073ffffffffffffffffffffffffffffffffffffffff1681526020016060815260200160006001811115614cfb57fe5b815260200160608152602001600081525090565b828054600181600116156101000203166002900490600052602060002090601f016020900481019282601f10614d5057805160ff1916838001178555614d7e565b82800160010185558215614d7e579182015b82811115614d7d578251825591602001919060010190614d62565b5b509050614d8b9190614fa3565b5090565b828054600181600116156101000203166002900490600052602060002090601f016020900481019282601f10614dd057805160ff1916838001178555614dfe565b82800160010185558215614dfe579182015b82811115614dfd578251825591602001919060010190614de2565b5b509050614e0b9190614fa3565b5090565b828054600181600116156101000203166002900490600052602060002090601f016020900481019282601f10614e5057805160ff1916838001178555614e7e565b82800160010185558215614e7e579182015b82811115614e7d578251825591602001919060010190614e62565b5b509050614e8b9190614fa3565b5090565b5080546000825560070290600052602060002090810190614eb09190614fc8565b50565b50805460018160011615610100020316600290046000825580601f10614ed95750614ef8565b601f016020900490600052602060002090810190614ef79190614fa3565b5b50565b50805460018160011615610100020316600290046000825580601f10614f215750614f40565b601f016020900490600052602060002090810190614f3f9190614fa3565b5b50565b6040518060400160405280600073ffffffffffffffffffffffffffffffffffffffff168152602001606081525090565b6040518060400160405280600073ffffffffffffffffffffffffffffffffffffffff168152602001606081525090565b614fc591905b80821115614fc1576000816000905550600101614fa9565b5090565b90565b61505791905b8082111561505357600080820160006101000a81549073ffffffffffffffffffffffffffffffffffffffff021916905560018201600061500e9190614eb3565b60028201600061501e9190614efb565b60038201600090556004820160006101000a81549060ff02191690556005820160009055600682016000905550600701614fce565b5090565b90565b600081359050615069816167c8565b92915050565b60008135905061507e816167df565b92915050565b600081359050615093816167f6565b92915050565b60008083601f8401126150ab57600080fd5b8235905067ffffffffffffffff8111156150c457600080fd5b6020830191508360018202830111156150dc57600080fd5b9250929050565b600082601f8301126150f457600080fd5b8135615107615102826165a7565b61657a565b9150808252602083016020830185838301111561512357600080fd5b61512e838284616768565b50505092915050565b600082601f83011261514857600080fd5b813561515b615156826165d3565b61657a565b9150808252602083016020830185838301111561517757600080fd5b615182838284616768565b50505092915050565b600082601f83011261519c57600080fd5b81356151af6151aa826165ff565b61657a565b915080825260208301602083018583830111156151cb57600080fd5b6151d6838284616768565b50505092915050565b6000813590506151ee8161680d565b92915050565b60006020828403121561520657600080fd5b60006152148482850161505a565b91505092915050565b6000806040838503121561523057600080fd5b600061523e8582860161506f565b925050602061524f85828601615084565b9150509250929050565b6000806040838503121561526c57600080fd5b600061527a8582860161506f565b925050602061528b858286016151df565b9150509250929050565b600080604083850312156152a857600080fd5b60006152b68582860161505a565b92505060206152c785828601615084565b9150509250929050565b600080604083850312156152e457600080fd5b60006152f28582860161505a565b925050602083013567ffffffffffffffff81111561530f57600080fd5b61531b858286016150e3565b9150509250929050565b6000806040838503121561533857600080fd5b60006153468582860161505a565b925050602083013567ffffffffffffffff81111561536357600080fd5b61536f85828601615137565b9150509250929050565b60006020828403121561538b57600080fd5b600082013567ffffffffffffffff8111156153a557600080fd5b6153b184828501615137565b91505092915050565b600080604083850312156153cd57600080fd5b600083013567ffffffffffffffff8111156153e757600080fd5b6153f385828601615137565b9250506020615404858286016151df565b9150509250929050565b600080600080600060a0868803121561542657600080fd5b600086013567ffffffffffffffff81111561544057600080fd5b61544c8882890161518b565b955050602086013567ffffffffffffffff81111561546957600080fd5b6154758882890161518b565b945050604086013567ffffffffffffffff81111561549257600080fd5b61549e8882890161518b565b93505060606154af888289016151df565b92505060806154c0888289016151df565b9150509295509295909350565b600080600080600060a086880312156154e557600080fd5b600086013567ffffffffffffffff8111156154ff57600080fd5b61550b8882890161518b565b955050602086013567ffffffffffffffff81111561552857600080fd5b6155348882890161518b565b9450506040615545888289016151df565b935050606086013567ffffffffffffffff81111561556257600080fd5b61556e88828901615137565b925050608061557f888289016151df565b9150509295509295909350565b60006020828403121561559e57600080fd5b60006155ac848285016151df565b91505092915050565b6000806000604084860312156155ca57600080fd5b60006155d8868287016151df565b935050602084013567ffffffffffffffff8111156155f557600080fd5b61560186828701615099565b92509250509250925092565b61561681616720565b82525050565b615625816166b8565b82525050565b615634816166b8565b82525050565b615643816166a6565b82525050565b615652816166ca565b82525050565b60006156648385616668565b9350615671838584616768565b61567a836167aa565b840190509392505050565b60006156918385616679565b935061569e838584616768565b82840190509392505050565b60006156b582616636565b6156bf8185616668565b93506156cf818560208601616777565b6156d8816167aa565b840191505092915050565b60006156ee82616636565b6156f88185616679565b9350615708818560208601616777565b80840191505092915050565b600061571f8261662b565b6157298185616657565b9350615739818560208601616777565b615742816167aa565b840191505092915050565b60006157588261662b565b6157628185616668565b9350615772818560208601616777565b61577b816167aa565b840191505092915050565b61578f81616732565b82525050565b61579e81616732565b82525050565b60006157af8261664c565b6157b98185616695565b93506157c9818560208601616777565b6157d2816167aa565b840191505092915050565b60006157e882616641565b6157f28185616684565b9350615802818560208601616777565b61580b816167aa565b840191505092915050565b600061582182616641565b61582b8185616695565b935061583b818560208601616777565b615844816167aa565b840191505092915050565b600061585c601583616695565b91507f43616e6f6f742066696e6420616e79206d6174636800000000000000000000006000830152602082019050919050565b600061589c601083616695565b91507f4974656d20556e617661696c61626c65000000000000000000000000000000006000830152602082019050919050565b60006158dc601683616695565b91507f4e6f7420417574686f72697a65642061646472657373000000000000000000006000830152602082019050919050565b600061591c600f83616695565b91507f496e76616c6964206164647265737300000000000000000000000000000000006000830152602082019050919050565b600061595c602683616695565b91507f416464726573732063616e206f6e6c79206372656174652074776f2073746f7260008301527f6566726f6e7400000000000000000000000000000000000000000000000000006020830152604082019050919050565b60006159c2601c83616695565b91507f52657175657374206661696c65643b204e6f7420616e206f776e6572000000006000830152602082019050919050565b6000615a02601483616695565b91507f53746f726520646f6573206e6f742065786973740000000000000000000000006000830152602082019050919050565b6000615a42601183616695565b91507f4e6f7420616c72656164792061646465640000000000000000000000000000006000830152602082019050919050565b6000615a82601583616695565b91507f496e7375666669636569656e742062616c616e636500000000000000000000006000830152602082019050919050565b6000615ac2600e83616695565b91507f4e6f7420417574686f72697a65640000000000000000000000000000000000006000830152602082019050919050565b6000615b02600c83616695565b91507f4e6f7420616e2061646d696e00000000000000000000000000000000000000006000830152602082019050919050565b6000615b42601683616695565b91507f4d61782061646d696e206c6973742072656163686564000000000000000000006000830152602082019050919050565b6000615b82601083616695565b91507f496e76616c6964207175616e74697479000000000000000000000000000000006000830152602082019050919050565b6000615bc2601483616695565b91507f50726963652063616e6e6f74206265207a65726f0000000000000000000000006000830152602082019050919050565b6000615c02602583616695565b91507f43616e6e6f74206578636565642073656c6c657227732070726573657420616d60008301527f6f756e742e0000000000000000000000000000000000000000000000000000006020830152604082019050919050565b6000615c68602183616695565b91507f556e617574686f72697a656420746f20616464204974656d20746f2073746f7260008301527f65000000000000000000000000000000000000000000000000000000000000006020830152604082019050919050565b6000615cce601683616695565b91507f41646472657373206e6f7420617574686f72697a6564000000000000000000006000830152602082019050919050565b6000615d0e601583616695565b91507f50726963652063616e6e6f7420626520656d70747900000000000000000000006000830152602082019050919050565b6000615d4e601383616695565b91507f4974656d20646f6573206e6f74206578697374000000000000000000000000006000830152602082019050919050565b6000615d8e601383616695565b91507f53746f726520616c7265616479206578697374000000000000000000000000006000830152602082019050919050565b6000615dce601983616695565b91507f4e6f7420612073746f7265206f776e657220616c7265616479000000000000006000830152602082019050919050565b6000610100830160008301518482036000860152615e1f82826157dd565b9150506020830151615e346020860182615ebf565b506040830151615e476040860182615ebf565b506060830151615e5a606086018261561c565b5060808301518482036080860152615e728282615714565b91505060a0830151615e8760a0860182615786565b5060c083015184820360c0860152615e9f8282615714565b91505060e0830151615eb460e0860182615ebf565b508091505092915050565b615ec881616709565b82525050565b615ed781616709565b82525050565b615ee681616713565b82525050565b6000615ef9828486615685565b91508190509392505050565b6000615f1182846156e3565b915081905092915050565b6000602082019050615f31600083018461563a565b92915050565b6000604082019050615f4c600083018561562b565b8181036020830152615f5e81846157a4565b90509392505050565b6000604082019050615f7c600083018561560d565b615f896020830184615ece565b9392505050565b600060a082019050615fa5600083018861562b565b615fb26020830187615ece565b8181036040830152615fc481866157a4565b9050615fd36060830185615ece565b8181036080830152615fe581846157a4565b90509695505050505050565b6000604082019050616006600083018561562b565b6160136020830184615edd565b9392505050565b600060408201905061602f600083018561563a565b8181036020830152616041818461574d565b90509392505050565b600060408201905061605f600083018561563a565b61606c6020830184615edd565b9392505050565b60006020820190506160886000830184615649565b92915050565b60006040820190506160a36000830185615649565b6160b06020830184615649565b9392505050565b600060408201905081810360008301526160d2818587615658565b90506160e16020830184615ece565b949350505050565b60006020820190508181036000830152616103818461574d565b905092915050565b6000602082019050818103600083015261612581846156aa565b905092915050565b6000604082019050818103600083015261614781856156aa565b9050818103602083015261615b81846157a4565b90509392505050565b6000604082019050818103600083015261617e81856157a4565b9050818103602083015261619281846156aa565b90509392505050565b600060c08201905081810360008301526161b581896157a4565b90506161c46020830188615ece565b6161d1604083018761563a565b81810360608301526161e381866156aa565b90506161f26080830185615649565b6161ff60a0830184615ece565b979650505050505050565b6000610100820190508181036000830152616225818b615816565b9050616234602083018a615ece565b6162416040830189615ece565b61624e606083018861562b565b8181036080830152616260818761574d565b905061626f60a0830186615795565b81810360c0830152616281818561574d565b905061629060e0830184615ece565b9998505050505050505050565b600060208201905081810360008301526162b68161584f565b9050919050565b600060208201905081810360008301526162d68161588f565b9050919050565b600060208201905081810360008301526162f6816158cf565b9050919050565b600060208201905081810360008301526163168161590f565b9050919050565b600060208201905081810360008301526163368161594f565b9050919050565b60006020820190508181036000830152616356816159b5565b9050919050565b60006020820190508181036000830152616376816159f5565b9050919050565b6000602082019050818103600083015261639681615a35565b9050919050565b600060208201905081810360008301526163b681615a75565b9050919050565b600060208201905081810360008301526163d681615ab5565b9050919050565b600060208201905081810360008301526163f681615af5565b9050919050565b6000602082019050818103600083015261641681615b35565b9050919050565b6000602082019050818103600083015261643681615b75565b9050919050565b6000602082019050818103600083015261645681615bb5565b9050919050565b6000602082019050818103600083015261647681615bf5565b9050919050565b6000602082019050818103600083015261649681615c5b565b9050919050565b600060208201905081810360008301526164b681615cc1565b9050919050565b600060208201905081810360008301526164d681615d01565b9050919050565b600060208201905081810360008301526164f681615d41565b9050919050565b6000602082019050818103600083015261651681615d81565b9050919050565b6000602082019050818103600083015261653681615dc1565b9050919050565b600060208201905081810360008301526165578184615e01565b905092915050565b60006020820190506165746000830184615ece565b92915050565b6000604051905081810181811067ffffffffffffffff8211171561659d57600080fd5b8060405250919050565b600067ffffffffffffffff8211156165be57600080fd5b601f19601f8301169050602081019050919050565b600067ffffffffffffffff8211156165ea57600080fd5b601f19601f8301169050602081019050919050565b600067ffffffffffffffff82111561661657600080fd5b601f19601f8301169050602081019050919050565b600081519050919050565b600081519050919050565b600081519050919050565b600081519050919050565b600082825260208201905092915050565b600082825260208201905092915050565b600081905092915050565b600082825260208201905092915050565b600082825260208201905092915050565b60006166b1826166e9565b9050919050565b60006166c3826166e9565b9050919050565b60008115159050919050565b60008190506166e4826167bb565b919050565b600073ffffffffffffffffffffffffffffffffffffffff82169050919050565b6000819050919050565b600060ff82169050919050565b600061672b82616744565b9050919050565b600061673d826166d6565b9050919050565b600061674f82616756565b9050919050565b6000616761826166e9565b9050919050565b82818337600083830152505050565b60005b8381101561679557808201518184015260208101905061677a565b838111156167a4576000848401525b50505050565b6000601f19601f8301169050919050565b600281106167c557fe5b50565b6167d1816166a6565b81146167dc57600080fd5b50565b6167e8816166b8565b81146167f357600080fd5b50565b6167ff816166ca565b811461680a57600080fd5b50565b61681681616709565b811461682157600080fd5b5056fea26469706673582212205e1d6f2f1966859b721e9159f4535cdaf1bcbf47afea1ccad807b2b751fcfdeb64736f6c63430006010033",
  "source": "// SPDX-License-Identifier: MIT\r\npragma solidity ^0.6.0;\r\npragma experimental ABIEncoderV2;\r\n// Online MarketPlace running on the blockchain\r\ncontract GMart{\r\n    address public owner;\r\n    uint totalItem = 0;\r\n    uint8 defaultId = 10;\r\n    uint8 defaultId_storeOwner = 0;\r\n    // uint public totalStorefronts = 0;\r\n    uint shoppers_count;\r\n    \r\n    enum ItemStatus{Unavailable, Available}\r\n    ItemStatus available = ItemStatus(1);\r\n    ItemStatus unavailable = ItemStatus(0);\r\n    \r\n    //Struct of admin specs.\r\n    struct Admins {\r\n        address addr;\r\n        bytes id;\r\n    }\r\n    //Struct of StoreOwners specs\r\n    struct StoreOwners{\r\n        address addr;\r\n        bytes id;\r\n    }\r\n    \r\n    // Store details for adding a store to the storefront.\r\n    struct Storefront {\r\n        address payable storeOwner; // storeowner's public key\r\n        string name;\r\n        bytes storeref;\r\n        uint dateCreated;\r\n        bool active;\r\n        uint storecount;\r\n        uint itemCount;\r\n    }\r\n    //Struct of item specs\r\n    struct Item {\r\n        string name;\r\n        uint price;\r\n        uint quantity;\r\n        address payable sellerAddress;\r\n        bytes itemRef;\r\n        ItemStatus status;\r\n        bytes description;\r\n        uint itemCountId;\r\n    }\r\n    \r\n    Admins[] public adminList;\r\n    StoreOwners[] public storeOwnerslist;\r\n    Storefront[] storesList;\r\n    Item[] public itemList;\r\n\r\n    event ApprovedStoreOwner(address indexed _addr, bytes _ref);\r\n    event NewAdmin(address indexed _addr, bytes _ref);\r\n    event NewStoreFront(address indexed _newstore, bytes _storeId, string _name);\r\n    event UnregisteredStore(address indexed _storeOwnerAddress);\r\n    event NewItem(address indexed _addr, string _itemName, bytes _itemRef);\r\n    event PriceChange(bytes _referenceId, uint256 _newSetPrice);\r\n    event Withdrawal(address indexed _from, address indexed _to, uint _amount);\r\n    event RemovedItem(address indexed _msgsender, bytes _refId);\r\n    event ReceivedEther(address, uint);\r\n    \r\n\r\n    mapping(address => bool) public  isAdmin;\r\n    mapping(address => Admins) adminMap;\r\n    mapping(address => bool) public adminApprovalToAdd;\r\n    mapping(address => bool) public isStoreOwnerApproved;\r\n    mapping(address => StoreOwners) storeOwnerMap;\r\n    mapping(address => bool) public storeOwnerApprovalToAddItem;//marked\r\n    mapping(address => mapping(bytes => bool)) public ifStorefAvailable;\r\n    mapping(address => bytes) public storef;\r\n    mapping(address => mapping(bytes => Storefront[])) storeMap; //List of storefronts\r\n    mapping(bytes => Storefront) storeHashMap;\r\n    mapping(address => mapping(bytes => Item)) public itemMap;\r\n    mapping(address => mapping(uint => Item)) itemcount;\r\n    mapping(bytes => Item) itemRefMap;\r\n    mapping(address => mapping(bytes => bool)) public ownerShip;\r\n    mapping(address => mapping(bytes => bytes)) itemHashMap;\r\n    mapping(bytes => bool) itemExist;\r\n    mapping(address => uint256) public balance;\r\n    mapping(address => uint256) public shoppers;\r\n\r\n    // EnumerableMap.UintToAddressMap private store_list;\r\n    \r\n    // Initialized at deployment time.\r\n    constructor () public {\r\n        // token = IERC777(_token);\r\n        owner = msg.sender;\r\n        // _erc1820.setInterfaceImplementer(address(this), TOKENS_RECIPIENT_INTERFACE_HASH, address(this));\r\n        \r\n    }\r\n    //Only sender with owner Authorization is permiitted\r\n    modifier onlyOwner() {\r\n        require(msg.sender == owner, \"Request failed; Not an owner\");\r\n        _;\r\n    }\r\n    //Only sender with admin role is permiitted\r\n    modifier onlyAdmin() {\r\n        require(isAdmin[msg.sender] == true, \"Not Authorized address\");\r\n        require(adminApprovalToAdd[msg.sender] == true, \"Not Authorized\");\r\n        _;\r\n    }\r\n    //Only approved store owner is allowed\r\n    modifier approvedStoreOwner() {\r\n        require(isStoreOwnerApproved[msg.sender] == true, \"Address not authorized\");\r\n        require(storeOwnerApprovalToAddItem[msg.sender] == true, \"Unauthorized to add Item to store\");\r\n        _;\r\n    }\r\n    //Check if an item exist in a particular storefront\r\n    modifier checkItemExist(bytes memory _itemRef) {\r\n        require(itemExist[_itemRef] == true, \"Item does not exist\");\r\n        _;\r\n    }\r\n    \r\n    /**\r\n     * @dev adds an adminList\r\n     * function is called only by the authorized owner address\r\n     */\r\n    function addAdmin(address _addr, bool _approval) public onlyOwner returns(bool){\r\n        require(adminList.length <= 3, \"Max admin list reached\");\r\n        require(_addr != address(0), \"Invalid address\");\r\n        Admins memory _adminStruct = adminMap[_addr];\r\n        uint8 tempAdminId = defaultId += 1;\r\n        _adminStruct.addr = _addr;\r\n        _adminStruct.id = abi.encode(_addr, tempAdminId);\r\n        adminList.push(_adminStruct);\r\n        adminApprovalToAdd[_addr] = _approval;\r\n        isAdmin[_addr] = true;\r\n        emit NewAdmin(_addr, _adminStruct.id);\r\n        return true;\r\n    }\r\n\r\n    function checkIsAdmin(address _addr) public view returns(bool, bool) {\r\n        return (isAdmin[_addr], adminApprovalToAdd[_addr]);\r\n    }\r\n\r\n    function checkStoreOwnerApproved(address _addr) public view returns(bool, bool) {\r\n        return (isStoreOwnerApproved[_addr], storeOwnerApprovalToAddItem[_addr]);\r\n    }\r\n    \r\n    function approve_StoreOwner(address payable _addr, bool _approval) public onlyAdmin returns(bool successful) {\r\n        require(_addr != address(0), \"Invalid address\");\r\n        StoreOwners memory _ownerStruct = storeOwnerMap[_addr];\r\n        uint8 tempId = defaultId_storeOwner += 1;\r\n        _ownerStruct.addr = _addr;\r\n        _ownerStruct.id = abi.encode(_addr, tempId);\r\n        storeOwnerslist.push(_ownerStruct);\r\n        storeOwnerApprovalToAddItem[_addr] = _approval;\r\n        isStoreOwnerApproved[_addr] = true;\r\n        emit ApprovedStoreOwner(_addr, _ownerStruct.id);\r\n        return successful;\r\n    }\r\n    \r\n    function changeAdminApproval(address _addr, bool _approval) public onlyOwner {\r\n        require(isAdmin[_addr] == true, \"Not already added\");\r\n        adminApprovalToAdd[_addr] = _approval;\r\n    }\r\n    \r\n    function changeStoreOwnerApproval(address _addr, bool _approval) public onlyAdmin {\r\n        require(isStoreOwnerApproved[_addr] == true, \"Not already added\");\r\n        storeOwnerApprovalToAddItem[_addr] = _approval;\r\n    }\r\n\r\n    /**\r\n    * StoreOwners Registers a new storefront. \r\n    * currently a participant self-adding strorefront\r\n    * param: _storeName: Name of the store.\r\n    * param: _itemName: Name of an item.\r\n    * param: _description: Detail of an item.\r\n    * param: _price: unit price of an item.\r\n    * param: _storeref: A unique reference Id to the store.\r\n    * param: _quantity: Unit of item to add.\r\n    */\r\n    function addStorefront(\r\n         string memory _storeName,\r\n         string memory _itemName,\r\n         string memory _description,\r\n         uint _price,\r\n         uint _quantity\r\n         ) public approvedStoreOwner returns(bool success) {\r\n         Storefront memory _newStoreFront;\r\n         Item memory _newItem;\r\n         bytes memory _storeRef = abi.encode(msg.sender, _storeName);\r\n         require(ifStorefAvailable[msg.sender][_storeRef] == false, \"Store already exist\" );\r\n         require(storeMap[msg.sender][_storeRef].length < 3, \"Address can only create two storefront\");\r\n         _newStoreFront.dateCreated = block.timestamp - 15;\r\n         _newStoreFront.name = _storeName;\r\n         _newStoreFront.storeOwner = msg.sender;\r\n         _newStoreFront.storeref = _storeRef;\r\n         _newStoreFront.active = true;\r\n         if(_newStoreFront.itemCount == 0){\r\n             _newItem = addItemToStore(_itemName, _description, _price, _storeRef, _quantity);\r\n             _newStoreFront.storecount += 1;\r\n         }\r\n        //  require(_newStoreFront.shelve.length > 0, \"Shelve cannot be empty\");\r\n         storeMap[msg.sender][_storeRef].push(_newStoreFront);\r\n         ifStorefAvailable[msg.sender][_storeRef] = true;\r\n         storef[msg.sender] = _storeRef;\r\n         storeHashMap[_storeRef] = _newStoreFront;\r\n         emit NewStoreFront(msg.sender, _storeRef, _itemName);\r\n         return success;\r\n        \r\n     }\r\n     \r\n     function getStoreDetail(bytes memory _ref) public view approvedStoreOwner returns(string memory, uint, address, bytes memory, bool, uint) {\r\n         require(ifStorefAvailable[msg.sender][_ref] == true, \"Store does not exist\" );\r\n         Storefront memory _storeToGet = storeHashMap[_ref];\r\n         return(\r\n             _storeToGet.name,\r\n             _storeToGet.dateCreated,\r\n             _storeToGet.storeOwner,\r\n             _storeToGet.storeref,\r\n             _storeToGet.active,\r\n             _storeToGet.storecount\r\n            );\r\n        \r\n     }\r\n     \r\n          /**\r\n     * StoreOwners Registers a new item to shelve. \r\n     * param: _itemName: Name of an item.\r\n     * param: _description: Detail of an item.\r\n     * param: _price: unit price of an item.\r\n     * param: _storeref: A unique reference Id to the store.\r\n     * param: _quantity: Unit of item to add.\r\n     */\r\n     \r\n    function addItemToStore(\r\n        string memory _itemName,\r\n        string memory _description,\r\n        uint _price,\r\n        bytes memory _storeRef,\r\n        uint _qnty\r\n        )public \r\n        approvedStoreOwner \r\n        returns(Item memory _newItem)\r\n        {\r\n            require(_price > 0, \"Price cannot be empty\");\r\n            _newItem.name = _itemName;\r\n            _newItem.price = _price;\r\n            _newItem.quantity = _qnty;\r\n            _newItem.itemCountId += 1;\r\n            bytes memory _itemref = abi.encode(msg.sender, _newItem.itemCountId, _itemName, _price, _description);\r\n            _newItem.sellerAddress = msg.sender;\r\n            _newItem.itemRef = _itemref;\r\n            itemcount[msg.sender][_newItem.itemCountId] = _newItem;\r\n            ownerShip[msg.sender][_itemref] = true;\r\n            _newItem.status = available;\r\n            itemList.push(_newItem);\r\n            itemMap[msg.sender][_itemref] = (_newItem);\r\n            itemRefMap[_itemref] = _newItem;\r\n            itemHashMap[msg.sender][_storeRef] = _itemref;\r\n            itemExist[_itemref] = true;\r\n            // uint newItemIndex = EnumerableMap.length(allItem);\r\n            // EnumerableMap.set(allItem, newItemIndex, msg.sender);\r\n            emit NewItem(msg.sender, _itemName, _itemref);\r\n            return _newItem;\r\n     }\r\n     \r\n     function removeAnItem(bytes memory _itemRef) public approvedStoreOwner checkItemExist(_itemRef) {\r\n         delete itemMap[msg.sender][_itemRef];\r\n         emit RemovedItem(msg.sender, _itemRef);\r\n     }\r\n      function removeAStore(bytes memory _ref) public approvedStoreOwner {\r\n          delete storeMap[msg.sender][_ref];\r\n      }\r\n\r\n     function adjustPrice(uint _newPrice, bytes calldata _itemRef) external approvedStoreOwner checkItemExist(_itemRef) {\r\n         require(_newPrice > 0, \"Price cannot be zero\");\r\n         Item memory currentItem = itemMap[msg.sender][_itemRef];\r\n         uint _oldPrice = currentItem.price;\r\n         _oldPrice = _newPrice;\r\n         emit PriceChange(_itemRef, _newPrice);\r\n     }\r\n     \r\n    function buyItem(\r\n        bytes memory _itemRef,\r\n        uint _qnty\r\n        )public payable checkItemExist(_itemRef) returns(bool success) \r\n        {\r\n            Item memory _itemToBuy = itemRefMap[_itemRef];\r\n            uint buyUnitPrice = _itemToBuy.price;\r\n            address _sellerAddress = _itemToBuy.sellerAddress;\r\n            require(_qnty > 0, \"Invalid quantity\");\r\n            require(balance[msg.sender] >= buyUnitPrice, \"Insufficeient balance\");\r\n            require(_itemToBuy.status == available, \"Item Unavailable\");\r\n            require(_qnty <= _itemToBuy.quantity, \"Cannot exceed seller's preset amount.\");\r\n            if (_qnty == 0) {\r\n              revert();\r\n            }\r\n            uint256 amountToPay = _qnty * buyUnitPrice;\r\n            require(amountToPay / _qnty == buyUnitPrice);\r\n            balance[msg.sender] -= amountToPay;\r\n            balance[_sellerAddress] += amountToPay;\r\n            ownerShip[_sellerAddress][_itemRef] = false;\r\n            ownerShip[msg.sender][_itemRef] = true;\r\n            uint prevQuanty = _itemToBuy.quantity;\r\n            prevQuanty -= _qnty;\r\n            if(prevQuanty == 0){\r\n                delete _itemToBuy;\r\n                _itemToBuy.status == unavailable;\r\n                return success;\r\n            }else if(prevQuanty > 0){\r\n                _itemToBuy.quantity = prevQuanty;\r\n            }\r\n            shoppers[msg.sender] = shoppers_count += 1;\r\n     }\r\n     \r\n    function withdrawBalanceStoreOwner(address payable _addr, uint _amount) external payable approvedStoreOwner returns(bool success) {\r\n         require(balance[msg.sender] >= _amount, \"Insufficeient balance\");\r\n         balance[msg.sender] -= _amount;\r\n         _addr.transfer(_amount);\r\n         emit Withdrawal(msg.sender, _addr, _amount);\r\n         return success;\r\n     }\r\n    \r\n    function deleteAdmin(address _addr) public onlyOwner returns(bool success) {\r\n        require(isAdmin[_addr] == true, \"Not an admin\");\r\n        return isAdmin[_addr] = false;\r\n    }\r\n    \r\n    /**\r\n     * @dev UnRegisters a store from the Storefront \r\n     * currently only an admin is able to remove store\r\n     */\r\n    function unregisterStore(address _addr, bytes memory _ref) public onlyAdmin returns(bool success) {\r\n        require(isStoreOwnerApproved[_addr] == true, \"Not a store owner already\");\r\n        require(ifStorefAvailable[_addr][_ref] == true, \"Canoot find any match\");\r\n        delete storeMap[_addr][_ref];\r\n        emit UnregisteredStore(_addr);\r\n        return success;\r\n    }\r\n    \r\n    //@dev Withdraw funds\r\n    function withdraw(uint _amount) onlyOwner public payable{\r\n        msg.sender.transfer(_amount);\r\n    }\r\n    \r\n    receive() external payable {\r\n        emit ReceivedEther(msg.sender, msg.value);\r\n    }\r\n    \r\n}    ",
  "sourcePath": "C:/Users/OWNER/Desktop/bootFinalProject/consensys-finalProject/contracts/GMart.sol",
  "compiler": {
    "name": "solc",
    "version": "0.6.1+commit.e6f7d5a4.Emscripten.clang"
  },
  "schemaVersion": "3.2.5",
  "updatedAt": "2020-11-28T18:34:15.585Z",
  "networkType": "ethereum",
  "devdoc": {
    "methods": {
      "addAdmin(address,bool)": {
        "details": "adds an adminList function is called only by the authorized owner address"
      },
      "unregisterStore(address,bytes)": {
        "details": "UnRegisters a store from the Storefront  currently only an admin is able to remove store"
      }
    }
  },
  "userdoc": {
    "methods": {
      "addItemToStore(string,string,uint256,bytes,uint256)": {
        "notice": "StoreOwners Registers a new item to shelve.  param: _itemName: Name of an item. param: _description: Detail of an item. param: _price: unit price of an item. param: _storeref: A unique reference Id to the store. param: _quantity: Unit of item to add."
      },
      "addStorefront(string,string,string,uint256,uint256)": {
        "notice": "StoreOwners Registers a new storefront.  currently a participant self-adding strorefront param: _storeName: Name of the store. param: _itemName: Name of an item. param: _description: Detail of an item. param: _price: unit price of an item. param: _storeref: A unique reference Id to the store. param: _quantity: Unit of item to add."
      }
    }
  }
}