{
  "contractName": "GMart",
  "abi": [
    {
      "inputs": [
        {
          "internalType": "address",
          "name": "_addr",
          "type": "address"
        }
      ],
      "stateMutability": "nonpayable",
      "type": "constructor"
    },
    {
      "anonymous": false,
      "inputs": [
        {
          "indexed": true,
          "internalType": "address",
          "name": "_owner",
          "type": "address"
        },
        {
          "indexed": true,
          "internalType": "address",
          "name": "_spender",
          "type": "address"
        },
        {
          "indexed": false,
          "internalType": "uint256",
          "name": "_value",
          "type": "uint256"
        }
      ],
      "name": "Approval",
      "type": "event"
    },
    {
      "anonymous": false,
      "inputs": [
        {
          "indexed": true,
          "internalType": "address",
          "name": "_addr",
          "type": "address"
        },
        {
          "indexed": false,
          "internalType": "uint256",
          "name": "_userId",
          "type": "uint256"
        }
      ],
      "name": "ApprovedStoreOwner",
      "type": "event"
    },
    {
      "anonymous": false,
      "inputs": [
        {
          "indexed": true,
          "internalType": "address",
          "name": "from",
          "type": "address"
        },
        {
          "indexed": false,
          "internalType": "uint256",
          "name": "value",
          "type": "uint256"
        }
      ],
      "name": "Burn",
      "type": "event"
    },
    {
      "anonymous": false,
      "inputs": [
        {
          "indexed": true,
          "internalType": "address",
          "name": "_msgsender",
          "type": "address"
        },
        {
          "indexed": false,
          "internalType": "uint256",
          "name": "_storeNumber",
          "type": "uint256"
        }
      ],
      "name": "DeletedStore",
      "type": "event"
    },
    {
      "anonymous": false,
      "inputs": [
        {
          "indexed": false,
          "internalType": "address",
          "name": "target",
          "type": "address"
        },
        {
          "indexed": false,
          "internalType": "bool",
          "name": "frozen",
          "type": "bool"
        }
      ],
      "name": "FrozenFunds",
      "type": "event"
    },
    {
      "anonymous": false,
      "inputs": [
        {
          "indexed": true,
          "internalType": "address",
          "name": "_addr",
          "type": "address"
        }
      ],
      "name": "NewAdmin",
      "type": "event"
    },
    {
      "anonymous": false,
      "inputs": [
        {
          "indexed": true,
          "internalType": "address",
          "name": "_addr",
          "type": "address"
        },
        {
          "indexed": false,
          "internalType": "string",
          "name": "_itemName",
          "type": "string"
        },
        {
          "indexed": false,
          "internalType": "bytes",
          "name": "_itemRef",
          "type": "bytes"
        }
      ],
      "name": "NewItem",
      "type": "event"
    },
    {
      "anonymous": false,
      "inputs": [
        {
          "indexed": true,
          "internalType": "address",
          "name": "_msgsender",
          "type": "address"
        },
        {
          "indexed": false,
          "internalType": "bytes",
          "name": "_storeRef",
          "type": "bytes"
        }
      ],
      "name": "NewStoreFront",
      "type": "event"
    },
    {
      "anonymous": false,
      "inputs": [
        {
          "indexed": false,
          "internalType": "bytes",
          "name": "_referenceId",
          "type": "bytes"
        },
        {
          "indexed": false,
          "internalType": "uint256",
          "name": "_newSetPrice",
          "type": "uint256"
        }
      ],
      "name": "PriceChange",
      "type": "event"
    },
    {
      "anonymous": false,
      "inputs": [
        {
          "indexed": false,
          "internalType": "address",
          "name": "",
          "type": "address"
        },
        {
          "indexed": false,
          "internalType": "uint256",
          "name": "",
          "type": "uint256"
        }
      ],
      "name": "ReceivedEther",
      "type": "event"
    },
    {
      "anonymous": false,
      "inputs": [
        {
          "indexed": true,
          "internalType": "address",
          "name": "_msgsender",
          "type": "address"
        },
        {
          "indexed": false,
          "internalType": "bytes",
          "name": "_refId",
          "type": "bytes"
        }
      ],
      "name": "RemovedItem",
      "type": "event"
    },
    {
      "anonymous": false,
      "inputs": [
        {
          "indexed": true,
          "internalType": "address",
          "name": "from",
          "type": "address"
        },
        {
          "indexed": true,
          "internalType": "address",
          "name": "to",
          "type": "address"
        },
        {
          "indexed": false,
          "internalType": "uint256",
          "name": "value",
          "type": "uint256"
        }
      ],
      "name": "Transfer",
      "type": "event"
    },
    {
      "anonymous": false,
      "inputs": [
        {
          "indexed": true,
          "internalType": "address",
          "name": "_storeOwnerAddress",
          "type": "address"
        },
        {
          "indexed": false,
          "internalType": "uint256",
          "name": "_storeNumber",
          "type": "uint256"
        }
      ],
      "name": "UnregisteredStore",
      "type": "event"
    },
    {
      "anonymous": false,
      "inputs": [
        {
          "indexed": true,
          "internalType": "address",
          "name": "_from",
          "type": "address"
        },
        {
          "indexed": true,
          "internalType": "address",
          "name": "_to",
          "type": "address"
        },
        {
          "indexed": false,
          "internalType": "uint256",
          "name": "_amount",
          "type": "uint256"
        }
      ],
      "name": "Withdrawal",
      "type": "event"
    },
    {
      "inputs": [
        {
          "internalType": "address",
          "name": "",
          "type": "address"
        }
      ],
      "name": "adminApprovalToAdd",
      "outputs": [
        {
          "internalType": "bool",
          "name": "",
          "type": "bool"
        }
      ],
      "stateMutability": "view",
      "type": "function",
      "constant": true
    },
    {
      "inputs": [],
      "name": "adminCount",
      "outputs": [
        {
          "internalType": "uint256",
          "name": "",
          "type": "uint256"
        }
      ],
      "stateMutability": "view",
      "type": "function",
      "constant": true
    },
    {
      "inputs": [
        {
          "internalType": "address",
          "name": "",
          "type": "address"
        },
        {
          "internalType": "address",
          "name": "",
          "type": "address"
        }
      ],
      "name": "allowance",
      "outputs": [
        {
          "internalType": "uint256",
          "name": "",
          "type": "uint256"
        }
      ],
      "stateMutability": "view",
      "type": "function",
      "constant": true
    },
    {
      "inputs": [
        {
          "internalType": "address",
          "name": "_spender",
          "type": "address"
        },
        {
          "internalType": "uint256",
          "name": "_value",
          "type": "uint256"
        }
      ],
      "name": "approve",
      "outputs": [
        {
          "internalType": "bool",
          "name": "success",
          "type": "bool"
        }
      ],
      "stateMutability": "nonpayable",
      "type": "function"
    },
    {
      "inputs": [
        {
          "internalType": "address",
          "name": "_spender",
          "type": "address"
        },
        {
          "internalType": "uint256",
          "name": "_value",
          "type": "uint256"
        },
        {
          "internalType": "bytes",
          "name": "_extraData",
          "type": "bytes"
        }
      ],
      "name": "approveAndCall",
      "outputs": [
        {
          "internalType": "bool",
          "name": "success",
          "type": "bool"
        }
      ],
      "stateMutability": "nonpayable",
      "type": "function"
    },
    {
      "inputs": [
        {
          "internalType": "bytes",
          "name": "",
          "type": "bytes"
        }
      ],
      "name": "availableItems",
      "outputs": [
        {
          "internalType": "bool",
          "name": "",
          "type": "bool"
        }
      ],
      "stateMutability": "view",
      "type": "function",
      "constant": true
    },
    {
      "inputs": [
        {
          "internalType": "address",
          "name": "",
          "type": "address"
        }
      ],
      "name": "balanceOf",
      "outputs": [
        {
          "internalType": "uint256",
          "name": "",
          "type": "uint256"
        }
      ],
      "stateMutability": "view",
      "type": "function",
      "constant": true
    },
    {
      "inputs": [
        {
          "internalType": "address",
          "name": "",
          "type": "address"
        }
      ],
      "name": "balanceof",
      "outputs": [
        {
          "internalType": "uint256",
          "name": "",
          "type": "uint256"
        }
      ],
      "stateMutability": "view",
      "type": "function",
      "constant": true
    },
    {
      "inputs": [
        {
          "internalType": "uint256",
          "name": "_value",
          "type": "uint256"
        }
      ],
      "name": "burn",
      "outputs": [
        {
          "internalType": "bool",
          "name": "success",
          "type": "bool"
        }
      ],
      "stateMutability": "nonpayable",
      "type": "function"
    },
    {
      "inputs": [
        {
          "internalType": "address",
          "name": "_from",
          "type": "address"
        },
        {
          "internalType": "uint256",
          "name": "_value",
          "type": "uint256"
        }
      ],
      "name": "burnFrom",
      "outputs": [
        {
          "internalType": "bool",
          "name": "success",
          "type": "bool"
        }
      ],
      "stateMutability": "nonpayable",
      "type": "function"
    },
    {
      "inputs": [],
      "name": "decimals",
      "outputs": [
        {
          "internalType": "uint8",
          "name": "",
          "type": "uint8"
        }
      ],
      "stateMutability": "view",
      "type": "function",
      "constant": true
    },
    {
      "inputs": [
        {
          "internalType": "address",
          "name": "",
          "type": "address"
        }
      ],
      "name": "frozenAccounts",
      "outputs": [
        {
          "internalType": "bool",
          "name": "",
          "type": "bool"
        }
      ],
      "stateMutability": "view",
      "type": "function",
      "constant": true
    },
    {
      "inputs": [
        {
          "internalType": "address",
          "name": "",
          "type": "address"
        },
        {
          "internalType": "uint256",
          "name": "",
          "type": "uint256"
        }
      ],
      "name": "isAdmin",
      "outputs": [
        {
          "internalType": "bool",
          "name": "",
          "type": "bool"
        }
      ],
      "stateMutability": "view",
      "type": "function",
      "constant": true
    },
    {
      "inputs": [
        {
          "internalType": "address",
          "name": "",
          "type": "address"
        },
        {
          "internalType": "uint256",
          "name": "",
          "type": "uint256"
        }
      ],
      "name": "isStoreOwnerApproved",
      "outputs": [
        {
          "internalType": "bool",
          "name": "",
          "type": "bool"
        }
      ],
      "stateMutability": "view",
      "type": "function",
      "constant": true
    },
    {
      "inputs": [],
      "name": "itemcount",
      "outputs": [
        {
          "internalType": "uint256",
          "name": "",
          "type": "uint256"
        }
      ],
      "stateMutability": "view",
      "type": "function",
      "constant": true
    },
    {
      "inputs": [
        {
          "internalType": "uint256",
          "name": "",
          "type": "uint256"
        }
      ],
      "name": "itemsList",
      "outputs": [
        {
          "internalType": "bytes",
          "name": "",
          "type": "bytes"
        }
      ],
      "stateMutability": "view",
      "type": "function",
      "constant": true
    },
    {
      "inputs": [],
      "name": "name",
      "outputs": [
        {
          "internalType": "string",
          "name": "",
          "type": "string"
        }
      ],
      "stateMutability": "view",
      "type": "function",
      "constant": true
    },
    {
      "inputs": [],
      "name": "owner",
      "outputs": [
        {
          "internalType": "address",
          "name": "",
          "type": "address"
        }
      ],
      "stateMutability": "view",
      "type": "function",
      "constant": true
    },
    {
      "inputs": [
        {
          "internalType": "address",
          "name": "",
          "type": "address"
        }
      ],
      "name": "ownerShip",
      "outputs": [
        {
          "internalType": "bool",
          "name": "",
          "type": "bool"
        }
      ],
      "stateMutability": "view",
      "type": "function",
      "constant": true
    },
    {
      "inputs": [
        {
          "internalType": "address",
          "name": "",
          "type": "address"
        }
      ],
      "name": "shoppers",
      "outputs": [
        {
          "internalType": "uint256",
          "name": "",
          "type": "uint256"
        }
      ],
      "stateMutability": "view",
      "type": "function",
      "constant": true
    },
    {
      "inputs": [],
      "name": "storeCount",
      "outputs": [
        {
          "internalType": "uint256",
          "name": "",
          "type": "uint256"
        }
      ],
      "stateMutability": "view",
      "type": "function",
      "constant": true
    },
    {
      "inputs": [
        {
          "internalType": "bytes",
          "name": "",
          "type": "bytes"
        }
      ],
      "name": "storeExist",
      "outputs": [
        {
          "internalType": "bool",
          "name": "",
          "type": "bool"
        }
      ],
      "stateMutability": "view",
      "type": "function",
      "constant": true
    },
    {
      "inputs": [
        {
          "internalType": "address",
          "name": "",
          "type": "address"
        }
      ],
      "name": "storeOwnerApprovalToAddItem",
      "outputs": [
        {
          "internalType": "bool",
          "name": "",
          "type": "bool"
        }
      ],
      "stateMutability": "view",
      "type": "function",
      "constant": true
    },
    {
      "inputs": [],
      "name": "storeOwnersCount",
      "outputs": [
        {
          "internalType": "uint256",
          "name": "",
          "type": "uint256"
        }
      ],
      "stateMutability": "view",
      "type": "function",
      "constant": true
    },
    {
      "inputs": [
        {
          "internalType": "address",
          "name": "",
          "type": "address"
        },
        {
          "internalType": "uint256",
          "name": "",
          "type": "uint256"
        }
      ],
      "name": "storefrontRef",
      "outputs": [
        {
          "internalType": "bytes",
          "name": "",
          "type": "bytes"
        }
      ],
      "stateMutability": "view",
      "type": "function",
      "constant": true
    },
    {
      "inputs": [
        {
          "internalType": "bytes",
          "name": "",
          "type": "bytes"
        },
        {
          "internalType": "uint256",
          "name": "",
          "type": "uint256"
        }
      ],
      "name": "storefrontRefItemMap",
      "outputs": [
        {
          "internalType": "bytes",
          "name": "",
          "type": "bytes"
        }
      ],
      "stateMutability": "view",
      "type": "function",
      "constant": true
    },
    {
      "inputs": [],
      "name": "symbol",
      "outputs": [
        {
          "internalType": "string",
          "name": "",
          "type": "string"
        }
      ],
      "stateMutability": "view",
      "type": "function",
      "constant": true
    },
    {
      "inputs": [],
      "name": "totalSupply",
      "outputs": [
        {
          "internalType": "uint256",
          "name": "",
          "type": "uint256"
        }
      ],
      "stateMutability": "view",
      "type": "function",
      "constant": true
    },
    {
      "inputs": [
        {
          "internalType": "address",
          "name": "_to",
          "type": "address"
        },
        {
          "internalType": "uint256",
          "name": "_value",
          "type": "uint256"
        }
      ],
      "name": "transfer",
      "outputs": [
        {
          "internalType": "bool",
          "name": "success",
          "type": "bool"
        }
      ],
      "stateMutability": "nonpayable",
      "type": "function"
    },
    {
      "inputs": [
        {
          "internalType": "address",
          "name": "_from",
          "type": "address"
        },
        {
          "internalType": "address",
          "name": "_to",
          "type": "address"
        },
        {
          "internalType": "uint256",
          "name": "_value",
          "type": "uint256"
        }
      ],
      "name": "transferFrom",
      "outputs": [
        {
          "internalType": "bool",
          "name": "success",
          "type": "bool"
        }
      ],
      "stateMutability": "nonpayable",
      "type": "function"
    },
    {
      "stateMutability": "payable",
      "type": "receive",
      "payable": true
    },
    {
      "inputs": [
        {
          "internalType": "address",
          "name": "_newOwner",
          "type": "address"
        }
      ],
      "name": "transferOwnership",
      "outputs": [],
      "stateMutability": "nonpayable",
      "type": "function"
    },
    {
      "inputs": [
        {
          "internalType": "address",
          "name": "target",
          "type": "address"
        },
        {
          "internalType": "uint256",
          "name": "mintedAmount",
          "type": "uint256"
        }
      ],
      "name": "mintToken",
      "outputs": [],
      "stateMutability": "nonpayable",
      "type": "function"
    },
    {
      "inputs": [
        {
          "internalType": "address",
          "name": "target",
          "type": "address"
        },
        {
          "internalType": "bool",
          "name": "freeze",
          "type": "bool"
        }
      ],
      "name": "freezeAccount",
      "outputs": [],
      "stateMutability": "nonpayable",
      "type": "function"
    },
    {
      "inputs": [
        {
          "internalType": "address",
          "name": "_from",
          "type": "address"
        },
        {
          "internalType": "address",
          "name": "_to",
          "type": "address"
        },
        {
          "internalType": "uint256",
          "name": "_value",
          "type": "uint256"
        }
      ],
      "name": "transferTokenFrom",
      "outputs": [
        {
          "internalType": "bool",
          "name": "success",
          "type": "bool"
        }
      ],
      "stateMutability": "nonpayable",
      "type": "function"
    },
    {
      "inputs": [
        {
          "internalType": "address",
          "name": "_spender",
          "type": "address"
        },
        {
          "internalType": "uint256",
          "name": "_value",
          "type": "uint256"
        }
      ],
      "name": "approveSpender",
      "outputs": [],
      "stateMutability": "nonpayable",
      "type": "function"
    },
    {
      "inputs": [
        {
          "internalType": "address",
          "name": "_spender",
          "type": "address"
        },
        {
          "internalType": "uint256",
          "name": "_value",
          "type": "uint256"
        },
        {
          "internalType": "bytes",
          "name": "_extraData",
          "type": "bytes"
        }
      ],
      "name": "approveandCall",
      "outputs": [],
      "stateMutability": "nonpayable",
      "type": "function"
    },
    {
      "inputs": [
        {
          "internalType": "uint256",
          "name": "_value",
          "type": "uint256"
        }
      ],
      "name": "burnToken",
      "outputs": [],
      "stateMutability": "nonpayable",
      "type": "function"
    },
    {
      "inputs": [
        {
          "internalType": "address",
          "name": "_from",
          "type": "address"
        },
        {
          "internalType": "uint256",
          "name": "_value",
          "type": "uint256"
        }
      ],
      "name": "burnTokenFrom",
      "outputs": [],
      "stateMutability": "nonpayable",
      "type": "function"
    },
    {
      "inputs": [
        {
          "internalType": "address",
          "name": "_addr",
          "type": "address"
        }
      ],
      "name": "addAdmin",
      "outputs": [
        {
          "internalType": "bool",
          "name": "",
          "type": "bool"
        }
      ],
      "stateMutability": "nonpayable",
      "type": "function"
    },
    {
      "inputs": [
        {
          "internalType": "address",
          "name": "_addr",
          "type": "address"
        },
        {
          "internalType": "uint256",
          "name": "_id",
          "type": "uint256"
        }
      ],
      "name": "checkIsAdmin",
      "outputs": [
        {
          "internalType": "bool",
          "name": "",
          "type": "bool"
        },
        {
          "internalType": "bool",
          "name": "",
          "type": "bool"
        }
      ],
      "stateMutability": "view",
      "type": "function",
      "constant": true
    },
    {
      "inputs": [
        {
          "internalType": "address",
          "name": "_addr",
          "type": "address"
        },
        {
          "internalType": "uint256",
          "name": "_id",
          "type": "uint256"
        }
      ],
      "name": "checkStoreOwnerApproved",
      "outputs": [
        {
          "internalType": "bool",
          "name": "",
          "type": "bool"
        },
        {
          "internalType": "bool",
          "name": "",
          "type": "bool"
        }
      ],
      "stateMutability": "view",
      "type": "function",
      "constant": true
    },
    {
      "inputs": [
        {
          "internalType": "address",
          "name": "_addr",
          "type": "address"
        },
        {
          "internalType": "uint256",
          "name": "_id",
          "type": "uint256"
        }
      ],
      "name": "approve_StoreOwner",
      "outputs": [
        {
          "internalType": "bool",
          "name": "successful",
          "type": "bool"
        }
      ],
      "stateMutability": "nonpayable",
      "type": "function"
    },
    {
      "inputs": [
        {
          "internalType": "address",
          "name": "_addr",
          "type": "address"
        },
        {
          "internalType": "bool",
          "name": "_approval",
          "type": "bool"
        },
        {
          "internalType": "uint256",
          "name": "_id",
          "type": "uint256"
        }
      ],
      "name": "changeAdminApproval",
      "outputs": [
        {
          "internalType": "bool",
          "name": "",
          "type": "bool"
        }
      ],
      "stateMutability": "nonpayable",
      "type": "function"
    },
    {
      "inputs": [
        {
          "internalType": "address",
          "name": "_addr",
          "type": "address"
        },
        {
          "internalType": "bool",
          "name": "_approval",
          "type": "bool"
        },
        {
          "internalType": "uint256",
          "name": "_adminId",
          "type": "uint256"
        },
        {
          "internalType": "uint256",
          "name": "_storeOwnerId",
          "type": "uint256"
        }
      ],
      "name": "changeStoreOwnerApproval",
      "outputs": [
        {
          "internalType": "bool",
          "name": "",
          "type": "bool"
        }
      ],
      "stateMutability": "nonpayable",
      "type": "function"
    },
    {
      "inputs": [
        {
          "internalType": "string",
          "name": "_storeName",
          "type": "string"
        },
        {
          "internalType": "uint256",
          "name": "_userId",
          "type": "uint256"
        }
      ],
      "name": "addStorefront",
      "outputs": [
        {
          "internalType": "bool",
          "name": "",
          "type": "bool"
        }
      ],
      "stateMutability": "nonpayable",
      "type": "function"
    },
    {
      "inputs": [
        {
          "internalType": "bytes",
          "name": "_storeRef",
          "type": "bytes"
        },
        {
          "internalType": "uint256",
          "name": "_userId",
          "type": "uint256"
        }
      ],
      "name": "getStoreDetail",
      "outputs": [
        {
          "internalType": "address",
          "name": "",
          "type": "address"
        },
        {
          "internalType": "string",
          "name": "",
          "type": "string"
        },
        {
          "internalType": "uint256",
          "name": "",
          "type": "uint256"
        },
        {
          "internalType": "uint256",
          "name": "",
          "type": "uint256"
        },
        {
          "internalType": "bool",
          "name": "",
          "type": "bool"
        }
      ],
      "stateMutability": "view",
      "type": "function",
      "constant": true
    },
    {
      "inputs": [
        {
          "internalType": "string",
          "name": "_itemName",
          "type": "string"
        },
        {
          "internalType": "string",
          "name": "_description",
          "type": "string"
        },
        {
          "internalType": "uint256",
          "name": "_price",
          "type": "uint256"
        },
        {
          "internalType": "bytes",
          "name": "_storeRef",
          "type": "bytes"
        },
        {
          "internalType": "uint256",
          "name": "_qnty",
          "type": "uint256"
        },
        {
          "internalType": "uint256",
          "name": "_userId",
          "type": "uint256"
        }
      ],
      "name": "addItemToStore",
      "outputs": [
        {
          "internalType": "bool",
          "name": "",
          "type": "bool"
        }
      ],
      "stateMutability": "nonpayable",
      "type": "function"
    },
    {
      "inputs": [
        {
          "internalType": "bytes",
          "name": "_itemRef",
          "type": "bytes"
        },
        {
          "internalType": "uint256",
          "name": "_userId",
          "type": "uint256"
        },
        {
          "internalType": "bytes",
          "name": "_storeRef",
          "type": "bytes"
        },
        {
          "internalType": "uint256",
          "name": "_itemNumber",
          "type": "uint256"
        }
      ],
      "name": "removeAnItem",
      "outputs": [],
      "stateMutability": "nonpayable",
      "type": "function"
    },
    {
      "inputs": [
        {
          "internalType": "uint256",
          "name": "_userId",
          "type": "uint256"
        },
        {
          "internalType": "uint256",
          "name": "_storeNumber",
          "type": "uint256"
        }
      ],
      "name": "removeAStore",
      "outputs": [],
      "stateMutability": "nonpayable",
      "type": "function"
    },
    {
      "inputs": [
        {
          "internalType": "bytes",
          "name": "ref",
          "type": "bytes"
        },
        {
          "internalType": "uint256",
          "name": "_qnty",
          "type": "uint256"
        },
        {
          "internalType": "uint256",
          "name": "_itemNumber",
          "type": "uint256"
        },
        {
          "internalType": "uint256",
          "name": "_offer",
          "type": "uint256"
        }
      ],
      "name": "buyItem",
      "outputs": [
        {
          "internalType": "bool",
          "name": "",
          "type": "bool"
        }
      ],
      "stateMutability": "payable",
      "type": "function",
      "payable": true
    },
    {
      "inputs": [
        {
          "internalType": "address payable",
          "name": "_addr",
          "type": "address"
        },
        {
          "internalType": "uint256",
          "name": "_amount",
          "type": "uint256"
        },
        {
          "internalType": "uint256",
          "name": "_userId",
          "type": "uint256"
        }
      ],
      "name": "withdrawBalanceStoreOwner",
      "outputs": [
        {
          "internalType": "bool",
          "name": "success",
          "type": "bool"
        }
      ],
      "stateMutability": "payable",
      "type": "function",
      "payable": true
    },
    {
      "inputs": [
        {
          "internalType": "address",
          "name": "_addr",
          "type": "address"
        },
        {
          "internalType": "uint8",
          "name": "_id",
          "type": "uint8"
        }
      ],
      "name": "disableAdmin",
      "outputs": [
        {
          "internalType": "bool",
          "name": "success",
          "type": "bool"
        }
      ],
      "stateMutability": "nonpayable",
      "type": "function"
    },
    {
      "inputs": [
        {
          "internalType": "address",
          "name": "_addr",
          "type": "address"
        },
        {
          "internalType": "uint256",
          "name": "_id",
          "type": "uint256"
        },
        {
          "internalType": "uint256",
          "name": "_userId",
          "type": "uint256"
        },
        {
          "internalType": "uint256",
          "name": "_storeNumber",
          "type": "uint256"
        }
      ],
      "name": "unregisterStore",
      "outputs": [
        {
          "internalType": "bool",
          "name": "",
          "type": "bool"
        }
      ],
      "stateMutability": "nonpayable",
      "type": "function"
    },
    {
      "inputs": [
        {
          "internalType": "uint256",
          "name": "_amount",
          "type": "uint256"
        }
      ],
      "name": "withdraw",
      "outputs": [],
      "stateMutability": "payable",
      "type": "function",
      "payable": true
    }
  ],
  "bytecode": "0x60806040526012600260006101000a81548160ff021916908360ff160217905550600060045560006008556000600960006101000a81548160ff021916908360ff1602179055506000600a556000600b556000600c556000600d553480156200006757600080fd5b50604051620065363803806200653683398181016040526200008d9190810190620002a4565b6207a1206040518060400160405280600a81526020017f676d617274746f6b656e000000000000000000000000000000000000000000008152506040518060400160405280600381526020017f474d540000000000000000000000000000000000000000000000000000000000815250600260009054906101000a900460ff1660ff16600a0a8302600381905550600354600560003373ffffffffffffffffffffffffffffffffffffffff1673ffffffffffffffffffffffffffffffffffffffff16815260200190815260200160002081905550816000908051906020019062000179929190620001de565b50806001908051906020019062000192929190620001de565b5050505080600760006101000a81548173ffffffffffffffffffffffffffffffffffffffff021916908373ffffffffffffffffffffffffffffffffffffffff160217905550506200031e565b828054600181600116156101000203166002900490600052602060002090601f016020900481019282601f106200022157805160ff191683800117855562000252565b8280016001018555821562000252579182015b828111156200025157825182559160200191906001019062000234565b5b50905062000261919062000265565b5090565b6200028a91905b80821115620002865760008160009055506001016200026c565b5090565b90565b6000815190506200029e8162000304565b92915050565b600060208284031215620002b757600080fd5b6000620002c7848285016200028d565b91505092915050565b6000620002dd82620002e4565b9050919050565b600073ffffffffffffffffffffffffffffffffffffffff82169050919050565b6200030f81620002d0565b81146200031b57600080fd5b50565b616208806200032e6000396000f3fe6080604052600436106103395760003560e01c80638da5cb5b116101ab578063c9a6bbba116100f7578063e62092be11610095578063f08a38d21161006f578063f08a38d214610df1578063f2fde38b14610e2e578063f3af35a114610e57578063fba855d014610e9457610379565b8063e62092be14610d4a578063e724529c14610d87578063e81ebefc14610db057610379565b8063d441a637116100d1578063d441a63714610c56578063dae54aea14610c93578063db9ab0ce14610cd0578063dd62ed3e14610d0d57610379565b8063c9a6bbba14610bb2578063cae9ca5114610bf0578063cc3885d514610c2d57610379565b8063a1b141d411610164578063b75fd88f1161013e578063b75fd88f14610add578063b9ed31d114610b08578063bf2844b114610b45578063c2bd9d9514610b7557610379565b8063a1b141d414610a38578063a9059cbb14610a63578063ad22119514610aa057610379565b80638da5cb5b146109025780638efca0dd1461092d5780638f41dbc41461096a578063927603f71461099357806395d89b41146109d05780639e38ac15146109fb57610379565b806342654a651161028557806371c2fc9e1161022357806379cc6790116101fd57806379cc6790146108225780637b47ec1a1461085f5780637f46071414610888578063860838a5146108c557610379565b806371c2fc9e1461079357806371cb1ece146107bc57806379c65068146107f957610379565b80634c7d3c2c1161025f5780634c7d3c2c146106ac5780636e7c03dd146106e9578063704802751461071957806370a082311461075657610379565b806342654a65146105f557806342966c681461063257806346a3c09e1461066f57610379565b806328b92fbb116102f257806330fda732116102cc57806330fda73214610524578063313ce567146105625780633d64125b1461058d5780634232dc02146105ca57610379565b806328b92fbb146104b45780632b7832b3146104dd5780632e1a7d4d1461050857610379565b806306fdde031461037e578063080d7c4d146103a9578063095ea7b3146103d257806311db1a221461040f57806318160ddd1461044c57806323b872dd1461047757610379565b36610379577fa419615bc8fda4c87663805ee2a3597a6d71c1d476911d9892f340d965bc7bf1333460405161036f9291906159fc565b60405180910390a1005b600080fd5b34801561038a57600080fd5b50610393610ed1565b6040516103a09190615c37565b60405180910390f35b3480156103b557600080fd5b506103d060048036036103cb9190810190614d78565b610f6f565b005b3480156103de57600080fd5b506103f960048036036103f49190810190614d78565b610fe3565b6040516104069190615b5c565b60405180910390f35b34801561041b57600080fd5b5061043660048036036104319190810190614f92565b6110d5565b6040516104439190615b5c565b60405180910390f35b34801561045857600080fd5b5061046161110b565b60405161046e9190615ed0565b60405180910390f35b34801561048357600080fd5b5061049e60048036036104999190810190614c3b565b611111565b6040516104ab9190615b5c565b60405180910390f35b3480156104c057600080fd5b506104db60048036036104d69190810190614fd3565b61123c565b005b3480156104e957600080fd5b506104f2611478565b6040516104ff9190615ed0565b60405180910390f35b610522600480360361051d91908101906151df565b61147e565b005b34801561053057600080fd5b5061054b60048036036105469190810190614d78565b611558565b604051610559929190615b77565b60405180910390f35b34801561056e57600080fd5b50610577611611565b6040516105849190615eeb565b60405180910390f35b34801561059957600080fd5b506105b460048036036105af9190810190614a57565b611624565b6040516105c19190615ed0565b60405180910390f35b3480156105d657600080fd5b506105df61163c565b6040516105ec9190615ed0565b60405180910390f35b34801561060157600080fd5b5061061c6004803603610617919081019061518b565b611642565b6040516106299190615b5c565b60405180910390f35b34801561063e57600080fd5b50610659600480360361065491908101906151df565b61192a565b6040516106669190615b5c565b60405180910390f35b34801561067b57600080fd5b5061069660048036036106919190810190614f92565b611a2c565b6040516106a39190615b5c565b60405180910390f35b3480156106b857600080fd5b506106d360048036036106ce91908101906150ba565b611a62565b6040516106e09190615b5c565b60405180910390f35b61070360048036036106fe9190810190614f12565b611d95565b6040516107109190615b5c565b60405180910390f35b34801561072557600080fd5b50610740600480360361073b9190810190614a57565b612312565b60405161074d9190615b5c565b60405180910390f35b34801561076257600080fd5b5061077d60048036036107789190810190614a57565b612524565b60405161078a9190615ed0565b60405180910390f35b34801561079f57600080fd5b506107ba60048036036107b59190810190614d78565b61253c565b005b3480156107c857600080fd5b506107e360048036036107de9190810190614cc6565b61254b565b6040516107f09190615b5c565b60405180910390f35b34801561080557600080fd5b50610820600480360361081b9190810190614d78565b6126e3565b005b34801561082e57600080fd5b5061084960048036036108449190810190614d78565b61289f565b6040516108569190615b5c565b60405180910390f35b34801561086b57600080fd5b50610886600480360361088191908101906151df565b612ab5565b005b34801561089457600080fd5b506108af60048036036108aa9190810190614d78565b612ac2565b6040516108bc9190615b5c565b60405180910390f35b3480156108d157600080fd5b506108ec60048036036108e79190810190614a57565b612d42565b6040516108f99190615b5c565b60405180910390f35b34801561090e57600080fd5b50610917612d62565b6040516109249190615918565b60405180910390f35b34801561093957600080fd5b50610954600480360361094f9190810190614a57565b612d88565b6040516109619190615b5c565b60405180910390f35b34801561097657600080fd5b50610991600480360361098c9190810190615208565b612da8565b005b34801561099f57600080fd5b506109ba60048036036109b59190810190614e7e565b612f8f565b6040516109c79190615b5c565b60405180910390f35b3480156109dc57600080fd5b506109e56131b1565b6040516109f29190615c37565b60405180910390f35b348015610a0757600080fd5b50610a226004803603610a1d9190810190614a57565b61324f565b604051610a2f9190615b5c565b60405180910390f35b348015610a4457600080fd5b50610a4d61326f565b604051610a5a9190615ed0565b60405180910390f35b348015610a6f57600080fd5b50610a8a6004803603610a859190810190614d78565b613275565b604051610a979190615b5c565b60405180910390f35b348015610aac57600080fd5b50610ac76004803603610ac29190810190614c3b565b61328c565b604051610ad49190615b5c565b60405180910390f35b348015610ae957600080fd5b50610af2613353565b604051610aff9190615ed0565b60405180910390f35b348015610b1457600080fd5b50610b2f6004803603610b2a9190810190614d78565b613359565b604051610b3c9190615b5c565b60405180910390f35b610b5f6004803603610b5a9190810190614bb0565b613388565b604051610b6c9190615b5c565b60405180910390f35b348015610b8157600080fd5b50610b9c6004803603610b9791908101906151df565b61364e565b604051610ba99190615ba0565b60405180910390f35b348015610bbe57600080fd5b50610bd96004803603610bd49190810190614d78565b6136fe565b604051610be7929190615b77565b60405180910390f35b348015610bfc57600080fd5b50610c176004803603610c129190810190614db4565b6137b7565b604051610c249190615b5c565b60405180910390f35b348015610c3957600080fd5b50610c546004803603610c4f9190810190614db4565b613850565b005b348015610c6257600080fd5b50610c7d6004803603610c789190810190615066565b613861565b604051610c8a9190615ba0565b60405180910390f35b348015610c9f57600080fd5b50610cba6004803603610cb59190810190614d78565b613934565b604051610cc79190615ba0565b60405180910390f35b348015610cdc57600080fd5b50610cf76004803603610cf29190810190614a57565b6139f1565b604051610d049190615b5c565b60405180910390f35b348015610d1957600080fd5b50610d346004803603610d2f9190810190614bff565b613a11565b604051610d419190615ed0565b60405180910390f35b348015610d5657600080fd5b50610d716004803603610d6c9190810190614d78565b613a36565b604051610d7e9190615b5c565b60405180910390f35b348015610d9357600080fd5b50610dae6004803603610da99190810190614c8a565b613a65565b005b348015610dbc57600080fd5b50610dd76004803603610dd29190810190614eba565b613b89565b604051610de8959493929190615a9a565b60405180910390f35b348015610dfd57600080fd5b50610e186004803603610e139190810190614e1b565b613d69565b604051610e259190615b5c565b60405180910390f35b348015610e3a57600080fd5b50610e556004803603610e509190810190614a57565b614081565b005b348015610e6357600080fd5b50610e7e6004803603610e799190810190614d15565b614155565b604051610e8b9190615b5c565b60405180910390f35b348015610ea057600080fd5b50610ebb6004803603610eb69190810190614a57565b614397565b604051610ec89190615ed0565b60405180910390f35b60008054600181600116156101000203166002900480601f016020809104026020016040519081016040528092919081815260200182805460018160011615610100020316600290048015610f675780601f10610f3c57610100808354040283529160200191610f67565b820191906000526020600020905b815481529060010190602001808311610f4a57829003601f168201915b505050505081565b610f798282610fe3565b508173ffffffffffffffffffffffffffffffffffffffff163373ffffffffffffffffffffffffffffffffffffffff167f8c5be1e5ebec7d5bd14f71427d1e84f3dd0314c0f7b2291e5b200ac8c7c3b92583604051610fd79190615ed0565b60405180910390a35050565b600081600660003373ffffffffffffffffffffffffffffffffffffffff1673ffffffffffffffffffffffffffffffffffffffff16815260200190815260200160002060008573ffffffffffffffffffffffffffffffffffffffff1673ffffffffffffffffffffffffffffffffffffffff168152602001908152602001600020819055508273ffffffffffffffffffffffffffffffffffffffff163373ffffffffffffffffffffffffffffffffffffffff167f8c5be1e5ebec7d5bd14f71427d1e84f3dd0314c0f7b2291e5b200ac8c7c3b925846040516110c39190615ed0565b60405180910390a36001905092915050565b6017818051602081018201805184825260208301602085012081835280955050505050506000915054906101000a900460ff1681565b60035481565b6000600660008573ffffffffffffffffffffffffffffffffffffffff1673ffffffffffffffffffffffffffffffffffffffff16815260200190815260200160002060003373ffffffffffffffffffffffffffffffffffffffff1673ffffffffffffffffffffffffffffffffffffffff1681526020019081526020016000205482111561119c57600080fd5b81600660008673ffffffffffffffffffffffffffffffffffffffff1673ffffffffffffffffffffffffffffffffffffffff16815260200190815260200160002060003373ffffffffffffffffffffffffffffffffffffffff1673ffffffffffffffffffffffffffffffffffffffff168152602001908152602001600020600082825403925050819055506112318484846143af565b600190509392505050565b8260011515601060003373ffffffffffffffffffffffffffffffffffffffff1673ffffffffffffffffffffffffffffffffffffffff168152602001908152602001600020600083815260200190815260200160002060009054906101000a900460ff161515146112e1576040517f08c379a00000000000000000000000000000000000000000000000000000000081526004016112d890615e50565b60405180910390fd5b60011515601160003373ffffffffffffffffffffffffffffffffffffffff1673ffffffffffffffffffffffffffffffffffffffff16815260200190815260200160002060009054906101000a900460ff16151514611374576040517f08c379a000000000000000000000000000000000000000000000000000000000815260040161136b90615e30565b60405180910390fd5b84600115156017826040516113899190615901565b908152602001604051809103902060009054906101000a900460ff161515146113e7576040517f08c379a00000000000000000000000000000000000000000000000000000000081526004016113de90615e90565b60405180910390fd5b6013846040516113f79190615901565b90815260200160405180910390206000848152602001908152602001600020600061142291906146d4565b3373ffffffffffffffffffffffffffffffffffffffff167f558e4ae33dfca7324493271fabf356b0364808ca1cea5ef153f072321860dbfd876040516114689190615bc2565b60405180910390a2505050505050565b600b5481565b600760009054906101000a900473ffffffffffffffffffffffffffffffffffffffff1673ffffffffffffffffffffffffffffffffffffffff163373ffffffffffffffffffffffffffffffffffffffff161461150e576040517f08c379a000000000000000000000000000000000000000000000000000000000815260040161150590615d10565b60405180910390fd5b3373ffffffffffffffffffffffffffffffffffffffff166108fc829081150290604051600060405180830381858888f19350505050158015611554573d6000803e3d6000fd5b5050565b600080600e60008573ffffffffffffffffffffffffffffffffffffffff1673ffffffffffffffffffffffffffffffffffffffff168152602001908152602001600020600084815260200190815260200160002060009054906101000a900460ff16600f60008673ffffffffffffffffffffffffffffffffffffffff1673ffffffffffffffffffffffffffffffffffffffff16815260200190815260200160002060009054906101000a900460ff16915091509250929050565b600260009054906101000a900460ff1681565b60186020528060005260406000206000915090505481565b60045481565b60008160011515601060003373ffffffffffffffffffffffffffffffffffffffff1673ffffffffffffffffffffffffffffffffffffffff168152602001908152602001600020600083815260200190815260200160002060009054906101000a900460ff161515146116e9576040517f08c379a00000000000000000000000000000000000000000000000000000000081526004016116e090615e50565b60405180910390fd5b60011515601160003373ffffffffffffffffffffffffffffffffffffffff1673ffffffffffffffffffffffffffffffffffffffff16815260200190815260200160002060009054906101000a900460ff1615151461177c576040517f08c379a000000000000000000000000000000000000000000000000000000000815260040161177390615e30565b60405180910390fd5b60006001600d60008282540192505081905590506000429050600060019050606033888585856040516020016117b6959493929190615933565b6040516020818303038152906040529050600015156014826040516117db9190615901565b908152602001604051809103902060009054906101000a900460ff16151514611839576040517f08c379a000000000000000000000000000000000000000000000000000000000815260040161183090615eb0565b60405180910390fd5b80601260003373ffffffffffffffffffffffffffffffffffffffff1673ffffffffffffffffffffffffffffffffffffffff1681526020019081526020016000206000868152602001908152602001600020908051906020019061189d92919061471c565b50600115156014826040516118b29190615901565b908152602001604051809103902060009054906101000a905050503373ffffffffffffffffffffffffffffffffffffffff167fd8988102e4898200b74bb34a3a544514e31d02d3d939f0db3d0daac99e7e827f826040516119139190615bc2565b60405180910390a260019550505050505092915050565b600081600560003373ffffffffffffffffffffffffffffffffffffffff1673ffffffffffffffffffffffffffffffffffffffff16815260200190815260200160002054101561197857600080fd5b81600560003373ffffffffffffffffffffffffffffffffffffffff1673ffffffffffffffffffffffffffffffffffffffff16815260200190815260200160002060008282540392505081905550816003600082825403925050819055503373ffffffffffffffffffffffffffffffffffffffff167fcc16f5dbb4873280815c1ee09dbd06736cffcc184412cf7a71a0fdb75d397ca583604051611a1b9190615ed0565b60405180910390a260019050919050565b6014818051602081018201805184825260208301602085012081835280955050505050506000915054906101000a900460ff1681565b60008160011515601060003373ffffffffffffffffffffffffffffffffffffffff1673ffffffffffffffffffffffffffffffffffffffff168152602001908152602001600020600083815260200190815260200160002060009054906101000a900460ff16151514611b09576040517f08c379a0000000000000000000000000000000000000000000000000000000008152600401611b0090615e50565b60405180910390fd5b60011515601160003373ffffffffffffffffffffffffffffffffffffffff1673ffffffffffffffffffffffffffffffffffffffff16815260200190815260200160002060009054906101000a900460ff16151514611b9c576040517f08c379a0000000000000000000000000000000000000000000000000000000008152600401611b9390615e30565b60405180910390fd5b60008611611bdf576040517f08c379a0000000000000000000000000000000000000000000000000000000008152600401611bd690615df0565b60405180910390fd5b606088905060008790506000869050600060016004600082825401925050819055905060608b90506060338686868686604051602001611c249695949392919061598d565b60405160208183030381529060405290508060138c604051611c469190615901565b908152602001604051809103902060008581526020019081526020016000209080519060200190611c7892919061471c565b506001601660003373ffffffffffffffffffffffffffffffffffffffff1673ffffffffffffffffffffffffffffffffffffffff16815260200190815260200160002060006101000a81548160ff0219169083151502179055506001601782604051611ce39190615901565b908152602001604051809103902060006101000a81548160ff02191690831515021790555080601560008581526020019081526020016000209080519060200190611d2f92919061471c565b503373ffffffffffffffffffffffffffffffffffffffff167f772cc3a8e77f72eb5acf7b3a43da99bf21604939d49108bdd445da7c9c137a218f83604051611d78929190615c59565b60405180910390a260019750505050505050509695505050505050565b600085858080601f016020809104026020016040519081016040528093929190818152602001838380828437600081840152601f19601f8201169050808301925050505050505060011515601782604051611df09190615901565b908152602001604051809103902060009054906101000a900460ff16151514611e4e576040517f08c379a0000000000000000000000000000000000000000000000000000000008152600401611e4590615e90565b60405180910390fd5b6060601560008681526020019081526020016000208054600181600116156101000203166002900480601f016020809104026020016040519081016040528092919081815260200182805460018160011615610100020316600290048015611ef75780601f10611ecc57610100808354040283529160200191611ef7565b820191906000526020600020905b815481529060010190602001808311611eda57829003601f168201915b505050505090506000606060008060008086806020019051611f1c9190810190614b0f565b95509550955095509550955060008c11611f6b576040517f08c379a0000000000000000000000000000000000000000000000000000000008152600401611f6290615dd0565b60405180910390fd5b60008a8d0290508a8d8281611f7c57fe5b0414611fbd576040517f08c379a0000000000000000000000000000000000000000000000000000000008152600401611fb490615e70565b60405180910390fd5b80600560003373ffffffffffffffffffffffffffffffffffffffff1673ffffffffffffffffffffffffffffffffffffffff16815260200190815260200160002054101561203f576040517f08c379a000000000000000000000000000000000000000000000000000000000815260040161203690615d70565b60405180910390fd5b838d1115612082576040517f08c379a000000000000000000000000000000000000000000000000000000000815260040161207990615e10565b60405180910390fd5b808b10156120c5576040517f08c379a00000000000000000000000000000000000000000000000000000000081526004016120bc90615c90565b60405180910390fd5b80600560003373ffffffffffffffffffffffffffffffffffffffff1673ffffffffffffffffffffffffffffffffffffffff1681526020019081526020016000206000828254039250508190555080600560008973ffffffffffffffffffffffffffffffffffffffff1673ffffffffffffffffffffffffffffffffffffffff168152602001908152602001600020600082825401925050819055506000601660008973ffffffffffffffffffffffffffffffffffffffff1673ffffffffffffffffffffffffffffffffffffffff16815260200190815260200160002060006101000a81548160ff0219169083151502179055506001601660003373ffffffffffffffffffffffffffffffffffffffff1673ffffffffffffffffffffffffffffffffffffffff16815260200190815260200160002060006101000a81548160ff0219169083151502179055508c84039350600084141561224d57601560008d8152602001908152602001600020600061223c91906146d4565b600199505050505050505050612308565b60008411156122a85786868686868660405160200161227196959493929190615af4565b604051602081830303815290604052601560008e815260200190815260200160002090805190602001906122a692919061471c565b505b6001600a600082825401925050819055601960003373ffffffffffffffffffffffffffffffffffffffff1673ffffffffffffffffffffffffffffffffffffffff168152602001908152602001600020819055506001995050505050505050505b5095945050505050565b6000600760009054906101000a900473ffffffffffffffffffffffffffffffffffffffff1673ffffffffffffffffffffffffffffffffffffffff163373ffffffffffffffffffffffffffffffffffffffff16146123a4576040517f08c379a000000000000000000000000000000000000000000000000000000000815260040161239b90615d10565b60405180910390fd5b6003600b5411156123ea576040517f08c379a00000000000000000000000000000000000000000000000000000000081526004016123e190615cb0565b60405180910390fd5b600073ffffffffffffffffffffffffffffffffffffffff168273ffffffffffffffffffffffffffffffffffffffff16141561245a576040517f08c379a000000000000000000000000000000000000000000000000000000000815260040161245190615cf0565b60405180910390fd5b60006001600b60008282540192505081905590506001600e60008573ffffffffffffffffffffffffffffffffffffffff1673ffffffffffffffffffffffffffffffffffffffff168152602001908152602001600020600083815260200190815260200160002060006101000a81548160ff0219169083151502179055508273ffffffffffffffffffffffffffffffffffffffff167f71614071b88dee5e0b2ae578a9dd7b2ebbe9ae832ba419dc0242cd065a290b6c60405160405180910390a26001915050919050565b60056020528060005260406000206000915090505481565b612546828261289f565b505050565b6000600760009054906101000a900473ffffffffffffffffffffffffffffffffffffffff1673ffffffffffffffffffffffffffffffffffffffff163373ffffffffffffffffffffffffffffffffffffffff16146125dd576040517f08c379a00000000000000000000000000000000000000000000000000000000081526004016125d490615d10565b60405180910390fd5b60011515600e60008673ffffffffffffffffffffffffffffffffffffffff1673ffffffffffffffffffffffffffffffffffffffff168152602001908152602001600020600084815260200190815260200160002060009054906101000a900460ff16151514612681576040517f08c379a000000000000000000000000000000000000000000000000000000000815260040161267890615d50565b60405180910390fd5b82600f60008673ffffffffffffffffffffffffffffffffffffffff1673ffffffffffffffffffffffffffffffffffffffff16815260200190815260200160002060006101000a81548160ff021916908315150217905550600190509392505050565b600760009054906101000a900473ffffffffffffffffffffffffffffffffffffffff1673ffffffffffffffffffffffffffffffffffffffff163373ffffffffffffffffffffffffffffffffffffffff1614612773576040517f08c379a000000000000000000000000000000000000000000000000000000000815260040161276a90615d10565b60405180910390fd5b80600560008473ffffffffffffffffffffffffffffffffffffffff1673ffffffffffffffffffffffffffffffffffffffff16815260200190815260200160002060008282540192505081905550806003600082825401925050819055503073ffffffffffffffffffffffffffffffffffffffff16600073ffffffffffffffffffffffffffffffffffffffff167fddf252ad1be2c89b69c2b068fc378daa952ba7f163c4a11628f55a4df523b3ef8360405161282e9190615ed0565b60405180910390a38173ffffffffffffffffffffffffffffffffffffffff163073ffffffffffffffffffffffffffffffffffffffff167fddf252ad1be2c89b69c2b068fc378daa952ba7f163c4a11628f55a4df523b3ef836040516128939190615ed0565b60405180910390a35050565b600081600560008573ffffffffffffffffffffffffffffffffffffffff1673ffffffffffffffffffffffffffffffffffffffff1681526020019081526020016000205410156128ed57600080fd5b600660008473ffffffffffffffffffffffffffffffffffffffff1673ffffffffffffffffffffffffffffffffffffffff16815260200190815260200160002060003373ffffffffffffffffffffffffffffffffffffffff1673ffffffffffffffffffffffffffffffffffffffff1681526020019081526020016000205482111561297657600080fd5b81600560008573ffffffffffffffffffffffffffffffffffffffff1673ffffffffffffffffffffffffffffffffffffffff1681526020019081526020016000206000828254039250508190555081600660008573ffffffffffffffffffffffffffffffffffffffff1673ffffffffffffffffffffffffffffffffffffffff16815260200190815260200160002060003373ffffffffffffffffffffffffffffffffffffffff1673ffffffffffffffffffffffffffffffffffffffff16815260200190815260200160002060008282540392505081905550816003600082825403925050819055508273ffffffffffffffffffffffffffffffffffffffff167fcc16f5dbb4873280815c1ee09dbd06736cffcc184412cf7a71a0fdb75d397ca583604051612aa39190615ed0565b60405180910390a26001905092915050565b612abe8161192a565b5050565b60008160011515600e60003373ffffffffffffffffffffffffffffffffffffffff1673ffffffffffffffffffffffffffffffffffffffff168152602001908152602001600020600083815260200190815260200160002060009054906101000a900460ff16151514612b69576040517f08c379a0000000000000000000000000000000000000000000000000000000008152600401612b6090615cd0565b60405180910390fd5b60011515600f60003373ffffffffffffffffffffffffffffffffffffffff1673ffffffffffffffffffffffffffffffffffffffff16815260200190815260200160002060009054906101000a900460ff16151514612bfc576040517f08c379a0000000000000000000000000000000000000000000000000000000008152600401612bf390615db0565b60405180910390fd5b600073ffffffffffffffffffffffffffffffffffffffff168473ffffffffffffffffffffffffffffffffffffffff161415612c6c576040517f08c379a0000000000000000000000000000000000000000000000000000000008152600401612c6390615cf0565b60405180910390fd5b60006001600c60008282540192505081905590506001601060008773ffffffffffffffffffffffffffffffffffffffff1673ffffffffffffffffffffffffffffffffffffffff168152602001908152602001600020600086815260200190815260200160002060006101000a81548160ff0219169083151502179055508473ffffffffffffffffffffffffffffffffffffffff167f7a8a0bce5482e96787ebd6c2b39c8a3ba934bd7418f05e073fb7102f7a71af5a82604051612d2f9190615ed0565b60405180910390a2829250505092915050565b601a6020528060005260406000206000915054906101000a900460ff1681565b600760009054906101000a900473ffffffffffffffffffffffffffffffffffffffff1681565b600f6020528060005260406000206000915054906101000a900460ff1681565b8160011515601060003373ffffffffffffffffffffffffffffffffffffffff1673ffffffffffffffffffffffffffffffffffffffff168152602001908152602001600020600083815260200190815260200160002060009054906101000a900460ff16151514612e4d576040517f08c379a0000000000000000000000000000000000000000000000000000000008152600401612e4490615e50565b60405180910390fd5b60011515601160003373ffffffffffffffffffffffffffffffffffffffff1673ffffffffffffffffffffffffffffffffffffffff16815260200190815260200160002060009054906101000a900460ff16151514612ee0576040517f08c379a0000000000000000000000000000000000000000000000000000000008152600401612ed790615e30565b60405180910390fd5b601260003373ffffffffffffffffffffffffffffffffffffffff1673ffffffffffffffffffffffffffffffffffffffff16815260200190815260200160002060008381526020019081526020016000206000612f3c91906146d4565b3373ffffffffffffffffffffffffffffffffffffffff167ff0d9d157410ce0dd627a64caaef943950c3e149d9ac393179729ec71c342026d83604051612f829190615ed0565b60405180910390a2505050565b6000600760009054906101000a900473ffffffffffffffffffffffffffffffffffffffff1673ffffffffffffffffffffffffffffffffffffffff163373ffffffffffffffffffffffffffffffffffffffff1614613021576040517f08c379a000000000000000000000000000000000000000000000000000000000815260040161301890615d10565b60405180910390fd5b60011515600e60008573ffffffffffffffffffffffffffffffffffffffff1673ffffffffffffffffffffffffffffffffffffffff16815260200190815260200160002060008460ff16815260200190815260200160002060009054906101000a900460ff161515146130c8576040517f08c379a00000000000000000000000000000000000000000000000000000000081526004016130bf90615d90565b60405180910390fd5b6000600e60008573ffffffffffffffffffffffffffffffffffffffff1673ffffffffffffffffffffffffffffffffffffffff16815260200190815260200160002060008460ff16815260200190815260200160002060006101000a81548160ff02191690831515021790555060001515600e60008573ffffffffffffffffffffffffffffffffffffffff1673ffffffffffffffffffffffffffffffffffffffff16815260200190815260200160002060008460ff16815260200190815260200160002060009054906101000a900460ff16151514156131aa57600190506131ab565b5b92915050565b60018054600181600116156101000203166002900480601f0160208091040260200160405190810160405280929190818152602001828054600181600116156101000203166002900480156132475780601f1061321c57610100808354040283529160200191613247565b820191906000526020600020905b81548152906001019060200180831161322a57829003601f168201915b505050505081565b60166020528060005260406000206000915054906101000a900460ff1681565b600d5481565b60006132823384846143af565b6001905092915050565b6000601a60008573ffffffffffffffffffffffffffffffffffffffff1673ffffffffffffffffffffffffffffffffffffffff16815260200190815260200160002060009054906101000a900460ff16156132e557600080fd5b601a60008473ffffffffffffffffffffffffffffffffffffffff1673ffffffffffffffffffffffffffffffffffffffff16815260200190815260200160002060009054906101000a900460ff161561333c57600080fd5b613347848484611111565b50600190509392505050565b600c5481565b60106020528160005260406000206020528060005260406000206000915091509054906101000a900460ff1681565b60008160011515601060003373ffffffffffffffffffffffffffffffffffffffff1673ffffffffffffffffffffffffffffffffffffffff168152602001908152602001600020600083815260200190815260200160002060009054906101000a900460ff1615151461342f576040517f08c379a000000000000000000000000000000000000000000000000000000000815260040161342690615e50565b60405180910390fd5b60011515601160003373ffffffffffffffffffffffffffffffffffffffff1673ffffffffffffffffffffffffffffffffffffffff16815260200190815260200160002060009054906101000a900460ff161515146134c2576040517f08c379a00000000000000000000000000000000000000000000000000000000081526004016134b990615e30565b60405180910390fd5b83600560003373ffffffffffffffffffffffffffffffffffffffff1673ffffffffffffffffffffffffffffffffffffffff168152602001908152602001600020541015613544576040517f08c379a000000000000000000000000000000000000000000000000000000000815260040161353b90615d70565b60405180910390fd5b83600560003373ffffffffffffffffffffffffffffffffffffffff1673ffffffffffffffffffffffffffffffffffffffff1681526020019081526020016000206000828254039250508190555083600560008773ffffffffffffffffffffffffffffffffffffffff1673ffffffffffffffffffffffffffffffffffffffff168152602001908152602001600020600082825401925050819055508473ffffffffffffffffffffffffffffffffffffffff163373ffffffffffffffffffffffffffffffffffffffff167f2717ead6b9200dd235aad468c9809ea400fe33ac69b5bfaa6d3e90fc922b63988660405161363b9190615ed0565b60405180910390a3819150509392505050565b60156020528060005260406000206000915090508054600181600116156101000203166002900480601f0160208091040260200160405190810160405280929190818152602001828054600181600116156101000203166002900480156136f65780601f106136cb576101008083540402835291602001916136f6565b820191906000526020600020905b8154815290600101906020018083116136d957829003601f168201915b505050505081565b600080601060008573ffffffffffffffffffffffffffffffffffffffff1673ffffffffffffffffffffffffffffffffffffffff168152602001908152602001600020600084815260200190815260200160002060009054906101000a900460ff16601160008673ffffffffffffffffffffffffffffffffffffffff1673ffffffffffffffffffffffffffffffffffffffff16815260200190815260200160002060009054906101000a900460ff16915091509250929050565b6000808490506137c78585610fe3565b15613847578073ffffffffffffffffffffffffffffffffffffffff16638f4ffcb1338630876040518563ffffffff1660e01b815260040161380b9493929190615a25565b600060405180830381600087803b15801561382557600080fd5b505af1158015613839573d6000803e3d6000fd5b505050506001915050613849565b505b9392505050565b61385b8383836137b7565b50505050565b601382805160208101820180518482526020830160208501208183528095505050505050602052806000526040600020600091509150508054600181600116156101000203166002900480601f01602080910402602001604051908101604052809291908181526020018280546001816001161561010002031660029004801561392c5780601f106139015761010080835404028352916020019161392c565b820191906000526020600020905b81548152906001019060200180831161390f57829003601f168201915b505050505081565b6012602052816000526040600020602052806000526040600020600091509150508054600181600116156101000203166002900480601f0160208091040260200160405190810160405280929190818152602001828054600181600116156101000203166002900480156139e95780601f106139be576101008083540402835291602001916139e9565b820191906000526020600020905b8154815290600101906020018083116139cc57829003601f168201915b505050505081565b60116020528060005260406000206000915054906101000a900460ff1681565b6006602052816000526040600020602052806000526040600020600091509150505481565b600e6020528160005260406000206020528060005260406000206000915091509054906101000a900460ff1681565b600760009054906101000a900473ffffffffffffffffffffffffffffffffffffffff1673ffffffffffffffffffffffffffffffffffffffff163373ffffffffffffffffffffffffffffffffffffffff1614613af5576040517f08c379a0000000000000000000000000000000000000000000000000000000008152600401613aec90615d10565b60405180910390fd5b80601a60008473ffffffffffffffffffffffffffffffffffffffff1673ffffffffffffffffffffffffffffffffffffffff16815260200190815260200160002060006101000a81548160ff0219169083151502179055507f48335238b4855f35377ed80f164e8c6f3c366e54ac00b96a6402d4a9814a03a58282604051613b7d929190615a71565b60405180910390a15050565b6000606060008060008560011515601060003373ffffffffffffffffffffffffffffffffffffffff1673ffffffffffffffffffffffffffffffffffffffff168152602001908152602001600020600083815260200190815260200160002060009054906101000a900460ff16151514613c37576040517f08c379a0000000000000000000000000000000000000000000000000000000008152600401613c2e90615e50565b60405180910390fd5b60011515601160003373ffffffffffffffffffffffffffffffffffffffff1673ffffffffffffffffffffffffffffffffffffffff16815260200190815260200160002060009054906101000a900460ff16151514613cca576040517f08c379a0000000000000000000000000000000000000000000000000000000008152600401613cc190615e30565b60405180910390fd5b6001151560148a8a604051613ce09291906158e8565b908152602001604051809103902060009054906101000a900460ff16151514613d3e576040517f08c379a0000000000000000000000000000000000000000000000000000000008152600401613d3590615d30565b60405180910390fd5b8888613d4d9190810190614a80565b8494508393509550955095509550955050939792965093509350565b60008360011515600e60003373ffffffffffffffffffffffffffffffffffffffff1673ffffffffffffffffffffffffffffffffffffffff168152602001908152602001600020600083815260200190815260200160002060009054906101000a900460ff16151514613e10576040517f08c379a0000000000000000000000000000000000000000000000000000000008152600401613e0790615cd0565b60405180910390fd5b60011515600f60003373ffffffffffffffffffffffffffffffffffffffff1673ffffffffffffffffffffffffffffffffffffffff16815260200190815260200160002060009054906101000a900460ff16151514613ea3576040517f08c379a0000000000000000000000000000000000000000000000000000000008152600401613e9a90615db0565b60405180910390fd5b60011515601060008873ffffffffffffffffffffffffffffffffffffffff1673ffffffffffffffffffffffffffffffffffffffff168152602001908152602001600020600086815260200190815260200160002060009054906101000a900460ff16151514613f47576040517f08c379a0000000000000000000000000000000000000000000000000000000008152600401613f3e90615e50565b60405180910390fd5b6000806000806000604051602001613f63959493929190615be4565b604051602081830303815290604052601260008873ffffffffffffffffffffffffffffffffffffffff1673ffffffffffffffffffffffffffffffffffffffff16815260200190815260200160002060008581526020019081526020016000209080519060200190613fd592919061471c565b5060001515601160008873ffffffffffffffffffffffffffffffffffffffff1673ffffffffffffffffffffffffffffffffffffffff16815260200190815260200160002060009054906101000a905050508573ffffffffffffffffffffffffffffffffffffffff167fff171ea27985d4229a811de7ef2f1ed40c3edf34b09e008db519cdc0feb5d2b08460405161406c9190615ed0565b60405180910390a26001915050949350505050565b600760009054906101000a900473ffffffffffffffffffffffffffffffffffffffff1673ffffffffffffffffffffffffffffffffffffffff163373ffffffffffffffffffffffffffffffffffffffff1614614111576040517f08c379a000000000000000000000000000000000000000000000000000000000815260040161410890615d10565b60405180910390fd5b80600760006101000a81548173ffffffffffffffffffffffffffffffffffffffff021916908373ffffffffffffffffffffffffffffffffffffffff16021790555050565b60008260011515600e60003373ffffffffffffffffffffffffffffffffffffffff1673ffffffffffffffffffffffffffffffffffffffff168152602001908152602001600020600083815260200190815260200160002060009054906101000a900460ff161515146141fc576040517f08c379a00000000000000000000000000000000000000000000000000000000081526004016141f390615cd0565b60405180910390fd5b60011515600f60003373ffffffffffffffffffffffffffffffffffffffff1673ffffffffffffffffffffffffffffffffffffffff16815260200190815260200160002060009054906101000a900460ff1615151461428f576040517f08c379a000000000000000000000000000000000000000000000000000000000815260040161428690615db0565b60405180910390fd5b60011515601060008873ffffffffffffffffffffffffffffffffffffffff1673ffffffffffffffffffffffffffffffffffffffff168152602001908152602001600020600085815260200190815260200160002060009054906101000a900460ff16151514614333576040517f08c379a000000000000000000000000000000000000000000000000000000000815260040161432a90615d50565b60405180910390fd5b84601160008873ffffffffffffffffffffffffffffffffffffffff1673ffffffffffffffffffffffffffffffffffffffff16815260200190815260200160002060006101000a81548160ff0219169083151502179055506001915050949350505050565b60196020528060005260406000206000915090505481565b600073ffffffffffffffffffffffffffffffffffffffff168273ffffffffffffffffffffffffffffffffffffffff1614156143e957600080fd5b80600560008573ffffffffffffffffffffffffffffffffffffffff1673ffffffffffffffffffffffffffffffffffffffff16815260200190815260200160002054101561443557600080fd5b600560008373ffffffffffffffffffffffffffffffffffffffff1673ffffffffffffffffffffffffffffffffffffffff1681526020019081526020016000205481600560008573ffffffffffffffffffffffffffffffffffffffff1673ffffffffffffffffffffffffffffffffffffffff1681526020019081526020016000205401116144c157600080fd5b6000600560008473ffffffffffffffffffffffffffffffffffffffff1673ffffffffffffffffffffffffffffffffffffffff16815260200190815260200160002054600560008673ffffffffffffffffffffffffffffffffffffffff1673ffffffffffffffffffffffffffffffffffffffff1681526020019081526020016000205401905081600560008673ffffffffffffffffffffffffffffffffffffffff1673ffffffffffffffffffffffffffffffffffffffff1681526020019081526020016000206000828254039250508190555081600560008573ffffffffffffffffffffffffffffffffffffffff1673ffffffffffffffffffffffffffffffffffffffff168152602001908152602001600020600082825401925050819055508273ffffffffffffffffffffffffffffffffffffffff168473ffffffffffffffffffffffffffffffffffffffff167fddf252ad1be2c89b69c2b068fc378daa952ba7f163c4a11628f55a4df523b3ef8460405161463d9190615ed0565b60405180910390a380600560008573ffffffffffffffffffffffffffffffffffffffff1673ffffffffffffffffffffffffffffffffffffffff16815260200190815260200160002054600560008773ffffffffffffffffffffffffffffffffffffffff1673ffffffffffffffffffffffffffffffffffffffff1681526020019081526020016000205401146146ce57fe5b50505050565b50805460018160011615610100020316600290046000825580601f106146fa5750614719565b601f016020900490600052602060002090810190614718919061479c565b5b50565b828054600181600116156101000203166002900490600052602060002090601f016020900481019282601f1061475d57805160ff191683800117855561478b565b8280016001018555821561478b579182015b8281111561478a57825182559160200191906001019061476f565b5b509050614798919061479c565b5090565b6147be91905b808211156147ba5760008160009055506001016147a2565b5090565b90565b6000813590506147d081616148565b92915050565b6000813590506147e58161615f565b92915050565b6000815190506147fa8161615f565b92915050565b60008135905061480f81616176565b92915050565b6000815190506148248161618d565b92915050565b60008083601f84011261483c57600080fd5b8235905067ffffffffffffffff81111561485557600080fd5b60208301915083600182028301111561486d57600080fd5b9250929050565b600082601f83011261488557600080fd5b813561489861489382615f33565b615f06565b915080825260208301602083018583830111156148b457600080fd5b6148bf8382846160f5565b50505092915050565b600082601f8301126148d957600080fd5b81356148ec6148e782615f5f565b615f06565b9150808252602083016020830185838301111561490857600080fd5b6149138382846160f5565b50505092915050565b600082601f83011261492d57600080fd5b813561494061493b82615f8b565b615f06565b9150808252602083016020830185838301111561495c57600080fd5b6149678382846160f5565b50505092915050565b600082601f83011261498157600080fd5b815161499461498f82615f8b565b615f06565b915080825260208301602083018583830111156149b057600080fd5b6149bb838284616104565b50505092915050565b600082601f8301126149d557600080fd5b81356149e86149e382615fb7565b615f06565b91508082526020830160208301858383011115614a0457600080fd5b614a0f8382846160f5565b50505092915050565b600081359050614a27816161a4565b92915050565b600081519050614a3c816161a4565b92915050565b600081359050614a51816161bb565b92915050565b600060208284031215614a6957600080fd5b6000614a77848285016147c1565b91505092915050565b600080600080600060a08688031215614a9857600080fd5b6000614aa6888289016147d6565b955050602086013567ffffffffffffffff811115614ac357600080fd5b614acf8882890161491c565b9450506040614ae088828901614a18565b9350506060614af188828901614a18565b9250506080614b0288828901614800565b9150509295509295909350565b60008060008060008060c08789031215614b2857600080fd5b6000614b3689828a016147eb565b965050602087015167ffffffffffffffff811115614b5357600080fd5b614b5f89828a01614970565b9550506040614b7089828a01614a2d565b9450506060614b8189828a01614a2d565b9350506080614b9289828a01614a2d565b92505060a0614ba389828a01614815565b9150509295509295509295565b600080600060608486031215614bc557600080fd5b6000614bd3868287016147d6565b9350506020614be486828701614a18565b9250506040614bf586828701614a18565b9150509250925092565b60008060408385031215614c1257600080fd5b6000614c20858286016147c1565b9250506020614c31858286016147c1565b9150509250929050565b600080600060608486031215614c5057600080fd5b6000614c5e868287016147c1565b9350506020614c6f868287016147c1565b9250506040614c8086828701614a18565b9150509250925092565b60008060408385031215614c9d57600080fd5b6000614cab858286016147c1565b9250506020614cbc85828601614800565b9150509250929050565b600080600060608486031215614cdb57600080fd5b6000614ce9868287016147c1565b9350506020614cfa86828701614800565b9250506040614d0b86828701614a18565b9150509250925092565b60008060008060808587031215614d2b57600080fd5b6000614d39878288016147c1565b9450506020614d4a87828801614800565b9350506040614d5b87828801614a18565b9250506060614d6c87828801614a18565b91505092959194509250565b60008060408385031215614d8b57600080fd5b6000614d99858286016147c1565b9250506020614daa85828601614a18565b9150509250929050565b600080600060608486031215614dc957600080fd5b6000614dd7868287016147c1565b9350506020614de886828701614a18565b925050604084013567ffffffffffffffff811115614e0557600080fd5b614e11868287016148c8565b9150509250925092565b60008060008060808587031215614e3157600080fd5b6000614e3f878288016147c1565b9450506020614e5087828801614a18565b9350506040614e6187828801614a18565b9250506060614e7287828801614a18565b91505092959194509250565b60008060408385031215614e9157600080fd5b6000614e9f858286016147c1565b9250506020614eb085828601614a42565b9150509250929050565b600080600060408486031215614ecf57600080fd5b600084013567ffffffffffffffff811115614ee957600080fd5b614ef58682870161482a565b93509350506020614f0886828701614a18565b9150509250925092565b600080600080600060808688031215614f2a57600080fd5b600086013567ffffffffffffffff811115614f4457600080fd5b614f508882890161482a565b95509550506020614f6388828901614a18565b9350506040614f7488828901614a18565b9250506060614f8588828901614a18565b9150509295509295909350565b600060208284031215614fa457600080fd5b600082013567ffffffffffffffff811115614fbe57600080fd5b614fca84828501614874565b91505092915050565b60008060008060808587031215614fe957600080fd5b600085013567ffffffffffffffff81111561500357600080fd5b61500f878288016148c8565b945050602061502087828801614a18565b935050604085013567ffffffffffffffff81111561503d57600080fd5b615049878288016148c8565b925050606061505a87828801614a18565b91505092959194509250565b6000806040838503121561507957600080fd5b600083013567ffffffffffffffff81111561509357600080fd5b61509f85828601614874565b92505060206150b085828601614a18565b9150509250929050565b60008060008060008060c087890312156150d357600080fd5b600087013567ffffffffffffffff8111156150ed57600080fd5b6150f989828a016149c4565b965050602087013567ffffffffffffffff81111561511657600080fd5b61512289828a016149c4565b955050604061513389828a01614a18565b945050606087013567ffffffffffffffff81111561515057600080fd5b61515c89828a016148c8565b935050608061516d89828a01614a18565b92505060a061517e89828a01614a18565b9150509295509295509295565b6000806040838503121561519e57600080fd5b600083013567ffffffffffffffff8111156151b857600080fd5b6151c4858286016149c4565b92505060206151d585828601614a18565b9150509250929050565b6000602082840312156151f157600080fd5b60006151ff84828501614a18565b91505092915050565b6000806040838503121561521b57600080fd5b600061522985828601614a18565b925050602061523a85828601614a18565b9150509250929050565b61524d816160ad565b82525050565b61525c8161604e565b82525050565b61526b8161603c565b82525050565b61527a81616060565b82525050565b6152898161606c565b82525050565b600061529b8385616020565b93506152a88385846160f5565b82840190509392505050565b60006152bf82615fee565b6152c9818561600f565b93506152d9818560208601616104565b6152e281616137565b840191505092915050565b60006152f882615fee565b6153028185616020565b9350615312818560208601616104565b80840191505092915050565b600061532982615fe3565b615333818561600f565b9350615343818560208601616104565b61534c81616137565b840191505092915050565b615360816160bf565b82525050565b600061537182616004565b61537b818561602b565b935061538b818560208601616104565b61539481616137565b840191505092915050565b60006153aa82615ff9565b6153b4818561602b565b93506153c4818560208601616104565b6153cd81616137565b840191505092915050565b60006153e560268361602b565b91507f416d6f756e742063616e6e6f74206265206c657373207468616e20746f74616c60008301527f20707269636500000000000000000000000000000000000000000000000000006020830152604082019050919050565b600061544b60198361602b565b91507f4d61782061646d696e2072656163686564202d2d3e205b335d000000000000006000830152602082019050919050565b600061548b60168361602b565b91507f4e6f7420417574686f72697a65642061646472657373000000000000000000006000830152602082019050919050565b60006154cb600f8361602b565b91507f496e76616c6964206164647265737300000000000000000000000000000000006000830152602082019050919050565b600061550b601c8361602b565b91507f52657175657374206661696c65643b204e6f7420616e206f776e6572000000006000830152602082019050919050565b600061554b60148361602b565b91507f53746f726520646f6573206e6f742065786973740000000000000000000000006000830152602082019050919050565b600061558b60118361602b565b91507f4e6f7420616c72656164792061646465640000000000000000000000000000006000830152602082019050919050565b60006155cb60158361602b565b91507f496e7375666669636569656e742062616c616e636500000000000000000000006000830152602082019050919050565b600061560b60148361602b565b91507f4e6f7420616e2061646d696e20616c72656164790000000000000000000000006000830152602082019050919050565b600061564b600e8361602b565b91507f4e6f7420417574686f72697a65640000000000000000000000000000000000006000830152602082019050919050565b600061568b60108361602b565b91507f496e76616c6964207175616e74697479000000000000000000000000000000006000830152602082019050919050565b60006156cb60148361602b565b91507f50726963652063616e6e6f74206265207a65726f0000000000000000000000006000830152602082019050919050565b600061570b60258361602b565b91507f43616e6e6f74206578636565642073656c6c657227732070726573657420616d60008301527f6f756e742e0000000000000000000000000000000000000000000000000000006020830152604082019050919050565b600061577160218361602b565b91507f556e617574686f72697a656420746f20616464204974656d20746f2073746f7260008301527f65000000000000000000000000000000000000000000000000000000000000006020830152604082019050919050565b60006157d760168361602b565b91507f41646472657373206e6f7420617574686f72697a6564000000000000000000006000830152602082019050919050565b600061581760108361602b565b91507f4f766572666c6f772073706f74746564000000000000000000000000000000006000830152602082019050919050565b600061585760138361602b565b91507f4974656d20646f6573206e6f74206578697374000000000000000000000000006000830152602082019050919050565b600061589760138361602b565b91507f53746f726520616c7265616479206578697374000000000000000000000000006000830152602082019050919050565b6158d381616096565b82525050565b6158e2816160a0565b82525050565b60006158f582848661528f565b91508190509392505050565b600061590d82846152ed565b915081905092915050565b600060208201905061592d6000830184615262565b92915050565b600060a0820190506159486000830188615253565b818103602083015261595a8187615366565b905061596960408301866158ca565b61597660608301856158ca565b6159836080830184615271565b9695505050505050565b600060c0820190506159a26000830189615253565b81810360208301526159b48188615366565b90506159c360408301876158ca565b6159d060608301866158ca565b6159dd60808301856158ca565b81810360a08301526159ef8184615366565b9050979650505050505050565b6000604082019050615a116000830185615244565b615a1e60208301846158ca565b9392505050565b6000608082019050615a3a6000830187615244565b615a4760208301866158ca565b615a546040830185615262565b8181036060830152615a6681846152b4565b905095945050505050565b6000604082019050615a866000830185615262565b615a936020830184615271565b9392505050565b600060a082019050615aaf6000830188615262565b8181036020830152615ac18187615366565b9050615ad060408301866158ca565b615add60608301856158ca565b615aea6080830184615271565b9695505050505050565b600060c082019050615b096000830189615262565b8181036020830152615b1b8188615366565b9050615b2a60408301876158ca565b615b3760608301866158ca565b615b4460808301856158ca565b615b5160a0830184615280565b979650505050505050565b6000602082019050615b716000830184615271565b92915050565b6000604082019050615b8c6000830185615271565b615b996020830184615271565b9392505050565b60006020820190508181036000830152615bba818461531e565b905092915050565b60006020820190508181036000830152615bdc81846152b4565b905092915050565b600060a082019050615bf96000830188615357565b615c066020830187615357565b615c136040830186615357565b615c206060830185615357565b615c2d6080830184615357565b9695505050505050565b60006020820190508181036000830152615c51818461539f565b905092915050565b60006040820190508181036000830152615c738185615366565b90508181036020830152615c8781846152b4565b90509392505050565b60006020820190508181036000830152615ca9816153d8565b9050919050565b60006020820190508181036000830152615cc98161543e565b9050919050565b60006020820190508181036000830152615ce98161547e565b9050919050565b60006020820190508181036000830152615d09816154be565b9050919050565b60006020820190508181036000830152615d29816154fe565b9050919050565b60006020820190508181036000830152615d498161553e565b9050919050565b60006020820190508181036000830152615d698161557e565b9050919050565b60006020820190508181036000830152615d89816155be565b9050919050565b60006020820190508181036000830152615da9816155fe565b9050919050565b60006020820190508181036000830152615dc98161563e565b9050919050565b60006020820190508181036000830152615de98161567e565b9050919050565b60006020820190508181036000830152615e09816156be565b9050919050565b60006020820190508181036000830152615e29816156fe565b9050919050565b60006020820190508181036000830152615e4981615764565b9050919050565b60006020820190508181036000830152615e69816157ca565b9050919050565b60006020820190508181036000830152615e898161580a565b9050919050565b60006020820190508181036000830152615ea98161584a565b9050919050565b60006020820190508181036000830152615ec98161588a565b9050919050565b6000602082019050615ee560008301846158ca565b92915050565b6000602082019050615f0060008301846158d9565b92915050565b6000604051905081810181811067ffffffffffffffff82111715615f2957600080fd5b8060405250919050565b600067ffffffffffffffff821115615f4a57600080fd5b601f19601f8301169050602081019050919050565b600067ffffffffffffffff821115615f7657600080fd5b601f19601f8301169050602081019050919050565b600067ffffffffffffffff821115615fa257600080fd5b601f19601f8301169050602081019050919050565b600067ffffffffffffffff821115615fce57600080fd5b601f19601f8301169050602081019050919050565b600081519050919050565b600081519050919050565b600081519050919050565b600081519050919050565b600082825260208201905092915050565b600081905092915050565b600082825260208201905092915050565b600061604782616076565b9050919050565b600061605982616076565b9050919050565b60008115159050919050565b6000819050919050565b600073ffffffffffffffffffffffffffffffffffffffff82169050919050565b6000819050919050565b600060ff82169050919050565b60006160b8826160d1565b9050919050565b60006160ca826160a0565b9050919050565b60006160dc826160e3565b9050919050565b60006160ee82616076565b9050919050565b82818337600083830152505050565b60005b83811015616122578082015181840152602081019050616107565b83811115616131576000848401525b50505050565b6000601f19601f8301169050919050565b6161518161603c565b811461615c57600080fd5b50565b6161688161604e565b811461617357600080fd5b50565b61617f81616060565b811461618a57600080fd5b50565b6161968161606c565b81146161a157600080fd5b50565b6161ad81616096565b81146161b857600080fd5b50565b6161c4816160a0565b81146161cf57600080fd5b5056fea2646970667358221220814ca9cfe316568c3d71ce4a92b15c92b9525833b780ec6c5a3bbba675c1c59e64736f6c63430006010033",
  "source": "// SPDX-License-Identifier: MIT\r\npragma solidity ^0.6.0;\r\npragma experimental ABIEncoderV2;\r\n\r\n\r\ninterface tokenRecipient { \r\n    function receiveApproval(address _from, uint256 _value, address _token, bytes calldata _extraData) external;\r\n    \r\n}\r\n\r\ncontract TokenERC20 {\r\n    // Public variables of the token\r\n    string public name;\r\n    string public symbol;\r\n    uint8 public decimals = 18;\r\n    uint256 public totalSupply;\r\n    uint256 public itemcount = 0;\r\n    \r\n    // An array with all balances \r\n    mapping (address => uint256) public balanceOf;\r\n    mapping (address => mapping (address => uint256)) public allowance;\r\n    \r\n    // This generates a public event on the blockchain that will notify clients\r\n    event Transfer(address indexed from, address indexed to, uint256 value);\r\n    \r\n    // Public event on the blockchain that will notify clients\r\n    event Approval(address indexed _owner, address indexed _spender, uint256 _value);\r\n    // Notifies clients about the amount burnt\r\n    event Burn(address indexed from, uint256 value);\r\n    /**\r\n     * Constrctor function\r\n     *\r\n     * Initializes contract with initial supply tokens to the creator of the contract\r\n     */\r\n    constructor(\r\n        uint256 initialSupply,\r\n        string memory tokenName,\r\n        string memory tokenSymbol\r\n    ) public {\r\n        totalSupply = initialSupply * 10 ** uint256(decimals);  // Update total supply with the decimal amount\r\n        balanceOf[msg.sender] = totalSupply;                // Give the creator all initial tokens\r\n        name = tokenName;                                   // Set the name for display purposes\r\n        symbol = tokenSymbol;                               // Set the symbol for display purposes\r\n    }\r\n    /**\r\n     * Internal transfer, only can be called by this contract\r\n     */\r\n    function _transfer(address _from, address _to, uint _value) internal {\r\n        // Prevent transfer to 0x0 address. Use burn() instead\r\n        require(_to != address(0));\r\n        // Check if the sender has enough\r\n        require(balanceOf[_from] >= _value);\r\n        // Check for overflows\r\n        require(balanceOf[_to] + _value > balanceOf[_to]);\r\n        // Save this for an assertion in the future\r\n        uint previousBalances = balanceOf[_from] + balanceOf[_to];\r\n        // Subtract from the sender\r\n        balanceOf[_from] -= _value;\r\n        // Add the same to the recipient\r\n        balanceOf[_to] += _value;\r\n        emit Transfer(_from, _to, _value);\r\n        // Asserts are used to use static analysis to find bugs in your code. They should never fail\r\n        assert(balanceOf[_from] + balanceOf[_to] == previousBalances);\r\n    }\r\n    /**\r\n     * Transfer tokens\r\n     *\r\n     * Send `_value` tokens to `_to` from your account\r\n     *\r\n     * @param _to The address of the recipient\r\n     * @param _value the amount to send\r\n     */\r\n    function transfer(address _to, uint256 _value) public returns (bool success) {\r\n        _transfer(msg.sender, _to, _value);\r\n        return true;\r\n    }\r\n    /**\r\n     * Transfer tokens from other address\r\n     *\r\n     * Send `_value` tokens to `_to` in behalf of `_from`\r\n     *\r\n     * @param _from The address of the sender\r\n     * @param _to The address of the recipient\r\n     * @param _value the amount to send\r\n     */\r\n    function transferFrom(address _from, address _to, uint256 _value) public returns (bool success) {\r\n        require(_value <= allowance[_from][msg.sender]); // Check allowance amount\r\n        allowance[_from][msg.sender] -= _value;\r\n        _transfer(_from, _to, _value);\r\n        return true;\r\n    }\r\n    /**\r\n     * Set allowance for other address\r\n     *\r\n     * Allows `_spender` to spend no more than `_value` tokens in your behalf\r\n     *\r\n     * @param _spender The address authorized to spend\r\n     * @param _value the max amount they can spend\r\n     */\r\n    function approve(address _spender, uint256 _value) public returns (bool success) {\r\n        allowance[msg.sender][_spender] = _value;\r\n        emit Approval(msg.sender, _spender, _value);\r\n        return true;\r\n    }\r\n    /**\r\n     * Set allowance for other address and notify\r\n     *\r\n     * Allows `_spender` to spend no more than `_value` tokens on your behalf, and then ping the contract about it\r\n     *\r\n     * @param _spender The address authorized to spend\r\n     * @param _value the max amount they can spend\r\n     * @param _extraData some extra information to send to the approved contract\r\n     */\r\n    function approveAndCall(address _spender, uint256 _value, bytes memory _extraData)\r\n        public\r\n        returns (bool success) {\r\n        tokenRecipient spender = tokenRecipient(_spender);\r\n        if (approve(_spender, _value)) {\r\n            spender.receiveApproval(msg.sender, _value, address(this), _extraData);\r\n            return true;\r\n        }\r\n    }\r\n    /**\r\n     * Destroy tokens\r\n     *\r\n     * Remove `_value` tokens from the system irreversibly\r\n     *\r\n     * @param _value the amount of money to burn\r\n     */\r\n    function burn(uint256 _value) public returns (bool success) {\r\n        require(balanceOf[msg.sender] >= _value);   // Check if the sender has enough\r\n        balanceOf[msg.sender] -= _value;            // Subtract from the sender\r\n        totalSupply -= _value;                      // Updates totalSupply\r\n        emit Burn(msg.sender, _value);\r\n        return true;\r\n    }\r\n    /**\r\n     * Destroy tokens from other account\r\n     *\r\n     * Remove `_value` tokens from the system irreversibly on behalf of `_from`.\r\n     *\r\n     * @param _from the address of the sender\r\n     * @param _value the amount of money to burn\r\n     */\r\n    function burnFrom(address _from, uint256 _value) public returns (bool success) {\r\n        require(balanceOf[_from] >= _value);                // Check if the targeted balance is enough\r\n        require(_value <= allowance[_from][msg.sender]);    // Check allowance\r\n        balanceOf[_from] -= _value;                         // Subtract from the targeted balance\r\n        allowance[_from][msg.sender] -= _value;             // Subtract from the sender's allowance\r\n        totalSupply -= _value;                              // Update totalSupply\r\n        emit Burn(_from, _value);\r\n        return true;\r\n    }\r\n}\r\n\r\n\r\n// Online MarketPlace running on the blockchain\r\ncontract GMart is TokenERC20{\r\n    \r\n    address public owner;\r\n    uint totalItem = 0;\r\n    // uint8 defaultId = 10;\r\n    uint8 defaultId_storeOwner = 0;\r\n    uint shoppers_count = 0;\r\n    uint public adminCount = 0;\r\n    uint256 public storeOwnersCount = 0;\r\n    uint256 public storeCount = 0;\r\n\r\n    event ApprovedStoreOwner(address indexed _addr, uint256 _userId);\r\n    event NewAdmin(address indexed _addr);\r\n    event NewStoreFront(address indexed _msgsender, bytes _storeRef);\r\n    event UnregisteredStore(address indexed _storeOwnerAddress, uint256 _storeNumber);\r\n    event DeletedStore(address indexed _msgsender, uint256 _storeNumber);\r\n    event NewItem(address indexed _addr, string _itemName, bytes _itemRef);\r\n    event PriceChange(bytes _referenceId, uint256 _newSetPrice);\r\n    event Withdrawal(address indexed _from, address indexed _to, uint _amount);\r\n    event RemovedItem(address indexed _msgsender, bytes _refId);\r\n    event ReceivedEther(address, uint);\r\n    event FrozenFunds(address target, bool frozen);\r\n     // This generates a public event on the blockchain that will notify clients\r\n    event Transfer(address indexed from, address indexed to, uint256 value);\r\n    \r\n    // Public event on the blockchain that will notify clients\r\n    event Approval(address indexed _owner, address indexed _spender, uint256 _value);\r\n    // Notifies clients about the amount burnt\r\n    event Burn(address indexed from, uint256 value);\r\n    \r\n    // An array with all balances \r\n    mapping(address => mapping(uint => bool)) public  isAdmin;\r\n    mapping(address => bool) public adminApprovalToAdd;\r\n    mapping(address => mapping(uint => bool)) public isStoreOwnerApproved;\r\n    mapping(address => bool) public storeOwnerApprovalToAddItem;//marked\r\n    mapping(address => mapping(uint256 => bytes)) public storefrontRef;\r\n    mapping(bytes => mapping(uint => bytes)) public storefrontRefItemMap;\r\n    mapping(bytes => bool) public storeExist;\r\n    mapping(uint => bytes) public itemsList;\r\n    mapping(address => bool) public ownerShip;\r\n    mapping(bytes => bool) public availableItems;\r\n    mapping(address => uint256) public balanceof;\r\n    mapping(address => uint256) public shoppers;\r\n    mapping (address => bool) public frozenAccounts;\r\n    \r\n    // Initialized at deployment time.\r\n    /**\r\n     * Constrctor function\r\n     *\r\n     * Initializes contract with initial supply tokens to the creator of the contract\r\n     */\r\n    constructor(\r\n        address _addr\r\n        // uint256 initialSupply,\r\n        // string memory tokenName,\r\n        // string memory tokenSymbol\r\n    ) TokenERC20(500000, \"gmarttoken\", \"GMT\") public {\r\n        owner = _addr;\r\n    }\r\n\r\n    //Only sender with owner Authorization is permiitted\r\n    modifier onlyOwner() {\r\n        require(msg.sender == owner, \"Request failed; Not an owner\");\r\n        _;\r\n    }\r\n    //Only sender with admin role is permiitted\r\n    modifier onlyAdmin(uint _id) {\r\n        require(isAdmin[msg.sender][_id] == true, \"Not Authorized address\");\r\n        require(adminApprovalToAdd[msg.sender] == true, \"Not Authorized\");\r\n        _;\r\n    }\r\n    //Only approved store owner is allowed\r\n    modifier approvedStoreOwner(uint256 _id) {\r\n        require(isStoreOwnerApproved[msg.sender][_id] == true, \"Address not authorized\");\r\n        require(storeOwnerApprovalToAddItem[msg.sender] == true, \"Unauthorized to add Item to store\");\r\n        _;\r\n    }\r\n    //Check if an item exist in a particular storefront\r\n    modifier checkItemExist(bytes memory _itemRef) {\r\n        require(availableItems[_itemRef] == true, \"Item does not exist\");\r\n        _;\r\n    }\r\n    \r\n    function transferOwnership(address _newOwner) public onlyOwner {\r\n        owner = _newOwner;\r\n    }\r\n    \r\n    // @notice Create `mintedAmount` tokens and send it to `target`\r\n    // @param target Address to receive the tokens\r\n    // @param mintedAmount the amount of tokens it will receive\r\n    function mintToken(address target, uint256 mintedAmount) onlyOwner public {\r\n        balanceOf[target] += mintedAmount;\r\n        totalSupply += mintedAmount;\r\n        emit Transfer(address(0), address(this), mintedAmount);\r\n        emit Transfer(address(this), target, mintedAmount);\r\n    }\r\n    \r\n    // @notice `freeze? Prevent | Allow` `target` from sending & receiving tokens\r\n    // @param target Address to be frozen\r\n    // @param freeze either to freeze it or not\r\n    function freezeAccount(address target, bool freeze) onlyOwner public {\r\n        frozenAccounts[target] = freeze;\r\n        emit FrozenFunds(target, freeze);\r\n    }\r\n\r\n    /*\r\n     * Transfer tokens\r\n     *\r\n     * Send `_value` tokens to `_to` from your account\r\n     * @param _from Address of sender\r\n     * @param _to The address of the recipient\r\n     * @param _value the amount to send\r\n     */\r\n    function transferToken(address _to, uint _value) internal {\r\n        require(!frozenAccounts[_to]);                       // Check if recipient is frozen\r\n        _transfer(msg.sender, _to, _value);\r\n    }\r\n    \r\n    /**\r\n     * Transfer tokens from other address\r\n     *\r\n     * Send `_value` tokens to `_to` in behalf of `_from`\r\n     *\r\n     * @param _from The address of the sender\r\n     * @param _to The address of the recipient\r\n     * @param _value the amount to send\r\n     */\r\n    function transferTokenFrom(address _from, address _to, uint256 _value) public returns (bool success) {\r\n        require(!frozenAccounts[_from]);        // Check if sender is frozen\r\n        require(!frozenAccounts[_to]);          // Check if recipient is frozen\r\n        transferFrom(_from, _to, _value);\r\n        return true;\r\n    }\r\n    \r\n    /**\r\n     * Set allowance for other address\r\n     *\r\n     * Allows `_spender` to spend no more than `_value` tokens in your behalf\r\n     *\r\n     * @param _spender The address authorized to spend\r\n     * @param _value the max amount they can spend\r\n     */\r\n    function approveSpender(address _spender, uint256 _value) public {\r\n        approve(_spender, _value);\r\n        emit Approval(msg.sender, _spender, _value);\r\n    }\r\n    \r\n    /**\r\n     * Set allowance for other address and notify\r\n     *\r\n     * Allows `_spender` to spend no more than `_value` tokens on your behalf, and then ping the contract about it\r\n     *\r\n     * @param _spender The address authorized to spend\r\n     * @param _value the max amount they can spend\r\n     * @param _extraData some extra information to send to the approved contract\r\n     */\r\n    function approveandCall(address _spender, uint256 _value, bytes memory _extraData) public {\r\n        approveAndCall(_spender, _value, _extraData);\r\n    }\r\n    \r\n    /**\r\n     * Destroy tokens\r\n     *\r\n     * Remove `_value` tokens from the system irreversibly\r\n     *\r\n     * @param _value the amount of money to burn\r\n     */\r\n    function burnToken(uint256 _value) public {\r\n        burn(_value);\r\n    }\r\n    \r\n       /**\r\n     * Destroy tokens from other account\r\n     *\r\n     * Remove `_value` tokens from the system irreversibly on behalf of `_from`.\r\n     *\r\n     * @param _from the address of the sender\r\n     * @param _value the amount of money to burn\r\n     */\r\n    function burnTokenFrom(address _from, uint256 _value) public {\r\n        burnFrom(_from, _value);\r\n        \r\n    }\r\n    \r\n    /**\r\n     * @dev adds an adminList\r\n     * function is called only by the authorized owner address\r\n     */\r\n    function addAdmin(address _addr) public onlyOwner returns(bool){\r\n        require(adminCount <= 3, \"Max admin reached --> [3]\");\r\n        require(_addr != address(0), \"Invalid address\");\r\n        uint id = adminCount += 1;\r\n        isAdmin[_addr][id] = true;\r\n        emit NewAdmin(_addr);\r\n        return true;\r\n    }\r\n\r\n    function checkIsAdmin(address _addr, uint _id) public view returns(bool, bool) {\r\n        return (isAdmin[_addr][_id], adminApprovalToAdd[_addr]);\r\n    }\r\n\r\n    function checkStoreOwnerApproved(address _addr, uint256 _id) public view returns(bool, bool) {\r\n        return (isStoreOwnerApproved[_addr][_id], storeOwnerApprovalToAddItem[_addr]);\r\n    }\r\n    \r\n    function approve_StoreOwner(address _addr, uint _id) public onlyAdmin(_id) returns(bool successful) {\r\n        require(_addr != address(0), \"Invalid address\");\r\n        // StoreOwners memory _ownerStruct = storeOwnerMap[_addr];\r\n        uint256 id = storeOwnersCount += 1;\r\n        isStoreOwnerApproved[_addr][_id] = true;\r\n        emit ApprovedStoreOwner(_addr, id);\r\n        return successful;\r\n    }\r\n    \r\n    function changeAdminApproval(address _addr, bool _approval, uint _id) public onlyOwner returns(bool) {\r\n        require(isAdmin[_addr][_id] == true, \"Not already added\");\r\n        adminApprovalToAdd[_addr] = _approval;\r\n        return true;\r\n    }\r\n    \r\n    function changeStoreOwnerApproval(\r\n        address _addr,\r\n        bool _approval,\r\n        uint _adminId,\r\n        uint256 _storeOwnerId\r\n        ) public onlyAdmin(_adminId) returns(bool){\r\n        require(isStoreOwnerApproved[_addr][_storeOwnerId] == true, \"Not already added\");\r\n        storeOwnerApprovalToAddItem[_addr] = _approval;\r\n        return true;\r\n    }\r\n\r\n    /**\r\n    * StoreOwners Registers a new storefront. \r\n    * currently a participant self-adding strorefront\r\n    * param: _storeName: Name of the store.\r\n    * param: _itemName: Name of an item.\r\n    * param: _description: Detail of an item.\r\n    * param: _price: unit price of an item.\r\n    * param: _storeref: A unique reference Id to the store.\r\n    * param: _quantity: Unit of item to add.\r\n    */\r\n    function addStorefront(\r\n         string memory _storeName,\r\n         uint256 _userId\r\n         ) public approvedStoreOwner(_userId) returns(bool) {\r\n         uint256 _storeNumber = storeCount += 1;\r\n         uint256 dateCreated = now;\r\n         bool _active = true;\r\n         bytes memory _storefrontRef = abi.encode(msg.sender, _storeName, _storeNumber, dateCreated, _active);\r\n         require(storeExist[_storefrontRef] == false, \"Store already exist\" );\r\n         storefrontRef[msg.sender][_storeNumber] = _storefrontRef;\r\n         storeExist[_storefrontRef] == true;\r\n         emit NewStoreFront(msg.sender, _storefrontRef);\r\n         return true;\r\n        \r\n     }\r\n     \r\n     function getStoreDetail(\r\n         bytes calldata _storeRef,\r\n         uint256 _userId\r\n         ) external view approvedStoreOwner(_userId) returns(\r\n             address,\r\n             string memory,\r\n             uint,\r\n             uint,\r\n             bool\r\n             ) {\r\n                 require(storeExist[_storeRef] == true, \"Store does not exist\" );\r\n                 return(abi.decode(_storeRef, (address, string, uint, uint, bool)));\r\n     }\r\n     \r\n          /**\r\n     * StoreOwners Registers a new item to shelve. \r\n     * param: _itemName: Name of an item.\r\n     * param: _description: Detail of an item.\r\n     * param: _price: unit price of an item.\r\n     * param: _storeref: A unique  Id to the store.\r\n     * param: _quantity: Unit of ireferencetem to add.\r\n     */\r\n     \r\n    function addItemToStore(\r\n        string memory _itemName,\r\n        string memory _description,\r\n        uint _price,\r\n        bytes memory _storeRef,\r\n        uint _qnty,\r\n        uint256 _userId\r\n        )public \r\n        approvedStoreOwner(_userId)\r\n        returns(bool)\r\n        {\r\n            require(_price > 0, \"Price cannot be zero\");\r\n            // Item memory _newItem;\r\n            string memory name = _itemName;\r\n            uint256 price = _price;\r\n            uint256 quantity = _qnty;\r\n            uint256 itemNumber = itemcount += 1;\r\n            string memory description = _description;\r\n            bytes memory _itemref = abi.encode(\r\n                msg.sender,\r\n                name,\r\n                price,\r\n                quantity,\r\n                itemNumber,\r\n                description\r\n                );\r\n                storefrontRefItemMap[_storeRef][itemNumber] = _itemref;\r\n                ownerShip[msg.sender] = true;\r\n                availableItems[_itemref] = true;\r\n                itemsList[itemNumber] = _itemref;\r\n                emit NewItem(msg.sender, _itemName, _itemref);\r\n                return true;\r\n            \r\n        }\r\n     \r\n     function removeAnItem(bytes memory _itemRef, uint256 _userId, bytes memory _storeRef, uint _itemNumber) public approvedStoreOwner(_userId) checkItemExist(_itemRef) {\r\n        //  require(availableItems[_itemRef] == true, \"Item does not exist\");\r\n         delete storefrontRefItemMap[_storeRef][_itemNumber];\r\n         emit RemovedItem(msg.sender, _itemRef);\r\n     }\r\n      function removeAStore(uint256 _userId, uint256 _storeNumber) public approvedStoreOwner(_userId) {\r\n          delete storefrontRef[msg.sender][_storeNumber];\r\n          emit DeletedStore(msg.sender, _storeNumber);\r\n      }\r\n\r\n    function buyItem(\r\n        bytes calldata ref,\r\n        uint _qnty,\r\n        uint _itemNumber,\r\n        uint _offer\r\n        )external payable checkItemExist(ref) returns(bool) \r\n        {\r\n            bytes memory _itemToBuy = itemsList[_itemNumber];\r\n            (\r\n                address sellerAddress,\r\n                string memory name,\r\n                uint price,\r\n                uint quantity,\r\n                uint itemNumber,\r\n                bytes32 description) = abi.decode(_itemToBuy, (address, string, uint, uint, uint, bytes32));\r\n                require(_qnty > 0, \"Invalid quantity\");\r\n                uint amountToPay = _qnty * _offer;\r\n                require(amountToPay / _qnty == _offer, \"Overflow spotted\");\r\n                require(balanceOf[msg.sender] >= amountToPay, \"Insufficeient balance\");\r\n                require(_qnty <= quantity, \"Cannot exceed seller's preset amount.\");\r\n                require(_offer >= amountToPay, \"Amount cannot be less than total price\");\r\n                balanceOf[msg.sender] -= amountToPay;\r\n                balanceOf[sellerAddress] += amountToPay;\r\n                ownerShip[sellerAddress] = false;\r\n                ownerShip[msg.sender] = true;\r\n                quantity -= _qnty;\r\n                if(quantity == 0){\r\n                    delete itemsList[_itemNumber];\r\n                    return true;\r\n                }else if(quantity > 0){\r\n                    itemsList[_itemNumber] = abi.encode(sellerAddress, name, price, quantity, itemNumber, description);\r\n                }\r\n                shoppers[msg.sender] = shoppers_count += 1;\r\n                return true;\r\n     }\r\n     \r\n    function withdrawBalanceStoreOwner(address payable _addr, uint _amount, uint256 _userId) external payable approvedStoreOwner(_userId) returns(bool success) {\r\n         require(balanceOf[msg.sender] >= _amount, \"Insufficeient balance\");\r\n         balanceOf[msg.sender] -= _amount;\r\n         balanceOf[_addr] += _amount;\r\n         emit Withdrawal(msg.sender, _addr, _amount);\r\n         return success;\r\n     }\r\n    \r\n    function disableAdmin(address _addr, uint8 _id) public onlyOwner returns(bool success) {\r\n        require(isAdmin[_addr][_id] == true, \"Not an admin already\");\r\n        isAdmin[_addr][_id] = false;\r\n        if(isAdmin[_addr][_id] == false) return true;\r\n    }\r\n    \r\n    /**\r\n     * @dev UnRegisters a store from the Storefront \r\n     * currently only an admin is able to remove store\r\n     */\r\n    function unregisterStore(address _addr, uint _id, uint256 _userId, uint256 _storeNumber) public onlyAdmin(_id) returns(bool) {\r\n        require(isStoreOwnerApproved[_addr][_userId] == true, \"Address not authorized\");\r\n        storefrontRef[_addr][_storeNumber] = abi.encode(0, 0, 0, 0, 0);\r\n        storeOwnerApprovalToAddItem[_addr] == false;\r\n        emit UnregisteredStore(_addr, _storeNumber);\r\n        return true;\r\n    }\r\n    \r\n    //@dev Withdraw funds\r\n    function withdraw(uint _amount) onlyOwner public payable{\r\n        msg.sender.transfer(_amount);\r\n    }\r\n    \r\n    receive() external payable {\r\n        emit ReceivedEther(msg.sender, msg.value);\r\n    }\r\n    \r\n}    ",
  "sourcePath": "C:/Users/OWNER/Desktop/bootFinalProject/consensys-finalProject/contracts/GMart.sol",
  "compiler": {
    "name": "solc",
    "version": "0.6.1+commit.e6f7d5a4.Emscripten.clang"
  },
  "schemaVersion": "3.2.5",
  "updatedAt": "2020-11-30T16:04:18.809Z",
  "networkType": "ethereum",
  "devdoc": {
    "methods": {
      "addAdmin(address)": {
        "details": "adds an adminList function is called only by the authorized owner address"
      },
      "approve(address,uint256)": {
        "params": {
          "_spender": "The address authorized to spend",
          "_value": "the max amount they can spend"
        }
      },
      "approveAndCall(address,uint256,bytes)": {
        "params": {
          "_extraData": "some extra information to send to the approved contract",
          "_spender": "The address authorized to spend",
          "_value": "the max amount they can spend"
        }
      },
      "approveSpender(address,uint256)": {
        "params": {
          "_spender": "The address authorized to spend",
          "_value": "the max amount they can spend"
        }
      },
      "approveandCall(address,uint256,bytes)": {
        "params": {
          "_extraData": "some extra information to send to the approved contract",
          "_spender": "The address authorized to spend",
          "_value": "the max amount they can spend"
        }
      },
      "burn(uint256)": {
        "params": {
          "_value": "the amount of money to burn"
        }
      },
      "burnFrom(address,uint256)": {
        "params": {
          "_from": "the address of the sender",
          "_value": "the amount of money to burn"
        }
      },
      "burnToken(uint256)": {
        "params": {
          "_value": "the amount of money to burn"
        }
      },
      "burnTokenFrom(address,uint256)": {
        "params": {
          "_from": "the address of the sender",
          "_value": "the amount of money to burn"
        }
      },
      "transfer(address,uint256)": {
        "params": {
          "_to": "The address of the recipient",
          "_value": "the amount to send"
        }
      },
      "transferFrom(address,address,uint256)": {
        "params": {
          "_from": "The address of the sender",
          "_to": "The address of the recipient",
          "_value": "the amount to send"
        }
      },
      "transferTokenFrom(address,address,uint256)": {
        "params": {
          "_from": "The address of the sender",
          "_to": "The address of the recipient",
          "_value": "the amount to send"
        }
      },
      "unregisterStore(address,uint256,uint256,uint256)": {
        "details": "UnRegisters a store from the Storefront  currently only an admin is able to remove store"
      }
    }
  },
  "userdoc": {
    "methods": {
      "addItemToStore(string,string,uint256,bytes,uint256,uint256)": {
        "notice": "StoreOwners Registers a new item to shelve.  param: _itemName: Name of an item. param: _description: Detail of an item. param: _price: unit price of an item. param: _storeref: A unique  Id to the store. param: _quantity: Unit of ireferencetem to add."
      },
      "addStorefront(string,uint256)": {
        "notice": "StoreOwners Registers a new storefront.  currently a participant self-adding strorefront param: _storeName: Name of the store. param: _itemName: Name of an item. param: _description: Detail of an item. param: _price: unit price of an item. param: _storeref: A unique reference Id to the store. param: _quantity: Unit of item to add."
      },
      "approve(address,uint256)": {
        "notice": "Set allowance for other address      * Allows `_spender` to spend no more than `_value` tokens in your behalf "
      },
      "approveAndCall(address,uint256,bytes)": {
        "notice": "Set allowance for other address and notify      * Allows `_spender` to spend no more than `_value` tokens on your behalf, and then ping the contract about it "
      },
      "approveSpender(address,uint256)": {
        "notice": "Set allowance for other address      * Allows `_spender` to spend no more than `_value` tokens in your behalf "
      },
      "approveandCall(address,uint256,bytes)": {
        "notice": "Set allowance for other address and notify      * Allows `_spender` to spend no more than `_value` tokens on your behalf, and then ping the contract about it "
      },
      "burn(uint256)": {
        "notice": "Destroy tokens      * Remove `_value` tokens from the system irreversibly "
      },
      "burnFrom(address,uint256)": {
        "notice": "Destroy tokens from other account      * Remove `_value` tokens from the system irreversibly on behalf of `_from`. "
      },
      "burnToken(uint256)": {
        "notice": "Destroy tokens      * Remove `_value` tokens from the system irreversibly "
      },
      "burnTokenFrom(address,uint256)": {
        "notice": "Destroy tokens from other account      * Remove `_value` tokens from the system irreversibly on behalf of `_from`. "
      },
      "constructor": "Constrctor function      * Initializes contract with initial supply tokens to the creator of the contract",
      "transfer(address,uint256)": {
        "notice": "Transfer tokens      * Send `_value` tokens to `_to` from your account "
      },
      "transferFrom(address,address,uint256)": {
        "notice": "Transfer tokens from other address      * Send `_value` tokens to `_to` in behalf of `_from` "
      },
      "transferTokenFrom(address,address,uint256)": {
        "notice": "Transfer tokens from other address      * Send `_value` tokens to `_to` in behalf of `_from` "
      }
    }
  }
}