{
  "contractName": "GMart",
  "abi": [
    {
      "inputs": [],
      "stateMutability": "nonpayable",
      "type": "constructor"
    },
    {
      "anonymous": false,
      "inputs": [
        {
          "indexed": true,
          "internalType": "address",
          "name": "_addr",
          "type": "address"
        },
        {
          "indexed": false,
          "internalType": "bytes",
          "name": "_ref",
          "type": "bytes"
        }
      ],
      "name": "ApprovedStoreOwner",
      "type": "event"
    },
    {
      "anonymous": false,
      "inputs": [
        {
          "indexed": true,
          "internalType": "address",
          "name": "_addr",
          "type": "address"
        },
        {
          "indexed": false,
          "internalType": "bytes",
          "name": "_ref",
          "type": "bytes"
        }
      ],
      "name": "NewAdmin",
      "type": "event"
    },
    {
      "anonymous": false,
      "inputs": [
        {
          "indexed": true,
          "internalType": "address",
          "name": "_addr",
          "type": "address"
        },
        {
          "indexed": false,
          "internalType": "string",
          "name": "_itemName",
          "type": "string"
        },
        {
          "indexed": false,
          "internalType": "bytes",
          "name": "_itemRef",
          "type": "bytes"
        }
      ],
      "name": "NewItem",
      "type": "event"
    },
    {
      "anonymous": false,
      "inputs": [
        {
          "indexed": true,
          "internalType": "address",
          "name": "_newstore",
          "type": "address"
        },
        {
          "indexed": false,
          "internalType": "bytes",
          "name": "_storeId",
          "type": "bytes"
        },
        {
          "indexed": false,
          "internalType": "string",
          "name": "_name",
          "type": "string"
        }
      ],
      "name": "NewStoreFront",
      "type": "event"
    },
    {
      "anonymous": false,
      "inputs": [
        {
          "indexed": false,
          "internalType": "bytes",
          "name": "_referenceId",
          "type": "bytes"
        },
        {
          "indexed": false,
          "internalType": "uint256",
          "name": "_newSetPrice",
          "type": "uint256"
        }
      ],
      "name": "PriceChange",
      "type": "event"
    },
    {
      "anonymous": false,
      "inputs": [
        {
          "indexed": false,
          "internalType": "address",
          "name": "",
          "type": "address"
        },
        {
          "indexed": false,
          "internalType": "uint256",
          "name": "",
          "type": "uint256"
        }
      ],
      "name": "ReceivedEther",
      "type": "event"
    },
    {
      "anonymous": false,
      "inputs": [
        {
          "indexed": true,
          "internalType": "address",
          "name": "_msgsender",
          "type": "address"
        },
        {
          "indexed": false,
          "internalType": "bytes",
          "name": "_refId",
          "type": "bytes"
        }
      ],
      "name": "RemovedItem",
      "type": "event"
    },
    {
      "anonymous": false,
      "inputs": [
        {
          "indexed": true,
          "internalType": "address",
          "name": "_storeOwnerAddress",
          "type": "address"
        }
      ],
      "name": "UnregisteredStore",
      "type": "event"
    },
    {
      "anonymous": false,
      "inputs": [
        {
          "indexed": true,
          "internalType": "address",
          "name": "_from",
          "type": "address"
        },
        {
          "indexed": true,
          "internalType": "address",
          "name": "_to",
          "type": "address"
        },
        {
          "indexed": false,
          "internalType": "uint256",
          "name": "_amount",
          "type": "uint256"
        }
      ],
      "name": "Withdrawal",
      "type": "event"
    },
    {
      "inputs": [
        {
          "internalType": "address",
          "name": "",
          "type": "address"
        }
      ],
      "name": "adminApprovalToAdd",
      "outputs": [
        {
          "internalType": "bool",
          "name": "",
          "type": "bool"
        }
      ],
      "stateMutability": "view",
      "type": "function",
      "constant": true
    },
    {
      "inputs": [
        {
          "internalType": "uint256",
          "name": "",
          "type": "uint256"
        }
      ],
      "name": "adminList",
      "outputs": [
        {
          "internalType": "address",
          "name": "addr",
          "type": "address"
        },
        {
          "internalType": "bytes",
          "name": "id",
          "type": "bytes"
        }
      ],
      "stateMutability": "view",
      "type": "function",
      "constant": true
    },
    {
      "inputs": [
        {
          "internalType": "address",
          "name": "",
          "type": "address"
        }
      ],
      "name": "balance",
      "outputs": [
        {
          "internalType": "uint256",
          "name": "",
          "type": "uint256"
        }
      ],
      "stateMutability": "view",
      "type": "function",
      "constant": true
    },
    {
      "inputs": [
        {
          "internalType": "address",
          "name": "",
          "type": "address"
        },
        {
          "internalType": "bytes",
          "name": "",
          "type": "bytes"
        }
      ],
      "name": "ifStorefAvailable",
      "outputs": [
        {
          "internalType": "bool",
          "name": "",
          "type": "bool"
        }
      ],
      "stateMutability": "view",
      "type": "function",
      "constant": true
    },
    {
      "inputs": [
        {
          "internalType": "address",
          "name": "",
          "type": "address"
        }
      ],
      "name": "isAdmin",
      "outputs": [
        {
          "internalType": "bool",
          "name": "",
          "type": "bool"
        }
      ],
      "stateMutability": "view",
      "type": "function",
      "constant": true
    },
    {
      "inputs": [
        {
          "internalType": "address",
          "name": "",
          "type": "address"
        }
      ],
      "name": "isStoreOwnerApproved",
      "outputs": [
        {
          "internalType": "bool",
          "name": "",
          "type": "bool"
        }
      ],
      "stateMutability": "view",
      "type": "function",
      "constant": true
    },
    {
      "inputs": [
        {
          "internalType": "uint256",
          "name": "",
          "type": "uint256"
        }
      ],
      "name": "itemList",
      "outputs": [
        {
          "internalType": "string",
          "name": "name",
          "type": "string"
        },
        {
          "internalType": "uint256",
          "name": "price",
          "type": "uint256"
        },
        {
          "internalType": "uint256",
          "name": "quantity",
          "type": "uint256"
        },
        {
          "internalType": "address payable",
          "name": "sellerAddress",
          "type": "address"
        },
        {
          "internalType": "bytes",
          "name": "itemRef",
          "type": "bytes"
        },
        {
          "internalType": "enum GMart.ItemStatus",
          "name": "status",
          "type": "uint8"
        },
        {
          "internalType": "bytes",
          "name": "description",
          "type": "bytes"
        },
        {
          "internalType": "uint256",
          "name": "itemCountId",
          "type": "uint256"
        }
      ],
      "stateMutability": "view",
      "type": "function",
      "constant": true
    },
    {
      "inputs": [
        {
          "internalType": "address",
          "name": "",
          "type": "address"
        },
        {
          "internalType": "bytes",
          "name": "",
          "type": "bytes"
        }
      ],
      "name": "itemMap",
      "outputs": [
        {
          "internalType": "string",
          "name": "name",
          "type": "string"
        },
        {
          "internalType": "uint256",
          "name": "price",
          "type": "uint256"
        },
        {
          "internalType": "uint256",
          "name": "quantity",
          "type": "uint256"
        },
        {
          "internalType": "address payable",
          "name": "sellerAddress",
          "type": "address"
        },
        {
          "internalType": "bytes",
          "name": "itemRef",
          "type": "bytes"
        },
        {
          "internalType": "enum GMart.ItemStatus",
          "name": "status",
          "type": "uint8"
        },
        {
          "internalType": "bytes",
          "name": "description",
          "type": "bytes"
        },
        {
          "internalType": "uint256",
          "name": "itemCountId",
          "type": "uint256"
        }
      ],
      "stateMutability": "view",
      "type": "function",
      "constant": true
    },
    {
      "inputs": [
        {
          "internalType": "address",
          "name": "",
          "type": "address"
        },
        {
          "internalType": "bytes",
          "name": "",
          "type": "bytes"
        }
      ],
      "name": "ownerShip",
      "outputs": [
        {
          "internalType": "bool",
          "name": "",
          "type": "bool"
        }
      ],
      "stateMutability": "view",
      "type": "function",
      "constant": true
    },
    {
      "inputs": [
        {
          "internalType": "address",
          "name": "",
          "type": "address"
        }
      ],
      "name": "shoppers",
      "outputs": [
        {
          "internalType": "uint256",
          "name": "",
          "type": "uint256"
        }
      ],
      "stateMutability": "view",
      "type": "function",
      "constant": true
    },
    {
      "inputs": [
        {
          "internalType": "address",
          "name": "",
          "type": "address"
        }
      ],
      "name": "storeOwnerApprovalToAddItem",
      "outputs": [
        {
          "internalType": "bool",
          "name": "",
          "type": "bool"
        }
      ],
      "stateMutability": "view",
      "type": "function",
      "constant": true
    },
    {
      "inputs": [
        {
          "internalType": "uint256",
          "name": "",
          "type": "uint256"
        }
      ],
      "name": "storeOwnerslist",
      "outputs": [
        {
          "internalType": "address",
          "name": "addr",
          "type": "address"
        },
        {
          "internalType": "bytes",
          "name": "id",
          "type": "bytes"
        }
      ],
      "stateMutability": "view",
      "type": "function",
      "constant": true
    },
    {
      "inputs": [
        {
          "internalType": "address",
          "name": "",
          "type": "address"
        }
      ],
      "name": "storef",
      "outputs": [
        {
          "internalType": "bytes",
          "name": "",
          "type": "bytes"
        }
      ],
      "stateMutability": "view",
      "type": "function",
      "constant": true
    },
    {
      "stateMutability": "payable",
      "type": "receive",
      "payable": true
    },
    {
      "inputs": [
        {
          "internalType": "address",
          "name": "_addr",
          "type": "address"
        },
        {
          "internalType": "bool",
          "name": "_approval",
          "type": "bool"
        }
      ],
      "name": "addAdmin",
      "outputs": [
        {
          "internalType": "bool",
          "name": "",
          "type": "bool"
        }
      ],
      "stateMutability": "nonpayable",
      "type": "function"
    },
    {
      "inputs": [
        {
          "internalType": "address",
          "name": "_addr",
          "type": "address"
        }
      ],
      "name": "checkIsAdmin",
      "outputs": [
        {
          "internalType": "bool",
          "name": "",
          "type": "bool"
        },
        {
          "internalType": "bool",
          "name": "",
          "type": "bool"
        }
      ],
      "stateMutability": "view",
      "type": "function",
      "constant": true
    },
    {
      "inputs": [
        {
          "internalType": "address",
          "name": "_addr",
          "type": "address"
        }
      ],
      "name": "checkStoreOwnerApproved",
      "outputs": [
        {
          "internalType": "bool",
          "name": "",
          "type": "bool"
        },
        {
          "internalType": "bool",
          "name": "",
          "type": "bool"
        }
      ],
      "stateMutability": "view",
      "type": "function",
      "constant": true
    },
    {
      "inputs": [
        {
          "internalType": "address payable",
          "name": "_addr",
          "type": "address"
        },
        {
          "internalType": "bool",
          "name": "_approval",
          "type": "bool"
        }
      ],
      "name": "approve_StoreOwner",
      "outputs": [
        {
          "internalType": "bool",
          "name": "successful",
          "type": "bool"
        }
      ],
      "stateMutability": "nonpayable",
      "type": "function"
    },
    {
      "inputs": [
        {
          "internalType": "address",
          "name": "_addr",
          "type": "address"
        },
        {
          "internalType": "bool",
          "name": "_approval",
          "type": "bool"
        }
      ],
      "name": "changeAdminApproval",
      "outputs": [],
      "stateMutability": "nonpayable",
      "type": "function"
    },
    {
      "inputs": [
        {
          "internalType": "address",
          "name": "_addr",
          "type": "address"
        },
        {
          "internalType": "bool",
          "name": "_approval",
          "type": "bool"
        }
      ],
      "name": "changeStoreOwnerApproval",
      "outputs": [],
      "stateMutability": "nonpayable",
      "type": "function"
    },
    {
      "inputs": [
        {
          "internalType": "string",
          "name": "_storeName",
          "type": "string"
        },
        {
          "internalType": "string",
          "name": "_itemName",
          "type": "string"
        },
        {
          "internalType": "string",
          "name": "_description",
          "type": "string"
        },
        {
          "internalType": "uint256",
          "name": "_price",
          "type": "uint256"
        },
        {
          "internalType": "uint256",
          "name": "_quantity",
          "type": "uint256"
        }
      ],
      "name": "addStorefront",
      "outputs": [
        {
          "internalType": "bool",
          "name": "success",
          "type": "bool"
        }
      ],
      "stateMutability": "nonpayable",
      "type": "function"
    },
    {
      "inputs": [
        {
          "internalType": "bytes",
          "name": "_ref",
          "type": "bytes"
        }
      ],
      "name": "getStoreDetail",
      "outputs": [
        {
          "internalType": "string",
          "name": "",
          "type": "string"
        },
        {
          "internalType": "uint256",
          "name": "",
          "type": "uint256"
        },
        {
          "internalType": "address",
          "name": "",
          "type": "address"
        },
        {
          "internalType": "bytes",
          "name": "",
          "type": "bytes"
        },
        {
          "internalType": "bool",
          "name": "",
          "type": "bool"
        },
        {
          "internalType": "uint256",
          "name": "",
          "type": "uint256"
        }
      ],
      "stateMutability": "view",
      "type": "function",
      "constant": true
    },
    {
      "inputs": [
        {
          "internalType": "string",
          "name": "_itemName",
          "type": "string"
        },
        {
          "internalType": "string",
          "name": "_description",
          "type": "string"
        },
        {
          "internalType": "uint256",
          "name": "_price",
          "type": "uint256"
        },
        {
          "internalType": "bytes",
          "name": "_storeRef",
          "type": "bytes"
        },
        {
          "internalType": "uint256",
          "name": "_qnty",
          "type": "uint256"
        }
      ],
      "name": "addItemToStore",
      "outputs": [
        {
          "components": [
            {
              "internalType": "string",
              "name": "name",
              "type": "string"
            },
            {
              "internalType": "uint256",
              "name": "price",
              "type": "uint256"
            },
            {
              "internalType": "uint256",
              "name": "quantity",
              "type": "uint256"
            },
            {
              "internalType": "address payable",
              "name": "sellerAddress",
              "type": "address"
            },
            {
              "internalType": "bytes",
              "name": "itemRef",
              "type": "bytes"
            },
            {
              "internalType": "enum GMart.ItemStatus",
              "name": "status",
              "type": "uint8"
            },
            {
              "internalType": "bytes",
              "name": "description",
              "type": "bytes"
            },
            {
              "internalType": "uint256",
              "name": "itemCountId",
              "type": "uint256"
            }
          ],
          "internalType": "struct GMart.Item",
          "name": "_newItem",
          "type": "tuple"
        }
      ],
      "stateMutability": "nonpayable",
      "type": "function"
    },
    {
      "inputs": [
        {
          "internalType": "bytes",
          "name": "_itemRef",
          "type": "bytes"
        }
      ],
      "name": "removeAnItem",
      "outputs": [],
      "stateMutability": "nonpayable",
      "type": "function"
    },
    {
      "inputs": [
        {
          "internalType": "bytes",
          "name": "_ref",
          "type": "bytes"
        }
      ],
      "name": "removeAStore",
      "outputs": [],
      "stateMutability": "nonpayable",
      "type": "function"
    },
    {
      "inputs": [
        {
          "internalType": "uint256",
          "name": "_newPrice",
          "type": "uint256"
        },
        {
          "internalType": "bytes",
          "name": "_itemRef",
          "type": "bytes"
        }
      ],
      "name": "adjustPrice",
      "outputs": [],
      "stateMutability": "nonpayable",
      "type": "function"
    },
    {
      "inputs": [
        {
          "internalType": "bytes",
          "name": "_itemRef",
          "type": "bytes"
        },
        {
          "internalType": "uint256",
          "name": "_qnty",
          "type": "uint256"
        }
      ],
      "name": "buyItem",
      "outputs": [
        {
          "internalType": "bool",
          "name": "success",
          "type": "bool"
        }
      ],
      "stateMutability": "payable",
      "type": "function",
      "payable": true
    },
    {
      "inputs": [
        {
          "internalType": "address payable",
          "name": "_addr",
          "type": "address"
        },
        {
          "internalType": "uint256",
          "name": "_amount",
          "type": "uint256"
        }
      ],
      "name": "withdrawBalanceStoreOwner",
      "outputs": [
        {
          "internalType": "bool",
          "name": "success",
          "type": "bool"
        }
      ],
      "stateMutability": "payable",
      "type": "function",
      "payable": true
    },
    {
      "inputs": [
        {
          "internalType": "address",
          "name": "_addr",
          "type": "address"
        }
      ],
      "name": "deleteAdmin",
      "outputs": [
        {
          "internalType": "bool",
          "name": "success",
          "type": "bool"
        }
      ],
      "stateMutability": "nonpayable",
      "type": "function"
    },
    {
      "inputs": [
        {
          "internalType": "address",
          "name": "_addr",
          "type": "address"
        },
        {
          "internalType": "bytes",
          "name": "_ref",
          "type": "bytes"
        }
      ],
      "name": "unregisterStore",
      "outputs": [
        {
          "internalType": "bool",
          "name": "success",
          "type": "bool"
        }
      ],
      "stateMutability": "nonpayable",
      "type": "function"
    },
    {
      "inputs": [
        {
          "internalType": "uint256",
          "name": "_amount",
          "type": "uint256"
        }
      ],
      "name": "withdraw",
      "outputs": [],
      "stateMutability": "payable",
      "type": "function",
      "payable": true
    }
  ],
  "bytecode": "0x60806040526000600155600a600260006101000a81548160ff021916908360ff1602179055506000600260016101000a81548160ff021916908360ff1602179055506001808111156200004e57fe5b600460006101000a81548160ff021916908360018111156200006c57fe5b0217905550600060018111156200007f57fe5b600460016101000a81548160ff021916908360018111156200009d57fe5b0217905550348015620000af57600080fd5b50336000806101000a81548173ffffffffffffffffffffffffffffffffffffffff021916908373ffffffffffffffffffffffffffffffffffffffff1602179055506167e480620001006000396000f3fe6080604052600436106101d15760003560e01c80636df29101116100f7578063bacefbb511610095578063e9113f3411610064578063e9113f34146107cd578063f33204a9146107fd578063f94a52ba1461083a578063fba855d01461087757610211565b8063bacefbb5146106d8578063d953689d14610715578063db9ab0ce14610753578063e3d670d71461079057610211565b80639aadffe5116100d15780639aadffe5146105e3578063a07804fc14610620578063a4230bd51461065e578063aafa9b881461069b57610211565b80636df291011461054d5780636fd2e793146105765780638efca0dd146105a657610211565b80632e1a7d4d1161016f5780634eb43aa51161013e5780634eb43aa51461048e57806350152f84146104b75780635af7bb7d146104fb578063613a835e1461052457610211565b80632e1a7d4d146103b45780632f986735146103d05780633d4d36001461040d5780634c2e025b1461045157610211565b806322c86bc2116101ab57806322c86bc2146102d457806324d7806c146102fd578063256e49d31461033a57806327e1f7df1461037757610211565b80630a97c55a146102165780630fc970a61461025857806311117fc81461029657610211565b36610211577fa419615bc8fda4c87663805ee2a3597a6d71c1d476911d9892f340d965bc7bf13334604051610207929190615ef1565b60405180910390a1005b600080fd5b34801561022257600080fd5b5061023d6004803603610238919081019061531e565b6108b4565b60405161024f96959493929190616125565b60405180910390f35b34801561026457600080fd5b5061027f600480360361027a9190810190615531565b610cd6565b60405161028d929190615fa4565b60405180910390f35b3480156102a257600080fd5b506102bd60048036036102b89190810190615531565b610dbf565b6040516102cb929190615fa4565b60405180910390f35b3480156102e057600080fd5b506102fb60048036036102f6919081019061523a565b610ea8565b005b34801561030957600080fd5b50610324600480360361031f9190810190615199565b611025565b6040516103319190615ffd565b60405180910390f35b34801561034657600080fd5b50610361600480360361035c91908101906153b3565b611045565b60405161036e9190615ffd565b60405180910390f35b34801561038357600080fd5b5061039e60048036036103999190810190615199565b6116d7565b6040516103ab9190615ffd565b60405180910390f35b6103ce60048036036103c99190810190615531565b611859565b005b3480156103dc57600080fd5b506103f760048036036103f291908101906152ca565b611932565b6040516104049190615ffd565b60405180910390f35b34801561041957600080fd5b50610434600480360361042f9190810190615531565b611c4f565b604051610448989796959493929190616194565b60405180910390f35b34801561045d57600080fd5b5061047860048036036104739190810190615276565b611e99565b6040516104859190615ffd565b60405180910390f35b34801561049a57600080fd5b506104b560048036036104b0919081019061555a565b611ede565b005b3480156104c357600080fd5b506104de60048036036104d99190810190615276565b612447565b6040516104f2989796959493929190616194565b60405180910390f35b34801561050757600080fd5b50610522600480360361051d919081019061531e565b6126a7565b005b34801561053057600080fd5b5061054b6004803603610546919081019061523a565b612837565b005b34801561055957600080fd5b50610574600480360361056f919081019061531e565b612a4b565b005b610590600480360361058b91908101906151fe565b612d17565b60405161059d9190615ffd565b60405180910390f35b3480156105b257600080fd5b506105cd60048036036105c89190810190615199565b612fc3565b6040516105da9190615ffd565b60405180910390f35b3480156105ef57600080fd5b5061060a60048036036106059190810190615472565b612fe3565b60405161061791906164c7565b60405180910390f35b34801561062c57600080fd5b5061064760048036036106429190810190615199565b613837565b604051610655929190616018565b60405180910390f35b34801561066a57600080fd5b506106856004803603610680919081019061523a565b6138dd565b6040516106929190615ffd565b60405180910390f35b3480156106a757600080fd5b506106c260048036036106bd9190810190615276565b613da5565b6040516106cf9190615ffd565b60405180910390f35b3480156106e457600080fd5b506106ff60048036036106fa91908101906151c2565b613dea565b60405161070c9190615ffd565b60405180910390f35b34801561072157600080fd5b5061073c60048036036107379190810190615199565b6142ff565b60405161074a929190616018565b60405180910390f35b34801561075f57600080fd5b5061077a60048036036107759190810190615199565b6143a5565b6040516107879190615ffd565b60405180910390f35b34801561079c57600080fd5b506107b760048036036107b29190810190615199565b6143c5565b6040516107c491906164e9565b60405180910390f35b6107e760048036036107e2919081019061535f565b6143dd565b6040516107f49190615ffd565b60405180910390f35b34801561080957600080fd5b50610824600480360361081f9190810190615199565b614b11565b6040516108319190615ffd565b60405180910390f35b34801561084657600080fd5b50610861600480360361085c9190810190615199565b614b31565b60405161086e9190616073565b60405180910390f35b34801561088357600080fd5b5061089e60048036036108999190810190615199565b614be1565b6040516108ab91906164e9565b60405180910390f35b6060600080606060008060011515600c60003373ffffffffffffffffffffffffffffffffffffffff1673ffffffffffffffffffffffffffffffffffffffff16815260200190815260200160002060009054906101000a900460ff16151514610951576040517f08c379a000000000000000000000000000000000000000000000000000000000815260040161094890616427565b60405180910390fd5b60011515600e60003373ffffffffffffffffffffffffffffffffffffffff1673ffffffffffffffffffffffffffffffffffffffff16815260200190815260200160002060009054906101000a900460ff161515146109e4576040517f08c379a00000000000000000000000000000000000000000000000000000000081526004016109db90616407565b60405180910390fd5b60011515600f60003373ffffffffffffffffffffffffffffffffffffffff1673ffffffffffffffffffffffffffffffffffffffff16815260200190815260200160002088604051610a359190615eaa565b908152602001604051809103902060009054906101000a900460ff16151514610a93576040517f08c379a0000000000000000000000000000000000000000000000000000000008152600401610a8a906162e7565b60405180910390fd5b610a9b614bf9565b601288604051610aab9190615eaa565b90815260200160405180910390206040518060e00160405290816000820160009054906101000a900473ffffffffffffffffffffffffffffffffffffffff1673ffffffffffffffffffffffffffffffffffffffff1673ffffffffffffffffffffffffffffffffffffffff168152602001600182018054600181600116156101000203166002900480601f016020809104026020016040519081016040528092919081815260200182805460018160011615610100020316600290048015610bb35780601f10610b8857610100808354040283529160200191610bb3565b820191906000526020600020905b815481529060010190602001808311610b9657829003601f168201915b50505050508152602001600282018054600181600116156101000203166002900480601f016020809104026020016040519081016040528092919081815260200182805460018160011615610100020316600290048015610c555780601f10610c2a57610100808354040283529160200191610c55565b820191906000526020600020905b815481529060010190602001808311610c3857829003601f168201915b50505050508152602001600382015481526020016004820160009054906101000a900460ff16151515158152602001600582015481526020016006820154815250509050806020015181606001518260000151836040015184608001518560a001518595508393508292509650965096509650965096505091939550919395565b60068181548110610ce357fe5b90600052602060002090600202016000915090508060000160009054906101000a900473ffffffffffffffffffffffffffffffffffffffff1690806001018054600181600116156101000203166002900480601f016020809104026020016040519081016040528092919081815260200182805460018160011615610100020316600290048015610db55780601f10610d8a57610100808354040283529160200191610db5565b820191906000526020600020905b815481529060010190602001808311610d9857829003601f168201915b5050505050905082565b60058181548110610dcc57fe5b90600052602060002090600202016000915090508060000160009054906101000a900473ffffffffffffffffffffffffffffffffffffffff1690806001018054600181600116156101000203166002900480601f016020809104026020016040519081016040528092919081815260200182805460018160011615610100020316600290048015610e9e5780601f10610e7357610100808354040283529160200191610e9e565b820191906000526020600020905b815481529060010190602001808311610e8157829003601f168201915b5050505050905082565b6000809054906101000a900473ffffffffffffffffffffffffffffffffffffffff1673ffffffffffffffffffffffffffffffffffffffff163373ffffffffffffffffffffffffffffffffffffffff1614610f37576040517f08c379a0000000000000000000000000000000000000000000000000000000008152600401610f2e906162c7565b60405180910390fd5b60011515600960008473ffffffffffffffffffffffffffffffffffffffff1673ffffffffffffffffffffffffffffffffffffffff16815260200190815260200160002060009054906101000a900460ff16151514610fca576040517f08c379a0000000000000000000000000000000000000000000000000000000008152600401610fc190616307565b60405180910390fd5b80600b60008473ffffffffffffffffffffffffffffffffffffffff1673ffffffffffffffffffffffffffffffffffffffff16815260200190815260200160002060006101000a81548160ff0219169083151502179055505050565b60096020528060005260406000206000915054906101000a900460ff1681565b600060011515600c60003373ffffffffffffffffffffffffffffffffffffffff1673ffffffffffffffffffffffffffffffffffffffff16815260200190815260200160002060009054906101000a900460ff161515146110da576040517f08c379a00000000000000000000000000000000000000000000000000000000081526004016110d190616427565b60405180910390fd5b60011515600e60003373ffffffffffffffffffffffffffffffffffffffff1673ffffffffffffffffffffffffffffffffffffffff16815260200190815260200160002060009054906101000a900460ff1615151461116d576040517f08c379a000000000000000000000000000000000000000000000000000000000815260040161116490616407565b60405180910390fd5b611175614bf9565b61117d614c4e565b60603389604051602001611192929190615ec1565b604051602081830303815290604052905060001515600f60003373ffffffffffffffffffffffffffffffffffffffff1673ffffffffffffffffffffffffffffffffffffffff168152602001908152602001600020826040516111f49190615eaa565b908152602001604051809103902060009054906101000a900460ff16151514611252576040517f08c379a000000000000000000000000000000000000000000000000000000000815260040161124990616487565b60405180910390fd5b6003601160003373ffffffffffffffffffffffffffffffffffffffff1673ffffffffffffffffffffffffffffffffffffffff168152602001908152602001600020826040516112a19190615eaa565b908152602001604051809103902080549050106112f3576040517f08c379a00000000000000000000000000000000000000000000000000000000081526004016112ea906162a7565b60405180910390fd5b600f420383606001818152505088836020018190525033836000019073ffffffffffffffffffffffffffffffffffffffff16908173ffffffffffffffffffffffffffffffffffffffff1681525050808360400181905250600183608001901515908115158152505060008360c001511415611389576113758888888489612fe3565b915060018360a00181815101915081815250505b601160003373ffffffffffffffffffffffffffffffffffffffff1673ffffffffffffffffffffffffffffffffffffffff168152602001908152602001600020816040516113d69190615eaa565b908152602001604051809103902083908060018154018082558091505060019003906000526020600020906007020160009091909190915060008201518160000160006101000a81548173ffffffffffffffffffffffffffffffffffffffff021916908373ffffffffffffffffffffffffffffffffffffffff1602179055506020820151816001019080519060200190611471929190614cb4565b50604082015181600201908051906020019061148e929190614d34565b506060820151816003015560808201518160040160006101000a81548160ff02191690831515021790555060a0820151816005015560c0820151816006015550506001600f60003373ffffffffffffffffffffffffffffffffffffffff1673ffffffffffffffffffffffffffffffffffffffff1681526020019081526020016000208260405161151e9190615eaa565b908152602001604051809103902060006101000a81548160ff02191690831515021790555080601060003373ffffffffffffffffffffffffffffffffffffffff1673ffffffffffffffffffffffffffffffffffffffff1681526020019081526020016000209080519060200190611596929190614db4565b50826012826040516115a89190615eaa565b908152602001604051809103902060008201518160000160006101000a81548173ffffffffffffffffffffffffffffffffffffffff021916908373ffffffffffffffffffffffffffffffffffffffff1602179055506020820151816001019080519060200190611619929190614cb4565b506040820151816002019080519060200190611636929190614d34565b506060820151816003015560808201518160040160006101000a81548160ff02191690831515021790555060a0820151816005015560c082015181600601559050503373ffffffffffffffffffffffffffffffffffffffff167fdbdcd2e425f31dd11a419f878e87a4abe84525d72e62332de442619cbfbef737828a6040516116c09291906160b7565b60405180910390a283935050505095945050505050565b60008060009054906101000a900473ffffffffffffffffffffffffffffffffffffffff1673ffffffffffffffffffffffffffffffffffffffff163373ffffffffffffffffffffffffffffffffffffffff1614611768576040517f08c379a000000000000000000000000000000000000000000000000000000000815260040161175f906162c7565b60405180910390fd5b60011515600960008473ffffffffffffffffffffffffffffffffffffffff1673ffffffffffffffffffffffffffffffffffffffff16815260200190815260200160002060009054906101000a900460ff161515146117fb576040517f08c379a00000000000000000000000000000000000000000000000000000000081526004016117f290616367565b60405180910390fd5b6000600960008473ffffffffffffffffffffffffffffffffffffffff1673ffffffffffffffffffffffffffffffffffffffff16815260200190815260200160002060006101000a81548160ff02191690831515021790559050919050565b6000809054906101000a900473ffffffffffffffffffffffffffffffffffffffff1673ffffffffffffffffffffffffffffffffffffffff163373ffffffffffffffffffffffffffffffffffffffff16146118e8576040517f08c379a00000000000000000000000000000000000000000000000000000000081526004016118df906162c7565b60405180910390fd5b3373ffffffffffffffffffffffffffffffffffffffff166108fc829081150290604051600060405180830381858888f1935050505015801561192e573d6000803e3d6000fd5b5050565b600060011515600960003373ffffffffffffffffffffffffffffffffffffffff1673ffffffffffffffffffffffffffffffffffffffff16815260200190815260200160002060009054906101000a900460ff161515146119c7576040517f08c379a00000000000000000000000000000000000000000000000000000000081526004016119be90616267565b60405180910390fd5b60011515600b60003373ffffffffffffffffffffffffffffffffffffffff1673ffffffffffffffffffffffffffffffffffffffff16815260200190815260200160002060009054906101000a900460ff16151514611a5a576040517f08c379a0000000000000000000000000000000000000000000000000000000008152600401611a5190616347565b60405180910390fd5b60011515600c60008573ffffffffffffffffffffffffffffffffffffffff1673ffffffffffffffffffffffffffffffffffffffff16815260200190815260200160002060009054906101000a900460ff16151514611aed576040517f08c379a0000000000000000000000000000000000000000000000000000000008152600401611ae4906164a7565b60405180910390fd5b60011515600f60008573ffffffffffffffffffffffffffffffffffffffff1673ffffffffffffffffffffffffffffffffffffffff16815260200190815260200160002083604051611b3e9190615eaa565b908152602001604051809103902060009054906101000a900460ff16151514611b9c576040517f08c379a0000000000000000000000000000000000000000000000000000000008152600401611b9390616227565b60405180910390fd5b601160008473ffffffffffffffffffffffffffffffffffffffff1673ffffffffffffffffffffffffffffffffffffffff16815260200190815260200160002082604051611be99190615eaa565b90815260200160405180910390206000611c039190614e34565b8273ffffffffffffffffffffffffffffffffffffffff167f3089b6625b46b77707154ce3d4aee9d7753f3988bfc42768528cd45f7817b42f60405160405180910390a280905092915050565b60088181548110611c5c57fe5b9060005260206000209060080201600091509050806000018054600181600116156101000203166002900480601f016020809104026020016040519081016040528092919081815260200182805460018160011615610100020316600290048015611d085780601f10611cdd57610100808354040283529160200191611d08565b820191906000526020600020905b815481529060010190602001808311611ceb57829003601f168201915b5050505050908060010154908060020154908060030160009054906101000a900473ffffffffffffffffffffffffffffffffffffffff1690806004018054600181600116156101000203166002900480601f016020809104026020016040519081016040528092919081815260200182805460018160011615610100020316600290048015611dd85780601f10611dad57610100808354040283529160200191611dd8565b820191906000526020600020905b815481529060010190602001808311611dbb57829003601f168201915b5050505050908060050160009054906101000a900460ff1690806006018054600181600116156101000203166002900480601f016020809104026020016040519081016040528092919081815260200182805460018160011615610100020316600290048015611e895780601f10611e5e57610100808354040283529160200191611e89565b820191906000526020600020905b815481529060010190602001808311611e6c57829003601f168201915b5050505050908060070154905088565b6016602052816000526040600020818051602081018201805184825260208301602085012081835280955050505050506000915091509054906101000a900460ff1681565b60011515600c60003373ffffffffffffffffffffffffffffffffffffffff1673ffffffffffffffffffffffffffffffffffffffff16815260200190815260200160002060009054906101000a900460ff16151514611f71576040517f08c379a0000000000000000000000000000000000000000000000000000000008152600401611f6890616427565b60405180910390fd5b60011515600e60003373ffffffffffffffffffffffffffffffffffffffff1673ffffffffffffffffffffffffffffffffffffffff16815260200190815260200160002060009054906101000a900460ff16151514612004576040517f08c379a0000000000000000000000000000000000000000000000000000000008152600401611ffb90616407565b60405180910390fd5b81818080601f016020809104026020016040519081016040528093929190818152602001838380828437600081840152601f19601f820116905080830192505050505050506001151560188260405161205d9190615eaa565b908152602001604051809103902060009054906101000a900460ff161515146120bb576040517f08c379a00000000000000000000000000000000000000000000000000000000081526004016120b290616467565b60405180910390fd5b600084116120fe576040517f08c379a00000000000000000000000000000000000000000000000000000000081526004016120f5906163c7565b60405180910390fd5b612106614c4e565b601360003373ffffffffffffffffffffffffffffffffffffffff1673ffffffffffffffffffffffffffffffffffffffff1681526020019081526020016000208484604051612155929190615e91565b908152602001604051809103902060405180610100016040529081600082018054600181600116156101000203166002900480601f0160208091040260200160405190810160405280929190818152602001828054600181600116156101000203166002900480156122085780601f106121dd57610100808354040283529160200191612208565b820191906000526020600020905b8154815290600101906020018083116121eb57829003601f168201915b5050505050815260200160018201548152602001600282015481526020016003820160009054906101000a900473ffffffffffffffffffffffffffffffffffffffff1673ffffffffffffffffffffffffffffffffffffffff1673ffffffffffffffffffffffffffffffffffffffff168152602001600482018054600181600116156101000203166002900480601f0160208091040260200160405190810160405280929190818152602001828054600181600116156101000203166002900480156123145780601f106122e957610100808354040283529160200191612314565b820191906000526020600020905b8154815290600101906020018083116122f757829003601f168201915b505050505081526020016005820160009054906101000a900460ff16600181111561233b57fe5b600181111561234657fe5b8152602001600682018054600181600116156101000203166002900480601f0160208091040260200160405190810160405280929190818152602001828054600181600116156101000203166002900480156123e35780601f106123b8576101008083540402835291602001916123e3565b820191906000526020600020905b8154815290600101906020018083116123c657829003601f168201915b5050505050815260200160078201548152505090506000816020015190508590507fa0d44e7fee8a0afacdbd4319568a1b9258299bb07235afe832c670200dc4391485858860405161243793929190616041565b60405180910390a1505050505050565b60136020528160005260406000208180516020810182018051848252602083016020850120818352809550505050505060009150915050806000018054600181600116156101000203166002900480601f0160208091040260200160405190810160405280929190818152602001828054600181600116156101000203166002900480156125165780601f106124eb57610100808354040283529160200191612516565b820191906000526020600020905b8154815290600101906020018083116124f957829003601f168201915b5050505050908060010154908060020154908060030160009054906101000a900473ffffffffffffffffffffffffffffffffffffffff1690806004018054600181600116156101000203166002900480601f0160208091040260200160405190810160405280929190818152602001828054600181600116156101000203166002900480156125e65780601f106125bb576101008083540402835291602001916125e6565b820191906000526020600020905b8154815290600101906020018083116125c957829003601f168201915b5050505050908060050160009054906101000a900460ff1690806006018054600181600116156101000203166002900480601f0160208091040260200160405190810160405280929190818152602001828054600181600116156101000203166002900480156126975780601f1061266c57610100808354040283529160200191612697565b820191906000526020600020905b81548152906001019060200180831161267a57829003601f168201915b5050505050908060070154905088565b60011515600c60003373ffffffffffffffffffffffffffffffffffffffff1673ffffffffffffffffffffffffffffffffffffffff16815260200190815260200160002060009054906101000a900460ff1615151461273a576040517f08c379a000000000000000000000000000000000000000000000000000000000815260040161273190616427565b60405180910390fd5b60011515600e60003373ffffffffffffffffffffffffffffffffffffffff1673ffffffffffffffffffffffffffffffffffffffff16815260200190815260200160002060009054906101000a900460ff161515146127cd576040517f08c379a00000000000000000000000000000000000000000000000000000000081526004016127c490616407565b60405180910390fd5b601160003373ffffffffffffffffffffffffffffffffffffffff1673ffffffffffffffffffffffffffffffffffffffff1681526020019081526020016000208160405161281a9190615eaa565b908152602001604051809103902060006128349190614e34565b50565b60011515600960003373ffffffffffffffffffffffffffffffffffffffff1673ffffffffffffffffffffffffffffffffffffffff16815260200190815260200160002060009054906101000a900460ff161515146128ca576040517f08c379a00000000000000000000000000000000000000000000000000000000081526004016128c190616267565b60405180910390fd5b60011515600b60003373ffffffffffffffffffffffffffffffffffffffff1673ffffffffffffffffffffffffffffffffffffffff16815260200190815260200160002060009054906101000a900460ff1615151461295d576040517f08c379a000000000000000000000000000000000000000000000000000000000815260040161295490616347565b60405180910390fd5b60011515600c60008473ffffffffffffffffffffffffffffffffffffffff1673ffffffffffffffffffffffffffffffffffffffff16815260200190815260200160002060009054906101000a900460ff161515146129f0576040517f08c379a00000000000000000000000000000000000000000000000000000000081526004016129e790616307565b60405180910390fd5b80600e60008473ffffffffffffffffffffffffffffffffffffffff1673ffffffffffffffffffffffffffffffffffffffff16815260200190815260200160002060006101000a81548160ff0219169083151502179055505050565b60011515600c60003373ffffffffffffffffffffffffffffffffffffffff1673ffffffffffffffffffffffffffffffffffffffff16815260200190815260200160002060009054906101000a900460ff16151514612ade576040517f08c379a0000000000000000000000000000000000000000000000000000000008152600401612ad590616427565b60405180910390fd5b60011515600e60003373ffffffffffffffffffffffffffffffffffffffff1673ffffffffffffffffffffffffffffffffffffffff16815260200190815260200160002060009054906101000a900460ff16151514612b71576040517f08c379a0000000000000000000000000000000000000000000000000000000008152600401612b6890616407565b60405180910390fd5b8060011515601882604051612b869190615eaa565b908152602001604051809103902060009054906101000a900460ff16151514612be4576040517f08c379a0000000000000000000000000000000000000000000000000000000008152600401612bdb90616467565b60405180910390fd5b601360003373ffffffffffffffffffffffffffffffffffffffff1673ffffffffffffffffffffffffffffffffffffffff16815260200190815260200160002082604051612c319190615eaa565b908152602001604051809103902060008082016000612c509190614e58565b600182016000905560028201600090556003820160006101000a81549073ffffffffffffffffffffffffffffffffffffffff0219169055600482016000612c979190614ea0565b6005820160006101000a81549060ff0219169055600682016000612cbb9190614ea0565b600782016000905550503373ffffffffffffffffffffffffffffffffffffffff167f558e4ae33dfca7324493271fabf356b0364808ca1cea5ef153f072321860dbfd83604051612d0b9190616095565b60405180910390a25050565b600060011515600c60003373ffffffffffffffffffffffffffffffffffffffff1673ffffffffffffffffffffffffffffffffffffffff16815260200190815260200160002060009054906101000a900460ff16151514612dac576040517f08c379a0000000000000000000000000000000000000000000000000000000008152600401612da390616427565b60405180910390fd5b60011515600e60003373ffffffffffffffffffffffffffffffffffffffff1673ffffffffffffffffffffffffffffffffffffffff16815260200190815260200160002060009054906101000a900460ff16151514612e3f576040517f08c379a0000000000000000000000000000000000000000000000000000000008152600401612e3690616407565b60405180910390fd5b81601960003373ffffffffffffffffffffffffffffffffffffffff1673ffffffffffffffffffffffffffffffffffffffff168152602001908152602001600020541015612ec1576040517f08c379a0000000000000000000000000000000000000000000000000000000008152600401612eb890616327565b60405180910390fd5b81601960003373ffffffffffffffffffffffffffffffffffffffff1673ffffffffffffffffffffffffffffffffffffffff168152602001908152602001600020600082825403925050819055508273ffffffffffffffffffffffffffffffffffffffff166108fc839081150290604051600060405180830381858888f19350505050158015612f54573d6000803e3d6000fd5b508273ffffffffffffffffffffffffffffffffffffffff163373ffffffffffffffffffffffffffffffffffffffff167f2717ead6b9200dd235aad468c9809ea400fe33ac69b5bfaa6d3e90fc922b639884604051612fb291906164e9565b60405180910390a380905092915050565b600b6020528060005260406000206000915054906101000a900460ff1681565b612feb614c4e565b60011515600c60003373ffffffffffffffffffffffffffffffffffffffff1673ffffffffffffffffffffffffffffffffffffffff16815260200190815260200160002060009054906101000a900460ff1615151461307e576040517f08c379a000000000000000000000000000000000000000000000000000000000815260040161307590616427565b60405180910390fd5b60011515600e60003373ffffffffffffffffffffffffffffffffffffffff1673ffffffffffffffffffffffffffffffffffffffff16815260200190815260200160002060009054906101000a900460ff16151514613111576040517f08c379a000000000000000000000000000000000000000000000000000000000815260040161310890616407565b60405180910390fd5b60008411613154576040517f08c379a000000000000000000000000000000000000000000000000000000000815260040161314b90616447565b60405180910390fd5b858160000181905250838160200181815250508181604001818152505060018160e00181815101915081815250506060338260e001518887896040516020016131a1959493929190615f1a565b604051602081830303815290604052905033826060019073ffffffffffffffffffffffffffffffffffffffff16908173ffffffffffffffffffffffffffffffffffffffff168152505080826080018190525081601460003373ffffffffffffffffffffffffffffffffffffffff1673ffffffffffffffffffffffffffffffffffffffff16815260200190815260200160002060008460e0015181526020019081526020016000206000820151816000019080519060200190613264929190614cb4565b50602082015181600101556040820151816002015560608201518160030160006101000a81548173ffffffffffffffffffffffffffffffffffffffff021916908373ffffffffffffffffffffffffffffffffffffffff16021790555060808201518160040190805190602001906132dc929190614d34565b5060a08201518160050160006101000a81548160ff0219169083600181111561330157fe5b021790555060c0820151816006019080519060200190613322929190614d34565b5060e082015181600701559050506001601660003373ffffffffffffffffffffffffffffffffffffffff1673ffffffffffffffffffffffffffffffffffffffff1681526020019081526020016000208260405161337f9190615eaa565b908152602001604051809103902060006101000a81548160ff021916908315150217905550600460009054906101000a900460ff168260a0019060018111156133c457fe5b908160018111156133d157fe5b815250506008829080600181540180825580915050600190039060005260206000209060080201600090919091909150600082015181600001908051906020019061341d929190614cb4565b50602082015181600101556040820151816002015560608201518160030160006101000a81548173ffffffffffffffffffffffffffffffffffffffff021916908373ffffffffffffffffffffffffffffffffffffffff1602179055506080820151816004019080519060200190613495929190614d34565b5060a08201518160050160006101000a81548160ff021916908360018111156134ba57fe5b021790555060c08201518160060190805190602001906134db929190614d34565b5060e08201518160070155505081601360003373ffffffffffffffffffffffffffffffffffffffff1673ffffffffffffffffffffffffffffffffffffffff168152602001908152602001600020826040516135369190615eaa565b90815260200160405180910390206000820151816000019080519060200190613560929190614cb4565b50602082015181600101556040820151816002015560608201518160030160006101000a81548173ffffffffffffffffffffffffffffffffffffffff021916908373ffffffffffffffffffffffffffffffffffffffff16021790555060808201518160040190805190602001906135d8929190614d34565b5060a08201518160050160006101000a81548160ff021916908360018111156135fd57fe5b021790555060c082015181600601908051906020019061361e929190614d34565b5060e082015181600701559050508160158260405161363d9190615eaa565b90815260200160405180910390206000820151816000019080519060200190613667929190614cb4565b50602082015181600101556040820151816002015560608201518160030160006101000a81548173ffffffffffffffffffffffffffffffffffffffff021916908373ffffffffffffffffffffffffffffffffffffffff16021790555060808201518160040190805190602001906136df929190614d34565b5060a08201518160050160006101000a81548160ff0219169083600181111561370457fe5b021790555060c0820151816006019080519060200190613725929190614d34565b5060e0820151816007015590505080601760003373ffffffffffffffffffffffffffffffffffffffff1673ffffffffffffffffffffffffffffffffffffffff168152602001908152602001600020856040516137819190615eaa565b908152602001604051809103902090805190602001906137a2929190614db4565b5060016018826040516137b59190615eaa565b908152602001604051809103902060006101000a81548160ff0219169083151502179055503373ffffffffffffffffffffffffffffffffffffffff167f772cc3a8e77f72eb5acf7b3a43da99bf21604939d49108bdd445da7c9c137a2188836040516138229291906160ee565b60405180910390a28191505095945050505050565b600080600c60008473ffffffffffffffffffffffffffffffffffffffff1673ffffffffffffffffffffffffffffffffffffffff16815260200190815260200160002060009054906101000a900460ff16600e60008573ffffffffffffffffffffffffffffffffffffffff1673ffffffffffffffffffffffffffffffffffffffff16815260200190815260200160002060009054906101000a900460ff1691509150915091565b60008060009054906101000a900473ffffffffffffffffffffffffffffffffffffffff1673ffffffffffffffffffffffffffffffffffffffff163373ffffffffffffffffffffffffffffffffffffffff161461396e576040517f08c379a0000000000000000000000000000000000000000000000000000000008152600401613965906162c7565b60405180910390fd5b600360058054905011156139b7576040517f08c379a00000000000000000000000000000000000000000000000000000000081526004016139ae90616387565b60405180910390fd5b600073ffffffffffffffffffffffffffffffffffffffff168373ffffffffffffffffffffffffffffffffffffffff161415613a27576040517f08c379a0000000000000000000000000000000000000000000000000000000008152600401613a1e90616287565b60405180910390fd5b613a2f614ee8565b600a60008573ffffffffffffffffffffffffffffffffffffffff1673ffffffffffffffffffffffffffffffffffffffff1681526020019081526020016000206040518060400160405290816000820160009054906101000a900473ffffffffffffffffffffffffffffffffffffffff1673ffffffffffffffffffffffffffffffffffffffff1673ffffffffffffffffffffffffffffffffffffffff168152602001600182018054600181600116156101000203166002900480601f016020809104026020016040519081016040528092919081815260200182805460018160011615610100020316600290048015613b685780601f10613b3d57610100808354040283529160200191613b68565b820191906000526020600020905b815481529060010190602001808311613b4b57829003601f168201915b505050505081525050905060006001600260008282829054906101000a900460ff160192506101000a81548160ff021916908360ff1602179055905084826000019073ffffffffffffffffffffffffffffffffffffffff16908173ffffffffffffffffffffffffffffffffffffffff16815250508481604051602001613bef929190615fd4565b6040516020818303038152906040528260200181905250600582908060018154018082558091505060019003906000526020600020906002020160009091909190915060008201518160000160006101000a81548173ffffffffffffffffffffffffffffffffffffffff021916908373ffffffffffffffffffffffffffffffffffffffff1602179055506020820151816001019080519060200190613c95929190614d34565b50505083600b60008773ffffffffffffffffffffffffffffffffffffffff1673ffffffffffffffffffffffffffffffffffffffff16815260200190815260200160002060006101000a81548160ff0219169083151502179055506001600960008773ffffffffffffffffffffffffffffffffffffffff1673ffffffffffffffffffffffffffffffffffffffff16815260200190815260200160002060006101000a81548160ff0219169083151502179055508473ffffffffffffffffffffffffffffffffffffffff167f19f7fd2c1ea6478d08d010308d023c5e758cd5e618c2712e063c28d05f344fee8360200151604051613d919190616073565b60405180910390a260019250505092915050565b600f602052816000526040600020818051602081018201805184825260208301602085012081835280955050505050506000915091509054906101000a900460ff1681565b600060011515600960003373ffffffffffffffffffffffffffffffffffffffff1673ffffffffffffffffffffffffffffffffffffffff16815260200190815260200160002060009054906101000a900460ff16151514613e7f576040517f08c379a0000000000000000000000000000000000000000000000000000000008152600401613e7690616267565b60405180910390fd5b60011515600b60003373ffffffffffffffffffffffffffffffffffffffff1673ffffffffffffffffffffffffffffffffffffffff16815260200190815260200160002060009054906101000a900460ff16151514613f12576040517f08c379a0000000000000000000000000000000000000000000000000000000008152600401613f0990616347565b60405180910390fd5b600073ffffffffffffffffffffffffffffffffffffffff168373ffffffffffffffffffffffffffffffffffffffff161415613f82576040517f08c379a0000000000000000000000000000000000000000000000000000000008152600401613f7990616287565b60405180910390fd5b613f8a614f18565b600d60008573ffffffffffffffffffffffffffffffffffffffff1673ffffffffffffffffffffffffffffffffffffffff1681526020019081526020016000206040518060400160405290816000820160009054906101000a900473ffffffffffffffffffffffffffffffffffffffff1673ffffffffffffffffffffffffffffffffffffffff1673ffffffffffffffffffffffffffffffffffffffff168152602001600182018054600181600116156101000203166002900480601f0160208091040260200160405190810160405280929190818152602001828054600181600116156101000203166002900480156140c35780601f10614098576101008083540402835291602001916140c3565b820191906000526020600020905b8154815290600101906020018083116140a657829003601f168201915b505050505081525050905060006001600260018282829054906101000a900460ff160192506101000a81548160ff021916908360ff1602179055905084826000019073ffffffffffffffffffffffffffffffffffffffff16908173ffffffffffffffffffffffffffffffffffffffff1681525050848160405160200161414a929190615f7b565b6040516020818303038152906040528260200181905250600682908060018154018082558091505060019003906000526020600020906002020160009091909190915060008201518160000160006101000a81548173ffffffffffffffffffffffffffffffffffffffff021916908373ffffffffffffffffffffffffffffffffffffffff16021790555060208201518160010190805190602001906141f0929190614d34565b50505083600e60008773ffffffffffffffffffffffffffffffffffffffff1673ffffffffffffffffffffffffffffffffffffffff16815260200190815260200160002060006101000a81548160ff0219169083151502179055506001600c60008773ffffffffffffffffffffffffffffffffffffffff1673ffffffffffffffffffffffffffffffffffffffff16815260200190815260200160002060006101000a81548160ff0219169083151502179055508473ffffffffffffffffffffffffffffffffffffffff167f080aee23a4b60a0a99506ef4ac0b025d3784de82d87f414749e3e4faa028297083602001516040516142ec9190616073565b60405180910390a2829250505092915050565b600080600960008473ffffffffffffffffffffffffffffffffffffffff1673ffffffffffffffffffffffffffffffffffffffff16815260200190815260200160002060009054906101000a900460ff16600b60008573ffffffffffffffffffffffffffffffffffffffff1673ffffffffffffffffffffffffffffffffffffffff16815260200190815260200160002060009054906101000a900460ff1691509150915091565b600e6020528060005260406000206000915054906101000a900460ff1681565b60196020528060005260406000206000915090505481565b600082600115156018826040516143f49190615eaa565b908152602001604051809103902060009054906101000a900460ff16151514614452576040517f08c379a000000000000000000000000000000000000000000000000000000000815260040161444990616467565b60405180910390fd5b61445a614c4e565b60158560405161446a9190615eaa565b908152602001604051809103902060405180610100016040529081600082018054600181600116156101000203166002900480601f01602080910402602001604051908101604052809291908181526020018280546001816001161561010002031660029004801561451d5780601f106144f25761010080835404028352916020019161451d565b820191906000526020600020905b81548152906001019060200180831161450057829003601f168201915b5050505050815260200160018201548152602001600282015481526020016003820160009054906101000a900473ffffffffffffffffffffffffffffffffffffffff1673ffffffffffffffffffffffffffffffffffffffff1673ffffffffffffffffffffffffffffffffffffffff168152602001600482018054600181600116156101000203166002900480601f0160208091040260200160405190810160405280929190818152602001828054600181600116156101000203166002900480156146295780601f106145fe57610100808354040283529160200191614629565b820191906000526020600020905b81548152906001019060200180831161460c57829003601f168201915b505050505081526020016005820160009054906101000a900460ff16600181111561465057fe5b600181111561465b57fe5b8152602001600682018054600181600116156101000203166002900480601f0160208091040260200160405190810160405280929190818152602001828054600181600116156101000203166002900480156146f85780601f106146cd576101008083540402835291602001916146f8565b820191906000526020600020905b8154815290600101906020018083116146db57829003601f168201915b50505050508152602001600782015481525050905060008160200151905060008260600151905060008611614762576040517f08c379a0000000000000000000000000000000000000000000000000000000008152600401614759906163a7565b60405180910390fd5b81601960003373ffffffffffffffffffffffffffffffffffffffff1673ffffffffffffffffffffffffffffffffffffffff1681526020019081526020016000205410156147e4576040517f08c379a00000000000000000000000000000000000000000000000000000000081526004016147db90616327565b60405180910390fd5b600460009054906101000a900460ff1660018111156147ff57fe5b8360a00151600181111561480f57fe5b1461484f576040517f08c379a000000000000000000000000000000000000000000000000000000000815260040161484690616247565b60405180910390fd5b8260400151861115614896576040517f08c379a000000000000000000000000000000000000000000000000000000000815260040161488d906163e7565b60405180910390fd5b60008614156148a457600080fd5b60008287029050828782816148b557fe5b04146148c057600080fd5b80601960003373ffffffffffffffffffffffffffffffffffffffff1673ffffffffffffffffffffffffffffffffffffffff1681526020019081526020016000206000828254039250508190555080601960008473ffffffffffffffffffffffffffffffffffffffff1673ffffffffffffffffffffffffffffffffffffffff168152602001908152602001600020600082825401925050819055506000601660008473ffffffffffffffffffffffffffffffffffffffff1673ffffffffffffffffffffffffffffffffffffffff168152602001908152602001600020896040516149a99190615eaa565b908152602001604051809103902060006101000a81548160ff0219169083151502179055506001601660003373ffffffffffffffffffffffffffffffffffffffff1673ffffffffffffffffffffffffffffffffffffffff16815260200190815260200160002089604051614a1d9190615eaa565b908152602001604051809103902060006101000a81548160ff02191690831515021790555060008460400151905087810390506000811415614a9d57614a61614c4e565b9450600460019054906101000a900460ff166001811115614a7e57fe5b8560a001516001811115614a8e57fe5b50508696505050505050614b0a565b6000811115614ab157808560400181815250505b60016003600082825401925050819055601a60003373ffffffffffffffffffffffffffffffffffffffff1673ffffffffffffffffffffffffffffffffffffffff1681526020019081526020016000208190555050505050505b5092915050565b600c6020528060005260406000206000915054906101000a900460ff1681565b60106020528060005260406000206000915090508054600181600116156101000203166002900480601f016020809104026020016040519081016040528092919081815260200182805460018160011615610100020316600290048015614bd95780601f10614bae57610100808354040283529160200191614bd9565b820191906000526020600020905b815481529060010190602001808311614bbc57829003601f168201915b505050505081565b601a6020528060005260406000206000915090505481565b6040518060e00160405280600073ffffffffffffffffffffffffffffffffffffffff16815260200160608152602001606081526020016000815260200160001515815260200160008152602001600081525090565b604051806101000160405280606081526020016000815260200160008152602001600073ffffffffffffffffffffffffffffffffffffffff1681526020016060815260200160006001811115614ca057fe5b815260200160608152602001600081525090565b828054600181600116156101000203166002900490600052602060002090601f016020900481019282601f10614cf557805160ff1916838001178555614d23565b82800160010185558215614d23579182015b82811115614d22578251825591602001919060010190614d07565b5b509050614d309190614f48565b5090565b828054600181600116156101000203166002900490600052602060002090601f016020900481019282601f10614d7557805160ff1916838001178555614da3565b82800160010185558215614da3579182015b82811115614da2578251825591602001919060010190614d87565b5b509050614db09190614f48565b5090565b828054600181600116156101000203166002900490600052602060002090601f016020900481019282601f10614df557805160ff1916838001178555614e23565b82800160010185558215614e23579182015b82811115614e22578251825591602001919060010190614e07565b5b509050614e309190614f48565b5090565b5080546000825560070290600052602060002090810190614e559190614f6d565b50565b50805460018160011615610100020316600290046000825580601f10614e7e5750614e9d565b601f016020900490600052602060002090810190614e9c9190614f48565b5b50565b50805460018160011615610100020316600290046000825580601f10614ec65750614ee5565b601f016020900490600052602060002090810190614ee49190614f48565b5b50565b6040518060400160405280600073ffffffffffffffffffffffffffffffffffffffff168152602001606081525090565b6040518060400160405280600073ffffffffffffffffffffffffffffffffffffffff168152602001606081525090565b614f6a91905b80821115614f66576000816000905550600101614f4e565b5090565b90565b614ffc91905b80821115614ff857600080820160006101000a81549073ffffffffffffffffffffffffffffffffffffffff0219169055600182016000614fb39190614e58565b600282016000614fc39190614ea0565b60038201600090556004820160006101000a81549060ff02191690556005820160009055600682016000905550600701614f73565b5090565b90565b60008135905061500e81616752565b92915050565b60008135905061502381616769565b92915050565b60008135905061503881616780565b92915050565b60008083601f84011261505057600080fd5b8235905067ffffffffffffffff81111561506957600080fd5b60208301915083600182028301111561508157600080fd5b9250929050565b600082601f83011261509957600080fd5b81356150ac6150a782616531565b616504565b915080825260208301602083018583830111156150c857600080fd5b6150d38382846166f2565b50505092915050565b600082601f8301126150ed57600080fd5b81356151006150fb8261655d565b616504565b9150808252602083016020830185838301111561511c57600080fd5b6151278382846166f2565b50505092915050565b600082601f83011261514157600080fd5b813561515461514f82616589565b616504565b9150808252602083016020830185838301111561517057600080fd5b61517b8382846166f2565b50505092915050565b60008135905061519381616797565b92915050565b6000602082840312156151ab57600080fd5b60006151b984828501614fff565b91505092915050565b600080604083850312156151d557600080fd5b60006151e385828601615014565b92505060206151f485828601615029565b9150509250929050565b6000806040838503121561521157600080fd5b600061521f85828601615014565b925050602061523085828601615184565b9150509250929050565b6000806040838503121561524d57600080fd5b600061525b85828601614fff565b925050602061526c85828601615029565b9150509250929050565b6000806040838503121561528957600080fd5b600061529785828601614fff565b925050602083013567ffffffffffffffff8111156152b457600080fd5b6152c085828601615088565b9150509250929050565b600080604083850312156152dd57600080fd5b60006152eb85828601614fff565b925050602083013567ffffffffffffffff81111561530857600080fd5b615314858286016150dc565b9150509250929050565b60006020828403121561533057600080fd5b600082013567ffffffffffffffff81111561534a57600080fd5b615356848285016150dc565b91505092915050565b6000806040838503121561537257600080fd5b600083013567ffffffffffffffff81111561538c57600080fd5b615398858286016150dc565b92505060206153a985828601615184565b9150509250929050565b600080600080600060a086880312156153cb57600080fd5b600086013567ffffffffffffffff8111156153e557600080fd5b6153f188828901615130565b955050602086013567ffffffffffffffff81111561540e57600080fd5b61541a88828901615130565b945050604086013567ffffffffffffffff81111561543757600080fd5b61544388828901615130565b935050606061545488828901615184565b925050608061546588828901615184565b9150509295509295909350565b600080600080600060a0868803121561548a57600080fd5b600086013567ffffffffffffffff8111156154a457600080fd5b6154b088828901615130565b955050602086013567ffffffffffffffff8111156154cd57600080fd5b6154d988828901615130565b94505060406154ea88828901615184565b935050606086013567ffffffffffffffff81111561550757600080fd5b615513888289016150dc565b925050608061552488828901615184565b9150509295509295909350565b60006020828403121561554357600080fd5b600061555184828501615184565b91505092915050565b60008060006040848603121561556f57600080fd5b600061557d86828701615184565b935050602084013567ffffffffffffffff81111561559a57600080fd5b6155a68682870161503e565b92509250509250925092565b6155bb816166aa565b82525050565b6155ca81616642565b82525050565b6155d981616642565b82525050565b6155e881616630565b82525050565b6155f781616654565b82525050565b600061560983856165f2565b93506156168385846166f2565b61561f83616734565b840190509392505050565b60006156368385616603565b93506156438385846166f2565b82840190509392505050565b600061565a826165c0565b61566481856165f2565b9350615674818560208601616701565b61567d81616734565b840191505092915050565b6000615693826165c0565b61569d8185616603565b93506156ad818560208601616701565b80840191505092915050565b60006156c4826165b5565b6156ce81856165e1565b93506156de818560208601616701565b6156e781616734565b840191505092915050565b60006156fd826165b5565b61570781856165f2565b9350615717818560208601616701565b61572081616734565b840191505092915050565b615734816166bc565b82525050565b615743816166bc565b82525050565b6000615754826165d6565b61575e818561661f565b935061576e818560208601616701565b61577781616734565b840191505092915050565b600061578d826165cb565b615797818561660e565b93506157a7818560208601616701565b6157b081616734565b840191505092915050565b60006157c6826165cb565b6157d0818561661f565b93506157e0818560208601616701565b6157e981616734565b840191505092915050565b600061580160158361661f565b91507f43616e6f6f742066696e6420616e79206d6174636800000000000000000000006000830152602082019050919050565b600061584160108361661f565b91507f4974656d20556e617661696c61626c65000000000000000000000000000000006000830152602082019050919050565b600061588160168361661f565b91507f4e6f7420417574686f72697a65642061646472657373000000000000000000006000830152602082019050919050565b60006158c1600f8361661f565b91507f496e76616c6964206164647265737300000000000000000000000000000000006000830152602082019050919050565b600061590160268361661f565b91507f416464726573732063616e206f6e6c79206372656174652074776f2073746f7260008301527f6566726f6e7400000000000000000000000000000000000000000000000000006020830152604082019050919050565b6000615967601c8361661f565b91507f52657175657374206661696c65643b204e6f7420616e206f776e6572000000006000830152602082019050919050565b60006159a760148361661f565b91507f53746f726520646f6573206e6f742065786973740000000000000000000000006000830152602082019050919050565b60006159e760118361661f565b91507f4e6f7420616c72656164792061646465640000000000000000000000000000006000830152602082019050919050565b6000615a2760158361661f565b91507f496e7375666669636569656e742062616c616e636500000000000000000000006000830152602082019050919050565b6000615a67600e8361661f565b91507f4e6f7420417574686f72697a65640000000000000000000000000000000000006000830152602082019050919050565b6000615aa7600c8361661f565b91507f4e6f7420616e2061646d696e00000000000000000000000000000000000000006000830152602082019050919050565b6000615ae760168361661f565b91507f4d61782061646d696e206c6973742072656163686564000000000000000000006000830152602082019050919050565b6000615b2760108361661f565b91507f496e76616c6964207175616e74697479000000000000000000000000000000006000830152602082019050919050565b6000615b6760148361661f565b91507f50726963652063616e6e6f74206265207a65726f0000000000000000000000006000830152602082019050919050565b6000615ba760258361661f565b91507f43616e6e6f74206578636565642073656c6c657227732070726573657420616d60008301527f6f756e742e0000000000000000000000000000000000000000000000000000006020830152604082019050919050565b6000615c0d60218361661f565b91507f556e617574686f72697a656420746f20616464204974656d20746f2073746f7260008301527f65000000000000000000000000000000000000000000000000000000000000006020830152604082019050919050565b6000615c7360168361661f565b91507f41646472657373206e6f7420617574686f72697a6564000000000000000000006000830152602082019050919050565b6000615cb360158361661f565b91507f50726963652063616e6e6f7420626520656d70747900000000000000000000006000830152602082019050919050565b6000615cf360138361661f565b91507f4974656d20646f6573206e6f74206578697374000000000000000000000000006000830152602082019050919050565b6000615d3360138361661f565b91507f53746f726520616c7265616479206578697374000000000000000000000000006000830152602082019050919050565b6000615d7360198361661f565b91507f4e6f7420612073746f7265206f776e657220616c7265616479000000000000006000830152602082019050919050565b6000610100830160008301518482036000860152615dc48282615782565b9150506020830151615dd96020860182615e64565b506040830151615dec6040860182615e64565b506060830151615dff60608601826155c1565b5060808301518482036080860152615e1782826156b9565b91505060a0830151615e2c60a086018261572b565b5060c083015184820360c0860152615e4482826156b9565b91505060e0830151615e5960e0860182615e64565b508091505092915050565b615e6d81616693565b82525050565b615e7c81616693565b82525050565b615e8b8161669d565b82525050565b6000615e9e82848661562a565b91508190509392505050565b6000615eb68284615688565b915081905092915050565b6000604082019050615ed660008301856155d0565b8181036020830152615ee88184615749565b90509392505050565b6000604082019050615f0660008301856155b2565b615f136020830184615e73565b9392505050565b600060a082019050615f2f60008301886155d0565b615f3c6020830187615e73565b8181036040830152615f4e8186615749565b9050615f5d6060830185615e73565b8181036080830152615f6f8184615749565b90509695505050505050565b6000604082019050615f9060008301856155d0565b615f9d6020830184615e82565b9392505050565b6000604082019050615fb960008301856155df565b8181036020830152615fcb81846156f2565b90509392505050565b6000604082019050615fe960008301856155df565b615ff66020830184615e82565b9392505050565b600060208201905061601260008301846155ee565b92915050565b600060408201905061602d60008301856155ee565b61603a60208301846155ee565b9392505050565b6000604082019050818103600083015261605c8185876155fd565b905061606b6020830184615e73565b949350505050565b6000602082019050818103600083015261608d81846156f2565b905092915050565b600060208201905081810360008301526160af818461564f565b905092915050565b600060408201905081810360008301526160d1818561564f565b905081810360208301526160e58184615749565b90509392505050565b600060408201905081810360008301526161088185615749565b9050818103602083015261611c818461564f565b90509392505050565b600060c082019050818103600083015261613f8189615749565b905061614e6020830188615e73565b61615b60408301876155df565b818103606083015261616d818661564f565b905061617c60808301856155ee565b61618960a0830184615e73565b979650505050505050565b60006101008201905081810360008301526161af818b6157bb565b90506161be602083018a615e73565b6161cb6040830189615e73565b6161d860608301886155d0565b81810360808301526161ea81876156f2565b90506161f960a083018661573a565b81810360c083015261620b81856156f2565b905061621a60e0830184615e73565b9998505050505050505050565b60006020820190508181036000830152616240816157f4565b9050919050565b6000602082019050818103600083015261626081615834565b9050919050565b6000602082019050818103600083015261628081615874565b9050919050565b600060208201905081810360008301526162a0816158b4565b9050919050565b600060208201905081810360008301526162c0816158f4565b9050919050565b600060208201905081810360008301526162e08161595a565b9050919050565b600060208201905081810360008301526163008161599a565b9050919050565b60006020820190508181036000830152616320816159da565b9050919050565b6000602082019050818103600083015261634081615a1a565b9050919050565b6000602082019050818103600083015261636081615a5a565b9050919050565b6000602082019050818103600083015261638081615a9a565b9050919050565b600060208201905081810360008301526163a081615ada565b9050919050565b600060208201905081810360008301526163c081615b1a565b9050919050565b600060208201905081810360008301526163e081615b5a565b9050919050565b6000602082019050818103600083015261640081615b9a565b9050919050565b6000602082019050818103600083015261642081615c00565b9050919050565b6000602082019050818103600083015261644081615c66565b9050919050565b6000602082019050818103600083015261646081615ca6565b9050919050565b6000602082019050818103600083015261648081615ce6565b9050919050565b600060208201905081810360008301526164a081615d26565b9050919050565b600060208201905081810360008301526164c081615d66565b9050919050565b600060208201905081810360008301526164e18184615da6565b905092915050565b60006020820190506164fe6000830184615e73565b92915050565b6000604051905081810181811067ffffffffffffffff8211171561652757600080fd5b8060405250919050565b600067ffffffffffffffff82111561654857600080fd5b601f19601f8301169050602081019050919050565b600067ffffffffffffffff82111561657457600080fd5b601f19601f8301169050602081019050919050565b600067ffffffffffffffff8211156165a057600080fd5b601f19601f8301169050602081019050919050565b600081519050919050565b600081519050919050565b600081519050919050565b600081519050919050565b600082825260208201905092915050565b600082825260208201905092915050565b600081905092915050565b600082825260208201905092915050565b600082825260208201905092915050565b600061663b82616673565b9050919050565b600061664d82616673565b9050919050565b60008115159050919050565b600081905061666e82616745565b919050565b600073ffffffffffffffffffffffffffffffffffffffff82169050919050565b6000819050919050565b600060ff82169050919050565b60006166b5826166ce565b9050919050565b60006166c782616660565b9050919050565b60006166d9826166e0565b9050919050565b60006166eb82616673565b9050919050565b82818337600083830152505050565b60005b8381101561671f578082015181840152602081019050616704565b8381111561672e576000848401525b50505050565b6000601f19601f8301169050919050565b6002811061674f57fe5b50565b61675b81616630565b811461676657600080fd5b50565b61677281616642565b811461677d57600080fd5b50565b61678981616654565b811461679457600080fd5b50565b6167a081616693565b81146167ab57600080fd5b5056fea26469706673582212203ba2fd1d08333185dc23942a71f37ddb00ed74c323b6b6cbc719843cdb49d02f64736f6c63430006010033",
  "source": "// SPDX-License-Identifier: MIT\r\npragma solidity ^0.6.0;\r\npragma experimental ABIEncoderV2;\r\n// Online MarketPlace running on the blockchain\r\ncontract GMart{\r\n    address private owner;\r\n    uint totalItem = 0;\r\n    uint8 defaultId = 10;\r\n    uint8 defaultId_storeOwner = 0;\r\n    // uint public totalStorefronts = 0;\r\n    uint shoppers_count;\r\n    \r\n    enum ItemStatus{Unavailable, Available}\r\n    ItemStatus available = ItemStatus(1);\r\n    ItemStatus unavailable = ItemStatus(0);\r\n    \r\n    //Struct of admin specs.\r\n    struct Admins {\r\n        address addr;\r\n        bytes id;\r\n    }\r\n    //Struct of StoreOwners specs\r\n    struct StoreOwners{\r\n        address addr;\r\n        bytes id;\r\n    }\r\n    \r\n    // Store details for adding a store to the storefront.\r\n    struct Storefront {\r\n        address payable storeOwner; // storeowner's public key\r\n        string name;\r\n        bytes storeref;\r\n        uint dateCreated;\r\n        bool active;\r\n        uint storecount;\r\n        uint itemCount;\r\n    }\r\n    //Struct of item specs\r\n    struct Item {\r\n        string name;\r\n        uint price;\r\n        uint quantity;\r\n        address payable sellerAddress;\r\n        bytes itemRef;\r\n        ItemStatus status;\r\n        bytes description;\r\n        uint itemCountId;\r\n    }\r\n    \r\n    Admins[] public adminList;\r\n    StoreOwners[] public storeOwnerslist;\r\n    Storefront[] storesList;\r\n    Item[] public itemList;\r\n\r\n    event ApprovedStoreOwner(address indexed _addr, bytes _ref);\r\n    event NewAdmin(address indexed _addr, bytes _ref);\r\n    event NewStoreFront(address indexed _newstore, bytes _storeId, string _name);\r\n    event UnregisteredStore(address indexed _storeOwnerAddress);\r\n    event NewItem(address indexed _addr, string _itemName, bytes _itemRef);\r\n    event PriceChange(bytes _referenceId, uint256 _newSetPrice);\r\n    event Withdrawal(address indexed _from, address indexed _to, uint _amount);\r\n    event RemovedItem(address indexed _msgsender, bytes _refId);\r\n    event ReceivedEther(address, uint);\r\n    \r\n\r\n    mapping(address => bool) public  isAdmin;\r\n    mapping(address => Admins) adminMap;\r\n    mapping(address => bool) public adminApprovalToAdd;\r\n    mapping(address => bool) public isStoreOwnerApproved;\r\n    mapping(address => StoreOwners) storeOwnerMap;\r\n    mapping(address => bool) public storeOwnerApprovalToAddItem;//marked\r\n    mapping(address => mapping(bytes => bool)) public ifStorefAvailable;\r\n    mapping(address => bytes) public storef;\r\n    mapping(address => mapping(bytes => Storefront[])) storeMap; //List of storefronts\r\n    mapping(bytes => Storefront) storeHashMap;\r\n    mapping(address => mapping(bytes => Item)) public itemMap;\r\n    mapping(address => mapping(uint => Item)) itemcount;\r\n    mapping(bytes => Item) itemRefMap;\r\n    mapping(address => mapping(bytes => bool)) public ownerShip;\r\n    mapping(address => mapping(bytes => bytes)) itemHashMap;\r\n    mapping(bytes => bool) itemExist;\r\n    mapping(address => uint256) public balance;\r\n    mapping(address => uint256) public shoppers;\r\n\r\n    // EnumerableMap.UintToAddressMap private store_list;\r\n    \r\n    // Initialized at deployment time.\r\n    constructor () public {\r\n        // token = IERC777(_token);\r\n        owner = msg.sender;\r\n        // _erc1820.setInterfaceImplementer(address(this), TOKENS_RECIPIENT_INTERFACE_HASH, address(this));\r\n        \r\n    }\r\n    //Only sender with owner Authorization is permiitted\r\n    modifier onlyOwner() {\r\n        require(msg.sender == owner, \"Request failed; Not an owner\");\r\n        _;\r\n    }\r\n    //Only sender with admin role is permiitted\r\n    modifier onlyAdmin() {\r\n        require(isAdmin[msg.sender] == true, \"Not Authorized address\");\r\n        require(adminApprovalToAdd[msg.sender] == true, \"Not Authorized\");\r\n        _;\r\n    }\r\n    //Only approved store owner is allowed\r\n    modifier approvedStoreOwner() {\r\n        require(isStoreOwnerApproved[msg.sender] == true, \"Address not authorized\");\r\n        require(storeOwnerApprovalToAddItem[msg.sender] == true, \"Unauthorized to add Item to store\");\r\n        _;\r\n    }\r\n    //Check if an item exist in a particular storefront\r\n    modifier checkItemExist(bytes memory _itemRef) {\r\n        require(itemExist[_itemRef] == true, \"Item does not exist\");\r\n        _;\r\n    }\r\n    \r\n    /**\r\n     * @dev adds an adminList\r\n     * function is called only by the authorized owner address\r\n     */\r\n    function addAdmin(address _addr, bool _approval) public onlyOwner returns(bool){\r\n        require(adminList.length <= 3, \"Max admin list reached\");\r\n        require(_addr != address(0), \"Invalid address\");\r\n        Admins memory _adminStruct = adminMap[_addr];\r\n        uint8 tempAdminId = defaultId += 1;\r\n        _adminStruct.addr = _addr;\r\n        _adminStruct.id = abi.encode(_addr, tempAdminId);\r\n        adminList.push(_adminStruct);\r\n        adminApprovalToAdd[_addr] = _approval;\r\n        isAdmin[_addr] = true;\r\n        emit NewAdmin(_addr, _adminStruct.id);\r\n        return true;\r\n    }\r\n\r\n    function checkIsAdmin(address _addr) public view returns(bool, bool) {\r\n        return (isAdmin[_addr], adminApprovalToAdd[_addr]);\r\n    }\r\n\r\n    function checkStoreOwnerApproved(address _addr) public view returns(bool, bool) {\r\n        return (isStoreOwnerApproved[_addr], storeOwnerApprovalToAddItem[_addr]);\r\n    }\r\n    \r\n    function approve_StoreOwner(address payable _addr, bool _approval) public onlyAdmin returns(bool successful) {\r\n        require(_addr != address(0), \"Invalid address\");\r\n        StoreOwners memory _ownerStruct = storeOwnerMap[_addr];\r\n        uint8 tempId = defaultId_storeOwner += 1;\r\n        _ownerStruct.addr = _addr;\r\n        _ownerStruct.id = abi.encode(_addr, tempId);\r\n        storeOwnerslist.push(_ownerStruct);\r\n        storeOwnerApprovalToAddItem[_addr] = _approval;\r\n        isStoreOwnerApproved[_addr] = true;\r\n        emit ApprovedStoreOwner(_addr, _ownerStruct.id);\r\n        return successful;\r\n    }\r\n    \r\n    function changeAdminApproval(address _addr, bool _approval) public onlyOwner {\r\n        require(isAdmin[_addr] == true, \"Not already added\");\r\n        adminApprovalToAdd[_addr] = _approval;\r\n    }\r\n    \r\n    function changeStoreOwnerApproval(address _addr, bool _approval) public onlyAdmin {\r\n        require(isStoreOwnerApproved[_addr] == true, \"Not already added\");\r\n        storeOwnerApprovalToAddItem[_addr] = _approval;\r\n    }\r\n\r\n    /**\r\n    * StoreOwners Registers a new storefront. \r\n    * currently a participant self-adding strorefront\r\n    * param: _storeName: Name of the store.\r\n    * param: _itemName: Name of an item.\r\n    * param: _description: Detail of an item.\r\n    * param: _price: unit price of an item.\r\n    * param: _storeref: A unique reference Id to the store.\r\n    * param: _quantity: Unit of item to add.\r\n    */\r\n    function addStorefront(\r\n         string memory _storeName,\r\n         string memory _itemName,\r\n         string memory _description,\r\n         uint _price,\r\n         uint _quantity\r\n         ) public approvedStoreOwner returns(bool success) {\r\n         Storefront memory _newStoreFront;\r\n         Item memory _newItem;\r\n         bytes memory _storeRef = abi.encode(msg.sender, _storeName);\r\n         require(ifStorefAvailable[msg.sender][_storeRef] == false, \"Store already exist\" );\r\n         require(storeMap[msg.sender][_storeRef].length < 3, \"Address can only create two storefront\");\r\n         _newStoreFront.dateCreated = block.timestamp - 15;\r\n         _newStoreFront.name = _storeName;\r\n         _newStoreFront.storeOwner = msg.sender;\r\n         _newStoreFront.storeref = _storeRef;\r\n         _newStoreFront.active = true;\r\n         if(_newStoreFront.itemCount == 0){\r\n             _newItem = addItemToStore(_itemName, _description, _price, _storeRef, _quantity);\r\n             _newStoreFront.storecount += 1;\r\n         }\r\n        //  require(_newStoreFront.shelve.length > 0, \"Shelve cannot be empty\");\r\n         storeMap[msg.sender][_storeRef].push(_newStoreFront);\r\n         ifStorefAvailable[msg.sender][_storeRef] = true;\r\n         storef[msg.sender] = _storeRef;\r\n         storeHashMap[_storeRef] = _newStoreFront;\r\n         emit NewStoreFront(msg.sender, _storeRef, _itemName);\r\n         return success;\r\n        \r\n     }\r\n     \r\n     function getStoreDetail(bytes memory _ref) public view approvedStoreOwner returns(string memory, uint, address, bytes memory, bool, uint) {\r\n         require(ifStorefAvailable[msg.sender][_ref] == true, \"Store does not exist\" );\r\n         Storefront memory _storeToGet = storeHashMap[_ref];\r\n         return(\r\n             _storeToGet.name,\r\n             _storeToGet.dateCreated,\r\n             _storeToGet.storeOwner,\r\n             _storeToGet.storeref,\r\n             _storeToGet.active,\r\n             _storeToGet.storecount\r\n            );\r\n        \r\n     }\r\n     \r\n          /**\r\n     * StoreOwners Registers a new item to shelve. \r\n     * param: _itemName: Name of an item.\r\n     * param: _description: Detail of an item.\r\n     * param: _price: unit price of an item.\r\n     * param: _storeref: A unique reference Id to the store.\r\n     * param: _quantity: Unit of item to add.\r\n     */\r\n     \r\n    function addItemToStore(\r\n        string memory _itemName,\r\n        string memory _description,\r\n        uint _price,\r\n        bytes memory _storeRef,\r\n        uint _qnty\r\n        )public \r\n        approvedStoreOwner \r\n        returns(Item memory _newItem)\r\n        {\r\n            require(_price > 0, \"Price cannot be empty\");\r\n            _newItem.name = _itemName;\r\n            _newItem.price = _price;\r\n            _newItem.quantity = _qnty;\r\n            _newItem.itemCountId += 1;\r\n            bytes memory _itemref = abi.encode(msg.sender, _newItem.itemCountId, _itemName, _price, _description);\r\n            _newItem.sellerAddress = msg.sender;\r\n            _newItem.itemRef = _itemref;\r\n            itemcount[msg.sender][_newItem.itemCountId] = _newItem;\r\n            ownerShip[msg.sender][_itemref] = true;\r\n            _newItem.status = available;\r\n            itemList.push(_newItem);\r\n            itemMap[msg.sender][_itemref] = (_newItem);\r\n            itemRefMap[_itemref] = _newItem;\r\n            itemHashMap[msg.sender][_storeRef] = _itemref;\r\n            itemExist[_itemref] = true;\r\n            // uint newItemIndex = EnumerableMap.length(allItem);\r\n            // EnumerableMap.set(allItem, newItemIndex, msg.sender);\r\n            emit NewItem(msg.sender, _itemName, _itemref);\r\n            return _newItem;\r\n     }\r\n     \r\n     function removeAnItem(bytes memory _itemRef) public approvedStoreOwner checkItemExist(_itemRef) {\r\n         delete itemMap[msg.sender][_itemRef];\r\n         emit RemovedItem(msg.sender, _itemRef);\r\n     }\r\n      function removeAStore(bytes memory _ref) public approvedStoreOwner {\r\n          delete storeMap[msg.sender][_ref];\r\n      }\r\n\r\n     function adjustPrice(uint _newPrice, bytes calldata _itemRef) external approvedStoreOwner checkItemExist(_itemRef) {\r\n         require(_newPrice > 0, \"Price cannot be zero\");\r\n         Item memory currentItem = itemMap[msg.sender][_itemRef];\r\n         uint _oldPrice = currentItem.price;\r\n         _oldPrice = _newPrice;\r\n         emit PriceChange(_itemRef, _newPrice);\r\n     }\r\n     \r\n    function buyItem(\r\n        bytes memory _itemRef,\r\n        uint _qnty\r\n        )public payable checkItemExist(_itemRef) returns(bool success) \r\n        {\r\n            Item memory _itemToBuy = itemRefMap[_itemRef];\r\n            uint buyUnitPrice = _itemToBuy.price;\r\n            address _sellerAddress = _itemToBuy.sellerAddress;\r\n            require(_qnty > 0, \"Invalid quantity\");\r\n            require(balance[msg.sender] >= buyUnitPrice, \"Insufficeient balance\");\r\n            require(_itemToBuy.status == available, \"Item Unavailable\");\r\n            require(_qnty <= _itemToBuy.quantity, \"Cannot exceed seller's preset amount.\");\r\n            if (_qnty == 0) {\r\n              revert();\r\n            }\r\n            uint256 amountToPay = _qnty * buyUnitPrice;\r\n            require(amountToPay / _qnty == buyUnitPrice);\r\n            balance[msg.sender] -= amountToPay;\r\n            balance[_sellerAddress] += amountToPay;\r\n            ownerShip[_sellerAddress][_itemRef] = false;\r\n            ownerShip[msg.sender][_itemRef] = true;\r\n            uint prevQuanty = _itemToBuy.quantity;\r\n            prevQuanty -= _qnty;\r\n            if(prevQuanty == 0){\r\n                delete _itemToBuy;\r\n                _itemToBuy.status == unavailable;\r\n                return success;\r\n            }else if(prevQuanty > 0){\r\n                _itemToBuy.quantity = prevQuanty;\r\n            }\r\n            shoppers[msg.sender] = shoppers_count += 1;\r\n     }\r\n     \r\n    function withdrawBalanceStoreOwner(address payable _addr, uint _amount) external payable approvedStoreOwner returns(bool success) {\r\n         require(balance[msg.sender] >= _amount, \"Insufficeient balance\");\r\n         balance[msg.sender] -= _amount;\r\n         _addr.transfer(_amount);\r\n         emit Withdrawal(msg.sender, _addr, _amount);\r\n         return success;\r\n     }\r\n    \r\n    function deleteAdmin(address _addr) public onlyOwner returns(bool success) {\r\n        require(isAdmin[_addr] == true, \"Not an admin\");\r\n        return isAdmin[_addr] = false;\r\n    }\r\n    \r\n    /**\r\n     * @dev UnRegisters a store from the Storefront \r\n     * currently only an admin is able to remove store\r\n     */\r\n    function unregisterStore(address _addr, bytes memory _ref) public onlyAdmin returns(bool success) {\r\n        require(isStoreOwnerApproved[_addr] == true, \"Not a store owner already\");\r\n        require(ifStorefAvailable[_addr][_ref] == true, \"Canoot find any match\");\r\n        delete storeMap[_addr][_ref];\r\n        emit UnregisteredStore(_addr);\r\n        return success;\r\n    }\r\n    \r\n    //@dev Withdraw funds\r\n    function withdraw(uint _amount) onlyOwner public payable{\r\n        msg.sender.transfer(_amount);\r\n    }\r\n    \r\n    receive() external payable {\r\n        emit ReceivedEther(msg.sender, msg.value);\r\n    }\r\n    \r\n}    ",
  "sourcePath": "C:/Users/OWNER/Desktop/bootFinalProject/consensys-finalProject/contracts/GMart.sol",
  "compiler": {
    "name": "solc",
    "version": "0.6.1+commit.e6f7d5a4.Emscripten.clang"
  },
  "schemaVersion": "3.2.5",
  "updatedAt": "2020-11-27T23:17:23.564Z",
  "networkType": "ethereum",
  "devdoc": {
    "methods": {
      "addAdmin(address,bool)": {
        "details": "adds an adminList function is called only by the authorized owner address"
      },
      "unregisterStore(address,bytes)": {
        "details": "UnRegisters a store from the Storefront  currently only an admin is able to remove store"
      }
    }
  },
  "userdoc": {
    "methods": {
      "addItemToStore(string,string,uint256,bytes,uint256)": {
        "notice": "StoreOwners Registers a new item to shelve.  param: _itemName: Name of an item. param: _description: Detail of an item. param: _price: unit price of an item. param: _storeref: A unique reference Id to the store. param: _quantity: Unit of item to add."
      },
      "addStorefront(string,string,string,uint256,uint256)": {
        "notice": "StoreOwners Registers a new storefront.  currently a participant self-adding strorefront param: _storeName: Name of the store. param: _itemName: Name of an item. param: _description: Detail of an item. param: _price: unit price of an item. param: _storeref: A unique reference Id to the store. param: _quantity: Unit of item to add."
      }
    }
  }
}