{
  "contractName": "GMart",
  "abi": [
    {
      "inputs": [],
      "stateMutability": "nonpayable",
      "type": "constructor"
    },
    {
      "anonymous": false,
      "inputs": [
        {
          "indexed": true,
          "internalType": "address",
          "name": "_owner",
          "type": "address"
        },
        {
          "indexed": true,
          "internalType": "address",
          "name": "_spender",
          "type": "address"
        },
        {
          "indexed": false,
          "internalType": "uint256",
          "name": "_value",
          "type": "uint256"
        }
      ],
      "name": "Approval",
      "type": "event"
    },
    {
      "anonymous": false,
      "inputs": [
        {
          "indexed": true,
          "internalType": "address",
          "name": "_addr",
          "type": "address"
        },
        {
          "indexed": false,
          "internalType": "uint256",
          "name": "_userId",
          "type": "uint256"
        }
      ],
      "name": "ApprovedStoreOwner",
      "type": "event"
    },
    {
      "anonymous": false,
      "inputs": [
        {
          "indexed": true,
          "internalType": "address",
          "name": "from",
          "type": "address"
        },
        {
          "indexed": false,
          "internalType": "uint256",
          "name": "value",
          "type": "uint256"
        }
      ],
      "name": "Burn",
      "type": "event"
    },
    {
      "anonymous": false,
      "inputs": [
        {
          "indexed": true,
          "internalType": "address",
          "name": "_msgsender",
          "type": "address"
        },
        {
          "indexed": false,
          "internalType": "uint256",
          "name": "_storeNumber",
          "type": "uint256"
        }
      ],
      "name": "DeletedStore",
      "type": "event"
    },
    {
      "anonymous": false,
      "inputs": [
        {
          "indexed": false,
          "internalType": "address",
          "name": "target",
          "type": "address"
        },
        {
          "indexed": false,
          "internalType": "bool",
          "name": "frozen",
          "type": "bool"
        }
      ],
      "name": "FrozenFunds",
      "type": "event"
    },
    {
      "anonymous": false,
      "inputs": [
        {
          "indexed": true,
          "internalType": "address",
          "name": "_addr",
          "type": "address"
        }
      ],
      "name": "NewAdmin",
      "type": "event"
    },
    {
      "anonymous": false,
      "inputs": [
        {
          "indexed": true,
          "internalType": "address",
          "name": "_addr",
          "type": "address"
        },
        {
          "indexed": false,
          "internalType": "string",
          "name": "_itemName",
          "type": "string"
        },
        {
          "indexed": false,
          "internalType": "bytes",
          "name": "_itemRef",
          "type": "bytes"
        }
      ],
      "name": "NewItem",
      "type": "event"
    },
    {
      "anonymous": false,
      "inputs": [
        {
          "indexed": true,
          "internalType": "address",
          "name": "_msgsender",
          "type": "address"
        },
        {
          "indexed": false,
          "internalType": "string",
          "name": "_storeName",
          "type": "string"
        },
        {
          "indexed": false,
          "internalType": "uint256",
          "name": "_storeNum",
          "type": "uint256"
        }
      ],
      "name": "NewStoreFront",
      "type": "event"
    },
    {
      "anonymous": false,
      "inputs": [
        {
          "indexed": false,
          "internalType": "bytes",
          "name": "_referenceId",
          "type": "bytes"
        },
        {
          "indexed": false,
          "internalType": "uint256",
          "name": "_newSetPrice",
          "type": "uint256"
        }
      ],
      "name": "PriceChange",
      "type": "event"
    },
    {
      "anonymous": false,
      "inputs": [
        {
          "indexed": false,
          "internalType": "address",
          "name": "",
          "type": "address"
        },
        {
          "indexed": false,
          "internalType": "uint256",
          "name": "",
          "type": "uint256"
        }
      ],
      "name": "ReceivedEther",
      "type": "event"
    },
    {
      "anonymous": false,
      "inputs": [
        {
          "indexed": true,
          "internalType": "address",
          "name": "_msgsender",
          "type": "address"
        },
        {
          "indexed": false,
          "internalType": "string",
          "name": "_itemName",
          "type": "string"
        },
        {
          "indexed": false,
          "internalType": "uint256",
          "name": "_id",
          "type": "uint256"
        }
      ],
      "name": "RemovedItem",
      "type": "event"
    },
    {
      "anonymous": false,
      "inputs": [
        {
          "indexed": true,
          "internalType": "address",
          "name": "from",
          "type": "address"
        },
        {
          "indexed": true,
          "internalType": "address",
          "name": "to",
          "type": "address"
        },
        {
          "indexed": false,
          "internalType": "uint256",
          "name": "value",
          "type": "uint256"
        }
      ],
      "name": "Transfer",
      "type": "event"
    },
    {
      "anonymous": false,
      "inputs": [
        {
          "indexed": true,
          "internalType": "address",
          "name": "_storeOwnerAddress",
          "type": "address"
        },
        {
          "indexed": false,
          "internalType": "uint256",
          "name": "_storeNumber",
          "type": "uint256"
        }
      ],
      "name": "UnregisteredStore",
      "type": "event"
    },
    {
      "anonymous": false,
      "inputs": [
        {
          "indexed": true,
          "internalType": "address",
          "name": "_from",
          "type": "address"
        },
        {
          "indexed": true,
          "internalType": "address",
          "name": "_to",
          "type": "address"
        },
        {
          "indexed": false,
          "internalType": "uint256",
          "name": "_amount",
          "type": "uint256"
        }
      ],
      "name": "Withdrawal",
      "type": "event"
    },
    {
      "inputs": [
        {
          "internalType": "address",
          "name": "",
          "type": "address"
        }
      ],
      "name": "adminApprovalToAdd",
      "outputs": [
        {
          "internalType": "bool",
          "name": "",
          "type": "bool"
        }
      ],
      "stateMutability": "view",
      "type": "function",
      "constant": true
    },
    {
      "inputs": [],
      "name": "adminCount",
      "outputs": [
        {
          "internalType": "uint256",
          "name": "",
          "type": "uint256"
        }
      ],
      "stateMutability": "view",
      "type": "function",
      "constant": true
    },
    {
      "inputs": [
        {
          "internalType": "address",
          "name": "",
          "type": "address"
        },
        {
          "internalType": "address",
          "name": "",
          "type": "address"
        }
      ],
      "name": "allowance",
      "outputs": [
        {
          "internalType": "uint256",
          "name": "",
          "type": "uint256"
        }
      ],
      "stateMutability": "view",
      "type": "function",
      "constant": true
    },
    {
      "inputs": [
        {
          "internalType": "address",
          "name": "_spender",
          "type": "address"
        },
        {
          "internalType": "uint256",
          "name": "_value",
          "type": "uint256"
        }
      ],
      "name": "approve",
      "outputs": [
        {
          "internalType": "bool",
          "name": "success",
          "type": "bool"
        }
      ],
      "stateMutability": "nonpayable",
      "type": "function"
    },
    {
      "inputs": [
        {
          "internalType": "address",
          "name": "_spender",
          "type": "address"
        },
        {
          "internalType": "uint256",
          "name": "_value",
          "type": "uint256"
        },
        {
          "internalType": "bytes",
          "name": "_extraData",
          "type": "bytes"
        }
      ],
      "name": "approveAndCall",
      "outputs": [
        {
          "internalType": "bool",
          "name": "success",
          "type": "bool"
        }
      ],
      "stateMutability": "nonpayable",
      "type": "function"
    },
    {
      "inputs": [
        {
          "internalType": "uint256",
          "name": "",
          "type": "uint256"
        }
      ],
      "name": "availableItems",
      "outputs": [
        {
          "internalType": "bool",
          "name": "",
          "type": "bool"
        }
      ],
      "stateMutability": "view",
      "type": "function",
      "constant": true
    },
    {
      "inputs": [
        {
          "internalType": "address",
          "name": "",
          "type": "address"
        }
      ],
      "name": "balanceOf",
      "outputs": [
        {
          "internalType": "uint256",
          "name": "",
          "type": "uint256"
        }
      ],
      "stateMutability": "view",
      "type": "function",
      "constant": true
    },
    {
      "inputs": [
        {
          "internalType": "uint256",
          "name": "_value",
          "type": "uint256"
        }
      ],
      "name": "burn",
      "outputs": [
        {
          "internalType": "bool",
          "name": "success",
          "type": "bool"
        }
      ],
      "stateMutability": "nonpayable",
      "type": "function"
    },
    {
      "inputs": [
        {
          "internalType": "address",
          "name": "_from",
          "type": "address"
        },
        {
          "internalType": "uint256",
          "name": "_value",
          "type": "uint256"
        }
      ],
      "name": "burnFrom",
      "outputs": [
        {
          "internalType": "bool",
          "name": "success",
          "type": "bool"
        }
      ],
      "stateMutability": "nonpayable",
      "type": "function"
    },
    {
      "inputs": [],
      "name": "decimals",
      "outputs": [
        {
          "internalType": "uint8",
          "name": "",
          "type": "uint8"
        }
      ],
      "stateMutability": "view",
      "type": "function",
      "constant": true
    },
    {
      "inputs": [
        {
          "internalType": "address",
          "name": "target",
          "type": "address"
        },
        {
          "internalType": "bool",
          "name": "freeze",
          "type": "bool"
        }
      ],
      "name": "freezeAccount",
      "outputs": [],
      "stateMutability": "nonpayable",
      "type": "function"
    },
    {
      "inputs": [
        {
          "internalType": "address",
          "name": "",
          "type": "address"
        }
      ],
      "name": "frozenAccounts",
      "outputs": [
        {
          "internalType": "bool",
          "name": "",
          "type": "bool"
        }
      ],
      "stateMutability": "view",
      "type": "function",
      "constant": true
    },
    {
      "inputs": [
        {
          "internalType": "address",
          "name": "",
          "type": "address"
        },
        {
          "internalType": "uint256",
          "name": "",
          "type": "uint256"
        }
      ],
      "name": "isAdmin",
      "outputs": [
        {
          "internalType": "bool",
          "name": "",
          "type": "bool"
        }
      ],
      "stateMutability": "view",
      "type": "function",
      "constant": true
    },
    {
      "inputs": [
        {
          "internalType": "address",
          "name": "",
          "type": "address"
        },
        {
          "internalType": "uint256",
          "name": "",
          "type": "uint256"
        }
      ],
      "name": "isStoreOwnerApproved",
      "outputs": [
        {
          "internalType": "bool",
          "name": "",
          "type": "bool"
        }
      ],
      "stateMutability": "view",
      "type": "function",
      "constant": true
    },
    {
      "inputs": [
        {
          "internalType": "uint256",
          "name": "",
          "type": "uint256"
        }
      ],
      "name": "itemBalance",
      "outputs": [
        {
          "internalType": "uint256",
          "name": "",
          "type": "uint256"
        }
      ],
      "stateMutability": "view",
      "type": "function",
      "constant": true
    },
    {
      "inputs": [],
      "name": "itemcount",
      "outputs": [
        {
          "internalType": "uint256",
          "name": "",
          "type": "uint256"
        }
      ],
      "stateMutability": "view",
      "type": "function",
      "constant": true
    },
    {
      "inputs": [
        {
          "internalType": "uint256",
          "name": "",
          "type": "uint256"
        }
      ],
      "name": "itemsList",
      "outputs": [
        {
          "internalType": "bytes",
          "name": "",
          "type": "bytes"
        }
      ],
      "stateMutability": "view",
      "type": "function",
      "constant": true
    },
    {
      "inputs": [
        {
          "internalType": "address",
          "name": "target",
          "type": "address"
        },
        {
          "internalType": "uint256",
          "name": "mintedAmount",
          "type": "uint256"
        }
      ],
      "name": "mintToken",
      "outputs": [],
      "stateMutability": "nonpayable",
      "type": "function"
    },
    {
      "inputs": [],
      "name": "name",
      "outputs": [
        {
          "internalType": "string",
          "name": "",
          "type": "string"
        }
      ],
      "stateMutability": "view",
      "type": "function",
      "constant": true
    },
    {
      "inputs": [],
      "name": "owner",
      "outputs": [
        {
          "internalType": "address",
          "name": "",
          "type": "address"
        }
      ],
      "stateMutability": "view",
      "type": "function",
      "constant": true
    },
    {
      "inputs": [
        {
          "internalType": "address",
          "name": "",
          "type": "address"
        }
      ],
      "name": "ownerShip",
      "outputs": [
        {
          "internalType": "bool",
          "name": "",
          "type": "bool"
        }
      ],
      "stateMutability": "view",
      "type": "function",
      "constant": true
    },
    {
      "inputs": [
        {
          "internalType": "address",
          "name": "",
          "type": "address"
        }
      ],
      "name": "shoppers",
      "outputs": [
        {
          "internalType": "uint256",
          "name": "",
          "type": "uint256"
        }
      ],
      "stateMutability": "view",
      "type": "function",
      "constant": true
    },
    {
      "inputs": [],
      "name": "storeCount",
      "outputs": [
        {
          "internalType": "uint256",
          "name": "",
          "type": "uint256"
        }
      ],
      "stateMutability": "view",
      "type": "function",
      "constant": true
    },
    {
      "inputs": [
        {
          "internalType": "string",
          "name": "",
          "type": "string"
        },
        {
          "internalType": "uint256",
          "name": "",
          "type": "uint256"
        }
      ],
      "name": "storeExist",
      "outputs": [
        {
          "internalType": "bool",
          "name": "",
          "type": "bool"
        }
      ],
      "stateMutability": "view",
      "type": "function",
      "constant": true
    },
    {
      "inputs": [
        {
          "internalType": "string",
          "name": "",
          "type": "string"
        },
        {
          "internalType": "uint256",
          "name": "",
          "type": "uint256"
        }
      ],
      "name": "storeOwners",
      "outputs": [
        {
          "internalType": "address",
          "name": "",
          "type": "address"
        }
      ],
      "stateMutability": "view",
      "type": "function",
      "constant": true
    },
    {
      "inputs": [],
      "name": "storeOwnersCount",
      "outputs": [
        {
          "internalType": "uint256",
          "name": "",
          "type": "uint256"
        }
      ],
      "stateMutability": "view",
      "type": "function",
      "constant": true
    },
    {
      "inputs": [
        {
          "internalType": "address",
          "name": "",
          "type": "address"
        },
        {
          "internalType": "uint256",
          "name": "",
          "type": "uint256"
        }
      ],
      "name": "storefrontRef",
      "outputs": [
        {
          "internalType": "bytes",
          "name": "",
          "type": "bytes"
        }
      ],
      "stateMutability": "view",
      "type": "function",
      "constant": true
    },
    {
      "inputs": [
        {
          "internalType": "address",
          "name": "",
          "type": "address"
        },
        {
          "internalType": "string",
          "name": "",
          "type": "string"
        },
        {
          "internalType": "string",
          "name": "",
          "type": "string"
        },
        {
          "internalType": "uint256",
          "name": "",
          "type": "uint256"
        }
      ],
      "name": "storefrontRefItemMap",
      "outputs": [
        {
          "internalType": "bytes",
          "name": "",
          "type": "bytes"
        }
      ],
      "stateMutability": "view",
      "type": "function",
      "constant": true
    },
    {
      "inputs": [],
      "name": "symbol",
      "outputs": [
        {
          "internalType": "string",
          "name": "",
          "type": "string"
        }
      ],
      "stateMutability": "view",
      "type": "function",
      "constant": true
    },
    {
      "inputs": [],
      "name": "totalSupply",
      "outputs": [
        {
          "internalType": "uint256",
          "name": "",
          "type": "uint256"
        }
      ],
      "stateMutability": "view",
      "type": "function",
      "constant": true
    },
    {
      "inputs": [
        {
          "internalType": "address",
          "name": "_to",
          "type": "address"
        },
        {
          "internalType": "uint256",
          "name": "_value",
          "type": "uint256"
        }
      ],
      "name": "transfer",
      "outputs": [
        {
          "internalType": "bool",
          "name": "success",
          "type": "bool"
        }
      ],
      "stateMutability": "nonpayable",
      "type": "function"
    },
    {
      "inputs": [
        {
          "internalType": "address",
          "name": "_from",
          "type": "address"
        },
        {
          "internalType": "address",
          "name": "_to",
          "type": "address"
        },
        {
          "internalType": "uint256",
          "name": "_value",
          "type": "uint256"
        }
      ],
      "name": "transferFrom",
      "outputs": [
        {
          "internalType": "bool",
          "name": "success",
          "type": "bool"
        }
      ],
      "stateMutability": "nonpayable",
      "type": "function"
    },
    {
      "stateMutability": "payable",
      "type": "receive",
      "payable": true
    },
    {
      "inputs": [
        {
          "internalType": "address",
          "name": "_newOwner",
          "type": "address"
        }
      ],
      "name": "transferOwnership",
      "outputs": [],
      "stateMutability": "nonpayable",
      "type": "function"
    },
    {
      "inputs": [
        {
          "internalType": "address",
          "name": "_addr",
          "type": "address"
        }
      ],
      "name": "addAdmin",
      "outputs": [
        {
          "internalType": "bool",
          "name": "",
          "type": "bool"
        }
      ],
      "stateMutability": "nonpayable",
      "type": "function"
    },
    {
      "inputs": [
        {
          "internalType": "address",
          "name": "_addr",
          "type": "address"
        },
        {
          "internalType": "uint256",
          "name": "_id",
          "type": "uint256"
        }
      ],
      "name": "checkIsAdmin",
      "outputs": [
        {
          "internalType": "bool",
          "name": "",
          "type": "bool"
        }
      ],
      "stateMutability": "view",
      "type": "function",
      "constant": true
    },
    {
      "inputs": [
        {
          "internalType": "address",
          "name": "_addr",
          "type": "address"
        }
      ],
      "name": "checkIfAdmincanAdd",
      "outputs": [
        {
          "internalType": "bool",
          "name": "",
          "type": "bool"
        }
      ],
      "stateMutability": "view",
      "type": "function",
      "constant": true
    },
    {
      "inputs": [
        {
          "internalType": "address",
          "name": "_addr",
          "type": "address"
        },
        {
          "internalType": "uint256",
          "name": "_id",
          "type": "uint256"
        }
      ],
      "name": "checkStoreOwnerApproved",
      "outputs": [
        {
          "internalType": "bool",
          "name": "",
          "type": "bool"
        }
      ],
      "stateMutability": "view",
      "type": "function",
      "constant": true
    },
    {
      "inputs": [
        {
          "internalType": "address",
          "name": "_addr",
          "type": "address"
        },
        {
          "internalType": "uint256",
          "name": "_id",
          "type": "uint256"
        }
      ],
      "name": "approve_StoreOwner",
      "outputs": [
        {
          "internalType": "bool",
          "name": "",
          "type": "bool"
        }
      ],
      "stateMutability": "nonpayable",
      "type": "function"
    },
    {
      "inputs": [
        {
          "internalType": "address",
          "name": "_addr",
          "type": "address"
        },
        {
          "internalType": "bool",
          "name": "_approval",
          "type": "bool"
        },
        {
          "internalType": "uint256",
          "name": "_id",
          "type": "uint256"
        }
      ],
      "name": "changeAdminApproval",
      "outputs": [
        {
          "internalType": "bool",
          "name": "",
          "type": "bool"
        }
      ],
      "stateMutability": "nonpayable",
      "type": "function"
    },
    {
      "inputs": [
        {
          "internalType": "address",
          "name": "_addr",
          "type": "address"
        },
        {
          "internalType": "bool",
          "name": "_approval",
          "type": "bool"
        },
        {
          "internalType": "uint256",
          "name": "_adminId",
          "type": "uint256"
        },
        {
          "internalType": "uint256",
          "name": "_storeOwnerId",
          "type": "uint256"
        }
      ],
      "name": "changeStoreOwnerApproval",
      "outputs": [
        {
          "internalType": "bool",
          "name": "",
          "type": "bool"
        }
      ],
      "stateMutability": "nonpayable",
      "type": "function"
    },
    {
      "inputs": [
        {
          "internalType": "string",
          "name": "_storeName",
          "type": "string"
        },
        {
          "internalType": "uint256",
          "name": "_userId",
          "type": "uint256"
        }
      ],
      "name": "addStorefront",
      "outputs": [
        {
          "internalType": "string",
          "name": "",
          "type": "string"
        },
        {
          "internalType": "uint256",
          "name": "",
          "type": "uint256"
        }
      ],
      "stateMutability": "nonpayable",
      "type": "function"
    },
    {
      "inputs": [
        {
          "internalType": "string",
          "name": "_name",
          "type": "string"
        },
        {
          "internalType": "uint256",
          "name": "_storeNumber",
          "type": "uint256"
        }
      ],
      "name": "ifStoreExist",
      "outputs": [
        {
          "internalType": "bool",
          "name": "",
          "type": "bool"
        }
      ],
      "stateMutability": "view",
      "type": "function",
      "constant": true
    },
    {
      "inputs": [
        {
          "internalType": "string",
          "name": "_name",
          "type": "string"
        },
        {
          "internalType": "uint256",
          "name": "_id",
          "type": "uint256"
        }
      ],
      "name": "getStoreOwner",
      "outputs": [
        {
          "internalType": "address",
          "name": "",
          "type": "address"
        }
      ],
      "stateMutability": "view",
      "type": "function",
      "constant": true
    },
    {
      "inputs": [
        {
          "internalType": "string",
          "name": "_itemName",
          "type": "string"
        },
        {
          "internalType": "string",
          "name": "_description",
          "type": "string"
        },
        {
          "internalType": "uint256",
          "name": "_price",
          "type": "uint256"
        },
        {
          "internalType": "string",
          "name": "_storeName",
          "type": "string"
        },
        {
          "internalType": "uint256",
          "name": "_qnty",
          "type": "uint256"
        },
        {
          "internalType": "uint256",
          "name": "_userId",
          "type": "uint256"
        }
      ],
      "name": "addItemToStore",
      "outputs": [
        {
          "internalType": "bool",
          "name": "",
          "type": "bool"
        }
      ],
      "stateMutability": "nonpayable",
      "type": "function"
    },
    {
      "inputs": [
        {
          "internalType": "string",
          "name": "_storeName",
          "type": "string"
        },
        {
          "internalType": "uint256",
          "name": "_userId",
          "type": "uint256"
        },
        {
          "internalType": "string",
          "name": "_itemName",
          "type": "string"
        },
        {
          "internalType": "uint256",
          "name": "_itemNumber",
          "type": "uint256"
        }
      ],
      "name": "removeAnItem",
      "outputs": [
        {
          "internalType": "bool",
          "name": "",
          "type": "bool"
        }
      ],
      "stateMutability": "nonpayable",
      "type": "function"
    },
    {
      "inputs": [
        {
          "internalType": "string",
          "name": "_storeName",
          "type": "string"
        },
        {
          "internalType": "uint256",
          "name": "_userId",
          "type": "uint256"
        },
        {
          "internalType": "uint256",
          "name": "_storeNumber",
          "type": "uint256"
        }
      ],
      "name": "removeAStore",
      "outputs": [
        {
          "internalType": "bool",
          "name": "",
          "type": "bool"
        }
      ],
      "stateMutability": "nonpayable",
      "type": "function"
    },
    {
      "inputs": [
        {
          "internalType": "string",
          "name": "_name",
          "type": "string"
        },
        {
          "internalType": "uint256",
          "name": "_qnty",
          "type": "uint256"
        },
        {
          "internalType": "uint256",
          "name": "_itemNumber",
          "type": "uint256"
        }
      ],
      "name": "buyItem",
      "outputs": [
        {
          "internalType": "bool",
          "name": "",
          "type": "bool"
        }
      ],
      "stateMutability": "payable",
      "type": "function",
      "payable": true
    },
    {
      "inputs": [
        {
          "internalType": "address payable",
          "name": "_addr",
          "type": "address"
        },
        {
          "internalType": "uint256",
          "name": "_amount",
          "type": "uint256"
        },
        {
          "internalType": "uint256",
          "name": "_userId",
          "type": "uint256"
        }
      ],
      "name": "withdrawBalanceStoreOwner",
      "outputs": [
        {
          "internalType": "bool",
          "name": "success",
          "type": "bool"
        }
      ],
      "stateMutability": "payable",
      "type": "function",
      "payable": true
    },
    {
      "inputs": [
        {
          "internalType": "address",
          "name": "_addr",
          "type": "address"
        },
        {
          "internalType": "uint8",
          "name": "_id",
          "type": "uint8"
        }
      ],
      "name": "disableAdmin",
      "outputs": [
        {
          "internalType": "bool",
          "name": "",
          "type": "bool"
        }
      ],
      "stateMutability": "nonpayable",
      "type": "function"
    },
    {
      "inputs": [
        {
          "internalType": "address",
          "name": "_addr",
          "type": "address"
        },
        {
          "internalType": "uint256",
          "name": "_id",
          "type": "uint256"
        },
        {
          "internalType": "uint256",
          "name": "_userId",
          "type": "uint256"
        },
        {
          "internalType": "uint256",
          "name": "_storeNumber",
          "type": "uint256"
        }
      ],
      "name": "unregisterStore",
      "outputs": [
        {
          "internalType": "bool",
          "name": "",
          "type": "bool"
        }
      ],
      "stateMutability": "nonpayable",
      "type": "function"
    },
    {
      "inputs": [
        {
          "internalType": "uint256",
          "name": "_amount",
          "type": "uint256"
        }
      ],
      "name": "withdraw",
      "outputs": [],
      "stateMutability": "payable",
      "type": "function",
      "payable": true
    }
  ],
  "bytecode": "0x60806040526012600360006101000a81548160ff021916908360ff16021790555060006008556000600960006101000a81548160ff021916908360ff1602179055506000600a556000600b556000600c556000600d556000600e553480156200006757600080fd5b506207a1206040518060400160405280600a81526020017f676d617274746f6b656e000000000000000000000000000000000000000000008152506040518060400160405280600381526020017f474d540000000000000000000000000000000000000000000000000000000000815250600360009054906101000a900460ff1660ff16600a0a8302600481905550600454600560003373ffffffffffffffffffffffffffffffffffffffff1673ffffffffffffffffffffffffffffffffffffffff16815260200190815260200160002081905550816001908051906020019062000154929190620001b7565b5080600290805190602001906200016d929190620001b7565b50505050336000806101000a81548173ffffffffffffffffffffffffffffffffffffffff021916908373ffffffffffffffffffffffffffffffffffffffff16021790555062000266565b828054600181600116156101000203166002900490600052602060002090601f016020900481019282601f10620001fa57805160ff19168380011785556200022b565b828001600101855582156200022b579182015b828111156200022a5782518255916020019190600101906200020d565b5b5090506200023a91906200023e565b5090565b6200026391905b808211156200025f57600081600090555060010162000245565b5090565b90565b616be180620002766000396000f3fe6080604052600436106102e85760003560e01c80638441a6e911610190578063bf2844b1116100dc578063e62092be11610095578063f2fde38b1161006f578063f2fde38b14611f0b578063f3af35a114611f5c578063f7b1d6a614611fe5578063fba855d0146120cf5761035a565b8063e62092be14611db4578063e724529c14611e27578063f08a38d214611e845761035a565b8063bf2844b1146119ba578063c2bd9d9514611a2a578063c9a6bbba14611ade578063cae9ca5114611b51578063dae54aea14611c5b578063dd62ed3e14611d2f5761035a565b80639e38ac1511610149578063b75fd88f11610123578063b75fd88f146117c9578063b9ed31d1146117f4578063bd20c98d14611867578063be249083146118d05761035a565b80639e38ac15146116c2578063a1b141d41461172b578063a9059cbb146117565761035a565b80638441a6e9146113ee578063860838a5146114935780638da5cb5b146114fc5780638efca0dd14611553578063927603f7146115bc57806395d89b41146116325761035a565b80634232dc021161024f57806370a082311161020857806375041491116101e2578063750414911461108157806379c65068146112ad57806379cc6790146113085780637f4607141461137b5761035a565b806370a0823114610e1257806371cb1ece14610e7757806373fcb5fc14610ef65761035a565b80634232dc02146108c557806342654a65146108f057806342966c6814610a4257806351b7a63114610a9557806360ed6b3414610c975780637048027514610da95761035a565b80632d983619116102a15780632d9836191461065d5780632e1a7d4d146106ac57806330fda732146106da578063313ce5671461074d578063347074e31461077e5780633b0f0161146107d15761035a565b806306fdde031461035f578063095ea7b3146103ef57806318160ddd1461046257806319f17c791461048d57806323b872dd1461059f5780632b7832b3146106325761035a565b3661035a577fa419615bc8fda4c87663805ee2a3597a6d71c1d476911d9892f340d965bc7bf13334604051808373ffffffffffffffffffffffffffffffffffffffff1673ffffffffffffffffffffffffffffffffffffffff1681526020018281526020019250505060405180910390a1005b600080fd5b34801561036b57600080fd5b50610374612134565b6040518080602001828103825283818151815260200191508051906020019080838360005b838110156103b4578082015181840152602081019050610399565b50505050905090810190601f1680156103e15780820380516001836020036101000a031916815260200191505b509250505060405180910390f35b3480156103fb57600080fd5b506104486004803603604081101561041257600080fd5b81019080803573ffffffffffffffffffffffffffffffffffffffff169060200190929190803590602001909291905050506121d2565b604051808215151515815260200191505060405180910390f35b34801561046e57600080fd5b506104776122c4565b6040518082815260200191505060405180910390f35b34801561049957600080fd5b5061055d600480360360408110156104b057600080fd5b81019080803590602001906401000000008111156104cd57600080fd5b8201836020820111156104df57600080fd5b8035906020019184600183028401116401000000008311171561050157600080fd5b91908080601f016020809104026020016040519081016040528093929190818152602001838380828437600081840152601f19601f820116905080830192505050505050509192919290803590602001909291905050506122ca565b604051808273ffffffffffffffffffffffffffffffffffffffff1673ffffffffffffffffffffffffffffffffffffffff16815260200191505060405180910390f35b3480156105ab57600080fd5b50610618600480360360608110156105c257600080fd5b81019080803573ffffffffffffffffffffffffffffffffffffffff169060200190929190803573ffffffffffffffffffffffffffffffffffffffff16906020019092919080359060200190929190505050612322565b604051808215151515815260200191505060405180910390f35b34801561063e57600080fd5b506106476124fb565b6040518082815260200191505060405180910390f35b34801561066957600080fd5b506106966004803603602081101561068057600080fd5b8101908080359060200190929190505050612501565b6040518082815260200191505060405180910390f35b6106d8600480360360208110156106c257600080fd5b8101908080359060200190929190505050612519565b005b3480156106e657600080fd5b50610733600480360360408110156106fd57600080fd5b81019080803573ffffffffffffffffffffffffffffffffffffffff16906020019092919080359060200190929190505050612625565b604051808215151515815260200191505060405180910390f35b34801561075957600080fd5b5061076261268d565b604051808260ff1660ff16815260200191505060405180910390f35b34801561078a57600080fd5b506107b7600480360360208110156107a157600080fd5b81019080803590602001909291905050506126a0565b604051808215151515815260200191505060405180910390f35b3480156107dd57600080fd5b506108ab600480360360608110156107f457600080fd5b810190808035906020019064010000000081111561081157600080fd5b82018360208201111561082357600080fd5b8035906020019184600183028401116401000000008311171561084557600080fd5b91908080601f016020809104026020016040519081016040528093929190818152602001838380828437600081840152601f19601f82011690508083019250505050505050919291929080359060200190929190803590602001909291905050506126c0565b604051808215151515815260200191505060405180910390f35b3480156108d157600080fd5b506108da612991565b6040518082815260200191505060405180910390f35b3480156108fc57600080fd5b506109c06004803603604081101561091357600080fd5b810190808035906020019064010000000081111561093057600080fd5b82018360208201111561094257600080fd5b8035906020019184600183028401116401000000008311171561096457600080fd5b91908080601f016020809104026020016040519081016040528093929190818152602001838380828437600081840152601f19601f82011690508083019250505050505050919291929080359060200190929190505050612997565b6040518080602001838152602001828103825284818151815260200191508051906020019080838360005b83811015610a065780820151818401526020810190506109eb565b50505050905090810190601f168015610a335780820380516001836020036101000a031916815260200191505b50935050505060405180910390f35b348015610a4e57600080fd5b50610a7b60048036036020811015610a6557600080fd5b8101908080359060200190929190505050612eea565b604051808215151515815260200191505060405180910390f35b348015610aa157600080fd5b50610c1c60048036036080811015610ab857600080fd5b81019080803573ffffffffffffffffffffffffffffffffffffffff16906020019092919080359060200190640100000000811115610af557600080fd5b820183602082011115610b0757600080fd5b80359060200191846001830284011164010000000083111715610b2957600080fd5b91908080601f016020809104026020016040519081016040528093929190818152602001838380828437600081840152601f19601f82011690508083019250505050505050919291929080359060200190640100000000811115610b8c57600080fd5b820183602082011115610b9e57600080fd5b80359060200191846001830284011164010000000083111715610bc057600080fd5b91908080601f016020809104026020016040519081016040528093929190818152602001838380828437600081840152601f19601f82011690508083019250505050505050919291929080359060200190929190505050612fec565b6040518080602001828103825283818151815260200191508051906020019080838360005b83811015610c5c578082015181840152602081019050610c41565b50505050905090810190601f168015610c895780820380516001836020036101000a031916815260200191505b509250505060405180910390f35b348015610ca357600080fd5b50610d6760048036036040811015610cba57600080fd5b8101908080359060200190640100000000811115610cd757600080fd5b820183602082011115610ce957600080fd5b80359060200191846001830284011164010000000083111715610d0b57600080fd5b91908080601f016020809104026020016040519081016040528093929190818152602001838380828437600081840152601f19601f820116905080830192505050505050509192919290803590602001909291905050506130ef565b604051808273ffffffffffffffffffffffffffffffffffffffff1673ffffffffffffffffffffffffffffffffffffffff16815260200191505060405180910390f35b348015610db557600080fd5b50610df860048036036020811015610dcc57600080fd5b81019080803573ffffffffffffffffffffffffffffffffffffffff169060200190929190505050613295565b604051808215151515815260200191505060405180910390f35b348015610e1e57600080fd5b50610e6160048036036020811015610e3557600080fd5b81019080803573ffffffffffffffffffffffffffffffffffffffff1690602001909291905050506135a2565b6040518082815260200191505060405180910390f35b348015610e8357600080fd5b50610edc60048036036060811015610e9a57600080fd5b81019080803573ffffffffffffffffffffffffffffffffffffffff169060200190929190803515159060200190929190803590602001909291905050506135ba565b604051808215151515815260200191505060405180910390f35b348015610f0257600080fd5b5061106760048036036080811015610f1957600080fd5b8101908080359060200190640100000000811115610f3657600080fd5b820183602082011115610f4857600080fd5b80359060200191846001830284011164010000000083111715610f6a57600080fd5b91908080601f016020809104026020016040519081016040528093929190818152602001838380828437600081840152601f19601f8201169050808301925050505050505091929192908035906020019092919080359060200190640100000000811115610fd757600080fd5b820183602082011115610fe957600080fd5b8035906020019184600183028401116401000000008311171561100b57600080fd5b91908080601f016020809104026020016040519081016040528093929190818152602001838380828437600081840152601f19601f82011690508083019250505050505050919291929080359060200190929190505050613839565b604051808215151515815260200191505060405180910390f35b34801561108d57600080fd5b50611293600480360360c08110156110a457600080fd5b81019080803590602001906401000000008111156110c157600080fd5b8201836020820111156110d357600080fd5b803590602001918460018302840111640100000000831117156110f557600080fd5b91908080601f016020809104026020016040519081016040528093929190818152602001838380828437600081840152601f19601f8201169050808301925050505050505091929192908035906020019064010000000081111561115857600080fd5b82018360208201111561116a57600080fd5b8035906020019184600183028401116401000000008311171561118c57600080fd5b91908080601f016020809104026020016040519081016040528093929190818152602001838380828437600081840152601f19601f82011690508083019250505050505050919291929080359060200190929190803590602001906401000000008111156111f957600080fd5b82018360208201111561120b57600080fd5b8035906020019184600183028401116401000000008311171561122d57600080fd5b91908080601f016020809104026020016040519081016040528093929190818152602001838380828437600081840152601f19601f8201169050808301925050505050505091929192908035906020019092919080359060200190929190505050613bf7565b604051808215151515815260200191505060405180910390f35b3480156112b957600080fd5b50611306600480360360408110156112d057600080fd5b81019080803573ffffffffffffffffffffffffffffffffffffffff169060200190929190803590602001909291905050506141d2565b005b34801561131457600080fd5b506113616004803603604081101561132b57600080fd5b81019080803573ffffffffffffffffffffffffffffffffffffffff169060200190929190803590602001909291905050506143c0565b604051808215151515815260200191505060405180910390f35b34801561138757600080fd5b506113d46004803603604081101561139e57600080fd5b81019080803573ffffffffffffffffffffffffffffffffffffffff169060200190929190803590602001909291905050506145d6565b604051808215151515815260200191505060405180910390f35b6114796004803603606081101561140457600080fd5b810190808035906020019064010000000081111561142157600080fd5b82018360208201111561143357600080fd5b8035906020019184600183028401116401000000008311171561145557600080fd5b909192939192939080359060200190929190803590602001909291905050506148f7565b604051808215151515815260200191505060405180910390f35b34801561149f57600080fd5b506114e2600480360360208110156114b657600080fd5b81019080803573ffffffffffffffffffffffffffffffffffffffff169060200190929190505050615175565b604051808215151515815260200191505060405180910390f35b34801561150857600080fd5b50611511615195565b604051808273ffffffffffffffffffffffffffffffffffffffff1673ffffffffffffffffffffffffffffffffffffffff16815260200191505060405180910390f35b34801561155f57600080fd5b506115a26004803603602081101561157657600080fd5b81019080803573ffffffffffffffffffffffffffffffffffffffff1690602001909291905050506151ba565b604051808215151515815260200191505060405180910390f35b3480156115c857600080fd5b50611618600480360360408110156115df57600080fd5b81019080803573ffffffffffffffffffffffffffffffffffffffff169060200190929190803560ff1690602001909291905050506151da565b604051808215151515815260200191505060405180910390f35b34801561163e57600080fd5b5061164761545e565b6040518080602001828103825283818151815260200191508051906020019080838360005b8381101561168757808201518184015260208101905061166c565b50505050905090810190601f1680156116b45780820380516001836020036101000a031916815260200191505b509250505060405180910390f35b3480156116ce57600080fd5b50611711600480360360208110156116e557600080fd5b81019080803573ffffffffffffffffffffffffffffffffffffffff1690602001909291905050506154fc565b604051808215151515815260200191505060405180910390f35b34801561173757600080fd5b5061174061551c565b6040518082815260200191505060405180910390f35b34801561176257600080fd5b506117af6004803603604081101561177957600080fd5b81019080803573ffffffffffffffffffffffffffffffffffffffff16906020019092919080359060200190929190505050615522565b604051808215151515815260200191505060405180910390f35b3480156117d557600080fd5b506117de615590565b6040518082815260200191505060405180910390f35b34801561180057600080fd5b5061184d6004803603604081101561181757600080fd5b81019080803573ffffffffffffffffffffffffffffffffffffffff16906020019092919080359060200190929190505050615596565b604051808215151515815260200191505060405180910390f35b34801561187357600080fd5b506118b66004803603602081101561188a57600080fd5b81019080803573ffffffffffffffffffffffffffffffffffffffff1690602001909291905050506155c5565b604051808215151515815260200191505060405180910390f35b3480156118dc57600080fd5b506119a0600480360360408110156118f357600080fd5b810190808035906020019064010000000081111561191057600080fd5b82018360208201111561192257600080fd5b8035906020019184600183028401116401000000008311171561194457600080fd5b91908080601f016020809104026020016040519081016040528093929190818152602001838380828437600081840152601f19601f8201169050808301925050505050505091929192908035906020019092919050505061561b565b604051808215151515815260200191505060405180910390f35b611a10600480360360608110156119d057600080fd5b81019080803573ffffffffffffffffffffffffffffffffffffffff16906020019092919080359060200190929190803590602001909291905050506156be565b604051808215151515815260200191505060405180910390f35b348015611a3657600080fd5b50611a6360048036036020811015611a4d57600080fd5b8101908080359060200190929190505050615957565b6040518080602001828103825283818151815260200191508051906020019080838360005b83811015611aa3578082015181840152602081019050611a88565b50505050905090810190601f168015611ad05780820380516001836020036101000a031916815260200191505b509250505060405180910390f35b348015611aea57600080fd5b50611b3760048036036040811015611b0157600080fd5b81019080803573ffffffffffffffffffffffffffffffffffffffff16906020019092919080359060200190929190505050615a07565b604051808215151515815260200191505060405180910390f35b348015611b5d57600080fd5b50611c4160048036036060811015611b7457600080fd5b81019080803573ffffffffffffffffffffffffffffffffffffffff1690602001909291908035906020019092919080359060200190640100000000811115611bbb57600080fd5b820183602082011115611bcd57600080fd5b80359060200191846001830284011164010000000083111715611bef57600080fd5b91908080601f016020809104026020016040519081016040528093929190818152602001838380828437600081840152601f19601f820116905080830192505050505050509192919290505050615a6f565b604051808215151515815260200191505060405180910390f35b348015611c6757600080fd5b50611cb460048036036040811015611c7e57600080fd5b81019080803573ffffffffffffffffffffffffffffffffffffffff16906020019092919080359060200190929190505050615bd7565b6040518080602001828103825283818151815260200191508051906020019080838360005b83811015611cf4578082015181840152602081019050611cd9565b50505050905090810190601f168015611d215780820380516001836020036101000a031916815260200191505b509250505060405180910390f35b348015611d3b57600080fd5b50611d9e60048036036040811015611d5257600080fd5b81019080803573ffffffffffffffffffffffffffffffffffffffff169060200190929190803573ffffffffffffffffffffffffffffffffffffffff169060200190929190505050615c94565b6040518082815260200191505060405180910390f35b348015611dc057600080fd5b50611e0d60048036036040811015611dd757600080fd5b81019080803573ffffffffffffffffffffffffffffffffffffffff16906020019092919080359060200190929190505050615cb9565b604051808215151515815260200191505060405180910390f35b348015611e3357600080fd5b50611e8260048036036040811015611e4a57600080fd5b81019080803573ffffffffffffffffffffffffffffffffffffffff169060200190929190803515159060200190929190505050615ce8565b005b348015611e9057600080fd5b50611ef160048036036080811015611ea757600080fd5b81019080803573ffffffffffffffffffffffffffffffffffffffff169060200190929190803590602001909291908035906020019092919080359060200190929190505050615e74565b604051808215151515815260200191505060405180910390f35b348015611f1757600080fd5b50611f5a60048036036020811015611f2e57600080fd5b81019080803573ffffffffffffffffffffffffffffffffffffffff1690602001909291905050506161fc565b005b348015611f6857600080fd5b50611fcb60048036036080811015611f7f57600080fd5b81019080803573ffffffffffffffffffffffffffffffffffffffff1690602001909291908035151590602001909291908035906020019092919080359060200190929190505050616301565b604051808215151515815260200191505060405180910390f35b348015611ff157600080fd5b506120b56004803603604081101561200857600080fd5b810190808035906020019064010000000081111561202557600080fd5b82018360208201111561203757600080fd5b8035906020019184600183028401116401000000008311171561205957600080fd5b91908080601f016020809104026020016040519081016040528093929190818152602001838380828437600081840152601f19601f820116905080830192505050505050509192919290803590602001909291905050506166f1565b604051808215151515815260200191505060405180910390f35b3480156120db57600080fd5b5061211e600480360360208110156120f257600080fd5b81019080803573ffffffffffffffffffffffffffffffffffffffff169060200190929190505050616736565b6040518082815260200191505060405180910390f35b60018054600181600116156101000203166002900480601f0160208091040260200160405190810160405280929190818152602001828054600181600116156101000203166002900480156121ca5780601f1061219f576101008083540402835291602001916121ca565b820191906000526020600020905b8154815290600101906020018083116121ad57829003601f168201915b505050505081565b600081600660003373ffffffffffffffffffffffffffffffffffffffff1673ffffffffffffffffffffffffffffffffffffffff16815260200190815260200160002060008573ffffffffffffffffffffffffffffffffffffffff1673ffffffffffffffffffffffffffffffffffffffff168152602001908152602001600020819055508273ffffffffffffffffffffffffffffffffffffffff163373ffffffffffffffffffffffffffffffffffffffff167f8c5be1e5ebec7d5bd14f71427d1e84f3dd0314c0f7b2291e5b200ac8c7c3b925846040518082815260200191505060405180910390a36001905092915050565b60045481565b6017828051602081018201805184825260208301602085012081835280955050505050506020528060005260406000206000915091509054906101000a900473ffffffffffffffffffffffffffffffffffffffff1681565b6000600660008573ffffffffffffffffffffffffffffffffffffffff1673ffffffffffffffffffffffffffffffffffffffff16815260200190815260200160002060003373ffffffffffffffffffffffffffffffffffffffff1673ffffffffffffffffffffffffffffffffffffffff168152602001908152602001600020548211156123ad57600080fd5b600760008573ffffffffffffffffffffffffffffffffffffffff1673ffffffffffffffffffffffffffffffffffffffff16815260200190815260200160002060009054906101000a900460ff161561240457600080fd5b600760008473ffffffffffffffffffffffffffffffffffffffff1673ffffffffffffffffffffffffffffffffffffffff16815260200190815260200160002060009054906101000a900460ff161561245b57600080fd5b81600660008673ffffffffffffffffffffffffffffffffffffffff1673ffffffffffffffffffffffffffffffffffffffff16815260200190815260200160002060003373ffffffffffffffffffffffffffffffffffffffff1673ffffffffffffffffffffffffffffffffffffffff168152602001908152602001600020600082825403925050819055506124f084848461674e565b600190509392505050565b600b5481565b60196020528060005260406000206000915090505481565b6000809054906101000a900473ffffffffffffffffffffffffffffffffffffffff1673ffffffffffffffffffffffffffffffffffffffff163373ffffffffffffffffffffffffffffffffffffffff16146125db576040517f08c379a000000000000000000000000000000000000000000000000000000000815260040180806020018281038252601c8152602001807f52657175657374206661696c65643b204e6f7420616e206f776e65720000000081525060200191505060405180910390fd5b3373ffffffffffffffffffffffffffffffffffffffff166108fc829081150290604051600060405180830381858888f19350505050158015612621573d6000803e3d6000fd5b5050565b6000600f60008473ffffffffffffffffffffffffffffffffffffffff1673ffffffffffffffffffffffffffffffffffffffff168152602001908152602001600020600083815260200190815260200160002060009054906101000a900460ff16905092915050565b600360009054906101000a900460ff1681565b60186020528060005260406000206000915054906101000a900460ff1681565b60008260011515601160003373ffffffffffffffffffffffffffffffffffffffff1673ffffffffffffffffffffffffffffffffffffffff168152602001908152602001600020600083815260200190815260200160002060009054906101000a900460ff1615151461279a576040517f08c379a00000000000000000000000000000000000000000000000000000000081526004018080602001828103825260168152602001807f41646472657373206e6f7420617574686f72697a65640000000000000000000081525060200191505060405180910390fd5b601260003373ffffffffffffffffffffffffffffffffffffffff1673ffffffffffffffffffffffffffffffffffffffff168152602001908152602001600020600084815260200190815260200160002060006127f69190616a73565b6017856040518082805190602001908083835b6020831061282c5780518252602082019150602081019050602083039250612809565b6001836020036101000a0380198251168184511680821785525050505050509050019150509081526020016040518091039020600084815260200190815260200160002060006101000a81549073ffffffffffffffffffffffffffffffffffffffff021916905560006014866040518082805190602001908083835b602083106128cb57805182526020820191506020810190506020830392506128a8565b6001836020036101000a0380198251168184511680821785525050505050509050019150509081526020016040518091039020600085815260200190815260200160002060006101000a81548160ff0219169083151502179055506001600d600082825403925050819055503373ffffffffffffffffffffffffffffffffffffffff167ff0d9d157410ce0dd627a64caaef943950c3e149d9ac393179729ec71c342026d846040518082815260200191505060405180910390a260019150509392505050565b600e5481565b606060008260011515601160003373ffffffffffffffffffffffffffffffffffffffff1673ffffffffffffffffffffffffffffffffffffffff168152602001908152602001600020600083815260200190815260200160002060009054906101000a900460ff16151514612a73576040517f08c379a00000000000000000000000000000000000000000000000000000000081526004018080602001828103825260168152602001807f41646472657373206e6f7420617574686f72697a65640000000000000000000081525060200191505060405180910390fd5b60006001600d6000828254019250508190559050600042905060006001905060603389858585604051602001808673ffffffffffffffffffffffffffffffffffffffff1673ffffffffffffffffffffffffffffffffffffffff1681526020018060200185815260200184815260200183151515158152602001828103825286818151815260200191508051906020019080838360005b83811015612b24578082015181840152602081019050612b09565b50505050905090810190601f168015612b515780820380516001836020036101000a031916815260200191505b50965050505050505060405160208183030381529060405290506000151560148a6040518082805190602001908083835b60208310612ba55780518252602082019150602081019050602083039250612b82565b6001836020036101000a0380198251168184511680821785525050505050509050019150509081526020016040518091039020600086815260200190815260200160002060009054906101000a900460ff16151514612c6c576040517f08c379a00000000000000000000000000000000000000000000000000000000081526004018080602001828103825260138152602001807f53746f726520616c72656164792065786973740000000000000000000000000081525060200191505060405180910390fd5b80601260003373ffffffffffffffffffffffffffffffffffffffff1673ffffffffffffffffffffffffffffffffffffffff16815260200190815260200160002060008681526020019081526020016000209080519060200190612cd0929190616abb565b50600160148a6040518082805190602001908083835b60208310612d095780518252602082019150602081019050602083039250612ce6565b6001836020036101000a0380198251168184511680821785525050505050509050019150509081526020016040518091039020600086815260200190815260200160002060006101000a81548160ff0219169083151502179055503360178a6040518082805190602001908083835b60208310612d9b5780518252602082019150602081019050602083039250612d78565b6001836020036101000a0380198251168184511680821785525050505050509050019150509081526020016040518091039020600086815260200190815260200160002060006101000a81548173ffffffffffffffffffffffffffffffffffffffff021916908373ffffffffffffffffffffffffffffffffffffffff1602179055503373ffffffffffffffffffffffffffffffffffffffff167fbdd7e2a0dd74ed76fd574d8cb822d88a7dcb0beab257b24d8fd274ed8919ec8c8a866040518080602001838152602001828103825284818151815260200191508051906020019080838360005b83811015612e9d578082015181840152602081019050612e82565b50505050905090810190601f168015612eca5780820380516001836020036101000a031916815260200191505b50935050505060405180910390a288849650965050505050509250929050565b600081600560003373ffffffffffffffffffffffffffffffffffffffff1673ffffffffffffffffffffffffffffffffffffffff168152602001908152602001600020541015612f3857600080fd5b81600560003373ffffffffffffffffffffffffffffffffffffffff1673ffffffffffffffffffffffffffffffffffffffff16815260200190815260200160002060008282540392505081905550816004600082825403925050819055503373ffffffffffffffffffffffffffffffffffffffff167fcc16f5dbb4873280815c1ee09dbd06736cffcc184412cf7a71a0fdb75d397ca5836040518082815260200191505060405180910390a260019050919050565b601360205283600052604060002083805160208101820180518482526020830160208501208183528095505050505050828051602081018201805184825260208301602085012081835280955050505050506020528060005260406000206000935093505050508054600181600116156101000203166002900480601f0160208091040260200160405190810160405280929190818152602001828054600181600116156101000203166002900480156130e75780601f106130bc576101008083540402835291602001916130e7565b820191906000526020600020905b8154815290600101906020018083116130ca57829003601f168201915b505050505081565b6000600115156014846040518082805190602001908083835b6020831061312b5780518252602082019150602081019050602083039250613108565b6001836020036101000a0380198251168184511680821785525050505050509050019150509081526020016040518091039020600084815260200190815260200160002060009054906101000a900460ff161515146131f2576040517f08c379a00000000000000000000000000000000000000000000000000000000081526004018080602001828103825260148152602001807f53746f726520646f6573206e6f7420657869737400000000000000000000000081525060200191505060405180910390fd5b6017836040518082805190602001908083835b602083106132285780518252602082019150602081019050602083039250613205565b6001836020036101000a0380198251168184511680821785525050505050509050019150509081526020016040518091039020600083815260200190815260200160002060009054906101000a900473ffffffffffffffffffffffffffffffffffffffff16905092915050565b60008060009054906101000a900473ffffffffffffffffffffffffffffffffffffffff1673ffffffffffffffffffffffffffffffffffffffff163373ffffffffffffffffffffffffffffffffffffffff1614613359576040517f08c379a000000000000000000000000000000000000000000000000000000000815260040180806020018281038252601c8152602001807f52657175657374206661696c65643b204e6f7420616e206f776e65720000000081525060200191505060405180910390fd5b6003600b5411156133d2576040517f08c379a00000000000000000000000000000000000000000000000000000000081526004018080602001828103825260198152602001807f4d61782061646d696e2072656163686564202d2d3e205b335d0000000000000081525060200191505060405180910390fd5b600073ffffffffffffffffffffffffffffffffffffffff168273ffffffffffffffffffffffffffffffffffffffff161415613475576040517f08c379a000000000000000000000000000000000000000000000000000000000815260040180806020018281038252600f8152602001807f496e76616c69642061646472657373000000000000000000000000000000000081525060200191505060405180910390fd5b60006001600b540190506001600f60008573ffffffffffffffffffffffffffffffffffffffff1673ffffffffffffffffffffffffffffffffffffffff168152602001908152602001600020600083815260200190815260200160002060006101000a81548160ff0219169083151502179055506001600b600082825401925050819055508273ffffffffffffffffffffffffffffffffffffffff167f71614071b88dee5e0b2ae578a9dd7b2ebbe9ae832ba419dc0242cd065a290b6c60405160405180910390a2600f60008473ffffffffffffffffffffffffffffffffffffffff1673ffffffffffffffffffffffffffffffffffffffff168152602001908152602001600020600082815260200190815260200160002060009054906101000a900460ff16915050919050565b60056020528060005260406000206000915090505481565b60008060009054906101000a900473ffffffffffffffffffffffffffffffffffffffff1673ffffffffffffffffffffffffffffffffffffffff163373ffffffffffffffffffffffffffffffffffffffff161461367e576040517f08c379a000000000000000000000000000000000000000000000000000000000815260040180806020018281038252601c8152602001807f52657175657374206661696c65643b204e6f7420616e206f776e65720000000081525060200191505060405180910390fd5b60011515600f60008673ffffffffffffffffffffffffffffffffffffffff1673ffffffffffffffffffffffffffffffffffffffff168152602001908152602001600020600084815260200190815260200160002060009054906101000a900460ff16151514613755576040517f08c379a00000000000000000000000000000000000000000000000000000000081526004018080602001828103825260118152602001807f4e6f7420616c726561647920616464656400000000000000000000000000000081525060200191505060405180910390fd5b6001151583151514156137c3576001601060008673ffffffffffffffffffffffffffffffffffffffff1673ffffffffffffffffffffffffffffffffffffffff16815260200190815260200160002060006101000a81548160ff02191690831515021790555060019050613832565b600015158315151415613831576000601060008673ffffffffffffffffffffffffffffffffffffffff1673ffffffffffffffffffffffffffffffffffffffff16815260200190815260200160002060006101000a81548160ff02191690831515021790555060009050613832565b5b9392505050565b60008360011515601160003373ffffffffffffffffffffffffffffffffffffffff1673ffffffffffffffffffffffffffffffffffffffff168152602001908152602001600020600083815260200190815260200160002060009054906101000a900460ff16151514613913576040517f08c379a00000000000000000000000000000000000000000000000000000000081526004018080602001828103825260168152602001807f41646472657373206e6f7420617574686f72697a65640000000000000000000081525060200191505060405180910390fd5b8383600115156018600083815260200190815260200160002060009054906101000a900460ff161515146139af576040517f08c379a00000000000000000000000000000000000000000000000000000000081526004018080602001828103825260138152602001807f4974656d20646f6573206e6f742065786973740000000000000000000000000081525060200191505060405180910390fd5b601360003373ffffffffffffffffffffffffffffffffffffffff1673ffffffffffffffffffffffffffffffffffffffff168152602001908152602001600020886040518082805190602001908083835b60208310613a2257805182526020820191506020810190506020830392506139ff565b6001836020036101000a0380198251168184511680821785525050505050509050019150509081526020016040518091039020866040518082805190602001908083835b60208310613a895780518252602082019150602081019050602083039250613a66565b6001836020036101000a038019825116818451168082178552505050505050905001915050908152602001604051809103902060008681526020019081526020016000206000613ad99190616a73565b601960008681526020019081526020016000206000905560006018600087815260200190815260200160002060006101000a81548160ff0219169083151502179055506001600e600082825403925050819055503373ffffffffffffffffffffffffffffffffffffffff167fa180aa81864bcb17fad00b76731c7d27c305afb22020cf673270600c6025d0b887876040518080602001838152602001828103825284818151815260200191508051906020019080838360005b83811015613bad578082015181840152602081019050613b92565b50505050905090810190601f168015613bda5780820380516001836020036101000a031916815260200191505b50935050505060405180910390a260019350505050949350505050565b60008160011515601160003373ffffffffffffffffffffffffffffffffffffffff1673ffffffffffffffffffffffffffffffffffffffff168152602001908152602001600020600083815260200190815260200160002060009054906101000a900460ff16151514613cd1576040517f08c379a00000000000000000000000000000000000000000000000000000000081526004018080602001828103825260168152602001807f41646472657373206e6f7420617574686f72697a65640000000000000000000081525060200191505060405180910390fd5b60008611613d47576040517f08c379a00000000000000000000000000000000000000000000000000000000081526004018080602001828103825260148152602001807f50726963652063616e6e6f74206265207a65726f00000000000000000000000081525060200191505060405180910390fd5b60006001600e54019050600033905060608a8988858d866040516020018080602001878152602001868152602001858152602001806020018473ffffffffffffffffffffffffffffffffffffffff1673ffffffffffffffffffffffffffffffffffffffff168152602001838103835289818151815260200191508051906020019080838360005b83811015613de9578082015181840152602081019050613dce565b50505050905090810190601f168015613e165780820380516001836020036101000a031916815260200191505b50838103825285818151815260200191508051906020019080838360005b83811015613e4f578082015181840152602081019050613e34565b50505050905090810190601f168015613e7c5780820380516001836020036101000a031916815260200191505b5098505050505050505050604051602081830303815290604052905080601360003373ffffffffffffffffffffffffffffffffffffffff1673ffffffffffffffffffffffffffffffffffffffff168152602001908152602001600020896040518082805190602001908083835b60208310613f0c5780518252602082019150602081019050602083039250613ee9565b6001836020036101000a03801982511681845116808217855250505050505090500191505090815260200160405180910390208c6040518082805190602001908083835b60208310613f735780518252602082019150602081019050602083039250613f50565b6001836020036101000a038019825116818451168082178552505050505050905001915050908152602001604051809103902060008581526020019081526020016000209080519060200190613fca929190616abb565b506001601660003373ffffffffffffffffffffffffffffffffffffffff1673ffffffffffffffffffffffffffffffffffffffff16815260200190815260200160002060006101000a81548160ff02191690831515021790555060016018600085815260200190815260200160002060006101000a81548160ff02191690831515021790555080601560008581526020019081526020016000209080519060200190614076929190616abb565b508660196000858152602001908152602001600020819055506001600e600082825401925050819055503373ffffffffffffffffffffffffffffffffffffffff167f772cc3a8e77f72eb5acf7b3a43da99bf21604939d49108bdd445da7c9c137a218c83604051808060200180602001838103835285818151815260200191508051906020019080838360005b8381101561411e578082015181840152602081019050614103565b50505050905090810190601f16801561414b5780820380516001836020036101000a031916815260200191505b50838103825284818151815260200191508051906020019080838360005b83811015614184578082015181840152602081019050614169565b50505050905090810190601f1680156141b15780820380516001836020036101000a031916815260200191505b5094505050505060405180910390a260019450505050509695505050505050565b6000809054906101000a900473ffffffffffffffffffffffffffffffffffffffff1673ffffffffffffffffffffffffffffffffffffffff163373ffffffffffffffffffffffffffffffffffffffff1614614294576040517f08c379a000000000000000000000000000000000000000000000000000000000815260040180806020018281038252601c8152602001807f52657175657374206661696c65643b204e6f7420616e206f776e65720000000081525060200191505060405180910390fd5b80600560008473ffffffffffffffffffffffffffffffffffffffff1673ffffffffffffffffffffffffffffffffffffffff16815260200190815260200160002060008282540192505081905550806004600082825401925050819055503073ffffffffffffffffffffffffffffffffffffffff16600073ffffffffffffffffffffffffffffffffffffffff167fddf252ad1be2c89b69c2b068fc378daa952ba7f163c4a11628f55a4df523b3ef836040518082815260200191505060405180910390a38173ffffffffffffffffffffffffffffffffffffffff163073ffffffffffffffffffffffffffffffffffffffff167fddf252ad1be2c89b69c2b068fc378daa952ba7f163c4a11628f55a4df523b3ef836040518082815260200191505060405180910390a35050565b600081600560008573ffffffffffffffffffffffffffffffffffffffff1673ffffffffffffffffffffffffffffffffffffffff16815260200190815260200160002054101561440e57600080fd5b600660008473ffffffffffffffffffffffffffffffffffffffff1673ffffffffffffffffffffffffffffffffffffffff16815260200190815260200160002060003373ffffffffffffffffffffffffffffffffffffffff1673ffffffffffffffffffffffffffffffffffffffff1681526020019081526020016000205482111561449757600080fd5b81600560008573ffffffffffffffffffffffffffffffffffffffff1673ffffffffffffffffffffffffffffffffffffffff1681526020019081526020016000206000828254039250508190555081600660008573ffffffffffffffffffffffffffffffffffffffff1673ffffffffffffffffffffffffffffffffffffffff16815260200190815260200160002060003373ffffffffffffffffffffffffffffffffffffffff1673ffffffffffffffffffffffffffffffffffffffff16815260200190815260200160002060008282540392505081905550816004600082825403925050819055508273ffffffffffffffffffffffffffffffffffffffff167fcc16f5dbb4873280815c1ee09dbd06736cffcc184412cf7a71a0fdb75d397ca5836040518082815260200191505060405180910390a26001905092915050565b60008160011515600f60003373ffffffffffffffffffffffffffffffffffffffff1673ffffffffffffffffffffffffffffffffffffffff168152602001908152602001600020600083815260200190815260200160002060009054906101000a900460ff161515146146b0576040517f08c379a00000000000000000000000000000000000000000000000000000000081526004018080602001828103825260168152602001807f4e6f7420417574686f72697a656420616464726573730000000000000000000081525060200191505060405180910390fd5b60011515601060003373ffffffffffffffffffffffffffffffffffffffff1673ffffffffffffffffffffffffffffffffffffffff16815260200190815260200160002060009054906101000a900460ff16151514614776576040517f08c379a000000000000000000000000000000000000000000000000000000000815260040180806020018281038252600e8152602001807f4e6f7420417574686f72697a656400000000000000000000000000000000000081525060200191505060405180910390fd5b600073ffffffffffffffffffffffffffffffffffffffff168473ffffffffffffffffffffffffffffffffffffffff161415614819576040517f08c379a000000000000000000000000000000000000000000000000000000000815260040180806020018281038252600f8152602001807f496e76616c69642061646472657373000000000000000000000000000000000081525060200191505060405180910390fd5b60006001600c540190506001601160008773ffffffffffffffffffffffffffffffffffffffff1673ffffffffffffffffffffffffffffffffffffffff168152602001908152602001600020600083815260200190815260200160002060006101000a81548160ff0219169083151502179055506001600c600082825401925050819055508473ffffffffffffffffffffffffffffffffffffffff167f7a8a0bce5482e96787ebd6c2b39c8a3ba934bd7418f05e073fb7102f7a71af5a826040518082815260200191505060405180910390a260019250505092915050565b600084848080601f016020809104026020016040519081016040528093929190818152602001838380828437600081840152601f19601f8201169050808301925050505050505082600115156018600083815260200190815260200160002060009054906101000a900460ff161515146149d9576040517f08c379a00000000000000000000000000000000000000000000000000000000081526004018080602001828103825260138152602001807f4974656d20646f6573206e6f742065786973740000000000000000000000000081525060200191505060405180910390fd5b6060601560008681526020019081526020016000208054600181600116156101000203166002900480601f016020809104026020016040519081016040528092919081815260200182805460018160011615610100020316600290048015614a825780601f10614a5757610100808354040283529160200191614a82565b820191906000526020600020905b815481529060010190602001808311614a6557829003601f168201915b505050505090506000349050606060008060008060008780602001905160c0811015614aad57600080fd5b8101908080516040519392919084640100000000821115614acd57600080fd5b83820191506020820185811115614ae357600080fd5b8251866001820283011164010000000082111715614b0057600080fd5b8083526020830192505050908051906020019080838360005b83811015614b34578082015181840152602081019050614b19565b50505050905090810190601f168015614b615780820380516001836020036101000a031916815260200191505b50604052602001805190602001909291908051906020019092919080519060200190929190805190602001909291908051906020019092919050505095509550955095509550955060008d11614c1f576040517f08c379a00000000000000000000000000000000000000000000000000000000081526004018080602001828103825260108152602001807f496e76616c6964207175616e746974790000000000000000000000000000000081525060200191505060405180910390fd5b6000878e029050878e8281614c3057fe5b0414614ca4576040517f08c379a00000000000000000000000000000000000000000000000000000000081526004018080602001828103825260108152602001807f4f766572666c6f772073706f747465640000000000000000000000000000000081525060200191505060405180910390fd5b80600560003373ffffffffffffffffffffffffffffffffffffffff1673ffffffffffffffffffffffffffffffffffffffff168152602001908152602001600020541015614d59576040517f08c379a00000000000000000000000000000000000000000000000000000000081526004018080602001828103825260158152602001807f496e7375666669636569656e742062616c616e6365000000000000000000000081525060200191505060405180910390fd5b848e1115614db2576040517f08c379a0000000000000000000000000000000000000000000000000000000008152600401808060200182810382526025815260200180616b876025913960400191505060405180910390fd5b80881015614e0b576040517f08c379a0000000000000000000000000000000000000000000000000000000008152600401808060200182810382526026815260200180616b616026913960400191505060405180910390fd5b80600560003373ffffffffffffffffffffffffffffffffffffffff1673ffffffffffffffffffffffffffffffffffffffff1681526020019081526020016000206000828254039250508190555080600560008473ffffffffffffffffffffffffffffffffffffffff1673ffffffffffffffffffffffffffffffffffffffff168152602001908152602001600020600082825401925050819055506000601660008473ffffffffffffffffffffffffffffffffffffffff1673ffffffffffffffffffffffffffffffffffffffff16815260200190815260200160002060006101000a81548160ff0219169083151502179055506001601660003373ffffffffffffffffffffffffffffffffffffffff1673ffffffffffffffffffffffffffffffffffffffff16815260200190815260200160002060006101000a81548160ff0219169083151502179055508d850394506000851415614fe8576000601860008f815260200190815260200160002060006101000a81548160ff021916908315150217905550601560008e81526020019081526020016000206000614fae9190616a73565b601960008e8152602001908152602001600020600090556001600e6000828254039250508190555060019b5050505050505050505061516b565b600085111561510a57818787878787604051602001808773ffffffffffffffffffffffffffffffffffffffff1673ffffffffffffffffffffffffffffffffffffffff16815260200180602001868152602001858152602001848152602001838152602001828103825287818151815260200191508051906020019080838360005b83811015615084578082015181840152602081019050615069565b50505050905090810190601f1680156150b15780820380516001836020036101000a031916815260200191505b50975050505050505050604051602081830303815290604052601560008f815260200190815260200160002090805190602001906150f0929190616abb565b508460196000868152602001908152602001600020819055505b6001600a600082825401925050819055601a60003373ffffffffffffffffffffffffffffffffffffffff1673ffffffffffffffffffffffffffffffffffffffff1681526020019081526020016000208190555060019b505050505050505050505b5050949350505050565b60076020528060005260406000206000915054906101000a900460ff1681565b6000809054906101000a900473ffffffffffffffffffffffffffffffffffffffff1681565b60106020528060005260406000206000915054906101000a900460ff1681565b60008060009054906101000a900473ffffffffffffffffffffffffffffffffffffffff1673ffffffffffffffffffffffffffffffffffffffff163373ffffffffffffffffffffffffffffffffffffffff161461529e576040517f08c379a000000000000000000000000000000000000000000000000000000000815260040180806020018281038252601c8152602001807f52657175657374206661696c65643b204e6f7420616e206f776e65720000000081525060200191505060405180910390fd5b60011515600f60008573ffffffffffffffffffffffffffffffffffffffff1673ffffffffffffffffffffffffffffffffffffffff16815260200190815260200160002060008460ff16815260200190815260200160002060009054906101000a900460ff16151514615378576040517f08c379a00000000000000000000000000000000000000000000000000000000081526004018080602001828103825260148152602001807f4e6f7420616e2061646d696e20616c726561647900000000000000000000000081525060200191505060405180910390fd5b6000600f60008573ffffffffffffffffffffffffffffffffffffffff1673ffffffffffffffffffffffffffffffffffffffff16815260200190815260200160002060008460ff16815260200190815260200160002060006101000a81548160ff0219169083151502179055506001600b60008282540392505081905550600f60008473ffffffffffffffffffffffffffffffffffffffff1673ffffffffffffffffffffffffffffffffffffffff16815260200190815260200160002060008360ff16815260200190815260200160002060009054906101000a900460ff16905092915050565b60028054600181600116156101000203166002900480601f0160208091040260200160405190810160405280929190818152602001828054600181600116156101000203166002900480156154f45780601f106154c9576101008083540402835291602001916154f4565b820191906000526020600020905b8154815290600101906020018083116154d757829003601f168201915b505050505081565b60166020528060005260406000206000915054906101000a900460ff1681565b600d5481565b6000600760008473ffffffffffffffffffffffffffffffffffffffff1673ffffffffffffffffffffffffffffffffffffffff16815260200190815260200160002060009054906101000a900460ff161561557b57600080fd5b61558633848461674e565b6001905092915050565b600c5481565b60116020528160005260406000206020528060005260406000206000915091509054906101000a900460ff1681565b6000601060008373ffffffffffffffffffffffffffffffffffffffff1673ffffffffffffffffffffffffffffffffffffffff16815260200190815260200160002060009054906101000a900460ff169050919050565b60006014836040518082805190602001908083835b602083106156535780518252602082019150602081019050602083039250615630565b6001836020036101000a0380198251168184511680821785525050505050509050019150509081526020016040518091039020600083815260200190815260200160002060009054906101000a900460ff16156156b357600190506156b8565b600090505b92915050565b60008160011515601160003373ffffffffffffffffffffffffffffffffffffffff1673ffffffffffffffffffffffffffffffffffffffff168152602001908152602001600020600083815260200190815260200160002060009054906101000a900460ff16151514615798576040517f08c379a00000000000000000000000000000000000000000000000000000000081526004018080602001828103825260168152602001807f41646472657373206e6f7420617574686f72697a65640000000000000000000081525060200191505060405180910390fd5b83600560003373ffffffffffffffffffffffffffffffffffffffff1673ffffffffffffffffffffffffffffffffffffffff16815260200190815260200160002054101561584d576040517f08c379a00000000000000000000000000000000000000000000000000000000081526004018080602001828103825260158152602001807f496e7375666669636569656e742062616c616e6365000000000000000000000081525060200191505060405180910390fd5b83600560003373ffffffffffffffffffffffffffffffffffffffff1673ffffffffffffffffffffffffffffffffffffffff1681526020019081526020016000206000828254039250508190555083600560008773ffffffffffffffffffffffffffffffffffffffff1673ffffffffffffffffffffffffffffffffffffffff168152602001908152602001600020600082825401925050819055508473ffffffffffffffffffffffffffffffffffffffff163373ffffffffffffffffffffffffffffffffffffffff167f2717ead6b9200dd235aad468c9809ea400fe33ac69b5bfaa6d3e90fc922b6398866040518082815260200191505060405180910390a3819150509392505050565b60156020528060005260406000206000915090508054600181600116156101000203166002900480601f0160208091040260200160405190810160405280929190818152602001828054600181600116156101000203166002900480156159ff5780601f106159d4576101008083540402835291602001916159ff565b820191906000526020600020905b8154815290600101906020018083116159e257829003601f168201915b505050505081565b6000601160008473ffffffffffffffffffffffffffffffffffffffff1673ffffffffffffffffffffffffffffffffffffffff168152602001908152602001600020600083815260200190815260200160002060009054906101000a900460ff16905092915050565b600080849050615a7f85856121d2565b15615bce578073ffffffffffffffffffffffffffffffffffffffff16638f4ffcb1338630876040518563ffffffff1660e01b8152600401808573ffffffffffffffffffffffffffffffffffffffff1673ffffffffffffffffffffffffffffffffffffffff1681526020018481526020018373ffffffffffffffffffffffffffffffffffffffff1673ffffffffffffffffffffffffffffffffffffffff16815260200180602001828103825283818151815260200191508051906020019080838360005b83811015615b5d578082015181840152602081019050615b42565b50505050905090810190601f168015615b8a5780820380516001836020036101000a031916815260200191505b5095505050505050600060405180830381600087803b158015615bac57600080fd5b505af1158015615bc0573d6000803e3d6000fd5b505050506001915050615bd0565b505b9392505050565b6012602052816000526040600020602052806000526040600020600091509150508054600181600116156101000203166002900480601f016020809104026020016040519081016040528092919081815260200182805460018160011615610100020316600290048015615c8c5780601f10615c6157610100808354040283529160200191615c8c565b820191906000526020600020905b815481529060010190602001808311615c6f57829003601f168201915b505050505081565b6006602052816000526040600020602052806000526040600020600091509150505481565b600f6020528160005260406000206020528060005260406000206000915091509054906101000a900460ff1681565b6000809054906101000a900473ffffffffffffffffffffffffffffffffffffffff1673ffffffffffffffffffffffffffffffffffffffff163373ffffffffffffffffffffffffffffffffffffffff1614615daa576040517f08c379a000000000000000000000000000000000000000000000000000000000815260040180806020018281038252601c8152602001807f52657175657374206661696c65643b204e6f7420616e206f776e65720000000081525060200191505060405180910390fd5b80600760008473ffffffffffffffffffffffffffffffffffffffff1673ffffffffffffffffffffffffffffffffffffffff16815260200190815260200160002060006101000a81548160ff0219169083151502179055507f48335238b4855f35377ed80f164e8c6f3c366e54ac00b96a6402d4a9814a03a58282604051808373ffffffffffffffffffffffffffffffffffffffff1673ffffffffffffffffffffffffffffffffffffffff168152602001821515151581526020019250505060405180910390a15050565b60008360011515600f60003373ffffffffffffffffffffffffffffffffffffffff1673ffffffffffffffffffffffffffffffffffffffff168152602001908152602001600020600083815260200190815260200160002060009054906101000a900460ff16151514615f4e576040517f08c379a00000000000000000000000000000000000000000000000000000000081526004018080602001828103825260168152602001807f4e6f7420417574686f72697a656420616464726573730000000000000000000081525060200191505060405180910390fd5b60011515601060003373ffffffffffffffffffffffffffffffffffffffff1673ffffffffffffffffffffffffffffffffffffffff16815260200190815260200160002060009054906101000a900460ff16151514616014576040517f08c379a000000000000000000000000000000000000000000000000000000000815260040180806020018281038252600e8152602001807f4e6f7420417574686f72697a656400000000000000000000000000000000000081525060200191505060405180910390fd5b60011515601160008873ffffffffffffffffffffffffffffffffffffffff1673ffffffffffffffffffffffffffffffffffffffff168152602001908152602001600020600086815260200190815260200160002060009054906101000a900460ff161515146160eb576040517f08c379a00000000000000000000000000000000000000000000000000000000081526004018080602001828103825260168152602001807f41646472657373206e6f7420617574686f72697a65640000000000000000000081525060200191505060405180910390fd5b6000806000806000604051602001808660ff1681526020018560ff1681526020018460ff1681526020018360ff1681526020018260ff16815260200195505050505050604051602081830303815290604052601260008873ffffffffffffffffffffffffffffffffffffffff1673ffffffffffffffffffffffffffffffffffffffff168152602001908152602001600020600085815260200190815260200160002090805190602001906161a0929190616abb565b508573ffffffffffffffffffffffffffffffffffffffff167fff171ea27985d4229a811de7ef2f1ed40c3edf34b09e008db519cdc0feb5d2b0846040518082815260200191505060405180910390a26001915050949350505050565b6000809054906101000a900473ffffffffffffffffffffffffffffffffffffffff1673ffffffffffffffffffffffffffffffffffffffff163373ffffffffffffffffffffffffffffffffffffffff16146162be576040517f08c379a000000000000000000000000000000000000000000000000000000000815260040180806020018281038252601c8152602001807f52657175657374206661696c65643b204e6f7420616e206f776e65720000000081525060200191505060405180910390fd5b806000806101000a81548173ffffffffffffffffffffffffffffffffffffffff021916908373ffffffffffffffffffffffffffffffffffffffff16021790555050565b60008260011515600f60003373ffffffffffffffffffffffffffffffffffffffff1673ffffffffffffffffffffffffffffffffffffffff168152602001908152602001600020600083815260200190815260200160002060009054906101000a900460ff161515146163db576040517f08c379a00000000000000000000000000000000000000000000000000000000081526004018080602001828103825260168152602001807f4e6f7420417574686f72697a656420616464726573730000000000000000000081525060200191505060405180910390fd5b60011515601060003373ffffffffffffffffffffffffffffffffffffffff1673ffffffffffffffffffffffffffffffffffffffff16815260200190815260200160002060009054906101000a900460ff161515146164a1576040517f08c379a000000000000000000000000000000000000000000000000000000000815260040180806020018281038252600e8152602001807f4e6f7420417574686f72697a656400000000000000000000000000000000000081525060200191505060405180910390fd5b60011515601160008873ffffffffffffffffffffffffffffffffffffffff1673ffffffffffffffffffffffffffffffffffffffff168152602001908152602001600020600085815260200190815260200160002060009054906101000a900460ff16151514616578576040517f08c379a00000000000000000000000000000000000000000000000000000000081526004018080602001828103825260118152602001807f4e6f7420616c726561647920616464656400000000000000000000000000000081525060200191505060405180910390fd5b600115158515151480156165ed575060011515601160008873ffffffffffffffffffffffffffffffffffffffff1673ffffffffffffffffffffffffffffffffffffffff168152602001908152602001600020600085815260200190815260200160002060009054906101000a900460ff161515145b156165fb57600091506166e8565b60011515601160008873ffffffffffffffffffffffffffffffffffffffff1673ffffffffffffffffffffffffffffffffffffffff168152602001908152602001600020600085815260200190815260200160002060009054906101000a900460ff161515148015616670575060001515851515145b156166e7576000601160008873ffffffffffffffffffffffffffffffffffffffff1673ffffffffffffffffffffffffffffffffffffffff168152602001908152602001600020600085815260200190815260200160002060006101000a81548160ff021916908315150217905550600191506166e8565b5b50949350505050565b6014828051602081018201805184825260208301602085012081835280955050505050506020528060005260406000206000915091509054906101000a900460ff1681565b601a6020528060005260406000206000915090505481565b600073ffffffffffffffffffffffffffffffffffffffff168273ffffffffffffffffffffffffffffffffffffffff16141561678857600080fd5b80600560008573ffffffffffffffffffffffffffffffffffffffff1673ffffffffffffffffffffffffffffffffffffffff1681526020019081526020016000205410156167d457600080fd5b600560008373ffffffffffffffffffffffffffffffffffffffff1673ffffffffffffffffffffffffffffffffffffffff1681526020019081526020016000205481600560008573ffffffffffffffffffffffffffffffffffffffff1673ffffffffffffffffffffffffffffffffffffffff16815260200190815260200160002054011161686057600080fd5b6000600560008473ffffffffffffffffffffffffffffffffffffffff1673ffffffffffffffffffffffffffffffffffffffff16815260200190815260200160002054600560008673ffffffffffffffffffffffffffffffffffffffff1673ffffffffffffffffffffffffffffffffffffffff1681526020019081526020016000205401905081600560008673ffffffffffffffffffffffffffffffffffffffff1673ffffffffffffffffffffffffffffffffffffffff1681526020019081526020016000206000828254039250508190555081600560008573ffffffffffffffffffffffffffffffffffffffff1673ffffffffffffffffffffffffffffffffffffffff168152602001908152602001600020600082825401925050819055508273ffffffffffffffffffffffffffffffffffffffff168473ffffffffffffffffffffffffffffffffffffffff167fddf252ad1be2c89b69c2b068fc378daa952ba7f163c4a11628f55a4df523b3ef846040518082815260200191505060405180910390a380600560008573ffffffffffffffffffffffffffffffffffffffff1673ffffffffffffffffffffffffffffffffffffffff16815260200190815260200160002054600560008773ffffffffffffffffffffffffffffffffffffffff1673ffffffffffffffffffffffffffffffffffffffff168152602001908152602001600020540114616a6d57fe5b50505050565b50805460018160011615610100020316600290046000825580601f10616a995750616ab8565b601f016020900490600052602060002090810190616ab79190616b3b565b5b50565b828054600181600116156101000203166002900490600052602060002090601f016020900481019282601f10616afc57805160ff1916838001178555616b2a565b82800160010185558215616b2a579182015b82811115616b29578251825591602001919060010190616b0e565b5b509050616b379190616b3b565b5090565b616b5d91905b80821115616b59576000816000905550600101616b41565b5090565b9056fe416d6f756e742063616e6e6f74206265206c657373207468616e20746f74616c20707269636543616e6e6f74206578636565642073656c6c657227732070726573657420616d6f756e742ea26469706673582212203fd27259f7abcc7bb116dc1991b5d1371cd8a0576dba0fbb38a173b1ec87bf0964736f6c63430006010033",
  "source": "// SPDX-License-Identifier: MIT\r\npragma solidity ^0.6.0;\r\n// pragma experimental ABIEncoderV2;\r\n\r\ninterface tokenRecipient { \r\n    function receiveApproval(address _from, uint256 _value, address _token, bytes calldata _extraData) external;\r\n}\r\n\r\ncontract TokenERC20 {\r\n    // Public variables of the token\r\n    address public owner;\r\n    string public name;\r\n    string public symbol;\r\n    uint8 public decimals = 18;\r\n    uint256 public totalSupply;\r\n    \r\n    // An array with all balances \r\n    mapping (address => uint256) public balanceOf;\r\n    mapping (address => mapping (address => uint256)) public allowance;\r\n    mapping (address => bool) public frozenAccounts;\r\n    \r\n    \r\n    // This generates a public event on the blockchain that will notify clients\r\n    event Transfer(address indexed from, address indexed to, uint256 value);\r\n    // Alerts client when an account is frozen\r\n    event FrozenFunds(address target, bool frozen);\r\n    // Publishes event on the blockchain that will notify clients\r\n    event Approval(address indexed _owner, address indexed _spender, uint256 _value);\r\n    // Notifies clients about the amount burnt\r\n    event Burn(address indexed from, uint256 value);\r\n\r\n    //Only sender with owner Authorization is permiitted\r\n    modifier onlyOwner() {\r\n        require(msg.sender == owner, \"Request failed; Not an owner\");\r\n        _;\r\n    }\r\n\r\n    /**\r\n     * Constrctor function\r\n     *\r\n     * Initializes contract with initial supply tokens to the creator of the contract\r\n     */\r\n    constructor(\r\n        uint256 initialSupply,\r\n        string memory tokenName,\r\n        string memory tokenSymbol\r\n    ) public {\r\n        totalSupply = initialSupply * 10 ** uint256(decimals);  // Update total supply with the decimal amount\r\n        balanceOf[msg.sender] = totalSupply;                // Give the creator all initial tokens\r\n        name = tokenName;                                   // Set the name for display purposes\r\n        symbol = tokenSymbol;                               // Set the symbol for display purposes\r\n    }\r\n    /**\r\n     * Internal transfer, only can be called by this contract\r\n     */\r\n    function _transfer(address _from, address _to, uint _value) internal {\r\n        // Prevent transfer to 0x0 address. Use burn() instead\r\n        require(_to != address(0));\r\n        // Check if the sender has enough\r\n        require(balanceOf[_from] >= _value);\r\n        // Check for overflows\r\n        require(balanceOf[_to] + _value > balanceOf[_to]);\r\n        // Save this for an assertion in the future\r\n        uint previousBalances = balanceOf[_from] + balanceOf[_to];\r\n        // Subtract from the sender\r\n        balanceOf[_from] -= _value;\r\n        // Add the same to the recipient\r\n        balanceOf[_to] += _value;\r\n        emit Transfer(_from, _to, _value);\r\n        // Asserts are used to use static analysis to find bugs in your code. They should never fail\r\n        assert(balanceOf[_from] + balanceOf[_to] == previousBalances);\r\n    }\r\n\r\n       // @notice Create `mintedAmount` tokens and send it to `target`\r\n    // @param target Address to receive the tokens\r\n    // @param mintedAmount the amount of tokens it will receive\r\n    function mintToken(address target, uint256 mintedAmount) onlyOwner public {\r\n        balanceOf[target] += mintedAmount;\r\n        totalSupply += mintedAmount;\r\n        emit Transfer(address(0), address(this), mintedAmount);\r\n        emit Transfer(address(this), target, mintedAmount);\r\n    }\r\n    \r\n    // @notice `freeze? Prevent | Allow` `target` from sending & receiving tokens\r\n    // @param target Address to be frozen\r\n    // @param freeze either to freeze it or not\r\n    function freezeAccount(address target, bool freeze) onlyOwner public {\r\n        frozenAccounts[target] = freeze;\r\n        emit FrozenFunds(target, freeze);\r\n    }\r\n\r\n    /**\r\n     * Transfer tokens\r\n     *\r\n     * Send `_value` tokens to `_to` from your account\r\n     *\r\n     * @param _to The address of the recipient\r\n     * @param _value the amount to send\r\n     */\r\n    function transfer(address _to, uint256 _value) public returns (bool success) {\r\n        require(!frozenAccounts[_to]);\r\n        _transfer(msg.sender, _to, _value);\r\n        return true;\r\n    }\r\n    /**\r\n     * Transfer tokens from other address\r\n     *\r\n     * Send `_value` tokens to `_to` in behalf of `_from`\r\n     *\r\n     * @param _from The address of the sender\r\n     * @param _to The address of the recipient\r\n     * @param _value the amount to send\r\n     */\r\n    function transferFrom(address _from, address _to, uint256 _value) public returns (bool success) {\r\n        require(_value <= allowance[_from][msg.sender]); // Check allowance amount\r\n        require(!frozenAccounts[_from]);        // Check if sender is frozen\r\n        require(!frozenAccounts[_to]);          // Check if recipient is frozen\r\n        allowance[_from][msg.sender] -= _value;\r\n        _transfer(_from, _to, _value);\r\n        return true;\r\n    }\r\n\r\n    /**\r\n     * Set allowance for other address\r\n     *\r\n     * Allows `_spender`: to spend no more than `_value` tokens in your behalf\r\n     *\r\n     * @param _spender: The address authorized to spend\r\n     * @param _value: the max amount they can spend\r\n     */\r\n    function approve(address _spender, uint256 _value) public returns (bool success) {\r\n        allowance[msg.sender][_spender] = _value;\r\n        emit Approval(msg.sender, _spender, _value);\r\n        return true;\r\n    }\r\n    /**\r\n     * Set allowance for other address and notify\r\n     *\r\n     * Allows `_spender` to spend no more than `_value` tokens on your behalf, and then ping the contract about it\r\n     *\r\n     * @param _spender: The address authorized to spend\r\n     * @param _value: the max amount they can spend\r\n     * @param _extraData :some extra information to send to the approved contract\r\n     */\r\n    function approveAndCall(address _spender, uint256 _value, bytes memory _extraData)\r\n        public\r\n        returns (bool success) {\r\n        tokenRecipient spender = tokenRecipient(_spender);\r\n        if (approve(_spender, _value)) {\r\n            spender.receiveApproval(msg.sender, _value, address(this), _extraData);\r\n            return true;\r\n        }\r\n    }\r\n    /**\r\n     * Destroy tokens\r\n     *\r\n     * Remove `_value` tokens from the system irreversibly\r\n     *\r\n     * @param _value the amount of money to burn\r\n     */\r\n    function burn(uint256 _value) public returns (bool success) {\r\n        require(balanceOf[msg.sender] >= _value);   // Check if the sender has enough\r\n        balanceOf[msg.sender] -= _value;            // Subtract from the sender\r\n        totalSupply -= _value;                      // Updates totalSupply\r\n        emit Burn(msg.sender, _value);\r\n        return true;\r\n    }\r\n    /**\r\n     * Destroy tokens from other account\r\n     *\r\n     * Remove `_value` tokens from the system irreversibly on behalf of `_from`.\r\n     *\r\n     * @param _from the address of the sender\r\n     * @param _value the amount of money to burn\r\n     */\r\n    function burnFrom(address _from, uint256 _value) public returns (bool success) {\r\n        require(balanceOf[_from] >= _value);                // Check if the targeted balance is enough\r\n        require(_value <= allowance[_from][msg.sender]);    // Check allowance\r\n        balanceOf[_from] -= _value;                         // Subtract from the targeted balance\r\n        allowance[_from][msg.sender] -= _value;             // Subtract from the sender's allowance\r\n        totalSupply -= _value;                              // Update totalSupply\r\n        emit Burn(_from, _value);\r\n        return true;\r\n    }\r\n    \r\n}\r\n\r\n// Online MarketPlace running on the blockchain\r\ncontract GMart is TokenERC20{\r\n    \r\n    uint totalItem = 0;\r\n    uint8 defaultId_storeOwner = 0;\r\n    uint shoppers_count = 0;\r\n    uint public adminCount = 0;\r\n    uint256 public storeOwnersCount = 0;\r\n    uint256 public storeCount = 0;\r\n    uint256 public itemcount = 0;\r\n\r\n    event ApprovedStoreOwner(address indexed _addr, uint256 _userId);\r\n    event NewAdmin(address indexed _addr);\r\n    event NewStoreFront(address indexed _msgsender, string _storeName, uint _storeNum);\r\n    event UnregisteredStore(address indexed _storeOwnerAddress, uint256 _storeNumber);\r\n    event DeletedStore(address indexed _msgsender, uint256 _storeNumber);\r\n    event NewItem(address indexed _addr, string _itemName, bytes _itemRef);\r\n    event PriceChange(bytes _referenceId, uint256 _newSetPrice);\r\n    event Withdrawal(address indexed _from, address indexed _to, uint _amount);\r\n    event RemovedItem(address indexed _msgsender, string _itemName, uint _id);\r\n    event ReceivedEther(address, uint);\r\n    \r\n     // This generates a public event on the blockchain that will notify clients\r\n    event Transfer(address indexed from, address indexed to, uint256 value);\r\n    \r\n    // Public event on the blockchain that will notify clients\r\n    event Approval(address indexed _owner, address indexed _spender, uint256 _value);\r\n    // Notifies clients about the amount burnt\r\n    event Burn(address indexed from, uint256 value);\r\n    \r\n    // An array with all balances s\r\n    mapping(address => mapping(uint => bool)) public  isAdmin;\r\n    mapping(address => bool) public adminApprovalToAdd;\r\n    mapping(address => mapping(uint => bool)) public isStoreOwnerApproved;\r\n    mapping(address => mapping(uint256 => bytes)) public storefrontRef;\r\n    mapping(address => mapping(string => mapping(string => mapping(uint => bytes)))) public storefrontRefItemMap;\r\n    mapping(string => mapping(uint => bool)) public storeExist;\r\n    mapping(uint => bytes) public itemsList;\r\n    mapping(address => bool) public ownerShip;\r\n    mapping(string => mapping(uint => address)) public storeOwners;\r\n    mapping(uint => bool) public availableItems;\r\n    mapping(uint => uint) public itemBalance;\r\n    mapping(address => uint256) public shoppers;\r\n    \r\n    // Initialized at deployment time.\r\n    /**\r\n     * Constrctor function\r\n     *\r\n     * Initializes contract with initial supply tokens to the creator of the contract\r\n     */\r\n    constructor() TokenERC20(500000, \"gmarttoken\", \"GMT\") public {\r\n        owner = msg.sender;\r\n    }\r\n\r\n    //Only sender with admin role is permiitted\r\n    modifier onlyAdmin(uint _id) {\r\n        require(isAdmin[msg.sender][_id] == true, \"Not Authorized address\");\r\n        require(adminApprovalToAdd[msg.sender] == true, \"Not Authorized\");\r\n        _;\r\n    }\r\n    //Only approved store owner is allowed\r\n    modifier approvedStoreOwner(uint256 _id) {\r\n        require(isStoreOwnerApproved[msg.sender][_id] == true, \"Address not authorized\");\r\n        // require(storeOwnerApprovalToAddItem[msg.sender] == true, \"Unauthorized to add Item to store\");\r\n        _;\r\n    }\r\n    //Check if an item exist in a particular storefront\r\n    modifier checkItemExist(string memory _item, uint _itemNumber) {\r\n        require(availableItems[_itemNumber] == true, \"Item does not exist\");\r\n        _;\r\n    }\r\n    \r\n    function transferOwnership(address _newOwner) public onlyOwner {\r\n        owner = _newOwner;\r\n    }\r\n    \r\n    // // @notice Create `mintedAmount` tokens and send it to `target`\r\n    // // @param target Address to receive the tokens\r\n    // // @param mintedAmount the amount of tokens it will receive\r\n    // function mintToken(address target, uint256 mintedAmount) onlyOwner public {\r\n    //     balanceOf[target] += mintedAmount;\r\n    //     totalSupply += mintedAmount;\r\n    //     emit Transfer(address(0), address(this), mintedAmount);\r\n    //     emit Transfer(address(this), target, mintedAmount);\r\n    // }\r\n    \r\n    // // @notice `freeze? Prevent | Allow` `target` from sending & receiving tokens\r\n    // // @param target Address to be frozen\r\n    // // @param freeze either to freeze it or not\r\n    // function freezeAccount(address target, bool freeze) onlyOwner public {\r\n    //     frozenAccounts[target] = freeze;\r\n    //     emit FrozenFunds(target, freeze);\r\n    // }\r\n\r\n    // /**\r\n    //  * Transfer tokens from other address\r\n    //  *\r\n    //  * Send `_value` tokens to `_to` in behalf of `_from`\r\n    //  *\r\n    //  * @param _from The address of the sender\r\n    //  * @param _to The address of the recipient\r\n    //  * @param _value the amount to send\r\n    //  */\r\n    // function transferTokenFrom(address _from, address _to, uint256 _value) public returns (bool success) {\r\n    //     require(!frozenAccounts[_from]);        // Check if sender is frozen\r\n    //     require(!frozenAccounts[_to]);          // Check if recipient is frozen\r\n    //     transferFrom(_from, _to, _value);\r\n    //     return true;\r\n    // }\r\n    \r\n    // /**\r\n    //  * Set allowance for other address\r\n    //  *\r\n    //  * Allows `_spender` to spend no more than `_value` tokens in your behalf\r\n    //  *\r\n    //  * @param _spender The address authorized to spend\r\n    //  * @param _value the max amount they can spend\r\n    //  */\r\n    // function approveSpender(address _spender, uint256 _value) public {\r\n    //     approve(_spender, _value);\r\n    //     emit Approval(msg.sender, _spender, _value);\r\n    // }\r\n    \r\n    // /**\r\n    //  * Set allowance for other address and notify\r\n    //  *\r\n    //  * Allows `_spender` to spend no more than `_value` tokens on your behalf, and then ping the contract about it\r\n    //  *\r\n    //  * @param _spender The address authorized to spend\r\n    //  * @param _value the max amount they can spend\r\n    //  * @param _extraData some extra information to send to the approved contract\r\n    //  */\r\n    // function approveandCall(address _spender, uint256 _value, bytes memory _extraData) public {\r\n    //     approveAndCall(_spender, _value, _extraData);\r\n    // }\r\n    \r\n    // /**\r\n    //  * Destroy tokens\r\n    //  *\r\n    //  * Remove `_value` tokens from the system irreversibly\r\n    //  *\r\n    //  * @param _value the amount of money to burn\r\n    //  */\r\n    // function burnToken(uint256 _value) public {\r\n    //     burn(_value);\r\n    // }\r\n    \r\n    //    /**\r\n    //  * Destroy tokens from other account\r\n    //  *\r\n    //  * Remove `_value` tokens from the system irreversibly on behalf of `_from`.\r\n    //  *\r\n    //  * @param _from the address of the sender\r\n    //  * @param _value the amount of money to burn\r\n    //  */\r\n    // function burnTokenFrom(address _from, uint256 _value) public {\r\n    //     burnFrom(_from, _value);\r\n        \r\n    // }\r\n    \r\n    /**\r\n     * @dev adds an adminList\r\n     * function is called only by the authorized owner address\r\n     */\r\n    function addAdmin(address _addr) public onlyOwner returns(bool){\r\n        require(adminCount <= 3, \"Max admin reached --> [3]\");\r\n        require(_addr != address(0), \"Invalid address\");\r\n        uint id = adminCount + 1;\r\n        isAdmin[_addr][id] = true;\r\n        adminCount += 1;\r\n        emit NewAdmin(_addr);\r\n        return isAdmin[_addr][id];\r\n    }\r\n\r\n    function checkIsAdmin(address _addr, uint _id) public view returns(bool) {\r\n        return (isAdmin[_addr][_id]);\r\n    }\r\n\r\n    function checkIfAdmincanAdd(address _addr) public view returns(bool) {\r\n        return(adminApprovalToAdd[_addr]);\r\n    }\r\n\r\n    function checkStoreOwnerApproved(address _addr, uint256 _id) public view returns(bool) {\r\n        return isStoreOwnerApproved[_addr][_id];\r\n    }\r\n    \r\n    function approve_StoreOwner(address _addr, uint _id) public onlyAdmin(_id) returns(bool) {\r\n        require(_addr != address(0), \"Invalid address\");\r\n        // StoreOwners memory _ownerStruct = storeOwnerMap[_addr];\r\n        uint256 id = storeOwnersCount + 1;\r\n        isStoreOwnerApproved[_addr][id] = true;\r\n        storeOwnersCount += 1;\r\n        emit ApprovedStoreOwner(_addr, id);\r\n        return true;\r\n    }\r\n    \r\n    function changeAdminApproval(address _addr, bool _approval, uint _id) public onlyOwner returns(bool) {\r\n        require(isAdmin[_addr][_id] == true, \"Not already added\");\r\n        if(_approval == true){\r\n            adminApprovalToAdd[_addr] = true;\r\n            return true;\r\n        } else if(_approval == false){\r\n            adminApprovalToAdd[_addr] = false;\r\n            return false;\r\n        }\r\n    }\r\n    \r\n    function changeStoreOwnerApproval(\r\n        address _addr,\r\n        bool _approval,\r\n        uint _adminId,\r\n        uint256 _storeOwnerId\r\n        ) public onlyAdmin(_adminId) returns(bool){\r\n        require(isStoreOwnerApproved[_addr][_storeOwnerId] == true, \"Not already added\");\r\n        if(_approval == true && isStoreOwnerApproved[_addr][_storeOwnerId] == true){\r\n            return false;\r\n        }else if(isStoreOwnerApproved[_addr][_storeOwnerId] == true && _approval == false){\r\n            isStoreOwnerApproved[_addr][_storeOwnerId] = false;\r\n            return true;\r\n        }\r\n        \r\n    }\r\n\r\n    /**\r\n    * StoreOwners Registers a new storefront. \r\n    * currently a participant self-adding strorefront\r\n    * param: _storeName: Name of the store.\r\n    */\r\n    function addStorefront(\r\n         string memory _storeName,\r\n         uint256 _userId\r\n         ) public approvedStoreOwner(_userId) returns(string memory, uint) {\r\n         uint256 _storeNumber = storeCount += 1;\r\n         uint256 dateCreated = now;\r\n         bool _active = true;\r\n         bytes memory _storefrontRef = abi.encode(msg.sender, _storeName, _storeNumber, dateCreated, _active);\r\n         require(storeExist[_storeName][_storeNumber] == false, \"Store already exist\" );\r\n         storefrontRef[msg.sender][_storeNumber] = _storefrontRef;\r\n         storeExist[_storeName][_storeNumber] = true;\r\n         storeOwners[_storeName][_storeNumber] = msg.sender;\r\n         emit NewStoreFront(msg.sender, _storeName, _storeNumber);\r\n         return (_storeName, _storeNumber);\r\n        \r\n     }\r\n\r\n    function ifStoreExist(string memory _name, uint _storeNumber) public view returns(bool) {\r\n        if(storeExist[_name][_storeNumber]){\r\n            return true;\r\n        }else{\r\n            return false;\r\n        }\r\n     }\r\n     \r\n    function getStoreOwner(string memory _name, uint _id) public view returns(address) {\r\n        require(storeExist[_name][_id] == true, \"Store does not exist\" );\r\n        return(storeOwners[_name][_id]);\r\n     }\r\n     \r\n          /**\r\n     * StoreOwners Registers a new item to shelve. \r\n     * param: _itemName: Name of an item.\r\n     * param: _description: Detail of an item.\r\n     * param: _price: unit price of an item.\r\n     * param: _storeref: A unique  Id to the store.\r\n     * param: _quantity: Unit of ireferencetem to add.\r\n     */\r\n     \r\n    function addItemToStore(\r\n        string memory _itemName,\r\n        string memory _description,\r\n        uint _price,\r\n        string memory _storeName,\r\n        uint _qnty,\r\n        uint256 _userId\r\n        )public \r\n        approvedStoreOwner(_userId)\r\n        returns(bool)\r\n        {\r\n            require(_price > 0, \"Price cannot be zero\");\r\n            uint256 itemNumber = itemcount + 1;\r\n            address _seller = msg.sender;\r\n            bytes memory _itemref = abi.encode(\r\n                _itemName,\r\n                _price,\r\n                _qnty,\r\n                itemNumber,\r\n                _description,\r\n                _seller\r\n                );\r\n                storefrontRefItemMap[msg.sender][_storeName][_itemName][itemNumber] = _itemref;\r\n                ownerShip[msg.sender] = true;\r\n                availableItems[itemNumber] = true;\r\n                itemsList[itemNumber] = _itemref;\r\n                itemBalance[itemNumber] = _qnty;\r\n                itemcount += 1;\r\n                emit NewItem(msg.sender, _itemName, _itemref);\r\n                return true;\r\n            \r\n        }\r\n     \r\n    function removeAnItem(\r\n        string memory _storeName,\r\n        uint256 _userId,\r\n        string memory _itemName,\r\n        uint _itemNumber\r\n        )\r\n        public\r\n        approvedStoreOwner(_userId)\r\n        checkItemExist(_itemName, _itemNumber)\r\n        returns(bool){\r\n        delete storefrontRefItemMap[msg.sender][_storeName][_itemName][_itemNumber];\r\n        delete itemBalance[_itemNumber];\r\n        availableItems[_itemNumber] = false;\r\n        itemcount -= 1;\r\n        emit RemovedItem(msg.sender, _itemName, _itemNumber);\r\n        return true;\r\n     }\r\n\r\n    function removeAStore(\r\n        string memory _storeName,\r\n        uint256 _userId,\r\n        uint256 _storeNumber\r\n        ) public approvedStoreOwner(_userId) returns(bool) {\r\n        delete storefrontRef[msg.sender][_storeNumber];\r\n        delete storeOwners[_storeName][_storeNumber];\r\n        storeExist[_storeName][_storeNumber] = false;\r\n        storeCount -= 1;\r\n        emit DeletedStore(msg.sender, _storeNumber);\r\n        return true;\r\n      }\r\n\r\n    function buyItem(\r\n        string calldata _name,\r\n        uint _qnty,\r\n        uint _itemNumber\r\n        )external payable checkItemExist(_name, _itemNumber) returns(bool) \r\n        {\r\n            bytes memory _itemToBuy = itemsList[_itemNumber];\r\n            uint256 _offer = msg.value;\r\n            (\r\n                string memory name,\r\n                uint price,\r\n                uint quantity,\r\n                uint itemNumber,\r\n                bytes32 description,\r\n                address sellerAddress) = abi.decode(_itemToBuy, (string, uint, uint, uint, bytes32, address));\r\n                require(_qnty > 0, \"Invalid quantity\");\r\n                uint amountToPay = _qnty * _offer;\r\n                require(amountToPay / _qnty == _offer, \"Overflow spotted\");\r\n                require(balanceOf[msg.sender] >= amountToPay, \"Insufficeient balance\");\r\n                require(_qnty <= quantity, \"Cannot exceed seller's preset amount.\");\r\n                require(_offer >= amountToPay, \"Amount cannot be less than total price\");\r\n                balanceOf[msg.sender] -= amountToPay;\r\n                balanceOf[sellerAddress] += amountToPay;\r\n                ownerShip[sellerAddress] = false;\r\n                ownerShip[msg.sender] = true;\r\n                quantity -= _qnty;\r\n                if(quantity == 0){\r\n                    availableItems[_itemNumber] = false;\r\n                    delete itemsList[_itemNumber];\r\n                    delete itemBalance[_itemNumber];\r\n                    itemcount -= 1;\r\n                    return true;\r\n                }else if(quantity > 0){\r\n                    itemsList[_itemNumber] = abi.encode(sellerAddress, name, price, quantity, itemNumber, description);\r\n                    itemBalance[itemNumber] = quantity;\r\n                }\r\n                shoppers[msg.sender] = shoppers_count += 1;\r\n                return true;\r\n     }\r\n     \r\n    function withdrawBalanceStoreOwner(address payable _addr, uint _amount, uint256 _userId) external payable approvedStoreOwner(_userId) returns(bool success) {\r\n         require(balanceOf[msg.sender] >= _amount, \"Insufficeient balance\");\r\n         balanceOf[msg.sender] -= _amount;\r\n         balanceOf[_addr] += _amount;\r\n         emit Withdrawal(msg.sender, _addr, _amount);\r\n         return success;\r\n     }\r\n    \r\n    function disableAdmin(address _addr, uint8 _id) public onlyOwner returns(bool) {\r\n        require(isAdmin[_addr][_id] == true, \"Not an admin already\");\r\n        isAdmin[_addr][_id] = false;\r\n        adminCount -= 1;\r\n        return isAdmin[_addr][_id];\r\n    }\r\n    \r\n    /**\r\n     * @dev UnRegisters a store from the Storefront \r\n     * currently only an admin is able to remove store\r\n     */\r\n    function unregisterStore(address _addr, uint _id, uint256 _userId, uint256 _storeNumber) public onlyAdmin(_id) returns(bool) {\r\n        require(isStoreOwnerApproved[_addr][_userId] == true, \"Address not authorized\");\r\n        storefrontRef[_addr][_storeNumber] = abi.encode(0, 0, 0, 0, 0);\r\n        // storeOwnerApprovalToAddItem[_addr] == false;\r\n        emit UnregisteredStore(_addr, _storeNumber);\r\n        return true;\r\n    }\r\n    \r\n    //@dev Withdraw funds\r\n    function withdraw(uint _amount) onlyOwner public payable{\r\n        msg.sender.transfer(_amount);\r\n    }\r\n    \r\n    receive() external payable {\r\n        emit ReceivedEther(msg.sender, msg.value);\r\n    }\r\n    \r\n}    ",
  "sourcePath": "C:/Users/OWNER/Desktop/bootFinalProject/consensys-finalProject/contracts/GMart.sol",
  "compiler": {
    "name": "solc",
    "version": "0.6.1+commit.e6f7d5a4.Emscripten.clang"
  },
  "schemaVersion": "3.2.5",
  "updatedAt": "2020-12-10T00:27:57.278Z",
  "networkType": "ethereum",
  "devdoc": {
    "methods": {
      "addAdmin(address)": {
        "details": "adds an adminList function is called only by the authorized owner address"
      },
      "approve(address,uint256)": {
        "params": {
          "_spender": ": The address authorized to spend",
          "_value": ": the max amount they can spend"
        }
      },
      "approveAndCall(address,uint256,bytes)": {
        "params": {
          "_extraData": ":some extra information to send to the approved contract",
          "_spender": ": The address authorized to spend",
          "_value": ": the max amount they can spend"
        }
      },
      "burn(uint256)": {
        "params": {
          "_value": "the amount of money to burn"
        }
      },
      "burnFrom(address,uint256)": {
        "params": {
          "_from": "the address of the sender",
          "_value": "the amount of money to burn"
        }
      },
      "transfer(address,uint256)": {
        "params": {
          "_to": "The address of the recipient",
          "_value": "the amount to send"
        }
      },
      "transferFrom(address,address,uint256)": {
        "params": {
          "_from": "The address of the sender",
          "_to": "The address of the recipient",
          "_value": "the amount to send"
        }
      },
      "unregisterStore(address,uint256,uint256,uint256)": {
        "details": "UnRegisters a store from the Storefront  currently only an admin is able to remove store"
      }
    }
  },
  "userdoc": {
    "methods": {
      "addItemToStore(string,string,uint256,string,uint256,uint256)": {
        "notice": "StoreOwners Registers a new item to shelve.  param: _itemName: Name of an item. param: _description: Detail of an item. param: _price: unit price of an item. param: _storeref: A unique  Id to the store. param: _quantity: Unit of ireferencetem to add."
      },
      "addStorefront(string,uint256)": {
        "notice": "StoreOwners Registers a new storefront.  currently a participant self-adding strorefront param: _storeName: Name of the store."
      },
      "approve(address,uint256)": {
        "notice": "Set allowance for other address      * Allows `_spender`: to spend no more than `_value` tokens in your behalf "
      },
      "approveAndCall(address,uint256,bytes)": {
        "notice": "Set allowance for other address and notify      * Allows `_spender` to spend no more than `_value` tokens on your behalf, and then ping the contract about it "
      },
      "burn(uint256)": {
        "notice": "Destroy tokens      * Remove `_value` tokens from the system irreversibly "
      },
      "burnFrom(address,uint256)": {
        "notice": "Destroy tokens from other account      * Remove `_value` tokens from the system irreversibly on behalf of `_from`. "
      },
      "constructor": "Constrctor function      * Initializes contract with initial supply tokens to the creator of the contract",
      "transfer(address,uint256)": {
        "notice": "Transfer tokens      * Send `_value` tokens to `_to` from your account "
      },
      "transferFrom(address,address,uint256)": {
        "notice": "Transfer tokens from other address      * Send `_value` tokens to `_to` in behalf of `_from` "
      }
    }
  }
}