{
  "contractName": "TokenERC20",
  "abi": [
    {
      "inputs": [
        {
          "internalType": "uint256",
          "name": "initialSupply",
          "type": "uint256"
        },
        {
          "internalType": "string",
          "name": "tokenName",
          "type": "string"
        },
        {
          "internalType": "string",
          "name": "tokenSymbol",
          "type": "string"
        }
      ],
      "stateMutability": "nonpayable",
      "type": "constructor"
    },
    {
      "anonymous": false,
      "inputs": [
        {
          "indexed": true,
          "internalType": "address",
          "name": "_owner",
          "type": "address"
        },
        {
          "indexed": true,
          "internalType": "address",
          "name": "_spender",
          "type": "address"
        },
        {
          "indexed": false,
          "internalType": "uint256",
          "name": "_value",
          "type": "uint256"
        }
      ],
      "name": "Approval",
      "type": "event"
    },
    {
      "anonymous": false,
      "inputs": [
        {
          "indexed": true,
          "internalType": "address",
          "name": "from",
          "type": "address"
        },
        {
          "indexed": false,
          "internalType": "uint256",
          "name": "value",
          "type": "uint256"
        }
      ],
      "name": "Burn",
      "type": "event"
    },
    {
      "anonymous": false,
      "inputs": [
        {
          "indexed": false,
          "internalType": "address",
          "name": "target",
          "type": "address"
        },
        {
          "indexed": false,
          "internalType": "bool",
          "name": "frozen",
          "type": "bool"
        }
      ],
      "name": "FrozenFunds",
      "type": "event"
    },
    {
      "anonymous": false,
      "inputs": [
        {
          "indexed": true,
          "internalType": "address",
          "name": "from",
          "type": "address"
        },
        {
          "indexed": true,
          "internalType": "address",
          "name": "to",
          "type": "address"
        },
        {
          "indexed": false,
          "internalType": "uint256",
          "name": "value",
          "type": "uint256"
        }
      ],
      "name": "Transfer",
      "type": "event"
    },
    {
      "inputs": [
        {
          "internalType": "address",
          "name": "",
          "type": "address"
        },
        {
          "internalType": "address",
          "name": "",
          "type": "address"
        }
      ],
      "name": "allowance",
      "outputs": [
        {
          "internalType": "uint256",
          "name": "",
          "type": "uint256"
        }
      ],
      "stateMutability": "view",
      "type": "function"
    },
    {
      "inputs": [
        {
          "internalType": "address",
          "name": "",
          "type": "address"
        }
      ],
      "name": "balanceOf",
      "outputs": [
        {
          "internalType": "uint256",
          "name": "",
          "type": "uint256"
        }
      ],
      "stateMutability": "view",
      "type": "function"
    },
    {
      "inputs": [],
      "name": "decimals",
      "outputs": [
        {
          "internalType": "uint8",
          "name": "",
          "type": "uint8"
        }
      ],
      "stateMutability": "view",
      "type": "function"
    },
    {
      "inputs": [
        {
          "internalType": "address",
          "name": "",
          "type": "address"
        }
      ],
      "name": "frozenAccounts",
      "outputs": [
        {
          "internalType": "bool",
          "name": "",
          "type": "bool"
        }
      ],
      "stateMutability": "view",
      "type": "function"
    },
    {
      "inputs": [],
      "name": "name",
      "outputs": [
        {
          "internalType": "string",
          "name": "",
          "type": "string"
        }
      ],
      "stateMutability": "view",
      "type": "function"
    },
    {
      "inputs": [],
      "name": "owner",
      "outputs": [
        {
          "internalType": "address",
          "name": "",
          "type": "address"
        }
      ],
      "stateMutability": "view",
      "type": "function"
    },
    {
      "inputs": [],
      "name": "symbol",
      "outputs": [
        {
          "internalType": "string",
          "name": "",
          "type": "string"
        }
      ],
      "stateMutability": "view",
      "type": "function"
    },
    {
      "inputs": [],
      "name": "totalSupply",
      "outputs": [
        {
          "internalType": "uint256",
          "name": "",
          "type": "uint256"
        }
      ],
      "stateMutability": "view",
      "type": "function"
    },
    {
      "inputs": [
        {
          "internalType": "address",
          "name": "target",
          "type": "address"
        },
        {
          "internalType": "uint256",
          "name": "mintedAmount",
          "type": "uint256"
        }
      ],
      "name": "mintToken",
      "outputs": [],
      "stateMutability": "nonpayable",
      "type": "function"
    },
    {
      "inputs": [
        {
          "internalType": "address",
          "name": "target",
          "type": "address"
        },
        {
          "internalType": "bool",
          "name": "freeze",
          "type": "bool"
        }
      ],
      "name": "freezeAccount",
      "outputs": [],
      "stateMutability": "nonpayable",
      "type": "function"
    },
    {
      "inputs": [
        {
          "internalType": "address",
          "name": "_to",
          "type": "address"
        },
        {
          "internalType": "uint256",
          "name": "_value",
          "type": "uint256"
        }
      ],
      "name": "transfer",
      "outputs": [
        {
          "internalType": "bool",
          "name": "success",
          "type": "bool"
        }
      ],
      "stateMutability": "nonpayable",
      "type": "function"
    },
    {
      "inputs": [
        {
          "internalType": "address",
          "name": "_from",
          "type": "address"
        },
        {
          "internalType": "address",
          "name": "_to",
          "type": "address"
        },
        {
          "internalType": "uint256",
          "name": "_value",
          "type": "uint256"
        }
      ],
      "name": "transferFrom",
      "outputs": [
        {
          "internalType": "bool",
          "name": "success",
          "type": "bool"
        }
      ],
      "stateMutability": "nonpayable",
      "type": "function"
    },
    {
      "inputs": [
        {
          "internalType": "address",
          "name": "_spender",
          "type": "address"
        },
        {
          "internalType": "uint256",
          "name": "_value",
          "type": "uint256"
        }
      ],
      "name": "approve",
      "outputs": [
        {
          "internalType": "bool",
          "name": "success",
          "type": "bool"
        }
      ],
      "stateMutability": "nonpayable",
      "type": "function"
    },
    {
      "inputs": [
        {
          "internalType": "address",
          "name": "_spender",
          "type": "address"
        },
        {
          "internalType": "uint256",
          "name": "_value",
          "type": "uint256"
        },
        {
          "internalType": "bytes",
          "name": "_extraData",
          "type": "bytes"
        }
      ],
      "name": "approveAndCall",
      "outputs": [
        {
          "internalType": "bool",
          "name": "success",
          "type": "bool"
        }
      ],
      "stateMutability": "nonpayable",
      "type": "function"
    },
    {
      "inputs": [
        {
          "internalType": "uint256",
          "name": "_value",
          "type": "uint256"
        }
      ],
      "name": "burn",
      "outputs": [
        {
          "internalType": "bool",
          "name": "success",
          "type": "bool"
        }
      ],
      "stateMutability": "nonpayable",
      "type": "function"
    },
    {
      "inputs": [
        {
          "internalType": "address",
          "name": "_from",
          "type": "address"
        },
        {
          "internalType": "uint256",
          "name": "_value",
          "type": "uint256"
        }
      ],
      "name": "burnFrom",
      "outputs": [
        {
          "internalType": "bool",
          "name": "success",
          "type": "bool"
        }
      ],
      "stateMutability": "nonpayable",
      "type": "function"
    }
  ],
  "bytecode": "0x60806040526012600360006101000a81548160ff021916908360ff1602179055503480156200002d57600080fd5b5060405162001afa38038062001afa833981810160405260608110156200005357600080fd5b8101908080519060200190929190805160405193929190846401000000008211156200007e57600080fd5b838201915060208201858111156200009557600080fd5b8251866001820283011164010000000082111715620000b357600080fd5b8083526020830192505050908051906020019080838360005b83811015620000e9578082015181840152602081019050620000cc565b50505050905090810190601f168015620001175780820380516001836020036101000a031916815260200191505b50604052602001805160405193929190846401000000008211156200013b57600080fd5b838201915060208201858111156200015257600080fd5b82518660018202830111640100000000821117156200017057600080fd5b8083526020830192505050908051906020019080838360005b83811015620001a657808201518184015260208101905062000189565b50505050905090810190601f168015620001d45780820380516001836020036101000a031916815260200191505b50604052505050600360009054906101000a900460ff1660ff16600a0a8302600481905550600454600560003373ffffffffffffffffffffffffffffffffffffffff1673ffffffffffffffffffffffffffffffffffffffff168152602001908152602001600020819055508160019080519060200190620002579291906200027a565b508060029080519060200190620002709291906200027a565b5050505062000329565b828054600181600116156101000203166002900490600052602060002090601f016020900481019282601f10620002bd57805160ff1916838001178555620002ee565b82800160010185558215620002ee579182015b82811115620002ed578251825591602001919060010190620002d0565b5b509050620002fd919062000301565b5090565b6200032691905b808211156200032257600081600090555060010162000308565b5090565b90565b6117c180620003396000396000f3fe608060405234801561001057600080fd5b50600436106101005760003560e01c806379cc679011610097578063a9059cbb11610066578063a9059cbb14610531578063cae9ca5114610597578063dd62ed3e14610694578063e724529c1461070c57610100565b806379cc6790146103a2578063860838a5146104085780638da5cb5b1461046457806395d89b41146104ae57610100565b8063313ce567116100d3578063313ce5671461029257806342966c68146102b657806370a08231146102fc57806379c650681461035457610100565b806306fdde0314610105578063095ea7b31461018857806318160ddd146101ee57806323b872dd1461020c575b600080fd5b61010d61075c565b6040518080602001828103825283818151815260200191508051906020019080838360005b8381101561014d578082015181840152602081019050610132565b50505050905090810190601f16801561017a5780820380516001836020036101000a031916815260200191505b509250505060405180910390f35b6101d46004803603604081101561019e57600080fd5b81019080803573ffffffffffffffffffffffffffffffffffffffff169060200190929190803590602001909291905050506107fa565b604051808215151515815260200191505060405180910390f35b6101f66108ec565b6040518082815260200191505060405180910390f35b6102786004803603606081101561022257600080fd5b81019080803573ffffffffffffffffffffffffffffffffffffffff169060200190929190803573ffffffffffffffffffffffffffffffffffffffff169060200190929190803590602001909291905050506108f2565b604051808215151515815260200191505060405180910390f35b61029a610acb565b604051808260ff1660ff16815260200191505060405180910390f35b6102e2600480360360208110156102cc57600080fd5b8101908080359060200190929190505050610ade565b604051808215151515815260200191505060405180910390f35b61033e6004803603602081101561031257600080fd5b81019080803573ffffffffffffffffffffffffffffffffffffffff169060200190929190505050610be0565b6040518082815260200191505060405180910390f35b6103a06004803603604081101561036a57600080fd5b81019080803573ffffffffffffffffffffffffffffffffffffffff16906020019092919080359060200190929190505050610bf8565b005b6103ee600480360360408110156103b857600080fd5b81019080803573ffffffffffffffffffffffffffffffffffffffff16906020019092919080359060200190929190505050610de6565b604051808215151515815260200191505060405180910390f35b61044a6004803603602081101561041e57600080fd5b81019080803573ffffffffffffffffffffffffffffffffffffffff169060200190929190505050610ffc565b604051808215151515815260200191505060405180910390f35b61046c61101c565b604051808273ffffffffffffffffffffffffffffffffffffffff1673ffffffffffffffffffffffffffffffffffffffff16815260200191505060405180910390f35b6104b6611041565b6040518080602001828103825283818151815260200191508051906020019080838360005b838110156104f65780820151818401526020810190506104db565b50505050905090810190601f1680156105235780820380516001836020036101000a031916815260200191505b509250505060405180910390f35b61057d6004803603604081101561054757600080fd5b81019080803573ffffffffffffffffffffffffffffffffffffffff169060200190929190803590602001909291905050506110df565b604051808215151515815260200191505060405180910390f35b61067a600480360360608110156105ad57600080fd5b81019080803573ffffffffffffffffffffffffffffffffffffffff16906020019092919080359060200190929190803590602001906401000000008111156105f457600080fd5b82018360208201111561060657600080fd5b8035906020019184600183028401116401000000008311171561062857600080fd5b91908080601f016020809104026020016040519081016040528093929190818152602001838380828437600081840152601f19601f82011690508083019250505050505050919291929050505061114d565b604051808215151515815260200191505060405180910390f35b6106f6600480360360408110156106aa57600080fd5b81019080803573ffffffffffffffffffffffffffffffffffffffff169060200190929190803573ffffffffffffffffffffffffffffffffffffffff1690602001909291905050506112b5565b6040518082815260200191505060405180910390f35b61075a6004803603604081101561072257600080fd5b81019080803573ffffffffffffffffffffffffffffffffffffffff1690602001909291908035151590602001909291905050506112da565b005b60018054600181600116156101000203166002900480601f0160208091040260200160405190810160405280929190818152602001828054600181600116156101000203166002900480156107f25780601f106107c7576101008083540402835291602001916107f2565b820191906000526020600020905b8154815290600101906020018083116107d557829003601f168201915b505050505081565b600081600660003373ffffffffffffffffffffffffffffffffffffffff1673ffffffffffffffffffffffffffffffffffffffff16815260200190815260200160002060008573ffffffffffffffffffffffffffffffffffffffff1673ffffffffffffffffffffffffffffffffffffffff168152602001908152602001600020819055508273ffffffffffffffffffffffffffffffffffffffff163373ffffffffffffffffffffffffffffffffffffffff167f8c5be1e5ebec7d5bd14f71427d1e84f3dd0314c0f7b2291e5b200ac8c7c3b925846040518082815260200191505060405180910390a36001905092915050565b60045481565b6000600660008573ffffffffffffffffffffffffffffffffffffffff1673ffffffffffffffffffffffffffffffffffffffff16815260200190815260200160002060003373ffffffffffffffffffffffffffffffffffffffff1673ffffffffffffffffffffffffffffffffffffffff1681526020019081526020016000205482111561097d57600080fd5b600760008573ffffffffffffffffffffffffffffffffffffffff1673ffffffffffffffffffffffffffffffffffffffff16815260200190815260200160002060009054906101000a900460ff16156109d457600080fd5b600760008473ffffffffffffffffffffffffffffffffffffffff1673ffffffffffffffffffffffffffffffffffffffff16815260200190815260200160002060009054906101000a900460ff1615610a2b57600080fd5b81600660008673ffffffffffffffffffffffffffffffffffffffff1673ffffffffffffffffffffffffffffffffffffffff16815260200190815260200160002060003373ffffffffffffffffffffffffffffffffffffffff1673ffffffffffffffffffffffffffffffffffffffff16815260200190815260200160002060008282540392505081905550610ac0848484611466565b600190509392505050565b600360009054906101000a900460ff1681565b600081600560003373ffffffffffffffffffffffffffffffffffffffff1673ffffffffffffffffffffffffffffffffffffffff168152602001908152602001600020541015610b2c57600080fd5b81600560003373ffffffffffffffffffffffffffffffffffffffff1673ffffffffffffffffffffffffffffffffffffffff16815260200190815260200160002060008282540392505081905550816004600082825403925050819055503373ffffffffffffffffffffffffffffffffffffffff167fcc16f5dbb4873280815c1ee09dbd06736cffcc184412cf7a71a0fdb75d397ca5836040518082815260200191505060405180910390a260019050919050565b60056020528060005260406000206000915090505481565b6000809054906101000a900473ffffffffffffffffffffffffffffffffffffffff1673ffffffffffffffffffffffffffffffffffffffff163373ffffffffffffffffffffffffffffffffffffffff1614610cba576040517f08c379a000000000000000000000000000000000000000000000000000000000815260040180806020018281038252601c8152602001807f52657175657374206661696c65643b204e6f7420616e206f776e65720000000081525060200191505060405180910390fd5b80600560008473ffffffffffffffffffffffffffffffffffffffff1673ffffffffffffffffffffffffffffffffffffffff16815260200190815260200160002060008282540192505081905550806004600082825401925050819055503073ffffffffffffffffffffffffffffffffffffffff16600073ffffffffffffffffffffffffffffffffffffffff167fddf252ad1be2c89b69c2b068fc378daa952ba7f163c4a11628f55a4df523b3ef836040518082815260200191505060405180910390a38173ffffffffffffffffffffffffffffffffffffffff163073ffffffffffffffffffffffffffffffffffffffff167fddf252ad1be2c89b69c2b068fc378daa952ba7f163c4a11628f55a4df523b3ef836040518082815260200191505060405180910390a35050565b600081600560008573ffffffffffffffffffffffffffffffffffffffff1673ffffffffffffffffffffffffffffffffffffffff168152602001908152602001600020541015610e3457600080fd5b600660008473ffffffffffffffffffffffffffffffffffffffff1673ffffffffffffffffffffffffffffffffffffffff16815260200190815260200160002060003373ffffffffffffffffffffffffffffffffffffffff1673ffffffffffffffffffffffffffffffffffffffff16815260200190815260200160002054821115610ebd57600080fd5b81600560008573ffffffffffffffffffffffffffffffffffffffff1673ffffffffffffffffffffffffffffffffffffffff1681526020019081526020016000206000828254039250508190555081600660008573ffffffffffffffffffffffffffffffffffffffff1673ffffffffffffffffffffffffffffffffffffffff16815260200190815260200160002060003373ffffffffffffffffffffffffffffffffffffffff1673ffffffffffffffffffffffffffffffffffffffff16815260200190815260200160002060008282540392505081905550816004600082825403925050819055508273ffffffffffffffffffffffffffffffffffffffff167fcc16f5dbb4873280815c1ee09dbd06736cffcc184412cf7a71a0fdb75d397ca5836040518082815260200191505060405180910390a26001905092915050565b60076020528060005260406000206000915054906101000a900460ff1681565b6000809054906101000a900473ffffffffffffffffffffffffffffffffffffffff1681565b60028054600181600116156101000203166002900480601f0160208091040260200160405190810160405280929190818152602001828054600181600116156101000203166002900480156110d75780601f106110ac576101008083540402835291602001916110d7565b820191906000526020600020905b8154815290600101906020018083116110ba57829003601f168201915b505050505081565b6000600760008473ffffffffffffffffffffffffffffffffffffffff1673ffffffffffffffffffffffffffffffffffffffff16815260200190815260200160002060009054906101000a900460ff161561113857600080fd5b611143338484611466565b6001905092915050565b60008084905061115d85856107fa565b156112ac578073ffffffffffffffffffffffffffffffffffffffff16638f4ffcb1338630876040518563ffffffff1660e01b8152600401808573ffffffffffffffffffffffffffffffffffffffff1673ffffffffffffffffffffffffffffffffffffffff1681526020018481526020018373ffffffffffffffffffffffffffffffffffffffff1673ffffffffffffffffffffffffffffffffffffffff16815260200180602001828103825283818151815260200191508051906020019080838360005b8381101561123b578082015181840152602081019050611220565b50505050905090810190601f1680156112685780820380516001836020036101000a031916815260200191505b5095505050505050600060405180830381600087803b15801561128a57600080fd5b505af115801561129e573d6000803e3d6000fd5b5050505060019150506112ae565b505b9392505050565b6006602052816000526040600020602052806000526040600020600091509150505481565b6000809054906101000a900473ffffffffffffffffffffffffffffffffffffffff1673ffffffffffffffffffffffffffffffffffffffff163373ffffffffffffffffffffffffffffffffffffffff161461139c576040517f08c379a000000000000000000000000000000000000000000000000000000000815260040180806020018281038252601c8152602001807f52657175657374206661696c65643b204e6f7420616e206f776e65720000000081525060200191505060405180910390fd5b80600760008473ffffffffffffffffffffffffffffffffffffffff1673ffffffffffffffffffffffffffffffffffffffff16815260200190815260200160002060006101000a81548160ff0219169083151502179055507f48335238b4855f35377ed80f164e8c6f3c366e54ac00b96a6402d4a9814a03a58282604051808373ffffffffffffffffffffffffffffffffffffffff1673ffffffffffffffffffffffffffffffffffffffff168152602001821515151581526020019250505060405180910390a15050565b600073ffffffffffffffffffffffffffffffffffffffff168273ffffffffffffffffffffffffffffffffffffffff1614156114a057600080fd5b80600560008573ffffffffffffffffffffffffffffffffffffffff1673ffffffffffffffffffffffffffffffffffffffff1681526020019081526020016000205410156114ec57600080fd5b600560008373ffffffffffffffffffffffffffffffffffffffff1673ffffffffffffffffffffffffffffffffffffffff1681526020019081526020016000205481600560008573ffffffffffffffffffffffffffffffffffffffff1673ffffffffffffffffffffffffffffffffffffffff16815260200190815260200160002054011161157857600080fd5b6000600560008473ffffffffffffffffffffffffffffffffffffffff1673ffffffffffffffffffffffffffffffffffffffff16815260200190815260200160002054600560008673ffffffffffffffffffffffffffffffffffffffff1673ffffffffffffffffffffffffffffffffffffffff1681526020019081526020016000205401905081600560008673ffffffffffffffffffffffffffffffffffffffff1673ffffffffffffffffffffffffffffffffffffffff1681526020019081526020016000206000828254039250508190555081600560008573ffffffffffffffffffffffffffffffffffffffff1673ffffffffffffffffffffffffffffffffffffffff168152602001908152602001600020600082825401925050819055508273ffffffffffffffffffffffffffffffffffffffff168473ffffffffffffffffffffffffffffffffffffffff167fddf252ad1be2c89b69c2b068fc378daa952ba7f163c4a11628f55a4df523b3ef846040518082815260200191505060405180910390a380600560008573ffffffffffffffffffffffffffffffffffffffff1673ffffffffffffffffffffffffffffffffffffffff16815260200190815260200160002054600560008773ffffffffffffffffffffffffffffffffffffffff1673ffffffffffffffffffffffffffffffffffffffff16815260200190815260200160002054011461178557fe5b5050505056fea2646970667358221220e92b025e99f277ab469c4d9628cd08e89a2a4dadf21714b570f1ad84aabe17b564736f6c63430006010033",
  "source": "// SPDX-License-Identifier: MIT\npragma solidity ^0.6.0;\n// pragma experimental ABIEncoderV2;\n\ninterface tokenRecipient { \n    function receiveApproval(address _from, uint256 _value, address _token, bytes calldata _extraData) external;\n}\n\ncontract TokenERC20 {\n    // Public variables of the token\n    address public owner;\n    string public name;\n    string public symbol;\n    uint8 public decimals = 18;\n    uint256 public totalSupply;\n    \n    // An array with all balances \n    mapping (address => uint256) public balanceOf;\n    mapping (address => mapping (address => uint256)) public allowance;\n    mapping (address => bool) public frozenAccounts;\n    \n    \n    // This generates a public event on the blockchain that will notify clients\n    event Transfer(address indexed from, address indexed to, uint256 value);\n    // Alerts client when an account is frozen\n    event FrozenFunds(address target, bool frozen);\n    // Publishes event on the blockchain that will notify clients\n    event Approval(address indexed _owner, address indexed _spender, uint256 _value);\n    // Notifies clients about the amount burnt\n    event Burn(address indexed from, uint256 value);\n\n    //Only sender with owner Authorization is permiitted\n    modifier onlyOwner() {\n        require(msg.sender == owner, \"Request failed; Not an owner\");\n        _;\n    }\n\n    /**\n     * Constrctor function\n     *\n     * Initializes contract with initial supply tokens to the creator of the contract\n     */\n    constructor(\n        uint256 initialSupply,\n        string memory tokenName,\n        string memory tokenSymbol\n    ) public {\n        totalSupply = initialSupply * 10 ** uint256(decimals);  // Update total supply with the decimal amount\n        balanceOf[msg.sender] = totalSupply;                // Give the creator all initial tokens\n        name = tokenName;                                   // Set the name for display purposes\n        symbol = tokenSymbol;                               // Set the symbol for display purposes\n    }\n    /**\n     * Internal transfer, only can be called by this contract\n     */\n    function _transfer(address _from, address _to, uint _value) internal {\n        // Prevent transfer to 0x0 address. Use burn() instead\n        require(_to != address(0));\n        // Check if the sender has enough\n        require(balanceOf[_from] >= _value);\n        // Check for overflows\n        require(balanceOf[_to] + _value > balanceOf[_to]);\n        // Save this for an assertion in the future\n        uint previousBalances = balanceOf[_from] + balanceOf[_to];\n        // Subtract from the sender\n        balanceOf[_from] -= _value;\n        // Add the same to the recipient\n        balanceOf[_to] += _value;\n        emit Transfer(_from, _to, _value);\n        // Asserts are used to use static analysis to find bugs in your code. They should never fail\n        assert(balanceOf[_from] + balanceOf[_to] == previousBalances);\n    }\n\n    // @notice Create `mintedAmount` tokens and send it to `target`\n    // @param target Address to receive the tokens\n    // @param mintedAmount the amount of tokens it will receive\n    function mintToken(address target, uint256 mintedAmount) onlyOwner public {\n        balanceOf[target] += mintedAmount;\n        totalSupply += mintedAmount;\n        emit Transfer(address(0), address(this), mintedAmount);\n        emit Transfer(address(this), target, mintedAmount);\n    }\n    \n    // @notice `freeze? Prevent | Allow` `target` from sending & receiving tokens\n    // @param target Address to be frozen\n    // @param freeze either to freeze it or not\n    function freezeAccount(address target, bool freeze) onlyOwner public {\n        frozenAccounts[target] = freeze;\n        emit FrozenFunds(target, freeze);\n    }\n\n    /**\n     * Transfer tokens\n     *\n     * Send `_value` tokens to `_to` from your account\n     *\n     * @param _to The address of the recipient\n     * @param _value the amount to send\n     */\n    function transfer(address _to, uint256 _value) public returns (bool success) {\n        require(!frozenAccounts[_to]);\n        _transfer(msg.sender, _to, _value);\n        return true;\n    }\n    /**\n     * Transfer tokens from other address\n     *\n     * Send `_value` tokens to `_to` in behalf of `_from`\n     *\n     * @param _from The address of the sender\n     * @param _to The address of the recipient\n     * @param _value the amount to send\n     */\n    function transferFrom(address _from, address _to, uint256 _value) public returns (bool success) {\n        require(_value <= allowance[_from][msg.sender]); // Check allowance amount\n        require(!frozenAccounts[_from]);        // Check if sender is frozen\n        require(!frozenAccounts[_to]);          // Check if recipient is frozen\n        allowance[_from][msg.sender] -= _value;\n        _transfer(_from, _to, _value);\n        return true;\n    }\n\n    /**\n     * Set allowance for other address\n     *\n     * Allows `_spender`: to spend no more than `_value` tokens in your behalf\n     *\n     * @param _spender: The address authorized to spend\n     * @param _value: the max amount they can spend\n     */\n    function approve(address _spender, uint256 _value) public returns (bool success) {\n        allowance[msg.sender][_spender] = _value;\n        emit Approval(msg.sender, _spender, _value);\n        return true;\n    }\n    /**\n     * Set allowance for other address and notify\n     *\n     * Allows `_spender` to spend no more than `_value` tokens on your behalf, and then ping the contract about it\n     *\n     * @param _spender: The address authorized to spend\n     * @param _value: the max amount they can spend\n     * @param _extraData :some extra information to send to the approved contract\n     */\n    function approveAndCall(address _spender, uint256 _value, bytes memory _extraData)\n        public\n        returns (bool success) {\n        tokenRecipient spender = tokenRecipient(_spender);\n        if (approve(_spender, _value)) {\n            spender.receiveApproval(msg.sender, _value, address(this), _extraData);\n            return true;\n        }\n    }\n    /**\n     * Destroy tokens\n     *\n     * Remove `_value` tokens from the system irreversibly\n     *\n     * @param _value the amount of money to burn\n     */\n    function burn(uint256 _value) public returns (bool success) {\n        require(balanceOf[msg.sender] >= _value);   // Check if the sender has enough\n        balanceOf[msg.sender] -= _value;            // Subtract from the sender\n        totalSupply -= _value;                      // Updates totalSupply\n        emit Burn(msg.sender, _value);\n        return true;\n    }\n    /**\n     * Destroy tokens from other account\n     *\n     * Remove `_value` tokens from the system irreversibly on behalf of `_from`.\n     *\n     * @param _from the address of the sender\n     * @param _value the amount of money to burn\n     */\n    function burnFrom(address _from, uint256 _value) public returns (bool success) {\n        require(balanceOf[_from] >= _value);                // Check if the targeted balance is enough\n        require(_value <= allowance[_from][msg.sender]);    // Check allowance\n        balanceOf[_from] -= _value;                         // Subtract from the targeted balance\n        allowance[_from][msg.sender] -= _value;             // Subtract from the sender's allowance\n        totalSupply -= _value;                              // Update totalSupply\n        emit Burn(_from, _value);\n        return true;\n    }\n    \n}\n\n// Online MarketPlace running on the blockchain\ncontract Dmarket is TokenERC20{\n    \n    uint totalItem = 0; //Total items added in contract lifetime\n    uint8 defaultId_storeOwner = 0; //preset id storeOwners\n    uint public adminCount = 0; //Numbers of Admins\n    uint256 public storeOwnersCount = 0; //All StoreOwners\n    uint256 public storeCount = 0; //Total number of stores\n    uint256 public itemcount = 0; //Total number of items\n    uint256 public shoppersCount; //All users\n    uint public etherBalance; //Balances other than custom token\n    uint public minimumDonation = 0.1 ether;\n\n    // Emits event when a storeOwner is approved\n    event ApprovedStoreOwner(address indexed _addr, uint256 _userId);\n    // Notifies the client when a new admin is added\n    event NewAdmin(address indexed _addr);\n    // Emits notification when a new store is added\n    event NewStoreFront(address indexed _msgsender, string _storeName, uint _storeNum);\n    // Emits event when a st\n    event UnregisteredStore(address indexed _storeOwnerAddress, uint256 _storeNumber);\n    event DeletedStore(address indexed _msgsender, uint256 _storeNumber);\n    event NewItem(address indexed _addr, string _itemName, bytes _itemRef);\n    event PriceChange(bytes _referenceId, uint256 _newSetPrice);\n    event Withdrawal(address indexed _from, address indexed _to, uint _amount);\n    event RemovedItem(address indexed _msgsender, string _itemName, uint _id);\n    event ReceivedEther(address, uint);\n    \n     // This generates a public event on the blockchain that will notify clients\n    event Transfer(address indexed from, address indexed to, uint256 value);\n    \n    // Public event on the blockchain that will notify clients\n    event Approval(address indexed _owner, address indexed _spender, uint256 _value);\n    // Notifies clients about the amount burnt\n    event Burn(address indexed from, uint256 value);\n    \n    mapping(address => mapping(uint => bool)) public  isAdmin; //Admins approval\n    mapping(address => bool) public adminApprovalToAdd; //Admin approval to add storeOwner\n    mapping(address => mapping(uint => bool)) public isStoreOwnerApproved; // Approvals for storeOwner\n    mapping(address => mapping(uint256 => bytes)) public storefrontRef; //List of storefront refrences/IDs\n    // References to store with Items\n    mapping(address => mapping(string => mapping(string => mapping(uint => bytes)))) public storefrontRefItemMap;\n    mapping(string => mapping(uint => bool)) public storeExist; //Check for storefront existence\n    mapping(uint => bytes) public itemsList; //List of items\n    mapping(address => bool) public ownerShip; //Ownership of items\n    mapping(string => mapping(uint => address)) public storeOwners;//List of stores with owners\n    mapping(uint => bool) public availableItems; //List of items available for sale\n    mapping(uint => uint) public itemBalance; //Item balance count\n    mapping(address => uint256) public shoppers; //All recognised Users for bounty purpose\n    \n    // Initialized at deployment time.\n    /**\n     * Constrctor function\n     *\n     * Initializes contract with initial supply tokens to the creator of the contract\n     */\n    constructor() TokenERC20(500000, \"gmarttoken\", \"GMT\") public {\n        owner = msg.sender;\n    }\n\n    //Only sender with admin role is permiitted\n    modifier onlyAdmin(uint _id) {\n        require(isAdmin[msg.sender][_id] == true, \"Not Authorized address\");\n        require(adminApprovalToAdd[msg.sender] == true, \"Not Authorized\");\n        _;\n    }\n    //Only approved store owner is allowed\n    modifier approvedStoreOwner(uint256 _id) {\n        require(isStoreOwnerApproved[msg.sender][_id] == true, \"Address not authorized\");\n        _;\n    }\n    modifier onlyAdminOrStoreOwner(uint _id) {\n        require(\n            (\n                adminApprovalToAdd[msg.sender] == true && isAdmin[msg.sender][_id] == true) || isStoreOwnerApproved[msg.sender][_id] == true,\n            \"Not Authorized address\"\n            ); _;\n    }\n\n    //Check if an item exist in a particular storefront\n    modifier checkItemExist(string memory _item, uint _itemNumber) {\n        require(availableItems[_itemNumber] == true, \"Item does not exist\");\n        _;\n    }\n    \n    // Changes ownership of this contract\n    function transferOwnership(address _newOwner) public onlyOwner {\n        owner = _newOwner;\n    }\n    \n    /**\n     * @dev adds an adminList\n     * function is called only by the authorized owner address\n     */\n    function addAdmin(address _addr) public onlyOwner returns(bool){\n        require(adminCount <= 3, \"Max admin reached --> [3]\");\n        require(_addr != address(0), \"Invalid address\");\n        uint id = adminCount + 1;\n        isAdmin[_addr][id] = true;\n        adminCount += 1;\n        emit NewAdmin(_addr);\n        return isAdmin[_addr][id];\n    }\n\n    // \n    function checkIsAdmin(address _addr, uint _id) public view returns(bool) {\n        return (isAdmin[_addr][_id]);\n    }\n\n    function checkIfAdmincanAdd(address _addr) public view returns(bool) {\n        return(adminApprovalToAdd[_addr]);\n    }\n\n    function checkStoreOwnerApproved(address _addr, uint256 _id) public view returns(bool) {\n        return isStoreOwnerApproved[_addr][_id];\n    }\n    \n    function approve_StoreOwner(address _addr, uint _id) public onlyAdmin(_id) returns(bool) {\n        require(_addr != address(0), \"Invalid address\");\n        // StoreOwners memory _ownerStruct = storeOwnerMap[_addr];\n        uint256 id = storeOwnersCount + 1;\n        isStoreOwnerApproved[_addr][id] = true;\n        storeOwnersCount += 1;\n        emit ApprovedStoreOwner(_addr, id);\n        return true;\n    }\n    \n    function changeAdminApproval(address _addr, bool _approval, uint _id) public onlyOwner returns(bool) {\n        require(isAdmin[_addr][_id] == true, \"Not already added\");\n        if(_approval == true){\n            adminApprovalToAdd[_addr] = true;\n            return true;\n        } else if(_approval == false){\n            adminApprovalToAdd[_addr] = false;\n            return false;\n        }\n    }\n    \n    function changeStoreOwnerApproval(\n        address _addr,\n        bool _approval,\n        uint _adminId,\n        uint256 _storeOwnerId\n        ) public onlyAdmin(_adminId) returns(bool){\n        require(isStoreOwnerApproved[_addr][_storeOwnerId] == true, \"Not already added\");\n        if(_approval == true && isStoreOwnerApproved[_addr][_storeOwnerId] == true){\n            return false;\n        }else if(isStoreOwnerApproved[_addr][_storeOwnerId] == true && _approval == false){\n            isStoreOwnerApproved[_addr][_storeOwnerId] = false;\n            return true;\n        }\n        \n    }\n\n    /**\n    * StoreOwners Registers a new storefront. \n    * currently a participant self-adding strorefront\n    * param: _storeName: Name of the store.\n    */\n    function addStorefront(\n         string memory _storeName,\n         uint256 _userId\n         ) public approvedStoreOwner(_userId) returns(string memory, uint) {\n         uint256 _storeNumber = storeCount += 1;\n         uint256 dateCreated = now;\n         bool _active = true;\n         bytes memory _storefrontRef = abi.encode(msg.sender, _storeName, _storeNumber, dateCreated, _active);\n         require(storeExist[_storeName][_storeNumber] == false, \"Store already exist\" );\n         storefrontRef[msg.sender][_storeNumber] = _storefrontRef;\n         storeExist[_storeName][_storeNumber] = true;\n         storeOwners[_storeName][_storeNumber] = msg.sender;\n         emit NewStoreFront(msg.sender, _storeName, _storeNumber);\n         return (_storeName, _storeNumber);\n        \n     }\n\n    function ifStoreExist(string memory _name, uint _storeNumber) public view returns(bool) {\n        if(storeExist[_name][_storeNumber]){\n            return true;\n        }else{\n            return false;\n        }\n     }\n     \n    function getStoreOwner(string memory _name, uint _id) public view returns(address) {\n        require(storeExist[_name][_id] == true, \"Store does not exist\" );\n        return(storeOwners[_name][_id]);\n     }\n     \n          /**\n     * StoreOwners Registers a new item to shelve. \n     * param: _itemName: Name of an item.\n     * param: _description: Detail of an item.\n     * param: _price: unit price of an item.\n     * param: _storeref: A unique  Id to the store.\n     * param: _quantity: Unit of ireferencetem to add.\n     */\n     \n    function addItemToStore(\n        string memory _itemName,\n        string memory _description,\n        uint _price,\n        string memory _storeName,\n        uint _qnty,\n        uint256 _userId\n        )public \n        approvedStoreOwner(_userId)\n        returns(bool)\n        {\n            require(_price > 0, \"Price cannot be zero\");\n            uint256 itemNumber = itemcount + 1;\n            address _seller = msg.sender;\n            bytes memory _itemref = abi.encode(\n                _itemName,\n                _price,\n                _qnty,\n                itemNumber,\n                _description,\n                _seller\n                );\n                storefrontRefItemMap[msg.sender][_storeName][_itemName][itemNumber] = _itemref;\n                ownerShip[msg.sender] = true;\n                availableItems[itemNumber] = true;\n                itemsList[itemNumber] = _itemref;\n                itemBalance[itemNumber] = _qnty;\n                itemcount += 1;\n                emit NewItem(msg.sender, _itemName, _itemref);\n                return true;\n            \n        }\n     \n    function removeAnItem(\n        string memory _storeName,\n        uint256 _userId,\n        string memory _itemName,\n        uint _itemNumber\n        )\n        public\n        approvedStoreOwner(_userId)\n        checkItemExist(_itemName, _itemNumber)\n        returns(bool){\n        delete storefrontRefItemMap[msg.sender][_storeName][_itemName][_itemNumber];\n        delete itemBalance[_itemNumber];\n        availableItems[_itemNumber] = false;\n        itemcount -= 1;\n        emit RemovedItem(msg.sender, _itemName, _itemNumber);\n        return true;\n     }\n\n    /**\n     * @dev UnRegisters a store from the Storefront \n     * currently only an admin is able to remove store\n     */\n    function removeAStore(\n        string memory _storeName,\n        uint256 _userId,\n        uint256 _storeNumber\n        ) public onlyAdminOrStoreOwner(_userId) returns(bool) {\n        delete storefrontRef[msg.sender][_storeNumber];\n        delete storeOwners[_storeName][_storeNumber];\n        storeExist[_storeName][_storeNumber] = false;\n        storeCount -= 1;\n        emit DeletedStore(msg.sender, _storeNumber);\n        return true;\n      }\n\n    // Shopper buys an item\n    function buyItem(\n        string calldata _name,\n        uint _qnty,\n        uint _itemNumber\n        )external payable checkItemExist(_name, _itemNumber) returns(bool) \n        {\n            bytes memory _itemToBuy = itemsList[_itemNumber];\n            uint256 _offer = msg.value;\n            (\n                string memory name,\n                uint price,\n                uint quantity,\n                uint itemNumber,\n                bytes32 description,\n                address sellerAddress) = abi.decode(_itemToBuy, (string, uint, uint, uint, bytes32, address));\n                require(_qnty > 0, \"Invalid quantity\");\n                uint amountToPay = _qnty * _offer;\n                require(amountToPay / _qnty == _offer, \"Overflow spotted\");\n                require(balanceOf[msg.sender] >= amountToPay, \"Insufficeient balance\");\n                require(_qnty <= quantity, \"Cannot exceed seller's preset amount.\");\n                require(_offer >= amountToPay, \"Amount cannot be less than total price\");\n                balanceOf[msg.sender] -= amountToPay;\n                balanceOf[sellerAddress] += amountToPay;\n                ownerShip[sellerAddress] = false;\n                ownerShip[msg.sender] = true;\n                quantity -= _qnty;\n                if(quantity == 0){\n                    availableItems[_itemNumber] = false;\n                    delete itemsList[_itemNumber];\n                    delete itemBalance[_itemNumber];\n                    itemcount -= 1;\n                    return true;\n                }else if(quantity > 0){\n                    itemsList[_itemNumber] = abi.encode(sellerAddress, name, price, quantity, itemNumber, description);\n                    itemBalance[itemNumber] = quantity;\n                }\n                shoppers[msg.sender] = shoppersCount += 1;\n                return true;\n     }\n     \n    // Approved storeOwners with balances can withdraw from the individual account\n    function withdrawBalanceStoreOwner(address payable _addr, uint _amount, uint256 _userId) external payable approvedStoreOwner(_userId) returns(bool success) {\n         require(balanceOf[msg.sender] >= _amount, \"Insufficeient balance\");\n         balanceOf[msg.sender] -= _amount;\n         balanceOf[_addr] += _amount;\n         emit Withdrawal(msg.sender, _addr, _amount);\n         return success;\n     }\n\n    // Owner can disable an admin \n    function disableAdmin(address _addr, uint8 _id) public onlyOwner returns(bool) {\n        require(isAdmin[_addr][_id] == true, \"Not an admin already\");\n        isAdmin[_addr][_id] = false;\n        adminCount -= 1;\n        return isAdmin[_addr][_id];\n    }\n    \n    //@dev Withdraws ether balance.\n    function withdraw(uint _amount) public onlyOwner payable{\n        require(_amount <= address(this).balance);\n        msg.sender.transfer(_amount);\n    }\n    // Executes a fallback i.e when a non-existent function is called.\n    receive() external payable {\n        emit ReceivedEther(msg.sender, msg.value);\n    }\n\n    // Donate ether\n    function sendEther() public payable returns(bool) {\n        require(msg.value >= minimumDonation, \"Thanks for donating but 0.1 ether is the minimum\");\n        balanceOf[msg.sender] -= msg.value;\n        balanceOf[address(this)] += msg.value;\n        return true;\n    }\n\n    function getBalance() external view returns(uint){\n        return address(this).balance;\n    }\n    \n}    ",
  "sourcePath": "C:/Users/OWNER/Desktop/truffleUnbox/contracts/Dmarket.sol",
  "compiler": {
    "name": "solc",
    "version": "0.6.1+commit.e6f7d5a4.Emscripten.clang"
  },
  "schemaVersion": "3.2.5",
  "updatedAt": "2020-12-11T07:47:23.930Z",
  "devdoc": {
    "methods": {
      "approve(address,uint256)": {
        "params": {
          "_spender": ": The address authorized to spend",
          "_value": ": the max amount they can spend"
        }
      },
      "approveAndCall(address,uint256,bytes)": {
        "params": {
          "_extraData": ":some extra information to send to the approved contract",
          "_spender": ": The address authorized to spend",
          "_value": ": the max amount they can spend"
        }
      },
      "burn(uint256)": {
        "params": {
          "_value": "the amount of money to burn"
        }
      },
      "burnFrom(address,uint256)": {
        "params": {
          "_from": "the address of the sender",
          "_value": "the amount of money to burn"
        }
      },
      "transfer(address,uint256)": {
        "params": {
          "_to": "The address of the recipient",
          "_value": "the amount to send"
        }
      },
      "transferFrom(address,address,uint256)": {
        "params": {
          "_from": "The address of the sender",
          "_to": "The address of the recipient",
          "_value": "the amount to send"
        }
      }
    }
  },
  "userdoc": {
    "methods": {
      "approve(address,uint256)": {
        "notice": "Set allowance for other address     * Allows `_spender`: to spend no more than `_value` tokens in your behalf"
      },
      "approveAndCall(address,uint256,bytes)": {
        "notice": "Set allowance for other address and notify     * Allows `_spender` to spend no more than `_value` tokens on your behalf, and then ping the contract about it"
      },
      "burn(uint256)": {
        "notice": "Destroy tokens     * Remove `_value` tokens from the system irreversibly"
      },
      "burnFrom(address,uint256)": {
        "notice": "Destroy tokens from other account     * Remove `_value` tokens from the system irreversibly on behalf of `_from`."
      },
      "constructor": "Constrctor function     * Initializes contract with initial supply tokens to the creator of the contract",
      "transfer(address,uint256)": {
        "notice": "Transfer tokens     * Send `_value` tokens to `_to` from your account"
      },
      "transferFrom(address,address,uint256)": {
        "notice": "Transfer tokens from other address     * Send `_value` tokens to `_to` in behalf of `_from`"
      }
    }
  }
}