{
  "contractName": "TokenERC20",
  "abi": [
    {
      "inputs": [
        {
          "internalType": "uint256",
          "name": "initialSupply",
          "type": "uint256"
        },
        {
          "internalType": "string",
          "name": "tokenName",
          "type": "string"
        },
        {
          "internalType": "string",
          "name": "tokenSymbol",
          "type": "string"
        }
      ],
      "stateMutability": "nonpayable",
      "type": "constructor"
    },
    {
      "anonymous": false,
      "inputs": [
        {
          "indexed": true,
          "internalType": "address",
          "name": "_owner",
          "type": "address"
        },
        {
          "indexed": true,
          "internalType": "address",
          "name": "_spender",
          "type": "address"
        },
        {
          "indexed": false,
          "internalType": "uint256",
          "name": "_value",
          "type": "uint256"
        }
      ],
      "name": "Approval",
      "type": "event"
    },
    {
      "anonymous": false,
      "inputs": [
        {
          "indexed": true,
          "internalType": "address",
          "name": "from",
          "type": "address"
        },
        {
          "indexed": false,
          "internalType": "uint256",
          "name": "value",
          "type": "uint256"
        }
      ],
      "name": "Burn",
      "type": "event"
    },
    {
      "anonymous": false,
      "inputs": [
        {
          "indexed": true,
          "internalType": "address",
          "name": "from",
          "type": "address"
        },
        {
          "indexed": true,
          "internalType": "address",
          "name": "to",
          "type": "address"
        },
        {
          "indexed": false,
          "internalType": "uint256",
          "name": "value",
          "type": "uint256"
        }
      ],
      "name": "Transfer",
      "type": "event"
    },
    {
      "inputs": [
        {
          "internalType": "address",
          "name": "",
          "type": "address"
        },
        {
          "internalType": "address",
          "name": "",
          "type": "address"
        }
      ],
      "name": "allowance",
      "outputs": [
        {
          "internalType": "uint256",
          "name": "",
          "type": "uint256"
        }
      ],
      "stateMutability": "view",
      "type": "function"
    },
    {
      "inputs": [
        {
          "internalType": "address",
          "name": "",
          "type": "address"
        }
      ],
      "name": "balanceOf",
      "outputs": [
        {
          "internalType": "uint256",
          "name": "",
          "type": "uint256"
        }
      ],
      "stateMutability": "view",
      "type": "function"
    },
    {
      "inputs": [],
      "name": "decimals",
      "outputs": [
        {
          "internalType": "uint8",
          "name": "",
          "type": "uint8"
        }
      ],
      "stateMutability": "view",
      "type": "function"
    },
    {
      "inputs": [],
      "name": "itemcount",
      "outputs": [
        {
          "internalType": "uint256",
          "name": "",
          "type": "uint256"
        }
      ],
      "stateMutability": "view",
      "type": "function"
    },
    {
      "inputs": [],
      "name": "name",
      "outputs": [
        {
          "internalType": "string",
          "name": "",
          "type": "string"
        }
      ],
      "stateMutability": "view",
      "type": "function"
    },
    {
      "inputs": [],
      "name": "symbol",
      "outputs": [
        {
          "internalType": "string",
          "name": "",
          "type": "string"
        }
      ],
      "stateMutability": "view",
      "type": "function"
    },
    {
      "inputs": [],
      "name": "totalSupply",
      "outputs": [
        {
          "internalType": "uint256",
          "name": "",
          "type": "uint256"
        }
      ],
      "stateMutability": "view",
      "type": "function"
    },
    {
      "inputs": [
        {
          "internalType": "address",
          "name": "_to",
          "type": "address"
        },
        {
          "internalType": "uint256",
          "name": "_value",
          "type": "uint256"
        }
      ],
      "name": "transfer",
      "outputs": [
        {
          "internalType": "bool",
          "name": "success",
          "type": "bool"
        }
      ],
      "stateMutability": "nonpayable",
      "type": "function"
    },
    {
      "inputs": [
        {
          "internalType": "address",
          "name": "_from",
          "type": "address"
        },
        {
          "internalType": "address",
          "name": "_to",
          "type": "address"
        },
        {
          "internalType": "uint256",
          "name": "_value",
          "type": "uint256"
        }
      ],
      "name": "transferFrom",
      "outputs": [
        {
          "internalType": "bool",
          "name": "success",
          "type": "bool"
        }
      ],
      "stateMutability": "nonpayable",
      "type": "function"
    },
    {
      "inputs": [
        {
          "internalType": "address",
          "name": "_spender",
          "type": "address"
        },
        {
          "internalType": "uint256",
          "name": "_value",
          "type": "uint256"
        }
      ],
      "name": "approve",
      "outputs": [
        {
          "internalType": "bool",
          "name": "success",
          "type": "bool"
        }
      ],
      "stateMutability": "nonpayable",
      "type": "function"
    },
    {
      "inputs": [
        {
          "internalType": "address",
          "name": "_spender",
          "type": "address"
        },
        {
          "internalType": "uint256",
          "name": "_value",
          "type": "uint256"
        },
        {
          "internalType": "bytes",
          "name": "_extraData",
          "type": "bytes"
        }
      ],
      "name": "approveAndCall",
      "outputs": [
        {
          "internalType": "bool",
          "name": "success",
          "type": "bool"
        }
      ],
      "stateMutability": "nonpayable",
      "type": "function"
    },
    {
      "inputs": [
        {
          "internalType": "uint256",
          "name": "_value",
          "type": "uint256"
        }
      ],
      "name": "burn",
      "outputs": [
        {
          "internalType": "bool",
          "name": "success",
          "type": "bool"
        }
      ],
      "stateMutability": "nonpayable",
      "type": "function"
    },
    {
      "inputs": [
        {
          "internalType": "address",
          "name": "_from",
          "type": "address"
        },
        {
          "internalType": "uint256",
          "name": "_value",
          "type": "uint256"
        }
      ],
      "name": "burnFrom",
      "outputs": [
        {
          "internalType": "bool",
          "name": "success",
          "type": "bool"
        }
      ],
      "stateMutability": "nonpayable",
      "type": "function"
    }
  ],
  "bytecode": "0x60806040526012600260006101000a81548160ff021916908360ff16021790555060006004553480156200003257600080fd5b506040516200163f3803806200163f833981810160405262000058919081019062000219565b600260009054906101000a900460ff1660ff16600a0a8302600381905550600354600560003373ffffffffffffffffffffffffffffffffffffffff1673ffffffffffffffffffffffffffffffffffffffff168152602001908152602001600020819055508160009080519060200190620000d4929190620000f7565b508060019080519060200190620000ed929190620000f7565b5050505062000356565b828054600181600116156101000203166002900490600052602060002090601f016020900481019282601f106200013a57805160ff19168380011785556200016b565b828001600101855582156200016b579182015b828111156200016a5782518255916020019190600101906200014d565b5b5090506200017a91906200017e565b5090565b620001a391905b808211156200019f57600081600090555060010162000185565b5090565b90565b600082601f830112620001b857600080fd5b8151620001cf620001c982620002cf565b620002a1565b91508082526020830160208301858383011115620001ec57600080fd5b620001f983828462000306565b50505092915050565b60008151905062000213816200033c565b92915050565b6000806000606084860312156200022f57600080fd5b60006200023f8682870162000202565b935050602084015167ffffffffffffffff8111156200025d57600080fd5b6200026b86828701620001a6565b925050604084015167ffffffffffffffff8111156200028957600080fd5b6200029786828701620001a6565b9150509250925092565b6000604051905081810181811067ffffffffffffffff82111715620002c557600080fd5b8060405250919050565b600067ffffffffffffffff821115620002e757600080fd5b601f19601f8301169050602081019050919050565b6000819050919050565b60005b838110156200032657808201518184015260208101905062000309565b8381111562000336576000848401525b50505050565b6200034781620002fc565b81146200035357600080fd5b50565b6112d980620003666000396000f3fe608060405234801561001057600080fd5b50600436106100cf5760003560e01c806342966c681161008c57806395d89b411161006657806395d89b411461023c578063a9059cbb1461025a578063cae9ca511461028a578063dd62ed3e146102ba576100cf565b806342966c68146101ac57806370a08231146101dc57806379cc67901461020c576100cf565b806306fdde03146100d4578063095ea7b3146100f257806318160ddd1461012257806323b872dd14610140578063313ce567146101705780634232dc021461018e575b600080fd5b6100dc6102ea565b6040516100e991906110ae565b60405180910390f35b61010c60048036036101079190810190610ebe565b610388565b6040516101199190611093565b60405180910390f35b61012a61047a565b60405161013791906110d0565b60405180910390f35b61015a60048036036101559190810190610e6f565b610480565b6040516101679190611093565b60405180910390f35b6101786105ab565b60405161018591906110eb565b60405180910390f35b6101966105be565b6040516101a391906110d0565b60405180910390f35b6101c660048036036101c19190810190610f61565b6105c4565b6040516101d39190611093565b60405180910390f35b6101f660048036036101f19190810190610e0a565b6106c6565b60405161020391906110d0565b60405180910390f35b61022660048036036102219190810190610ebe565b6106de565b6040516102339190611093565b60405180910390f35b6102446108f4565b60405161025191906110ae565b60405180910390f35b610274600480360361026f9190810190610ebe565b610992565b6040516102819190611093565b60405180910390f35b6102a4600480360361029f9190810190610efa565b6109a9565b6040516102b19190611093565b60405180910390f35b6102d460048036036102cf9190810190610e33565b610a42565b6040516102e191906110d0565b60405180910390f35b60008054600181600116156101000203166002900480601f0160208091040260200160405190810160405280929190818152602001828054600181600116156101000203166002900480156103805780601f1061035557610100808354040283529160200191610380565b820191906000526020600020905b81548152906001019060200180831161036357829003601f168201915b505050505081565b600081600660003373ffffffffffffffffffffffffffffffffffffffff1673ffffffffffffffffffffffffffffffffffffffff16815260200190815260200160002060008573ffffffffffffffffffffffffffffffffffffffff1673ffffffffffffffffffffffffffffffffffffffff168152602001908152602001600020819055508273ffffffffffffffffffffffffffffffffffffffff163373ffffffffffffffffffffffffffffffffffffffff167f8c5be1e5ebec7d5bd14f71427d1e84f3dd0314c0f7b2291e5b200ac8c7c3b9258460405161046891906110d0565b60405180910390a36001905092915050565b60035481565b6000600660008573ffffffffffffffffffffffffffffffffffffffff1673ffffffffffffffffffffffffffffffffffffffff16815260200190815260200160002060003373ffffffffffffffffffffffffffffffffffffffff1673ffffffffffffffffffffffffffffffffffffffff1681526020019081526020016000205482111561050b57600080fd5b81600660008673ffffffffffffffffffffffffffffffffffffffff1673ffffffffffffffffffffffffffffffffffffffff16815260200190815260200160002060003373ffffffffffffffffffffffffffffffffffffffff1673ffffffffffffffffffffffffffffffffffffffff168152602001908152602001600020600082825403925050819055506105a0848484610a67565b600190509392505050565b600260009054906101000a900460ff1681565b60045481565b600081600560003373ffffffffffffffffffffffffffffffffffffffff1673ffffffffffffffffffffffffffffffffffffffff16815260200190815260200160002054101561061257600080fd5b81600560003373ffffffffffffffffffffffffffffffffffffffff1673ffffffffffffffffffffffffffffffffffffffff16815260200190815260200160002060008282540392505081905550816003600082825403925050819055503373ffffffffffffffffffffffffffffffffffffffff167fcc16f5dbb4873280815c1ee09dbd06736cffcc184412cf7a71a0fdb75d397ca5836040516106b591906110d0565b60405180910390a260019050919050565b60056020528060005260406000206000915090505481565b600081600560008573ffffffffffffffffffffffffffffffffffffffff1673ffffffffffffffffffffffffffffffffffffffff16815260200190815260200160002054101561072c57600080fd5b600660008473ffffffffffffffffffffffffffffffffffffffff1673ffffffffffffffffffffffffffffffffffffffff16815260200190815260200160002060003373ffffffffffffffffffffffffffffffffffffffff1673ffffffffffffffffffffffffffffffffffffffff168152602001908152602001600020548211156107b557600080fd5b81600560008573ffffffffffffffffffffffffffffffffffffffff1673ffffffffffffffffffffffffffffffffffffffff1681526020019081526020016000206000828254039250508190555081600660008573ffffffffffffffffffffffffffffffffffffffff1673ffffffffffffffffffffffffffffffffffffffff16815260200190815260200160002060003373ffffffffffffffffffffffffffffffffffffffff1673ffffffffffffffffffffffffffffffffffffffff16815260200190815260200160002060008282540392505081905550816003600082825403925050819055508273ffffffffffffffffffffffffffffffffffffffff167fcc16f5dbb4873280815c1ee09dbd06736cffcc184412cf7a71a0fdb75d397ca5836040516108e291906110d0565b60405180910390a26001905092915050565b60018054600181600116156101000203166002900480601f01602080910402602001604051908101604052809291908181526020018280546001816001161561010002031660029004801561098a5780601f1061095f5761010080835404028352916020019161098a565b820191906000526020600020905b81548152906001019060200180831161096d57829003601f168201915b505050505081565b600061099f338484610a67565b6001905092915050565b6000808490506109b98585610388565b15610a39578073ffffffffffffffffffffffffffffffffffffffff16638f4ffcb1338630876040518563ffffffff1660e01b81526004016109fd9493929190611047565b600060405180830381600087803b158015610a1757600080fd5b505af1158015610a2b573d6000803e3d6000fd5b505050506001915050610a3b565b505b9392505050565b6006602052816000526040600020602052806000526040600020600091509150505481565b600073ffffffffffffffffffffffffffffffffffffffff168273ffffffffffffffffffffffffffffffffffffffff161415610aa157600080fd5b80600560008573ffffffffffffffffffffffffffffffffffffffff1673ffffffffffffffffffffffffffffffffffffffff168152602001908152602001600020541015610aed57600080fd5b600560008373ffffffffffffffffffffffffffffffffffffffff1673ffffffffffffffffffffffffffffffffffffffff1681526020019081526020016000205481600560008573ffffffffffffffffffffffffffffffffffffffff1673ffffffffffffffffffffffffffffffffffffffff168152602001908152602001600020540111610b7957600080fd5b6000600560008473ffffffffffffffffffffffffffffffffffffffff1673ffffffffffffffffffffffffffffffffffffffff16815260200190815260200160002054600560008673ffffffffffffffffffffffffffffffffffffffff1673ffffffffffffffffffffffffffffffffffffffff1681526020019081526020016000205401905081600560008673ffffffffffffffffffffffffffffffffffffffff1673ffffffffffffffffffffffffffffffffffffffff1681526020019081526020016000206000828254039250508190555081600560008573ffffffffffffffffffffffffffffffffffffffff1673ffffffffffffffffffffffffffffffffffffffff168152602001908152602001600020600082825401925050819055508273ffffffffffffffffffffffffffffffffffffffff168473ffffffffffffffffffffffffffffffffffffffff167fddf252ad1be2c89b69c2b068fc378daa952ba7f163c4a11628f55a4df523b3ef84604051610cf591906110d0565b60405180910390a380600560008573ffffffffffffffffffffffffffffffffffffffff1673ffffffffffffffffffffffffffffffffffffffff16815260200190815260200160002054600560008773ffffffffffffffffffffffffffffffffffffffff1673ffffffffffffffffffffffffffffffffffffffff168152602001908152602001600020540114610d8657fe5b50505050565b600081359050610d9b81611275565b92915050565b600082601f830112610db257600080fd5b8135610dc5610dc082611133565b611106565b91508082526020830160208301858383011115610de157600080fd5b610dec838284611222565b50505092915050565b600081359050610e048161128c565b92915050565b600060208284031215610e1c57600080fd5b6000610e2a84828501610d8c565b91505092915050565b60008060408385031215610e4657600080fd5b6000610e5485828601610d8c565b9250506020610e6585828601610d8c565b9150509250929050565b600080600060608486031215610e8457600080fd5b6000610e9286828701610d8c565b9350506020610ea386828701610d8c565b9250506040610eb486828701610df5565b9150509250925092565b60008060408385031215610ed157600080fd5b6000610edf85828601610d8c565b9250506020610ef085828601610df5565b9150509250929050565b600080600060608486031215610f0f57600080fd5b6000610f1d86828701610d8c565b9350506020610f2e86828701610df5565b925050604084013567ffffffffffffffff811115610f4b57600080fd5b610f5786828701610da1565b9150509250925092565b600060208284031215610f7357600080fd5b6000610f8184828501610df5565b91505092915050565b610f93816111ec565b82525050565b610fa281611197565b82525050565b610fb1816111a9565b82525050565b6000610fc28261115f565b610fcc8185611175565b9350610fdc818560208601611231565b610fe581611264565b840191505092915050565b6000610ffb8261116a565b6110058185611186565b9350611015818560208601611231565b61101e81611264565b840191505092915050565b611032816111d5565b82525050565b611041816111df565b82525050565b600060808201905061105c6000830187610f8a565b6110696020830186611029565b6110766040830185610f99565b81810360608301526110888184610fb7565b905095945050505050565b60006020820190506110a86000830184610fa8565b92915050565b600060208201905081810360008301526110c88184610ff0565b905092915050565b60006020820190506110e56000830184611029565b92915050565b60006020820190506111006000830184611038565b92915050565b6000604051905081810181811067ffffffffffffffff8211171561112957600080fd5b8060405250919050565b600067ffffffffffffffff82111561114a57600080fd5b601f19601f8301169050602081019050919050565b600081519050919050565b600081519050919050565b600082825260208201905092915050565b600082825260208201905092915050565b60006111a2826111b5565b9050919050565b60008115159050919050565b600073ffffffffffffffffffffffffffffffffffffffff82169050919050565b6000819050919050565b600060ff82169050919050565b60006111f7826111fe565b9050919050565b600061120982611210565b9050919050565b600061121b826111b5565b9050919050565b82818337600083830152505050565b60005b8381101561124f578082015181840152602081019050611234565b8381111561125e576000848401525b50505050565b6000601f19601f8301169050919050565b61127e81611197565b811461128957600080fd5b50565b611295816111d5565b81146112a057600080fd5b5056fea2646970667358221220d0caaa39efa8e289c7aa700398378bf6fff6386f0cc420052d86fd79a5e551f864736f6c63430006010033",
  "source": "// SPDX-License-Identifier: MIT\r\npragma solidity ^0.6.0;\r\npragma experimental ABIEncoderV2;\r\n\r\n\r\ninterface tokenRecipient { \r\n    function receiveApproval(address _from, uint256 _value, address _token, bytes calldata _extraData) external;\r\n    \r\n}\r\n\r\ncontract TokenERC20 {\r\n    // Public variables of the token\r\n    string public name;\r\n    string public symbol;\r\n    uint8 public decimals = 18;\r\n    uint256 public totalSupply;\r\n    uint256 public itemcount = 0;\r\n    \r\n    // An array with all balances \r\n    mapping (address => uint256) public balanceOf;\r\n    mapping (address => mapping (address => uint256)) public allowance;\r\n    \r\n    // This generates a public event on the blockchain that will notify clients\r\n    event Transfer(address indexed from, address indexed to, uint256 value);\r\n    \r\n    // Public event on the blockchain that will notify clients\r\n    event Approval(address indexed _owner, address indexed _spender, uint256 _value);\r\n    // Notifies clients about the amount burnt\r\n    event Burn(address indexed from, uint256 value);\r\n    /**\r\n     * Constrctor function\r\n     *\r\n     * Initializes contract with initial supply tokens to the creator of the contract\r\n     */\r\n    constructor(\r\n        uint256 initialSupply,\r\n        string memory tokenName,\r\n        string memory tokenSymbol\r\n    ) public {\r\n        totalSupply = initialSupply * 10 ** uint256(decimals);  // Update total supply with the decimal amount\r\n        balanceOf[msg.sender] = totalSupply;                // Give the creator all initial tokens\r\n        name = tokenName;                                   // Set the name for display purposes\r\n        symbol = tokenSymbol;                               // Set the symbol for display purposes\r\n    }\r\n    /**\r\n     * Internal transfer, only can be called by this contract\r\n     */\r\n    function _transfer(address _from, address _to, uint _value) internal {\r\n        // Prevent transfer to 0x0 address. Use burn() instead\r\n        require(_to != address(0));\r\n        // Check if the sender has enough\r\n        require(balanceOf[_from] >= _value);\r\n        // Check for overflows\r\n        require(balanceOf[_to] + _value > balanceOf[_to]);\r\n        // Save this for an assertion in the future\r\n        uint previousBalances = balanceOf[_from] + balanceOf[_to];\r\n        // Subtract from the sender\r\n        balanceOf[_from] -= _value;\r\n        // Add the same to the recipient\r\n        balanceOf[_to] += _value;\r\n        emit Transfer(_from, _to, _value);\r\n        // Asserts are used to use static analysis to find bugs in your code. They should never fail\r\n        assert(balanceOf[_from] + balanceOf[_to] == previousBalances);\r\n    }\r\n    /**\r\n     * Transfer tokens\r\n     *\r\n     * Send `_value` tokens to `_to` from your account\r\n     *\r\n     * @param _to The address of the recipient\r\n     * @param _value the amount to send\r\n     */\r\n    function transfer(address _to, uint256 _value) public returns (bool success) {\r\n        _transfer(msg.sender, _to, _value);\r\n        return true;\r\n    }\r\n    /**\r\n     * Transfer tokens from other address\r\n     *\r\n     * Send `_value` tokens to `_to` in behalf of `_from`\r\n     *\r\n     * @param _from The address of the sender\r\n     * @param _to The address of the recipient\r\n     * @param _value the amount to send\r\n     */\r\n    function transferFrom(address _from, address _to, uint256 _value) public returns (bool success) {\r\n        require(_value <= allowance[_from][msg.sender]); // Check allowance amount\r\n        allowance[_from][msg.sender] -= _value;\r\n        _transfer(_from, _to, _value);\r\n        return true;\r\n    }\r\n    /**\r\n     * Set allowance for other address\r\n     *\r\n     * Allows `_spender` to spend no more than `_value` tokens in your behalf\r\n     *\r\n     * @param _spender The address authorized to spend\r\n     * @param _value the max amount they can spend\r\n     */\r\n    function approve(address _spender, uint256 _value) public returns (bool success) {\r\n        allowance[msg.sender][_spender] = _value;\r\n        emit Approval(msg.sender, _spender, _value);\r\n        return true;\r\n    }\r\n    /**\r\n     * Set allowance for other address and notify\r\n     *\r\n     * Allows `_spender` to spend no more than `_value` tokens on your behalf, and then ping the contract about it\r\n     *\r\n     * @param _spender The address authorized to spend\r\n     * @param _value the max amount they can spend\r\n     * @param _extraData some extra information to send to the approved contract\r\n     */\r\n    function approveAndCall(address _spender, uint256 _value, bytes memory _extraData)\r\n        public\r\n        returns (bool success) {\r\n        tokenRecipient spender = tokenRecipient(_spender);\r\n        if (approve(_spender, _value)) {\r\n            spender.receiveApproval(msg.sender, _value, address(this), _extraData);\r\n            return true;\r\n        }\r\n    }\r\n    /**\r\n     * Destroy tokens\r\n     *\r\n     * Remove `_value` tokens from the system irreversibly\r\n     *\r\n     * @param _value the amount of money to burn\r\n     */\r\n    function burn(uint256 _value) public returns (bool success) {\r\n        require(balanceOf[msg.sender] >= _value);   // Check if the sender has enough\r\n        balanceOf[msg.sender] -= _value;            // Subtract from the sender\r\n        totalSupply -= _value;                      // Updates totalSupply\r\n        emit Burn(msg.sender, _value);\r\n        return true;\r\n    }\r\n    /**\r\n     * Destroy tokens from other account\r\n     *\r\n     * Remove `_value` tokens from the system irreversibly on behalf of `_from`.\r\n     *\r\n     * @param _from the address of the sender\r\n     * @param _value the amount of money to burn\r\n     */\r\n    function burnFrom(address _from, uint256 _value) public returns (bool success) {\r\n        require(balanceOf[_from] >= _value);                // Check if the targeted balance is enough\r\n        require(_value <= allowance[_from][msg.sender]);    // Check allowance\r\n        balanceOf[_from] -= _value;                         // Subtract from the targeted balance\r\n        allowance[_from][msg.sender] -= _value;             // Subtract from the sender's allowance\r\n        totalSupply -= _value;                              // Update totalSupply\r\n        emit Burn(_from, _value);\r\n        return true;\r\n    }\r\n}\r\n\r\n\r\n// Online MarketPlace running on the blockchain\r\ncontract GMart is TokenERC20{\r\n    \r\n    address public owner;\r\n    uint totalItem = 0;\r\n    // uint8 defaultId = 10;\r\n    uint8 defaultId_storeOwner = 0;\r\n    uint shoppers_count = 0;\r\n    uint public adminCount = 0;\r\n    uint256 public storeOwnersCount = 0;\r\n    uint256 public storeCount = 0;\r\n\r\n    event ApprovedStoreOwner(address indexed _addr, uint256 _userId);\r\n    event NewAdmin(address indexed _addr);\r\n    event NewStoreFront(address indexed _msgsender, bytes _storeRef);\r\n    event UnregisteredStore(address indexed _storeOwnerAddress, uint256 _storeNumber);\r\n    event DeletedStore(address indexed _msgsender, uint256 _storeNumber);\r\n    event NewItem(address indexed _addr, string _itemName, bytes _itemRef);\r\n    event PriceChange(bytes _referenceId, uint256 _newSetPrice);\r\n    event Withdrawal(address indexed _from, address indexed _to, uint _amount);\r\n    event RemovedItem(address indexed _msgsender, bytes _refId);\r\n    event ReceivedEther(address, uint);\r\n    event FrozenFunds(address target, bool frozen);\r\n     // This generates a public event on the blockchain that will notify clients\r\n    event Transfer(address indexed from, address indexed to, uint256 value);\r\n    \r\n    // Public event on the blockchain that will notify clients\r\n    event Approval(address indexed _owner, address indexed _spender, uint256 _value);\r\n    // Notifies clients about the amount burnt\r\n    event Burn(address indexed from, uint256 value);\r\n    \r\n    // An array with all balances \r\n    mapping(address => mapping(uint => bool)) public  isAdmin;\r\n    mapping(address => bool) public adminApprovalToAdd;\r\n    mapping(address => mapping(uint => bool)) public isStoreOwnerApproved;\r\n    mapping(address => bool) public storeOwnerApprovalToAddItem;//marked\r\n    mapping(address => mapping(uint256 => bytes)) public storefrontRef;\r\n    mapping(bytes => mapping(uint => bytes)) public storefrontRefItemMap;\r\n    mapping(bytes => bool) public storeExist;\r\n    mapping(uint => bytes) public itemsList;\r\n    mapping(address => bool) public ownerShip;\r\n    mapping(bytes => bool) public availableItems;\r\n    mapping(address => uint256) public balanceof;\r\n    mapping(address => uint256) public shoppers;\r\n    mapping (address => bool) public frozenAccounts;\r\n    \r\n    // Initialized at deployment time.\r\n    /**\r\n     * Constrctor function\r\n     *\r\n     * Initializes contract with initial supply tokens to the creator of the contract\r\n     */\r\n    constructor(\r\n        address _addr\r\n        // uint256 initialSupply,\r\n        // string memory tokenName,\r\n        // string memory tokenSymbol\r\n    ) TokenERC20(500000, \"gmarttoken\", \"GMT\") public {\r\n        owner = _addr;\r\n    }\r\n\r\n    //Only sender with owner Authorization is permiitted\r\n    modifier onlyOwner() {\r\n        require(msg.sender == owner, \"Request failed; Not an owner\");\r\n        _;\r\n    }\r\n    //Only sender with admin role is permiitted\r\n    modifier onlyAdmin(uint _id) {\r\n        require(isAdmin[msg.sender][_id] == true, \"Not Authorized address\");\r\n        require(adminApprovalToAdd[msg.sender] == true, \"Not Authorized\");\r\n        _;\r\n    }\r\n    //Only approved store owner is allowed\r\n    modifier approvedStoreOwner(uint256 _id) {\r\n        require(isStoreOwnerApproved[msg.sender][_id] == true, \"Address not authorized\");\r\n        require(storeOwnerApprovalToAddItem[msg.sender] == true, \"Unauthorized to add Item to store\");\r\n        _;\r\n    }\r\n    //Check if an item exist in a particular storefront\r\n    modifier checkItemExist(bytes memory _itemRef) {\r\n        require(availableItems[_itemRef] == true, \"Item does not exist\");\r\n        _;\r\n    }\r\n    \r\n    function transferOwnership(address _newOwner) public onlyOwner {\r\n        owner = _newOwner;\r\n    }\r\n    \r\n    // @notice Create `mintedAmount` tokens and send it to `target`\r\n    // @param target Address to receive the tokens\r\n    // @param mintedAmount the amount of tokens it will receive\r\n    function mintToken(address target, uint256 mintedAmount) onlyOwner public {\r\n        balanceOf[target] += mintedAmount;\r\n        totalSupply += mintedAmount;\r\n        emit Transfer(address(0), address(this), mintedAmount);\r\n        emit Transfer(address(this), target, mintedAmount);\r\n    }\r\n    \r\n    // @notice `freeze? Prevent | Allow` `target` from sending & receiving tokens\r\n    // @param target Address to be frozen\r\n    // @param freeze either to freeze it or not\r\n    function freezeAccount(address target, bool freeze) onlyOwner public {\r\n        frozenAccounts[target] = freeze;\r\n        emit FrozenFunds(target, freeze);\r\n    }\r\n\r\n    /*\r\n     * Transfer tokens\r\n     *\r\n     * Send `_value` tokens to `_to` from your account\r\n     * @param _from Address of sender\r\n     * @param _to The address of the recipient\r\n     * @param _value the amount to send\r\n     */\r\n    function transferToken(address _to, uint _value) internal {\r\n        require(!frozenAccounts[_to]);                       // Check if recipient is frozen\r\n        _transfer(msg.sender, _to, _value);\r\n    }\r\n    \r\n    /**\r\n     * Transfer tokens from other address\r\n     *\r\n     * Send `_value` tokens to `_to` in behalf of `_from`\r\n     *\r\n     * @param _from The address of the sender\r\n     * @param _to The address of the recipient\r\n     * @param _value the amount to send\r\n     */\r\n    function transferTokenFrom(address _from, address _to, uint256 _value) public returns (bool success) {\r\n        require(!frozenAccounts[_from]);        // Check if sender is frozen\r\n        require(!frozenAccounts[_to]);          // Check if recipient is frozen\r\n        transferFrom(_from, _to, _value);\r\n        return true;\r\n    }\r\n    \r\n    /**\r\n     * Set allowance for other address\r\n     *\r\n     * Allows `_spender` to spend no more than `_value` tokens in your behalf\r\n     *\r\n     * @param _spender The address authorized to spend\r\n     * @param _value the max amount they can spend\r\n     */\r\n    function approveSpender(address _spender, uint256 _value) public {\r\n        approve(_spender, _value);\r\n        emit Approval(msg.sender, _spender, _value);\r\n    }\r\n    \r\n    /**\r\n     * Set allowance for other address and notify\r\n     *\r\n     * Allows `_spender` to spend no more than `_value` tokens on your behalf, and then ping the contract about it\r\n     *\r\n     * @param _spender The address authorized to spend\r\n     * @param _value the max amount they can spend\r\n     * @param _extraData some extra information to send to the approved contract\r\n     */\r\n    function approveandCall(address _spender, uint256 _value, bytes memory _extraData) public {\r\n        approveAndCall(_spender, _value, _extraData);\r\n    }\r\n    \r\n    /**\r\n     * Destroy tokens\r\n     *\r\n     * Remove `_value` tokens from the system irreversibly\r\n     *\r\n     * @param _value the amount of money to burn\r\n     */\r\n    function burnToken(uint256 _value) public {\r\n        burn(_value);\r\n    }\r\n    \r\n       /**\r\n     * Destroy tokens from other account\r\n     *\r\n     * Remove `_value` tokens from the system irreversibly on behalf of `_from`.\r\n     *\r\n     * @param _from the address of the sender\r\n     * @param _value the amount of money to burn\r\n     */\r\n    function burnTokenFrom(address _from, uint256 _value) public {\r\n        burnFrom(_from, _value);\r\n        \r\n    }\r\n    \r\n    /**\r\n     * @dev adds an adminList\r\n     * function is called only by the authorized owner address\r\n     */\r\n    function addAdmin(address _addr) public onlyOwner returns(bool){\r\n        require(adminCount <= 3, \"Max admin reached --> [3]\");\r\n        require(_addr != address(0), \"Invalid address\");\r\n        uint id = adminCount += 1;\r\n        isAdmin[_addr][id] = true;\r\n        emit NewAdmin(_addr);\r\n        return true;\r\n    }\r\n\r\n    function checkIsAdmin(address _addr, uint _id) public view returns(bool, bool) {\r\n        return (isAdmin[_addr][_id], adminApprovalToAdd[_addr]);\r\n    }\r\n\r\n    function checkStoreOwnerApproved(address _addr, uint256 _id) public view returns(bool, bool) {\r\n        return (isStoreOwnerApproved[_addr][_id], storeOwnerApprovalToAddItem[_addr]);\r\n    }\r\n    \r\n    function approve_StoreOwner(address _addr, uint _id) public onlyAdmin(_id) returns(bool successful) {\r\n        require(_addr != address(0), \"Invalid address\");\r\n        // StoreOwners memory _ownerStruct = storeOwnerMap[_addr];\r\n        uint256 id = storeOwnersCount += 1;\r\n        isStoreOwnerApproved[_addr][_id] = true;\r\n        emit ApprovedStoreOwner(_addr, id);\r\n        return successful;\r\n    }\r\n    \r\n    function changeAdminApproval(address _addr, bool _approval, uint _id) public onlyOwner returns(bool) {\r\n        require(isAdmin[_addr][_id] == true, \"Not already added\");\r\n        adminApprovalToAdd[_addr] = _approval;\r\n        return true;\r\n    }\r\n    \r\n    function changeStoreOwnerApproval(\r\n        address _addr,\r\n        bool _approval,\r\n        uint _adminId,\r\n        uint256 _storeOwnerId\r\n        ) public onlyAdmin(_adminId) returns(bool){\r\n        require(isStoreOwnerApproved[_addr][_storeOwnerId] == true, \"Not already added\");\r\n        storeOwnerApprovalToAddItem[_addr] = _approval;\r\n        return true;\r\n    }\r\n\r\n    /**\r\n    * StoreOwners Registers a new storefront. \r\n    * currently a participant self-adding strorefront\r\n    * param: _storeName: Name of the store.\r\n    * param: _itemName: Name of an item.\r\n    * param: _description: Detail of an item.\r\n    * param: _price: unit price of an item.\r\n    * param: _storeref: A unique reference Id to the store.\r\n    * param: _quantity: Unit of item to add.\r\n    */\r\n    function addStorefront(\r\n         string memory _storeName,\r\n         uint256 _userId\r\n         ) public approvedStoreOwner(_userId) returns(bool) {\r\n         uint256 _storeNumber = storeCount += 1;\r\n         uint256 dateCreated = now;\r\n         bool _active = true;\r\n         bytes memory _storefrontRef = abi.encode(msg.sender, _storeName, _storeNumber, dateCreated, _active);\r\n         require(storeExist[_storefrontRef] == false, \"Store already exist\" );\r\n         storefrontRef[msg.sender][_storeNumber] = _storefrontRef;\r\n         storeExist[_storefrontRef] == true;\r\n         emit NewStoreFront(msg.sender, _storefrontRef);\r\n         return true;\r\n        \r\n     }\r\n     \r\n     function getStoreDetail(\r\n         bytes calldata _storeRef,\r\n         uint256 _userId\r\n         ) external view approvedStoreOwner(_userId) returns(\r\n             address,\r\n             string memory,\r\n             uint,\r\n             uint,\r\n             bool\r\n             ) {\r\n                 require(storeExist[_storeRef] == true, \"Store does not exist\" );\r\n                 return(abi.decode(_storeRef, (address, string, uint, uint, bool)));\r\n     }\r\n     \r\n          /**\r\n     * StoreOwners Registers a new item to shelve. \r\n     * param: _itemName: Name of an item.\r\n     * param: _description: Detail of an item.\r\n     * param: _price: unit price of an item.\r\n     * param: _storeref: A unique  Id to the store.\r\n     * param: _quantity: Unit of ireferencetem to add.\r\n     */\r\n     \r\n    function addItemToStore(\r\n        string memory _itemName,\r\n        string memory _description,\r\n        uint _price,\r\n        bytes memory _storeRef,\r\n        uint _qnty,\r\n        uint256 _userId\r\n        )public \r\n        approvedStoreOwner(_userId)\r\n        returns(bool)\r\n        {\r\n            require(_price > 0, \"Price cannot be zero\");\r\n            // Item memory _newItem;\r\n            string memory name = _itemName;\r\n            uint256 price = _price;\r\n            uint256 quantity = _qnty;\r\n            uint256 itemNumber = itemcount += 1;\r\n            string memory description = _description;\r\n            bytes memory _itemref = abi.encode(\r\n                msg.sender,\r\n                name,\r\n                price,\r\n                quantity,\r\n                itemNumber,\r\n                description\r\n                );\r\n                storefrontRefItemMap[_storeRef][itemNumber] = _itemref;\r\n                ownerShip[msg.sender] = true;\r\n                availableItems[_itemref] = true;\r\n                itemsList[itemNumber] = _itemref;\r\n                emit NewItem(msg.sender, _itemName, _itemref);\r\n                return true;\r\n            \r\n        }\r\n     \r\n     function removeAnItem(bytes memory _itemRef, uint256 _userId, bytes memory _storeRef, uint _itemNumber) public approvedStoreOwner(_userId) checkItemExist(_itemRef) {\r\n        //  require(availableItems[_itemRef] == true, \"Item does not exist\");\r\n         delete storefrontRefItemMap[_storeRef][_itemNumber];\r\n         emit RemovedItem(msg.sender, _itemRef);\r\n     }\r\n      function removeAStore(uint256 _userId, uint256 _storeNumber) public approvedStoreOwner(_userId) {\r\n          delete storefrontRef[msg.sender][_storeNumber];\r\n          emit DeletedStore(msg.sender, _storeNumber);\r\n      }\r\n\r\n    function buyItem(\r\n        bytes calldata ref,\r\n        uint _qnty,\r\n        uint _itemNumber,\r\n        uint _offer\r\n        )external payable checkItemExist(ref) returns(bool) \r\n        {\r\n            bytes memory _itemToBuy = itemsList[_itemNumber];\r\n            (\r\n                address sellerAddress,\r\n                string memory name,\r\n                uint price,\r\n                uint quantity,\r\n                uint itemNumber,\r\n                bytes32 description) = abi.decode(_itemToBuy, (address, string, uint, uint, uint, bytes32));\r\n                require(_qnty > 0, \"Invalid quantity\");\r\n                uint amountToPay = _qnty * _offer;\r\n                require(amountToPay / _qnty == _offer, \"Overflow spotted\");\r\n                require(balanceOf[msg.sender] >= amountToPay, \"Insufficeient balance\");\r\n                require(_qnty <= quantity, \"Cannot exceed seller's preset amount.\");\r\n                require(_offer >= amountToPay, \"Amount cannot be less than total price\");\r\n                balanceOf[msg.sender] -= amountToPay;\r\n                balanceOf[sellerAddress] += amountToPay;\r\n                ownerShip[sellerAddress] = false;\r\n                ownerShip[msg.sender] = true;\r\n                quantity -= _qnty;\r\n                if(quantity == 0){\r\n                    delete itemsList[_itemNumber];\r\n                    return true;\r\n                }else if(quantity > 0){\r\n                    itemsList[_itemNumber] = abi.encode(sellerAddress, name, price, quantity, itemNumber, description);\r\n                }\r\n                shoppers[msg.sender] = shoppers_count += 1;\r\n                return true;\r\n     }\r\n     \r\n    function withdrawBalanceStoreOwner(address payable _addr, uint _amount, uint256 _userId) external payable approvedStoreOwner(_userId) returns(bool success) {\r\n         require(balanceOf[msg.sender] >= _amount, \"Insufficeient balance\");\r\n         balanceOf[msg.sender] -= _amount;\r\n         balanceOf[_addr] += _amount;\r\n         emit Withdrawal(msg.sender, _addr, _amount);\r\n         return success;\r\n     }\r\n    \r\n    function disableAdmin(address _addr, uint8 _id) public onlyOwner returns(bool success) {\r\n        require(isAdmin[_addr][_id] == true, \"Not an admin already\");\r\n        isAdmin[_addr][_id] = false;\r\n        if(isAdmin[_addr][_id] == false) return true;\r\n    }\r\n    \r\n    /**\r\n     * @dev UnRegisters a store from the Storefront \r\n     * currently only an admin is able to remove store\r\n     */\r\n    function unregisterStore(address _addr, uint _id, uint256 _userId, uint256 _storeNumber) public onlyAdmin(_id) returns(bool) {\r\n        require(isStoreOwnerApproved[_addr][_userId] == true, \"Address not authorized\");\r\n        storefrontRef[_addr][_storeNumber] = abi.encode(0, 0, 0, 0, 0);\r\n        storeOwnerApprovalToAddItem[_addr] == false;\r\n        emit UnregisteredStore(_addr, _storeNumber);\r\n        return true;\r\n    }\r\n    \r\n    //@dev Withdraw funds\r\n    function withdraw(uint _amount) onlyOwner public payable{\r\n        msg.sender.transfer(_amount);\r\n    }\r\n    \r\n    receive() external payable {\r\n        emit ReceivedEther(msg.sender, msg.value);\r\n    }\r\n    \r\n}    ",
  "sourcePath": "C:/Users/OWNER/Desktop/bootFinalProject/consensys-finalProject/contracts/GMart.sol",
  "compiler": {
    "name": "solc",
    "version": "0.6.1+commit.e6f7d5a4.Emscripten.clang"
  },
  "schemaVersion": "3.2.5",
  "updatedAt": "2020-11-30T15:54:46.178Z",
  "devdoc": {
    "methods": {
      "approve(address,uint256)": {
        "params": {
          "_spender": "The address authorized to spend",
          "_value": "the max amount they can spend"
        }
      },
      "approveAndCall(address,uint256,bytes)": {
        "params": {
          "_extraData": "some extra information to send to the approved contract",
          "_spender": "The address authorized to spend",
          "_value": "the max amount they can spend"
        }
      },
      "burn(uint256)": {
        "params": {
          "_value": "the amount of money to burn"
        }
      },
      "burnFrom(address,uint256)": {
        "params": {
          "_from": "the address of the sender",
          "_value": "the amount of money to burn"
        }
      },
      "transfer(address,uint256)": {
        "params": {
          "_to": "The address of the recipient",
          "_value": "the amount to send"
        }
      },
      "transferFrom(address,address,uint256)": {
        "params": {
          "_from": "The address of the sender",
          "_to": "The address of the recipient",
          "_value": "the amount to send"
        }
      }
    }
  },
  "userdoc": {
    "methods": {
      "approve(address,uint256)": {
        "notice": "Set allowance for other address      * Allows `_spender` to spend no more than `_value` tokens in your behalf "
      },
      "approveAndCall(address,uint256,bytes)": {
        "notice": "Set allowance for other address and notify      * Allows `_spender` to spend no more than `_value` tokens on your behalf, and then ping the contract about it "
      },
      "burn(uint256)": {
        "notice": "Destroy tokens      * Remove `_value` tokens from the system irreversibly "
      },
      "burnFrom(address,uint256)": {
        "notice": "Destroy tokens from other account      * Remove `_value` tokens from the system irreversibly on behalf of `_from`. "
      },
      "constructor": "Constrctor function      * Initializes contract with initial supply tokens to the creator of the contract",
      "transfer(address,uint256)": {
        "notice": "Transfer tokens      * Send `_value` tokens to `_to` from your account "
      },
      "transferFrom(address,address,uint256)": {
        "notice": "Transfer tokens from other address      * Send `_value` tokens to `_to` in behalf of `_from` "
      }
    }
  }
}