{
  "contractName": "GMart",
  "abi": [
    {
      "inputs": [],
      "stateMutability": "nonpayable",
      "type": "constructor"
    },
    {
      "anonymous": false,
      "inputs": [
        {
          "indexed": true,
          "internalType": "address",
          "name": "_addr",
          "type": "address"
        },
        {
          "indexed": false,
          "internalType": "bytes",
          "name": "_ref",
          "type": "bytes"
        }
      ],
      "name": "ApprovedStoreOwner",
      "type": "event"
    },
    {
      "anonymous": false,
      "inputs": [
        {
          "indexed": true,
          "internalType": "address",
          "name": "_addr",
          "type": "address"
        },
        {
          "indexed": false,
          "internalType": "bytes",
          "name": "_ref",
          "type": "bytes"
        }
      ],
      "name": "NewAdmin",
      "type": "event"
    },
    {
      "anonymous": false,
      "inputs": [
        {
          "indexed": true,
          "internalType": "address",
          "name": "_addr",
          "type": "address"
        },
        {
          "indexed": false,
          "internalType": "string",
          "name": "_itemName",
          "type": "string"
        },
        {
          "indexed": false,
          "internalType": "bytes",
          "name": "_itemRef",
          "type": "bytes"
        }
      ],
      "name": "NewItem",
      "type": "event"
    },
    {
      "anonymous": false,
      "inputs": [
        {
          "indexed": true,
          "internalType": "address",
          "name": "_newstore",
          "type": "address"
        },
        {
          "indexed": false,
          "internalType": "bytes",
          "name": "_storeId",
          "type": "bytes"
        },
        {
          "indexed": false,
          "internalType": "string",
          "name": "_name",
          "type": "string"
        }
      ],
      "name": "NewStoreFront",
      "type": "event"
    },
    {
      "anonymous": false,
      "inputs": [
        {
          "indexed": false,
          "internalType": "bytes",
          "name": "_referenceId",
          "type": "bytes"
        },
        {
          "indexed": false,
          "internalType": "uint256",
          "name": "_newSetPrice",
          "type": "uint256"
        }
      ],
      "name": "PriceChange",
      "type": "event"
    },
    {
      "anonymous": false,
      "inputs": [
        {
          "indexed": false,
          "internalType": "address",
          "name": "",
          "type": "address"
        },
        {
          "indexed": false,
          "internalType": "uint256",
          "name": "",
          "type": "uint256"
        }
      ],
      "name": "ReceivedEther",
      "type": "event"
    },
    {
      "anonymous": false,
      "inputs": [
        {
          "indexed": true,
          "internalType": "address",
          "name": "_msgsender",
          "type": "address"
        },
        {
          "indexed": false,
          "internalType": "bytes",
          "name": "_refId",
          "type": "bytes"
        }
      ],
      "name": "RemovedItem",
      "type": "event"
    },
    {
      "anonymous": false,
      "inputs": [
        {
          "indexed": true,
          "internalType": "address",
          "name": "_storeOwnerAddress",
          "type": "address"
        }
      ],
      "name": "UnregisteredStore",
      "type": "event"
    },
    {
      "anonymous": false,
      "inputs": [
        {
          "indexed": true,
          "internalType": "address",
          "name": "_from",
          "type": "address"
        },
        {
          "indexed": true,
          "internalType": "address",
          "name": "_to",
          "type": "address"
        },
        {
          "indexed": false,
          "internalType": "uint256",
          "name": "_amount",
          "type": "uint256"
        }
      ],
      "name": "Withdrawal",
      "type": "event"
    },
    {
      "inputs": [
        {
          "internalType": "address",
          "name": "",
          "type": "address"
        }
      ],
      "name": "adminApprovalToAdd",
      "outputs": [
        {
          "internalType": "bool",
          "name": "",
          "type": "bool"
        }
      ],
      "stateMutability": "view",
      "type": "function",
      "constant": true
    },
    {
      "inputs": [
        {
          "internalType": "uint256",
          "name": "",
          "type": "uint256"
        }
      ],
      "name": "adminList",
      "outputs": [
        {
          "internalType": "address",
          "name": "addr",
          "type": "address"
        },
        {
          "internalType": "bytes",
          "name": "id",
          "type": "bytes"
        }
      ],
      "stateMutability": "view",
      "type": "function",
      "constant": true
    },
    {
      "inputs": [
        {
          "internalType": "address",
          "name": "",
          "type": "address"
        }
      ],
      "name": "balance",
      "outputs": [
        {
          "internalType": "uint256",
          "name": "",
          "type": "uint256"
        }
      ],
      "stateMutability": "view",
      "type": "function",
      "constant": true
    },
    {
      "inputs": [
        {
          "internalType": "address",
          "name": "",
          "type": "address"
        },
        {
          "internalType": "bytes",
          "name": "",
          "type": "bytes"
        }
      ],
      "name": "ifStorefAvailable",
      "outputs": [
        {
          "internalType": "bool",
          "name": "",
          "type": "bool"
        }
      ],
      "stateMutability": "view",
      "type": "function",
      "constant": true
    },
    {
      "inputs": [
        {
          "internalType": "address",
          "name": "",
          "type": "address"
        }
      ],
      "name": "isAdmin",
      "outputs": [
        {
          "internalType": "bool",
          "name": "",
          "type": "bool"
        }
      ],
      "stateMutability": "view",
      "type": "function",
      "constant": true
    },
    {
      "inputs": [
        {
          "internalType": "address",
          "name": "",
          "type": "address"
        }
      ],
      "name": "isStoreOwnerApproved",
      "outputs": [
        {
          "internalType": "bool",
          "name": "",
          "type": "bool"
        }
      ],
      "stateMutability": "view",
      "type": "function",
      "constant": true
    },
    {
      "inputs": [
        {
          "internalType": "uint256",
          "name": "",
          "type": "uint256"
        }
      ],
      "name": "itemList",
      "outputs": [
        {
          "internalType": "string",
          "name": "name",
          "type": "string"
        },
        {
          "internalType": "uint256",
          "name": "price",
          "type": "uint256"
        },
        {
          "internalType": "uint256",
          "name": "quantity",
          "type": "uint256"
        },
        {
          "internalType": "address payable",
          "name": "sellerAddress",
          "type": "address"
        },
        {
          "internalType": "bytes",
          "name": "itemRef",
          "type": "bytes"
        },
        {
          "internalType": "enum GMart.ItemStatus",
          "name": "status",
          "type": "uint8"
        },
        {
          "internalType": "bytes",
          "name": "description",
          "type": "bytes"
        },
        {
          "internalType": "uint256",
          "name": "itemCountId",
          "type": "uint256"
        }
      ],
      "stateMutability": "view",
      "type": "function",
      "constant": true
    },
    {
      "inputs": [
        {
          "internalType": "address",
          "name": "",
          "type": "address"
        },
        {
          "internalType": "bytes",
          "name": "",
          "type": "bytes"
        }
      ],
      "name": "itemMap",
      "outputs": [
        {
          "internalType": "string",
          "name": "name",
          "type": "string"
        },
        {
          "internalType": "uint256",
          "name": "price",
          "type": "uint256"
        },
        {
          "internalType": "uint256",
          "name": "quantity",
          "type": "uint256"
        },
        {
          "internalType": "address payable",
          "name": "sellerAddress",
          "type": "address"
        },
        {
          "internalType": "bytes",
          "name": "itemRef",
          "type": "bytes"
        },
        {
          "internalType": "enum GMart.ItemStatus",
          "name": "status",
          "type": "uint8"
        },
        {
          "internalType": "bytes",
          "name": "description",
          "type": "bytes"
        },
        {
          "internalType": "uint256",
          "name": "itemCountId",
          "type": "uint256"
        }
      ],
      "stateMutability": "view",
      "type": "function",
      "constant": true
    },
    {
      "inputs": [
        {
          "internalType": "address",
          "name": "",
          "type": "address"
        },
        {
          "internalType": "bytes",
          "name": "",
          "type": "bytes"
        }
      ],
      "name": "ownerShip",
      "outputs": [
        {
          "internalType": "bool",
          "name": "",
          "type": "bool"
        }
      ],
      "stateMutability": "view",
      "type": "function",
      "constant": true
    },
    {
      "inputs": [
        {
          "internalType": "address",
          "name": "",
          "type": "address"
        }
      ],
      "name": "shoppers",
      "outputs": [
        {
          "internalType": "uint256",
          "name": "",
          "type": "uint256"
        }
      ],
      "stateMutability": "view",
      "type": "function",
      "constant": true
    },
    {
      "inputs": [
        {
          "internalType": "address",
          "name": "",
          "type": "address"
        }
      ],
      "name": "storeOwnerApprovalToAddItem",
      "outputs": [
        {
          "internalType": "bool",
          "name": "",
          "type": "bool"
        }
      ],
      "stateMutability": "view",
      "type": "function",
      "constant": true
    },
    {
      "inputs": [
        {
          "internalType": "uint256",
          "name": "",
          "type": "uint256"
        }
      ],
      "name": "storeOwnerslist",
      "outputs": [
        {
          "internalType": "address",
          "name": "addr",
          "type": "address"
        },
        {
          "internalType": "bytes",
          "name": "id",
          "type": "bytes"
        }
      ],
      "stateMutability": "view",
      "type": "function",
      "constant": true
    },
    {
      "inputs": [
        {
          "internalType": "address",
          "name": "",
          "type": "address"
        }
      ],
      "name": "storef",
      "outputs": [
        {
          "internalType": "bytes",
          "name": "",
          "type": "bytes"
        }
      ],
      "stateMutability": "view",
      "type": "function",
      "constant": true
    },
    {
      "stateMutability": "payable",
      "type": "receive",
      "payable": true
    },
    {
      "inputs": [
        {
          "internalType": "address",
          "name": "_addr",
          "type": "address"
        },
        {
          "internalType": "bool",
          "name": "_approval",
          "type": "bool"
        }
      ],
      "name": "addAdmin",
      "outputs": [
        {
          "internalType": "bool",
          "name": "successful",
          "type": "bool"
        }
      ],
      "stateMutability": "nonpayable",
      "type": "function"
    },
    {
      "inputs": [
        {
          "internalType": "address payable",
          "name": "_addr",
          "type": "address"
        },
        {
          "internalType": "bool",
          "name": "_approval",
          "type": "bool"
        }
      ],
      "name": "approve_StoreOwner",
      "outputs": [
        {
          "internalType": "bool",
          "name": "successful",
          "type": "bool"
        }
      ],
      "stateMutability": "nonpayable",
      "type": "function"
    },
    {
      "inputs": [
        {
          "internalType": "address",
          "name": "_addr",
          "type": "address"
        },
        {
          "internalType": "bool",
          "name": "_approval",
          "type": "bool"
        }
      ],
      "name": "changeAdminApproval",
      "outputs": [],
      "stateMutability": "nonpayable",
      "type": "function"
    },
    {
      "inputs": [
        {
          "internalType": "address",
          "name": "_addr",
          "type": "address"
        },
        {
          "internalType": "bool",
          "name": "_approval",
          "type": "bool"
        }
      ],
      "name": "changeStoreOwnerApproval",
      "outputs": [],
      "stateMutability": "nonpayable",
      "type": "function"
    },
    {
      "inputs": [
        {
          "internalType": "string",
          "name": "_storeName",
          "type": "string"
        },
        {
          "internalType": "string",
          "name": "_itemName",
          "type": "string"
        },
        {
          "internalType": "string",
          "name": "_description",
          "type": "string"
        },
        {
          "internalType": "uint256",
          "name": "_price",
          "type": "uint256"
        },
        {
          "internalType": "uint256",
          "name": "_quantity",
          "type": "uint256"
        }
      ],
      "name": "addStorefront",
      "outputs": [
        {
          "internalType": "bool",
          "name": "success",
          "type": "bool"
        }
      ],
      "stateMutability": "nonpayable",
      "type": "function"
    },
    {
      "inputs": [
        {
          "internalType": "bytes",
          "name": "_ref",
          "type": "bytes"
        }
      ],
      "name": "getStoreDetail",
      "outputs": [
        {
          "internalType": "string",
          "name": "",
          "type": "string"
        },
        {
          "internalType": "uint256",
          "name": "",
          "type": "uint256"
        },
        {
          "internalType": "address",
          "name": "",
          "type": "address"
        },
        {
          "internalType": "bytes",
          "name": "",
          "type": "bytes"
        },
        {
          "internalType": "bool",
          "name": "",
          "type": "bool"
        },
        {
          "internalType": "uint256",
          "name": "",
          "type": "uint256"
        }
      ],
      "stateMutability": "view",
      "type": "function",
      "constant": true
    },
    {
      "inputs": [
        {
          "internalType": "string",
          "name": "_itemName",
          "type": "string"
        },
        {
          "internalType": "string",
          "name": "_description",
          "type": "string"
        },
        {
          "internalType": "uint256",
          "name": "_price",
          "type": "uint256"
        },
        {
          "internalType": "bytes",
          "name": "_storeRef",
          "type": "bytes"
        },
        {
          "internalType": "uint256",
          "name": "_qnty",
          "type": "uint256"
        }
      ],
      "name": "addItemToStore",
      "outputs": [
        {
          "components": [
            {
              "internalType": "string",
              "name": "name",
              "type": "string"
            },
            {
              "internalType": "uint256",
              "name": "price",
              "type": "uint256"
            },
            {
              "internalType": "uint256",
              "name": "quantity",
              "type": "uint256"
            },
            {
              "internalType": "address payable",
              "name": "sellerAddress",
              "type": "address"
            },
            {
              "internalType": "bytes",
              "name": "itemRef",
              "type": "bytes"
            },
            {
              "internalType": "enum GMart.ItemStatus",
              "name": "status",
              "type": "uint8"
            },
            {
              "internalType": "bytes",
              "name": "description",
              "type": "bytes"
            },
            {
              "internalType": "uint256",
              "name": "itemCountId",
              "type": "uint256"
            }
          ],
          "internalType": "struct GMart.Item",
          "name": "_newItem",
          "type": "tuple"
        }
      ],
      "stateMutability": "nonpayable",
      "type": "function"
    },
    {
      "inputs": [
        {
          "internalType": "bytes",
          "name": "_itemRef",
          "type": "bytes"
        }
      ],
      "name": "removeAnItem",
      "outputs": [],
      "stateMutability": "nonpayable",
      "type": "function"
    },
    {
      "inputs": [
        {
          "internalType": "bytes",
          "name": "_ref",
          "type": "bytes"
        }
      ],
      "name": "removeAStore",
      "outputs": [],
      "stateMutability": "nonpayable",
      "type": "function"
    },
    {
      "inputs": [
        {
          "internalType": "uint256",
          "name": "_newPrice",
          "type": "uint256"
        },
        {
          "internalType": "bytes",
          "name": "_itemRef",
          "type": "bytes"
        }
      ],
      "name": "adjustPrice",
      "outputs": [],
      "stateMutability": "nonpayable",
      "type": "function"
    },
    {
      "inputs": [
        {
          "internalType": "bytes",
          "name": "_itemRef",
          "type": "bytes"
        },
        {
          "internalType": "uint256",
          "name": "_qnty",
          "type": "uint256"
        }
      ],
      "name": "buyItem",
      "outputs": [
        {
          "internalType": "bool",
          "name": "success",
          "type": "bool"
        }
      ],
      "stateMutability": "payable",
      "type": "function",
      "payable": true
    },
    {
      "inputs": [
        {
          "internalType": "address payable",
          "name": "_addr",
          "type": "address"
        },
        {
          "internalType": "uint256",
          "name": "_amount",
          "type": "uint256"
        }
      ],
      "name": "withdrawBalanceStoreOwner",
      "outputs": [
        {
          "internalType": "bool",
          "name": "success",
          "type": "bool"
        }
      ],
      "stateMutability": "payable",
      "type": "function",
      "payable": true
    },
    {
      "inputs": [
        {
          "internalType": "address",
          "name": "_addr",
          "type": "address"
        }
      ],
      "name": "deleteAdmin",
      "outputs": [
        {
          "internalType": "bool",
          "name": "success",
          "type": "bool"
        }
      ],
      "stateMutability": "nonpayable",
      "type": "function"
    },
    {
      "inputs": [
        {
          "internalType": "address",
          "name": "_addr",
          "type": "address"
        },
        {
          "internalType": "bytes",
          "name": "_ref",
          "type": "bytes"
        }
      ],
      "name": "unregisterStore",
      "outputs": [
        {
          "internalType": "bool",
          "name": "success",
          "type": "bool"
        }
      ],
      "stateMutability": "nonpayable",
      "type": "function"
    },
    {
      "inputs": [
        {
          "internalType": "uint256",
          "name": "_amount",
          "type": "uint256"
        }
      ],
      "name": "withdraw",
      "outputs": [],
      "stateMutability": "payable",
      "type": "function",
      "payable": true
    }
  ],
  "bytecode": "0x60806040526000600155600a600260006101000a81548160ff021916908360ff1602179055506000600260016101000a81548160ff021916908360ff1602179055506001808111156200004e57fe5b600460006101000a81548160ff021916908360018111156200006c57fe5b0217905550600060018111156200007f57fe5b600460016101000a81548160ff021916908360018111156200009d57fe5b0217905550348015620000af57600080fd5b50336000806101000a81548173ffffffffffffffffffffffffffffffffffffffff021916908373ffffffffffffffffffffffffffffffffffffffff1602179055506165dc80620001006000396000f3fe6080604052600436106101bb5760003560e01c8063613a835e116100ec578063bacefbb51161008a578063e9113f3411610064578063e9113f341461073b578063f33204a91461076b578063f94a52ba146107a8578063fba855d0146107e5576101fb565b8063bacefbb514610684578063db9ab0ce146106c1578063e3d670d7146106fe576101fb565b80638efca0dd116100c65780638efca0dd146105905780639aadffe5146105cd578063a4230bd51461060a578063aafa9b8814610647576101fb565b8063613a835e1461050e5780636df29101146105375780636fd2e79314610560576101fb565b80632e1a7d4d116101595780634c2e025b116101335780634c2e025b1461043b5780634eb43aa51461047857806350152f84146104a15780635af7bb7d146104e5576101fb565b80632e1a7d4d1461039e5780632f986735146103ba5780633d4d3600146103f7576101fb565b806322c86bc21161019557806322c86bc2146102be57806324d7806c146102e7578063256e49d31461032457806327e1f7df14610361576101fb565b80630a97c55a146102005780630fc970a61461024257806311117fc814610280576101fb565b366101fb577fa419615bc8fda4c87663805ee2a3597a6d71c1d476911d9892f340d965bc7bf133346040516101f1929190615d12565b60405180910390a1005b600080fd5b34801561020c57600080fd5b506102276004803603610222919081019061513f565b610822565b60405161023996959493929190615f1d565b60405180910390f35b34801561024e57600080fd5b5061026960048036036102649190810190615352565b610c44565b604051610277929190615dc5565b60405180910390f35b34801561028c57600080fd5b506102a760048036036102a29190810190615352565b610d2d565b6040516102b5929190615dc5565b60405180910390f35b3480156102ca57600080fd5b506102e560048036036102e0919081019061505b565b610e16565b005b3480156102f357600080fd5b5061030e60048036036103099190810190614fba565b610f93565b60405161031b9190615e1e565b60405180910390f35b34801561033057600080fd5b5061034b600480360361034691908101906151d4565b610fb3565b6040516103589190615e1e565b60405180910390f35b34801561036d57600080fd5b5061038860048036036103839190810190614fba565b611645565b6040516103959190615e1e565b60405180910390f35b6103b860048036036103b39190810190615352565b6117c7565b005b3480156103c657600080fd5b506103e160048036036103dc91908101906150eb565b6118a0565b6040516103ee9190615e1e565b60405180910390f35b34801561040357600080fd5b5061041e60048036036104199190810190615352565b611bbd565b604051610432989796959493929190615f8c565b60405180910390f35b34801561044757600080fd5b50610462600480360361045d9190810190615097565b611e07565b60405161046f9190615e1e565b60405180910390f35b34801561048457600080fd5b5061049f600480360361049a919081019061537b565b611e4c565b005b3480156104ad57600080fd5b506104c860048036036104c39190810190615097565b6123b5565b6040516104dc989796959493929190615f8c565b60405180910390f35b3480156104f157600080fd5b5061050c6004803603610507919081019061513f565b612615565b005b34801561051a57600080fd5b506105356004803603610530919081019061505b565b6127a5565b005b34801561054357600080fd5b5061055e6004803603610559919081019061513f565b6129b9565b005b61057a6004803603610575919081019061501f565b612c85565b6040516105879190615e1e565b60405180910390f35b34801561059c57600080fd5b506105b760048036036105b29190810190614fba565b612f31565b6040516105c49190615e1e565b60405180910390f35b3480156105d957600080fd5b506105f460048036036105ef9190810190615293565b612f51565b60405161060191906162bf565b60405180910390f35b34801561061657600080fd5b50610631600480360361062c919081019061505b565b6137a5565b60405161063e9190615e1e565b60405180910390f35b34801561065357600080fd5b5061066e60048036036106699190810190615097565b613c6c565b60405161067b9190615e1e565b60405180910390f35b34801561069057600080fd5b506106ab60048036036106a69190810190614fe3565b613cb1565b6040516106b89190615e1e565b60405180910390f35b3480156106cd57600080fd5b506106e860048036036106e39190810190614fba565b6141c6565b6040516106f59190615e1e565b60405180910390f35b34801561070a57600080fd5b5061072560048036036107209190810190614fba565b6141e6565b60405161073291906162e1565b60405180910390f35b61075560048036036107509190810190615180565b6141fe565b6040516107629190615e1e565b60405180910390f35b34801561077757600080fd5b50610792600480360361078d9190810190614fba565b614932565b60405161079f9190615e1e565b60405180910390f35b3480156107b457600080fd5b506107cf60048036036107ca9190810190614fba565b614952565b6040516107dc9190615e6b565b60405180910390f35b3480156107f157600080fd5b5061080c60048036036108079190810190614fba565b614a02565b60405161081991906162e1565b60405180910390f35b6060600080606060008060011515600c60003373ffffffffffffffffffffffffffffffffffffffff1673ffffffffffffffffffffffffffffffffffffffff16815260200190815260200160002060009054906101000a900460ff161515146108bf576040517f08c379a00000000000000000000000000000000000000000000000000000000081526004016108b69061621f565b60405180910390fd5b60011515600e60003373ffffffffffffffffffffffffffffffffffffffff1673ffffffffffffffffffffffffffffffffffffffff16815260200190815260200160002060009054906101000a900460ff16151514610952576040517f08c379a0000000000000000000000000000000000000000000000000000000008152600401610949906161ff565b60405180910390fd5b60011515600f60003373ffffffffffffffffffffffffffffffffffffffff1673ffffffffffffffffffffffffffffffffffffffff168152602001908152602001600020886040516109a39190615ccb565b908152602001604051809103902060009054906101000a900460ff16151514610a01576040517f08c379a00000000000000000000000000000000000000000000000000000000081526004016109f8906160df565b60405180910390fd5b610a09614a1a565b601288604051610a199190615ccb565b90815260200160405180910390206040518060e00160405290816000820160009054906101000a900473ffffffffffffffffffffffffffffffffffffffff1673ffffffffffffffffffffffffffffffffffffffff1673ffffffffffffffffffffffffffffffffffffffff168152602001600182018054600181600116156101000203166002900480601f016020809104026020016040519081016040528092919081815260200182805460018160011615610100020316600290048015610b215780601f10610af657610100808354040283529160200191610b21565b820191906000526020600020905b815481529060010190602001808311610b0457829003601f168201915b50505050508152602001600282018054600181600116156101000203166002900480601f016020809104026020016040519081016040528092919081815260200182805460018160011615610100020316600290048015610bc35780601f10610b9857610100808354040283529160200191610bc3565b820191906000526020600020905b815481529060010190602001808311610ba657829003601f168201915b50505050508152602001600382015481526020016004820160009054906101000a900460ff16151515158152602001600582015481526020016006820154815250509050806020015181606001518260000151836040015184608001518560a001518595508393508292509650965096509650965096505091939550919395565b60068181548110610c5157fe5b90600052602060002090600202016000915090508060000160009054906101000a900473ffffffffffffffffffffffffffffffffffffffff1690806001018054600181600116156101000203166002900480601f016020809104026020016040519081016040528092919081815260200182805460018160011615610100020316600290048015610d235780601f10610cf857610100808354040283529160200191610d23565b820191906000526020600020905b815481529060010190602001808311610d0657829003601f168201915b5050505050905082565b60058181548110610d3a57fe5b90600052602060002090600202016000915090508060000160009054906101000a900473ffffffffffffffffffffffffffffffffffffffff1690806001018054600181600116156101000203166002900480601f016020809104026020016040519081016040528092919081815260200182805460018160011615610100020316600290048015610e0c5780601f10610de157610100808354040283529160200191610e0c565b820191906000526020600020905b815481529060010190602001808311610def57829003601f168201915b5050505050905082565b6000809054906101000a900473ffffffffffffffffffffffffffffffffffffffff1673ffffffffffffffffffffffffffffffffffffffff163373ffffffffffffffffffffffffffffffffffffffff1614610ea5576040517f08c379a0000000000000000000000000000000000000000000000000000000008152600401610e9c906160bf565b60405180910390fd5b60011515600960008473ffffffffffffffffffffffffffffffffffffffff1673ffffffffffffffffffffffffffffffffffffffff16815260200190815260200160002060009054906101000a900460ff16151514610f38576040517f08c379a0000000000000000000000000000000000000000000000000000000008152600401610f2f906160ff565b60405180910390fd5b80600b60008473ffffffffffffffffffffffffffffffffffffffff1673ffffffffffffffffffffffffffffffffffffffff16815260200190815260200160002060006101000a81548160ff0219169083151502179055505050565b60096020528060005260406000206000915054906101000a900460ff1681565b600060011515600c60003373ffffffffffffffffffffffffffffffffffffffff1673ffffffffffffffffffffffffffffffffffffffff16815260200190815260200160002060009054906101000a900460ff16151514611048576040517f08c379a000000000000000000000000000000000000000000000000000000000815260040161103f9061621f565b60405180910390fd5b60011515600e60003373ffffffffffffffffffffffffffffffffffffffff1673ffffffffffffffffffffffffffffffffffffffff16815260200190815260200160002060009054906101000a900460ff161515146110db576040517f08c379a00000000000000000000000000000000000000000000000000000000081526004016110d2906161ff565b60405180910390fd5b6110e3614a1a565b6110eb614a6f565b60603389604051602001611100929190615ce2565b604051602081830303815290604052905060001515600f60003373ffffffffffffffffffffffffffffffffffffffff1673ffffffffffffffffffffffffffffffffffffffff168152602001908152602001600020826040516111629190615ccb565b908152602001604051809103902060009054906101000a900460ff161515146111c0576040517f08c379a00000000000000000000000000000000000000000000000000000000081526004016111b79061627f565b60405180910390fd5b6003601160003373ffffffffffffffffffffffffffffffffffffffff1673ffffffffffffffffffffffffffffffffffffffff1681526020019081526020016000208260405161120f9190615ccb565b90815260200160405180910390208054905010611261576040517f08c379a00000000000000000000000000000000000000000000000000000000081526004016112589061609f565b60405180910390fd5b600f420383606001818152505088836020018190525033836000019073ffffffffffffffffffffffffffffffffffffffff16908173ffffffffffffffffffffffffffffffffffffffff1681525050808360400181905250600183608001901515908115158152505060008360c0015114156112f7576112e38888888489612f51565b915060018360a00181815101915081815250505b601160003373ffffffffffffffffffffffffffffffffffffffff1673ffffffffffffffffffffffffffffffffffffffff168152602001908152602001600020816040516113449190615ccb565b908152602001604051809103902083908060018154018082558091505060019003906000526020600020906007020160009091909190915060008201518160000160006101000a81548173ffffffffffffffffffffffffffffffffffffffff021916908373ffffffffffffffffffffffffffffffffffffffff16021790555060208201518160010190805190602001906113df929190614ad5565b5060408201518160020190805190602001906113fc929190614b55565b506060820151816003015560808201518160040160006101000a81548160ff02191690831515021790555060a0820151816005015560c0820151816006015550506001600f60003373ffffffffffffffffffffffffffffffffffffffff1673ffffffffffffffffffffffffffffffffffffffff1681526020019081526020016000208260405161148c9190615ccb565b908152602001604051809103902060006101000a81548160ff02191690831515021790555080601060003373ffffffffffffffffffffffffffffffffffffffff1673ffffffffffffffffffffffffffffffffffffffff1681526020019081526020016000209080519060200190611504929190614bd5565b50826012826040516115169190615ccb565b908152602001604051809103902060008201518160000160006101000a81548173ffffffffffffffffffffffffffffffffffffffff021916908373ffffffffffffffffffffffffffffffffffffffff1602179055506020820151816001019080519060200190611587929190614ad5565b5060408201518160020190805190602001906115a4929190614b55565b506060820151816003015560808201518160040160006101000a81548160ff02191690831515021790555060a0820151816005015560c082015181600601559050503373ffffffffffffffffffffffffffffffffffffffff167fdbdcd2e425f31dd11a419f878e87a4abe84525d72e62332de442619cbfbef737828a60405161162e929190615eaf565b60405180910390a283935050505095945050505050565b60008060009054906101000a900473ffffffffffffffffffffffffffffffffffffffff1673ffffffffffffffffffffffffffffffffffffffff163373ffffffffffffffffffffffffffffffffffffffff16146116d6576040517f08c379a00000000000000000000000000000000000000000000000000000000081526004016116cd906160bf565b60405180910390fd5b60011515600960008473ffffffffffffffffffffffffffffffffffffffff1673ffffffffffffffffffffffffffffffffffffffff16815260200190815260200160002060009054906101000a900460ff16151514611769576040517f08c379a00000000000000000000000000000000000000000000000000000000081526004016117609061615f565b60405180910390fd5b6000600960008473ffffffffffffffffffffffffffffffffffffffff1673ffffffffffffffffffffffffffffffffffffffff16815260200190815260200160002060006101000a81548160ff02191690831515021790559050919050565b6000809054906101000a900473ffffffffffffffffffffffffffffffffffffffff1673ffffffffffffffffffffffffffffffffffffffff163373ffffffffffffffffffffffffffffffffffffffff1614611856576040517f08c379a000000000000000000000000000000000000000000000000000000000815260040161184d906160bf565b60405180910390fd5b3373ffffffffffffffffffffffffffffffffffffffff166108fc829081150290604051600060405180830381858888f1935050505015801561189c573d6000803e3d6000fd5b5050565b600060011515600960003373ffffffffffffffffffffffffffffffffffffffff1673ffffffffffffffffffffffffffffffffffffffff16815260200190815260200160002060009054906101000a900460ff16151514611935576040517f08c379a000000000000000000000000000000000000000000000000000000000815260040161192c9061605f565b60405180910390fd5b60011515600b60003373ffffffffffffffffffffffffffffffffffffffff1673ffffffffffffffffffffffffffffffffffffffff16815260200190815260200160002060009054906101000a900460ff161515146119c8576040517f08c379a00000000000000000000000000000000000000000000000000000000081526004016119bf9061613f565b60405180910390fd5b60011515600c60008573ffffffffffffffffffffffffffffffffffffffff1673ffffffffffffffffffffffffffffffffffffffff16815260200190815260200160002060009054906101000a900460ff16151514611a5b576040517f08c379a0000000000000000000000000000000000000000000000000000000008152600401611a529061629f565b60405180910390fd5b60011515600f60008573ffffffffffffffffffffffffffffffffffffffff1673ffffffffffffffffffffffffffffffffffffffff16815260200190815260200160002083604051611aac9190615ccb565b908152602001604051809103902060009054906101000a900460ff16151514611b0a576040517f08c379a0000000000000000000000000000000000000000000000000000000008152600401611b019061601f565b60405180910390fd5b601160008473ffffffffffffffffffffffffffffffffffffffff1673ffffffffffffffffffffffffffffffffffffffff16815260200190815260200160002082604051611b579190615ccb565b90815260200160405180910390206000611b719190614c55565b8273ffffffffffffffffffffffffffffffffffffffff167f3089b6625b46b77707154ce3d4aee9d7753f3988bfc42768528cd45f7817b42f60405160405180910390a280905092915050565b60088181548110611bca57fe5b9060005260206000209060080201600091509050806000018054600181600116156101000203166002900480601f016020809104026020016040519081016040528092919081815260200182805460018160011615610100020316600290048015611c765780601f10611c4b57610100808354040283529160200191611c76565b820191906000526020600020905b815481529060010190602001808311611c5957829003601f168201915b5050505050908060010154908060020154908060030160009054906101000a900473ffffffffffffffffffffffffffffffffffffffff1690806004018054600181600116156101000203166002900480601f016020809104026020016040519081016040528092919081815260200182805460018160011615610100020316600290048015611d465780601f10611d1b57610100808354040283529160200191611d46565b820191906000526020600020905b815481529060010190602001808311611d2957829003601f168201915b5050505050908060050160009054906101000a900460ff1690806006018054600181600116156101000203166002900480601f016020809104026020016040519081016040528092919081815260200182805460018160011615610100020316600290048015611df75780601f10611dcc57610100808354040283529160200191611df7565b820191906000526020600020905b815481529060010190602001808311611dda57829003601f168201915b5050505050908060070154905088565b6016602052816000526040600020818051602081018201805184825260208301602085012081835280955050505050506000915091509054906101000a900460ff1681565b60011515600c60003373ffffffffffffffffffffffffffffffffffffffff1673ffffffffffffffffffffffffffffffffffffffff16815260200190815260200160002060009054906101000a900460ff16151514611edf576040517f08c379a0000000000000000000000000000000000000000000000000000000008152600401611ed69061621f565b60405180910390fd5b60011515600e60003373ffffffffffffffffffffffffffffffffffffffff1673ffffffffffffffffffffffffffffffffffffffff16815260200190815260200160002060009054906101000a900460ff16151514611f72576040517f08c379a0000000000000000000000000000000000000000000000000000000008152600401611f69906161ff565b60405180910390fd5b81818080601f016020809104026020016040519081016040528093929190818152602001838380828437600081840152601f19601f8201169050808301925050505050505060011515601882604051611fcb9190615ccb565b908152602001604051809103902060009054906101000a900460ff16151514612029576040517f08c379a00000000000000000000000000000000000000000000000000000000081526004016120209061625f565b60405180910390fd5b6000841161206c576040517f08c379a0000000000000000000000000000000000000000000000000000000008152600401612063906161bf565b60405180910390fd5b612074614a6f565b601360003373ffffffffffffffffffffffffffffffffffffffff1673ffffffffffffffffffffffffffffffffffffffff16815260200190815260200160002084846040516120c3929190615cb2565b908152602001604051809103902060405180610100016040529081600082018054600181600116156101000203166002900480601f0160208091040260200160405190810160405280929190818152602001828054600181600116156101000203166002900480156121765780601f1061214b57610100808354040283529160200191612176565b820191906000526020600020905b81548152906001019060200180831161215957829003601f168201915b5050505050815260200160018201548152602001600282015481526020016003820160009054906101000a900473ffffffffffffffffffffffffffffffffffffffff1673ffffffffffffffffffffffffffffffffffffffff1673ffffffffffffffffffffffffffffffffffffffff168152602001600482018054600181600116156101000203166002900480601f0160208091040260200160405190810160405280929190818152602001828054600181600116156101000203166002900480156122825780601f1061225757610100808354040283529160200191612282565b820191906000526020600020905b81548152906001019060200180831161226557829003601f168201915b505050505081526020016005820160009054906101000a900460ff1660018111156122a957fe5b60018111156122b457fe5b8152602001600682018054600181600116156101000203166002900480601f0160208091040260200160405190810160405280929190818152602001828054600181600116156101000203166002900480156123515780601f1061232657610100808354040283529160200191612351565b820191906000526020600020905b81548152906001019060200180831161233457829003601f168201915b5050505050815260200160078201548152505090506000816020015190508590507fa0d44e7fee8a0afacdbd4319568a1b9258299bb07235afe832c670200dc439148585886040516123a593929190615e39565b60405180910390a1505050505050565b60136020528160005260406000208180516020810182018051848252602083016020850120818352809550505050505060009150915050806000018054600181600116156101000203166002900480601f0160208091040260200160405190810160405280929190818152602001828054600181600116156101000203166002900480156124845780601f1061245957610100808354040283529160200191612484565b820191906000526020600020905b81548152906001019060200180831161246757829003601f168201915b5050505050908060010154908060020154908060030160009054906101000a900473ffffffffffffffffffffffffffffffffffffffff1690806004018054600181600116156101000203166002900480601f0160208091040260200160405190810160405280929190818152602001828054600181600116156101000203166002900480156125545780601f1061252957610100808354040283529160200191612554565b820191906000526020600020905b81548152906001019060200180831161253757829003601f168201915b5050505050908060050160009054906101000a900460ff1690806006018054600181600116156101000203166002900480601f0160208091040260200160405190810160405280929190818152602001828054600181600116156101000203166002900480156126055780601f106125da57610100808354040283529160200191612605565b820191906000526020600020905b8154815290600101906020018083116125e857829003601f168201915b5050505050908060070154905088565b60011515600c60003373ffffffffffffffffffffffffffffffffffffffff1673ffffffffffffffffffffffffffffffffffffffff16815260200190815260200160002060009054906101000a900460ff161515146126a8576040517f08c379a000000000000000000000000000000000000000000000000000000000815260040161269f9061621f565b60405180910390fd5b60011515600e60003373ffffffffffffffffffffffffffffffffffffffff1673ffffffffffffffffffffffffffffffffffffffff16815260200190815260200160002060009054906101000a900460ff1615151461273b576040517f08c379a0000000000000000000000000000000000000000000000000000000008152600401612732906161ff565b60405180910390fd5b601160003373ffffffffffffffffffffffffffffffffffffffff1673ffffffffffffffffffffffffffffffffffffffff168152602001908152602001600020816040516127889190615ccb565b908152602001604051809103902060006127a29190614c55565b50565b60011515600960003373ffffffffffffffffffffffffffffffffffffffff1673ffffffffffffffffffffffffffffffffffffffff16815260200190815260200160002060009054906101000a900460ff16151514612838576040517f08c379a000000000000000000000000000000000000000000000000000000000815260040161282f9061605f565b60405180910390fd5b60011515600b60003373ffffffffffffffffffffffffffffffffffffffff1673ffffffffffffffffffffffffffffffffffffffff16815260200190815260200160002060009054906101000a900460ff161515146128cb576040517f08c379a00000000000000000000000000000000000000000000000000000000081526004016128c29061613f565b60405180910390fd5b60011515600c60008473ffffffffffffffffffffffffffffffffffffffff1673ffffffffffffffffffffffffffffffffffffffff16815260200190815260200160002060009054906101000a900460ff1615151461295e576040517f08c379a0000000000000000000000000000000000000000000000000000000008152600401612955906160ff565b60405180910390fd5b80600e60008473ffffffffffffffffffffffffffffffffffffffff1673ffffffffffffffffffffffffffffffffffffffff16815260200190815260200160002060006101000a81548160ff0219169083151502179055505050565b60011515600c60003373ffffffffffffffffffffffffffffffffffffffff1673ffffffffffffffffffffffffffffffffffffffff16815260200190815260200160002060009054906101000a900460ff16151514612a4c576040517f08c379a0000000000000000000000000000000000000000000000000000000008152600401612a439061621f565b60405180910390fd5b60011515600e60003373ffffffffffffffffffffffffffffffffffffffff1673ffffffffffffffffffffffffffffffffffffffff16815260200190815260200160002060009054906101000a900460ff16151514612adf576040517f08c379a0000000000000000000000000000000000000000000000000000000008152600401612ad6906161ff565b60405180910390fd5b8060011515601882604051612af49190615ccb565b908152602001604051809103902060009054906101000a900460ff16151514612b52576040517f08c379a0000000000000000000000000000000000000000000000000000000008152600401612b499061625f565b60405180910390fd5b601360003373ffffffffffffffffffffffffffffffffffffffff1673ffffffffffffffffffffffffffffffffffffffff16815260200190815260200160002082604051612b9f9190615ccb565b908152602001604051809103902060008082016000612bbe9190614c79565b600182016000905560028201600090556003820160006101000a81549073ffffffffffffffffffffffffffffffffffffffff0219169055600482016000612c059190614cc1565b6005820160006101000a81549060ff0219169055600682016000612c299190614cc1565b600782016000905550503373ffffffffffffffffffffffffffffffffffffffff167f558e4ae33dfca7324493271fabf356b0364808ca1cea5ef153f072321860dbfd83604051612c799190615e8d565b60405180910390a25050565b600060011515600c60003373ffffffffffffffffffffffffffffffffffffffff1673ffffffffffffffffffffffffffffffffffffffff16815260200190815260200160002060009054906101000a900460ff16151514612d1a576040517f08c379a0000000000000000000000000000000000000000000000000000000008152600401612d119061621f565b60405180910390fd5b60011515600e60003373ffffffffffffffffffffffffffffffffffffffff1673ffffffffffffffffffffffffffffffffffffffff16815260200190815260200160002060009054906101000a900460ff16151514612dad576040517f08c379a0000000000000000000000000000000000000000000000000000000008152600401612da4906161ff565b60405180910390fd5b81601960003373ffffffffffffffffffffffffffffffffffffffff1673ffffffffffffffffffffffffffffffffffffffff168152602001908152602001600020541015612e2f576040517f08c379a0000000000000000000000000000000000000000000000000000000008152600401612e269061611f565b60405180910390fd5b81601960003373ffffffffffffffffffffffffffffffffffffffff1673ffffffffffffffffffffffffffffffffffffffff168152602001908152602001600020600082825403925050819055508273ffffffffffffffffffffffffffffffffffffffff166108fc839081150290604051600060405180830381858888f19350505050158015612ec2573d6000803e3d6000fd5b508273ffffffffffffffffffffffffffffffffffffffff163373ffffffffffffffffffffffffffffffffffffffff167f2717ead6b9200dd235aad468c9809ea400fe33ac69b5bfaa6d3e90fc922b639884604051612f2091906162e1565b60405180910390a380905092915050565b600b6020528060005260406000206000915054906101000a900460ff1681565b612f59614a6f565b60011515600c60003373ffffffffffffffffffffffffffffffffffffffff1673ffffffffffffffffffffffffffffffffffffffff16815260200190815260200160002060009054906101000a900460ff16151514612fec576040517f08c379a0000000000000000000000000000000000000000000000000000000008152600401612fe39061621f565b60405180910390fd5b60011515600e60003373ffffffffffffffffffffffffffffffffffffffff1673ffffffffffffffffffffffffffffffffffffffff16815260200190815260200160002060009054906101000a900460ff1615151461307f576040517f08c379a0000000000000000000000000000000000000000000000000000000008152600401613076906161ff565b60405180910390fd5b600084116130c2576040517f08c379a00000000000000000000000000000000000000000000000000000000081526004016130b99061623f565b60405180910390fd5b858160000181905250838160200181815250508181604001818152505060018160e00181815101915081815250506060338260e0015188878960405160200161310f959493929190615d3b565b604051602081830303815290604052905033826060019073ffffffffffffffffffffffffffffffffffffffff16908173ffffffffffffffffffffffffffffffffffffffff168152505080826080018190525081601460003373ffffffffffffffffffffffffffffffffffffffff1673ffffffffffffffffffffffffffffffffffffffff16815260200190815260200160002060008460e00151815260200190815260200160002060008201518160000190805190602001906131d2929190614ad5565b50602082015181600101556040820151816002015560608201518160030160006101000a81548173ffffffffffffffffffffffffffffffffffffffff021916908373ffffffffffffffffffffffffffffffffffffffff160217905550608082015181600401908051906020019061324a929190614b55565b5060a08201518160050160006101000a81548160ff0219169083600181111561326f57fe5b021790555060c0820151816006019080519060200190613290929190614b55565b5060e082015181600701559050506001601660003373ffffffffffffffffffffffffffffffffffffffff1673ffffffffffffffffffffffffffffffffffffffff168152602001908152602001600020826040516132ed9190615ccb565b908152602001604051809103902060006101000a81548160ff021916908315150217905550600460009054906101000a900460ff168260a00190600181111561333257fe5b9081600181111561333f57fe5b815250506008829080600181540180825580915050600190039060005260206000209060080201600090919091909150600082015181600001908051906020019061338b929190614ad5565b50602082015181600101556040820151816002015560608201518160030160006101000a81548173ffffffffffffffffffffffffffffffffffffffff021916908373ffffffffffffffffffffffffffffffffffffffff1602179055506080820151816004019080519060200190613403929190614b55565b5060a08201518160050160006101000a81548160ff0219169083600181111561342857fe5b021790555060c0820151816006019080519060200190613449929190614b55565b5060e08201518160070155505081601360003373ffffffffffffffffffffffffffffffffffffffff1673ffffffffffffffffffffffffffffffffffffffff168152602001908152602001600020826040516134a49190615ccb565b908152602001604051809103902060008201518160000190805190602001906134ce929190614ad5565b50602082015181600101556040820151816002015560608201518160030160006101000a81548173ffffffffffffffffffffffffffffffffffffffff021916908373ffffffffffffffffffffffffffffffffffffffff1602179055506080820151816004019080519060200190613546929190614b55565b5060a08201518160050160006101000a81548160ff0219169083600181111561356b57fe5b021790555060c082015181600601908051906020019061358c929190614b55565b5060e08201518160070155905050816015826040516135ab9190615ccb565b908152602001604051809103902060008201518160000190805190602001906135d5929190614ad5565b50602082015181600101556040820151816002015560608201518160030160006101000a81548173ffffffffffffffffffffffffffffffffffffffff021916908373ffffffffffffffffffffffffffffffffffffffff160217905550608082015181600401908051906020019061364d929190614b55565b5060a08201518160050160006101000a81548160ff0219169083600181111561367257fe5b021790555060c0820151816006019080519060200190613693929190614b55565b5060e0820151816007015590505080601760003373ffffffffffffffffffffffffffffffffffffffff1673ffffffffffffffffffffffffffffffffffffffff168152602001908152602001600020856040516136ef9190615ccb565b90815260200160405180910390209080519060200190613710929190614bd5565b5060016018826040516137239190615ccb565b908152602001604051809103902060006101000a81548160ff0219169083151502179055503373ffffffffffffffffffffffffffffffffffffffff167f772cc3a8e77f72eb5acf7b3a43da99bf21604939d49108bdd445da7c9c137a218883604051613790929190615ee6565b60405180910390a28191505095945050505050565b60008060009054906101000a900473ffffffffffffffffffffffffffffffffffffffff1673ffffffffffffffffffffffffffffffffffffffff163373ffffffffffffffffffffffffffffffffffffffff1614613836576040517f08c379a000000000000000000000000000000000000000000000000000000000815260040161382d906160bf565b60405180910390fd5b6003600580549050111561387f576040517f08c379a00000000000000000000000000000000000000000000000000000000081526004016138769061617f565b60405180910390fd5b600073ffffffffffffffffffffffffffffffffffffffff168373ffffffffffffffffffffffffffffffffffffffff1614156138ef576040517f08c379a00000000000000000000000000000000000000000000000000000000081526004016138e69061607f565b60405180910390fd5b6138f7614d09565b600a60008573ffffffffffffffffffffffffffffffffffffffff1673ffffffffffffffffffffffffffffffffffffffff1681526020019081526020016000206040518060400160405290816000820160009054906101000a900473ffffffffffffffffffffffffffffffffffffffff1673ffffffffffffffffffffffffffffffffffffffff1673ffffffffffffffffffffffffffffffffffffffff168152602001600182018054600181600116156101000203166002900480601f016020809104026020016040519081016040528092919081815260200182805460018160011615610100020316600290048015613a305780601f10613a0557610100808354040283529160200191613a30565b820191906000526020600020905b815481529060010190602001808311613a1357829003601f168201915b505050505081525050905060006001600260008282829054906101000a900460ff160192506101000a81548160ff021916908360ff1602179055905084826000019073ffffffffffffffffffffffffffffffffffffffff16908173ffffffffffffffffffffffffffffffffffffffff16815250508481604051602001613ab7929190615df5565b6040516020818303038152906040528260200181905250600582908060018154018082558091505060019003906000526020600020906002020160009091909190915060008201518160000160006101000a81548173ffffffffffffffffffffffffffffffffffffffff021916908373ffffffffffffffffffffffffffffffffffffffff1602179055506020820151816001019080519060200190613b5d929190614b55565b50505083600b60008773ffffffffffffffffffffffffffffffffffffffff1673ffffffffffffffffffffffffffffffffffffffff16815260200190815260200160002060006101000a81548160ff0219169083151502179055506001600960008773ffffffffffffffffffffffffffffffffffffffff1673ffffffffffffffffffffffffffffffffffffffff16815260200190815260200160002060006101000a81548160ff0219169083151502179055508473ffffffffffffffffffffffffffffffffffffffff167f19f7fd2c1ea6478d08d010308d023c5e758cd5e618c2712e063c28d05f344fee8360200151604051613c599190615e6b565b60405180910390a2829250505092915050565b600f602052816000526040600020818051602081018201805184825260208301602085012081835280955050505050506000915091509054906101000a900460ff1681565b600060011515600960003373ffffffffffffffffffffffffffffffffffffffff1673ffffffffffffffffffffffffffffffffffffffff16815260200190815260200160002060009054906101000a900460ff16151514613d46576040517f08c379a0000000000000000000000000000000000000000000000000000000008152600401613d3d9061605f565b60405180910390fd5b60011515600b60003373ffffffffffffffffffffffffffffffffffffffff1673ffffffffffffffffffffffffffffffffffffffff16815260200190815260200160002060009054906101000a900460ff16151514613dd9576040517f08c379a0000000000000000000000000000000000000000000000000000000008152600401613dd09061613f565b60405180910390fd5b600073ffffffffffffffffffffffffffffffffffffffff168373ffffffffffffffffffffffffffffffffffffffff161415613e49576040517f08c379a0000000000000000000000000000000000000000000000000000000008152600401613e409061607f565b60405180910390fd5b613e51614d39565b600d60008573ffffffffffffffffffffffffffffffffffffffff1673ffffffffffffffffffffffffffffffffffffffff1681526020019081526020016000206040518060400160405290816000820160009054906101000a900473ffffffffffffffffffffffffffffffffffffffff1673ffffffffffffffffffffffffffffffffffffffff1673ffffffffffffffffffffffffffffffffffffffff168152602001600182018054600181600116156101000203166002900480601f016020809104026020016040519081016040528092919081815260200182805460018160011615610100020316600290048015613f8a5780601f10613f5f57610100808354040283529160200191613f8a565b820191906000526020600020905b815481529060010190602001808311613f6d57829003601f168201915b505050505081525050905060006001600260018282829054906101000a900460ff160192506101000a81548160ff021916908360ff1602179055905084826000019073ffffffffffffffffffffffffffffffffffffffff16908173ffffffffffffffffffffffffffffffffffffffff16815250508481604051602001614011929190615d9c565b6040516020818303038152906040528260200181905250600682908060018154018082558091505060019003906000526020600020906002020160009091909190915060008201518160000160006101000a81548173ffffffffffffffffffffffffffffffffffffffff021916908373ffffffffffffffffffffffffffffffffffffffff16021790555060208201518160010190805190602001906140b7929190614b55565b50505083600e60008773ffffffffffffffffffffffffffffffffffffffff1673ffffffffffffffffffffffffffffffffffffffff16815260200190815260200160002060006101000a81548160ff0219169083151502179055506001600c60008773ffffffffffffffffffffffffffffffffffffffff1673ffffffffffffffffffffffffffffffffffffffff16815260200190815260200160002060006101000a81548160ff0219169083151502179055508473ffffffffffffffffffffffffffffffffffffffff167f080aee23a4b60a0a99506ef4ac0b025d3784de82d87f414749e3e4faa028297083602001516040516141b39190615e6b565b60405180910390a2829250505092915050565b600e6020528060005260406000206000915054906101000a900460ff1681565b60196020528060005260406000206000915090505481565b600082600115156018826040516142159190615ccb565b908152602001604051809103902060009054906101000a900460ff16151514614273576040517f08c379a000000000000000000000000000000000000000000000000000000000815260040161426a9061625f565b60405180910390fd5b61427b614a6f565b60158560405161428b9190615ccb565b908152602001604051809103902060405180610100016040529081600082018054600181600116156101000203166002900480601f01602080910402602001604051908101604052809291908181526020018280546001816001161561010002031660029004801561433e5780601f106143135761010080835404028352916020019161433e565b820191906000526020600020905b81548152906001019060200180831161432157829003601f168201915b5050505050815260200160018201548152602001600282015481526020016003820160009054906101000a900473ffffffffffffffffffffffffffffffffffffffff1673ffffffffffffffffffffffffffffffffffffffff1673ffffffffffffffffffffffffffffffffffffffff168152602001600482018054600181600116156101000203166002900480601f01602080910402602001604051908101604052809291908181526020018280546001816001161561010002031660029004801561444a5780601f1061441f5761010080835404028352916020019161444a565b820191906000526020600020905b81548152906001019060200180831161442d57829003601f168201915b505050505081526020016005820160009054906101000a900460ff16600181111561447157fe5b600181111561447c57fe5b8152602001600682018054600181600116156101000203166002900480601f0160208091040260200160405190810160405280929190818152602001828054600181600116156101000203166002900480156145195780601f106144ee57610100808354040283529160200191614519565b820191906000526020600020905b8154815290600101906020018083116144fc57829003601f168201915b50505050508152602001600782015481525050905060008160200151905060008260600151905060008611614583576040517f08c379a000000000000000000000000000000000000000000000000000000000815260040161457a9061619f565b60405180910390fd5b81601960003373ffffffffffffffffffffffffffffffffffffffff1673ffffffffffffffffffffffffffffffffffffffff168152602001908152602001600020541015614605576040517f08c379a00000000000000000000000000000000000000000000000000000000081526004016145fc9061611f565b60405180910390fd5b600460009054906101000a900460ff16600181111561462057fe5b8360a00151600181111561463057fe5b14614670576040517f08c379a00000000000000000000000000000000000000000000000000000000081526004016146679061603f565b60405180910390fd5b82604001518611156146b7576040517f08c379a00000000000000000000000000000000000000000000000000000000081526004016146ae906161df565b60405180910390fd5b60008614156146c557600080fd5b60008287029050828782816146d657fe5b04146146e157600080fd5b80601960003373ffffffffffffffffffffffffffffffffffffffff1673ffffffffffffffffffffffffffffffffffffffff1681526020019081526020016000206000828254039250508190555080601960008473ffffffffffffffffffffffffffffffffffffffff1673ffffffffffffffffffffffffffffffffffffffff168152602001908152602001600020600082825401925050819055506000601660008473ffffffffffffffffffffffffffffffffffffffff1673ffffffffffffffffffffffffffffffffffffffff168152602001908152602001600020896040516147ca9190615ccb565b908152602001604051809103902060006101000a81548160ff0219169083151502179055506001601660003373ffffffffffffffffffffffffffffffffffffffff1673ffffffffffffffffffffffffffffffffffffffff1681526020019081526020016000208960405161483e9190615ccb565b908152602001604051809103902060006101000a81548160ff021916908315150217905550600084604001519050878103905060008114156148be57614882614a6f565b9450600460019054906101000a900460ff16600181111561489f57fe5b8560a0015160018111156148af57fe5b5050869650505050505061492b565b60008111156148d257808560400181815250505b60016003600082825401925050819055601a60003373ffffffffffffffffffffffffffffffffffffffff1673ffffffffffffffffffffffffffffffffffffffff1681526020019081526020016000208190555050505050505b5092915050565b600c6020528060005260406000206000915054906101000a900460ff1681565b60106020528060005260406000206000915090508054600181600116156101000203166002900480601f0160208091040260200160405190810160405280929190818152602001828054600181600116156101000203166002900480156149fa5780601f106149cf576101008083540402835291602001916149fa565b820191906000526020600020905b8154815290600101906020018083116149dd57829003601f168201915b505050505081565b601a6020528060005260406000206000915090505481565b6040518060e00160405280600073ffffffffffffffffffffffffffffffffffffffff16815260200160608152602001606081526020016000815260200160001515815260200160008152602001600081525090565b604051806101000160405280606081526020016000815260200160008152602001600073ffffffffffffffffffffffffffffffffffffffff1681526020016060815260200160006001811115614ac157fe5b815260200160608152602001600081525090565b828054600181600116156101000203166002900490600052602060002090601f016020900481019282601f10614b1657805160ff1916838001178555614b44565b82800160010185558215614b44579182015b82811115614b43578251825591602001919060010190614b28565b5b509050614b519190614d69565b5090565b828054600181600116156101000203166002900490600052602060002090601f016020900481019282601f10614b9657805160ff1916838001178555614bc4565b82800160010185558215614bc4579182015b82811115614bc3578251825591602001919060010190614ba8565b5b509050614bd19190614d69565b5090565b828054600181600116156101000203166002900490600052602060002090601f016020900481019282601f10614c1657805160ff1916838001178555614c44565b82800160010185558215614c44579182015b82811115614c43578251825591602001919060010190614c28565b5b509050614c519190614d69565b5090565b5080546000825560070290600052602060002090810190614c769190614d8e565b50565b50805460018160011615610100020316600290046000825580601f10614c9f5750614cbe565b601f016020900490600052602060002090810190614cbd9190614d69565b5b50565b50805460018160011615610100020316600290046000825580601f10614ce75750614d06565b601f016020900490600052602060002090810190614d059190614d69565b5b50565b6040518060400160405280600073ffffffffffffffffffffffffffffffffffffffff168152602001606081525090565b6040518060400160405280600073ffffffffffffffffffffffffffffffffffffffff168152602001606081525090565b614d8b91905b80821115614d87576000816000905550600101614d6f565b5090565b90565b614e1d91905b80821115614e1957600080820160006101000a81549073ffffffffffffffffffffffffffffffffffffffff0219169055600182016000614dd49190614c79565b600282016000614de49190614cc1565b60038201600090556004820160006101000a81549060ff02191690556005820160009055600682016000905550600701614d94565b5090565b90565b600081359050614e2f8161654a565b92915050565b600081359050614e4481616561565b92915050565b600081359050614e5981616578565b92915050565b60008083601f840112614e7157600080fd5b8235905067ffffffffffffffff811115614e8a57600080fd5b602083019150836001820283011115614ea257600080fd5b9250929050565b600082601f830112614eba57600080fd5b8135614ecd614ec882616329565b6162fc565b91508082526020830160208301858383011115614ee957600080fd5b614ef48382846164ea565b50505092915050565b600082601f830112614f0e57600080fd5b8135614f21614f1c82616355565b6162fc565b91508082526020830160208301858383011115614f3d57600080fd5b614f488382846164ea565b50505092915050565b600082601f830112614f6257600080fd5b8135614f75614f7082616381565b6162fc565b91508082526020830160208301858383011115614f9157600080fd5b614f9c8382846164ea565b50505092915050565b600081359050614fb48161658f565b92915050565b600060208284031215614fcc57600080fd5b6000614fda84828501614e20565b91505092915050565b60008060408385031215614ff657600080fd5b600061500485828601614e35565b925050602061501585828601614e4a565b9150509250929050565b6000806040838503121561503257600080fd5b600061504085828601614e35565b925050602061505185828601614fa5565b9150509250929050565b6000806040838503121561506e57600080fd5b600061507c85828601614e20565b925050602061508d85828601614e4a565b9150509250929050565b600080604083850312156150aa57600080fd5b60006150b885828601614e20565b925050602083013567ffffffffffffffff8111156150d557600080fd5b6150e185828601614ea9565b9150509250929050565b600080604083850312156150fe57600080fd5b600061510c85828601614e20565b925050602083013567ffffffffffffffff81111561512957600080fd5b61513585828601614efd565b9150509250929050565b60006020828403121561515157600080fd5b600082013567ffffffffffffffff81111561516b57600080fd5b61517784828501614efd565b91505092915050565b6000806040838503121561519357600080fd5b600083013567ffffffffffffffff8111156151ad57600080fd5b6151b985828601614efd565b92505060206151ca85828601614fa5565b9150509250929050565b600080600080600060a086880312156151ec57600080fd5b600086013567ffffffffffffffff81111561520657600080fd5b61521288828901614f51565b955050602086013567ffffffffffffffff81111561522f57600080fd5b61523b88828901614f51565b945050604086013567ffffffffffffffff81111561525857600080fd5b61526488828901614f51565b935050606061527588828901614fa5565b925050608061528688828901614fa5565b9150509295509295909350565b600080600080600060a086880312156152ab57600080fd5b600086013567ffffffffffffffff8111156152c557600080fd5b6152d188828901614f51565b955050602086013567ffffffffffffffff8111156152ee57600080fd5b6152fa88828901614f51565b945050604061530b88828901614fa5565b935050606086013567ffffffffffffffff81111561532857600080fd5b61533488828901614efd565b925050608061534588828901614fa5565b9150509295509295909350565b60006020828403121561536457600080fd5b600061537284828501614fa5565b91505092915050565b60008060006040848603121561539057600080fd5b600061539e86828701614fa5565b935050602084013567ffffffffffffffff8111156153bb57600080fd5b6153c786828701614e5f565b92509250509250925092565b6153dc816164a2565b82525050565b6153eb8161643a565b82525050565b6153fa8161643a565b82525050565b61540981616428565b82525050565b6154188161644c565b82525050565b600061542a83856163ea565b93506154378385846164ea565b6154408361652c565b840190509392505050565b600061545783856163fb565b93506154648385846164ea565b82840190509392505050565b600061547b826163b8565b61548581856163ea565b93506154958185602086016164f9565b61549e8161652c565b840191505092915050565b60006154b4826163b8565b6154be81856163fb565b93506154ce8185602086016164f9565b80840191505092915050565b60006154e5826163ad565b6154ef81856163d9565b93506154ff8185602086016164f9565b6155088161652c565b840191505092915050565b600061551e826163ad565b61552881856163ea565b93506155388185602086016164f9565b6155418161652c565b840191505092915050565b615555816164b4565b82525050565b615564816164b4565b82525050565b6000615575826163ce565b61557f8185616417565b935061558f8185602086016164f9565b6155988161652c565b840191505092915050565b60006155ae826163c3565b6155b88185616406565b93506155c88185602086016164f9565b6155d18161652c565b840191505092915050565b60006155e7826163c3565b6155f18185616417565b93506156018185602086016164f9565b61560a8161652c565b840191505092915050565b6000615622601583616417565b91507f43616e6f6f742066696e6420616e79206d6174636800000000000000000000006000830152602082019050919050565b6000615662601083616417565b91507f4974656d20556e617661696c61626c65000000000000000000000000000000006000830152602082019050919050565b60006156a2601683616417565b91507f4e6f7420417574686f72697a65642061646472657373000000000000000000006000830152602082019050919050565b60006156e2600f83616417565b91507f496e76616c6964206164647265737300000000000000000000000000000000006000830152602082019050919050565b6000615722602683616417565b91507f416464726573732063616e206f6e6c79206372656174652074776f2073746f7260008301527f6566726f6e7400000000000000000000000000000000000000000000000000006020830152604082019050919050565b6000615788601c83616417565b91507f52657175657374206661696c65643b204e6f7420616e206f776e6572000000006000830152602082019050919050565b60006157c8601483616417565b91507f53746f726520646f6573206e6f742065786973740000000000000000000000006000830152602082019050919050565b6000615808601183616417565b91507f4e6f7420616c72656164792061646465640000000000000000000000000000006000830152602082019050919050565b6000615848601583616417565b91507f496e7375666669636569656e742062616c616e636500000000000000000000006000830152602082019050919050565b6000615888600e83616417565b91507f4e6f7420417574686f72697a65640000000000000000000000000000000000006000830152602082019050919050565b60006158c8600c83616417565b91507f4e6f7420616e2061646d696e00000000000000000000000000000000000000006000830152602082019050919050565b6000615908601683616417565b91507f4d61782061646d696e206c6973742072656163686564000000000000000000006000830152602082019050919050565b6000615948601083616417565b91507f496e76616c6964207175616e74697479000000000000000000000000000000006000830152602082019050919050565b6000615988601483616417565b91507f50726963652063616e6e6f74206265207a65726f0000000000000000000000006000830152602082019050919050565b60006159c8602583616417565b91507f43616e6e6f74206578636565642073656c6c657227732070726573657420616d60008301527f6f756e742e0000000000000000000000000000000000000000000000000000006020830152604082019050919050565b6000615a2e602183616417565b91507f556e617574686f72697a656420746f20616464204974656d20746f2073746f7260008301527f65000000000000000000000000000000000000000000000000000000000000006020830152604082019050919050565b6000615a94601683616417565b91507f41646472657373206e6f7420617574686f72697a6564000000000000000000006000830152602082019050919050565b6000615ad4601583616417565b91507f50726963652063616e6e6f7420626520656d70747900000000000000000000006000830152602082019050919050565b6000615b14601383616417565b91507f4974656d20646f6573206e6f74206578697374000000000000000000000000006000830152602082019050919050565b6000615b54601383616417565b91507f53746f726520616c7265616479206578697374000000000000000000000000006000830152602082019050919050565b6000615b94601983616417565b91507f4e6f7420612073746f7265206f776e657220616c7265616479000000000000006000830152602082019050919050565b6000610100830160008301518482036000860152615be582826155a3565b9150506020830151615bfa6020860182615c85565b506040830151615c0d6040860182615c85565b506060830151615c2060608601826153e2565b5060808301518482036080860152615c3882826154da565b91505060a0830151615c4d60a086018261554c565b5060c083015184820360c0860152615c6582826154da565b91505060e0830151615c7a60e0860182615c85565b508091505092915050565b615c8e8161648b565b82525050565b615c9d8161648b565b82525050565b615cac81616495565b82525050565b6000615cbf82848661544b565b91508190509392505050565b6000615cd782846154a9565b915081905092915050565b6000604082019050615cf760008301856153f1565b8181036020830152615d09818461556a565b90509392505050565b6000604082019050615d2760008301856153d3565b615d346020830184615c94565b9392505050565b600060a082019050615d5060008301886153f1565b615d5d6020830187615c94565b8181036040830152615d6f818661556a565b9050615d7e6060830185615c94565b8181036080830152615d90818461556a565b90509695505050505050565b6000604082019050615db160008301856153f1565b615dbe6020830184615ca3565b9392505050565b6000604082019050615dda6000830185615400565b8181036020830152615dec8184615513565b90509392505050565b6000604082019050615e0a6000830185615400565b615e176020830184615ca3565b9392505050565b6000602082019050615e33600083018461540f565b92915050565b60006040820190508181036000830152615e5481858761541e565b9050615e636020830184615c94565b949350505050565b60006020820190508181036000830152615e858184615513565b905092915050565b60006020820190508181036000830152615ea78184615470565b905092915050565b60006040820190508181036000830152615ec98185615470565b90508181036020830152615edd818461556a565b90509392505050565b60006040820190508181036000830152615f00818561556a565b90508181036020830152615f148184615470565b90509392505050565b600060c0820190508181036000830152615f37818961556a565b9050615f466020830188615c94565b615f536040830187615400565b8181036060830152615f658186615470565b9050615f74608083018561540f565b615f8160a0830184615c94565b979650505050505050565b6000610100820190508181036000830152615fa7818b6155dc565b9050615fb6602083018a615c94565b615fc36040830189615c94565b615fd060608301886153f1565b8181036080830152615fe28187615513565b9050615ff160a083018661555b565b81810360c08301526160038185615513565b905061601260e0830184615c94565b9998505050505050505050565b6000602082019050818103600083015261603881615615565b9050919050565b6000602082019050818103600083015261605881615655565b9050919050565b6000602082019050818103600083015261607881615695565b9050919050565b60006020820190508181036000830152616098816156d5565b9050919050565b600060208201905081810360008301526160b881615715565b9050919050565b600060208201905081810360008301526160d88161577b565b9050919050565b600060208201905081810360008301526160f8816157bb565b9050919050565b60006020820190508181036000830152616118816157fb565b9050919050565b600060208201905081810360008301526161388161583b565b9050919050565b600060208201905081810360008301526161588161587b565b9050919050565b60006020820190508181036000830152616178816158bb565b9050919050565b60006020820190508181036000830152616198816158fb565b9050919050565b600060208201905081810360008301526161b88161593b565b9050919050565b600060208201905081810360008301526161d88161597b565b9050919050565b600060208201905081810360008301526161f8816159bb565b9050919050565b6000602082019050818103600083015261621881615a21565b9050919050565b6000602082019050818103600083015261623881615a87565b9050919050565b6000602082019050818103600083015261625881615ac7565b9050919050565b6000602082019050818103600083015261627881615b07565b9050919050565b6000602082019050818103600083015261629881615b47565b9050919050565b600060208201905081810360008301526162b881615b87565b9050919050565b600060208201905081810360008301526162d98184615bc7565b905092915050565b60006020820190506162f66000830184615c94565b92915050565b6000604051905081810181811067ffffffffffffffff8211171561631f57600080fd5b8060405250919050565b600067ffffffffffffffff82111561634057600080fd5b601f19601f8301169050602081019050919050565b600067ffffffffffffffff82111561636c57600080fd5b601f19601f8301169050602081019050919050565b600067ffffffffffffffff82111561639857600080fd5b601f19601f8301169050602081019050919050565b600081519050919050565b600081519050919050565b600081519050919050565b600081519050919050565b600082825260208201905092915050565b600082825260208201905092915050565b600081905092915050565b600082825260208201905092915050565b600082825260208201905092915050565b60006164338261646b565b9050919050565b60006164458261646b565b9050919050565b60008115159050919050565b60008190506164668261653d565b919050565b600073ffffffffffffffffffffffffffffffffffffffff82169050919050565b6000819050919050565b600060ff82169050919050565b60006164ad826164c6565b9050919050565b60006164bf82616458565b9050919050565b60006164d1826164d8565b9050919050565b60006164e38261646b565b9050919050565b82818337600083830152505050565b60005b838110156165175780820151818401526020810190506164fc565b83811115616526576000848401525b50505050565b6000601f19601f8301169050919050565b6002811061654757fe5b50565b61655381616428565b811461655e57600080fd5b50565b61656a8161643a565b811461657557600080fd5b50565b6165818161644c565b811461658c57600080fd5b50565b6165988161648b565b81146165a357600080fd5b5056fea264697066735822122013066acaa7da52485cfa0aad631b2aa03675e0dabd605d396941a382df3aedf264736f6c63430006010033",
  "source": "// SPDX-License-Identifier: MIT\r\npragma solidity ^0.6.0;\r\npragma experimental ABIEncoderV2;\r\n// Online MarketPlace running on the blockchain\r\ncontract GMart{\r\n    address private owner;\r\n    uint totalItem = 0;\r\n    uint8 defaultId = 10;\r\n    uint8 defaultId_storeOwner = 0;\r\n    // uint public totalStorefronts = 0;\r\n    uint shoppers_count;\r\n    \r\n    enum ItemStatus{Unavailable, Available}\r\n    ItemStatus available = ItemStatus(1);\r\n    ItemStatus unavailable = ItemStatus(0);\r\n    \r\n    //Struct of admin specs.\r\n    struct Admins {\r\n        address addr;\r\n        bytes id;\r\n    }\r\n    //Struct of StoreOwners specs\r\n    struct StoreOwners{\r\n        address addr;\r\n        bytes id;\r\n    }\r\n    \r\n    // Store details for adding a store to the storefront.\r\n    struct Storefront {\r\n        address payable storeOwner; // storeowner's public key\r\n        string name;\r\n        bytes storeref;\r\n        uint dateCreated;\r\n        bool active;\r\n        uint storecount;\r\n        uint itemCount;\r\n    }\r\n    //Struct of item specs\r\n    struct Item {\r\n        string name;\r\n        uint price;\r\n        uint quantity;\r\n        address payable sellerAddress;\r\n        bytes itemRef;\r\n        ItemStatus status;\r\n        bytes description;\r\n        uint itemCountId;\r\n    }\r\n    \r\n    Admins[] public adminList;\r\n    StoreOwners[] public storeOwnerslist;\r\n    Storefront[] storesList;\r\n    Item[] public itemList;\r\n\r\n    event ApprovedStoreOwner(address indexed _addr, bytes _ref);\r\n    event NewAdmin(address indexed _addr, bytes _ref);\r\n    event NewStoreFront(address indexed _newstore, bytes _storeId, string _name);\r\n    event UnregisteredStore(address indexed _storeOwnerAddress);\r\n    event NewItem(address indexed _addr, string _itemName, bytes _itemRef);\r\n    event PriceChange(bytes _referenceId, uint256 _newSetPrice);\r\n    event Withdrawal(address indexed _from, address indexed _to, uint _amount);\r\n    event RemovedItem(address indexed _msgsender, bytes _refId);\r\n    event ReceivedEther(address, uint);\r\n    \r\n\r\n    mapping(address => bool) public  isAdmin;\r\n    mapping(address => Admins) adminMap;\r\n    mapping(address => bool) public adminApprovalToAdd;\r\n    mapping(address => bool) public isStoreOwnerApproved;\r\n    mapping(address => StoreOwners) storeOwnerMap;\r\n    mapping(address => bool) public storeOwnerApprovalToAddItem;//marked\r\n    mapping(address => mapping(bytes => bool)) public ifStorefAvailable;\r\n    mapping(address => bytes) public storef;\r\n    mapping(address => mapping(bytes => Storefront[])) storeMap; //List of storefronts\r\n    mapping(bytes => Storefront) storeHashMap;\r\n    mapping(address => mapping(bytes => Item)) public itemMap;\r\n    mapping(address => mapping(uint => Item)) itemcount;\r\n    mapping(bytes => Item) itemRefMap;\r\n    mapping(address => mapping(bytes => bool)) public ownerShip;\r\n    mapping(address => mapping(bytes => bytes)) itemHashMap;\r\n    mapping(bytes => bool) itemExist;\r\n    mapping(address => uint256) public balance;\r\n    mapping(address => uint256) public shoppers;\r\n\r\n    // EnumerableMap.UintToAddressMap private store_list;\r\n    \r\n    // Initialized at deployment time.\r\n    constructor () public {\r\n        // token = IERC777(_token);\r\n        owner = msg.sender;\r\n        // _erc1820.setInterfaceImplementer(address(this), TOKENS_RECIPIENT_INTERFACE_HASH, address(this));\r\n        \r\n    }\r\n    //Only sender with owner Authorization is permiitted\r\n    modifier onlyOwner() {\r\n        require(msg.sender == owner, \"Request failed; Not an owner\");\r\n        _;\r\n    }\r\n    //Only sender with admin role is permiitted\r\n    modifier onlyAdmin() {\r\n        require(isAdmin[msg.sender] == true, \"Not Authorized address\");\r\n        require(adminApprovalToAdd[msg.sender] == true, \"Not Authorized\");\r\n        _;\r\n    }\r\n    //Only approved store owner is allowed\r\n    modifier approvedStoreOwner() {\r\n        require(isStoreOwnerApproved[msg.sender] == true, \"Address not authorized\");\r\n        require(storeOwnerApprovalToAddItem[msg.sender] == true, \"Unauthorized to add Item to store\");\r\n        _;\r\n    }\r\n    //Check if an item exist in a particular storefront\r\n    modifier checkItemExist(bytes memory _itemRef) {\r\n        require(itemExist[_itemRef] == true, \"Item does not exist\");\r\n        _;\r\n    }\r\n    \r\n    /**\r\n     * @dev adds an adminList\r\n     * function is called only by the authorized owner address\r\n     */\r\n    function addAdmin(address _addr, bool _approval) public onlyOwner returns(bool successful){\r\n        require(adminList.length <= 3, \"Max admin list reached\");\r\n        require(_addr != address(0), \"Invalid address\");\r\n        Admins memory _adminStruct = adminMap[_addr];\r\n        uint8 tempAdminId = defaultId += 1;\r\n        _adminStruct.addr = _addr;\r\n        _adminStruct.id = abi.encode(_addr, tempAdminId);\r\n        adminList.push(_adminStruct);\r\n        adminApprovalToAdd[_addr] = _approval;\r\n        isAdmin[_addr] = true;\r\n        emit NewAdmin(_addr, _adminStruct.id);\r\n        return successful;\r\n    }\r\n    \r\n    function approve_StoreOwner(address payable _addr, bool _approval) public onlyAdmin returns(bool successful) {\r\n        require(_addr != address(0), \"Invalid address\");\r\n        StoreOwners memory _ownerStruct = storeOwnerMap[_addr];\r\n        uint8 tempId = defaultId_storeOwner += 1;\r\n        _ownerStruct.addr = _addr;\r\n        _ownerStruct.id = abi.encode(_addr, tempId);\r\n        storeOwnerslist.push(_ownerStruct);\r\n        storeOwnerApprovalToAddItem[_addr] = _approval;\r\n        isStoreOwnerApproved[_addr] = true;\r\n        emit ApprovedStoreOwner(_addr, _ownerStruct.id);\r\n        return successful;\r\n    }\r\n    \r\n    function changeAdminApproval(address _addr, bool _approval) public onlyOwner {\r\n        require(isAdmin[_addr] == true, \"Not already added\");\r\n        adminApprovalToAdd[_addr] = _approval;\r\n    }\r\n    \r\n    function changeStoreOwnerApproval(address _addr, bool _approval) public onlyAdmin {\r\n        require(isStoreOwnerApproved[_addr] == true, \"Not already added\");\r\n        storeOwnerApprovalToAddItem[_addr] = _approval;\r\n    }\r\n\r\n    /**\r\n    * StoreOwners Registers a new storefront. \r\n    * currently a participant self-adding strorefront\r\n    * param: _storeName: Name of the store.\r\n    * param: _itemName: Name of an item.\r\n    * param: _description: Detail of an item.\r\n    * param: _price: unit price of an item.\r\n    * param: _storeref: A unique reference Id to the store.\r\n    * param: _quantity: Unit of item to add.\r\n    */\r\n    function addStorefront(\r\n         string memory _storeName,\r\n         string memory _itemName,\r\n         string memory _description,\r\n         uint _price,\r\n         uint _quantity\r\n         ) public approvedStoreOwner returns(bool success) {\r\n         Storefront memory _newStoreFront;\r\n         Item memory _newItem;\r\n         bytes memory _storeRef = abi.encode(msg.sender, _storeName);\r\n         require(ifStorefAvailable[msg.sender][_storeRef] == false, \"Store already exist\" );\r\n         require(storeMap[msg.sender][_storeRef].length < 3, \"Address can only create two storefront\");\r\n         _newStoreFront.dateCreated = block.timestamp - 15;\r\n         _newStoreFront.name = _storeName;\r\n         _newStoreFront.storeOwner = msg.sender;\r\n         _newStoreFront.storeref = _storeRef;\r\n         _newStoreFront.active = true;\r\n         if(_newStoreFront.itemCount == 0){\r\n             _newItem = addItemToStore(_itemName, _description, _price, _storeRef, _quantity);\r\n             _newStoreFront.storecount += 1;\r\n         }\r\n        //  require(_newStoreFront.shelve.length > 0, \"Shelve cannot be empty\");\r\n         storeMap[msg.sender][_storeRef].push(_newStoreFront);\r\n         ifStorefAvailable[msg.sender][_storeRef] = true;\r\n         storef[msg.sender] = _storeRef;\r\n         storeHashMap[_storeRef] = _newStoreFront;\r\n         emit NewStoreFront(msg.sender, _storeRef, _itemName);\r\n         return success;\r\n        \r\n     }\r\n     \r\n     function getStoreDetail(bytes memory _ref) public view approvedStoreOwner returns(string memory, uint, address, bytes memory, bool, uint) {\r\n         require(ifStorefAvailable[msg.sender][_ref] == true, \"Store does not exist\" );\r\n         Storefront memory _storeToGet = storeHashMap[_ref];\r\n         return(\r\n             _storeToGet.name,\r\n             _storeToGet.dateCreated,\r\n             _storeToGet.storeOwner,\r\n             _storeToGet.storeref,\r\n             _storeToGet.active,\r\n             _storeToGet.storecount\r\n            );\r\n        \r\n     }\r\n     \r\n          /**\r\n     * StoreOwners Registers a new item to shelve. \r\n     * param: _itemName: Name of an item.\r\n     * param: _description: Detail of an item.\r\n     * param: _price: unit price of an item.\r\n     * param: _storeref: A unique reference Id to the store.\r\n     * param: _quantity: Unit of item to add.\r\n     */\r\n     \r\n    function addItemToStore(\r\n        string memory _itemName,\r\n        string memory _description,\r\n        uint _price,\r\n        bytes memory _storeRef,\r\n        uint _qnty\r\n        )public \r\n        approvedStoreOwner \r\n        returns(Item memory _newItem)\r\n        {\r\n            require(_price > 0, \"Price cannot be empty\");\r\n            _newItem.name = _itemName;\r\n            _newItem.price = _price;\r\n            _newItem.quantity = _qnty;\r\n            _newItem.itemCountId += 1;\r\n            bytes memory _itemref = abi.encode(msg.sender, _newItem.itemCountId, _itemName, _price, _description);\r\n            _newItem.sellerAddress = msg.sender;\r\n            _newItem.itemRef = _itemref;\r\n            itemcount[msg.sender][_newItem.itemCountId] = _newItem;\r\n            ownerShip[msg.sender][_itemref] = true;\r\n            _newItem.status = available;\r\n            itemList.push(_newItem);\r\n            itemMap[msg.sender][_itemref] = (_newItem);\r\n            itemRefMap[_itemref] = _newItem;\r\n            itemHashMap[msg.sender][_storeRef] = _itemref;\r\n            itemExist[_itemref] = true;\r\n            // uint newItemIndex = EnumerableMap.length(allItem);\r\n            // EnumerableMap.set(allItem, newItemIndex, msg.sender);\r\n            emit NewItem(msg.sender, _itemName, _itemref);\r\n            return _newItem;\r\n     }\r\n     \r\n     function removeAnItem(bytes memory _itemRef) public approvedStoreOwner checkItemExist(_itemRef) {\r\n         delete itemMap[msg.sender][_itemRef];\r\n         emit RemovedItem(msg.sender, _itemRef);\r\n     }\r\n      function removeAStore(bytes memory _ref) public approvedStoreOwner {\r\n          delete storeMap[msg.sender][_ref];\r\n      }\r\n\r\n     function adjustPrice(uint _newPrice, bytes calldata _itemRef) external approvedStoreOwner checkItemExist(_itemRef) {\r\n         require(_newPrice > 0, \"Price cannot be zero\");\r\n         Item memory currentItem = itemMap[msg.sender][_itemRef];\r\n         uint _oldPrice = currentItem.price;\r\n         _oldPrice = _newPrice;\r\n         emit PriceChange(_itemRef, _newPrice);\r\n     }\r\n     \r\n    function buyItem(\r\n        bytes memory _itemRef,\r\n        uint _qnty\r\n        )public payable checkItemExist(_itemRef) returns(bool success) \r\n        {\r\n            Item memory _itemToBuy = itemRefMap[_itemRef];\r\n            uint buyUnitPrice = _itemToBuy.price;\r\n            address _sellerAddress = _itemToBuy.sellerAddress;\r\n            require(_qnty > 0, \"Invalid quantity\");\r\n            require(balance[msg.sender] >= buyUnitPrice, \"Insufficeient balance\");\r\n            require(_itemToBuy.status == available, \"Item Unavailable\");\r\n            require(_qnty <= _itemToBuy.quantity, \"Cannot exceed seller's preset amount.\");\r\n            if (_qnty == 0) {\r\n              revert();\r\n            }\r\n            uint256 amountToPay = _qnty * buyUnitPrice;\r\n            require(amountToPay / _qnty == buyUnitPrice);\r\n            balance[msg.sender] -= amountToPay;\r\n            balance[_sellerAddress] += amountToPay;\r\n            ownerShip[_sellerAddress][_itemRef] = false;\r\n            ownerShip[msg.sender][_itemRef] = true;\r\n            uint prevQuanty = _itemToBuy.quantity;\r\n            prevQuanty -= _qnty;\r\n            if(prevQuanty == 0){\r\n                delete _itemToBuy;\r\n                _itemToBuy.status == unavailable;\r\n                return success;\r\n            }else if(prevQuanty > 0){\r\n                _itemToBuy.quantity = prevQuanty;\r\n            }\r\n            shoppers[msg.sender] = shoppers_count += 1;\r\n     }\r\n     \r\n    function withdrawBalanceStoreOwner(address payable _addr, uint _amount) external payable approvedStoreOwner returns(bool success) {\r\n         require(balance[msg.sender] >= _amount, \"Insufficeient balance\");\r\n         balance[msg.sender] -= _amount;\r\n         _addr.transfer(_amount);\r\n         emit Withdrawal(msg.sender, _addr, _amount);\r\n         return success;\r\n     }\r\n    \r\n    function deleteAdmin(address _addr) public onlyOwner returns(bool success) {\r\n        require(isAdmin[_addr] == true, \"Not an admin\");\r\n        return isAdmin[_addr] = false;\r\n    }\r\n    \r\n    /**\r\n     * @dev UnRegisters a store from the Storefront \r\n     * currently only an admin is able to remove store\r\n     */\r\n    function unregisterStore(address _addr, bytes memory _ref) public onlyAdmin returns(bool success) {\r\n        require(isStoreOwnerApproved[_addr] == true, \"Not a store owner already\");\r\n        require(ifStorefAvailable[_addr][_ref] == true, \"Canoot find any match\");\r\n        delete storeMap[_addr][_ref];\r\n        emit UnregisteredStore(_addr);\r\n        return success;\r\n    }\r\n    \r\n    //@dev Withdraw funds\r\n    function withdraw(uint _amount) onlyOwner public payable{\r\n        msg.sender.transfer(_amount);\r\n    }\r\n    \r\n    receive() external payable {\r\n        emit ReceivedEther(msg.sender, msg.value);\r\n    }\r\n    \r\n}    ",
  "sourcePath": "C:/Users/OWNER/Desktop/finalProject/consensys-finalProject/contracts/GMart.sol",
  "compiler": {
    "name": "solc",
    "version": "0.6.1+commit.e6f7d5a4.Emscripten.clang"
  },
  "schemaVersion": "3.2.5",
  "updatedAt": "2020-11-26T20:25:34.666Z",
  "networkType": "ethereum",
  "devdoc": {
    "methods": {
      "addAdmin(address,bool)": {
        "details": "adds an adminList function is called only by the authorized owner address"
      },
      "unregisterStore(address,bytes)": {
        "details": "UnRegisters a store from the Storefront  currently only an admin is able to remove store"
      }
    }
  },
  "userdoc": {
    "methods": {
      "addItemToStore(string,string,uint256,bytes,uint256)": {
        "notice": "StoreOwners Registers a new item to shelve.  param: _itemName: Name of an item. param: _description: Detail of an item. param: _price: unit price of an item. param: _storeref: A unique reference Id to the store. param: _quantity: Unit of item to add."
      },
      "addStorefront(string,string,string,uint256,uint256)": {
        "notice": "StoreOwners Registers a new storefront.  currently a participant self-adding strorefront param: _storeName: Name of the store. param: _itemName: Name of an item. param: _description: Detail of an item. param: _price: unit price of an item. param: _storeref: A unique reference Id to the store. param: _quantity: Unit of item to add."
      }
    }
  }
}